:020000040800F2
:100000000000022069830108075A0008095A000805
:100010000B5A00080D5A00080F5A00080000000093
:1000200000000000000000000000000081DC00086B
:10003000115A00080000000021DD0008B5D10008B9
:10004000B9830108B9830108B9830108B98301089C
:10005000B9830108B9830108B9830108B98301088C
:10006000B9830108B9830108B9830108155A00084A
:10007000255A0008355A0008455A0008555A000804
:10008000B9830108655A0008B9830108B9830108DA
:10009000B9830108B9830108B9830108B98301084C
:1000A000B9830108755A0008B9830108B9830108AA
:1000B000855A0008955A0008A55A0008B983010816
:1000C000B9830108B9830108B9830108B98301081C
:1000D000B9830108B55A0008B9830108C55A000858
:1000E000B9830108B9830108B9830108B9830108FC
:1000F000D55A0008B9830108B9830108B9830108FA
:10010000B9830108B9830108E55A0008B9830108D9
:10011000B9830108B9830108F55A0008055B000896
:10012000B9830108155B0008255B0008B983010845
:10013000B9830108355B0008B9830108B983010858
:10014000B9830108B9830108B9830108B98301089B
:10015000B9830108455B0008555B0008655B000832
:10016000B9830108B9830108B9830108B98301087B
:10017000B9830108B9830108B983010800000000B0
:08018000B9830108B9830108ED
:1001900010B5054C237833B9044B13B10448AFF3C1
:1001A00000800123237010BDF40200200000000035
:1001B0001CAE010808B5034B1BB103490348AFF35C
:1001C000008008BD00000000F80200201CAE0108FD
:1001D00010F8012B11F8013B012A28BF9A42F7D0F1
:1001E000D01A7047034613F8012B002AFBD1181AC6
:1001F000013870470000000000000000000000000F
:1002000001F0FF01102A2BDB10F0070F08D010F8C7
:10021000013B013A8B422DD010F0070F42B3F6D1CB
:10022000F0B441EA012141EA014122F007047FF0E4
:1002300000070023F0E80256083C85EA010586EA3B
:10024000010685FA47F5A3FA87F586FA47F6A5FA77
:1002500087F68EB9EED1F0BC01F0FF0102F0070283
:1002600032B110F8013B013A83EA010313B1F8D12E
:100270000020704701387047002D06BF354603380F
:10028000073815F0010F07D1013015F4807F02BF48
:10029000013015F4C03F0130F0BC0138704700BF99
:1002A00081F0004102E000BF83F0004330B54FEA27
:1002B00041044FEA430594EA050F08BF90EA020F94
:1002C0001FBF54EA000C55EA020C7FEA645C7FEA27
:1002D000655C00F0E2804FEA5454D4EB5555B8BF4A
:1002E0006D420CDD2C4480EA020281EA030382EABB
:1002F000000083EA010180EA020281EA0303362D4D
:1003000088BF30BD11F0004F4FEA01314FF4801C1F
:100310004CEA113102D0404261EB410113F0004F31
:100320004FEA03334CEA133302D0524263EB4303E8
:1003300094EA050F00F0A780A4F10104D5F1200E86
:100340000DDB02FA0EFC22FA05F2801841F10001E1
:1003500003FA0EF2801843FA05F359410EE0A5F1B5
:1003600020050EF1200E012A03FA0EFC28BF4CF0E6
:10037000020C43FA05F3C01851EBE37101F000459C
:1003800007D54FF0000EDCF1000C7EEB00006EEBA9
:100390000101B1F5801F1BD3B1F5001F0CD3490833
:1003A0005FEA30004FEA3C0C04F101044FEA44528A
:1003B00012F5800F80F09A80BCF1004F08BF5FEA11
:1003C000500C50F1000041EB045141EA050130BDF1
:1003D0005FEA4C0C404141EB0101013C28BFB1F503
:1003E000801FE9D291F0000F04BF01460020B1FA4E
:1003F00081F308BF2033A3F10B03B3F120020CDA21
:100400000C3208DD02F1140CC2F10C0201FA0CF0FE
:1004100021FA02F10CE002F11402D8BFC2F1200C63
:1004200001FA02F120FA0CFCDCBF41EA0C01904019
:10043000E41AA2BF01EB0451294330BD6FEA040462
:100440001F3C1CDA0C340EDC04F11404C4F120024D
:1004500020FA04F001FA02F340EA030021FA04F35F
:1004600045EA030130BDC4F10C04C4F1200220FAB6
:1004700002F001FA04F340EA0300294630BD21FAF4
:1004800004F0294630BD94F0000F83F4801306BFBA
:1004900081F480110134013D4EE77FEA645C18BFAE
:1004A0007FEA655C29D094EA050F08BF90EA020F45
:1004B00005D054EA000C04BF1946104630BD91EA3D
:1004C000030F1EBF0021002030BD5FEA545C05D140
:1004D0004000494128BF41F0004130BD14F580047F
:1004E0003CBF01F5801130BD01F0004545F0FE41F3
:1004F00041F470014FF0000030BD7FEA645C1ABF28
:10050000194610467FEA655C1CBF0B46024650EA5E
:10051000013406BF52EA033591EA030F41F400218A
:1005200030BD00BF90F0000F04BF0021704730B510
:100530004FF4806404F132044FF000054FF00001E5
:1005400050E700BF90F0000F04BF0021704730B5A6
:100550004FF4806404F1320410F0004548BF40427B
:100560004FF000013EE700BF42004FEAE2014FEAD0
:1005700031014FEA02701FBF12F07F4393F07F4FAB
:1005800081F06051704732F07F4208BF704793F0AE
:100590007F4F04BF41F40021704730B54FF46074C1
:1005A00001F0004521F000411CE700BF50EA0102C4
:1005B00008BF704730B54FF000050AE050EA01026D
:1005C00008BF704730B511F0004502D5404261EBDD
:1005D00041014FF4806404F132045FEA915C3FF41E
:1005E000D8AE4FF003025FEADC0C18BF03325FEABB
:1005F000DC0C18BF033202EBDC02C2F1200300FA6C
:1006000003FC20FA02F001FA03FE40EA0E0021FA90
:1006100002F11444BDE600BF70B54FF0FF0C4CF47E
:10062000E06C1CEA11541DBF1CEA135594EA0C0F30
:1006300095EA0C0F00F0DEF82C4481EA030621EA6B
:100640004C5123EA4C5350EA013518BF52EA0335A6
:1006500041F4801143F4801338D0A0FB02CE4FF058
:100660000005E1FB02E506F00042E0FB03E54FF088
:100670000006E1FB03569CF0000F18BF4EF0010E80
:10068000A4F1FF04B6F5007F64F5407404D25FEA7C
:100690004E0E6D4146EB060642EAC62141EA55512F
:1006A0004FEAC52040EA5E504FEACE2EB4F1FD0C71
:1006B00088BFBCF5E06F1ED8BEF1004F08BF5FEAEF
:1006C000500E50F1000041EB045170BD06F00046A1
:1006D00046EA010140EA020081EA0301B4EB5C044E
:1006E000C2BFD4EB0C0541EA045170BD41F4801146
:1006F0004FF0000E013C00F3AB8014F1360FDEBF6B
:10070000002001F0004170BDC4F10004203C35DA46
:100710000C341BDC04F11404C4F1200500FA05F3C9
:1007200020FA04F001FA05F240EA020001F000426A
:1007300021F0004110EBD37021FA04F642EB0601E0
:100740005EEA430E08BF20EAD37070BDC4F10C040A
:10075000C4F1200500FA04F320FA05F001FA04F2CE
:1007600040EA020001F0004110EBD37041F10001BA
:100770005EEA430E08BF20EAD37070BDC4F12005C5
:1007800000FA05F24EEA020E20FA04F301FA05F22D
:1007900043EA020321FA04F001F0004121FA04F2D5
:1007A00020EA020000EBD3705EEA430E08BF20EAA5
:1007B000D37070BD94F0000F0FD101F000464000DF
:1007C00041EB010111F4801F08BF013CF7D041EA61
:1007D000060195F0000F18BF704703F00046520065
:1007E00043EB030313F4801F08BF013DF7D043EA36
:1007F0000603704794EA0C0F0CEA135518BF95EAEC
:100800000C0F0CD050EA410618BF52EA4306D1D172
:1008100081EA030101F000414FF0000070BD50EA91
:10082000410606BF1046194652EA430619D094EA1B
:100830000C0F02D150EA013613D195EA0C0F05D105
:1008400052EA03361CBF104619460AD181EA030159
:1008500001F0004141F0FE4141F470014FF0000011
:1008600070BD41F0FE4141F4780170BD70B54FF0AC
:10087000FF0C4CF4E06C1CEA11541DBF1CEA13552C
:1008800094EA0C0F95EA0C0F00F0A7F8A4EB05040E
:1008900081EA030E52EA03354FEA013100F0888005
:1008A0004FEA03334FF0805545EA131343EA1263CE
:1008B0004FEA022245EA111545EA10654FEA002683
:1008C0000EF000419D4208BF964244F1FD0404F53C
:1008D000407402D25B084FEA3202B61A65EB030598
:1008E0005B084FEA32024FF480104FF4002CB6EB55
:1008F000020E75EB030E22BFB61A754640EA0C00D5
:100900005B084FEA3202B6EB020E75EB030E22BF14
:10091000B61A754640EA5C005B084FEA3202B6EB55
:10092000020E75EB030E22BFB61A754640EA9C0014
:100930005B084FEA3202B6EB020E75EB030E22BFE4
:10094000B61A754640EADC0055EA060E18D04FEAA2
:10095000051545EA16754FEA06164FEAC30343EA42
:1009600052734FEAC2025FEA1C1CC0D111F4801F0F
:100970000BD141EA00014FF000004FF0004CB6E708
:1009800011F4801F04BF01430020B4F1FD0C88BFA7
:10099000BCF5E06F3FF6AFAEB5EB030C04BFB6EBB2
:1009A000020C5FEA500C50F1000041EB045170BDA5
:1009B0000EF0004E4EEA113114EB5C04C2BFD4EBD2
:1009C0000C0541EA045170BD41F480114FF0000E56
:1009D000013C90E645EA060E8DE60CEA135594EAD2
:1009E0000C0F08BF95EA0C0F3FF43BAF94EA0C0FD5
:1009F0000AD150EA01347FF434AF95EA0C0F7FF44A
:100A000025AF104619462CE795EA0C0F06D152EA9D
:100A100003353FF4FDAE1046194622E750EA410681
:100A200018BF52EA43067FF4C5AE50EA41047FF492
:100A30000DAF52EA43057FF4EBAE12E74FF0FF3CF7
:100A400006E000BF4FF0010C02E000BF4FF0010CC8
:100A50004DF804CD4FEA410C7FEA6C5C4FEA430C41
:100A600018BF7FEA6C5C1BD001B050EA410C0CBF90
:100A700052EA430C91EA030F02BF90EA020F0020F2
:100A8000704710F1000F91EA030F58BF994208BF59
:100A900090422CBFD8176FEAE37040F00100704716
:100AA0004FEA410C7FEA6C5C02D150EA013C07D16D
:100AB0004FEA430C7FEA6C5CD6D152EA033CD3D0B8
:100AC0005DF8040B704700BF8446104662468C46B2
:100AD0001946634600E000BF01B5FFF7B7FF0028E5
:100AE00048BF10F1000F01BD4DF808EDFFF7F4FF0E
:100AF0000CBF012000205DF808FB00BF4DF808ED99
:100B0000FFF7EAFF34BF012000205DF808FB00BFBB
:100B10004DF808EDFFF7E0FF94BF012000205DF8DD
:100B200008FB00BF4DF808EDFFF7CEFF94BF012092
:100B300000205DF808FB00BF4DF808EDFFF7C4FF8B
:100B400034BF012000205DF808FB00BF4FEA410CD4
:100B50007FEA6C5C02D150EA013C0AD14FEA430CB7
:100B60007FEA6C5C02D152EA033C02D14FF00000F4
:100B700070474FF0010070474A0011D212F5001281
:100B800011D20DD56FF47873B3EB62520ED44FEAE5
:100B9000C12343F0004343EA505323FA02F0704765
:100BA0004FF00000704750EA013002D14FF0FF30A3
:100BB00070474FF00000704753B94AB9002908BF89
:100BC00000281CBF4FF0FF314FF0FF3000F06EB92E
:100BD000ADF1080C6DE904CE00F006F8DDF804E094
:100BE000DDE9022304B070472DE9F047089D044673
:100BF0008C46002B40F083808A42174647D9B2FAD0
:100C000082F242B1C2F1200024FA00F091409740F4
:100C100040EA010C94404FEA1748230CBCFBF8F65D
:100C20001FFA87FE08FB16C143EA014306FB0EF1DB
:100C3000994209D9FB1806F1FF3080F019819942D9
:100C400040F21681023E3B445B1AA4B2B3FBF8F0BB
:100C500008FB103344EA034400FB0EFEA64509D905
:100C60003C1900F1FF3380F00581A64540F2028176
:100C700002383C4440EA0640A4EB0E0400261DB1B5
:100C8000D4400023C5E900433146BDE8F08702B9EE
:100C9000FFDEB2FA82F2002A50D1CB1B4FEA174E88
:100CA0001FFA87F80126B3FBFEFC210C0EFB1C3358
:100CB00041EA034108FB0CF38B4207D979180CF188
:100CC000FF3002D28B4200F2E9808446C91AA3B2F7
:100CD000B1FBFEF00EFB101143EA014408FB00F8E3
:100CE000A04507D93C1900F1FF3302D2A04500F21C
:100CF000D9801846A4EB080440EA0C40BFE78B42B9
:100D000009D9002D00F0B1800026C5E90001304668
:100D10003146BDE8F087B3FA83F6002E4AD18B4204
:100D200002D3824200F2B880841A61EB03010120F1
:100D30008C46002DA8D0C5E9004CA5E7C2F12003E0
:100D400020FA03F6974001FA02F04FEA174ED94015
:100D50003043030CB1FBFEF61FFA87F80EFB1611A9
:100D600043EA014306FB08F1994204FA02F409D967
:100D7000FB1806F1FF3C80F08D80994240F28A809A
:100D8000023E3B445B1A81B2B3FBFEF00EFB103314
:100D900041EA034100FB08F38B4207D9791800F1BF
:100DA000FF3C73D28B4271D902383944CB1A40EAE6
:100DB000064678E7C6F1200C03FA06F422FA0CF393
:100DC0001C4320FA0CF701FA06F34FEA144E21FAFD
:100DD0000CF11F433B0CB1FBFEF91FFA84F80EFB2C
:100DE000191143EA014109FB08FA8A4502FA06F2A1
:100DF00000FA06F308D9611809F1FF3048D28A4594
:100E000046D9A9F102092144A1EB0A01BFB2B1FB05
:100E1000FEF00EFB101147EA014700FB08F8B84549
:100E200007D9E71900F1FF312ED2B8452CD9023885
:100E3000274440EA0940A7EB0807A0FB02894F4579
:100E4000C64649461AD317D05DB1B3EB0E0267EB25
:100E5000010707FA0CFCF2404CEA0202F740C5E930
:100E6000002700263146BDE8F0872E4628460BE7CE
:100E70000646E9E61846FDE64345E5D2B8EB020E24
:100E800069EB04010138DFE70846D2E760468DE7E9
:100E90008146B9E7664675E730464AE7ACF1020C91
:100EA000394413E702383C4424E700BF704700BFD1
:100EB00010B582B00C46013805280ED8DFE800F0E6
:100EC000030F1A25303B0846FFF78CF900902346A4
:100ED00000221146022002F0BBFE02B010BD0846FF
:100EE000FFF780F90090234600221146022002F00D
:100EF000AFFEF2E70846FFF775F90090234600229F
:100F00001146022002F0A4FEE7E70846FFF76AF95F
:100F10000090234600221146022002F099FEDCE7F1
:100F20000846FFF75FF90090234600221146022091
:100F300002F08EFED1E70846FFF754F900902346F1
:100F400000221146022002F083FEC6E7194B1A4A1E
:100F50001268C3F80220194A1268C3F80620184A1A
:100F60001268DA60174A12681A61174A1268C3F8E1
:100F70001620164A1268C3F81A20154A12681A6217
:100F8000144A12685A62144A1268C3F82A20134A93
:100F90001268C3F82E20124A12689A64114A126825
:100FA000DA64114A1268C3F85220104A1268C3F872
:100FB00056207047B40100206012012070120120F9
:100FC0003812012088120120441201202C12012025
:100FD0009012012054120120801201208C12012055
:100FE0004C1201207C120120741201207812012081
:100FF0002DE9F041ADF50A7D1E460B78212B30D04E
:101000000D4617460024849485948694879488948A
:101010004FF480784246214644A817F0AFFA424682
:10102000214604A817F0AAFA06F01AF904461EB1E0
:10103000909B0BB1919BC3B94FF48072002144A8DF
:1010400017F09CFA44AC434D0FCD0FC495E8070050
:1010500003C424F8022B120C227044A90320FFF7CA
:1010600027FF0DF50A7DBDE8F0811421284617F011
:10107000BEFF024684AE2946304617F0A5FF424621
:10108000002144A817F07AFA919B0293909B019358
:1010900000962346304AFF2144A817F077FE072F19
:1010A00042DC929B002B3FD04246002104A817F05F
:1010B00065FA44AC2046FFF795F893AB8993C0F1ED
:1010C000FF05929A294604A818F0AEF8804604A8B5
:1010D000FFF788F80646024604A9204617F04FFF9E
:1010E0002046FFF77FF81D4B1B88235221463846C8
:1010F000FFF7DEFE454501D3002EB2DC4FF48072CF
:10110000002144A817F03AFA44AC154D0FCD0FC496
:1011100095E8070003C424F8022B120C227044A99E
:101120000520FFF7C5FE9CE74FF48072002144A81C
:1011300017F024FA44AC0B4D0FCD0FC40FCD0FC4E4
:1011400095E8030044F8040B218044A90320FFF72D
:10115000AFFE86E794AE010838AE010890AE0108F4
:1011600050AE01086CAE010800B585B002464FF4E0
:101170007A73009340232021A02002F001F810B1DF
:1011800005B05DF804FB0390084B029358230193CC
:10119000074B0093074B04220749FFF729FF4FF441
:1011A0007A700CF0CEF806F023F8E9E7F0AE01080B
:1011B00018AF0108B0AE0108ECAE010830B59BB025
:1011C00005460C465022002106A817F0D7F92F211A
:1011D000284617F019FF049401300390084B02933E
:1011E0004FF49E730193074B0093074B042207496A
:1011F0000020FFF7FDFE4FF47A700CF0A2F8E6E74E
:1012000000AF010828AF0108B0AE0108D8FC010802
:10121000024A136801331360704700BF10030020B7
:1012200008B528B1012806D0022807D0002008BD43
:1012300006F030F8FBE706F033F8F8E706F036F88A
:10124000F5E70000F0B593B0384C3022002104F1EE
:10125000100017F093F9C0212170A82262700823B2
:10126000A3702820E0706FF01700207103206071D8
:10127000A171E2712372582060726FF05900A07260
:101280001320E0726FF06305257360736FF06D05D6
:10129000A573E073FF2020746074A07421756275DB
:1012A000A3750126E67580236376E123A376304695
:1012B000FFF7B6FF05463046FFF7B2FF4540022074
:1012C000FFF7AEFF4540C4F81A504FF47A7240F26F
:1012D0007E41174801F09CFF4FF47A73009340233E
:1012E00002AA2021A02001F007FFC0B99DF8083014
:1012F000013BDBB2FD2B17D89DF80E30FF2B13D02E
:1013000093B102AE254612AF34460FCC2860696017
:10131000AA60EB6026461035BC42F5D104E00548D2
:1013200008F06AFE06F014FB13B0F0BD4C0D01206E
:10133000980D01205C140120A0B370B50446002074
:101340002070012565700423A370FFF769FFC4F8BE
:1013500003002846FFF764FFC4F807000220FFF7E8
:101360005FFFC4F80B004FF0FF33E3732374637423
:10137000A374E37423756375A375E37523766376AD
:10138000A376094B1B3403F140061D685868996821
:10139000DA6825606060A160E26010331034B34207
:1013A000F3D170BD704700BF4C0D0120014B9888F0
:1013B000704700BF4C0D0120014B5889704700BF9A
:1013C0004C0D0120014B9889704700BF4C0D012046
:1013D000014BD889704700BF4C0D01200A2900D865
:1013E000704770B58EB004462822002104A817F07B
:1013F000C5F82C21204617F07DFD461C2E212046E5
:1014000017F078FD0546821BD2B2314601A804F0E0
:10141000DFF901352E21284617F06CFD0446421BEA
:10142000D2B229460DF1050004F0D2F901342E2183
:10143000204617F05FFD0546021BD2B221460DF192
:10144000060004F0C5F90022691C0DF1070004F044
:10145000BFF90EB070BD00B585B000238DF80F3018
:10146000072902D005B05DF804FB2C2117F042FDDE
:101470000222411C0DF10F0004F051F99DF80F00FC
:1014800000020022019200921346032140F0FF0067
:1014900002F0E4FF0028E5D0418802F0B3FEE1E766
:1014A00010B584B000238DF80B300A2901D004B0A8
:1014B00010BD8DF80C302C2117F01CFD441C0222AD
:1014C00021460DF10B0004F02AF92C21204617F0DB
:1014D00011FD0222411C03A804F021F99DF80B40E4
:1014E000C4B1200240F0FF000023019300930123C8
:1014F00003AA042180B202F0B1FF0028D7D04188AE
:1015000002F080FED3E7601C0021C0B200F02CFB8B
:101510000134E4B2032CCAD89DF80C30234113F0F7
:10152000010FF0D0601C0121C0B200F01DFBEFE7FD
:1015300000B587B00023039304938DF814300A2379
:10154000ADF80E3004F03CF88DF8080060B903A83F
:1015500003F03AFC0022009213460321072002F018
:1015600077FB07B05DF804FB002301930093012390
:1015700002AA02214FF6FF7002F014FF0028F0D0FB
:10158000418802F03FFEECE710B586B000238DF8ED
:1015900013302C2117F0AEFC0222411C0DF1130078
:1015A00004F0BDF801240CB906B010BD013C04F0F4
:1015B00007F88DF814009DF813308DF815300023CE
:1015C00001930093022305AA19464FF6FF7002F01B
:1015D000E9FE78B1418802F015FE0390074B0293B3
:1015E000C7230193064B0093064B042206490020B3
:1015F000FFF7FEFC0A200BF0A4FED4E7B4AF01080D
:10160000C4AF010874AF0108B0AF010870B582B073
:1016100002F09AFF044603F0CFFF05465B263246F0
:10162000214616F083FF03F0C3FF114B18605D6085
:10163000104B18680CF04EF80023019300933346CA
:10164000224601214FF6FF7002F008FF10B14188D9
:1016500002F0D8FD4FF47A700BF073FE0022009276
:1016600013460721084602F0F3FA02B070BD00BF2E
:101670001403002028120120F0B595B04FF48071BA
:10168000224805F0B3FA012804D0214B00221A7039
:1016900015B0F0BD1E4A1378591C1170022BF7D9F2
:1016A0001C4B0293212301931B4B00931B4B0422E1
:1016B0001B490020FFF79CFC01F09CFB4FF47A7261
:1016C00040F27E41174801F0B7FD174C04AE04F11B
:1016D0004007354620686168A268E3680FC510348A
:1016E0002E46BC42F5D10120FFF79AFD04460120A9
:1016F000FFF796FD44400220FFF792FD4440CDF8ED
:101700002A4004A8FFF730FDC2E700BF00040240F2
:101710004403002018B0010890B00108DCAF0108B4
:10172000B0AF0108980D012034AF010800B585B0B5
:10173000204D214C214B02933A230193204E0096D9
:101740002B46042221460020FFF752FC1D4B02933A
:101750003B23019300962B46042221460020FFF7ED
:1017600047FC194B02933C23019300962B4604221D
:1017700021460020FFF73CFC144B02933D230193CC
:1017800000962B46042221460020FFF731FC10482A
:1017900008F09CFE08210F4805F035FA08210E4894
:1017A00005F031FAFFF768FF4FF49D700BF0C9FDAB
:1017B000EDE700BFDCAF0108B0AF010834B00108AD
:1017C000A0B001084CB001087800002060000020A3
:1017D00010150120000C02400000024030B589B015
:1017E0003D4B0293552301933C4B00933C4B042209
:1017F0003C490020FFF7FCFB3B4803F077FE40F636
:10180000B8313A4B18680BF0FFFD08240DE010F1D9
:10181000020F23D109B030BD0A21354B18680BF0F7
:10182000F3FD344B18680BF078FD4FF0FF3205A93B
:10183000072002F04EFA0028E9D1DDF81A405CB129
:101840002D4DBDF818202146284616F06FFE204683
:101850000CF07EF9CDF81A509DF81640072CE4D80C
:1018600001A353F824F000BF1918000889180008D4
:10187000971800089F180008AB180008B518000852
:10188000C1180008CD180008BDF81810DDF81A00BE
:10189000FFF77AFEC9E70020FFF7B8FEC5E70A2187
:1018A000134B18680BF0B0FDBFE7114B18680BF035
:1018B000C5FDBAE7BDF818100F48FFF7F1FDB4E712
:1018C000BDF818100C48FFF7C6FDAEE7BDF81810BC
:1018D0000948FFF783FDA8E76CB00108B0B0010824
:1018E000DCAF0108B0AF0108291B00085812012025
:1018F0006C120120741201201C03002008B54FF067
:10190000FF31044B18680BF0B1FE01F00DFA0BF03B
:1019100013FD00BF2812012008B500F0C9F80A2005
:101920000BF00FFDF9E70000F0B5C7B002AC84E89A
:1019300003000025ADF8165001278DF8157006AE8E
:101940004FF480722946304616F018FE00962B465A
:101950002A4694E8030001F09AFCADF816003A46D6
:101960004FF48051054805F048F9082231460448F3
:1019700009F0F6F88DF8150047B0F0BD00080240F8
:10198000B0490120044A1178537803EB012300EE9B
:10199000103AB8EEC00A70478C0D012000B587B030
:1019A000FFF7F0FF8DED050A03F00AFE10B907B04E
:1019B0005DF804FB002301930093042305AA05218D
:1019C0004FF6FF7002F04AFD0028F0D0418802F087
:1019D00019FC0390064B0293E9230193054B0093F6
:1019E000054B042205490020FFF702FBDFE700BF9B
:1019F00080B00108C0B00108DCAF0108D8FC0108C4
:101A000070B110B50446C9B201F03AFC00B910BD7E
:101A1000A278E11C034816F089FDFFF7BFFFF6E747
:101A2000704700BF8C0D012008B5438803B108BD85
:101A30008188D0F80600FFF7E3FFF8E730B587B0FC
:101A400001240EE0194DBDF810202146284616F05D
:101A50006DFD20460CF07CF8CDF812509DF80E403C
:101A6000FCB14FF47A7203A9082002F032F920B9D0
:101A7000DDF81240002CE5D1F0E710F1020FEFD1B4
:101A800001238DF8043004228DF805204FF4806284
:101A9000ADF80620ADF8083002990198FFF744FF31
:101AA000DEE703A8FFF7C0FFDBE700BF300300203D
:101AB00038B502F06BFC044602F06EFC2402A4B2BE
:101AC0000444164B1C8000245C809C8010E0144B66
:101AD00003EBC405A98853F8340005F087F8A87112
:101AE00004F108020D4B03EB4203D8800134E4B249
:101AF000072CECD900240EE00A4B03EBC405A9889F
:101B000053F8340005F072F8A871044B03EB44035A
:101B1000D8800134E4B2032CEED938BD480300204C
:101B20000000002040000020F8B5044690B10C4DA4
:101B300005F120072E460FCE20606160A260E360B1
:101B400035461034BE42F5D130682060B388A3809A
:101B50000020F8BD65210348FFF730FBE7E700BF31
:101B600048030020D0B00108042800D9704710B500
:101B70000138054B03EBC0040A46A18853F8300036
:101B800005F03BF810BD00BF400000202DE9F043F8
:101B9000ADF5037D0E46174699464FF481742246F3
:101BA000002141A816F0EAFC22460021684616F002
:101BB000E5FC002408E04FF4807259F824100DF57C
:101BC000837017F0C7F90134B44218DA4FEA840879
:101BD00057F824502249284617F070F90028EAD017
:101BE0002049284617F06AF90028ECD14FF480729A
:101BF00059F808100DF1020017F0ACF9E3E70DF504
:101C00008370FEF7EFFA84B2ADF804410DF10200E3
:101C1000FEF7E8FA85B2ADF8005013490DF5837070
:101C200017F04CF990B911490DF10200FEF7D0FA06
:101C300088B994B10DB90E4809E00E4C0123E37642
:101C400005F00EFBC4F831000B4800E008480DF524
:101C5000037DBDE8F0830648F9E70548F7E700BFD4
:101C600030B101083CB10108BE0F0120D20F0120A4
:101C70001CB10108B80200200CB101082DE9F043A5
:101C800085B098468A4BDB7E1BB98A4805B0BDE813
:101C9000F0830E461746864BD3F8310001F020FA48
:101CA000854B984204D9824B0022DA768148EDE7D1
:101CB00005F0D6FA7E4BC3F831004FF4817422460A
:101CC00000217E4816F05AFC224600217C4816F07E
:101CD00055FC224600217B4816F050FC224600218C
:101CE000794816F04BFC22460021784816F046FC55
:101CF000002407E04FF4807258F82410744817F05D
:101D000029F90134B4423EDA4FEA840957F82450E5
:101D10007049284617F0D2F80028EBD06E492846C3
:101D200017F0CCF8B8B16D49284617F0C7F8D0B114
:101D30006B49284617F0C2F8E8B16A49284617F0FF
:101D4000BDF80028DDD14FF4807258F809106648BC
:101D500017F000F9D5E74FF4807258F8091063487E
:101D600017F0F8F8CDE74FF4807258F80910604882
:101D700017F0F0F8C5E74FF4807258F809105D4885
:101D800017F0E8F8BDE74D4DA81CFEF72BFA84B21A
:101D90002C804B4EB01CFEF725FA85B23580494F9A
:101DA000B81CFEF71FFA86B23E80DFF81C8108F1EE
:101DB0000200FEF717FA87B2A8F80070DFF80C816E
:101DC00008F10200FEF70EFA80B2A8F80000002C1D
:101DD0003FD0002D3DD0002E3BD0002F39D0002821
:101DE00037D0142E35D8142F33D84349384817F03C
:101DF00065F800283CD141493C48FEF7E9F9002844
:101E000036D139493B48FEF7E3F900283FD13A4C37
:101E100014223749204617F09DF814223549A0189E
:101E200017F098F84FF47A7240F27E41A4F226201F
:101E300001F002FA324B029340F2DD230193314B61
:101E40000093314B042231490020FFF7D1F830488C
:101E50001CE7304B029340F2CF230193294B0093B0
:101E6000294B042229490020FFF7C2F82A480DE730
:101E70002A4B029340F2D5230193224B0093224B2D
:101E8000042222490020FFF7B3F82348FEE61F4C46
:101E9000234B029340F2E22301931A4B00931A4B17
:101EA000042221460020FFF7A3F82046EEE600BFFB
:101EB000B802002048B1010820BF0200800A0020BB
:101EC00078080020840B00207C0900207407002083
:101ED000820A002074B1010884B1010894B101089C
:101EE000A4B10108B4B10108760700207A080020E7
:101EF000860B00207E090020BE0F0120D20F01209A
:101F000040B2010854B70108C8B10108D8FC010863
:101F10005CB1010808B201081CB1010820B2010837
:101F20004CB201081D4BDB7E0BB91D48704770B5E4
:101F300082B00D461646194BD3F8310001F0D0F8A7
:101F4000184B984205D9154B0022DA76144802B096
:101F500070BD05F085F9114BC3F831000024AC4287
:101F600019DA114956F82400FEF732F908B10134A4
:101F7000F5E70E4B18680BF0CAFC08B90C48E6E709
:101F80000C4B019300231A4601A9084800680BF086
:101F90002DFC0948DBE70948D9E700BFB80200205B
:101FA00048B1010820BF020074B201083C120120B0
:101FB00050B201087CB2010864B20108D8FC0108E3
:101FC0001D4BDB7E0BB91D48704770B582B00D46C6
:101FD0001646194BD3F8310001F082F8184B98429D
:101FE00005D9154B0022DA76144802B070BD05F011
:101FF00037F9114BC3F831000024AC4219DA11490A
:1020000056F82400FEF7E4F808B10134F5E70E4B6A
:1020100018680BF07CFC08B90C48E6E70C4B019300
:1020200000231A4601A9084800680BF0DFFB0948A5
:10203000DBE70948D9E700BFB802002048B1010832
:1020400020BF020084B201083C12012050B20108F6
:102050008CB2010864B20108D8FC01082DE9F043F4
:10206000C9B09846A74BDB7E1BB9A74849B0BDE86D
:10207000F0830E461746A34BD3F8310001F030F839
:10208000A24B984204D99F4B0022DA769E48EDE796
:1020900005F0E6F89B4BC3F831004FF48172002144
:1020A00007A816F06BFA002411E04FF4807258F87C
:1020B00024100DF11E0016F04DFF0DF11E00FEF76D
:1020C00091F880B2ADF81C00002853D10134B4421D
:1020D00080F20C814FEA840957F824508C49284635
:1020E00016F0ECFE0028E0D08A49284616F0E6FEFD
:1020F00000284DD08849284616F0E0FE002866D01A
:102100008649284616F0DAFE002800F081808449CE
:10211000284616F0D3FE002800F09B80814928460F
:1021200016F0CCFE002800F0BF807F49284616F04C
:10213000C5FE0028CAD14FF4807258F809100DF17D
:102140001E0016F007FF0DF11E00FEF74BF880B2DF
:10215000ADF81C000028B9D001A90DF11E0000F057
:10216000D8FE0028B2D1019B704AC2F81B30704AD9
:102170005381ABE706A90DF11E0000F00BFF00280C
:10218000A4D1069B694AC2F80130694A13609DE7F1
:102190004FF4807258F809100DF11E0016F0DAFEA7
:1021A0000DF11E00FEF71EF880B2ADF81C000028ED
:1021B0008CD005A90DF11E0000F016FF002885D176
:1021C000059B5A4AC2F80930594A13617EE74FF419
:1021D000807258F809100DF11E0016F0BBFE0DF1CB
:1021E0001E00FDF7FFFF80B2ADF81C0000283FF491
:1021F0006DAF04A90DF11E0000F020FF00287FF450
:1022000065AF049B494AC2F80D30494A53615DE706
:102210004FF4807258F809100DF11E0016F09AFE66
:102220000DF11E00FDF7DEFF80B2ADF81C000028A6
:102230003FF44CAF01A90DF11E0000F06AFE00282A
:102240007FF444AF019B394AC2F80530384A938085
:102250003CE74FF4807258F809100DF11E0016F09B
:1022600079FE0DF11E00FDF7BDFF80B2ADF81C0038
:1022700000283FF42BAF2F4A02A90DF11E0000F0F9
:1022800007FF00287FF422AF284B0298C3F8110003
:10229000BDF80C20A3F81520254AD3F81110916140
:1022A000B3F81530938311E74FF4807258F8091092
:1022B0000DF11E0016F04EFE0DF11E00FDF792FF0F
:1022C00080B2ADF81C0000283FF400AF06A90DF164
:1022D0001E0000F05FFE00287FF4F8AE069B134A54
:1022E000C2F81730124AC2F80630EFE64FF47A729D
:1022F00040F27E410D4800F09FFF0D48FEF734FF8D
:102300000D48B3E6B802002048B1010820BF020022
:10231000A8B20108B0B20108B8B20108C0B2010801
:10232000CCB20108D4B20108E0B20108980D012036
:102330004C0D0120D0B2010894B201082DE9F047FC
:10234000C4B0994600238DF808306B4BDB7E1BB977
:102350006A4844B0BDE8F0870F469046664BD3F814
:10236000310000F0BDFE664B984204D9624B00225A
:10237000DA766248EDE704F073FF5F4BC3F8310093
:1023800000240BE059F824502846FDF72BFFC2B279
:1023900029460DF10B0003F01BFA0134BC4280F218
:1023A00096804FEA840A58F824505649284616F079
:1023B00085FD0028E6D05449284616F07FFD18B365
:1023C0005249284616F07AFDF0B15149284616F0D8
:1023D00075FDC8B14F49284616F070FDA0B14E49B1
:1023E000284616F06BFD78B14C49284616F066FD7C
:1023F00050B14B49284616F061FD28B1494928469D
:1024000016F05CFD0028C8D14749284616F010FE9A
:10241000014600285BD04FF4807202310DF10E00AE
:1024200016F098FD5F210DF10E0016F063FD0028F7
:102430004DD0002202700DF10E0015F0BEFF0646D1
:10244000431E072B43D84FF4807259F80A100DF140
:102450000E0016F07FFD0DF10E00FDF7C3FE80B2F9
:10246000ADF80C00002898D030490DF10E0016F0A0
:1024700025FD58B9721E012303FA02F29DF80830B7
:1024800013438DF808309DF80B30DBB128490DF16E
:102490000E0016F013FD00287FF47FAF721E01239B
:1024A00003FA02F29DF8083023EA02038DF808309F
:1024B0009DF80B30002B7FF470AF0021F0B2FFF7D6
:1024C00053FB6AE70121F0B2FFF74EFBDEE79DF810
:1024D0000B000002002301930093012302AA0421B0
:1024E00040F0FF0001F0BAFF20B1418801F08AFE00
:1024F00010482EE70F482CE7B802002048B1010829
:1025000020BF020000B3010808B3010814B301089A
:1025100020B301082CB3010838B3010844B3010803
:1025200050B301085CB3010854BF010868B3010847
:1025300070B30108ECB2010830B58BB00C461546FB
:102540003C493D4B53F8200016F072FD00286AD03C
:1025500001462122023101A816F0FCFC5F2101A8EE
:1025600016F0C8FC00285ED00022027001A815F009
:1025700024FF431E0F2B56D8304B1B68002B57D01F
:102580002F4A1268002A53D09B78102B11D0202B91
:1025900022D0012B33D0082B3BD0042B48D1431E33
:1025A00002EB4303DB88274A2946204616F0EEFB60
:1025B0003EE008280ADC013802EB8000D0F8063043
:1025C000214A2946204616F0E1FB31E02A461F4900
:1025D000204616F0BFFC2BE008280ADC013802EB8D
:1025E0008000D0F80630184A2946204616F0CEFB67
:1025F0001EE02A461549204616F0ACFC18E0431EA2
:1026000002EB4303DB880F4A2946204616F0BEFB47
:102610000EE0431E02EB4303DB880A4A29462046AC
:1026200016F0B4FB04E02A460849204616F092FC56
:102630000BB030BD54BF0108900000208C0C00206E
:10264000880C002080B3010878B301087CB301082E
:10265000F0B587B0061EC0F2AF820C461746BA4BE3
:1026600053F82650B949284616F028FC002800F0F7
:10267000B580B749284616F021FC002800F0BF803D
:10268000B449284616F01AFC002800F0BE80B24972
:10269000284616F013FC002800F0C180AF492846F8
:1026A00016F00CFC002800F0D380AD49284616F047
:1026B00005FC002800F0D280AA49284616F0FEFB4F
:1026C000002800F0DA80A849284616F0F7FB002819
:1026D00000F0E680A549284616F0F0FB002800F03F
:1026E000F280A349284616F0E9FB002800F0F580A7
:1026F000A049284616F0E2FB002800F001819E491F
:10270000284616F0DBFB002800F004819B49284690
:1027100016F0D4FB002800F006819949284616F0EF
:10272000CDFB002800F005819649284616F0C6FB2F
:10273000002800F04D819449284616F0BFFB002880
:1027400000F05F819149284616F0B8FB002800F0A0
:102750005E818F49284616F0B1FB002800F06681A3
:102760008C49284616F0AAFB002800F072818A499D
:10277000284616F0A3FB002800F07E8187492846F2
:1027800016F09CFB002800F081818549284616F050
:1027900095FB002800F08D818249284616F08EFBBB
:1027A000002840F09781804B1B68FBB118787F4A66
:1027B000526892F82D16884200F085817C490A689B
:1027C00026320A605B33784A1360774B1B681B78AC
:1027D000784A3946204616F0D9FA07E0734B5B6811
:1027E0009B78754A3946204616F0D0FA002C00F046
:1027F000E6812046FDF7F6FC80B207B0F0BD3A4610
:102800006E49204616F0A6FBF0E720216C4816F032
:1028100071FB01463A46204616F09CFBE6E7634B07
:102820005A6892F8333092F8341092F8350092F8E2
:10283000365092F8376092F8382004920396029549
:10284000019000915F4A3946204616F09FFACDE785
:102850003A465D49204616F07DFBC7E7534B5A6860
:10286000D37E117F507F927F029201900091574A50
:102870003946204616F08AFAB8E74C4B5A6892F867
:102880002B3092F82C1092F82D0092F82E20029204
:10289000019000914D4A3946204616F077FAA5E797
:1028A000424B5A6892F82F3092F8301092F831006B
:1028B00092F83220029201900091444A3946204613
:1028C00016F064FA92E7394B5B68B3F81F30394A67
:1028D0003946204616F05AFA88E7344B5A6892F87F
:1028E000213092F8221092F8230092F824200292CC
:1028F00001900091354A3946204616F047FA75E7AF
:102900002A4B5B68B3F825302A4A3946204616F030
:102910003DFA6BE7244B1B689B78274A39462046D3
:1029200016F034FA62E73A462449204616F012FBC4
:102930005CE72021224816F0DDFA01463A4620469F
:1029400016F008FB52E700BF9000002084B3010896
:1029500090B30108A0B30108A8B30108D0B30108DF
:10296000E4B30108FCB3010808B4010814B4010879
:1029700024B4010830B401083CB4010848B401088B
:1029800054B40108CCB2010858B40108A8B2010837
:10299000B0B20108B8B20108C0B20108D4B201084F
:1029A000E0B2010864B401088C0C0020140300207C
:1029B000880C002020B4010880B30108D0B20108BF
:1029C00078000020B0B30108E0B30108F0B30108BB
:1029D0007C4B1A6892F8333092F8341092F8350034
:1029E00092F8365092F8376092F8382004920396A5
:1029F000029501900091744A3946204616F0C6F9B6
:102A0000F4E63A467149204616F0A4FAEEE66D4B1C
:102A10001A68D37E117F507F927F029201900091BD
:102A20006B4A3946204616F0B1F9DFE6654B1A6865
:102A300092F82B3092F82C1092F82D0092F82E205C
:102A4000029201900091624A3946204616F09EF9A2
:102A5000CCE65C4B1A6892F82F3092F8301092F85E
:102A6000310092F83220029201900091584A394682
:102A7000204616F08BF9B9E6524B1B68B3F81F30AD
:102A8000544A3946204616F081F9AFE64D4B1A6894
:102A900092F8213092F8221092F8230092F8242024
:102AA0000292019000914A4A3946204616F06EF98A
:102AB0009CE6444B1B68B3F82530464A394620460D
:102AC00016F064F992E63F4B1A60434B1A68434B89
:102AD0001A607AE64249284616F0F0F900284ED0EE
:102AE0004049284616F0EAF9002848D03E492846D1
:102AF00016F0E4F9002842D03C49284616F0DEF9E9
:102B000000283CD03A49284616F0D8F9002836D09B
:102B10003849284616F0D2F988B33749284616F0C6
:102B2000CDF960B33549284616F0C8F938B33449B1
:102B3000284616F0C3F910B33249284616F0BEF9FC
:102B4000E8B13149284616F0B9F9C0B12F492846F5
:102B500016F0B4F998B12E49284616F0AFF970B1C5
:102B60002C49284616F0AAF948B12B49284616F0F8
:102B7000A5F920B12949284616F0A0F928B93A4606
:102B800021463046FFF7D8FC30E62549284616F0A6
:102B900095F970B90B4B1B68002B3FF427AE0E4B19
:102BA0005B6893F82D360B4A3946204616F0EEF84E
:102BB0001CE60023237019E64FF6FF701DE6002087
:102BC0001BE600BF8C0C0020B0B30108E0B3010885
:102BD000F0B3010820B4010814030020880C002081
:102BE00070B401087CB4010888B4010894B40108E9
:102BF000A0B40108ACB40108B8B40108C4B4010819
:102C0000D0B40108DCB40108E8B40108F4B4010848
:102C100000B501080CB5010818B5010824B5010874
:102C200030B50108134B002283F8FF2383F80024FA
:102C300083F8012483F80224A9B10A78B2B110B54F
:102C40000C4C40F2FF32204616F084F940F2FF327D
:102C50000949204616F05BF92046FDF7C3FAC4F88F
:102C6000FF03002010BD6FF00F0070476FF00F00E2
:102C7000704700BF700300203CB5010870B50E46D8
:102C80000C46FCB1144BD3F8FF036289811840F263
:102C9000FE3399420CD8104D6168284415F046FC6B
:102CA000D5F8FF3362891344C5F8FF332468E8E799
:102CB000094B002283F8FF2383F8002483F80124C2
:102CC00083F80224304612F00DF8034BD3F8FF23AB
:102CD0000020985470BD00BF7003002010B5084656
:102CE000064C214616F036F9002384F8FF3384F8A9
:102CF000003484F8013484F8023410BD70030020DD
:102D000008B546220249034815F096FA08BD00BFEF
:102D1000900000205126000808B50621014815F052
:102D2000C3FA08BD70B7010808B5FFF7E9FFFFF760
:102D3000F3FF054B5968054A11601A68044B1A6085
:102D400015F060FA08BD00BF140300208C0C0020B1
:102D5000880C002038B505460C461E4BDB7EEBB9CF
:102D60001C4B0022DA761C492046FDF731FA48B1A7
:102D70001A492046FDF72CFA20B119492046FDF7E3
:102D800027FAA0B91749284615F0B6FA00B304F09F
:102D900067FA104BC3F83100002038BD0D4BD3F853
:102DA000310000F09DF9104B9842F0D9D8E70F4957
:102DB0002046FDF70DFA0028E9D10A4B2B601223BB
:102DC0006B600023AB60EB6001232B741846E4E7D3
:102DD0000120E2E7B802002094B201080CB101081A
:102DE00050B2010848B1010820BF020040B50108F7
:102DF0007047000008B540F27E420249024815F0D3
:102E000095FB08BDA4B70108980D012030B4054614
:102E100000231A4608E003EB830300EB43039BB255
:102E2000303B9BB20132D2B2022A08D8A85C38B13A
:102E3000A0F13004E4B2092CEDD9012000E000201B
:102E4000012808D052B1A85C68B9FF2B0FD9002324
:102E50000B70012005E000230B7002E000230B70D3
:102E6000012030BC704700230B700120F9E70B7084
:102E7000F7E770B405460378302B03D000263346BD
:102E8000002414E04378782B03D0582B03D000267D
:102E9000F5E70226F3E70226F1E7A0F16102D2B2DC
:102EA000052A12D8613840EA04140133DBB2721CDF
:102EB0009A4213DBE85C90B1A0F13002D2B2092A49
:102EC000EBD8303840EA0414EFE7A0F14102D2B267
:102ED000052A0FD8413840EA0414E6E7002001280B
:102EE0000AD063B1E85C70B9FE2C10D900230B70D6
:102EF000012006E00120F2E700230B7001E00B70D7
:102F0000012070BC704700230B700120F9E70C70A2
:102F1000F7E72DE9F041864600240025002210E065
:102F20004FEA8508A30048EA947C1B194CEB050482
:102F3000DE1844EB04073038341847EBE0750132F3
:102F4000D2B2092A09D81EF8020038B1A0F1300324
:102F5000DBB2092BE4D9012000E0002001280BD0CE
:102F60006AB11EF8020078B9012D08BF002C0FD3FA
:102F700000230B60012005E000230B6002E000232A
:102F80000B600120BDE8F08100230B600120F9E710
:102F90000C60F7E730B587B004460D46FDF722F91F
:102FA0000F2802D9012007B030BD1022214602A807
:102FB00015F0D0FF002402A801E00134E4B2032C94
:102FC0000BD801AA074916F072F840B12919FFF78A
:102FD0001DFF0028F1D00120E5E70020E3E70120F4
:102FE000E1E700BFA0B7010830B587B004460D4641
:102FF000FDF7F8F80F2802D9012007B030BD1022E4
:10300000214602A815F0A6FF002402A801E0013421
:10301000E4B2032C0BD801AA074916F048F840B1D6
:103020002919FFF7F3FE0028F1D00120E5E7002081
:10303000E3E70120E1E700BFA0B7010830B587B0A2
:1030400004460D46FDF7CEF80F2802D9012007B03F
:1030500030BD1022214602A815F07CFF002402A8F2
:1030600001E00134E4B2032C0BD801AA074916F0A1
:103070001EF840B12919FFF7C9FE0028F1D0012040
:10308000E5E70020E3E70120E1E700BFA0B7010882
:1030900070B586B004460E461546FDF7A3F8132812
:1030A00002D9012006B070BD1422214601A815F0F6
:1030B00051FF002401A801E00134E4B2052C0BD833
:1030C0006A46294615F0F3FF40B13119FFF7D1FEEA
:1030D0000028F1D00120E5E70020E3E70120E1E747
:1030E00010B5044604F0BCF8A04201D3001B10BD8B
:1030F000001B0138FBE700002DE9F04F87B0824646
:103100000F4691469846DDF840B000231E460593D1
:103110001A461021184803F070FD3D4603E00136C1
:10312000F6B2022E1FD807EB08039D421BD205F012
:103130003F02EB1BA8EB03041119402901D9C2F18E
:103140004004A4B2CDF808B001944B44009310237E
:103150002A465146094807F01BF805900028DED1A1
:103160002544ADB2DDE701221021034803F045FDFF
:10317000059807B0BDE8F08F000402405C14012000
:103180002DE9F04F87B082460F4691469846DDF80C
:1031900040B000231E4605931A4610211A4803F03A
:1031A0002CFD3D4611E0A4B2CDF808B001944B448B
:1031B000009310232A465146144806F037FF059025
:1031C00090B10136F6B2022E14D807EB08039D42E7
:1031D00010D205F03F02EB1BA8EB030411194029A4
:1031E000E1D9C2F14004DEE706200AF0AAF825443E
:1031F000ADB2E8E701221021034803F0FEFC059878
:1032000007B0BDE8F08F00BF000402405C1401204D
:1032100030B583B004460B46009202460021A02040
:10322000FFF76AFF054610B92378FF2B01D1FFF79E
:10323000E1FD284603B030BD00B583B00B460092D7
:1032400002460021A020FFF79BFF03B05DF804FBBE
:1032500030B4FF2215464B1EDCB249B110F8013BD9
:103260005340054AD25C6A400449CD5C2146F2E7EE
:1032700045EA022030BC704724BC010824BD010887
:1032800008B5FFF7E5FFB0FA80F0400908BD2DE969
:10329000F041C4B002AC84E8030015461F464A9EC4
:1032A0000DF110084FF480720021404615F066F9C8
:1032B000CDF800803B462A4694E8030000F055F81C
:1032C00000231C46984206DD621C04ADED5C3555BA
:1032D000013394B2F6E7C1B204A8FFF7B9FF631C4B
:1032E0009BB2020A32550234F054A0B244B0BDE899
:1032F000F081F0B407460846E1B10E46481E05D4F9
:10330000C0F3CF00013080B200240FE00730F7E7B0
:103310000133072B09DC03EBC4018E42F8DD155D98
:10332000795C994029441155F2E70134A04201DD4E
:103330000023EEE7F0BC704770B40646084609B9B2
:1033400070BC704700210B4688420CDD36F81150E6
:103350005C1CA4B22D0AD55436F8115002339BB22E
:1033600015550131F0E71846EAE72DE9F041C2B002
:103370006C4684E8030010461F46489D23782B7056
:1033800066786E7063881A0AAA70EB70731EDBB2DF
:10339000032B06D8BDF804301A0A2A716B71062473
:1033A00000E00424052E09D0062E16D00F2E20D0C2
:1033B000102E3ED0204642B0BDE8F0810028F3D068
:1033C000037843B1FF22631C9BB22A550234A4B296
:1033D0000022EA54E8E70022F5E7002FE6D03A8819
:1033E000631C9BB2120A2A553A880234A4B2EA54EA
:1033F000DCE70028DCD0BDF80410631C9BB20A0A8D
:103400002A5504F102081FFA88F8E95403AAFFF7C5
:1034100070FF0334A4B205F8080000229042C7DD13
:10342000631C42A9114411F8FC1C295501329CB2BD
:10343000F4E7002FBED0BDF80410631C9BB20A0A4B
:103440002A55A61CB6B2E95403AA3846FFF774FF02
:103450000334A4B2A855002307E0621C42A9194412
:1034600011F8FC1C2955013394B29842F5DCA1E710
:1034700010B5044602F0B5F8204602F047F9FF28DF
:1034800003D0034B33F8100010BD4FF0FF30FBE7C3
:1034900090C8010810B5084802F0B6F838B9064CD3
:1034A000214602F0A4F82046FFF7E2FF10BD0248D3
:1034B000FFF7DEFFFAE700BF981C002008B50122E5
:1034C0001146034803F099FB04F002FCFD2008BDFF
:1034D0000008024030B585B0FDF768FF484B93F80F
:1034E000313013F0040F02D1FE2005B030BD044688
:1034F000434812F023F80022114620200BF046FF2B
:10350000404A106000286BD03F4B02934FF4A973E0
:1035100001933E4B00933E4B04223E490020FDF7B1
:1035200067FD384DA2B23C4928680BF0ADFF2B680F
:103530000A221A62002840D1384B029340F25713F6
:103540000193324B0093324B04223249FDF750FD78
:10355000334B01225A70334A9179D3791B0443EAE1
:103560000163117A43EA0123517A0B431A0202F4F0
:103570007F0242EA0162190A01F47F410A4342EAEA
:103580001363294A1360294A117853781B0443EACC
:103590000163917843EA0123D1780B431A0202F4C4
:1035A0007F0242EA0162190A01F47F410A4342EABA
:1035B00013631F4A1360FD2097E71E4B029340F2EE
:1035C00061130193114B0093114B04221149002008
:1035D000FDF70EFD0B4B18680BF046FFFE2084E74D
:1035E000154B02934FF4B3730193084B0093084BB0
:1035F000042208490020FDF7FBFCFE2075E700BF10
:103600004C150120201201205CBE010864C0010895
:1036100024BE010858BE010850F6010878BE010812
:10362000900C00204C0D012018120120A801002050
:103630001C1201208CBE0108A4BE010808B5114B64
:103640005B78012B08D1104B93F8313013F0040F45
:1036500015D000BFFD2013E003F002FEB0F5FA6FB5
:1036600002D30A4B1B780BB9FE2009E0084B1868FF
:103670000AF030F8054A1378013B1370F4E7FD2097
:1036800008BD00BF900C00204C150120AC010020AB
:103690005012012000B583B00B4B186809F03DFEB5
:1036A0000A4B1B7853B9002100910B460A460620AD
:1036B00000F0CEFAFD2003B05DF804FB044B18685F
:1036C0000AF008F8EFE700BF60120120AC0100200B
:1036D000501201202DE9F04FA9B000210F91602276
:1036E00010A814F04BFF234B1B681BB9FD2029B019
:1036F000BDE8F08F204CA579E679277A94F8098007
:10370000FDF760FE0B90FDF757FE0C90FDF760FE95
:103710000D9094F8009094F801A094F802B0E47829
:10372000FDF744FE09900894CDF81CB0CDF818A020
:10373000CDF814900D9B04930C9B03930B9B029369
:10374000CDF80480009733462A460C490FA815F09F
:1037500051FB0FA8FCF746FD0446FDF733FE83B28C
:10376000074A21460FA800F03BFA024A1368013BC2
:103770001360BBE7B00100204C0D0120C0BE010862
:103780001C12012008B5054B054A0649064801F000
:103790001DFFFFF77FFE09F0D4FDFAE77CC00108AA
:1037A00074C00108A81C0020981C002010B588B027
:1037B0005A4B02936E230193594B0093594B0422A9
:1037C00059490020FDF714FC26E00392574B029361
:1037D00078230193524B0093524B0422524900200C
:1037E000FDF706FC2BE010F1020F00F09480DDF8ED
:1037F0001A404F49204615F01BFC40B31523009397
:103800004C4B01220421104600F022FA4FF47A704A
:1038100009F097FD03F0ECFC4FF0FF3205A90420FE
:1038200000F057FA0028DED1DDF81A100029DED0AA
:10383000BDF81820632AC8D83F4814F077FEDDF899
:103840001A000AF085F93C4BCDF81A30CFE73B4916
:10385000204615F0EDFB38B100230093022204212D
:10386000072000F0F5F9D7E73549204615F0E0FBD1
:1038700048B1BDF8183000932346012204210720E7
:1038800000F0E6F9C8E72F49204615F0D1FB38B122
:103890000023009303220421072000F0D9F9BBE79D
:1038A0002949204615F0C4FB38B1002300930422B7
:1038B0001146072000F0CCF9AEE72449204615F068
:1038C000B7FB48B1BDF81830009323460522042108
:1038D000072000F0BDF99FE71D49204615F0A8FB21
:1038E00048B1BDF818300093234606220421072072
:1038F00000F0AEF990E71749204615F099FB002833
:103900008AD0BDF8183000932346072204211046C0
:1039100000F09EF980E708B010BD00BF20BF01088D
:1039200014C0010824BE01081CBF01083CBF0108E7
:103930008CB20108B4C00108940C002050BF0108EB
:1039400058BF010860BF01086CBF010874BF0108BF
:103950007CBF010884BF010830B589B04FF0FF314A
:103960001A4B186809F082FE194B0293AA2301939F
:10397000184B0093184B042218490020FDF738FB20
:1039800007E0BDF81810164800F0FEF80A2009F00C
:10399000D8FC4FF0FF3205A9022000F09AF980B957
:1039A000DDF81A40002CECD00D4DBDF81820214652
:1039B000284614F0BBFD20460AF0CAF8CDF81A508C
:1039C000DFE710F1020FE1D109B030BD5012012044
:1039D00094BF010828C0010824BE01088CBF01085B
:1039E000F80C002000B589B0214B0293CC23019341
:1039F000204B0093204B042220490020FDF7F8FAC9
:103A00000BE01F4B0293DA2301931A4B00931A4BDE
:103A100004221C490020FDF7EBFA06A91A4B18688E
:103A20000BF084FE0028F8D10DF1160207A90698C4
:103A30000BF026FC0028E4D1BDF816300393134B9D
:103A40000293D42301930B4B00930B4B04220D499B
:103A5000FDF7CEFABDF816300093079B0022114601
:103A6000042000F0F5F806980BF0CBFBD5E700BF7B
:103A7000B8BF01083CC0010824BE0108B0BF01085E
:103A8000E0BF0108D8FC010820120120D0BF0108C6
:103A900030B589B0204B0293EC2301931F4B009368
:103AA0001F4B04221F490020FDF7A2FA022404E064
:103AB0009DF81640F4B1012C23D04FF0FF3205A938
:103AC000012000F006F980B9DDF81A40002CEFD093
:103AD000154DBDF818202146284614F027FD204634
:103AE0000AF036F8CDF81A50E2E710F1020FE1D1F2
:103AF00009B030BDBDF81810DDF81A0000F018F854
:103B0000DBE741F29233094ABDF81810DDF81A00DC
:103B100000F066F8D1E700BFFCBF010850C0010803
:103B200024BE0108F4BF0108C814002018120120A7
:103B3000114B5B78012B1BD170B506460C460BF080
:103B400053FB0E4D2860A1B20BF06CFB2C68236870
:103B50005E600B4B1E68FDF72FFC83B2094A2146BD
:103B600030460BF0D5FC28680BF04BFB002070BDF5
:103B70004FF0FF30704700BF900C0020C81C0020A1
:103B80002012012018120120114B5B78012B1BD150
:103B900070B506460C460BF027FB0E4D2860A1B20F
:103BA0000BF040FB2C6823685E600B4B1E68FDF732
:103BB00009FC83B2094A214630460BF0A9FC28686B
:103BC0000BF01FFB002070BD4FF0FF30704700BFAF
:103BD000900C0020CC1C0020201201201812012083
:103BE0002DE9F0411446104A5278012A19D10746AE
:103BF00088461E460BF0F8FA0C4D28601FFA88F133
:103C00000BF010FB29680B685F60334622460848BA
:103C100000680BF07DFC28680BF0F3FA0020BDE88B
:103C2000F0814FF0FF30FAE7900C0020D01C00200C
:103C300020120120092807D800EB8000034B03EB7A
:103C40004000D0F80600704700207047B401002003
:103C50002DE9F04184B00D4614461E460A9FFFF739
:103C6000E9FF80B38046ADF80450ADF80640A7B92F
:103C700000240023ADF80A30ADF80C30ADF8083060
:103C8000404609F044FEB8B904B3204609F060FF8D
:103C90004FF0FF3004B0BDE8F081384609F0DAFE9D
:103CA00004460028E5D03A46314614F03FFCCDF8F2
:103CB0000A40ADF80870E3E700231A4601A9404620
:103CC00009F094FDE6E76FF00500E3E74FF0FF3001
:103CD000E0E770B582B00C461546FFF7ABFF58B170
:103CE000064609F007FE01902B4600222146304689
:103CF00009F0BEFD02B070BD6FF00500FAE70000EC
:103D000010B5044638B1A0682369626802FB03035A
:103D1000E068181A10BD4FF4E2710248FDF74EFA40
:103D2000F1E700BFCCC0010838B50C46054680B1AC
:103D3000EA681119E9606B68934208D82A690AB1E8
:103D4000013A2A61B1FBF3F203FB1211E960002092
:103D500038BD40F2EF110248FDF730FAE8E700BF46
:103D6000CCC001082DE9F041804616460F4679B1D6
:103D7000FB6838680021B1420FD2C25C08F801200C
:103D800001337C68B3FBF4F504FB15330131F2E732
:103D9000AF210548FDF712FAEAE731463846FFF74A
:103DA000C3FF0020BDE8F081CCC001082DE9F84335
:103DB0000F4690469946044638B167B1B8F1000FF6
:103DC0000FD025683E787F7836E040F207112C4806
:103DD000FDF7F4F9F1E74FF484712948FDF7EEF9A6
:103DE000ECE740F209112648FDF7E8F9E9E7B9F1F7
:103DF000020F14D0002201339BB2B3FBF1F601FB9A
:103E000016339BB2EB5C02EB032292B2904231D3A9
:103E10009AB321464046FFF7A5FF002028E0013372
:103E20009BB2B3FBF1F201FB12339BB2EA5CE2E717
:103E300001212046FFF778FF2046FFF761FF80B29F
:103E4000E1688BB290B1EA5CB242F1D101339BB22E
:103E50006168B3FBF1F201FB12339BB2EA5CBA4238
:103E6000C5D001212046FFF75FFFE5E76FF00300B3
:103E7000BDE8F8834FF0FF30FAE74FF0FF30F7E787
:103E8000CCC0010870B50D461646044608B10023A3
:103E900006E04FF410710D48FDF790F9F7E7013394
:103EA000AB4212D22268A068411CA160F15C11549F
:103EB000A16862689142F2D3002020726072A07201
:103EC000E072206901302061E9E770BDCCC00108D3
:103ED00020B108B509F03CFE002008BD6FF00500D8
:103EE0007047000012490A688B68C3EB0323134430
:103EF0004A68934200D1704710B50C46531C4B6082
:103F0000023201EB82025068FFF7E2FF6268FE2A8C
:103F10000CD9A3680BB1013BA360064BA3FB0213B2
:103F2000DB09C3EB0323D31A014A536010BD00BF62
:103F3000E01C00208180808030B587B01C4A146866
:103F40009368C3EB03210C445268A41A04930394AE
:103F5000184B02934FF445730193174B0093174B83
:103F6000042217490020FDF743F809E0154BA3FB95
:103F70000213DB09C3EB0323D31A0D4A53602C460B
:103F8000651E94B10A4C63685A1C6260023304EBEC
:103F900083035868FFF79CFF6268FE2AEFD9A36885
:103FA000002BE3D0013BA360E0E707B030BD00BFCA
:103FB000E01C002034C1010848C2010800C101080A
:103FC000D8FC0108818080802DE9F0411F4F44F624
:103FD00024620021384614F0D1FA1D4E42F21074CA
:103FE00022460021304614F0C9FA1A4D224600211B
:103FF000284614F0C3FA184B1F6044F620625A603A
:1040000016480268D36843F01003D360144F3A682F
:10401000D36843F01003D360DFF84C80D8F8002059
:10402000D36843F01003D3602246314607F0AAF864
:1040300022462946384607F0A5F84FF48072094910
:10404000404607F09FF8BDE8F08100BF244E001005
:10405000A04E0020E82000208C4E0020744B012050
:10406000B84B012004490020B049012010B5044696
:1040700001F0B7FA204601F049FBFF2803D0034BBB
:1040800033F8100010BD4FF0FF30FBE790C8010877
:1040900010B5052903D90A48FFF7E8FF10BD04460B
:1040A000074801F0B1FA012806D00B2CF3D80449D7
:1040B000204601F09CFAEEE7014801F0A0FAF4E78F
:1040C000184A002000B583B0034600910022032166
:1040D0000820FFF7BDFD03B05DF804FB38B50C46C2
:1040E000054660B10C2323801348FFF709FE6B8857
:1040F000052B0ED8DFE803F00808080F1619FF217A
:104100000E48FDF75BF8EDE722460D490A4801F03D
:104110000DFA002038BD22460949D5F8060001F005
:1041200005FAF6E7FFF7DEFEF3E7064890F8001120
:10413000FFF7C8FFEDE700BF8C4E002000C101086B
:10414000484A00200048002070B586B00024ADF831
:1041500016402148FDF7F0F8FFF736FF1F4B02939A
:10416000802301931E4B00931E4B04221E492046C0
:10417000FCF73EFF1D4B1E4A1E491F4801F026FA60
:1041800006244FF0FF320BE01C4884780DF1160135
:10419000FFF7A4FF2146BDF81600FFF779FF02469E
:1041A00016490320FFF795FD88B9144BD3F8064054
:1041B000002CE9D01D46124E9A882146304614F054
:1041C000B5F9204609F0C4FCC5F80660DCE710F13B
:1041D000020FDFD10724DDE7484A00205CC1010857
:1041E00000C2010800C1010854C101088CC20108C5
:1041F0005CC20108284A0020184A0020D41C002074
:10420000044A0020002851D02DE9F04186B0044630
:1042100000294ED08AB20146274806F0A1FC054687
:10422000002832D1254A1368591C1160B3F57A7FF2
:1042300003D0002006B0BDE8F08109F0C7FC204F94
:10424000204E0390204B029340F211230193DFF89C
:104250008480CDF800803B46042231460020FCF7E4
:10426000C7FE237A04950393184B029340F212235E
:104270000193CDF800803B46042231460020FCF734
:10428000B7FE00200D4B1860D4E70390104B02934B
:1042900040F2172301930F4B0093094B0422094965
:1042A0000020FCF7A5FE4FF0FF30C3E76FF00500DC
:1042B00070476FF00500BDE7B84B0120F8470020BC
:1042C00000C1010854C1010874C101087CC1010882
:1042D000A0C1010810C20108002840D02DE9F0411A
:1042E00086B0044600293DD08AB20146204806F037
:1042F00037FC0546002838D11E4A1368591C116046
:10430000B3F57A7F03D0002006B0BDE8F08109F054
:104310005DFC194F194E0390194B029340F2322362
:104320000193DFF86480CDF800803B4604223146DB
:104330000020FCF75DFE237A04950393114B029352
:1043400040F233230193CDF800803B4604223146EE
:104350000020FCF74DFE0020064B1860D4E76FF0FC
:10436000050070476FF00500CEE74FF0FF30CBE758
:10437000744B0120FC47002000C1010854C1010812
:1043800074C10108C0C1010820C20108014B18789E
:10439000704700BF484A0020014B9878704700BF23
:1043A000484A00202DE9F84F80460D4617461E4624
:1043B0000B9CFFF7EBFF8246FFF7EEFF81464FF4C1
:1043C0007A720021244814F0D9F815B1B8F1000F21
:1043D0000BD14CB30A9B002B3BD004F1FF38424673
:1043E00019461D4814F0A2F81FE01B4C44F2274365
:1043F000238006F10A0B1FFA8BFBA4F802B049EAEE
:104400000A20A080A4F8068025723246394604F1BD
:10441000090014F08BF80BF1FF31204601F01CFA73
:104420006388013BE05411E0A0460B4D324639460B
:1044300005EB080014F07AF8A11989B269800139F6
:10444000284601F009FA6B88013BE8540248BDE8B0
:10445000F88F4FF00008E8E7A44A00202DE9F04F5C
:1044600083B08146884617461E460D9DFFF78EFF96
:104470008346FFF791FF0190324BD3F808A0BAF1C1
:10448000000F18D170190A3009F0E4FA044628B177
:10449000B8F1000F02D0B9F1000F10D1002C47D0B5
:1044A0005DB30C9B53B305F1FF3A524619462046C3
:1044B00014F03CF822E0FFF73FFD002438E027230A
:1044C00003704423437006F10A039DB24380019BAD
:1044D00043EA0B2BA0F804B0A0F8069080F80880FF
:1044E00032463946093014F021F8691E204601F0A1
:1044F000B3F96388013BE05410E0AA4632463946DE
:1045000004EB0A0014F012F83544A9B265800139B1
:10451000204601F0A1F96388013BE054094B1A6879
:10452000511C1960023203EB82035C60FF2903D047
:10453000204603B0BDE8F08F024B00221A60012232
:104540009A60F5E7E01C002000487047484A0020C8
:104550007047000070B582B00C46314B984207D0CE
:10456000304B98421DD0304B984242D002B070BDC3
:10457000092903D92D4B1B7A022B06D142F2107266
:104580002A49274806F0FEFDF0E7284A2848FFF7A9
:1045900079FC00230093022203210846FFF758FB11
:1045A000ECE709290ED9234B1B7A822B11D0214A23
:1045B0001F48FFF767FC00230093022203210846EF
:1045C000FFF746FB42F210721A49164806F0DAFD70
:1045D000CCE718498A78CB7802EB0322164C44F6D4
:1045E0002063E250204613F0A1FF204600F0ECFBD0
:1045F000E8E700230093052203210846FFF728FB84
:104600000E4E0F4D22462946304613F08FFF86F896
:1046100000414FF480722946034806F0B3FDA5E738
:10462000744B0120B84B0120B0490120A04E00205E
:104630008C4E0020E82000200000001000480020E0
:104640000449002010B584B0044606F043FD8DF8FF
:104650000F000C4B9C4206D094F83D3013F0200F15
:1046600008D104B010BD00224FF48051064802F07A
:10467000C4FAF1E700230093042203210846FFF760
:10468000E7FAEEE7B04901200008024000B585B026
:10469000036C0393074B02934FF43A730193064B59
:1046A0000093064B042206490020FCF7A1FC05B04C
:1046B0005DF804FBE4C1010830C2010800C1010833
:1046C00054C101080023042B15D830B4027A22F01B
:1046D00080021D46084C34F82340A24205D0013325
:1046E0009BB2042BF2D930BC7047034B03EB85051A
:1046F0006B880B80F7E7704738C7010838B50C4660
:10470000054668B194B10023122B15D834F8020B7A
:10471000020A02EB002225F8022B0133DBB2F3E799
:1047200040F2C7510548FCF749FDEBE74FF4B9618A
:104730000248FCF743FDE6E738BD00BF20C301088F
:1047400030B587B00C46054660B3002C30D0B5F8C4
:104750000930238023780133237063780133637039
:104760000023019300935B2322468121FF20FFF762
:1047700075FE054610B32378627804920393114BBB
:10478000029340F2DA4301930F4B00930F4B042244
:104790000F490020FCF72CFC69882846FFF79CFD98
:1047A00007B030BD40F2CA410848FCF707FDCCE72E
:1047B00040F2CB410548FCF701FDC8E74FF0FF3060
:1047C000EEE700BF58C301080CC7010820C3010869
:1047D00054C1010803881B0A5A1ED2B20F2A00D9FD
:1047E000704770B402460B49262404FB03132030A3
:1047F000166855689468D1681E605D609C60D960D9
:10480000103210338242F3D11168196092889A8075
:1048100070BC7047E87B002070B50E46054690B12D
:10482000BDB1E6B1002495F82D36A3421DD35B201F
:1048300000FB04500C223146033013F069FEB0B186
:104840000134E4B2EFE740F252510A48FCF7B6FCFB
:10485000E6E740F253510748FCF7B0FCE1E740F2CD
:1048600054510448FCF7AAFCDCE7002070BD4FF06F
:10487000FF30FBE720C30108F0B585B00E461546B2
:104880000446002843D0002C47D0002E4BD094F88B
:104890002D36112B5DD8102B4BD85A1CD2B284F870
:1048A0002D265B2303FB024237687068B168C2F8AB
:1048B0000370C2F80700C2F80B1094F82D2603FB12
:1048C00002F31833234405F11B02033305F15B0C9B
:1048D000176856689068D1681F605E609860D960FC
:1048E000103210336245F3D194F82D162A785B23E9
:1048F00003FB01F3E618E2546B787370AB78B37086
:1049000002F0AEFCC6F81300002005B0F0BD40F286
:1049100073511848FCF752FCB5E740F27451154842
:10492000FCF74CFCB1E740F275511248FCF746FC2D
:10493000ADE7114B029340F27B5301930F4B009371
:104940000C4B04220E490020FCF752FB4FF0FF30C5
:10495000DBE7094B02934FF4B1630193074B0093DC
:10496000044B042206490020FCF742FB4FF0FF30C5
:10497000CBE700BF20C3010874C3010828C70108A2
:1049800054C10108F0B589B00C461546064648B139
:1049900074B131462046FFF73FFF074670B13846F5
:1049A00009B0F0BD40F232511448FCF707FCEFE7C4
:1049B00040F233511148FCF701FCEAE72A46314640
:1049C0002046FFF759FF0746A8B994F82D360693FD
:1049D000B36805937368049333680393084B029399
:1049E00040F23E530193074B0093044B04220649C7
:1049F000FCF7FEFAD3E74FF0FF37D0E720C30108FA
:104A000094C3010818C7010890C3010830B585B0E8
:104A10000C46054698B1C4B122466B4652F8030FC6
:104A20005168926807C3224629466846FFF7AAFFE5
:104A30008DF80F009DF80F0040B205B030BD40F278
:104A400007510548FCF7BAFBE5E74FF4A1610248BE
:104A5000FCF7B4FBE0E700BF20C3010870B582B0EB
:104A60000C4C236803F109055E88FFF78FFCFFF704
:104A700093FC2368DB8813F0100F02D1FE2002B0F4
:104A800070BD00962B46052203211046FFF7E0F883
:104A9000FD20F4E7B0750020FD20704710B584B00C
:104AA000FFF774FC0446FFF777FC114B1A68D188B6
:104AB000127A230243F008031BB20B401BB293B1DE
:104AC00012F0800F11D10B4B02934FF4B07301938E
:104AD000094B0093094B042209490020FCF788FA8E
:104AE000FD2004B010BDFE20FBE7FE20F9E700BF6B
:104AF000B0750020B8C30108BCC5010820C3010877
:104B000054C10108FD207047F0B583B00E4D2B68ED
:104B100003F109065F88FFF739FC0446FFF73CFC08
:104B20002B68DB88240244F0FF04A34202D0FE205D
:104B300003B0F0BD00973346042203210520FFF7A0
:104B400087F8FD20F4E700BFB0750020FD20704716
:104B5000FD20704738B5084B1D68FFF717FC044669
:104B6000FFF71AFCEB88A4B2B4EB132F01D1FD20A0
:104B700038BDFE20FCE700BFB0750020FD20704767
:104B8000FD207047FD207047FD207047FD207047D5
:104B900010B584B0124B1B681C7AFFF7F7FBFFF7C8
:104BA000FBFB032C02D0FE2004B010BD0D4B029382
:104BB0004FF4F77301930C4B00930C4B04220C49F8
:104BC0000020FCF715FA0023019300935B23094AA8
:104BD00012688321FF20FFF741FCFD20E4E700BFBE
:104BE000B0750020D0C30108D0C5010820C301085A
:104BF00054C10108747E002010B584B0FFF7C6FBD5
:104C00000446FFF7C9FB104B1B68DB88A4B2B4EB6A
:104C1000132F02D0FE2004B010BD0C4B029340F2C3
:104C2000092301930A4B00930A4B04220A490020EE
:104C3000FCF7DEF900220092034B1B6803210120E0
:104C4000FFF706F8FD20E6E7B0750020E0C3010895
:104C5000E4C5010820C3010854C10108134B1B68B7
:104C6000197ADA884FF6FF739A421CD1012901D0D4
:104C7000FE20704700B585B00D4B029340F2232310
:104C800001930C4B00930C4B04220C490020FCF7C1
:104C9000AFF90B4B1968054B1868FFF751FDFD2064
:104CA00005B05DF804FBFE20704700BFB075002022
:104CB000F4C30108F8C5010820C3010854C1010864
:104CC000747E002000B585B0FFF760FB0E4B1968BD
:104CD000CB8880B2B0EB132F03D0FE2005B05DF877
:104CE00004FB09310948FFF791FE094B029340F29A
:104CF0003D230193074B0093074B042207490020F3
:104D0000FCF776F9FD20E9E7B0750020B8750020C2
:104D100004C4010808C6010820C3010854C10108E1
:104D200030B587B00E4B1D686988284600F0AEFD8F
:104D300004462B7A049303900A4B029340F25323C8
:104D40000193094B0093094B042209490020FCF709
:104D50004FF914B9FD2007B030BDFE20FBE700BFBE
:104D6000B075002018C4010818C6010820C3010846
:104D700054C1010830B585B00E4B1D68FFF706FB26
:104D80000446FFF709FBEB88A4B2B4EB132F02D063
:104D9000FE2005B030BD084B029340F26B23019317
:104DA000064B0093064B042206490020FCF720F92D
:104DB000FD20EEE7B0750020E0C301082CC6010815
:104DC00020C3010854C101082DE9F0478046744C06
:104DD0004FF4FA620021204613F0D0FB714D724B64
:104DE0001B682846984729462046FFF787FCB8F8F5
:104DF00002A0AAF10A090026263437469EE00023C5
:104E00000F2B0AD805EB4302D1880A0A02EB0122D4
:104E100024F8022B0133DBB2F2E726378EE002F0F2
:104E20001FFA00F00F0600220FE031440B0203F4DA
:104E30007F0303EB0163080A00F47F40034403EBA4
:104E4000116344F8043B0132D2B2072A11D805EBB2
:104E50008203D3F806100029E7D10B0203F47F0385
:104E600003EB0163080A00F47F40034403EB116382
:104E7000E7E7263762E002F0F3F900F00F060022C0
:104E80000FE031440B0203F47F0303EB0163080AD4
:104E900000F47F40034403EB116344F8043B013208
:104EA000D2B2072A11D805EB8203D3F806100029E5
:104EB000E7D10B0203F47F0303EB0163080A00F45C
:104EC0007F40034403EB1163E7E7263736E0002316
:104ED0000F2B0AD805EB4302D1880A0A02EB012204
:104EE00024F8022B0133DBB2F2E7263726E0002359
:104EF0000F2B0AD805EB4302D1880A0A02EB0122E4
:104F000024F8022B0133DBB2F2E7263716E005EB7B
:104F10008103D3F80630F218130203F47F0303EB86
:104F20000263100A00F47F40034403EB126344F869
:104F3000043B0131C9B20729E9D926374F4526D2AA
:104F400008F109053D442846FFF744FC2A88130A66
:104F500003EB022323806A88130A03EB0223638096
:104F6000AA88130A03EB0223A38006342B88DBB242
:104F7000012B3FF444AF102B3FF451AF202B3FF4F3
:104F80007AAF022BA3D0082BB1D00021D3E70AF1CE
:104F90001C010348FEF7CCFDFD20BDE8F08700BFF3
:104FA000489C0010E87B0020707E00202DE9F04F27
:104FB00087B07C4B029340F2F62301937A4B009327
:104FC0007A4B04227A490020FCF712F8794E4FF40C
:104FD000FA620021304613F0D1FA774B1B685B88E8
:104FE000A3F10A0B4FF00008CDF81080C246C1466D
:104FF0009EE000270F2F0CD805EBC70004EB4703FA
:10500000DB886E4A0821304413F0C0FE0137FFB23E
:10501000F0E78035049B2B4404932E4409F12609C4
:105020007FE002F01DF900F00F030027CDF8148097
:10503000984613E007EB470005EB800004EB87037D
:10504000D3F8062008EB070313435D4A0C21DFF871
:1050500064C1604413F09AFE0137FFB2072FE9D90B
:10506000DDF81480BAF1030F02D80AF1010A58E002
:1050700009F126094FF0000A53E0002705960F2F8B
:105080000DD805EBC70004EB4703DB884D4A082128
:10509000484E304413F07AFE0137FFB2EFE7059E29
:1050A000BAF1030F02D80AF1010A3AE009F1260920
:1050B0004FF0000A35E0002705960F2F0DD805EBBD
:1050C000C70004EB4703DB883E4A0821394E3044D1
:1050D00013F05CFE0137FFB2EFE7059EBAF1030F54
:1050E00002D80AF1010A1CE009F126094FF0000A72
:1050F00017E007EB470005EB800004EB8703D3F8CC
:1051000006302F4A0C21DFF8ACC0604413F03EFE9D
:105110000137FFB2072FECD9BAF1030F2DD80AF1EE
:10512000010AB8F1040F2DD008F101085FFA88F8E0
:10513000D94532D2204B1C6809344C442046FFF735
:1051400049FB23886288A188019100921E4A24218C
:10515000304613F01BFE3046FBF744F80546238823
:10516000DBB2012B3FF445AF102B3FF45AAF022BBB
:1051700083D0082B9FD00027CCE709F126094FF0F8
:10518000000ACEE7049B00930A4B00220321012072
:10519000FEF75EFD4FF00008CAE7FD2007B0BDE84E
:1051A000F08F00BF44C4010840C6010820C30108B5
:1051B00054C10108489C0010B07500207CC401084F
:1051C00084C4010890C4010858C40108104B1B682E
:1051D000DA881B7A12F0FF0F17D013F0800F01D17D
:1051E000FE20704700B585B00A4B029340F27F3332
:1051F0000193094B0093094B042209490020FBF756
:10520000F7FEFD2005B05DF804FBFE20704700BFEF
:10521000B075002098C4010854C6010820C30108D5
:1052200054C10108FD207047FD20704730B587B09C
:105230000025ADF81650124B1B685B88ADF8163090
:10524000104B1868FEF75CFD044603900E4B02936A
:1052500040F2A53301930D4B00930D4B04220D49F1
:105260002846FBF7C5FE092C02D8FD2007B030BD4B
:105270002B460095022203210846FEF7E9FCF4E7DD
:10528000B0750020B4750020ACC4010868C60108E0
:1052900020C3010854C10108FD207047FD2070475C
:1052A00010B584B00F4B1C68638803930E4B0293B8
:1052B0004FF4737301930D4B00930D4B04220D4972
:1052C0000020FBF795FE63880020019000902246A5
:1052D0000146FFF767F810B16188FEF793FFFD20E4
:1052E00004B010BDB0750020D0C4010878C6010814
:1052F00020C3010854C1010810B584B00F4B1C68CD
:10530000638803930E4B029340F2DF3301930D4BFE
:1053100000930D4B04220D490020FBF769FE6388C2
:1053200000200190009022460146FFF73BF810B1A3
:105330006188FEF7D1FFFD2004B010BDB0750020DC
:10534000ECC4010888C6010820C3010854C1010843
:1053500030B585B00D4B1C68658803950C4B0293E6
:1053600040F2F23301930B4B00930B4B04220B4999
:105370000020FBF73DFE0095234603221146052041
:10538000FEF766FCFD2005B030BD00BFB075002003
:1053900008C5010898C6010820C3010854C10108C6
:1053A00000B585B0FEF7F2FFFEF7F6FF0C4B1B6869
:1053B00093F90830002B10DB0A4B02934FF4826301
:1053C0000193094B0093094B042209490020FBF784
:1053D0000FFEFD2005B05DF804FBFE20FAE700BFDC
:1053E000B07500202CC50108B0C6010820C3010813
:1053F00054C10108FD2070470D4B1B6893F908301C
:10540000002B01DBFE20704700B585B0094B0293ED
:1054100040F234430193084B0093084B042208499F
:105420000020FBF7E5FDFD2005B05DF804FB00BFA3
:10543000B075002040C50108C4C6010820C301089A
:1054400054C10108FD20704700B583B0064B1B68AE
:105450005A8800920933022203210520FEF7F8FB47
:10546000FD2003B05DF804FBB0750020054B1A6801
:10547000537A012B03D9013B5372FD207047FE2064
:10548000704700BFB075002010B586B000230193AF
:1054900000935B23104A126801214FF6FF70FEF75C
:1054A000DDFFA8B10446037AC288049203930B4B34
:1054B000029340F273430193094B0093094B04227A
:1054C00009490020FBF794FD61882046FEF79AFE0B
:1054D000FD2006B010BD00BF747E002054C5010839
:1054E000D8C6010820C3010854C1010810B584B012
:1054F00004460390084B029340F284430193074B08
:105500000093074B042207490020FBF771FD064B6F
:105510001C6004B010BD00BF80C50108E8C60108CA
:1055200020C30108B0AF0108707E002070B588B0BC
:105530000D46144644F22743ADF81C30144B186056
:105540000223144A07A9FEF731FC30B1124B0022A6
:105550001A600C23238008B070BD0F4E0D483060D8
:105560000E4B1D602146FFF7ADF823883268127A92
:10557000049203930A4B029340F29D430193094B1B
:105580000093094B042209490020FBF731FDE2E7B3
:10559000B475002018A40010B0750020747E00209F
:1055A00098C50108FCC6010820C3010854C10108C0
:1055B00000487047E87B002000487047B87500201D
:1055C000014B93F82D067047B875002030B404469F
:1055D00000202070FF2565706160A260E36030BC30
:1055E00070474378FF2B01D00123037070470123DC
:1055F0000B7000224A704B6818809A707047002325
:105600000370FF23437070474378FF2B01D00120C4
:105610007047002070472DE9F843054600270770C2
:105620004078FF2870D06C6804EB80044FF00108CC
:10563000FF2023E06B7801336B70C7F30E0324F86F
:10564000043F0023A370012E10D1AB68228853F8C9
:105650002220A37803EB430302EB430932F81370D3
:1056600032F91330002BE5DB0026ECE7EB6853F84A
:1056700027309847FF2806D1FE20B046B8F1010F29
:1056800042D14646DFE7FD2805D099F8041099F885
:105690000500C44625E099F8021099F80300F8E7E0
:1056A0006B7823B9FF226A709C46984619E0013B4B
:1056B0006B70AB6834F8041D53F82110A37803EB2A
:1056C000430301EB43097F2A04D099F8041099F8A9
:1056D000050006E099F8021099F8030001E0C446BD
:1056E000B046B8F1010F0DD101F07F02A2F17E03A7
:1056F000DBB2012BD4D9A27011F0800FEFD1B446E8
:10570000B046EEE76646B8E7BDE8F88308B503782B
:10571000012B01D0FF2008BDFFF77DFFFBE700282C
:105720004DD0F0B4044600294BD012F0010F4AD1FD
:10573000002303E0002500F8015B0133B3EB520FB7
:10574000F8D3520096B20127002005460FE0392B0E
:1057500005D9373B5BB222781343237025E052B260
:1057600023781A43227020E0013401270135AE422C
:1057700022D94B5DA3F13002D2B2362A1CD8A3F154
:105780003A0C5FFA8CFCBCF1060F15D9A3F1470C5B
:105790005FFA8CFCBCF1190F0ED90130602BD6D901
:1057A000573B5BB2227813432370002FDCD0237861
:1057B0001B0123700027D9E74008F0BC7047002088
:1057C00070470020F9E70020F7E700000000000024
:1057D000C8B32DE9F84F0E46824689B300250570FF
:1057E000541E2F4621E0A0F1300B2846FAF7AAFEFE
:1057F00041EC110B9FED160B14F00AFA59EC108BCB
:105800005846FAF79FFE42464B46FAF705FF804698
:1058100089463846FAF786FE42464B46FAF746FD79
:10582000FBF7AAF90746013C0135002C06DB305D89
:10583000A0F13003DBB2092BF5D8D4E78AF8007069
:105840000020BDE8F88F0020704700BFAFF3008054
:10585000000000000000244038B50D46044658B151
:105860000020691E6DB1234613F8012B4240054804
:10587000805C0D461C46F4E7C9210348FBF79EFCFB
:10588000EEE738BDD8C801089CC8010838B50D46F8
:10589000044610B1A5B100210CE0DC210B48FBF758
:1058A0008DFCF7E7234613F8012B4A400849895C31
:1058B00005461C46681E002DF4D121B9002038BDD4
:1058C0004FF0FF30FBE74FF0FF30F8E79CC80108CE
:1058D000D8C8010830B595B03022002108A812F0D0
:1058E0004DFE0024039404940594069407940194B7
:1058F0001D4B1A6C42F080521A641B6C03F08053EB
:105900000193019B0294194B1A6842F480421A6079
:105910001B6803F480430293029B0D2308934FF40A
:105920008033099301230A930D9302250E954FF4BA
:1059300080030F9304231093A822119212951393BE
:1059400008A800F0CFFB0F230393049505944FF4B0
:10595000A05306934FF480530793052103A800F04A
:1059600023FE15B030BD00BF00380240007000407B
:1059700008B501F04FFCFFF7ADFF1B4BDA6842F0B2
:105980000102DA609A6842F480529A6001F0A2FC47
:1059900001F082FD02F080F901F0A8FF01F0D8FFCC
:1059A00001F0F4FF03F01EF803F038F803F050F8AC
:1059B00002F00EFD02F0E8FD02F024FE02F062FEAD
:1059C00002F098FE02F0CEFE02F0F4FE02F01AFFA2
:1059D00002F06CFDFBF736FC07F0FAFB01F0CEFDA0
:1059E00007F008FCFEE700BF002004E008B50268ED
:1059F000034B9A4200D008BD01F026FCFBE700BF34
:105A00000000014070477047FEE7FEE7FEE7FEE753
:105A10007047000008B5024801F0A8FA08BD00BFB1
:105A2000B014012008B5024801F0A0FA08BD00BF7B
:105A30005049012008B5024801F098FA08BD00BF9E
:105A40009C13012008B5024801F090FA08BD00BF80
:105A5000F449012008B5024801F088FA08BD00BFEA
:105A6000E812012008B5024801F080FA08BD00BF25
:105A7000FC13012008B5024800F014F908BD00BF6E
:105A8000FC4B012008B5024800F00CF908BD00BF2E
:105A90006048012008B5024800F004F908BD00BFC5
:105AA000D047012008B5024800F0FCF808BD00BF4F
:105AB0004047012008B5024805F074F908BD00BF51
:105AC000744B012008B5024805F06CF908BD00BF11
:105AD000B049012008B5024800F0E4F808BD00BF55
