:020000040800F2
:10000000000002204D4A01084153000843530008F4
:1000100045530008475300084953000800000000FA
:10002000000000000000000000000000C1B2000855
:100030004B5300080000000061B30008F1A700085E
:100040009D4A01089D4A01089D4A01089D4A0108F0
:100050009D4A01089D4A01089D4A01089D4A0108E0
:100060009D4A01089D4A01089D4A01084D53000818
:100070009D4A01089D4A01089D4A01089D4A0108C0
:100080005D5300089D4A01089D4A01089D4A0108E8
:100090009D4A01089D4A01089D4A01086D530008C8
:1000A0009D4A0108795300089D4A01089D4A0108AC
:1000B0008953000899530008A95300089D4A010874
:1000C0009D4A01089D4A01089D4A01089D4A010870
:1000D0009D4A0108B95300089D4A01089D4A01083C
:1000E0009D4A01089D4A01089D4A01089D4A010850
:1000F0009D4A01089D4A0108CD5300089D4A010808
:100100009D4A01089D4A0108DD5300089D4A0108E7
:100110009D4A01089D4A0108ED530008FD5300085F
:100120009D4A01080D5400081D5400089D4A01080D
:100130009D4A01082D5400089D4A01089D4A010866
:100140009D4A01089D4A01089D4A01089D4A0108EF
:100150009D4A01083D5400084D5400085D540008B4
:100160009D4A01089D4A01089D4A01089D4A0108CF
:100170009D4A01089D4A01089D4A010800000000AF
:080180009D4A01089D4A010897
:1001900010B5054C237833B9044B13B10448AFF3C1
:1001A00000800123237010BDEC0B00200000000034
:1001B0008C60010808B5034B1BB103490348AFF33A
:1001C000008008BD00000000F00B00208C600108DA
:1001D000034613F8012B002AFBD1181A0138704787
:1001E00001F0FF01102A2BDB10F0070F08D010F8E8
:1001F000013B013A8B422DD010F0070F42B3F6D1EC
:10020000F0B441EA012141EA014122F007047FF004
:1002100000070023F0E80256083C85EA010586EA5B
:10022000010685FA47F5A3FA87F586FA47F6A5FA97
:1002300087F68EB9EED1F0BC01F0FF0102F00702A3
:1002400032B110F8013B013A83EA010313B1F8D14E
:100250000020704701387047002D06BF354603382F
:10026000073815F0010F07D1013015F4807F02BF68
:10027000013015F4C03F0130F0BC0138704700BFB9
:1002800070B54FF0FF0C4CF4E06C1CEA11541DBF2C
:100290001CEA135594EA0C0F95EA0C0F00F0DEF8F7
:1002A0002C4481EA030621EA4C5123EA4C5350EADC
:1002B000013518BF52EA033541F4801143F480132D
:1002C00038D0A0FB02CE4FF00005E1FB02E506F0BE
:1002D0000042E0FB03E54FF00006E1FB03569CF013
:1002E000000F18BF4EF0010EA4F1FF04B6F5007F19
:1002F00064F5407404D25FEA4E0E6D4146EB06068B
:1003000042EAC62141EA55514FEAC52040EA5E5013
:100310004FEACE2EB4F1FD0C88BFBCF5E06F1ED8BD
:10032000BEF1004F08BF5FEA500E50F1000041EBF4
:10033000045170BD06F0004646EA010140EA0200A1
:1003400081EA0301B4EB5C04C2BFD4EB0C0541EAC3
:10035000045170BD41F480114FF0000E013C00F3D8
:10036000AB8014F1360FDEBF002001F0004170BDFC
:10037000C4F10004203C35DA0C341BDC04F1140415
:10038000C4F1200500FA05F320FA04F001FA05F2A1
:1003900040EA020001F0004221F0004110EBD3706E
:1003A00021FA04F642EB06015EEA430E08BF20EA9A
:1003B000D37070BDC4F10C04C4F1200500FA04F33D
:1003C00020FA05F001FA04F240EA020001F00041CF
:1003D00010EBD37041F100015EEA430E08BF20EA42
:1003E000D37070BDC4F1200500FA05F24EEA020E8A
:1003F00020FA04F301FA05F243EA020321FA04F0B9
:1004000001F0004121FA04F220EA020000EBD3706F
:100410005EEA430E08BF20EAD37070BD94F0000F6F
:100420000FD101F00046400041EB010111F4801FA3
:1004300008BF013CF7D041EA060195F0000F18BF54
:10044000704703F00046520043EB030313F4801F90
:1004500008BF013DF7D043EA0603704794EA0C0F4A
:100460000CEA135518BF95EA0C0F0CD050EA410660
:1004700018BF52EA4306D1D181EA030101F00041DD
:100480004FF0000070BD50EA410606BF1046194605
:1004900052EA430619D094EA0C0F02D150EA013611
:1004A00013D195EA0C0F05D152EA03361CBF104652
:1004B00019460AD181EA030101F0004141F0FE41F1
:1004C00041F470014FF0000070BD41F0FE4141F475
:1004D000780170BD81F0004102E000BF83F000436D
:1004E00030B54FEA41044FEA430594EA050F08BFCF
:1004F00090EA020F1FBF54EA000C55EA020C7FEA93
:10050000645C7FEA655C00F0E2804FEA5454D4EB0F
:100510005555B8BF6D420CDD2C4480EA020281EAD9
:10052000030382EA000083EA010180EA020281EA11
:100530000303362D88BF30BD11F0004F4FEA013163
:100540004FF4801C4CEA113102D0404261EB410172
:1005500013F0004F4FEA03334CEA133302D05242F8
:1005600063EB430394EA050F00F0A780A4F10104B4
:10057000D5F1200E0DDB02FA0EFC22FA05F28018EE
:1005800041F1000103FA0EF2801843FA05F35941D4
:100590000EE0A5F120050EF1200E012A03FA0EFC53
:1005A00028BF4CF0020C43FA05F3C01851EBE3717D
:1005B00001F0004507D54FF0000EDCF1000C7EEB9A
:1005C00000006EEB0101B1F5801F1BD3B1F5001FD8
:1005D0000CD349085FEA30004FEA3C0C04F10104F7
:1005E0004FEA445212F5800F80F09A80BCF1004F20
:1005F00008BF5FEA500C50F1000041EB045141EAA2
:10060000050130BD5FEA4C0C404141EB0101013C6A
:1006100028BFB1F5801FE9D291F0000F04BF014659
:100620000020B1FA81F308BF2033A3F10B03B3F12B
:1006300020020CDA0C3208DD02F1140CC2F10C02BB
:1006400001FA0CF021FA02F10CE002F11402D8BF19
:10065000C2F1200C01FA02F120FA0CFCDCBF41EAE5
:100660000C019040E41AA2BF01EB0451294330BDB4
:100670006FEA04041F3C1CDA0C340EDC04F1140491
:10068000C4F1200220FA04F001FA02F340EA030068
:1006900021FA04F345EA030130BDC4F10C04C4F1AE
:1006A000200220FA02F001FA04F340EA030029468E
:1006B00030BD21FA04F0294630BD94F0000F83F4D8
:1006C000801306BF81F480110134013D4EE77FEABB
:1006D000645C18BF7FEA655C29D094EA050F08BF07
:1006E00090EA020F05D054EA000C04BF19461046E8
:1006F00030BD91EA030F1EBF0021002030BD5FEA2C
:10070000545C05D14000494128BF41F0004130BD53
:1007100014F580043CBF01F5801130BD01F00045A7
:1007200045F0FE4141F470014FF0000030BD7FEA1A
:10073000645C1ABF194610467FEA655C1CBF0B4615
:10074000024650EA013406BF52EA033591EA030F2C
:1007500041F4002130BD00BF90F0000F04BF002124
:10076000704730B54FF4806404F132044FF0000557
:100770004FF0000150E700BF90F0000F04BF0021D0
:10078000704730B54FF4806404F1320410F0004536
:1007900048BF40424FF000013EE700BF42004FEA31
:1007A000E2014FEA31014FEA02701FBF12F07F43AE
:1007B00093F07F4F81F06051704732F07F4208BF65
:1007C000704793F07F4F04BF41F40021704730B56C
:1007D0004FF4607401F0004521F000411CE700BFB8
:1007E00050EA010208BF704730B54FF000050AE03B
:1007F00050EA010208BF704730B511F0004502D53C
:10080000404261EB41014FF4806404F132045FEA3D
:10081000915C3FF4D8AE4FF003025FEADC0C18BFE6
:1008200003325FEADC0C18BF033202EBDC02C2F1D8
:10083000200300FA03FC20FA02F001FA03FE40EA6A
:100840000E0021FA02F11444BDE600BF4A0011D2A5
:1008500012F5001211D20DD56FF47873B3EB62521A
:100860000ED44FEAC12343F0004343EA505323FA26
:1008700002F070474FF00000704750EA013002D19B
:100880004FF0FF3070474FF00000704753B94AB93E
:10089000002908BF00281CBF4FF0FF314FF0FF3088
:1008A00000F06EB9ADF1080C6DE904CE00F006F869
:1008B000DDF804E0DDE9022304B070472DE9F047DC
:1008C000089D04468C46002B40F083808A421746E0
:1008D00047D9B2FA82F242B1C2F1200024FA00F004
:1008E0009140974040EA010C94404FEA1748230C8E
:1008F000BCFBF8F61FFA87FE08FB16C143EA01436A
:1009000006FB0EF1994209D9FB1806F1FF3080F081
:100910001981994240F21681023E3B445B1AA4B20F
:10092000B3FBF8F008FB103344EA034400FB0EFE6F
:10093000A64509D93C1900F1FF3380F00581A64591
:1009400040F2028102383C4440EA0640A4EB0E0427
:1009500000261DB1D4400023C5E900433146BDE85F
:10096000F08702B9FFDEB2FA82F2002A50D1CB1B27
:100970004FEA174E1FFA87F80126B3FBFEFC210C45
:100980000EFB1C3341EA034108FB0CF38B4207D9F1
:1009900079180CF1FF3002D28B4200F2E9808446D4
:1009A000C91AA3B2B1FBFEF00EFB101143EA0144D9
:1009B00008FB00F8A04507D93C1900F1FF3302D22B
:1009C000A04500F2D9801846A4EB080440EA0C4088
:1009D000BFE78B4209D9002D00F0B1800026C5E9A0
:1009E000000130463146BDE8F087B3FA83F6002EA9
:1009F0004AD18B4202D3824200F2B880841A61EB62
:100A0000030101208C46002DA8D0C5E9004CA5E7C4
:100A1000C2F1200320FA03F6974001FA02F04FEAF0
:100A2000174ED9403043030CB1FBFEF61FFA87F88E
:100A30000EFB161143EA014306FB08F1994204FA42
:100A400002F409D9FB1806F1FF3C80F08D80994231
:100A500040F28A80023E3B445B1A81B2B3FBFEF057
:100A60000EFB103341EA034100FB08F38B4207D928
:100A7000791800F1FF3C73D28B4271D902383944A6
:100A8000CB1A40EA064678E7C6F1200C03FA06F4D2
:100A900022FA0CF31C4320FA0CF701FA06F34FEA92
:100AA000144E21FA0CF11F433B0CB1FBFEF91FFA67
:100AB00084F80EFB191143EA014109FB08FA8A4543
:100AC00002FA06F200FA06F308D9611809F1FF30BC
:100AD00048D28A4546D9A9F102092144A1EB0A016D
:100AE000BFB2B1FBFEF00EFB101147EA014700FB5D
:100AF00008F8B84507D9E71900F1FF312ED2B845FB
:100B00002CD90238274440EA0940A7EB0807A0FB8C
:100B100002894F45C64649461AD317D05DB1B3EB9B
:100B20000E0267EB010707FA0CFCF2404CEA0202E6
:100B3000F740C5E9002700263146BDE8F0872E467C
:100B400028460BE70646E9E61846FDE64345E5D2AA
:100B5000B8EB020E69EB04010138DFE70846D2E783
:100B600060468DE78146B9E7664675E730464AE755
:100B7000ACF1020C394413E702383C4424E700BFCF
:100B8000704700BFF0B5A7B07822002105A814F087
:100B900063F80DF122073C2340F206223C49384617
:100BA00014F096FC3846FFF713FB06463D18394C07
:100BB0000FCCB8516960AA60EB6020682861A288F8
:100BC000A379AA82AB7505A800F00AFD324800F0AF
:100BD000C3FD4FF0FF34002C10DA2F4C04F10C034E
:100BE0000FCB8DE80F0094E80E002C4800F06CFF4E
:100BF00004464FF47A7009F0BDFEECE754BB284878
:100C000006F018FF7822002105A814F025F80DF150
:100C10002207482340F206221D49384614F058FCAA
:100C20003846FFF7D5FA06463D181E4C0FCCB85192
:100C30006960AA60EB6023782B7405A800F0D0FCF3
:100C400008E010F1020F21D0174BCDF892309DF83B
:100C50008E30ABB14FF0FF3223A9062002F03FFCEB
:100C60000028EED1DDF89240002CEDD0BDF89020A8
:100C700021460D4813F0C8FF20460AF083FAE3E747
:100C80000A210A4B186809F0D7FEE3E727B0F0BD48
:100C9000AC600108C060010800FF00207CFD00205E
:100CA0006C360120D8600108180C0020D003012008
:100CB0002DE9F041A0B00C460546D8B101F0F6FC94
:100CC00001F0FAFC2F4A136801331360B3F57A7F01
:100CD00015D000230193009323462A468221FF204A
:100CE00001F0F0FC00284AD0418801F06FFC20B0F0
:100CF000BDE8F0817121244800F094FCDEE74FF05C
:100D000078084246002102A813F0A6FF1F4F7A235D
:100D1000002239460DF1160014F0DAFB0DF1160031
:100D2000FFF756FA06460AF06BFA024618490DF12B
:100D30001603981914F0CCFB02A800F051FC4246AF
:100D4000002102A813F088FF7B2340F206223946D7
:100D50000DF1160014F0BCFB0DF11600FFF738FA88
:100D6000084E234632680B490DF11607384414F03B
:100D7000AFFB02A800F034FC00233360A9E74FF07A
:100D8000FF30B4E70C0C0020EC600108AC600108F7
:100D900030610108386101082DE9F047A0B00D4627
:100DA00016461C460746D8B1FEB101F07FFC01F0A3
:100DB00083FC344A136801331360B3F57A7F19D08A
:100DC000019400962B463A460021084601F07AFC31
:100DD000002854D0291901F0F9FB20B0BDE8F087B4
:100DE0009321294800F01EFCDEE79421264800F0FC
:100DF00019FCDAE74FF0780A5246002102A813F0F6
:100E00002BFFDFF890909E23002249460DF116003B
:100E100014F05EFB0DF11600FFF7DAF980460AF0D8
:100E2000EFF9024619490DF1160303EB080014F01F
:100E30004FFB02A800F0D4FB5246002102A813F099
:100E40000BFF9F2340F2062249460DF1160014F0D5
:100E50003FFB0DF11600FFF7BBF9DFF828802B19D7
:100E6000D8F800200A490DF1160C604414F030FB4C
:100E700002A800F0B5FB0023C8F80030A0E74FF04F
:100E8000FF30AAE7100C0020EC6001083061010877
:100E900038610108AC60010870B582B0154C164E7F
:100EA00040F27E452A463146204613F0ADFE4FF40F
:100EB0007A7300932B4622460021A02000F07CFE8E
:100EC0002A463146204613F091FE58B94FF47A7302
:100ED000009340F27E43074A0021A02000F06CFE00
:100EE00002B070BD4FF47A722946204600F0F4FE3D
:100EF000ECE700BF1CFF002054620108002070478F
:100F00000020704708B50AF03DF9002008BD000038
:100F100000B583B0009393B20A460146044813F02B
:100F200078FC10B903B05DF804FB4FF0FF30F9E72F
:100F30006C98012030B583B00C4615460022009213
:100F400001924FF40041124805F08CFC0A232A4616
:100F500069462046FFF7DCFF68B92A466946204605
:100F600013F052FE01224FF40041094805F07AFCCB
:100F7000002003B030BD012009F0FCFC01224FF439
:100F80000041034805F06EFC4FF0FF30F1E700BF71
:100F900000000240000000002DE9F04182B0002472
:100FA000019401F083FB054601F086FB07462646C7
:100FB000A6B12B029BB2B44A1578B448262101FB96
:100FC00005F142183B4443520A2393700523D37022
:100FD0000D2313710C23537101261AE101A9AC4BA7
:100FE000186800F02DFD04460198C3B200F00F0808
:100FF00010F0F00F02D00136F6B2D9E713F00C0F63
:1010000017D1000AFFF7A8FB9DA3D3E90023FFF740
:1010100037F99D4B1B7808F1040603EBC30203EB81
:1010200042031E44FFF712FC984B03EB4606F08088
:10103000BFE7B8F1040F2ED0B8F1050F43D0B8F1D7
:10104000060F58D0B8F1070F6DD0B8F1080F00F0B7
:101050008280B8F1090F00F09680B8F10A0F00F015
:10106000AA80B8F10B0F00F0BC80000AFFF774FBF8
:1010700083A3D3E90023FFF703F9834B1B78A8F17F
:101080000C08132202FB0388FFF7E0FB7F4B03EB06
:101090004803D8808DE7000AFFF75EFB78A3D3E909
:1010A0000023FFF7EDF8784B1B7808F10B0603EBF4
:1010B000C30203EB42031E44FFF7C8FB734B03EB71
:1010C0004606F08075E7000AFFF746FB6CA3D3E9FC
:1010D0000023FFF7D5F86C4B1B7808F1090603EBEA
:1010E000C30203EB42031E44FFF7B0FB674B03EB65
:1010F0004606F0805DE7000AFFF72EFB60A3D3E908
:101100000023FFF7BDF8604B1B7808F1070603EBDF
:10111000C30203EB42031E44FFF798FB5B4B03EB58
:101120004606F08045E7000AFFF716FB54A3D3E913
:101130000023FFF7A5F8544B1B7808F1050603EBD5
:10114000C30203EB42031E44FFF780FB4F4B03EB4C
:101150004606F0802DE7000AFFF7FEFA48A3D3E920
:101160000023FFF78DF8484B1B7808F1030603EBCB
:10117000C30203EB42031E44FFF768FB434B03EB40
:101180004606F08015E7000AFFF7E6FA3CA3D3E92C
:101190000023FFF775F83C4B1B7808F1010603EBC1
:1011A000C30203EB42031E44FFF750FB374B03EB34
:1011B0004606F080FDE6000AFFF7CEFA30A3D3E939
:1011C0000023FFF75DF8304B1B7808F1FF36132240
:1011D00002FB0366FFF73AFB2C4B03EB4603D88078
:1011E000E7E6000AFFF7B8FA25A3D3E90023FFF7E3
:1011F00047F8254B1B78A8F10306132202FB036670
:10120000FFF724FB214B03EB4603D880D1E60136E0
:10121000F6B2042E26D830461C49262303FB0512BD
:10122000B2F800C003FB06F3CF1821F803C05388BF
:101230007B809388BB8000220F2AE8D8134905EBF6
:10124000C50305EB4303134401EB4303DF8800EBC5
:10125000C00300EB4303134401EB4303DF8001327F
:10126000D2B2E9E7084B00221A700A4B1B689C4275
:1012700001D0084B1C6002B0BDE8F081AFF30080E4
:1012800028B858518369583F080C002040FE0020C0
:101290007CFD0020140C002070B582B001F006FA2D
:1012A00001F00AFA2C4C4FF4FA620021204613F0A8
:1012B000D3FC2A4A938800935388128828492046F1
:1012C00014F006F92046FEF783FF064600240F2C93
:1012D0000ED806EBC405214B03EB4403DB88214AFF
:1012E00008211D48284414F0BFF80134E4B2EEE7A9
:1012F0000023042B0AD81C48262202FB03F2841880
:101300000121815461700B44DBB2F2E7002101E05E
:101310000131C9B20F2915D80023002BF8D103EBF6
:10132000C30203EB42020A440C4800EB4200C588AA
:101330002C0A0D4800EB420204EB0520D08001335B
:10134000DBB2EAE726230093074B002206210120A7
:1013500002F08CF802B070BD1C04002040FE00209A
:10136000586101087C61010880FD0020F0B59FB044
:10137000FFF792FD78220021684613F06DFC0DF115
:101380000E0720230A223649384614F0A1F83846C1
:10139000FEF71EFF06463D18324C0FCCB85169606F
:1013A000AA60EB6003CC2861696123882B836846BF
:1013B00000F016F92C48FEF70BFF3B2847D878229F
:1013C0000021684613F048FC21230A2224490DF12C
:1013D0000E0014F07DF80DF10E00FEF7F9FE224923
:1013E0000DF10E03184414F073F8684600F0F8F895
:1013F0001E48FEF7EDFE3B282DD8782200216846D6
:1014000013F02AFC22230A2215490DF10E0014F0D4
:101410005FF80DF10E00FEF7DBFE14490DF10E032F
:10142000184414F055F8684600F0DAF8104806F051
:10143000CDFA4FF480410F4805F01AFA08210E4802
:1014400005F016FA4FF49D7009F094FAEEE70B4898
:1014500000F0C6F8CCE7094800F0C2F8E6E700BFA4
:10146000AC60010884610108180000200000002021
:10147000B40401200010024000000240A0610108F5
:10148000F0B5A3B07822002101A813F0E5FB0DF11F
:1014900012073A2305222549384614F019F8384630
:1014A000FEF796FE06463D18214C0FCCB8516960F8
:1014B000AA60EB6020682861A288A379AA82AB7534
:1014C00001A800F08DF80BE010F1020F2BD0194BA2
:1014D000CDF882309DF87E30022B17D0032B1AD026
:1014E0004FF0FF321FA9052001F0F9FF0028EBD1D2
:1014F000DDF88240002CEAD0BDF8802021460D485E
:1015000013F082FB204609F03DFEE0E7BE210A48C9
:10151000FFF7CEFBE4E7BDF88030064ABE2106485F
:10152000FFF73AFCDCE723B0F0BD00BFAC60010878
:10153000B0610108240C002040FE0020194B1A4A1B
:101540001268C3F83E20194A1268C3F84220184AAC
:101550001268C3F80220174A1268C3F80620164A18
:101560001268DA60154A12681A61154A1268C3F8DF
:101570001620144A1268C3F81A20134A12681A6215
:10158000124A12685A62124A1268C3F82A20114A93
:101590001268C3F82E20104A12685A630F4A126864
:1015A0009A63704718030020AC0301200404012053
:1015B000D4030120D8030120B8030120E003012057
:1015C000C4030120A8030120FC030120CC03012057
:1015D000DC030120EC030120F4030120F0030120CF
:1015E00010B586B0044605F04FFC02460C4902A82F
:1015F00013F06EFF0E2202A9204613F0CCFF204606
:10160000FEF7E6FDC3B2782B01D906B010BD0090FD
:10161000234600221146022001F028FFF5E700BF13
:10162000C861010870B5B2B006460D4650220021CF
:101630001EA813F011FB2F21304613F0BFFF044604
:1016400078220021684613F007FB5D2300220C4935
:101650000DF10E0013F03CFF0DF10E00FEF7B8FD8A
:101660002B46621C07490DF10E04204413F030FF95
:101670006846FFF7B5FF4FF47A7009F07BF9DAE7B7
:10168000AC600108D4610108024A13680133136099
:10169000704700BF300C002008B528B1012806D0E3
:1016A000022807D0002008BD05F008FCFBE705F084
:1016B0000BFCF8E705F00EFCF5E7000088B3F8B581
:1016C00004460020207060700125A570FFF7E4FF3C
:1016D000C4F803002846FFF7DFFFC4F80700022024
:1016E000FFF7DAFFC4F80B004FF0FF33E373237406
:1016F0006374A374E37423756375A375E37523762C
:101700006376A376074E1B3406F1400735460FCDAE
:1017100020606160A260E3602E461034BD42F5D1C6
:10172000F8BD704734000020014B9888704700BF17
:1017300034000020014B5889704700BF340000205E
:10174000014B9889704700BF34000020014BD889B5
:10175000704700BF3400002070B5064658B13446CB
:10176000074D0FCD0FC42B682360064B73614023D8
:101770003376002070BDB4210348FFF753FFEEE736
:101780003462010874000020EC61010830B40546A1
:1017900088B144688CB100232A7A9A420AD903EBB3
:1017A000430204EB820054F822208A4203D0013322
:1017B000DBB2F1E7002030BC70472046FBE70000B9
:1017C00000B583B00346094A92E8030002AA02E981
:1017D00003003BB108226946186800F0E7F903B03E
:1017E0005DF804FB4FF0FF30F9E700BF48620108E5
:1017F00070B505460221FFF7C9FF064604212846B9
:10180000FFF7C4FF0446B3880322826013F0010F80
:1018100001D00222826013F0400F02D0A36801338E
:10182000A36007212846FFF7B1FF436823F00F03A9
:101830001B041B0C44F6D072934201D0002070BDF3
:10184000A3680133A360F9E710B40446002013E055
:101850004000C0B280F007005B0853B122781A4202
:1018600014BF01220022B2EBD01FF1D14000C0B260
:10187000F2E701340139C9B209B18023EDE75DF81F
:10188000044B704770B582B002460B46204903C92D
:1018900002AC04E90300002A34D01546194610466C
:1018A000FFF774FF014680B3036803F03F038DF830
:1018B0000030426800238C68A34208DAE41A02A8C8
:1018C000044404F8082C12120133DBB2F3E76E7AF9
:1018D0004EB9286896B1A2B2023292B2694600F0BF
:1018E00065F902B070BD611CC9B26846FFF7ACFF74
:1018F000631C02AA134403F8080CEAE7A2B20132FF
:1019000092B2EBE74FF0FF30EBE74FF0FF30E8E744
:10191000A46001080346002029B113F8012B5040B0
:101920000139C9B2F8E7704770B584B004460A4679
:10193000424B93E8030004AD05E903006D4685E8DA
:101940000300002C70D0264611462046FFF71EFFEC
:10195000044600286BD0036803F03F0343F04003C4
:101960008DF808303068737A9BB12289023292B2C6
:1019700002A900F01BF9051E53DB767A012E0CD06C
:101980000020022E24D0002854D1002363600122BD
:1019900044E02289013292B2EAE7236803F03F0370
:1019A00043F040038DF80030334607E004AA1A44A0
:1019B00012F8081C02F8101C0133DBB2A1684A1CA3
:1019C0009A42F3DA0231C9B26846FFF73DFFD8E721
:1019D000236803F03F0343F040038DF800300123F8
:1019E00007E004AA1A4412F8081C02F8101C01337C
:1019F000DBB2A1684A1C9A42F3DA0231C9B26846E6
:101A0000FFF788FFBFE763681B02636004A9114406
:101A100011F8081C0B4463600132D2B2A3689342F0
:101A2000F1DA284604B070BD4FF0FF35F9E74FF00A
:101A3000FF35F6E76FF00105F3E700BFA46001088A
:101A4000A8B1F8B50E46054643689BB10421FFF7DF
:101A50009DFE074688B12846FFF7CAFE04460421CA
:101A60002846FFF761FF20437B683360F8BD4FF0E5
:101A7000FF3070474FF0FF30F8E74FF0FF30F5E7E9
:101A8000C8B110B504464368C3B10221FFF77EFE1A
:101A9000B8B1436813F0080003D00123637200203B
:101AA00010BD13F0040302D002236372F8E7002292
:101AB00062721846F4E74FF0FF3070474FF0FF3086
:101AC000EEE74FF0FF30EBE784B070B5054605ACAC
:101AD00084E80E000C2009F0D7FA0446142009F01F
:101AE000D3FA002C4DD006460A9B63609DF82C303B
:101AF000237220602C6005A9204600F045F8051EE1
:101B000033DB2046FFF75CFE051E2EDB012120465D
:101B1000FFF7B8FE051E28DB02212046FFF7B2FEC4
:101B2000051E22DB2046FFF7ABFF051E1DDB06214D
:101B30002046FFF72BFE054618B94FF0FF3514E09D
:101B40000C3565B12968302909D00729F8D0C9B208
:101B50002046FFF797FE002801DB0C35F1E707214F
:101B60002046FFF7E1FE051E04DB2846BDE8704075
:101B700004B07047204609F005FB304609F002FB2F
:101B8000F3E74FF0FF35F0E751B138B504460D46A5
:101B9000CB681B68984730B92368EA68DA6038BDBB
:101BA0004FF0FF3070474FF0FF30F8E708B5C368DB
:101BB0005B68984708BD00002DE9F04F87B082466A
:101BC0000F4691469846DDF840B000231E46059327
:101BD0001A464FF48071194804F044FE3D4603E074
:101BE0000136F6B2022E1FD807EB08039D421BD226
:101BF00005F03F02EB1BA8EB03041119402901D9A2
:101C0000C2F14004A4B2CDF808B001944B44009353
:101C100010232A4651460A4805F03AFD059000284F
:101C2000DED12544ADB2DDE701224FF480710348D7
:101C300004F018FE059807B0BDE8F08F00080240D8
:101C40000C0401202DE9F04F87B082460F469146E3
:101C50009846DDF840B000231E4605931A464FF41F
:101C600080711B4804F0FEFD3D4611E0A4B2CDF8A2
:101C700008B001944B44009310232A46514615485E
:101C800005F054FC059090B10136F6B2022E14D83E
:101C900007EB08039D4210D205F03F02EB1BA8EBB7
:101CA000030411194029E1D9C2F14004DEE70620FE
:101CB00008F060FE2544ADB2E8E701224FF48071E0
:101CC000034804F0CFFD059807B0BDE8F08F00BFD2
:101CD000000802400C04012000B583B00B460092BE
:101CE00002460021A020FFF7ADFF03B05DF804FB22
:101CF00010B5044638B1A0682369626802FB03038B
:101D0000E068181A10BD4FF4E8710248FFF78AFC2A
:101D1000F1E700BFD466010838B50C46054680B12E
:101D2000EA681119E9606B68934208D82A690AB118
:101D3000013A2A61B1FBF3F203FB1211E9600020C2
:101D400038BD40F2FB110248FFF76CFCE8E700BF2A
:101D5000D46601082DE9F041804616460F4679B158
:101D6000FB6838680021B1420FD2C25C08F801203C
:101D700001337C68B3FBF4F504FB15330131F2E762
:101D8000B9210548FFF74EFCEAE731463846FFF730
:101D9000C3FF0020BDE8F081D46601082DE9F843B7
:101DA0000F4690469946044638B167B1B8F1000F26
:101DB0000FD025683E787F7836E040F211112C482C
:101DC000FFF730FCF1E74FF489712948FFF72AFC4F
:101DD000ECE740F213112648FFF724FCE9E7B9F1DC
:101DE000020F14D0002201339BB2B3FBF1F601FBCA
:101DF00016339BB2EB5C02EB032292B2904231D3DA
:101E00009AB321464046FFF7A5FF002028E00133A2
:101E10009BB2B3FBF1F201FB12339BB2EA5CE2E747
:101E200001212046FFF778FF2046FFF761FF80B2CF
:101E3000E1688BB290B1EA5CB242F1D101339BB25E
:101E40006168B3FBF1F201FB12339BB2EA5CBA4268
:101E5000C5D001212046FFF75FFFE5E76FF00300E3
:101E6000BDE8F8834FF0FF30FAE74FF0FF30F7E7B7
:101E7000D466010870B50D461646044608B1002325
:101E800006E04FF413710D48FFF7CCFBF7E7013381
:101E9000AB4212D22268A068411CA160F15C1154CF
:101EA000A16862689142F2D3002020726072A07231
:101EB000E072206901302061E9E770BDD466010855
:101EC00038B50D46044658B10020691E6DB1234651
:101ED00013F8012B42400548805C0D461C46F4E790
:101EE000C9210348FFF79EFBEEE738BD30670108C4
:101EF0000067010838B50D46044610B1A5B10021B0
:101F00000CE0DC210B48FFF78DFBF7E7234613F8C5
:101F1000012B4A400849895C05461C46681E002D75
:101F2000F4D121B9002038BD4FF0FF30FBE74FF06E
:101F3000FF30F8E7006701083067010830B4044655
:101F400000202070FF2565706160A260E36030BCF6
:101F500070474378FF2B01D00123037070470123A2
:101F60000B7000224A704B6818809A7070470023EB
:101F70000370FF23437070474378FF2B01D001208B
:101F80007047002070472DE9F84305460027077089
:101F90004078FF2870D06C6804EB80044FF0010893
:101FA000FF2023E06B7801336B70C7F30E0324F836
:101FB000043F0023A370012E10D1AB68228853F890
:101FC0002220A37803EB430302EB430932F813709A
:101FD00032F91330002BE5DB0026ECE7EB6853F811
:101FE00027309847FF2806D1FE20B046B8F1010FF0
:101FF00042D14646DFE7FD2805D099F8041099F84C
:102000000500C44625E099F8021099F80300F8E7A6
:102010006B7823B9FF226A709C46984619E0013B11
:102020006B70AB6834F8041D53F82110A37803EBF0
:10203000430301EB43097F2A04D099F8041099F86F
:10204000050006E099F8021099F8030001E0C44683
:10205000B046B8F1010F0DD101F07F02A2F17E036D
:10206000DBB2012BD4D9A27011F0800FEFD1B446AE
:10207000B046EEE76646B8E7BDE8F88308B50378F2
:10208000012B01D0FF2008BDFFF77DFFFBE720B14A
:1020900008B509F077F8002008BD6FF0050070471B
:1020A00012490A688B68C3EB032313444A689342BE
:1020B00000D1704710B50C46531C4B60023201EB47
:1020C00082025068FFF7E3FF6268FE2A0CD9A3681A
:1020D0000BB1013BA360064BA3FB0213DB09C3EB6F
:1020E0000323D31A014A536010BD00BF400C0020E7
:1020F0008180808030B59FB0224D2C68AB68C3EBE7
:1021000003231C446B68E41A78220021684612F00D
:10211000A3FD40F25D2300221B490DF10E0013F0D8
:10212000D7F90DF10E00FEF753F8AB6822461749B8
:102130000DF10E05284413F0CBF96846FFF750FA6D
:1021400009E0134BA3FB0213DB09C3EB0323D31AF0
:102150000C4A53602C46651E94B10A4C63685A1CA5
:102160006260023304EB83035868FFF790FF6268F4
:10217000FE2AEFD9A368002BE3D0013BA360E0E780
:102180001FB030BD400C0020AC6001083C68010865
:1021900081808080F8B5184D44F6246200212846DD
:1021A00012F05AFD154F42F21074224600213846B3
:1021B00012F052FD124E22460021304612F04CFD24
:1021C000104B1D6044F620625A600F480268D368C5
:1021D00043F01003D3600D4D2A68D36843F0100319
:1021E000D3602246394606F02BFB2246314628466C
:1021F00006F026FBF8BD00BF0000001014380020D8
:1022000048100020003800209C390120E0390120CE
:1022100008B50146064B1B6800225A6042F2107254
:10222000044806F00DFB00B908BD4FF0FF30FBE796
:102230003C3901209C39012008B50146064B1B683A
:1022400000225A6042F21072044806F0F9FA00B90E
:1022500008BD4FF0FF30FBE71C380120E0390120BA
:1022600038B50C46054688B10B2323801048FFF78C
:102270003FFD6B88032B13D00DD8022B04D82246C8
:102280000C490B4801F0C2F8002038BDE8210A488B
:10229000FFF7C8F9E8E7042BF6D1FFF701FFF3E7F2
:1022A00022460449D5F8060001F0B0F8ECE700BF7B
:1022B00000380020A43700205C68010810B50446EF
:1022C000FFF747FE2046FFF7D9FEFF2803D0034B58
:1022D00033F8100010BD4FF0FF30FBE73068010805
:1022E00010B5042903D90A48FFF7E8FF10BD0446DA
:1022F0000748FFF741FE012806D00A2CF3D804490D
:102300002046FFF72CFEEEE70148FFF730FEF4E72A
:1023100074370020F0B5A1B00024ADF87E402B4802
:10232000FFF7CCF9FFF736FF7822214601A812F01B
:1023300093FC0DF112077A2303222549384613F046
:10234000C7F83846FDF744FF06463D18214C0FCC30
:10235000B8516960AA60EB6020682861A388AB82ED
:1023600001A8FFF73DF91C4B1C4A1D491D48FFF70A
:10237000E5FD05244FF0FF320BE01B4884780DF19A
:102380007E01FFF76DFF2146BDF87E00FFF7A8FF35
:1023900002461549032001F0A2F888B9124BD3F880
:1023A0000640002CE9D01D46104E9A882146304642
:1023B00012F02AFC204608F0E5FEC5F80660DCE7CE
:1023C00010F1020FDFD10624DDE700BFA4370020A3
:1023D000AC600108886801083069010804690108D7
:1023E0008437002074370020340C00206037002030
:1023F0001A4B1B681B6813F0100F00D1704710B503
:1024000084B0164C204605F0F7FE154B1B68596842
:102410000023039323681A6803925B680393039B6A
:10242000C1F51C511031092912D80E4C42F210721C
:102430000021204612F010FC00230093012203210A
:10244000084601F013F82046FFF7E2FE04B010BD85
:10245000044A0548FFF70EFDE7E700BF9C3901205D
:102460003C39012014380020003800201A4B1B682A
:102470001B6813F0100F00D1704710B584B0164CD4
:10248000204605F0B9FE154B1B68596800230393DD
:1024900023681A6803925B680393039BC1F51C5180
:1024A0001031092912D80E4C42F210720021204638
:1024B00012F0D2FB0022009213460321084600F0DE
:1024C000D5FF2046FFF7B8FE04B010BD044A05480A
:1024D000FFF7D0FCE7E700BFE03901201C380120FE
:1024E000481000200038002000285ED02DE9F0417F
:1024F0009EB0044621B96FF005001EB0BDE8F08122
:102500008AB201462C4805F029FE054600284FD125
:102510002A4A1368591C1160B3F57A7F02D04FF034
:10252000FF30EAE74FF0780842460021684612F093
:1025300093FB234F4FF4DF73002239460DF10E0059
:1025400012F0C6FF0DF10E00FDF742FE064608F040
:1025500057FE02461B490DF10E03981912F0B8FF01
:102560006846FFF73DF842460021684612F074FBCA
:1025700040F2BF13032239460DF10E0012F0A8FFFE
:102580000DF10E00FDF724FE2B46227A0E490DF1C7
:102590000E04204412F09CFF6846FFF721F8074B19
:1025A00000221A604FF0FF30A7E76FF00500704778
:1025B0004FF0FF30A1E700BFE0390120583700207D
:1025C000AC60010830610108A0680108002859D0FA
:1025D0002DE9F0419EB00446002956D08AB201464A
:1025E0002D4805F0BBFD0546002851D12B4A136844
:1025F000591C1160B3F57A7F03D000201EB0BDE8EE
:10260000F0814FF0780842460021684612F024FB22
:10261000234F40F2DF13002239460DF10E0012F075
:1026200057FF0DF10E00FDF7D3FD064608F0E8FD5B
:1026300002461C490DF10E03981912F049FF684635
:10264000FEF7CEFF42460021684612F005FB4FF42C
:10265000F073032239460DF10E0012F039FF0DF12F
:102660000E00FDF7B5FD2B46227A0F490DF10E0441
:10267000204412F02DFF6846FEF7B2FF0020074B02
:102680001860BBE76FF0050070476FF00500B5E715
:102690004FF0FF30B2E700BF9C3901205C370020CB
:1026A000AC60010830610108C4680108014B18786A
:1026B000704700BFA4370020014B9878704700BFD7
:1026C000A43700202DE9F04F83B081468846174695
:1026D0001E460D9DFFF7EAFF8346FFF7EDFF0190D1
:1026E000324BD3F808A0BAF1000F18D170190A3094
:1026F00008F0CAFC044628B1B8F1000F02D0B9F1C5
:10270000000F10D1002C47D05DB30C9B53B305F1E3
:10271000FF3A52461946204612F076FA22E0FFF7B9
:10272000E9FC002438E0272303704423437006F1BA
:102730000A039DB24380019B43EA0B2BA0F804B02F
:10274000A0F8069080F8088032463946093012F029
:102750005BFA691E2046FFF7B3FB6388013BE05438
:1027600010E0AA463246394604EB0A0012F04CFA51
:102770003544A9B2658001392046FFF7A1FB638883
:10278000013BE054094B1A68511C1960023203EBFB
:1027900082035C60FF2903D0204603B0BDE8F08FC0
:1027A000024B00221A6001229A60F5E7400C0020DB
:1027B000704710B584B0044605F0EAFF8DF80F00AD
:1027C00094F83D3013F0200F01D104B010BD002368
:1027D000009304220321084600F048FEF5E70000BC
:1027E00010B59EB0044678220021684612F034FAF3
:1027F00040F2312303220A490DF10E0012F068FE67
:102800000DF10E00FDF7E4FC226C06490DF10E03FC
:10281000184412F05DFE6846FEF7E2FE1EB010BDE1
:10282000AC600108E86801080023032B13D830B41A
:10283000047A1D46084A32F82320144205D1013398
:102840009BB2032BF4D930BC7047034B03EB8505D7
:102850006B880B80F7E77047B46A010830B5A1B008
:1028600005460C46002935D0B5F809302380237879
:102870000133237063780133637000230193009365
:102880005B2322468121FF20FFF71CFF054638B35A
:102890007822002102A812F0DFF940F296430322C9
:1028A00011490DF1160012F013FE0DF11600FDF79F
:1028B0008FFC637822780D490DF11604204412F044
:1028C00007FE02A8FEF78CFE69882846FFF77EFE09
:1028D00021B030BD40F287410548FEF7A3FEC3E7B3
:1028E0004FF0FF30F4E700BFAC600108F069010869
:1028F000C069010870B403881B0A02460B492624EC
:1029000004FB03132030166855689468D1681E6074
:102910005D609C60D960103210338242F3D111683F
:10292000196092889A8070BC704700BF00650020D3
:1029300070B50E46054690B1BDB1E6B1002495F8DC
:10294000D035A3421DD35B2000FB04500C2231463E
:10295000033012F04BF9B0B10134E4B2EFE740F2CA
:102960000F510A48FEF75EFEE6E74FF4A261074802
:10297000FEF758FEE1E740F211510448FEF752FE1F
:10298000DCE7002070BD4FF0FF30FBE7C0690108B5
:10299000F0B59FB00E4615460446002843D0002CE3
:1029A00047D0002E4BD094F8D035102B71D80F2B78
:1029B0004BD85A1CD2B284F8D0255B2303FB0242C9
:1029C00037687068B168C2F80370C2F80700C2F8CF
:1029D0000B1094F8D02503FB02F31833234405F1C0
:1029E0001B02033305F15B0C176856689068D168C9
:1029F0001F605E609860D960103210336245F3D179
:102A000094F8D0152A785B2303FB01F3E618E2540F
:102A10006B787370AB78B37004F036FAC6F81300B5
:102A200000201FB0F0BD4FF4A6612C48FEF7FAFD60
:102A3000B5E740F231512948FEF7F4FDB1E740F225
:102A400032512648FEF7EEFDADE7782200216846B8
:102A500012F002F90DF10E074FF4A763032220498B
:102A6000384612F035FD3846FDF7B2FB06463D18F4
:102A70001C4C0FCCB8516960AA60EB6003CC286194
:102A8000696123782B766846FEF7AAFD4FF0FF3088
:102A9000C7E778220021684612F0DEF80DF10E0734
:102AA00040F2455303220E49384612F011FD3846D4
:102AB000FDF78EFB06463D180A4C0FCCB8516960F5
:102AC000AA60EB6003CC2861696123782B766846A5
:102AD000FEF786FD4FF0FF30A3E700BFC069010895
:102AE000AC6001080C6A01082DE9F041A0B00C4669
:102AF0001546064650B17CB131462046FFF718FF17
:102B0000074678B1384620B0BDE8F08140F2EE418A
:102B10002948FEF787FDEEE740F2EF412648FEF731
:102B200081FDE9E72A4631462046FFF731FF074697
:102B300000283DD14FF078084246002102A812F04B
:102B40008BF81E4D40F2F943032229460DF1160081
:102B500012F0BEFC0DF11600FDF73AFBB3680093CE
:102B60007368326816490DF11606304412F0B0FC55
:102B700002A8FEF735FD4246002102A812F06CF8CB
:102B800040F2FB43032229460DF1160012F0A0FC8F
:102B90000DF11600FDF71CFB94F8D02509490DF145
:102BA0001603184412F094FC02A8FEF719FDA9E7D9
:102BB0004FF0FF37A6E700BFC0690108AC6001080D
:102BC000286A0108386A010830B585B00C46054608
:102BD00098B1C4B122466B4652F8030F516892680F
:102BE00007C3224629466846FFF77EFF8DF80F008F
:102BF0009DF80F0040B205B030BD40F2C34105481A
:102C0000FEF710FDE5E740F2C4410248FEF70AFD79
:102C1000E0E700BFC0690108FD20704710B5FFF76D
:102C200045FD0446FFF748FD094B1A68D188127A22
:102C3000230243F008031BB20B401BB223B112F076
:102C4000800F03D1FD2010BDFE20FCE7FE20FAE737
:102C5000245F0020FD207047F0B583B00E4D2B6837
:102C600003F109065F88FFF721FD0446FFF724FD05
:102C70002B68DB88240244F0FF04A34202D0FE202C
:102C800003B0F0BD0097334604220321052000F075
:102C9000EDFBFD20F4E700BF245F00207047704784
:102CA00038B5084B1D68FFF701FD0446FFF704FD2A
:102CB000EB88A4B2B4EB132F01D1FD2038BDFE2068
:102CC000FCE700BF245F00207047704770477047E3
:102CD000FD20704770B5A0B01B4B1B681C7AFFF736
:102CE000E5FCFFF7E9FC032C02D0FE2020B070BD0C
:102CF0007822002102A811F0AFFF0DF1160640F274
:102D0000B91303221149304612F0E2FB3046FDF7B9
:102D10005FFA054634180E4B07CB70516160A26014
:102D20001A889B78A281A37302A8FEF759FC00239E
:102D3000019300935B23074A12688321FF20FFF76A
:102D4000C1FCFD20D2E700BF245F0020AC60010879
:102D5000546A01086067002010B582B0FFF7A6FC36
:102D60000446FFF7A9FC094B1B68DA88A4B2B4EB50
:102D7000122F02D0FE2002B010BD002200920321CB
:102D8000012000F073FBFD20F5E700BF245F002069
:102D90001B4B1B68197ADA884FF6FF739A422DD1C4
:102DA000012901D0FE20704770B59EB07822002125
:102DB000684611F051FF0DF10E064FF4F773032230
:102DC0001049304612F084FB3046FDF701FA054603
:102DD00034180D4B07CB70516160A2601A889B7844
:102DE000A281A3736846FEF7FBFB084B1968044BEE
:102DF0001868FFF733FDFD201EB070BDFE20704740
:102E0000245F0020AC600108646A0108606700204C
:102E100008B5FFF74BFC074B1968CB8880B2B0EBC5
:102E2000132F01D0FE2008BD09310348FFF7CCFE67
:102E3000FD20F8E7245F00202C5F002008B5054B3B
:102E400018684188FFF756F808B9FD2008BDFE2034
:102E5000FCE700BF245F002038B5084B1D68FFF772
:102E600025FC0446FFF728FCEB88A4B2B4EB132F33
:102E700001D1FD2038BDFE20FCE700BF245F00200B
:102E80002DE9F04782B06A4C4FF4FA6200212046E7
:102E900011F0E2FE674B1B68B3F802A0AAF10A0A20
:102EA00000263746B146B04688E000230F2B0AD8EB
:102EB00005EB4302D1880A0A02EB012224F8022B17
:102EC0000133DBB2F2E708F1260873E012F07CFA76
:102ED00000F00F07002113E005EB8103D3F8063063
:102EE000FA18130203F47F0303EB0263100A00F4E1
:102EF0007F40034403EB126344F8043B0131C9B241
:102F00000729E9D9B9F1030F02D809F1010951E004
:102F100008F126084FF000094CE000230F2B0AD8D7
:102F200005EB4302D1880A0A02EB012224F8022BA6
:102F30000133DBB2F2E7B9F1030F02D809F101095D
:102F400038E008F126084FF0000933E000230F2B8A
:102F50000AD805EB4302D1880A0A02EB012224F8C1
:102F6000022B0133DBB2F2E7B9F1030F02D809F10A
:102F700001091FE008F126084FF000091AE005EBEF
:102F80008103D3F80630FA18130203F47F0303EB2E
:102F90000263100A00F47F40034403EB126344F819
:102FA000043B0131C9B20729E9D9B9F1030F2CD883
:102FB00009F10109042E2DD00136F6B2D04533D2E5
:102FC0001C4B1D68093545442846FFF793FC2A88A9
:102FD000130A03EB022323806A88130A03EB0223FC
:102FE0006380AA88130A03EB0223A38006342B888C
:102FF000DBB2012B3FF459AF102B3FF467AF022B2C
:103000008BD0082BA2D00021CDE708F126084FF085
:103010000009CFE7BE230093054B002203210120C6
:1030200000F024FA0026C9E7FD2002B0BDE8F087D1
:10303000244E0010245F00202DE9F04F85B0744E1F
:103040004FF4FA620021304611F006FE714B1B6806
:103050005B88A3F10A0B4FF00008CDF80880C24648
:10306000C1469EE000270F2F0CD805EBC70004EBEC
:103070004703DB88684A0821304412F0F5F901372C
:10308000FFB2F0E78035029B2B4402932E4409F1F6
:1030900026097FE012F098F900F00F030027CDF821
:1030A0000C90994613E007EB470005EB800004EB1A
:1030B0008703D3F8062009EB07031343574A0C2173
:1030C000DFF84CC1604412F0CFF90137FFB2072F8F
:1030D000E9D9DDF80C90BAF1030F02D80AF1010A20
:1030E00058E009F126094FF0000A53E00027039643
:1030F0000F2F0DD805EBC70004EB4703DB88484AC8
:103100000821434E304412F0AFF90137FFB2EFE728
:10311000039EBAF1030F02D80AF1010A3AE009F15D
:1031200026094FF0000A35E0002703960F2F0DD82F
:1031300005EBC70004EB4703DB88394A0821344E0E
:10314000304412F091F90137FFB2EFE7039EBAF174
:10315000030F02D80AF1010A1CE009F126094FF019
:10316000000A17E007EB470005EB800004EB87033C
:10317000D3F80630294A0C21DFF894C0604412F0DD
:1031800073F90137FFB2072FECD9BAF1030F2BD82F
:103190000AF1010AB8F1040F2BD008F101085FFA17
:1031A00088F8D94530D21B4B1C6809344C44204662
:1031B000FFF7A0FB22886388A18800911949304657
:1031C00012F086F93046FDF703F805462388DBB296
:1031D000012B3FF447AF102B3FF45CAF022B85D09F
:1031E000082BA1D00027CEE709F126094FF0000AED
:1031F000D0E7029B0093064B00220321012000F040
:1032000035F94FF00008CCE7FD2005B0BDE8F08FA0
:10321000244E0010245F0020746A01087C6A0108B3
:103220007C61010858610108074B1B68DA881B7A2A
:1032300012F0FF0F04D013F0800F03D0FD20704771
:10324000FE207047FE207047245F0020FD2070475D
:10325000FD20704700B585B00023ADF80E300B4B54
:103260001B685B88ADF80E30094B1868FEF740FD0F
:10327000092803D8FD2005B05DF804FB0023009366
:1032800002220321084600F0F1F8F3E7245F002052
:10329000285F0020FD207047FD20704710B582B0E8
:1032A000084B1C686388002001900090224601466C
:1032B000FFF708FA10B16188FFF716F9FD2002B098
:1032C00010BD00BF245F002010B582B0084B1C6801
:1032D000638800200190009022460146FFF7F2F932
:1032E00010B16188FFF772F9FD2002B010BD00BF78
:1032F000245F002000B583B0064B1B685A880092FB
:1033000003221146052000F0B1F8FD2003B05DF85E
:1033100004FB00BF245F002008B5FFF7C7F9FFF7E3
:10332000CBF9054B1B6893F90830002B01DBFD201E
:1033300008BDFE20FCE700BF245F0020FD20704791
:10334000044B1B6893F90830002B01DAFD2070470D
:10335000FE207047245F0020FD20704700B583B039
:10336000064B1B685A88009209330222032105206C
:1033700000F07CF8FD2003B05DF804FB245F002022
:10338000054B1A68537A012B03D9013B5372FD2078
:103390007047FE20704700BF245F002010B5A0B02A
:1033A0000023019300935B23154A126801214FF615
:1033B000FF70FFF787F900B304467822002102A8C6
:1033C00011F04AFC4FF4886303220E490DF11600F8
:1033D00012F07EF80DF11600FCF7FAFEE388227A6F
:1033E00009490DF1160C604412F072F802A8FEF7BC
:1033F000F7F861882046FFF777F8FD2020B010BD70
:1034000060670020AC600108886A010870B582B06E
:103410000E46154644F22743ADF80430084B1860B9
:10342000084C0223224601A9FEF7B8FC064B1C609B
:10343000064B1E6029462046FFF7F6F902B070BD24
:10344000285F0020F4550010245F002060670020F2
:10345000082807D800EB8000034B03EB4000D0F8AE
:103460000600704700207047180300202DE9F04344
:1034700085B00D46144698460C9EFFF7E9FF58B3F9
:103480008146ADF80450ADF8064076B90023ADF89A
:103490000A30ADF80C30ADF80830484607F04FFD63
:1034A00090B9384605B0BDE8F083304607F0ECFD32
:1034B00004460028EAD03246414611F0A5FBCDF87B
:1034C0000A40ADF80860E8E700231A4601A948461B
:1034D00007F0A4FC0746E4E76FF00507E1E770B5E5
:1034E00082B00C461546FFF7B3FF58B1064607F009
:1034F00019FD01902B4600222146304607F0D0FCF2
:1035000002B070BD6FF00500FAE7000010B5044688
:10351000FEF71FFD2046FEF7B1FDFF2803D0034B49
:1035200033F8100010BD4FF0FF30FBE730680108A2
:1035300010B50848FEF720FD38B9064C2146FEF7C5
:103540000EFD2046FFF7E2FF10BD0248FFF7DEFF49
:10355000FAE700BF6C77002008B501221146034846
:1035600003F080F901F022F8FD2008BD00080240B8
:103570002DE9F0419EB0FEF7D7F8724B93F8313049
:1035800013F0040F03D1FE201EB0BDE8F081064603
:103590006C480FF053FA00221146202009F016FA69
:1035A000694A1060002800F0A8807822002168464F
:1035B00011F052FB0DF10E084FF4A973002263497C
:1035C000404611F085FF4046FCF702FE074608EB37
:1035D00000055F4C0FCC48F807006960AA60EB60FB
:1035E00003CC2861696123882B836846FDF7F8FFC7
:1035F000554CB2B25749206809F066FA23680A228E
:103600001A62002852D178220021684611F024FB6A
:103610000DF10E0740F2571300224C49384611F0C5
:1036200057FF3846FCF7D4FD06463D184A4C0FCCF0
:10363000B8516960AA60EB60206828616846FDF7B0
:10364000CFFF464B01225A70454A9179D3791B042A
:1036500043EA0163117A43EA0123517A0B431A02C8
:1036600002F47F0242EA0162190A01F47F410A432F
:1036700042EA13633B4A13603B4A117853781B04B8
:1036800043EA0163917843EA0123D1780B431A029C
:1036900002F47F0242EA0162190A01F47F410A43FF
:1036A00042EA1363314A1360FD206DE7782200215E
:1036B000684611F0D1FA0DF10E0740F261130022B5
:1036C0002249384611F004FF3846FCF781FD0646D2
:1036D0003D18274C0FCCB8516960AA60EB6003CC51
:1036E0002861696123782B766846FDF779FF164BD0
:1036F000186809F0D9F9FE2046E7782200216846CB
:1037000011F0AAFA0DF10E074FF4B37300220F491E
:10371000384611F0DDFE3846FCF75AFD06463D18E6
:10372000144C0FCCB8516960AA60EB6003CC2861DF
:1037300069612288A3782A83AB766846FDF750FF3B
:10374000FE2021E7F0040120A4030120AC60010861
:10375000006C0108349901081C6C010864670020A2
:10376000340000209C03012090030020A0030120CE
:10377000306C01084C6C010808B50C4B5B78012BD0
:1037800001D1FD2008BD03F07FFBB0F5FA6F02D335
:10379000074B1B780BB9FE20F4E7064B186807F0BF
:1037A000B1FA034A1378013B1370F4E76467002011
:1037B00094030020C803012000B583B00B4B1868A8
:1037C00007F0C9F80A4B1B7853B9002100910B464A
:1037D0000A460620FFF74AFEFD2003B05DF804FB11
:1037E000044B186807F08EFAEFE700BFD4030120FE
:1037F00094030020C80301202DE9F04FA9B0002157
:103800000F91602210A811F027FA234B1B681BB9F7
:10381000FD2029B0BDE8F08F204CA579E679277A04
:1038200094F80980FDF78CFF0B90FDF783FF0C9057
:10383000FDF78CFF0D9094F8009094F801A094F897
:1038400002B0E478FDF770FF09900894CDF81CB041
:10385000CDF818A0CDF814900D9B04930C9B039306
:103860000B9B0293CDF80480009733462A460C49FF
:103870000FA811F02DFE0FA8FCF7AAFC0446FDF7D7
:103880005FFF83B2074A21460FA800F085FA024A7B
:103890001368013B1360BBE798030020340000204D
:1038A000686C0108A003012008B5054B054A0649CC
:1038B0000648FEF743FBFFF73BFE07F05BF8FAE72D
:1038C000AC6D0108A46D01087C7700206C770020A6
:1038D000F0B5A5B07822002103A811F0BDF90DF1D3
:1038E0001A076F2300225749384611F0F1FD384678
:1038F000FCF76EFC06463D18534C0FCCB85169607E
:10390000AA60EB6003CC2861696123882B8303A83C
:10391000FDF766FE18E010F1020F00F09080DDF870
:103920008A404A49204611F05DFE30B315230093CA
:10393000474B012204211046FFF798FD4FF47A709F
:1039400007F018F803F068FA4FF0FF3221A90420BD
:10395000FFF7C5FD0028DED1DDF88A40002CDED05F
:103960003C4DBDF888202146284611F04DF92046EF
:1039700007F008FCCDF88A50D1E73749204611F00E
:1039800031FE38B100230093022204210720FFF703
:103990006DFDD9E73149204611F024FE38B10023EE
:1039A0000093012204210720FFF760FDCCE72C499A
:1039B000204611F017FE38B10023009303220421A2
:1039C0000720FFF753FDBFE72649204611F00AFE06
:1039D00038B100230093042211460720FFF746FD6B
:1039E000B2E72149204611F0FDFD48B1BDF888300D
:1039F00000932346052204210720FFF737FDA3E7A4
:103A00001A49204611F0EEFD48B1BDF88830009308
:103A10002346062204210720FFF728FD94E71449D6
:103A2000204611F0DFFD00288ED0BDF888300093CD
:103A30002346072204211046FFF718FD84E725B02E
:103A4000F0BD00BFAC600108C46C0108E06C010867
:103A5000E46D010868670020E86C0108F06C01085B
:103A6000F86C0108046D01080C6D0108146D010863
:103A70001C6D0108F0B5A3B04FF0FF31254B18685D
:103A800007F00CF97822002101A811F0E5F80DF1FA
:103A90001207A72300222049384611F019FD3846A5
:103AA000FCF796FB06463D181C4C0FCCB8516960DC
:103AB000AA60EB6007CC28616961AA6123782B7743
:103AC00001A8FDF78DFD07E0BDF88010144800F057
:103AD00037F90A2006F04EFF4FF0FF321FA90220EF
:103AE000FFF7FDFC80B9DDF88240002CECD00C4DD6
:103AF000BDF880202146284611F086F8204607F0C0
:103B000041FBCDF88250DFE710F1020FE1D123B085
:103B1000F0BD00BFC8030120AC600108246D01089E
:103B2000CC670020F0B5A5B07822002103A811F0E1
:103B300093F80DF11A07C92300223649384611F0CF
:103B4000C7FC3846FCF744FB06463D18324C0FCC08
:103B5000B8516960AA60EB6003CC28616961237881
:103B60002B7603A8FDF73CFD1CE07822002103A87A
:103B700011F072F80DF11A07D723002225493846B3
:103B800011F0A6FC3846FCF723FB06463D18234CF3
:103B90000FCCB8516960AA60EB6023882B8203A820
:103BA000FDF71EFD22A91E4B186809F0DFF800285A
:103BB000F8D10DF1860223A9229808F081FE002891
:103BC000D3D17822002103A811F046F8D123002296
:103BD00010490DF11A0011F07BFC0DF11A00FCF7F1
:103BE000F7FABDF886200F490DF11A03184411F0B9
:103BF0006FFC03A8FDF7F4FCBDF886300093239B0F
:103C0000002211460420FFF731FC229808F019FE2B
:103C1000C8E700BFAC600108446D0108746D01087D
:103C2000A4030120606D0108F0B5A3B07822002143
:103C300001A811F011F80DF11207E923002226491D
:103C4000384611F045FC3846FCF7C2FA06463D18E6
:103C5000224C0FCCB8516960AA60EB6003CC28619C
:103C6000696123782B7601A8FDF7BAFC022404E0F1
:103C70009DF87E40F4B1012C23D04FF0FF321FA9F4
:103C80000120FFF72CFC80B9DDF88240002CEFD03A
:103C9000134DBDF880202146284610F0B5FF204680
:103CA00007F070FACDF88250E2E710F1020FE1D18F
:103CB00023B0F0BDBDF88010DDF8820000F014F8EC
:103CC000DBE741F29233074ABDF88010DDF882004D
:103CD00000F062F8D1E700BFAC600108886D010810
:103CE0009C6F00209C030120114B5B78012B1BD1A2
:103CF00070B506460C4608F097FD0E4D2860A1B23F
:103D000008F0B0FD2C6823685E600B4B1E68FDF761
:103D100011FD83B2094A2146304608F019FF286890
:103D200008F08FFD002070BD4FF0FF30704700BFDE
:103D3000646700209C770020A40301209C030120DD
:103D4000114B5B78012B1BD170B506460C4608F071
:103D50006BFD0E4D2860A1B208F084FD2C6823682D
:103D60005E600B4B1E68FDF7EBFC83B2094A2146EF
:103D7000304608F0EDFE286808F063FD002070BDB5
:103D80004FF0FF30704700BF64670020A07700202D
:103D9000A40301209C0301202DE9F0411446104AA0
:103DA0005278012A19D1074688461E4608F03CFD84
:103DB0000C4D28601FFA88F108F054FD29680B6843
:103DC0005F60334622460848006808F0C1FE286854
:103DD00008F037FD0020BDE8F0814FF0FF30FAE732
:103DE00064670020A4770020A403012030B595B0BB
:103DF0003022002108A810F02FFF0024039404941F
:103E000005940694079401941C4B1A6C42F080525E
:103E10001A641B6C03F080530193019B0294184BAE
:103E20001A6842F480421A601B6803F480430293CC
:103E3000029B092308934FF48033099301230D93C8
:103E400002250E954FF480030F9304231093A822AC
:103E500011921295139308A802F0C4F80F2303934C
:103E6000049505944FF4A05306934FF480530793A1
:103E7000052103A802F018FB15B030BD0038024040
:103E80000070004008B502F0D9FFFFF7AFFF00F067
:103E90003BF800F025F900F075FB00F0E3FF00F0BF
:103EA000B3FA01F007F800F037FF00F0FFFE00F072
:103EB000A1FF00F069FF01F025F800F0C3FA10F04F
:103EC00013FB01F00FF901F029F906F09FFC00F057
:103ED00057F906F0ADFCFEE710B504460268074B43
:103EE0009A4204D02268064B9A4203D010BD02F0D9
:103EF000BFFFF7E70020FDF74FF8F7E700000140AC
:103F000000080040704700002DE9F04F8DB00024FC
:103F10000794089409940A940B9401946A4B1A6BC1
:103F200042F010021A631A6B02F010020192019A19
:103F300002941A6B42F004021A631A6B02F0040234
:103F40000292029A03941A6B42F080021A631A6B6F
:103F500002F080020392039A04941A6B42F0010269
:103F60001A631A6B02F001020492049A05941A6B08
:103F700042F002021A631A6B02F002020592059ADD
:103F800006941A6B42F008021A631B6B03F00803D5
:103F90000693069BDFF838B1224640F201115846DD
:103FA00002F060FCDFF82CA1224648F208015046DE
:103FB00002F058FC454F22462221384602F052FCBE
:103FC000DFF8149122464FF48041484602F04AFC43
:103FD000DFF8088122468021404602F043FC4BF680
:103FE000FF73079303250895099407A9484602F033
:103FF0004FFB4EF20C0307930895099407A9584606
:1040000002F046FB40F2011307930126089609943B
:104010000A9507A9584602F03BFB41F67103079346
:104020000895099407A9504602F032FB48F20803AC
:104030000793089609940A9507A9504602F028FBB1
:104040004CF21D6307930895099407A9384602F0BE
:104050001FFB22230793089609940A9407A9384660
:1040600002F016FB4FF480430793089609940A94D4
:1040700007A9484602F00CFB4FF67F73079308959B
:10408000099407A9404602F003FB80230793089692
:1040900009940A9407A9404602F0FAFA4FF4807393
:1040A00007934FF444130893099407A9384602F084
:1040B000EFFA22460521172002F06CFE172002F0CD
:1040C0009DFE0DB0BDE8F08F0038024000040240B4
:1040D000000802400000024000100240000C0240B4
:1040E00010B582B000240094224B1A6B42F4800277
:1040F0001A631A6B02F480020092009A01941A6B00
:1041000042F400121A631B6B03F400130193019B2A
:10411000224605210B2002F03DFE0B2002F06EFE30
:1041200022460521102002F035FE102002F066FE26
:1041300022460521392002F02DFE392002F05EFED4
:10414000224605213A2002F025FE3A2002F056FED2
:1041500022460521452002F01DFE452002F04EFEBC
:1041600022460521462002F015FE462002F046FEBA
:1041700002B010BD003802407047002070470000B8
:1041800038B5634806F094FC624D2860624806F03A
:104190008FFC624C20604FF0FF31286806F0D2FCA3
:1041A0004FF0FF31206806F0CDFC5D4A0121084642
:1041B00006F01AFD5B4D28605B4A0221084606F0B6
:1041C00013FD5A4C20604FF0FF31286806F0BAFC0E
:1041D0004FF0FF31206806F0B5FC554B002201215D
:1041E000544806F0D5FB544B1860544B0022012173
:1041F000534806F0CDFB534B1860534B002201216E
:10420000524806F0C5FB524B1860524A0A21084634
:1042100006F0B9FD504B1860504A0A21052006F0FF
:10422000B2FD4F4B18604F4A0A21142006F0ABFD37
:104230004D4B18604D4A0A21052006F0A4FD4C4B59
:1042400018604C4A0A21052006F09DFD4A4B186073
:104250004A4A0A21052006F096FD494B1860494A52
:104260000A21052006F08FFD474B1860474A0A21B6
:10427000052006F088FD464B1860464A0021464856
:1042800006F0FCFA454B1860454A0021454806F007
:10429000F5FA454B1860454A0021454806F0EEFA0C
:1042A000444B1860444A0021444806F0E7FA444C65
:1042B0002060444A0021444806F0E0FA434B18606D
:1042C000434A0021434806F0D9FA434B1860434A59
:1042D0000021434806F0D2FA424B1860424A0021BE
:1042E000424806F0CBFA424B1860424A002142484D
:1042F00006F0C4FA414B1860FDF720F9206806F07B
:104300001BFB3F4806F0B2FB3E4B186038BD00BFB8
:1043100020700108C803012030700108E803012063
:1043200024710108F803012034710108E40301201D
:104330004471010889160008B003012000700108CB
:10434000990F0008BC0301201070010899120008A1
:10435000D003012064700108CC030120AC70010877
:10436000EC030120C4700108A8030120DC700108DF
:10437000D80301207C70010804040120F4700108B6
:10438000E003012094700108B40301200C710108BE
:10439000F0030120DC6F01086D1300080804012000
:1043A000A86F0108A9380008C0030120846F010824
:1043B000850B0008AC03012078710108253B00083B
:1043C000D40301209C710108293C0008B803012096
:1043D00054710108753A0008C4030120606F010898
:1043E00015230008FC03012040700108D1380008A3
:1043F000DC030120C071010881140008F4030120CE
:10440000CC6F01080004012008B50B480B4B03607A
:104410000B4B436000238360C3604FF48042026112
:1044200043618361C361036202F0A2FF00B908BD6A
:10443000FFF768FDFBE700BF600401200054004067
:10444000A086010008B50B480B4B03600B4B436083
:1044500000238360C3604FF4804202614361836143
:10446000C361036202F084FF00B908BDFFF74AFD93
:10447000FBE700BF0C040120005C0040A0860100A7
:104480002DE9F0418AB00023059306930793089322
:1044900009930368354A934205D0354A934227D0A1
:1044A0000AB0BDE8F08100250095324C236B43F043
:1044B00002032363236B03F002030093009BC023DA
:1044C00005931223069301230793032308930423E0
:1044D000099305A9284802F0DBF80195236C43F401
:1044E00000132364236C03F400130193019BD7E7AB
:1044F000002502951F4C236B43F004032363236BB9
:1045000003F004030293029B0395236B43F0010322
:104510002363236B03F001030393039B4FF40073A6
:1045200005934FF01208CDF81880079503270897D8
:104530000426099605A9114802F0AAF84FF48073E1
:104540000593CDF8188007950897099605A90C489A
:1045500002F09EF80495236C43F400032364236C5B
:1045600003F400030493049B9AE700BF0054004047
:10457000005C004000380240000402400008024095
:104580000000024008B50748074B0360062343605C
:104590004FF48073836003F0EDF900B908BDFFF7B5
:1045A000B1FCFBE7B40401200030004070B584B0DA
:1045B000504B1A78504E32705A7872709A78B270A6
:1045C000DA78F2701A7C4D4D2A705A7C6A709A7CA7
:1045D000AA70DA7CEA701A7D494C22705A7D6270AA
:1045E0009A7DA270DB7DE3700021084607F080F918
:1045F000327873781B0443EA0263B27843EA0223F9
:10460000F1780B431A0202F47F0242EA0162190AAE
:1046100001F47F410A4342EA13633A490B602A7866
:104620006B781B0443EA0263AA7843EA0223E87822
:1046300003431A0202F47F0242EA0062180A00F4FD
:104640007F40024342EA13632F4A13602078637865
:104650001B0443EA0063A07843EA0023E478234381
:10466000180200F47F0040EA04601C0A04F47F444E
:10467000204340EA1360254B1860254C25480290E2
:10468000254801900020009020460EF03FF920467A
:104690000EF0CEF994F8313013F0040F26D02046F6
:1046A0000EF0CCF91A4D1D4928460EF051FA0022A1
:1046B0000121084606F098FA194B1860194C25603C
:1046C0006060194D20220021284610F0C5FA2A1FEB
:1046D000164B45F8043C4FF48063536110239361FB
:1046E0002146134806F0CAF804B070BD08480EF021
:1046F000C7F9D7E734000020300501202C05012040
:10470000C8040120280501203405012038050120B6
:10471000F00401204DB80008454B0008E54B0008A7
:10472000A8770020C0040120D0040120E471010812
:10473000954B00082DE9F047334801F041F9002876
:104740005ED1314B998FD3F8408079B94FF0000A90
:104750002D4B1B6B00212C4A926B8A423BD91A6865
:1047600042F000421A60DB680131F4E74FF4C17295
:104770000DF0A0FD82460028EAD0234B1F6B814636
:10478000002421E0D9F80400C4F5BE62043208EB2D
:104790000401304410F038FAFF68D7F80880A5F219
:1047A000F452361B06F2F4560024A51840F2F453D6
:1047B0009D42E7D8D9F8040008EB0401304410F01A
:1047C00023FAD9F800902C46B9F1000FC0D0B9F8FF
:1047D0000A200026E9E70C4B00229A631B6841F28D
:1047E00014029A5812F0800F07D041F2140280216F
:1047F000995041F20802002199505046BDE8F087D7
:104800004FF0000AF9E700BF0C1E012038B505463D
:104810004FF0FF310E4B186806F040FA0028F7D130
:1048200007E020460DF0DEFC0A480FF02EFE002CBB
:10483000EED008480FF022FE2846FFF77BFF044623
:104840000028F1D02B69294698470028ECD0E8E7EA
:10485000AC770020B03A01202DE9F84F8B462C4B65
:10486000DE6AD6F808A000242746BBF1000F32D03C
:104870003368002B35DBBBF80A90002504EB0908F0
:1048800040F2F453984519D9DBF80410C4F5BE6220
:10489000043229440AEB040010F0B6F9F6683368D4
:1048A000002B21DBD6F808A0A8F2F4592D1B05F245
:1048B000F4553F1B07F2F4570024DFE7DBF8041040
:1048C0004A4629440AEB040010F09EF94F44DBF8F5
:1048D00000B04446C9E739460D4800F0E1FF00202A
:1048E00004E06FF0070001E06FF00700084B1B6861
:1048F00041F214029A5812F0200F07D041F214022C
:104900002021995041F2040200219950BDE8F88F0E
:104910000C1E012030B58DB004463C483C4B036072
:10492000012242604FF4804383604FF40063C36010
:104930000023038201A941618261C3614FF4000336
:104940000362344B1A7E8DF804205A7E8DF80520C0
:104950009A7E8DF80620DA7E8DF807201A7F8DF872
:1049600008205B7F8DF8093001F034F928B994F8FC
:10497000313043F0040384F83130244D0423264AB7
:104980002649284600F01AFF0423254A25492846CF
:1049900000F04EFF062384F830306B691A7884F8F3
:1049A0002A205A7884F82B209A7884F82C20DA78F8
:1049B00084F82D201A7984F82E205B7984F82F3022
:1049C00040F2DC53238594F8313043F00A0384F835
:1049D000313000220121084606F006F9124B18601A
:1049E0002022002104A810F037F9104B03934FF454
:1049F000AF7308933023099303AA21460C4805F0AE
:104A00003DFF284601F012FA0DB030BD0C1E01200A
:104A10000080024034000020541E01203C0501208B
:104A2000BC0501208C1D0120AC770020EC71010831
:104A30000D480008F0B58DB0002307930893099343
:104A40000A930B930268374B9A4201D00DB0F0BD28
:104A500000240194A3F590431A6B42F000721A638C
:104A60001A6B02F000720192019A02941A6B42F0E2
:104A700080621A631A6B02F080620292029A0394B7
:104A80001A6B42F000621A631A6B02F00062039222
:104A9000039A04941A6B42F004021A631A6B02F030
:104AA00004020492049A05941A6B42F001021A63FC
:104AB0001A6B02F001020592059A06941A6B42F0F5
:104AC00002021A631B6B03F002030693069B322358
:104AD000079302270897099403260A960B250B953E
:104AE00007A9114801F0D4FD86230793089709947C
:104AF0000A960B9507A90D4801F0CAFD4FF46053C3
:104B00000793089709940A960B9507A9084801F09E
:104B1000BFFD224605213D2002F03CF93D2002F078
:104B20006DF993E700800240000802400000024057
:104B30000004024008B5024B186806F0E3F808BD0F
:104B4000AC77002010B5044670B1732384F832307E
:104B5000742384F83330084B6361084BA36120460B
:104B6000FFF7D8FE002010BD054B4FF40B7205492E
:104B7000054810F011FCE8E72537010859480008FE
:104B8000F4710108087201081872010808B502F0F2
:104B90007BF908BD10B582B004460023019306E0FE
:104BA00012F0040F00D0B3B1C82005F0E3FE01AA53
:104BB00001210A4800F098FF019B03F004030193D0
:104BC000206890F8312012F0040FE9D1002BE7D0D3
:104BD0000DF07CFFE8E70DF09DFFE5E70C1E0120DE
:104BE0007047000030B583B0044600230193009362
:104BF00090F8313013F0040F51D02B4B5B68002B31
:104C000035D04FF480520021274800F0A9FF02F070
:104C10003BF901906A460121234800F065FF02F04C
:104C200033F9019BC31AB3F57A7F20D8009B13F0A8
:104C3000200FEFD06A4610211B4800F055FF009B63
:104C400013F0040F0AD0184A4FF40061D16013F03A
:104C5000020F07D0144B00229A6013E0124A002181
:104C6000D160F4E7104B4FF480429A600AE00E489E
:104C7000C268C2F3CF028368C3F34F031A43002113
:104C800000F06EFF084D0021284601F013F9284678
:104C900001F0CCF82046FFF7A3FF03B030BD024877
:104CA00001F0E6F8F6E700BF0C1E012000B587B062
:104CB00000230293039304930593009301931548F3
:104CC0004FF08042026053224260836040F2E7323C
:104CD000C2600361836103F017F890B94FF4805309
:104CE000029302A90B4803F047F868B90023009328
:104CF00001936946074803F0BFF840B907B05DF873
:104D000004FBFFF7FFF8E9E7FFF7FCF8EEE7FFF732
:104D1000F9F8F3E78C37012000B587B00023029340
:104D2000039304930593009301931548154A026079
:104D300048F23F32426083604FF6FE72C260036108
:104D4000836102F0E1FF90B94FF48053029302A90E
:104D50000B4803F011F868B90023009301936946EA
:104D6000074803F089F840B907B05DF804FBFFF786
:104D7000C9F8E9E7FFF7C6F8EEE7FFF7C3F8F3E78E
:104D8000FC3601200004004000B587B000230293E8
:104D9000039304930593009301931448144A02600B
:104DA0002A2242608360FA22C2600361836102F0BA
:104DB000ABFF90B94FF48053029302A90B4802F065
:104DC000DBFF68B90023009301936946074803F0AD
:104DD00053F840B907B05DF804FBFFF793F8E9E733
:104DE000FFF790F8EEE7FFF78DF8F3E76C36012058
:104DF0000008004000B587B000230293039304939A
:104E00000593009301931548154A026045F2072265
:104E10004260836040F69F72C2600361836102F06A
:104E200073FF90B94FF48053029302A90B4802F02C
:104E3000A3FF68B90023009301936946074803F074
:104E40001BF840B907B05DF804FBFFF75BF8E9E732
:104E5000FFF758F8EEE7FFF755F8F3E7B43601200F
:104E6000000C004000B583B00023009301930F486D
:104E70000F4A02605322426083603123C360802363
:104E8000836102F041FF50B900230093019369460A
:104E9000064802F0F1FF28B903B05DF804FBFFF704
:104EA00031F8F1E7FFF72EF8F6E700BF44370120AD
:104EB0000010004000B583B00023009301930F4819
:104EC0000F4A026048F23F32426083604FF6FE7242
:104ED000C260836102F018FF50B900230093019370
:104EE0006946064802F0C8FF28B903B05DF804FB24
:104EF000FFF708F8F1E7FFF705F8F6E7D4370120E8
:104F00000014004000B587B000230293039304937C
:104F10000593009301931648164A026048F23F3207
:104F2000426083604FF6FE72C26003614361836139
:104F300002F0EAFE90B94FF48053029302A90C48A4
:104F400002F01AFF68B900230093019369460848EC
:104F500002F092FF40B907B05DF804FBFEF7D2FF04
:104F6000E9E7FEF7CFFFEEE7FEF7CCFFF3E700BF80
:104F7000243601200004014000B589B00368B3F174
:104F8000804F14D0504A934226D0504A934237D093
:104F90004F4A934248D04F4A934259D04E4A934287
:104FA0006AD04E4A93427BD009B05DF804FB0022E0
:104FB000019203F50E33196C41F0010119641B6C69
:104FC00003F001030193019B05211C2001F0E2FE87
:104FD0001C2001F013FFE7E700220292404B196CFE
:104FE00041F0020119641B6C03F002030293029B5F
:104FF00005211D2001F0CEFE1D2001F0FFFED3E7AC
:1050000000220392364B196C41F0040119641B6CA9
:1050100003F004030393039B05211E2001F0BAFE55
:105020001E2001F0EBFEBFE7002204922C4B196C0E
:1050300041F0080119641B6C03F008030493049BFE
:105040000521322001F0A6FE322001F0D7FEABE7A9
:1050500000220592224B196C41F0100119641B6C5F
:1050600003F010030593059B0521362001F092FE05
:10507000362001F0C3FE97E700220692184B196C08
:1050800041F0200119641B6C03F020030693069B7A
:105090000521372001F07EFE372001F0AFFE83E7C7
:1050A000002207920E4B596C41F0020159645B6C6F
:1050B00003F002030793079B05212E2001F06AFEEF
:1050C0002E2001F09BFE6FE7000400400008004026
:1050D000000C00400010004000140040000401409B
:1050E0000038024008B50A480A4B03600A4B436087
:1050F00000238360C36003610C2242618361C3614A
:1051000002F0FCFF00B908BDFEF7FCFEFBE700BFA4
:105110009C39012000100140C0C62D0008B50A4886
:105120000A4B03600A4B436000238360C360036142
:105130000C2242618361C36102F0E0FF00B908BD47
:10514000FEF7E0FEFBE700BFE0390120001401405C
:10515000C0C62D0030B58BB00446002305930693DE
:105160000793089309930368684A934204D0684AF6
:10517000934266D00BB030BD00250195654B5A6C4B
:1051800042F010025A645A6C02F010020192019A25
:1051900002951A6B42F001021A631B6B03F00103C4
:1051A0000293029B4FF4C063059302230693079575
:1051B000032308930723099305A9574801F068FAC8
:1051C0005648574B03604FF0006343608560C560ED
:1051D0004FF48063036145618561C5614FF400331D
:1051E0000362456201F0DCFB28BB4C4BA3639C636C
:1051F0004C484D4B03604FF0006343604023836095
:105200000023C3604FF48062026143618361C36124
:105210004FF400320262436201F0C2FB70B9414BAD
:1052200063639C6300220521252001F0B3FD252046
:1052300001F0E4FD9EE7FEF765FED6E7FEF762FEAD
:10524000EDE700250395334B5A6C42F020025A6477
:105250005A6C02F020020392039A04951A6B42F0F2
:1052600004021A631B6B03F004030493049BC02322
:1052700005930223069307950323089308230993B4
:1052800005A92A4801F004FA29482A4B03604FF087
:10529000206343608560C5604FF4806303614561AE
:1052A0008561C5614FF400330362456201F078FB0C
:1052B00028BB1F4BA3639C631F48204B03604FF028
:1052C00020634360402383600023C3604FF4806207
:1052D000026143618361C3614FF400320262436241
:1052E00001F05EFB70B9144B63639C6300220521DF
:1052F000472001F04FFD472001F080FD3AE7FEF71F
:1053000001FED6E7FEF7FEFDEDE700BF001001400D
:105310000014014000380240000002403C390120E6
:10532000406402407C380120B8640240000802401A
:105330001C38012028640240DC380120A0640240AF
:105340007047FEE7FEE7FEE7FEE7704708B5024854
:1053500001F01EFC08BD00BF2499012008B50248D9
:1053600001F016FC08BD00BFC498012008B54FF439
:10537000807001F087FA08BD08B5024802F0A2FB70
:1053800008BD00BF243A012008B5024802F09AFB8C
:1053900008BD00BF8C37012008B5024802F092FB1F
:1053A00008BD00BFFC36012008B5024802F08AFBA8
:1053B00008BD00BF6C36012008B5034803F050F863
:1053C000FDF716F808BD00BF9C39012008B502485A
:1053D00002F078FB08BD00BF2436012008B5024862
:1053E00002F070FB08BD00BFB436012008B50248CA
:1053F00002F068FB08BD00BF4437012008B5024831
:1054000002F060FB08BD00BFD437012008B5024898
:1054100001F0BEFB08BD00BF1C38012008B50248E2
:1054200001F0B6FB08BD00BF3C39012008B50248B9
:1054300000F014FB08BD00BF0C1E012008B5024897
:1054400001F0A6FB08BD00BFDC38012008B502480A
:1054500001F09EFB08BD00BF7C38012008B5034861
:1054600002F0FEFFFDF702F808BD00BFE0390120A1
:1054700000B583B0002200920D4B596C41F480417D
:105480005964596C01F48041009100990192196CA2
:1054900041F0805119641B6C03F080530193019B10
:1054A0000F216FF0010001F075FC03B05DF804FB03
:1054B0000038024010B588B001460022192001F0E2
:1054C00069FC192001F09AFC00240194144B5A6CD9
:1054D00042F001025A645B6C03F001030193019BEB
:1054E00002A903A801F0B6F801F0A4F843000D48A2
:1054F000A0FB03239B0C013B0B480C4A026040F2CB
:10550000E732C26043600461846002F0FDFB10B1C9
:10551000012008B010BD044802F08CFAF9E700BF82
:105520000038024083DE1B43243A01200000014082
:105530005079137943EA002307480B50D0789378C9
:105540001B0443EA0063507843EA002312781343B4
:10555000024A8B50704700BF4080024044800240A6
:10556000016841F218028B5843F400538B50704786
:10557000016841F218028B5823F400538B50704796
:10558000016841F218028B5843F002038B507047B8
:10559000016841F218028B5823F002038B507047C8
:1055A00082B0084B1B68084AA2FB03235B0A00FB7E
:1055B00003F3019300BF019B5A1E0192002BF9D106
:1055C00002B07047A4030020D34D621010B582B022
:1055D0000446002301930268136843F00803136034
:1055E00003681B6801930120FFF7DAFF2368019A23
:1055F0001A6002B010BD10B582B0044600230193BA
:105600000268136843F00403136003681B68019386
:105610000120FFF7C5FF2368019A1A6002B010BD90
:1056200030B583B0044600230193026841F21805A7
:10563000535943F48013535103685B59019301207C
:10564000FFF7AEFF2368019A5A5103B030BD10B581
:1056500082B00446002301930268136823F0040318
:10566000136003681B6801930120FFF799FF23680B
:10567000019A1A6002B010BD10B582B00446002332
:1056800001930268136823F00803136003681B6822
:1056900001930120FFF784FF2368019A1A6002B08A
:1056A00010BD000070B59EB0044629B14FF40063F0
:1056B000C3604FF480438360E369002B6AD14FF4E9
:1056C0008063079321680B68394A1A40A368E06831
:1056D00003430798034343F4007313430B602368A9
:1056E0001D68012001F0D6FB23681D60236840225D
:1056F0005A6023685D68012001F0CCFB23685D607F
:10570000236800259D602368DD602268936923F08B
:10571000BE031B041B0C43F08003936123689E6946
:10572000012001F0B7FB23689E612368DD612368D7
:10573000DD69012001F0AEFB2368DD61226841F2E2
:10574000180551591B4B0B4043F0087343F00403F9
:10575000535123685E59012001F09CFB23685E5180
:10576000236803F58053144A1A60236803F58053B5
:105770001D68012001F08EFB236803F580531D6036
:10578000A369012B09D0626900212046FFF7D0FEF2
:105790001EB070BD0023079394E7216841F21C02FC
:1057A0008B5843F4803343F040038B50EBE700BF4A
:1057B0000F8120FF233FDEF88020C102F0B490F873
:1057C0004540012C32D0012480F84540022480F865
:1057D0004440C162002401E0F16001349C4218D2CF
:1057E000670101EB44164FF48015CD5140F2F4559A
:1057F00005FB0425B560C5691DB9CD5945F44005C3
:10580000CD515D1EA542E7D9651C01EB4515F5603C
:10581000E3E7026841F21003D150012380F84430DD
:10582000002380F845301846F0BC70470220FBE7A3
:10583000F0B490F84540012C2FD0012480F8454069
:10584000022480F844408162002401E0E9600134D0
:105850009C4215D2660101EB44154FF000478F5171
:1058600044F2F4566E6040F2F45606FB0426AE6035
:105870005E1EA642EAD9661C01EB4616EE60E6E71C
:10588000026841F20C03D150012380F84430002318
:1058900080F845301846F0BC70470220FBE7000056
:1058A00090F84530012B00F08580012380F84530C9
:1058B000022380F84430B1B1C36A1A68002A1ADBA7
:1058C00030B440F2F45291421DD93B4CA4FB012468
:1058D000A40A40F2F45202FB141202B10134012C6A
:1058E00011D0002348E0012380F84430002280F8E2
:1058F000452018467047122380F84430002380F872
:105900004530012070471A6842F040521A60C36A5D
:10591000C1F30C015960C26A136843F0004313607D
:10592000C36ADB68C362036841F214029A5812F03A
:10593000040F08D041F2140204219950026841F288
:1059400004030021D150012380F84430002380F863
:105950004530184630BC7047C26A40F2F455556075
:10596000621E9A4217D0C56A2A6842F000422A6035
:10597000C26AD268C26201339C42D4D9C56A2A681D
:1059800022F040522A60002BE6D1C56A2A6842F014
:1059900080522A60E0E7C56A2A6842F000522A6015
:1059A000064A02FB041202F2F452C56AC2F30C0268
:1059B0006A60D8E7022070470BB002AC0CFAFFFF18
:1059C00090F84530012B45D0012380F84530022363
:1059D00080F84430002104E0036301228263DB6825
:1059E0008362836A1A68002A2CDB03292AD80131D2
:1059F0001A6802F44072B2F5007FEDD01A6812F412
:105A0000407F05D1826B01328263DB688362E8E705
:105A10004363826B01328263012A11D01A68C2F398
:105A20000D42043AC263026B92680264DB688362CF
:105A3000012380F84430002380F845301846704731
:105A40000363EBE7012380F84430002280F845200F
:105A500018467047022070477047704710B50446DB
:105A6000036841F214029A5812F0400F11D141F22A
:105A700014029B5813F0010F19D1226841F214034C
:105A80004FF48031D1502268D35813F4004F1BD10A
:105A900010BDFFF74FF8226841F214034021D150A6
:105AA000012384F84430002384F84530E5E7FFF70C
:105AB000D3FF2168012341F214028B5084F8443053
:105AC000002384F84530D8E72046FFF7C6FF226858
:105AD00041F214034FF40041D150012384F84430C3
