:020000040800F2
:10000000000002207D730108757C0008777C0008E1
:10001000797C00087B7C00087D7C000800000000E3
:10002000000000000000000000000000F1DB0008FC
:100030007F7C00080000000091DC000825D100084A
:10004000CD730108CD730108CD730108CD7301088C
:10005000CD730108CD730108CD730108CD7301087C
:10006000CD730108CD730108CD730108817C0008B0
:10007000CD730108CD730108CD730108CD7301085C
:10008000917C0008CD730108CD730108CD73010880
:10009000CD730108CD730108CD730108A17C000860
:1000A000CD730108AD7C0008CD730108CD73010844
:1000B000BD7C0008CD7C0008DD7C0008CD73010804
:1000C000CD730108CD730108CD730108CD7301080C
:1000D000CD730108ED7C0008CD730108CD730108D4
:1000E000CD730108CD730108CD730108CD730108EC
:1000F000CD730108CD730108017D0008CD7301089F
:10010000CD730108CD730108117D0008CD7301087E
:10011000CD730108CD730108217D0008317D0008F1
:10012000CD730108417D0008517D0008CD730108A1
:10013000CD730108617D0008CD730108CD730108FE
:10014000CD730108CD730108CD730108CD7301088B
:10015000CD730108717D0008817D0008917D000844
:10016000CD730108CD730108CD730108CD7301086B
:10017000CD730108CD730108CD73010800000000A4
:08018000CD730108CD730108E5
:1001C0000348044B834202D0034B03B118477047E6
:1001D0001C0400201C040020000000000548064903
:1001E0000B1AD90F01EBA301491002D0034B03B145
:1001F000184770471C0400201C0400200000000069
:1002000010B5064C237843B9FFF7DAFF044B13B15E
:100210000448AFF300800123237010BDEC0B0020D5
:1002200000000000D073010808B5044B1BB104495D
:100230000448AFF30080BDE80840CFE700000000AD
:10024000F00B0020D07301080CB400B583B004ABF0
:1002500053F8042B019300F045FB03B05DF804EB69
:1002600002B070470EB410B583B005AB064C53F81E
:10027000042B01930146206800F034FB03B0BDE875
:10028000104003B0704700BF0000002070B50D4E55
:100290000D4D761BB61006D00024013455F8043BF2
:1002A0009847A642F9D1094E094D761B17F090F8F0
:1002B000B61006D00024013455F8043B9847A642F6
:1002C000F9D170BD38B2010838B201083CB201085A
:1002D00038B2010870B50C46B1F90E10002996B07D
:1002E00016461D4613DB6A4601F01CFE00280EDB95
:1002F000019A02F47042A2F50052B2FA82F2520957
:100300004FF4806300202A60336016B070BDA3896B
:1003100000221B062A6004D540230020336016B05B
:1003200070BD4FF480630020336016B070BD00BF15
:100330008A8992070B4606D501F1470201211A600E
:10034000C3E90421704770B582B001AB6A460C4620
:100350000646FFF7BFFF00990546304600F01AFA3F
:10036000B4F90C3070B11649B162019A009920605D
:1003700043F08003A381C4E904018AB92B43A3811C
:1003800002B070BD9A05FBD423F0030304F14702C9
:1003900043F002030121A3812260C4E90421EFE7B5
:1003A0003046B4F90E1001F0A5FF10B9B4F90C30C5
:1003B000E4E7A38923F0030343F001031BB2DDE765
:1003C000191D0008024B0146186800F0E3B900BF90
:1003D00000000020024B0146186800F085B900BFFC
:1003E00000000020032A70B412D940EA0105AD07CD
:1003F00004460B4620D11946204653F8045B54F8B6
:10040000046BAE4218D1043A032A20461946F2D8AA
:10041000541E72B103780A789A4208BF241806D095
:100420000CE010F8013F11F8012F934206D1A042D1
:10043000F7D1002070BC7047541EEBE7981A70BCCF
:10044000704700BF844641EA000313F003036DD1F7
:10045000403A41D351F8043B40F8043B51F8043B87
:1004600040F8043B51F8043B40F8043B51F8043B8E
:1004700040F8043B51F8043B40F8043B51F8043B7E
:1004800040F8043B51F8043B40F8043B51F8043B6E
:1004900040F8043B51F8043B40F8043B51F8043B5E
:1004A00040F8043B51F8043B40F8043B51F8043B4E
:1004B00040F8043B51F8043B40F8043B51F8043B3E
:1004C00040F8043B51F8043B40F8043B51F8043B2E
:1004D00040F8043B403ABDD2303211D351F8043BCE
:1004E00040F8043B51F8043B40F8043B51F8043B0E
:1004F00040F8043B51F8043B40F8043B103AEDD27D
:100500000C3205D351F8043B40F8043B043AF9D2CD
:10051000043208D0D2071CBF11F8013B00F8013BA0
:1005200001D30B8803806046704700BF082A13D3AD
:100530008B078DD010F003038AD0C3F10403D21AC5
:10054000DB071CBF11F8013B00F8013B80D331F8F9
:10055000023B20F8023B7BE7043AD9D3013A11F879
:10056000013B00F8013BF9D20B7803704B784370E4
:100570008B788370604670478842F0B40DD98B1831
:1005800083420AD9841832B1224613F8014D02F889
:10059000014D9942F9D1F0BC70470F2A0ED803469D
:1005A000541E002AF7D001340C44013B11F8012BF2
:1005B00003F8012FA142F9D1F0BC704740EA0103D2
:1005C0009B073BD1A2F110073F0901F1200606EB82
:1005D000071601F1100300F1100453F8105C44F801
:1005E000105C53F80C5C44F80C5C53F8085C44F85D
:1005F000085C53F8045C44F8045C1033B34204F123
:100600001004EAD17B1C1B0112F00C0F194402F0FC
:100610000F05034415D0043DAD0803EB850C1C1FEA
:100620000E4656F8047B44F8047F6445F9D1013541
:10063000AD002B44294402F00302B1E7541E0346E7
:10064000B1E72A46ACE700BFF0B4860746D0541E97
:10065000002A3CD0CAB2034602E014F1FF3436D37C
:1006600003F8012B9D07F8D1032C29D9CDB245EA17
:1006700005250F2C45EA054533D9A4F110063609A6
:1006800003F1200707EB061703F1100242E90455B6
:1006900042E902551032BA42F8D1721C14F00C0F24
:1006A00003EB021204F00F0613D0331F23F00303F1
:1006B0000433134442F8045B9342FBD106F0030475
:1006C0002CB1C9B21C4403F8011B9C42FBD1F0BC05
:1006D000704734461346002CF3D1F8E7144603461E
:1006E000C2E71A462646E0E700293CD038B551F863
:1006F000043C0C1F002BB8BFE418054601F078FE3F
:10070000234B1A682AB1A2420DD92168601882428F
:1007100023D0626028461C60BDE8384001F06ABE04
:10072000A34203D81A465368002BF9D11168501818
:10073000A04219D024D821686018834206D0636093
:1007400054602846BDE8384001F054BED3E90003A8
:100750000144636021605460F3E7D2E90002014480
:1007600062602160D6E770472068014450188342D8
:100770001160E6D1D3E90003014453601160E0E762
:100780000C232B602846BDE8384001F033BE00BF83
:10079000080C0020F8B5CD1C25F0030508350C2DFC
:1007A00038BF0C25002D064633DBA94231D82A4F2D
:1007B00001F01EFE3A6852B113685B1B04D43FE09F
:1007C00023685B1B29D522465468002CF8D1796830
:1007D00000293BD02946304600F082FC431C28D03B
:1007E000C41C24F00304A04205D0211A304600F0B6
:1007F00077FC01301DD02560304601F0FBFD04F18F
:100800000B0020F00700231DC21A01D01B1AA350B1
:10081000F8BD0C2232600020F8BD0B2B05D8A24297
:10082000636811D05360E7E7144623601C442560D9
:10083000E2E70C233046336001F0DCFD0020F8BD18
:100840000B2BF1D8536814463B60D5E7304600F0D7
:1008500047FC7860BEE700BF080C00209368013BAE
:10086000002B936011DA10B49469A34209DB0A29C2
:1008700007D01368581C1060197008465DF8044BC7
:1008800070475DF8044B01F041B81368581C1060C4
:1008900019700846704700BF9BB1F8B513440F4666
:1008A00006465D1E541E01E0AC4208D03A4614F8DC
:1008B000011F3046FFF7D2FF431CF5D1F8BD0020E1
:1008C000F8BD0020704700BF936810B5144613B9F7
:1008D0005360184610BD01F039FB0023C4E9013311
:1008E00010BD00BF2DE9F04F9FB08B4690461C46CF
:1008F000039018B18369002B00F0B780A24B9B4591
:1009000000F0B980A14B9B4500F0C780A04B9B45F0
:1009100004BF039BD3F80CB0BBF80C30180740F1B0
:10092000B280DBF81030002B00F0AD8030238DF862
:10093000323098F800300594002120220B918DF878
:100940003120944E0127002B00F08780252B00F0EA
:100950001581454603E0252B00F0A38025466B78E2
:100960006C1C002BF7D1B4EB080A76D042465346F4
:1009700059460398FFF790FF01306ED00B9B6A78C1
:1009800053440B93002A68D000234FF0FF32013408
:100990000693CDE908338DF85B301C93079205E090
:1009A000069A07FA03F313432C46069325460522BD
:1009B00015F8011B304601F0CBFCAA46831B00282A
:1009C000EED1069BD90644BF20228DF85B2021780A
:1009D0001A0744BF2B228DF85B202A2966D1059A7D
:1009E0001168043200290592C0F29D800991617856
:1009F000A51C2E2973D0684C0322204601F0A8FCC8
:100A0000002800F08680001B069B402404FA00F0BA
:100A10000343069305F10108297860488DF83010EA
:100A2000062201F095FC002800F083805C4B002B2F
:100A300072D005AB00935A465A4B039806A9AFF300
:100A400000808146B9F1FF3F07D00B9B4B440B93CD
:100A500098F80030002B7FF479AFBBF80C305B06C0
:100A600018D40B981FB0BDE8F08F01F03BFA464B4D
:100A70009B457FF447AF039BD3F804B0BBF80C3021
:100A800018073FF54EAF5946039800F0B5FF002810
:100A90003FF44CAF4FF0FF30E4E7039BD3F808B0CE
:100AA0003AE7B4EB080A3FF46FAF5FE7A1F1300219
:100AB000092A88BFA2469CD8099B01E02C46013533
:100AC000297803EB830302EB4303A1F13002092AE7
:100AD000AA46F3D92E2904F1020509938BD19AF87D
:100AE00001102A292FD1059B9AF802101A68079243
:100AF0000433002A05930AF103050AF1020338DBE7
:100B0000254C032220469A4601F022FC00287FF45F
:100B10007AAFA84655467FE7059B073323F00703C6
:100B20000833059391E7494243F002030991069384
:100B30005DE705AB00935A461A4B039806A900F0EF
:100B4000D5F881467EE7A1F130020023092A0793F8
:100B500001D915E05546697803EB830302EB4303A3
:100B6000A1F13002092A05F1010AF3D902350793F0
:100B700041E74FF0FF329A4607923CE7444603E7CD
:100B8000AA46013537E700BF347401081474010820
:100B9000F473010868B1010870B1010874B101086B
:100BA000000000009908000810B4044C13460A46DF
:100BB000014620685DF8044BFFF794BE000000205A
:100BC0002DE9F0470C4691460A698968DDF82080D6
:100BD0008A42B8BF0A46C9F8002094F84310064676
:100BE0001F4611B10132C9F80020236899065CD56F
:100BF000D9F800200232C9F80020236813F0060F4C
:100C000019461DD1E1688A1A002AD8BF194617DD96
:100C100004F1190A002505E0E368D9F800209B1AC1
:100C2000AB420CDD0123524639463046C047013005
:100C300005F10105F0D14FF0FF30BDE8F0872168E4
:100C400094F84330003318BF01238A060AD5E1180F
:100C50005A1C302081F84300224494F8451082F851
:100C60004310023304F1430239463046C047013095
:100C7000E1D02368A268216903F00603042B1DD08C
:100C80008A4226DD4FF00009521A91441A34002599
:100C900001E04D451DDA0123224639463046C04762
:100CA000013005F10105F4D1C5E713F0060F13D0AB
:100CB00094F84330003318BF0123D3E7D9F800007C
:100CC000E3688A42A3EB000323EAE379DCDC002B30
:100CD000DCDC0020BDE8F087E168D9F800208A1A42
:100CE000002AD8BF194693DCAAE700BF2DE9F043DC
:100CF0000C46097E85B06E29064617460C98984624
:100D000004F1430E6DD039D9732900F0F68044D92F
:100D1000752900F00481782940F011817823226838
:100D2000DFF858C284F845300168150651F8043BD5
:100D3000016040F1A180D10744BF42F0200222604F
:100D4000002B00F093801022002184F8431060688B
:100D5000A0600028C0F2C880216821F00401216051
:100D6000002B40F0A380002840F0C0807546082A80
:100D700000F0AC80AEEB0503236141E0632900F095
:100D8000E5801AD8002938D0582940F0D88084F856
:100D900045102268DFF8E8C1C6E76F2900F0BF8080
:100DA000702940F0CC802268DFF8D0C142F02002E8
:100DB0007823226084F84530B6E7642902D0692997
:100DC00040F0BD8022680368110603F1040557D581
:100DD000196805600B46002959DBDFF8A4C10A2217
:100DE000B5E70368226861691D1D056015061B686B
:100DF00002D4500600F1BD801960002375462361BE
:100E0000CDF800803B4603AA21463046FFF7D8FEC6
:100E1000013020D02A46236939463046C047013088
:100E200019D022680398E368920719D51A1A002A84
:100E300016DD04F11909002504E0E36803981A1A85
:100E4000AA420DDD01234A4639463046C0470130EB
:100E500005F10105F1D14FF0FF3005B0BDE8F08399
:100E60009842B8BF184605B0BDE8F083226822F06A
:100E700020022260102267E7500648BF9BB25AE763
:100E80005106A5D5B3F9003005601946A3E761689E
:100E9000A1602D200029C3F1000384F8430002DB88
:100EA00022F004022260DFF8D8C00A22754600E072
:100EB0000B46B3FBF2F102FB113093421CF8000029
:100EC00005F8010DF4D2082A7FF454AF2368DB073C
:100ED0007FF550AF626823699A423FF74BAF3023EA
:100EE00005F8013C013D45E7002BDFD19CF80030BF
:100EF00084F8423004F1420539E703686268191D3D
:100F000001601D680021284601F022FA002832D035
:100F1000401B60602061002384F8433070E7226842
:100F2000036812F0800F03F104051AD01B680560F6
:100F30006F290CBF08220A22DFF844C004E701230E
:100F400084F84210236104F14205E4E703681A685B
:100F5000191D0123016004F1420584F84220236138
:100F6000D9E712F0400F0DBF1B6805601B880560B4
:100F7000DEE7198041E76068CCE700BF90B1010867
:100F80007CB101080EB410B5044683B008B1836982
:100F900063B106A803460190059AA1682046FFF7B1
:100FA000A1FC03B0BDE8104003B0704700F09AFF09
:100FB000EFE700BF0FB410B50B4B1C6882B00CB14B
:100FC000A36963B105A803460190049AA16820466D
:100FD000FFF788FC02B0BDE8104004B0704720461F
:100FE00000F080FFEEE700BF0000002038B5124B94
:100FF0001C68A26B05461AB10023C2E9045338BD30
:101000001820FFF7DFF90246A06378B10120002124
:101010000A4B1360C2E904010B2309480949938173
:101020000023C2E90101C2E9045338BD064B074859
:10103000422100F061FD00BF000000200E33CDAB67
:1010400034126DE6ECDE0500A4B10108BCB1010864
:1010500038B51A4B1C68A26B92B1146918495369D0
:10106000184801FB04F100FB0313A4FB0045611CBD
:101070001D4445F1000323F00040C2E9041338BDCC
:101080001820FFF79FF90246A06388B101200021D4
:10109000C2E904010A480C4C0C4B0D490D4D14607B
:1010A00053600B24034695609481C2E9041338BD54
:1010B000094B0A484E2100F01FFD00BF0000002030
:1010C0002DF451582D7F954C0E33CDAB34126DE677
:1010D0002E7F954CECDE0500A4B10108BCB10108DF
:1010E00038B5074C002305460846236001F062FD31
:1010F000431C00D038BD2368002BFBD02B6038BDCB
:101100006498012008B430B5002A9CB0044635DB51
:101110004FF4027302910691ADF8143020A918D053
:10112000013A0B460492079201911F9A4FF6FF7500
:1011300002A9ADF8165001F061FA421C01DA8B23C6
:101140002360029B00221A701CB0BDE8304001B041
:1011500070470B460492079201914FF6FF751F9A54
:10116000ADF8165002A901F049FA431C01DA8B23AD
:1011700023601CB0BDE8304001B070478B22026094
:101180004FF0FF30F5E700BF0CB430B5204B00291D
:101190009DB01C6837DB4FF4027302900690ADF8E7
:1011A000143021A819D001390346209A04910791DF
:1011B00001904FF6FF7502A92046ADF8165001F0D8
:1011C0001DFA421C01DA8B232360029B00221A7055
:1011D0001DB0BDE8304002B070470346049107914E
:1011E00001904FF6FF75209AADF8165002A92046DF
:1011F00001F004FA431C01DA8B2323601DB0BDE823
:10120000304002B070478B2323604FF0FF30F5E78A
:10121000000000200CB470B59CB020AC0B4E54F80C
:10122000042B0291234606916FF0004502A9019418
:101230000795CDE9045601F0E1F9029B00221A70EE
:101240001CB0BDE8704002B0704700BF0802FFFF4D
:101250000EB430B59CB01FAB0C4C0D4D53F8042BA5
:101260000193014602910691206802A96FF00044A3
:101270000794CDE9044501F0C1F9029B00221A70E0
:101280001CB0BDE8304003B0704700BF0000002034
:101290000802FFFF10B50C46B1F90E1001F0E8FA94
:1012A000002803DB636D0344636510BDA38923F449
:1012B0008053A38110BD00BF002070472DE9F0418D
:1012C0001646B1F90C201F46D3050C460546B1F968
:1012D0000E1009D422F48052A2813B4632462846A1
:1012E000BDE8F04100F072BB0022022301F014F8C7
:1012F000B4F90C20B4F90E10ECE700BF10B50C46A1
:10130000B1F90E1001F008F8A389421C0EBF23F4B6
:10131000805343F480536065A38110BDB1F90E1072
:1013200000F00EBC00000000000000000000000003
:1013300000000000000000000000000000000000AD
:1013400090F800F06DE9024520F007016FF0000C05
:1013500010F0070491F820F040F049804FF00004AD
:101360006FF00700D1E9002391F840F000F1080088
:1013700082FA4CF2A4FA8CF283FA4CF3A2FA8CF3C0
:101380004BBBD1E9022382FA4CF200F10800A4FA27
:101390008CF283FA4CF3A2FA8CF3E3B9D1E904237B
:1013A00082FA4CF200F10800A4FA8CF283FA4CF3B2
:1013B000A2FA8CF37BB9D1E9062301F1200182FA6C
:1013C0004CF200F10800A4FA8CF283FA4CF3A2FA72
:1013D0008CF3002BC6D0002A04BF04301A4612BA80
:1013E000B2FA82F2FDE8024500EBD2007047D1E983
:1013F000002304F00305C4F100004FEAC50514F012
:10140000040F91F840F00CFA05F562EA05021CBFE2
:1014100063EA050362464FF00004A9E770B440EAAE
:101420000104A30727D1032A25D90B4606461946EE
:1014300053F8045BA5F1013424EA050414F0803F5D
:1014400006D1043A032A46F8045B1946EFD882B164
:1014500033460C7803F8014B551E74B132442E44C8
:1014600005E011F8014FF51A03F8014B2CB19A422F
:10147000F7D170BC70470646E9E7002DF9D01D444E
:10148000002203F8012BAB42FBD170BC704700BFB8
:1014900071B138B503460C46002501E0431C0546F2
:1014A0001846214601F0FAF90028F7D1284638BD40
:1014B00001F0F4B92DE9F04F01242546884616467F
:1014C000AE462A46ADF21C4D07461C4600214FF0A1
:1014D000FF3553189C4206EB05000ED9805C16F8C8
:1014E00003C0844580F0CC8019460122A3EB050E91
:1014F00053189C4206EB0500F0D8CDF80CE04FF0F5
:10150000010E724600214FF0FF3053189C4206EB4B
:10151000000C0FD91CF802C016F80390E14540F208
:10152000B68019460122A3EB000E53189C4206EB2D
:10153000000CEFD86B1C01309842029328BFCDE914
:10154000020E05AB0DF2144243F8044F9342FBD157
:10155000631E0093002C00F01681009B06AD721EE6
:101560009819019512F8011FD34323443344824252
:1015700045F82130F6D1DDE902233046F118FEF7B7
:1015800031FF002840F09680029B013B0593F31841
:1015900082468146049307EB090E009B019A1EF8D0
:1015A000033052F82330EBB1BAF1000F03D0039AA5
:1015B000934238BFA31A99444FF0000AA8EB0403E2
:1015C0004B45E8D207EB080044F4006101F0CAF98A
:1015D0008044A8EB04034B45DDD200200DF21C4DE6
:1015E000BDE8F08F029B534538BF53461D46009B14
:1015F0009D4218D205EB0902715DB85C88423A44FD
:1016000006EB050334D1A4F1020CB444C6F1010B7E
:1016100005E013F8010F12F8011F884228D19C45FC
:101620000BEB0305F5D1029B9A4580F0A980059B41
:10163000049A4B441178FA5C91423B4440F0A080FC
:101640000AEB09053D44049A05E012F8010D13F870
:10165000011D884203D1AB42A3EB0E0CF5D10AF178
:10166000010AE2457DD8039B9944A4EB030AA5E750
:10167000029BC3F101039944A9444FF0000A9DE77E
:101680000CD04FF0010E0D467246714421E70BD08D
:101690004FF0010E08467246714436E7724512BF9C
:1016A00001321946012214E7724512BF0132194670
:1016B00001222AE7029AA31A934238BF1346511E09
:1016C00001330593731804910393002506EB020B75
:1016D00007EB050E009A01991EF8023051F82330ED
:1016E00083B11D44A8EB04039D42F1D907EB080028
:1016F00044F4006101F036F98044A8EB04039D42F4
:10170000E6D96AE7029B934217D2EA189BF80030A9
:10171000B95C99423A4429D1A4F1020CB4445B4625
:10172000C6F1010905E013F8010F12F8011F884204
:101730001ED1634509EB030AF5D1049B5A1C10D056
:10174000EA18039BB95C1B7899423A4416D1039B73
:1017500005E013F8010D12F8011D88420ED1B342C5
:10176000F7D170460DF21C4DBDE8F08FDDF808A0F2
:10177000029BC3F101031D445544B3E7059BB0E749
:10178000DDF808C06BE706AB0193F4E62DE9F04104
:101790000E46097890B00446002958D07278002A85
:1017A00000F08D80B078002855D0F378002B00F041
:1017B0008D803379002B5FD03046FFF7C1FD804626
:1017C00040F40071204601F0CDF8804572D8B8F1A0
:1017D000FE0F00F29280A0EB0807402208F1010101
:1017E00068462744FEF730FFB8F1000F10D0731E93
:1017F00003EB08055FFA88F013F8012F10A902F037
:101800003F020A44F11A0144AB4202F8401CF3D1F2
:10181000013C10AA14F8083003F03F03134413F8F6
:10182000403C1C44A74203D238E02C44A74235D3A5
:1018300014F8085010AB05F03F051D4442463146F0
:10184000204615F8405CFEF7CDFD0028EDD120467E
:1018500010B0BDE8F081237842EA014253B3601C26
:10186000617800E0204641EA0343441C11B39A42E8
:101870004178F7D1441EEAE72278DAB1306800BA3D
:1018800002E0834208D00C4642EA03236278611CDE
:10189000002AF6D183420DD1033CD8E717F808306F
:1018A00007EB080033B14FF4006101F05BF8074427
:1018B000A742ADD20024204610B0BDE8F08100F070
:1018C000EDFF0446204610B0BDE8F08112042378F5
:1018D00042EA016242EA0022002BEBD01B02601CAC
:1018E000617800E020460B431B02441C0029E1D034
:1018F0009A424178F6D1841EA9E701464346204624
:101900003246FFF7D7FD0446A1E700BFF8B50D4604
:101910001446064608B1836943B3254B9C422AD03E
:10192000244B9C4229D0244B9C4208BFF468A389D5
:10193000A269A2601A0722D5236903B322686169EC
:10194000D31AEDB299422F4629DD0133A168501C0C
:101950000139A1602060157062699A4216D0A3898E
:10196000DB0701D50A2D11D03846F8BD00F0BAFAD0
:101970000F4B9C42D4D17468D9E7B468D7E72146AD
:10198000304600F039F838B92369D7E721463046A8
:1019900000F07EF90028E7D04FF0FF37E4E721465A
:1019A000304600F075F90028F6D122680123CDE712
:1019B0003474010814740108F4730108024B0A46D8
:1019C00001461868FFF7A2BF0000002070B50D4661
:1019D000084C114606461A4628460023236001F0AB
:1019E000F7F8431C00D070BD2368002BFBD0336098
:1019F00070BD00BF649801203B4B70B51D68064662
:101A00000C460DB1AB69DBB1384B9C421ED0384B54
:101A10009C424AD0374B9C4208BFEC68B4F90C207A
:101A200093B2190718D5206908B313F001022CD01E
:101A3000636900225B42A361A26060B3002070BDB5
:101A4000284600F04FFA294B9C42E0D16C68B4F96B
:101A50000C2093B21907E6D4DD063CD5580726D4EE
:101A6000206942F00803A3819BB20028DDD103F472
:101A70002072B2F5007FD8D030462146FEF758FCE0
:101A8000A389206913F00102D2D1990758BF626976
:101A9000A2600028D2D1B4F90C301A06CFD543F099
:101AA0004003A3814FF0FF3070BDAC68B6E7616BB7
:101AB00051B104F14403994204D03046FEF714FEBC
:101AC000B4F90C200023636300232069636022F0D3
:101AD00024022060C5E742F04002092333604FF042
:101AE000FF30A28170BD00BF0000002034740108E7
:101AF00014740108F473010800B50A4C2668054601
:101B000085B01C46F06852B1074B0091CDE9013217
:101B100006492B462246FEF7A5FB00F045FF044B85
:101B20001A46F2E700000020F0B1010800B20108F7
:101B3000F07F010808B513460022FFF7DDFF00BF64
:101B400038B5074C002305460846236000F0FAFF2D
:101B5000431C00D038BD2368002BFBD02B6038BD60
:101B6000649801208B891A072DE9F0410C468046C4
:101B700041D44A68002A59DDE66A002E53D000227B
:101B8000D8F80050216AC8F8002013F4805251D1CF
:101B900001234046B047431C5FD0A389E66A216A0F
:101BA0005F0705D56268636B801A0BB1236CC01A9E
:101BB000024600234046B047461C45D1D8F80030C5
:101BC000B4F90C20002B55D01D2B01D0162B5AD167
:101BD00023690022C4E90032616BC8F8005011B3D8
:101BE00004F14403994202D04046FEF77DFD0020F7
:101BF0006063BDE8F0810E69AEB10D680E609907B3
:101C00000CBF63690023AD1BA3600AE02B4632467C
:101C1000A76A216A4046B8470028A5EB000506449C
:101C20000ADD002DF2DC0020BDE8F0810A6C002AFC
:101C3000A2DCF8E7606DB3E7A38943F04003A3811A
:101C40004FF0FF30BDE8F0812269A38922600022B5
:101C50006260DA04C0D56065BEE7D8F80030002BBA
:101C60009BD01D2B0CD0162B0AD0A38943F0400328
:101C7000A381D9E72169C4E90013D304ACD5EAE70D
:101C8000C8F80050CFE742F04002A281CCE700BF85
:101C90000B6923B310B5044682B008B18369BBB1A8
:101CA000104B994212D0104B994216D00F4B9942CB
:101CB00008BFE168B1F90C302BB1204602B0BDE895
:101CC0001040FFF74FBF002002B010BD6168F1E780
:101CD000019100F007F90199E2E7A168EAE7002025
:101CE000704700BF3474010814740108F4730108CC
:101CF00020B1054B01461868FFF7CABF034B0449E2
:101D0000186800F0CDBA00BF00000020F073010891
:101D1000911C000800207047014900F0C1BA00BFC3
:101D2000911C00080020704770B54A1E682505FB0D
:101D300002F50E4605F17401FEF72CFD044640B194
:101D400000210C30666005F168022160A060FEF79A
:101D50007BFC204670BD00BF1E4B70B51D68AB6993
:101D6000064643B34835D5E90134013B05D51EE0AD
:101D7000013B5A1C04F1680419D0B4F90C20002A64
:101D8000F6D10025144B6566C4E90055A560C4E989
:101D90000455A5612946E360082204F15C00FEF7C2
:101DA00053FCC4E90D55C4E91255204670BD2C689A
:101DB0002CB12546D7E7284600F010F8D2E70421D9
:101DC0003046FFF7B1FF044628600028F1D10C230C
:101DD0003360EAE7F07301080100FFFF2DE9F84FD7
:101DE000334B34491A68816290424FF00003C0E9D6
:101DF0001233036504BF012383610546FFF7ACFF7F
:101E000068602846FFF7A8FFA8602846FFF7A4FFF0
:101E10006E68E86000240423F3607466C6E9004439
:101E2000B460C6E90444B461214606F15C000822AE
:101E3000FEF70AFCDFF888B0AF68DFF888A0DFF8AB
:101E40008890DFF888801C4BC6F83080C6E9086BA4
:101E5000C6E90AA92146FB6008227C66C7E900445E
:101E6000BC60C7E90444BC6107F15C00FEF7ECFB11
:101E7000EE68124BC7F83080C7E9087BC7E90AA9AA
:101E80002146F3607466C6E90044B460C6E90444C0
:101E9000B46106F15C000822FEF7D6FB0123C6E917
:101EA000086BC6E90AA9C6F83080AB61BDE8F88FB7
:101EB000F0730108191D000809000100120002005A
:101EC00095120008BD120008FD1200081D1300083D
:101ED000024B0349186800F0E3B900BFF073010832
:101EE000911C0008836903B978E77047704700BF09
:101EF000704700BF704700BF704700BF024B0349E7
:101F0000186800F0A7B900BF00000020151D0008E8
:101F1000024B0349186800F09DB900BF0000002083
:101F2000251D000838B50B46074C054611461846D6
:101F30000023236000F00EFE431C00D038BD236850
:101F4000002BFBD02B6038BD649801209368002BD8
:101F500000F002812DE9F04FB1F90C309BB20C4634
:101F6000190783B08246904635D522699AB313F09B
:101F70000202D8F800603DD00027D4F828B0D4F889
:101F800020C0DFF8CC923D464D452B463A4628BF4F
:101F90004B4661465046D5B1D847002840F3D28021
:101FA000D8F808301B1A07442D1AC8F80830002B3F
:101FB00000F0B780D4F820C0D4F828B04D452B46A7
:101FC0003A4628BF4B4661465046002DE4D1D6E93B
:101FD00000750836D8E721465046FFF70DFD00286A
:101FE00040F03081B4F90C30D8F800609BB213F0A7
:101FF0000202C1D113F0010940F0B080A768206847
:102000004D46002D54D09A0540F1BC80AF42BB46EE
:1020100000F2E78013F4906F2FD0D4E9041707EB98
:102020004707A0EB010B07EBD777681C7F105844DC
:10203000B8423A4684BF07463A465B0540F1E9801C
:1020400011465046FEF7A6FB002800F0F5805A46E0
:1020500021690190FEF7F6F9A289019B22F49062B2
:1020600042F08002A281A7EB0B0203EB0B00676139
:1020700023612060A2602F46AB465A464946FEF7D0
:102080007BFAA2682368D21B5B442F46A2602360C0
:102090000025D8F80830DB1BB944C8F80830002BFD
:1020A0003FD0B4F90C30A76820689BB2002DAAD1AC
:1020B000D6E900950836A4E70BF1080353E9026757
:1020C0009B460833002FF9D03A460A21304600F0EB
:1020D0003FF9002853D00130A0EB06094B46D4E964
:1020E00004122068BB4228BF3B46884203D9A5683A
:1020F0001544AB4219DC9A427DDC1346A56A216A7D
:1021000032465046A847051E1CDDB9EB05096BD0C9
:102110000120D8F808305B1B2E447F1BC8F808301C
:1021200013BB002003B0BDE8F08F31462A46FEF70E
:1021300023FA23682B44236021465046FFF7A8FD6D
:102140000028E2D0B4F90C3043F040034FF0FF30E8
:10215000A38103B0BDE8F08F00207047334691465D
:10216000104617464E469B46002FA5D00028B5D1F5
:102170003A460A21304600F0EBF80028ABD17B1C30
:102180009946ACE72369834215D36169A94212D805
:102190002E4BA76A9D4294BF2B466FF000434A46E0
:1021A00093FBF1F3504601FB03F3216AB847071E86
:1021B000C8DDED1B6DE7AF4228BF2F463A464946C2
:1021C000FEF7DAF9A3682268DB1B3A44A3602260B9
:1021D000002BEED121465046FFF75AFD0028E8D0EB
:1021E000B0E72F46AB4648E721465046FFF750FD83
:1021F00000288ED0A6E71A4631460193FEF7BCF9B7
:10220000019BA1682268C91A1A44A16022601D4678
:102210007BE7504600F0F0F8034600287FF423AF38
:1022200021695046FEF760FAB4F90C300C2223F015
:102230008003CAF8002087E70C23CAF80030B4F9FD
:102240000C3081E74FF0FF306CE700BFFEFFFF7FEF
:1022500000FCFF7F2DE9F04110F148071BD08846B4
:102260000026D7E90154013D0FD4A389012B05F1C4
:10227000FF3506D9B4F90E300133204601D0C047EE
:1022800006436B1C04F16804EFD13F68002FE8D1CE
:102290003046BDE8F0813E463046BDE8F08100BFE3
:1022A0002DE9F84310F148071FD0884606464FF045
:1022B0000009D7E90154013D11D4A389012B05F18F
:1022C000FF3508D9B4F90E3001332146304602D02B
:1022D000C04749EA00096B1C04F16804EDD13F686E
:1022E000002FE6D14846BDE8F883B9464846BDE828
:1022F000F88300BF38B5074C002305460846236025
:1023000000F038FC431C00D038BD2368002BFBD004
:102310002B6038BD6498012070B50D46084C1146FD
:1023200006461A4628460023236000F033FC431C6F
:1023300000D070BD2368002BFBD0336070BD00BFA0
:102340006498012000000000000000000000000070
:1023500001F0FF01102A2BDB10F0070F08D010F856
:10236000013B013A8B422DD010F0070F42B3F6D15A
:10237000F0B441EA012141EA014122F007047FF073
:1023800000070023F0E80256083C85EA010586EACA
:10239000010685FA47F5A3FA87F586FA47F6A5FA06
:1023A00087F68EB9EED1F0BC01F0FF0102F0070212
:1023B00032B110F8013B013A83EA010313B1F8D1BD
:1023C0000020704701387047002D06BF354603389E
:1023D000073815F0010F07D1013015F4807F02BFD7
:1023E000013015F4C03F0130F0BC0138704700BF28
:1023F000704700BF704700BF09B3F8B51446CAB1B3
:1024000006460D4600F0D8FAA04202D32F463846C1
:10241000F8BD21463046FEF7BDF907460028F6D044
:1024200022462946FEF70EF830462946FEF75CF9AB
:102430003846F8BD2746FEF757F93846F8BD11462D
:10244000FEF7A8B92DE9F0478E681D46AE420C464E
:102450000B68174636D88046888910F4906F0ED1E5
:10246000354618462A463946FEF786F8A26823689C
:10247000961B2B44A66023600020BDE8F087D1E9BD
:10248000041606EB4606A3EB010906EBD6766B1C99
:1024900076104B44B342324684BF1E463246430553
:1024A00012D511464046FEF775F9824600B34A46FA
:1024B0002169FDF7C7FFA38923F4906343F08003EC
:1024C000A38106E02E46CCE74046FFF795FF824603
:1024D00050B1A6EB09020AEB09036661C4F810A02B
:1024E0002360A2602E46BCE721694046FEF7FCF857
:1024F0000C23C8F80030A38943F04003A3814FF0B8
:10250000FF30BAE72DE9F04F936883B09046002B77
:102510006DD017688D6882460C460868083743E01E
:10252000A38913F4906F2ED0D4E9041505EB45056B
:10253000A0EB010B05EBD5750BEB06006D10013020
:10254000A8422A4684BF05462A465B0536D5114671
:102550005046FEF71FF900283AD05A4621690190EB
:10256000FDF770FFA289019B22F4906242F0800285
:10257000A281A5EB0B0203EB0B00656123612060D8
:10258000A2603546B3465A464946FDF7F5FFD8F8EE
:102590000830A2682068551B58449E1BA560206027
:1025A000C8F808601EB3083757E90296AB46002EFC
:1025B000F9D0AE42B4D23546B346E4E75046FFF711
:1025C0001BFF03460028D4D121695046FEF78CF842
:1025D0000C23CAF80030A389002243F040034FF0D7
:1025E000FF30A381C8E9012203B0BDE8F08F0020CD
:1025F000C8F8040003B0BDE8F08F00BF2DE9F04F2C
:1026000090468A899FB014068B46029003D50A69CA
:10261000002A00F00B81059330238DF8323098F8B2
:1026200000308E4E002120220B918DF831200127A1
:10263000002B00F08480252B00F0F680454603E057
:10264000252B00F0868025466B786C1C002BF7D17B
:10265000B4EB080A73D04246534659460298FFF736
:10266000F1FE01306BD00B9B6A7853440B93002A28
:1026700065D000234FF0FF3201340693CDE90833D3
:102680008DF85B301C93079205E0069A07FA03F376
:1026900013432C4606932546052215F8011B3046A8
:1026A000FFF756FEAA46831B0028EED1069BD906EB
:1026B00044BF20228DF85B2021781A0744BF2B22CB
:1026C0008DF85B202A2948D1059A11680432002927
:1026D00005927EDB09916178A51C2E2956D0604CAD
:1026E00003222046FFF734FE002868D0001B069B1B
:1026F000402404FA00F00343069305F10108297809
:1027000058488DF830100622FFF722FE002866D0C8
:10271000554B002B56D005AB00935A46534B0298AD
:1027200006A9AFF300808146B9F1FF3F07D00B9BAC
:102730004B440B9398F80030002B7FF47CAFBBF830
:102740000C305B0654BF0B984FF0FF301FB0BDE854
:10275000F08FB4EB080A8CD07DE7A1F13002092A92
:1027600088BFA246B9D8099B01E02C4601352978DB
:1027700003EB830302EB4303A1F13002092AAA46CB
:10278000F3D92E2904F102050993A8D19AF8011072
:102790002A292ED1059B9AF802101A680792043351
:1027A000002A05930AF103050AF1020337DB2C4CDA
:1027B000032220469A46FFF7CBFD002896D1A84673
:1027C00055469CE7059B073323F007030833059321
:1027D000ADE7494243F00203099106937BE705AB5D
:1027E00000935A46214B029806A9FEF77FFA8146CC
:1027F0009AE7A1F130020023092A079301D923E0C7
:102800005546697803EB830302EB4303A1F13002E1
:10281000092A05F1010AF3D9023507935FE74FF062
:10282000FF329A4607925AE7444622E74021039333
:10283000FDF7B0FF039BCBF80000CBF8100030B1E0
:102840004022CBF81420E6E6AA46013547E7029A73
:102850000C2313604FF0FF3078E700BF68B1010828
:1028600070B1010874B1010800000000452400089F
:1028700070B50D46084C114606461A4628460023F8
:10288000236000F08FF9431C00D070BD2368002B3B
:10289000FBD0336070BD00BF64980120C9B200F066
:1028A0000303002935D07BB10378002B57D0994220
:1028B00052D0431C05E013F8012B002A4DD08A4268
:1028C0004AD09A071846F6D170B441EA0126046846
:1028D00046EA064601E050F8044F86EA0405A5F1F1
:1028E0000132A4F1013322EA050223EA040313436F
:1028F00013F0803FEFD0037843B1994202D106E054
:102900008B4204D010F8013F002BF9D1184670BC5F
:1029100070474BB10378FBB1431C02E002780133EE
:10292000D2B199071846F9D10268A2F1013323EA1E
:10293000020313F0803F08D150F8042FA2F10133B5
:1029400023EA020313F0803FF6D0037823B110F896
:10295000013F002BFBD17047704710467047184667
:10296000704700BFC9B10278CAB1431C0144994203
:102970001A4616D010B41478013334B199421A466D
:1029800007D014780133002CF8D1101A5DF8044BED
:102990007047081A5DF8044B7047084670471046A8
:1029A0007047081A704700BF08B5062000F092F87B
:1029B000012000F015F900BF51F8043C181F002B4E
:1029C000BCBF0B58C018704710B580210446FDF7F6
:1029D000E1FE606440B1031F00227C3043F8042F05
:1029E0008342FBD1002010BD4FF0FF3010BD00BF6F
:1029F000436C0BB100207047E6E700BF1F2970B59C
:102A0000054608D8436C16460C464BB153F82400D3
:102A100043F8246070BD162202604FF0FF3070BD95
:102A2000FFF7D2FF08B96B6CF0E74FF0FF3070BDD5
:102A30001F2938B521D8426C05460C466AB152F8B8
:102A4000213053B1012B16D0591C10D0002520463F
:102A500042F824509847284638BD284600F070F8C0
:102A6000224601462846BDE8384000F055B81623F6
:102A70000360012038BD002038BD162303604FF0ED
:102A8000FF3038BD1F2921D838B5436C05460C46A8
:102A900083B153F8242003EB84034AB1511C10D0B6
:102AA000012A0CD0002520461D609047284638BDDD
:102AB000012038BDFFF788FF28B96B6CE9E70320D8
:102AC00038BD022038BD4FF0FF3038BD4FF0FF3029
:102AD000704700BF024B01461868FFF7A9BF00BF4F
:102AE00000000020024B0A4601461868FFF786BF27
:102AF00000000020034B1868436C0BB100207047A6
:102B000062E700BF00000020024B01461868FFF793
:102B1000B9BF00BF0000002038B50B46074C054682
:102B2000114618460023236000F02CF8431C00D007
:102B300038BD2368002BFBD02B6038BD6498012082
:102B400000F010B8024B58221A604FF0FF30704767
:102B500064980120024B58221A604FF0FF307047F2
:102B600064980120024B58221A604FF0FF307047E2
:102B700064980120024B58221A600020704700BF61
:102B800064980120024B58221A604FF0FF307047C2
:102B900064980120024B58221A604FF0FF307047B2
:102BA00064980120024B58221A604FF0FF307047A2
:102BB00064980120044A05491368002B08BF0B469E
:102BC0001844106018467047100C002088990120A6
:102BD000024B58221A604FF0FF3070476498012072
:102BE000FEE700BF70B54FF0FF0C4CF4E06C1CEA40
:102BF00011541DBF1CEA135594EA0C0F95EA0C0FF3
:102C000000F0DEF82C4481EA030621EA4C5123EA65
:102C10004C5350EA013518BF52EA033541F4801194
:102C200043F4801338D0A0FB02CE4FF00005E1FB47
:102C300002E506F00042E0FB03E54FF00006E1FB91
:102C400003569CF0000F18BF4EF0010EA4F1FF04D4
:102C5000B6F5007F64F5407404D25FEA4E0E6D4114
:102C600046EB060642EAC62141EA55514FEAC52025
:102C700040EA5E504FEACE2EB4F1FD0C88BFBCF5A1
:102C8000E06F1ED8BEF1004F08BF5FEA500E50F152
:102C9000000041EB045170BD06F0004646EA010118
:102CA00040EA020081EA0301B4EB5C04C2BFD4EB4A
:102CB0000C0541EA045170BD41F480114FF0000E43
:102CC000013C00F3AB8014F1360FDEBF002001F0B1
:102CD000004170BDC4F10004203C35DA0C341BDC2B
:102CE00004F11404C4F1200500FA05F320FA04F0FD
:102CF00001FA05F240EA020001F0004221F0004131
:102D000010EBD37021FA04F642EB06015EEA430EA3
:102D100008BF20EAD37070BDC4F10C04C4F12005D3
:102D200000FA04F320FA05F001FA04F240EA020086
:102D300001F0004110EBD37041F100015EEA430E57
:102D400008BF20EAD37070BDC4F1200500FA05F277
:102D50004EEA020E20FA04F301FA05F243EA0203F6
:102D600021FA04F001F0004121FA04F220EA020005
:102D700000EBD3705EEA430E08BF20EAD37070BD4B
:102D800094F0000F0FD101F00046400041EB01012B
:102D900011F4801F08BF013CF7D041EA060195F00D
:102DA000000F18BF704703F00046520043EB0303C7
:102DB00013F4801F08BF013DF7D043EA06037047B4
:102DC00094EA0C0F0CEA135518BF95EA0C0F0CD0BF
:102DD00050EA410618BF52EA4306D1D181EA030105
:102DE00001F000414FF0000070BD50EA410606BFFF
:102DF0001046194652EA430619D094EA0C0F02D144
:102E000050EA013613D195EA0C0F05D152EA033688
:102E10001CBF104619460AD181EA030101F00041A6
:102E200041F0FE4141F470014FF0000070BD41F0EF
:102E3000FE4141F4780170BD81F0004102E000BF25
:102E400083F0004330B54FEA41044FEA430594EA6A
:102E5000050F08BF90EA020F1FBF54EA000C55EAA5
:102E6000020C7FEA645C7FEA655C00F0E2804FEA76
:102E70005454D4EB5555B8BF6D420CDD2C4480EA58
:102E8000020281EA030382EA000083EA010180EA88
:102E9000020281EA0303362D88BF30BD11F0004FD6
:102EA0004FEA01314FF4801C4CEA113102D040420C
:102EB00061EB410113F0004F4FEA03334CEA133347
:102EC00002D0524263EB430394EA050F00F0A7805F
:102ED000A4F10104D5F1200E0DDB02FA0EFC22FA5A
:102EE00005F2801841F1000103FA0EF2801843FA4E
:102EF00005F359410EE0A5F120050EF1200E012A3F
:102F000003FA0EFC28BF4CF0020C43FA05F3C0187C
:102F100051EBE37101F0004507D54FF0000EDCF1F5
:102F2000000C7EEB00006EEB0101B1F5801F1BD39E
:102F3000B1F5001F0CD349085FEA30004FEA3C0CA2
:102F400004F101044FEA445212F5800F80F09A8098
:102F5000BCF1004F08BF5FEA500C50F1000041EB9C
:102F6000045141EA050130BD5FEA4C0C404141EBA0
:102F70000101013C28BFB1F5801FE9D291F0000F9B
:102F800004BF01460020B1FA81F308BF2033A3F14A
:102F90000B03B3F120020CDA0C3208DD02F1140C41
:102FA000C2F10C0201FA0CF021FA02F10CE002F17C
:102FB0001402D8BFC2F1200C01FA02F120FA0CFC75
:102FC000DCBF41EA0C019040E41AA2BF01EB0451BE
:102FD000294330BD6FEA04041F3C1CDA0C340EDCBC
:102FE00004F11404C4F1200220FA04F001FA02F3FF
:102FF00040EA030021FA04F345EA030130BDC4F1BD
:103000000C04C4F1200220FA02F001FA04F340EAB1
:103010000300294630BD21FA04F0294630BD94F062
:10302000000F83F4801306BF81F480110134013D49
:103030004EE77FEA645C18BF7FEA655C29D094EABA
:10304000050F08BF90EA020F05D054EA000C04BF38
:103050001946104630BD91EA030F1EBF0021002023
:1030600030BD5FEA545C05D14000494128BF41F0C2
:10307000004130BD14F580043CBF01F5801130BD26
:1030800001F0004545F0FE4141F470014FF00000B1
:1030900030BD7FEA645C1ABF194610467FEA655C62
:1030A0001CBF0B46024650EA013406BF52EA033504
:1030B00091EA030F41F4002130BD00BF90F0000FF2
:1030C00004BF0021704730B54FF4806404F132042E
:1030D0004FF000054FF0000150E700BF90F0000FE7
:1030E00004BF0021704730B54FF4806404F132040E
:1030F00010F0004548BF40424FF000013EE700BFDE
:1031000042004FEAE2014FEA31014FEA02701FBF6D
:1031100012F07F4393F07F4F81F06051704732F09F
:103120007F4208BF704793F07F4F04BF41F40021F6
:10313000704730B54FF4607401F0004521F0004154
:103140001CE700BF50EA010208BF704730B54FF0DE
:1031500000050AE050EA010208BF704730B511F0DF
:10316000004502D5404261EB41014FF4806404F117
:1031700032045FEA915C3FF4D8AE4FF003025FEA9D
:10318000DC0C18BF03325FEADC0C18BF033202EB21
:10319000DC02C2F1200300FA03FC20FA02F001FA7B
:1031A00003FE40EA0E0021FA02F11444BDE600BF1E
:1031B0004A0011D212F5001211D20DD56FF47873B6
:1031C000B3EB62520ED44FEAC12343F0004343EA0B
:1031D000505323FA02F070474FF00000704750EA56
:1031E000013002D14FF0FF3070474FF000007047C0
:1031F00053B94AB9002908BF00281CBF4FF0FF315E
:103200004FF0FF3000F06EB9ADF1080C6DE904CE5F
:1032100000F006F8DDF804E0DDE9022304B07047B1
:103220002DE9F047089D04468C46002B40F0838032
:103230008A42174647D9B2FA82F242B1C2F120005F
:1032400024FA00F09140974040EA010C94404FEA84
:103250001748230CBCFBF8F61FFA87FE08FB16C1C3
:1032600043EA014306FB0EF1994209D9FB1806F126
:10327000FF3080F01981994240F21681023E3B44B2
:103280005B1AA4B2B3FBF8F008FB103344EA034422
:1032900000FB0EFEA64509D93C1900F1FF3380F072
:1032A0000581A64540F2028102383C4440EA0640CE
:1032B000A4EB0E0400261DB1D4400023C5E9004351
:1032C0003146BDE8F08702B9FFDEB2FA82F2002A89
:1032D00050D1CB1B4FEA174E1FFA87F80126B3FBDC
:1032E000FEFC210C0EFB1C3341EA034108FB0CF3EE
:1032F0008B4207D979180CF1FF3002D28B4200F2D1
:10330000E9808446C91AA3B2B1FBFEF00EFB10118E
:1033100043EA014408FB00F8A04507D93C1900F135
:10332000FF3302D2A04500F2D9801846A4EB08046E
:1033300040EA0C40BFE78B4209D9002D00F0B18074
:103340000026C5E9000130463146BDE8F087B3FAF2
:1033500083F6002E4AD18B4202D3824200F2B8801B
:10336000841A61EB030101208C46002DA8D0C5E929
:10337000004CA5E7C2F1200320FA03F6974001FABA
:1033800002F04FEA174ED9403043030CB1FBFEF672
:103390001FFA87F80EFB161143EA014306FB08F1FA
:1033A000994204FA02F409D9FB1806F1FF3C80F0B7
:1033B0008D80994240F28A80023E3B445B1A81B282
:1033C000B3FBFEF00EFB103341EA034100FB08F3B0
:1033D0008B4207D9791800F1FF3C73D28B4271D927
:1033E00002383944CB1A40EA064678E7C6F1200C89
:1033F00003FA06F422FA0CF31C4320FA0CF701FA44
:1034000006F34FEA144E21FA0CF11F433B0CB1FBBB
:10341000FEF91FFA84F80EFB191143EA014109FB7A
:1034200008FA8A4502FA06F200FA06F308D961188A
:1034300009F1FF3048D28A4546D9A9F10209214451
:10344000A1EB0A01BFB2B1FBFEF00EFB101147EA7F
:10345000014700FB08F8B84507D9E71900F1FF312B
:103460002ED2B8452CD90238274440EA0940A7EBB0
:103470000807A0FB02894F45C64649461AD317D014
:103480005DB1B3EB0E0267EB010707FA0CFCF240EB
:103490004CEA0202F740C5E9002700263146BDE8A4
:1034A000F0872E4628460BE70646E9E61846FDE675
:1034B0004345E5D2B8EB020E69EB04010138DFE7C2
:1034C0000846D2E760468DE78146B9E7664675E76C
:1034D00030464AE7ACF1020C394413E702383C4469
:1034E00024E700BF704700BFF0B5A7B078220021E5
:1034F00005A8FDF7A9F80DF122073C2340F20622AA
:103500003C493846FDF7A4FE3846FDF719FF06464C
:103510003D18394C0FCCB8516960AA60EB60206847
:103520002861A288A379AA82AB7505A800F0F0FCF7
:10353000324800F0A9FD4FF0FF34002C10DA2F4C78
:1035400004F10C030FCB8DE80F0094E80E002C481B
:1035500000F052FF04464FF47A7009F0A5FEECE744
:1035600054BB284806F000FF7822002105A8FDF78B
:103570006BF80DF12207482340F206221D49384618
:10358000FDF766FE3846FDF7DBFE06463D181E4C8D
:103590000FCCB8516960AA60EB6023782B7405A842
:1035A00000F0B6FC08E010F1020F21D0174BCDF867
:1035B00092309DF88E30ABB14FF0FF3223A9062038
:1035C00002F025FC0028EED1DDF89240002CEDD071
:1035D000BDF8902021460D48FCF734FF20460AF044
:1035E0006BFAE3E70A210A4B186809F0BFFEE3E72C
:1035F00027B0F0BD547401086874010800FF002072
:103600007CFD00206C36012080740108240C002011
:10361000D00301202DE9F041A0B00C460546D8B1F9
:1036200001F0DCFC01F0E0FC2F4A13680133136069
:10363000B3F57A7F15D000230193009323462A46E1
:103640008221FF2001F0D6FC00284AD0418801F0F9
:1036500055FC20B0BDE8F0817121244800F07AFCCF
:10366000DEE74FF078084246002102A8FCF7ECFFA5
:103670001F4F7A23002239460DF11600FDF7E8FDB1
:103680000DF11600FDF75CFE06460AF053FA0246FD
:1036900018490DF116039819FDF7DAFD02A800F09C
:1036A00037FC4246002102A8FCF7CEFF7B2340F204
:1036B000062239460DF11600FDF7CAFD0DF1160080
:1036C000FDF73EFE084E234632680B490DF1160702
:1036D0003844FDF7BDFD02A800F01AFC002333605A
:1036E000A9E74FF0FF30B4E7180C002094740108EC
:1036F00054740108D8740108E07401082DE9F047FA
:10370000A0B00D4616461C460746D8B1FEB101F0E2
:1037100065FC01F069FC344A136801331360B3F5AA
:103720007A7F19D0019400962B463A46002108462C
:1037300001F060FC002854D0291901F0DFFB20B013
:10374000BDE8F0879321294800F004FCDEE79421CE
:10375000264800F0FFFBDAE74FF0780A52460021D6
:1037600002A8FCF771FFDFF890909E2300224946E3
:103770000DF11600FDF76CFD0DF11600FDF7E0FDF3
:1037800080460AF0D7F9024619490DF1160303EBFA
:103790000800FDF75DFD02A800F0BAFB52460021CB
:1037A00002A8FCF751FF9F2340F2062249460DF183
:1037B0001600FDF74DFD0DF11600FDF7C1FDDFF818
:1037C00028802B19D8F800200A490DF1160C604406
:1037D000FDF73EFD02A800F09BFB0023C8F8003077
:1037E000A0E74FF0FF30AAE71C0C002094740108FA
:1037F000D8740108E07401085474010870B582B0EF
:10380000154C164E40F27E452A4631462046FCF7BE
:1038100019FE4FF47A7300932B4622460021A02014
:1038200000F062FE2A4631462046FCF7DBFD58B91F
:103830004FF47A73009340F27E43074A0021A020A0
:1038400000F052FE02B070BD4FF47A722946204655
:1038500000F0DAFEECE700BF1CFF0020FC75010859
:10386000002070470020704708B50AF025F90020B5
:1038700008BD000000B583B0009393B20A4601462C
:10388000044813F05EFC10B903B05DF804FB4FF080
:10389000FF30F9E76C98012030B583B00C4615462F
:1038A0000022009201924FF40041124805F074FC8E
:1038B0000A232A4669462046FFF7DCFF68B92A46F4
:1038C00069462046FCF7BEFD01224FF4004109483D
:1038D00005F062FC002003B030BD012009F0E4FCDB
:1038E00001224FF40041034805F056FC4FF0FF3031
:1038F000F1E700BF000002402DE9F04182B0002452
:10390000019401F06BFB054601F06EFB074626466D
:103910005EB12B029BB2A84A1578262202FB05F263
:103920003B44A6498B5201201AE101A9A44B186817
:1039300000F01EFD04460198C3B200F00F0810F01D
:10394000F00F02D00136F6B2E2E713F00C0F17D1F8
:10395000000AFFF7B3FB96A3D3E90023FFF742F970
:10396000954B1B7808F1040603EBC30203EB4203FB
:103970001E44FFF71DFC914B03EB4606F080C8E7A1
:10398000B8F1040F2ED0B8F1050F43D0B8F1060FEF
:1039900058D0B8F1070F6DD0B8F1080F00F0828051
:1039A000B8F1090F00F09680B8F10A0F00F0AA8074
:1039B000B8F10B0F00F0BC80000AFFF77FFB7CA37F
:1039C000D3E90023FFF70EF97B4B1B78A8F10C0815
:1039D000132202FB0388FFF7EBFB784B03EB480352
:1039E000D88096E7000AFFF769FB71A3D3E90023AB
:1039F000FFF7F8F8704B1B7808F10B0603EBC302D6
:103A000003EB42031E44FFF7D3FB6C4B03EB46066C
:103A1000F0807EE7000AFFF751FB65A3D3E900239E
:103A2000FFF7E0F8644B1B7808F1090603EBC302CB
:103A300003EB42031E44FFF7BBFB604B03EB460660
:103A4000F08066E7000AFFF739FB59A3D3E90023AA
:103A5000FFF7C8F8584B1B7808F1070603EBC302C1
:103A600003EB42031E44FFF7A3FB544B03EB460654
:103A7000F0804EE7000AFFF721FB4DA3D3E90023B6
:103A8000FFF7B0F84C4B1B7808F1050603EBC302B7
:103A900003EB42031E44FFF78BFB484B03EB460648
:103AA000F08036E7000AFFF709FB41A3D3E90023C2
:103AB000FFF798F8404B1B7808F1030603EBC302AD
:103AC00003EB42031E44FFF773FB3C4B03EB46063C
:103AD000F0801EE7000AFFF7F1FA35A3D3E90023CF
:103AE000FFF780F8344B1B7808F1010603EBC302A3
:103AF00003EB42031E44FFF75BFB304B03EB460630
:103B0000F08006E7000AFFF7D9FA29A3D3E90023DA
:103B1000FFF768F8284B1B7808F1FF36132202FBE9
:103B20000366FFF745FB254B03EB4603D880F0E621
:103B3000000AFFF7C3FA1EA3D3E90023FFF752F8E8
:103B40001D4B1B78A8F10306132202FB0366FFF747
:103B50002FFB1A4B03EB4603D880DAE60130C0B2E4
:103B6000042816D800220F2AF8D8144905EBC503FB
:103B700005EB4303134401EB4303DE8800EBC00372
:103B800000EB4303134401EB4303DE800132D2B266
:103B9000E9E7094B00221A700A4B1B689C4201D0CE
:103BA000084B1C6002B0BDE8F08100BFAFF300809D
:103BB00028B858518369583F140C002040FE00205B
:103BC0007CFD0020200C002070B582B001F006FAC8
:103BD00001F00AFA2C4C4FF4FA6200212046FCF75F
:103BE00033FD2A4A93880093538812882849204637
:103BF000FDF72EFB2046FDF7A3FB064600240F2C05
:103C00000ED806EBC405214B03EB4403DB88214AA5
:103C100008211D482844FDF7B7FA0134E4B2EEE765
:103C20000023042B0AD81C48262202FB03F2841826
:103C30000121815461700B44DBB2F2E7002101E005
:103C40000131C9B20F2915D80023002BF8D103EB9D
:103C5000C30203EB42020A440C4800EB4200C58851
:103C60002C0A0D4800EB420204EB0520D080013302
:103C7000DBB2EAE726230093074B0022062101204E
:103C800002F08CF802B070BD1C04002040FE002041
:103C9000007501082475010880FD0020F0B59FB073
:103CA000FFF7ACFD782200216846FCF7CDFC0DF152
:103CB0000E0720230A2236493846FDF7C9FA38464E
:103CC000FDF73EFB06463D18324C0FCCB8516960FB
:103CD000AA60EB6003CC2861696123882B83684666
:103CE00000F016F92C48FDF72BFB3B2847D878222B
:103CF00000216846FCF7A8FC21230A2224490DF183
:103D00000E00FDF7A5FA0DF10E00FDF719FB224993
:103D10000DF10E031844FDF79BFA684600F0F8F821
:103D20001E48FDF70DFB3B282DD878220021684660
:103D3000FCF78AFC22230A2215490DF10E00FDF73B
:103D400087FA0DF10E00FDF7FBFA14490DF10E0391
:103D50001844FDF77DFA684600F0DAF8104806F0DE
:103D6000CFFA4FF480410F4805F01CFA08210E48A5
:103D700005F018FA4FF49D7009F096FAEEE70B483B
:103D800000F0C6F8CCE7094800F0C2F8E6E700BF4B
:103D9000547401082C7501087C0000206400002088
:103DA000B4040120001002400000024048750108E0
:103DB000F0B5A3B07822002101A8FCF745FC0DF175
:103DC00012073A23052225493846FDF741FA3846BD
:103DD000FDF7B6FA06463D18214C0FCCB851696084
:103DE000AA60EB6020682861A288A379AA82AB75DB
:103DF00001A800F08DF80BE010F1020F2BD0194B49
:103E0000CDF882309DF87E30022B17D0032B1AD0CC
:103E10004FF0FF321FA9052001F0F9FF0028EBD178
:103E2000DDF88240002CEAD0BDF8802021460D4804
:103E3000FCF708FB204609F03FFEE0E7BE210A48F8
:103E4000FFF7E8FBE4E7BDF88030064ABE210648EC
:103E5000FFF754FCDCE723B0F0BD00BF5474010849
:103E600058750108300C002040FE0020194B1A4AFA
:103E70001268C3F83E20194A1268C3F84220184A53
:103E80001268C3F80220174A1268C3F80620164ABF
:103E90001268DA60154A12681A61154A1268C3F886
:103EA0001620144A1268C3F81A20134A12681A62BC
:103EB000124A12685A62124A1268C3F82A20114A3A
:103EC0001268C3F82E20104A12685A630F4A12680B
:103ED0009A6370477C030020AC0301200404012096
:103EE000D4030120D8030120B8030120E0030120FE
:103EF000C4030120A8030120FC030120CC030120FE
:103F0000DC030120EC030120F4030120F003012075
:103F100010B586B0044605F051FC02460C4902A8D3
:103F2000FDF796F90E2202A92046FDF777FA204602
:103F3000FDF706FAC3B2782B01D906B010BD009088
:103F4000234600221146022001F028FFF5E700BFBA
:103F50007075010870B5B2B006460D4650220021BA
:103F60001EA8FCF771FB2F213046FDF791FA04469D
:103F7000782200216846FCF767FB5D2300220C498C
:103F80000DF10E00FDF764F90DF10E00FDF7D8F903
:103F90002B46621C07490DF10E042044FDF758F929
:103FA0006846FFF7B5FF4FF47A7009F07DF9DAE75C
:103FB000547401087C750108024A136801331360C8
:103FC000704700BF3C0C002008B528B1012806D07E
:103FD000022807D0002008BD05F00AFCFBE705F029
:103FE0000DFCF8E705F010FCF5E7000088B3F8B524
:103FF00004460020207060700125A570FFF7E4FFE3
:10400000C4F803002846FFF7DFFFC4F807000220CA
:10401000FFF7DAFFC4F80B004FF0FF33E3732374AC
:104020006374A374E37423756375A375E3752376D2
:104030006376A376074E1B3406F1400735460FCD55
:1040400020606160A260E3602E461034BD42F5D16D
:10405000F8BD704798000020014B9888704700BF5A
:1040600098000020014B5889704700BF980000203D
:10407000014B9889704700BF98000020014BD889F8
:10408000704700BF9800002070B5064658B134460E
:10409000074D0FCD0FC42B682360064B736140237F
:1040A0003376002070BDB4210348FFF753FFEEE7DD
:1040B000DC750108D80000209475010830B405466D
:1040C00088B144688CB100232A7A9A420AD903EB5A
:1040D000430204EB820054F822208A4203D00133C9
:1040E000DBB2F1E7002030BC70472046FBE7000060
:1040F00000B583B00346094A92E8030002AA02E928
:1041000003003BB108226946186800F0E7F903B0E4
:104110005DF804FB4FF0FF30F9E700BFF0750108D0
:1041200070B505460221FFF7C9FF0646042128465F
:10413000FFF7C4FF0446B3880322826013F0010F27
:1041400001D00222826013F0400F02D0A368013335
:10415000A36007212846FFF7B1FF436823F00F0350
:104160001B041B0C44F6D072934201D0002070BD9A
:10417000A3680133A360F9E710B40446002013E0FC
:104180004000C0B280F007005B0853B122781A42A9
:1041900014BF01220022B2EBD01FF1D14000C0B207
:1041A000F2E701340139C9B209B18023EDE75DF8C6
:1041B000044B704770B582B002460B46204903C9D4
:1041C00002AC04E90300002A34D015461946104613
:1041D000FFF774FF014680B3036803F03F038DF8D7
:1041E0000030426800238C68A34208DAE41A02A86F
:1041F000044404F8082C12120133DBB2F3E76E7AA0
:104200004EB9286896B1A2B2023292B2694600F065
:1042100065F902B070BD611CC9B26846FFF7ACFF1A
:10422000631C02AA134403F8080CEAE7A2B20132A5
:1042300092B2EBE74FF0FF30EBE74FF0FF30E8E7EB
:10424000E87301080346002029B113F8012B504000
:104250000139C9B2F8E7704770B584B004460A4620
:10426000424B93E8030004AD05E903006D4685E881
:104270000300002C70D0264611462046FFF71EFF93
:10428000044600286BD0036803F03F0343F040036B
:104290008DF808303068737A9BB12289023292B26D
:1042A00002A900F01BF9051E53DB767A012E0CD013
:1042B0000020022E24D0002854D100236360012264
:1042C00044E02289013292B2EAE7236803F03F0317
:1042D00043F040038DF80030334607E004AA1A4447
:1042E00012F8081C02F8101C0133DBB2A1684A1C4A
:1042F0009A42F3DA0231C9B26846FFF73DFFD8E7C8
:10430000236803F03F0343F040038DF8003001239E
:1043100007E004AA1A4412F8081C02F8101C013322
:10432000DBB2A1684A1C9A42F3DA0231C9B268468C
:10433000FFF788FFBFE763681B02636004A91144AD
:1043400011F8081C0B4463600132D2B2A368934297
:10435000F1DA284604B070BD4FF0FF35F9E74FF0B1
:10436000FF35F6E76FF00105F3E700BFE8730108DA
:10437000A8B1F8B50E46054643689BB10421FFF786
:104380009DFE074688B12846FFF7CAFE0446042171
:104390002846FFF761FF20437B683360F8BD4FF08C
:1043A000FF3070474FF0FF30F8E74FF0FF30F5E790
:1043B000C8B110B504464368C3B10221FFF77EFEC1
:1043C000B8B1436813F0080003D0012363720020E2
:1043D00010BD13F0040302D002236372F8E7002239
:1043E00062721846F4E74FF0FF3070474FF0FF302D
:1043F000EEE74FF0FF30EBE784B070B5054605AC53
:1044000084E80E000C2009F0D9FA0446142009F0C3
:10441000D5FA002C4DD006460A9B63609DF82C30DF
:10442000237220602C6005A9204600F045F8051E87
:1044300033DB2046FFF75CFE051E2EDB0121204604
:10444000FFF7B8FE051E28DB02212046FFF7B2FE6B
:10445000051E22DB2046FFF7ABFF051E1DDB0621F4
:104460002046FFF72BFE054618B94FF0FF3514E044
:104470000C3565B12968302909D00729F8D0C9B2AF
:104480002046FFF797FE002801DB0C35F1E70721F6
:104490002046FFF7E1FE051E04DB2846BDE870401C
:1044A00004B07047204609F007FB304609F004FBD2
:1044B000F3E74FF0FF35F0E751B138B504460D464C
:1044C000CB681B68984730B92368EA68DA6038BD62
:1044D0004FF0FF3070474FF0FF30F8E708B5C36882
:1044E0005B68984708BD00002DE9F04F87B0824611
:1044F0000F4691469846DDF840B000231E460593CE
:104500001A464FF48071194804F046FE3D4603E018
:104510000136F6B2022E1FD807EB08039D421BD2CC
:1045200005F03F02EB1BA8EB03041119402901D948
:10453000C2F14004A4B2CDF808B001944B440093FA
:1045400010232A4651460A4805F03CFD05900028F4
:10455000DED12544ADB2DDE701224FF4807103487E
:1045600004F01AFE059807B0BDE8F08F000802407D
:104570000C0401202DE9F04F87B082460F4691468A
:104580009846DDF840B000231E4605931A464FF4C6
:1045900080711B4804F000FE3D4611E0A4B2CDF846
:1045A00008B001944B44009310232A465146154805
:1045B00005F056FC059090B10136F6B2022E14D8E3
:1045C00007EB08039D4210D205F03F02EB1BA8EB5E
:1045D000030411194029E1D9C2F14004DEE70620A5
:1045E00008F062FE2544ADB2E8E701224FF4807185
:1045F000034804F0D1FD059807B0BDE8F08F00BF77
:10460000000802400C04012000B583B00B46009264
:1046100002460021A020FFF7ADFF03B05DF804FBC8
:1046200010B5044638B1A0682369626802FB030331
:10463000E068181A10BD4FF4E8710248FFF78AFCD1
:10464000F1E700BF7C7A010838B50C46054680B119
:10465000EA681119E9606B68934208D82A690AB1BF
:10466000013A2A61B1FBF3F203FB1211E960002069
:1046700038BD40F2FB110248FFF76CFCE8E700BFD1
:104680007C7A01082DE9F041804616460F4679B143
:10469000FB6838680021B1420FD2C25C08F80120E3
:1046A00001337C68B3FBF4F504FB15330131F2E709
:1046B000B9210548FFF74EFCEAE731463846FFF7D7
:1046C000C3FF0020BDE8F0817C7A01082DE9F843A2
:1046D0000F4690469946044638B167B1B8F1000FCD
:1046E0000FD025683E787F7836E040F211112C48D3
:1046F000FFF730FCF1E74FF489712948FFF72AFCF6
:10470000ECE740F213112648FFF724FCE9E7B9F182
:10471000020F14D0002201339BB2B3FBF1F601FB70
:1047200016339BB2EB5C02EB032292B2904231D380
:104730009AB321464046FFF7A5FF002028E0013349
:104740009BB2B3FBF1F201FB12339BB2EA5CE2E7EE
:1047500001212046FFF778FF2046FFF761FF80B276
:10476000E1688BB290B1EA5CB242F1D101339BB205
:104770006168B3FBF1F201FB12339BB2EA5CBA420F
:10478000C5D001212046FFF75FFFE5E76FF003008A
:10479000BDE8F8834FF0FF30FAE74FF0FF30F7E75E
:1047A0007C7A010870B50D461646044608B1002310
:1047B00006E04FF413710D48FFF7CCFBF7E7013328
:1047C000AB4212D22268A068411CA160F15C115476
:1047D000A16862689142F2D3002020726072A072D8
:1047E000E072206901302061E9E770BD7C7A010840
:1047F00038B50D46044658B10020691E6DB12346F8
:1048000013F8012B42400548805C0D461C46F4E736
:10481000C9210348FFF79EFBEEE738BDD87A0108AF
:10482000A87A010838B50D46044610B1A5B100219B
:104830000CE0DC210B48FFF78DFBF7E7234613F86C
:10484000012B4A400849895C05461C46681E002D1C
:10485000F4D121B9002038BD4FF0FF30FBE74FF015
:10486000FF30F8E7A87A0108D87A010830B4044686
:1048700000202070FF2565706160A260E36030BC9D
:1048800070474378FF2B01D0012303707047012349
:104890000B7000224A704B6818809A707047002392
:1048A0000370FF23437070474378FF2B01D0012032
:1048B0007047002070472DE9F84305460027077030
:1048C0004078FF2870D06C6804EB80044FF001083A
:1048D000FF2023E06B7801336B70C7F30E0324F8DD
:1048E000043F0023A370012E10D1AB68228853F837
:1048F0002220A37803EB430302EB430932F8137041
:1049000032F91330002BE5DB0026ECE7EB6853F8B7
:1049100027309847FF2806D1FE20B046B8F1010F96
:1049200042D14646DFE7FD2805D099F8041099F8F2
:104930000500C44625E099F8021099F80300F8E74D
:104940006B7823B9FF226A709C46984619E0013BB8
:104950006B70AB6834F8041D53F82110A37803EB97
:10496000430301EB43097F2A04D099F8041099F816
:10497000050006E099F8021099F8030001E0C4462A
:10498000B046B8F1010F0DD101F07F02A2F17E0314
:10499000DBB2012BD4D9A27011F0800FEFD1B44655
:1049A000B046EEE76646B8E7BDE8F88308B5037899
:1049B000012B01D0FF2008BDFFF77DFFFBE720B1F1
:1049C00008B509F079F8002008BD6FF005007047C0
:1049D00012490A688B68C3EB032313444A68934265
:1049E00000D1704710B50C46531C4B60023201EBEE
:1049F00082025068FFF7E3FF6268FE2A0CD9A368C1
:104A00000BB1013BA360064BA3FB0213DB09C3EB15
:104A10000323D31A014A536010BD00BF4C0C002081
:104A20008180808030B59FB0224D2C68AB68C3EB8D
:104A300003231C446B68E41A782200216846FBF7C4
:104A400003FE40F25D2300221B490DF10E00FCF72E
:104A5000FFFB0DF10E00FCF773FCAB682246174913
:104A60000DF10E052844FCF7F3FB6846FFF750FAFA
:104A700009E0134BA3FB0213DB09C3EB0323D31A97
:104A80000C4A53602C46651E94B10A4C63685A1C4C
:104A90006260023304EB83035868FFF790FF62689B
:104AA000FE2AEFD9A368002BE3D0013BA360E0E727
:104AB0001FB030BD4C0C002054740108E47B010889
:104AC00081808080F8B5184D44F624620021284684
:104AD000FBF7BAFD154F42F210742246002138460A
:104AE000FBF7B2FD124E224600213046FBF7ACFD2B
:104AF000104B1D6044F620625A600F480268D3686C
:104B000043F01003D3600D4D2A68D36843F01003BF
:104B1000D3602246394606F02DFB22463146284610
:104B200006F028FBF8BD00BF000000102038002070
:104B3000541000200C3800209C390120E03901205D
:104B400008B50146064B1B6800225A6042F21072FB
:104B5000044806F00FFB00B908BD4FF0FF30FBE73B
:104B60003C3901209C39012008B50146064B1B68E1
:104B700000225A6042F21072044806F0FBFA00B9B3
:104B800008BD4FF0FF30FBE71C380120E039012061
:104B900038B50C46054688B10B2323801048FFF733
:104BA0003FFD6B88032B13D00DD8022B04D822466F
:104BB0000C490B4801F0C2F8002038BDE8210A4832
:104BC000FFF7C8F9E8E7042BF6D1FFF701FFF3E799
:104BD00022460449D5F8060001F0B0F8ECE700BF22
:104BE0000C380020B0370020047C010810B50446C2
:104BF000FFF747FE2046FFF7D9FEFF2803D0034BFF
:104C000033F8100010BD4FF0FF30FBE7D87B0108F0
:104C100010B5042903D90A48FFF7E8FF10BD044680
:104C20000748FFF741FE012806D00A2CF3D80449B3
:104C30002046FFF72CFEEEE70148FFF730FEF4E7D1
:104C400080370020F0B5A1B00024ADF87E402B489D
:104C5000FFF7CCF9FFF736FF7822214601A8FBF7D2
:104C6000F3FC0DF112077A23032225493846FCF79D
:104C7000EFFA3846FCF764FB06463D18214C0FCC92
:104C8000B8516960AA60EB6020682861A388AB8294
:104C900001A8FFF73DF91C4B1C4A1D491D48FFF7B1
:104CA000E5FD05244FF0FF320BE01B4884780DF141
:104CB0007E01FFF76DFF2146BDF87E00FFF7A8FFDC
:104CC00002461549032001F0A2F888B9124BD3F827
:104CD0000640002CE9D01D46104E9A8821463046E9
:104CE000FBF7B0FB204608F0E7FEC5F80660DCE7FE
:104CF00010F1020FDFD10624DDE700BFB03700203E
:104D000054740108307C0108D87C0108AC7C01088F
:104D10009037002080370020400C00206C370020A6
:104D20001A4B1B681B6813F0100F00D1704710B5A9
:104D300084B0164C204605F0F9FE154B1B685968E7
:104D40000023039323681A6803925B680393039B11
:104D5000C1F51C511031092912D80E4C42F21072C3
:104D600000212046FBF770FC002300930122032161
:104D7000084601F013F82046FFF7E2FE04B010BD2C
:104D8000044A0548FFF70EFDE7E700BF9C39012004
:104D90003C390120203800200C3800201A4B1B68B9
:104DA0001B6813F0100F00D1704710B584B0164C7B
:104DB000204605F0BBFE154B1B6859680023039382
:104DC00023681A6803925B680393039BC1F51C5127
:104DD0001031092912D80E4C42F2107200212046DF
:104DE000FBF732FC0022009213460321084600F034
:104DF000D5FF2046FFF7B8FE04B010BD044A0548B1
:104E0000FFF7D0FCE7E700BFE03901201C380120A4
:104E1000541000200C38002000285ED02DE9F0410D
:104E20009EB0044621B96FF005001EB0BDE8F081C8
:104E30008AB201462C4805F02BFE054600284FD1CA
:104E40002A4A1368591C1160B3F57A7F02D04FF0DB
:104E5000FF30EAE74FF07808424600216846FBF74A
:104E6000F3FB234F4FF4DF73002239460DF10E00A0
:104E7000FCF7EEF90DF10E00FCF762FA064608F0B9
:104E800059FE02461B490DF10E039819FCF7E0F993
:104E90006846FFF73DF8424600216846FBF7D4FB21
:104EA00040F2BF13032239460DF10E00FCF7D0F992
:104EB0000DF10E00FCF744FA2B46227A0E490DF153
:104EC0000E042044FCF7C4F96846FFF721F8074BAD
:104ED00000221A604FF0FF30A7E76FF0050070471F
:104EE0004FF0FF30A1E700BFE03901206437002018
:104EF00054740108D8740108487C0108002859D06E
:104F00002DE9F0419EB00446002956D08AB20146F0
:104F10002D4805F0BDFD0546002851D12B4A1368E8
:104F2000591C1160B3F57A7F03D000201EB0BDE894
:104F3000F0814FF07808424600216846FBF784FB79
:104F4000234F40F2DF13002239460DF10E00FCF72B
:104F50007FF90DF10E00FCF7F3F9064608F0EAFDC3
:104F600002461C490DF10E039819FCF771F96846C9
:104F7000FEF7CEFF424600216846FBF765FB4FF483
:104F8000F073032239460DF10E00FCF761F90DF1C3
:104F90000E00FCF7D5F92B46227A0F490DF10E04CD
:104FA0002044FCF755F96846FEF7B2FF0020074B96
:104FB0001860BBE76FF0050070476FF00500B5E7BC
:104FC0004FF0FF30B2E700BF9C3901206837002066
:104FD00054740108D87401086C7C0108014B1878DE
:104FE000704700BFB0370020014B9878704700BF72
:104FF000B03700202DE9F04F83B081468846174630
:105000001E460D9DFFF7EAFF8346FFF7EDFF019077
:10501000324BD3F808A0BAF1000F18D170190A303A
:1050200008F0CCFC044628B1B8F1000F02D0B9F169
:10503000000F10D1002C47D05DB30C9B53B305F18A
:10504000FF3A524619462046FBF7FCF922E0FFF7EB
:10505000E9FC002438E0272303704423437006F161
:105060000A039DB24380019B43EA0B2BA0F804B0D6
:10507000A0F8069080F80880324639460930FBF7E0
:10508000E1F9691E2046FFF7B3FB6388013BE0545A
:1050900010E0AA463246394604EB0A00FBF7D2F983
:1050A0003544A9B2658001392046FFF7A1FB63882A
:1050B000013BE054094B1A68511C1960023203EBA2
:1050C00082035C60FF2903D0204603B0BDE8F08F67
:1050D000024B00221A6001229A60F5E74C0C002076
:1050E000704710B584B0044605F0ECFF8DF80F0052
:1050F00094F83D3013F0200F01D104B010BD00230F
:10510000009304220321084600F048FEF5E7000062
:1051100010B59EB00446782200216846FBF794FA49
:1051200040F2312303220A490DF10E00FCF790F8FA
:105130000DF10E00FCF704F9226C06490DF10E0387
:105140001844FCF785F86846FEF7E2FE1EB010BD75
:1051500054740108907C01080023032B13D830B449
:10516000047A1D46084A32F82320144205D101333F
:105170009BB2032BF4D930BC7047034B03EB85057E
:105180006B880B80F7E770475C7E010830B5A1B0F3
:1051900005460C46002935D0B5F809302380237820
:1051A000013323706378013363700023019300930C
:1051B0005B2322468121FF20FFF71CFF054638B301
:1051C0007822002102A8FBF73FFA40F2964303221F
:1051D00011490DF11600FCF73BF80DF11600FCF734
:1051E000AFF8637822780D490DF116042044FCF7DE
:1051F0002FF802A8FEF78CFE69882846FFF77EFE8E
:1052000021B030BD40F287410548FEF7A3FEC3E759
:105210004FF0FF30F4E700BF54740108987D010897
:10522000687D010870B403881B0A02460B492624D6
:1052300004FB03132030166855689468D1681E601B
:105240005D609C60D960103210338242F3D11168E6
:10525000196092889A8070BC704700BF0C6500206E
:1052600070B50E46054690B1BDB1E6B1002495F883
:10527000D035A3421DD35B2000FB04500C223146E5
:105280000330FBF7AFF8B0B10134E4B2EFE740F21E
:105290000F510A48FEF75EFEE6E74FF4A2610748A9
:1052A000FEF758FEE1E740F211510448FEF752FEC6
:1052B000DCE7002070BD4FF0FF30FBE7687D0108A0
:1052C000F0B59FB00E4615460446002843D0002C8A
:1052D00047D0002E4BD094F8D035102B71D80F2B1F
:1052E0004BD85A1CD2B284F8D0255B2303FB024270
:1052F00037687068B168C2F80370C2F80700C2F876
:105300000B1094F8D02503FB02F31833234405F166
:105310001B02033305F15B0C176856689068D1686F
:105320001F605E609860D960103210336245F3D11F
:1053300094F8D0152A785B2303FB01F3E618E254B6
:105340006B787370AB78B37004F038FAC6F813005A
:1053500000201FB0F0BD4FF4A6612C48FEF7FAFD07
:10536000B5E740F231512948FEF7F4FDB1E740F2CC
:1053700032512648FEF7EEFDADE77822002168465F
:10538000FBF762F90DF10E074FF4A76303222049E2
:105390003846FBF75DFF3846FBF7D2FF06463D185F
:1053A0001C4C0FCCB8516960AA60EB6003CC28613B
:1053B000696123782B766846FEF7AAFD4FF0FF302F
:1053C000C7E7782200216846FBF73EF90DF10E078A
:1053D00040F2455303220E493846FBF739FF384661
:1053E000FBF7AEFF06463D180A4C0FCCB85169607A
:1053F000AA60EB6003CC2861696123782B7668464C
:10540000FEF786FD4FF0FF30A3E700BF687D01087F
:1054100054740108B47D01082DE9F041A0B00C4698
:105420001546064650B17CB131462046FFF718FFBD
:10543000074678B1384620B0BDE8F08140F2EE4131
:105440002948FEF787FDEEE740F2EF412648FEF7D8
:1054500081FDE9E72A4631462046FFF731FF07463E
:1054600000283DD14FF078084246002102A8FBF702
:10547000EBF81E4D40F2F943032229460DF11600C8
:10548000FBF7E6FE0DF11600FBF75AFFB368009339
:105490007368326816490DF116063044FBF7D8FEE2
:1054A00002A8FEF735FD4246002102A8FBF7CCF822
:1054B00040F2FB43032229460DF11600FBF7C8FE1C
:1054C0000DF11600FBF73CFF94F8D02509490DF1CA
:1054D00016031844FBF7BCFE02A8FEF719FDA9E766
:1054E0004FF0FF37A6E700BF687D0108547401083C
:1054F000D07D0108E07D010830B585B00C46054639
:1055000098B1C4B122466B4652F8030F51689268B5
:1055100007C3224629466846FFF77EFF8DF80F0035
:105520009DF80F0040B205B030BD40F2C3410548C0
:10553000FEF710FDE5E740F2C4410248FEF70AFD20
:10554000E0E700BF687D0108FD20704710B5FFF758
:1055500045FD0446FFF748FD094B1A68D188127AC9
:10556000230243F008031BB20B401BB223B112F01D
:10557000800F03D1FD2010BDFE20FCE7FE20FAE7DE
:10558000305F0020FD207047F0B583B00E4D2B68D2
:1055900003F109065F88FFF721FD0446FFF724FDAC
:1055A0002B68DB88240244F0FF04A34202D0FE20D3
:1055B00003B0F0BD0097334604220321052000F01C
:1055C000EDFBFD20F4E700BF305F0020704770471F
:1055D00038B5084B1D68FFF701FD0446FFF704FDD1
:1055E000EB88A4B2B4EB132F01D1FD2038BDFE200F
:1055F000FCE700BF305F002070477047704770477E
:10560000FD20704770B5A0B01B4B1B681C7AFFF7DC
:10561000E5FCFFF7E9FC032C02D0FE2020B070BDB2
:105620007822002102A8FBF70FF80DF1160640F2D0
:10563000B913032211493046FBF70AFE3046FBF747
:105640007FFE054634180E4B07CB70516160A26097
:105650001A889B78A281A37302A8FEF759FC002345
:10566000019300935B23074A12688321FF20FFF711
:10567000C1FCFD20D2E700BF305F00205474010858
:10568000FC7D01086C67002010B582B0FFF7A6FC16
:105690000446FFF7A9FC094B1B68DA88A4B2B4EBF7
:1056A000122F02D0FE2002B010BD00220092032172
:1056B000012000F073FBFD20F5E700BF305F002004
:1056C0001B4B1B68197ADA884FF6FF739A422DD16B
:1056D000012901D0FE20704770B59EB078220021CC
:1056E0006846FAF7B1FF0DF10E064FF4F773032287
:1056F00010493046FBF7ACFD3046FBF721FE05466E
:1057000034180D4B07CB70516160A2601A889B78EA
:10571000A281A3736846FEF7FBFB084B1968044B94
:105720001868FFF733FDFD201EB070BDFE207047E6
:10573000305F0020547401080C7E01086C67002063
:1057400008B5FFF74BFC074B1968CB8880B2B0EB6C
:10575000132F01D0FE2008BD09310348FFF7CCFE0E
:10576000FD20F8E7305F0020385F002008B5054BCA
:1057700018684188FFF756F808B9FD2008BDFE20DB
:10578000FCE700BF305F002038B5084B1D68FFF70D
:1057900025FC0446FFF728FCEB88A4B2B4EB132FDA
:1057A00001D1FD2038BDFE20FCE700BF305F0020A6
:1057B0002DE9F04782B06A4C4FF4FA62002120468E
:1057C000FAF742FF674B1B68B3F802A0AAF10A0A76
:1057D00000263746B146B04688E000230F2B0AD892
:1057E00005EB4302D1880A0A02EB012224F8022BBE
:1057F0000133DBB2F2E708F1260873E0FBF728FC7F
:1058000000F00F07002113E005EB8103D3F8063009
:10581000FA18130203F47F0303EB0263100A00F487
:105820007F40034403EB126344F8043B0131C9B2E7
:105830000729E9D9B9F1030F02D809F1010951E0AB
:1058400008F126084FF000094CE000230F2B0AD87E
:1058500005EB4302D1880A0A02EB012224F8022B4D
:105860000133DBB2F2E7B9F1030F02D809F1010904
:1058700038E008F126084FF0000933E000230F2B31
:105880000AD805EB4302D1880A0A02EB012224F868
:10589000022B0133DBB2F2E7B9F1030F02D809F1B1
:1058A00001091FE008F126084FF000091AE005EB96
:1058B0008103D3F80630FA18130203F47F0303EBD5
:1058C0000263100A00F47F40034403EB126344F8C0
:1058D000043B0131C9B20729E9D9B9F1030F2CD82A
:1058E00009F10109042E2DD00136F6B2D04533D28C
:1058F0001C4B1D68093545442846FFF793FC2A8850
:10590000130A03EB022323806A88130A03EB0223A2
:105910006380AA88130A03EB0223A38006342B8832
:10592000DBB2012B3FF459AF102B3FF467AF022BD2
:105930008BD0082BA2D00021CDE708F126084FF02C
:105940000009CFE7BE230093054B0022032101206D
:1059500000F024FA0026C9E7FD2002B0BDE8F08778
:10596000244E0010305F00202DE9F04F85B0744EBA
:105970004FF4FA6200213046FAF766FE714B1B685D
:105980005B88A3F10A0B4FF00008CDF80880C246EF
:10599000C1469EE000270F2F0CD805EBC70004EB93
:1059A0004703DB88684A08213044FBF7EDFB0137E9
:1059B000FFB2F0E78035029B2B4402932E4409F19D
:1059C00026097FE0FBF744FB00F00F030027CDF82A
:1059D0000C90994613E007EB470005EB800004EBC1
:1059E0008703D3F8062009EB07031343574A0C211A
:1059F000DFF84CC16044FBF7C7FB0137FFB2072F4C
:105A0000E9D9DDF80C90BAF1030F02D80AF1010AC6
:105A100058E009F126094FF0000A53E000270396E9
:105A20000F2F0DD805EBC70004EB4703DB88484A6E
:105A30000821434E3044FBF7A7FB0137FFB2EFE7E5
:105A4000039EBAF1030F02D80AF1010A3AE009F104
:105A500026094FF0000A35E0002703960F2F0DD8D6
:105A600005EBC70004EB4703DB88394A0821344EB5
:105A70003044FBF789FB0137FFB2EFE7039EBAF131
:105A8000030F02D80AF1010A1CE009F126094FF0C0
:105A9000000A17E007EB470005EB800004EB8703E3
:105AA000D3F80630294A0C21DFF894C06044FBF794
:105AB0006BFB0137FFB2072FECD9BAF1030F2BD8DC
:105AC0000AF1010AB8F1040F2BD008F101085FFABE
:105AD00088F8D94530D21B4B1C6809344C44204609
:105AE000FFF7A0FB22886388A188009119493046FE
:105AF000FBF7AEFB3046FBF723FC05462388DBB201
:105B0000012B3FF447AF102B3FF45CAF022B85D045
