:020000040802F0
:100000000000022055AE0308DD9E0208DF9E0208B4
:10001000E19E0208E39E0208E59E0208000000003F
:1000200000000000000000000000000001000308C4
:10003000E79E020800000000A100030829F502085D
:10004000A5AE0308A5AE0308A5AE0308A5AE030838
:10005000A5AE0308A5AE0308A5AE0308A5AE030828
:10006000A5AE0308A5AE0308A5AE0308E99E0208E5
:10007000A5AE0308A5AE0308A5AE0308A5AE030808
:10008000F99E0208A5AE0308A5AE0308A5AE0308B5
:10009000A5AE0308A5AE0308A5AE0308099F020894
:1000A000A5AE0308159F0208A5AE0308A5AE030878
:1000B000259F0208359F0208459F0208A5AE030848
:1000C000A5AE0308A5AE0308A5AE0308A5AE0308B8
:1000D000A5AE0308559F0208A5AE0308A5AE030808
:1000E000A5AE0308A5AE0308A5AE0308A5AE030898
:1000F000A5AE0308A5AE0308659F0208A5AE0308D8
:10010000A5AE0308A5AE0308759F0208A5AE0308B7
:10011000A5AE0308A5AE0308859F0208959F0208B7
:10012000A5AE0308A59F0208B59F0208A5AE030867
:10013000A5AE0308C59F0208A5AE0308A5AE030837
:10014000A5AE0308A5AE0308A5AE0308A5AE030837
:10015000A5AE0308D59F0208E59F0208F59F020897
:10016000A5AE0308A5AE0308A5AE0308A5AE030817
:10017000A5AE0308A5AE0308A5AE03080000000065
:08018000A5AE0308A5AE0308BB
:1001C0000348044B834202D0034B03B118477047E6
:1001D000BC040020BC0400200000000005480649C3
:1001E0000B1AD90F01EBA301491002D0034B03B145
:1001F00018477047BC040020BC0400200000000029
:1002000010B5064C237843B9FFF7DAFF044B13B15E
:100210000448AFF300800123237010BDF8040020D0
:1002200000000000A8AE030808B5044B1BB1044948
:100230000448AFF30080BDE80840CFE700000000AD
:10024000FC040020A8AE03080A22002101F040BFF0
:100250000A23002201F02EBF0CB400B583B004AB1A
:1002600053F8042B019300F045FB03B05DF804EB59
:1002700002B070470EB410B583B005AB064C53F80E
:10028000042B01930146206800F034FB03B0BDE865
:10029000104003B0704700BF0000002070B50D4E45
:1002A0000D4D761BB61006D00024013455F8043BE2
:1002B0009847A642F9D1094E094D761B1AF0F4FD74
:1002C000B61006D00024013455F8043B9847A642E6
:1002D000F9D170BD982E0508982E05089C2E0508AA
:1002E000982E050870B50C46B1F90E10002996B08D
:1002F00016461D4613DB6A4602F04CFA00280EDB58
:10030000019A02F47042A2F50052B2FA82F2520946
:100310004FF4806300202A60336016B070BDA3895B
:1003200000221B062A6004D540230020336016B04B
:1003300070BD4FF480630020336016B070BD00BF05
:100340008A8992070B4606D501F1470201211A60FE
:10035000C3E90421704770B582B001AB6A460C4610
:100360000646FFF7BFFF00990546304600F01AFA2F
:10037000B4F90C3070B11649B162019A009920604D
:1003800043F08003A381C4E904018AB92B43A3810C
:1003900002B070BD9A05FBD423F0030304F14702B9
:1003A00043F002030121A3812260C4E90421EFE7A5
:1003B0003046B4F90E1002F0D5FB10B9B4F90C3088
:1003C000E4E7A38923F0030343F001031BB2DDE755
:1003D00089250208024B0146186800F0E3B900BF06
:1003E00000000020024B0146186800F085B900BFEC
:1003F00000000020032A70B412D940EA0105AD07BD
:1004000004460B4620D11946204653F8045B54F8A5
:10041000046BAE4218D1043A032A20461946F2D89A
:10042000541E72B103780A789A4208BF241806D085
:100430000CE010F8013F11F8012F934206D1A042C1
:10044000F7D1002070BC7047541EEBE7981A70BCBF
:10045000704700BF844641EA000313F003036DD1E7
:10046000403A41D351F8043B40F8043B51F8043B77
:1004700040F8043B51F8043B40F8043B51F8043B7E
:1004800040F8043B51F8043B40F8043B51F8043B6E
:1004900040F8043B51F8043B40F8043B51F8043B5E
:1004A00040F8043B51F8043B40F8043B51F8043B4E
:1004B00040F8043B51F8043B40F8043B51F8043B3E
:1004C00040F8043B51F8043B40F8043B51F8043B2E
:1004D00040F8043B51F8043B40F8043B51F8043B1E
:1004E00040F8043B403ABDD2303211D351F8043BBE
:1004F00040F8043B51F8043B40F8043B51F8043BFE
:1005000040F8043B51F8043B40F8043B103AEDD26C
:100510000C3205D351F8043B40F8043B043AF9D2BD
:10052000043208D0D2071CBF11F8013B00F8013B90
:1005300001D30B8803806046704700BF082A13D39D
:100540008B078DD010F003038AD0C3F10403D21AB5
:10055000DB071CBF11F8013B00F8013B80D331F8E9
:10056000023B20F8023B7BE7043AD9D3013A11F869
:10057000013B00F8013BF9D20B7803704B784370D4
:100580008B788370604670478842F0B40DD98B1821
:1005900083420AD9841832B1224613F8014D02F879
:1005A000014D9942F9D1F0BC70470F2A0ED803468D
:1005B000541E002AF7D001340C44013B11F8012BE2
:1005C00003F8012FA142F9D1F0BC704740EA0103C2
:1005D0009B073BD1A2F110073F0901F1200606EB72
:1005E000071601F1100300F1100453F8105C44F8F1
:1005F000105C53F80C5C44F80C5C53F8085C44F84D
:10060000085C53F8045C44F8045C1033B34204F112
:100610001004EAD17B1C1B0112F00C0F194402F0EC
:100620000F05034415D0043DAD0803EB850C1C1FDA
:100630000E4656F8047B44F8047F6445F9D1013531
:10064000AD002B44294402F00302B1E7541E0346D7
:10065000B1E72A46ACE700BFF0B4860746D0541E87
:10066000002A3CD0CAB2034602E014F1FF3436D36C
:1006700003F8012B9D07F8D1032C29D9CDB245EA07
:1006800005250F2C45EA054533D9A4F11006360996
:1006900003F1200707EB061703F1100242E90455A6
:1006A00042E902551032BA42F8D1721C14F00C0F14
:1006B00003EB021204F00F0613D0331F23F00303E1
:1006C0000433134442F8045B9342FBD106F0030465
:1006D0002CB1C9B21C4403F8011B9C42FBD1F0BCF5
:1006E000704734461346002CF3D1F8E7144603460E
:1006F000C2E71A462646E0E700293CD038B551F853
:10070000043C0C1F002BB8BFE418054602F0A8FA01
:10071000234B1A682AB1A2420DD92168601882427F
:1007200023D0626028461C60BDE8384002F09ABAC7
:10073000A34203D81A465368002BF9D11168501808
:10074000A04219D024D821686018834206D0636083
:1007500054602846BDE8384002F084BAD3E900036B
:100760000144636021605460F3E7D2E90002014470
:1007700062602160D6E770472068014450188342C8
:100780001160E6D1D3E90003014453601160E0E752
:100790000C232B602846BDE8384002F063BA00BF46
:1007A00014050020F8B5CD1C25F0030508350C2DE7
:1007B00038BF0C25002D064633DBA94231D82A4F1D
:1007C00002F04EFA3A6852B113685B1B04D43FE062
:1007D00023685B1B29D522465468002CF8D1796820
:1007E00000293BD02946304600F082FC431C28D02B
:1007F000C41C24F00304A04205D0211A304600F0A6
:1008000077FC01301DD02560304602F02BFA04F150
:100810000B0020F00700231DC21A01D01B1AA350A1
:10082000F8BD0C2232600020F8BD0B2B05D8A24287
:10083000636811D05360E7E7144623601C442560C9
:10084000E2E70C233046336002F00CFA0020F8BDDA
:100850000B2BF1D8536814463B60D5E7304600F0C7
:1008600047FC7860BEE700BF140500209368013B99
:10087000002B936011DA10B49469A34209DB0A29B2
:1008800007D01368581C1060197008465DF8044BB7
:1008900070475DF8044B01F06BBC1368581C106086
:1008A00019700846704700BF9BB1F8B513440F4656
:1008B00006465D1E541E01E0AC4208D03A4614F8CC
:1008C000011F3046FFF7D2FF431CF5D1F8BD0020D1
:1008D000F8BD0020704700BF936810B5144613B9E7
:1008E0005360184610BD01F069FF0023C4E90133CD
:1008F00010BD00BF2DE9F04F9FB08B4690461C46BF
:10090000039018B18369002B00F0B780A24B9B4580
:1009100000F0B980A14B9B4500F0C780A04B9B45E0
:1009200004BF039BD3F80CB0BBF80C30180740F1A0
:10093000B280DBF81030002B00F0AD8030238DF852
:10094000323098F800300594002120220B918DF868
:100950003120944E0127002B00F08780252B00F0DA
:100960001581454603E0252B00F0A38025466B78D2
:100970006C1C002BF7D1B4EB080A76D042465346E4
:1009800059460398FFF790FF01306ED00B9B6A78B1
:1009900053440B93002A68D000234FF0FF320134F8
:1009A0000693CDE908338DF85B301C93079205E080
:1009B000069A07FA03F313432C46069325460522AD
:1009C00015F8011B304602F0FBF8AA46831B0028ED
:1009D000EED1069BD90644BF20228DF85B202178FA
:1009E0001A0744BF2B228DF85B202A2966D1059A6D
:1009F0001168043200290592C0F29D800991617846
:100A0000A51C2E2973D0684C0322204602F0D8F88A
:100A1000002800F08680001B069B402404FA00F0AA
:100A20000343069305F10108297860488DF83010DA
:100A3000062202F0C5F8002800F083805C4B002BF2
:100A400072D005AB00935A465A4B039806A9AFF3F0
:100A500000808146B9F1FF3F07D00B9B4B440B93BD
:100A600098F80030002B7FF479AFBBF80C305B06B0
:100A700018D40B981FB0BDE8F08F01F06BFE464B09
:100A80009B457FF447AF039BD3F804B0BBF80C3011
:100A900018073FF54EAF5946039801F0DFFB0028D9
:100AA0003FF44CAF4FF0FF30E4E7039BD3F808B0BE
:100AB0003AE7B4EB080A3FF46FAF5FE7A1F1300209
:100AC000092A88BFA2469CD8099B01E02C46013523
:100AD000297803EB830302EB4303A1F13002092AD7
:100AE000AA46F3D92E2904F1020509938BD19AF86D
:100AF00001102A292FD1059B9AF802101A68079233
:100B00000433002A05930AF103050AF1020338DBD6
:100B1000254C032220469A4602F052F800287FF422
:100B20007AAFA84655467FE7059B073323F00703B6
:100B30000833059391E7494243F002030991069374
:100B40005DE705AB00935A461A4B039806A900F0DF
:100B5000D5F881467EE7A1F130020023092A0793E8
:100B600001D915E05546697803EB830302EB430393
:100B7000A1F13002092A05F1010AF3D902350793E0
:100B800041E74FF0FF329A4607923CE7444603E7BD
:100B9000AA46013537E700BF10B00308F0AF0308DD
:100BA000D0AF0308C82D0508D02D0508D42D0508A1
:100BB00000000000A908020810B4044C13460A46BD
:100BC000014620685DF8044BFFF794BE000000204A
:100BD0002DE9F0470C4691460A698968DDF82080C6
:100BE0008A42B8BF0A46C9F8002094F84310064666
:100BF0001F4611B10132C9F80020236899065CD55F
:100C0000D9F800200232C9F80020236813F0060F3B
:100C100019461DD1E1688A1A002AD8BF194617DD86
:100C200004F1190A002505E0E368D9F800209B1AB1
:100C3000AB420CDD0123524639463046C0470130F5
:100C400005F10105F0D14FF0FF30BDE8F0872168D4
:100C500094F84330003318BF01238A060AD5E118FF
:100C60005A1C302081F84300224494F8451082F841
:100C70004310023304F1430239463046C047013085
:100C8000E1D02368A268216903F00603042B1DD07C
:100C90008A4226DD4FF00009521A91441A34002589
:100CA00001E04D451DDA0123224639463046C04752
:100CB000013005F10105F4D1C5E713F0060F13D09B
:100CC00094F84330003318BF0123D3E7D9F800006C
:100CD000E3688A42A3EB000323EAE379DCDC002B20
:100CE000DCDC0020BDE8F087E168D9F800208A1A32
:100CF000002AD8BF194693DCAAE700BF2DE9F043CC
:100D00000C46097E85B06E29064617460C98984613
:100D100004F1430E6DD039D9732900F0F68044D91F
:100D2000752900F00481782940F011817823226828
:100D3000DFF858C284F845300168150651F8043BC5
:100D4000016040F1A180D10744BF42F0200222603F
:100D5000002B00F093801022002184F8431060687B
:100D6000A0600028C0F2C880216821F00401216041
:100D7000002B40F0A380002840F0C0807546082A70
:100D800000F0AC80AEEB0503236141E0632900F085
:100D9000E5801AD8002938D0582940F0D88084F846
:100DA00045102268DFF8E8C1C6E76F2900F0BF8070
:100DB000702940F0CC802268DFF8D0C142F02002D8
:100DC0007823226084F84530B6E7642902D0692987
:100DD00040F0BD8022680368110603F1040557D571
:100DE000196805600B46002959DBDFF8A4C10A2207
:100DF000B5E70368226861691D1D056015061B685B
:100E000002D4500600F1BD801960002375462361AD
:100E1000CDF800803B4603AA21463046FFF7D8FEB6
:100E2000013020D02A46236939463046C047013078
:100E300019D022680398E368920719D51A1A002A74
:100E400016DD04F11909002504E0E36803981A1A75
:100E5000AA420DDD01234A4639463046C0470130DB
:100E600005F10105F1D14FF0FF3005B0BDE8F08389
:100E70009842B8BF184605B0BDE8F083226822F05A
:100E800020022260102267E7500648BF9BB25AE753
:100E90005106A5D5B3F9003005601946A3E761688E
:100EA000A1602D200029C3F1000384F8430002DB78
:100EB00022F004022260DFF8D8C00A22754600E062
:100EC0000B46B3FBF2F102FB113093421CF8000019
:100ED00005F8010DF4D2082A7FF454AF2368DB072C
:100EE0007FF550AF626823699A423FF74BAF3023DA
:100EF00005F8013C013D45E7002BDFD19CF80030AF
:100F000084F8423004F1420539E703686268191D2C
:100F100001601D680021284601F052FE002832D0F1
:100F2000401B60602061002384F8433070E7226832
:100F3000036812F0800F03F104051AD01B680560E6
:100F40006F290CBF08220A22DFF844C004E70123FE
:100F500084F84210236104F14205E4E703681A684B
:100F6000191D0123016004F1420584F84220236128
:100F7000D9E712F0400F0DBF1B6805601B880560A4
:100F8000DEE7198041E76068CCE700BFF02D050877
:100F9000DC2D05080EB410B5044683B008B1836992
:100FA00063B106A803460190059AA1682046FFF7A1
:100FB000A1FC03B0BDE8104003B0704701F0CAFBCC
:100FC000EFE700BF0FB410B50B4B1C6882B00CB13B
:100FD000A36963B105A803460190049AA16820465D
:100FE000FFF788FC02B0BDE8104004B0704720460F
:100FF00001F0B0FBEEE700BF0000002038B5124B57
:101000001C68A26B05461AB10023C2E9045338BD1F
:101010001820FFF7DFF90246A06378B10120002114
:101020000A4B1360C2E904010B2309480949938163
:101030000023C2E90101C2E9045338BD064B074849
:10104000422101F08BF900BF000000200E33CDAB30
:1010500034126DE6ECDE0500042E05081C2E050892
:1010600038B51A4B1C68A26B92B1146918495369C0
:10107000184801FB04F100FB0313A4FB0045611CAD
:101080001D4445F1000323F00040C2E9041338BDBC
:101090001820FFF79FF90246A06388B101200021C4
:1010A000C2E904010A480C4C0C4B0D490D4D14606B
:1010B00053600B24034695609481C2E9041338BD44
:1010C000094B0A484E2101F049F900BF00000020F9
:1010D0002DF451582D7F954C0E33CDAB34126DE667
:1010E0002E7F954CECDE0500042E05081C2E05080D
:1010F00038B5074C002305460846236002F00CF97A
:10110000431C00D038BD2368002BFBD02B6038BDBA
:101110004CC9012008B430B5002A9CB0044635DB28
:101120004FF4027302910691ADF8143020A918D043
:10113000013A0B460492079201911F9A4FF6FF75F0
:1011400002A9ADF8165001F091FE421C01DA8B2382
:101150002360029B00221A701CB0BDE8304001B031
:1011600070470B460492079201914FF6FF751F9A44
:10117000ADF8165002A901F079FE431C01DA8B2369
:1011800023601CB0BDE8304001B070478B22026084
:101190004FF0FF30F5E700BF0CB430B5204B00290D
:1011A0009DB01C6837DB4FF4027302900690ADF8D7
:1011B000143021A819D001390346209A04910791CF
:1011C00001904FF6FF7502A92046ADF8165001F0C8
:1011D0004DFE421C01DA8B232360029B00221A7011
:1011E0001DB0BDE8304002B070470346049107913E
:1011F00001904FF6FF75209AADF8165002A92046CF
:1012000001F034FE431C01DA8B2323601DB0BDE8DE
:10121000304002B070478B2323604FF0FF30F5E77A
:10122000000000200CB470B59CB020AC0B4E54F8FC
:10123000042B0291234606916FF0004502A9019408
:101240000795CDE9045601F011FE029B00221A70A9
:101250001CB0BDE8704002B0704700BF0802FFFF3D
:101260000EB430B59CB01FAB0C4C0D4D53F8042B95
:101270000193014602910691206802A96FF0004493
:101280000794CDE9044501F0F1FD029B00221A709C
:101290001CB0BDE8304003B0704700BF0000002024
:1012A0000802FFFF10B50C46B1F90E1001F018FF4F
:1012B000002803DB636D0344636510BDA38923F439
:1012C0008053A38110BD00BF002070472DE9F0417D
:1012D0001646B1F90C201F46D3050C460546B1F958
:1012E0000E1009D422F48052A2813B463246284691
:1012F000BDE8F04100F09CBF0022022301F044FC55
:10130000B4F90C20B4F90E10ECE700BF10B50C4690
:10131000B1F90E1001F038FCA389421C0EBF23F472
:10132000805343F480536065A38110BDB1F90E1062
:1013300001F038B830B4104D10F8012BAB5C03F05D
:101340000303012B11F8013BEC5C04F0030408BF1C
:101350002032012C06D0D21A0AD1002BECD118462B
:1013600030BC70472033D31AE6D0184630BC7047E3
:101370001346184630BC7047C9AE0308C9B200F026
:101380000303002935D07BB10378002B57D0994255
:1013900052D0431C05E013F8012B002A4DD08A429D
:1013A0004AD09A071846F6D170B441EA012604687B
:1013B00046EA064601E050F8044F86EA0405A5F126
:1013C0000132A4F1013322EA050223EA04031343A4
:1013D00013F0803FEFD0037843B1994202D106E089
:1013E0008B4204D010F8013F002BF9D1184670BC95
:1013F00070474BB10378FBB1431C02E00278013324
:10140000D2B199071846F9D10268A2F1013323EA53
:10141000020313F0803F08D150F8042FA2F10133EA
:1014200023EA020313F0803FF6D0037823B110F8CB
:10143000013F002BFBD1704770471046704718469C
:10144000704700BF00000000000000000000000026
:10145000000000000000000000000000000000008C
:10146000A2EB0300704700BF02780B78012A28BF67
:101470009A42F5D16DE9044540EA0104CDE90267DD
:101480006FF0000C4FEA447212B380EA010414F0CA
:10149000070F6AD100F0070420F0070004F00305ED
:1014A00021F007014FEAC505F0E8042314F0040F0A
:1014B000F1E804670CFA05F462EA040266EA04063D
:1014C0000AD063EA0403624667EA0407664603E05B
:1014D000F0E80423F1E8046782FA4CF582EA060496
:1014E000A4FA8CF46CBB83FA4CF583EA0705A5FAE1
:1014F0008CF595B950E9022351E9026782FA4CF55F
:1015000082EA0604A4FA8CF483FA4CF583EA070510
:10151000A5FA8CF52543DBD09CB92DBAB5FA85F434
:1015200024F0070427FA04F1DDE9026723FA04F343
:1015300003F0FF0001F0FF01FDE80445A0EB01000E
:10154000704724BAB4FA84F424F0070426FA04F1AC
:10155000DDE9026722FA04F202F0FF0001F0FF0168
:10156000FDE80445A0EB0100704714F0030F3CD1E7
:1015700010F0030428D150F8082B51F8083B82FAE8
:101580004CF582EA0305A5FA8CF55DB950F8042CF8
:1015900051F8043C82FA4CF582EA0305A5FA8CF571
:1015A000002DE8D02DBAB5FA85F424F0070423FA0B
:1015B00004F122FA04F202F0FF0001F0FF01FDE85D
:1015C0000445A0EB010070474FEAC40420F003007B
:1015D00050F8082B21F0030151F8083B0CFA04F4F1
:1015E00062EA040263EA0403C9E710F003041AD0B4
:1015F000A1EB040120F00300E40750F8042B06D00F
:101600000FD28B785FFAA2F4E41A06D12BB1CB7813
:101610005FFAB2F4E41A00D11BB920465DF8104B12
:10162000704701F1040150F8042BCC0721F00301AD
:1016300051F8043B48D824D222F07F4482FA4CF57A
:1016400094EA1325A5FA8CF50AD165B951F8043B43
:1016500084EA0204B4EB036F0ED150F8042BEBE7DD
:101660004FEA132355E035F07F454DD10878FDE86A
:101670000445C0F1000070474FEA126203F0FF0317
:1016800047E002EA1C4482FA4CF594EA1345A5FAB5
:101690008CF50AD165B951F8043B84EA0204B4EB35
:1016A000034F0CD150F8042BEBE74FEA134330E023
:1016B00015EA1C4528D10B884FEA124229E04FEA6F
:1016C000124203EA1C4324E002F0FF0482FA4CF5C4
:1016D00094EA1365A5FA8CF50AD165B951F8043B73
:1016E00084EA0204B4EB032F09D150F8042BEBE792
:1016F0004FEA13630DE015F0FF0F05D10B684FEAB9
:10170000122223F07F4304E04FF00000FDE804457F
:10171000704712BA1BBA82FA4CF482EA0304A4FAA4
:101720008CF5B5FA85F402FA04F203FA04F34FEAF1
:101730001260FDE80445A0EB13607047F8B50AB3EA
:10174000077837B3431C871802E01D78013315B1C1
:101750009F421C46F9D1271AD21B14D00D780E4691
:1017600065B1012A234603D003F8015B013A1C4608
:1017700016F8015F002DF4D1761A37440023237048
:101780003846F8BD1746084600F03AF80744384690
:10179000F8BD0446E2E700BF9AB1012A19D070B43F
:1017A0000B46054601E0E04217D013F8016B05F83F
:1017B000016BEC431444002EF5D1581A013870BC6B
:1017C00070470B4613F8012B002AFBD1581A013839
:1017D000704700220B460270F4E700222A7013F8CB
:1017E000012B002AFBD1581A013870BC704700BF8A
:1017F00000000000000000000000000000000000E9
:1018000090F800F06DE9024520F007016FF0000C40
:1018100010F0070491F820F040F049804FF00004E8
:101820006FF00700D1E9002391F840F000F10800C3
:1018300082FA4CF2A4FA8CF283FA4CF3A2FA8CF3FB
:101840004BBBD1E9022382FA4CF200F10800A4FA62
:101850008CF283FA4CF3A2FA8CF3E3B9D1E90423B6
:1018600082FA4CF200F10800A4FA8CF283FA4CF3ED
:10187000A2FA8CF37BB9D1E9062301F1200182FAA7
:101880004CF200F10800A4FA8CF283FA4CF3A2FAAD
:101890008CF3002BC6D0002A04BF04301A4612BABB
:1018A000B2FA82F2FDE8024500EBD2007047D1E9BE
:1018B000002304F00305C4F100004FEAC50514F04D
:1018C000040F91F840F00CFA05F562EA05021CBF1E
:1018D00063EA050362464FF00004A9E7830730B4CA
:1018E00027D10468A4F1013323EA040313F0803FF5
:1018F000034608D153F8045FA5F1013424EA050436
:1019000014F0803FF6D01C781CB113F8014F002C66
:10191000FBD101399D189D4202F1FF3207D011F829
:10192000014F03F8014B14B1002AF4D11A7030BCF6
:1019300070470346E7E700BF002A46D040EA0103AC
:1019400013F00303F0B425D1032A23D904680D68EA
:10195000AC423CD1043A35D0A4F1013525EA040467
:1019600014F0803F2ED1071D0D1D0DE057F8043BEC
:101970000E68A3F10134B34224EA030427D1043AE8
:1019800020D014F0803F1DD1032A2946384605F1A6
:101990000405EBD803780D789D4202F1FF360ED195
:1019A00086B17BB1044602E082180BD053B114F823
:1019B000013F11F8015FAB42A6EB0402F4D0581BC3
:1019C000F0BC70470020F0BC7047104670470378A9
:1019D0000D789D4202F1FF36E3D0F0E770B440EAA3
:1019E0000104A30727D1032A25D90B460646194629
:1019F00053F8045BA5F1013424EA050414F0803F98
:101A000006D1043A032A46F8045B1946EFD882B19E
:101A100033460C7803F8014B551E74B132442E4402
:101A200005E011F8014FF51A03F8014B2CB19A4269
:101A3000F7D170BC70470646E9E7002DF9D01D4488
:101A4000002203F8012BAB42FBD170BC704700BFF2
:101A5000C9B10278CAB1431C014499421A4616D052
:101A600010B41478013334B199421A4607D014786F
:101A70000133002CF8D1101A5DF8044B7047081A96
:101A80005DF8044B70470846704710467047081AC7
:101A9000704700BF71B138B503460C46002501E020
:101AA000431C054618462146FFF768FC0028F7D17D
:101AB000284638BDFFF762BC2DE9F04F01242546CA
:101AC00088461646AE462A46ADF21C4D07461C46D1
:101AD00000214FF0FF3553189C4206EB05000ED94C
:101AE000805C16F803C0844580F0CC801946012242
:101AF000A3EB050E53189C4206EB0500F0D8CDF879
:101B00000CE04FF0010E724600214FF0FF305318E9
:101B10009C4206EB000C0FD91CF802C016F803908B
:101B2000E14540F2B68019460122A3EB000E53189E
:101B30009C4206EB000CEFD86B1C013098420293DC
:101B400028BFCDE9020E05AB0DF2144243F8044F55
:101B50009342FBD1631E0093002C00F01681009B82
:101B600006AD721E9819019512F8011FD343234444
:101B70003344824245F82130F6D1DDE90223304674
:101B8000F118FEF737FC002840F09680029B013BDD
:101B90000593F31882468146049307EB090E009BD8
:101BA000019A1EF8033052F82330EBB1BAF1000F5E
:101BB00003D0039A934238BFA31A99444FF0000A06
:101BC000A8EB04034B45E8D207EB080044F400619E
:101BD000FFF73EFF8044A8EB04034B45DDD2002015
:101BE0000DF21C4DBDE8F08F029B534538BF5346A4
:101BF0001D46009B9D4218D205EB0902715DB85C41
:101C000088423A4406EB050334D1A4F1020CB444F3
:101C1000C6F1010B05E013F8010F12F8011F88420D
:101C200028D19C450BEB0305F5D1029B9A4580F02A
:101C3000A980059B049A4B441178FA5C91423B447D
:101C400040F0A0800AEB09053D44049A05E012F833
:101C5000010D13F8011D884203D1AB42A3EB0E0C1A
:101C6000F5D10AF1010AE2457DD8039B9944A4EB22
:101C7000030AA5E7029BC3F101039944A9444FF06D
:101C8000000A9DE70CD04FF0010E0D4672467144DC
:101C900021E70BD04FF0010E08467246714436E73B
:101CA000724512BF01321946012214E7724512BF74
:101CB0000132194601222AE7029AA31A934238BF39
:101CC0001346511E013305937318049103930025A5
:101CD00006EB020B07EB050E009A01991EF8023085
:101CE00051F8233083B11D44A8EB04039D42F1D980
:101CF00007EB080044F40061FFF7AAFE8044A8EB5C
:101D000004039D42E6D96AE7029B934217D2EA1880
:101D10009BF80030B95C99423A4429D1A4F1020CF5
:101D2000B4445B46C6F1010905E013F8010F12F84F
:101D3000011F88421ED1634509EB030AF5D1049BBC
:101D40005A1C10D0EA18039BB95C1B7899423A449C
:101D500016D1039B05E013F8010D12F8011D88420E
:101D60000ED1B342F7D170460DF21C4DBDE8F08F95
:101D7000DDF808A0029BC3F101031D445544B3E7FD
:101D8000059BB0E7DDF808C06BE706AB0193F4E60E
:101D90002DE9F0410E46097890B00446002958D04C
:101DA0007278002A00F08D80B078002855D0F37842
:101DB000002B00F08D803379002B5FD03046FFF789
:101DC0001FFD804640F400712046FFF741FE80452C
:101DD00072D8B8F1FE0F00F29280A0EB0807402203
:101DE00008F1010168462744FEF736FCB8F1000F00
:101DF00010D0731E03EB08055FFA88F013F8012F6B
:101E000010A902F03F020A44F11A0144AB4202F861
:101E1000401CF3D1013C10AA14F8083003F03F0332
:101E2000134413F8403C1C44A74203D238E02C442E
:101E3000A74235D314F8085010AB05F03F051D44F8
:101E400042463146204615F8405CFEF7D3FA00289A
:101E5000EDD1204610B0BDE8F081237842EA01427E
:101E600053B3601C617800E0204641EA0343441C00
:101E700011B39A424178F7D1441EEAE72278DAB1E9
:101E8000306800BA02E0834208D00C4642EA0323DD
:101E90006278611C002AF6D183420DD1033CD8E759
:101EA00017F8083007EB080033B14FF40061FFF773
:101EB000CFFD0744A742ADD20024204610B0BDE8B4
:101EC000F081FFF75BFA0446204610B0BDE8F081D0
:101ED0001204237842EA016242EA0022002BEBD08E
:101EE0001B02601C617800E020460B431B02441C6F
:101EF0000029E1D09A424178F6D1841EA9E7014633
:101F0000434620463246FFF7D7FD0446A1E700BF0F
:101F1000F0B418B307460D4617F8016B01E0A6426E
:101F200017D015F8014B002CF9D1E6B117F8015B79
:101F30000C4601E0002BF9D014F8013B9D42F9D189
:101F400055B1002307F8013C176006463046F0BC47
:101F5000704763B13846DDE72F46F5E71068002883
:101F6000D8D10646F2E730461660F0BC70471760DD
:101F700006460370EAE700BF0123FFF7C9BF00BFB1
:101F8000012B2DE9F84F41D0242B98463ED80F461F
:101F9000DFF81CC100E02F463D4615F8014B1CF848
:101FA000046016F00806F6D12D2C6CD02B2C0ABF3D
:101FB00095F800B0A346BD1C002B46D0102B57D07F
:101FC000002E14BF4FF000496FF000490027B9FB05
:101FD000F8FEBC4608FB1E9A07E0E64513D32FD057
:101FE0000CFB084C012715F801BBABF13004092CA0
:101FF00005D9ABF14104192C0FD8ABF13704A3423A
:1020000013DD002FE9DA4FF0FF37ECE700F0DCF9E1
:10201000162303600020BDE8F88FABF16104192C92
:1020200003D8ABF15704A342EBDC002F25DB0EB144
:10203000CCF1000C0AB177BB11606046BDE8F88FA7
:10204000A245CDDA4FF0FF37CDE7BBF1300F03D01B
:102050004FF00A084346B3E72B7803F0DF03582B11
:102060001BD14FF0100895F801B043460235A7E7A1
:10207000BBF1300F15D09846A2E7222303603AB196
:10208000691ECC46D8E795F800B00126BD1C93E741
:10209000CC466046D2E7E146F2E74FF008084346F7
:1020A0008EE72C7804F0DF04582CDAD0984687E7C6
:1020B000C9AE030864E700BF10B4044C13460A46D7
:1020C000014620685DF8044B5AE700BF000000207D
:1020D00010B4044C13460A46014620685DF8044BD0
:1020E0004EE700BF0000002070B5141E9AB00546F0
:1020F0002BDB1A464FF4027300910491ADF80C30BB
:1021000013D0013C4FF6FF761E9B0294694605945E
:10211000ADF80E6000F0AAFE421C01DA8B232B60A2
:10212000009B00221A701AB070BD1E9B02944FF6DD
:10213000FF7669460594ADF80E6000F097FE431CEB
:1021400001DA8B232B601AB070BD8B2303604FF034
:10215000FF30F8E710B5054C82B0009313460A46ED
:1021600001462068FFF7C0FF02B010BD000000204C
:10217000F8B50D461446064608B1836943B3254BAE
:102180009C422AD0244B9C4229D0244B9C4208BF1D
:10219000F468A389A269A2601A0722D5236903B350
:1021A00022686169D31AEDB299422F4629DD0133C5
:1021B000A168501C0139A1602060157062699A42C3
:1021C00016D0A389DB0701D50A2D11D03846F8BDFA
:1021D00000F0C0FA0F4B9C42D4D17468D9E7B468C0
:1021E000D7E72146304600F039F838B92369D7E7F8
:1021F0002146304600F084F90028E7D04FF0FF3741
:10220000E4E72146304600F07BF90028F6D1226849
:102210000123CDE710B00308F0AF0308D0AF0308E7
:10222000024B0A4601461868FFF7A2BF00000020D3
:1022300070B50D46084C114606461A46284600233E
:10224000236001F077F8431C00D070BD2368002B99
:10225000FBD0336070BD00BF4CC901203B4B70B553
:102260001D6806460C460DB1AB69DBB1384B9C428C
:102270001ED0384B9C424AD0374B9C4208BFEC687A
:10228000B4F90C2093B2190718D5206908B313F0DC
:1022900001022CD0636900225B42A361A26060B39B
:1022A000002070BD284600F055FA294B9C42E0D131
:1022B0006C68B4F90C2093B21907E6D4DD063CD55E
:1022C000580726D4206942F00803A3819BB2002856
:1022D000DDD103F42072B2F5007FD8D0304621461C
:1022E000FEF72EF8A389206913F00102D2D19907D5
:1022F00058BF6269A2600028D2D1B4F90C301A0626
:10230000CFD543F04003A3814FF0FF3070BDAC68E0
:10231000B6E7616B51B104F14403994204D03046F1
:10232000FEF7EAF9B4F90C20002363630023206967
:10233000636022F024022060C5E742F040020923D6
:1023400033604FF0FF30A28170BD00BF000000205D
:1023500010B00308F0AF0308D0AF030800B50A4C73
:102360002668054685B01C46F06852B1074B0091BF
:10237000CDE9013206492B462246FDF77BFF00F0EE
:10238000C5FE044B1A46F2E700000020502E050857
:10239000602E0508C8FB030808B513460022FFF7A6
:1023A000DDFF00BF38B5074C002305460846236013
:1023B00000F07AFF431C00D038BD2368002BFBD00F
:1023C0002B6038BD4CC90120014B1868704700BF15
:1023D000000000208B891A072DE9F0410C46804649
:1023E00041D44A68002A59DDE66A002E53D0002203
:1023F000D8F80050216AC8F8002013F4805251D157
:1024000001234046B047431C5FD0A389E66A216A96
:102410005F0705D56268636B801A0BB1236CC01A25
:10242000024600234046B047461C45D1D8F800304C
:10243000B4F90C20002B55D01D2B01D0162B5AD1EE
:1024400023690022C4E90032616BC8F8005011B35F
:1024500004F14403994202D04046FEF74DF90020B2
:102460006063BDE8F0810E69AEB10D680E6099073A
:102470000CBF63690023AD1BA3600AE02B46324604
:10248000A76A216A4046B8470028A5EB0005064424
:102490000ADD002DF2DC0020BDE8F0810A6C002A84
:1024A000A2DCF8E7606DB3E7A38943F04003A381A2
:1024B0004FF0FF30BDE8F0812269A389226000223D
:1024C0006260DA04C0D56065BEE7D8F80030002B42
:1024D0009BD01D2B0CD0162B0AD0A38943F04003B0
:1024E000A381D9E72169C4E90013D304ACD5EAE795
:1024F000C8F80050CFE742F04002A281CCE700BF0D
:102500000B6923B310B5044682B008B18369BBB12F
:10251000104B994212D0104B994216D00F4B994252
:1025200008BFE168B1F90C302BB1204602B0BDE81C
:102530001040FFF74FBF002002B010BD6168F1E707
:10254000019100F007F90199E2E7A168EAE70020AC
:10255000704700BF10B00308F0AF0308D0AF030806
:1025600020B1054B01461868FFF7CABF034B044969
:10257000186800F0CDBA00BF00000020CCAF0308FF
:102580000125020800207047014900F0C1BA00BFD0
:10259000012502080020704770B54A1E682505FB1A
:1025A00002F50E4605F17401FEF7FCF8044640B151
:1025B00000210C30666005F168022160A060FEF722
:1025C0004BF8204670BD00BF1E4B70B51D68AB694F
:1025D000064643B34835D5E90134013B05D51EE035
:1025E000013B5A1C04F1680419D0B4F90C20002AEC
:1025F000F6D10025144B6566C4E90055A560C4E911
:102600000455A5612946E360082204F15C00FEF749
:1026100023F8C4E90D55C4E91255204670BD2C6855
:102620002CB12546D7E7284600F010F8D2E7042160
:102630003046FFF7B1FF044628600028F1D10C2393
:102640003360EAE7CCAF03080100FFFF2DE9F84F44
:10265000334B34491A68816290424FF00003C0E95D
:102660001233036504BF012383610546FFF7ACFF06
:1026700068602846FFF7A8FFA8602846FFF7A4FF78
:102680006E68E86000240423F3607466C6E90044C1
:10269000B460C6E90444B461214606F15C00082236
:1026A000FDF7DAFFDFF888B0AF68DFF888A0DFF861
:1026B0008890DFF888801C4BC6F83080C6E9086B2C
:1026C000C6E90AA92146FB6008227C66C7E90044E6
:1026D000BC60C7E90444BC6107F15C00FDF7BCFFC6
:1026E000EE68124BC7F83080C7E9087BC7E90AA932
:1026F0002146F3607466C6E90044B460C6E9044448
:10270000B46106F15C000822FDF7A6FF0123C6E9CB
:10271000086BC6E90AA9C6F83080AB61BDE8F88F3E
:10272000CCAF03088925020809000100120002004D
:10273000A5120208CD1202080D1302082D1302087B
:10274000024B0349186800F0E3B900BFCCAF03089F
:1027500001250208836903B978E77047704700BF15
:10276000704700BF704700BF704700BF024B03496E
:10277000186800F0A7B900BF0000002085250208F6
:10278000024B0349186800F09DB900BF000000200B
:102790009525020838B50B46074C054611461846E4
:1027A0000023236000F088FD431C00D038BD23685F
:1027B000002BFBD02B6038BD4CC901209368002B47
:1027C00000F002812DE9F04FB1F90C309BB20C46BC
:1027D000190783B08246904635D522699AB313F023
:1027E0000202D8F800603DD00027D4F828B0D4F811
:1027F00020C0DFF8CC923D464D452B463A4628BFD7
:102800004B4661465046D5B1D847002840F3D280A8
:10281000D8F808301B1A07442D1AC8F80830002BC6
:1028200000F0B780D4F820C0D4F828B04D452B462E
:102830003A4628BF4B4661465046002DE4D1D6E9C2
:1028400000750836D8E721465046FFF707FD0028F7
:1028500040F03081B4F90C30D8F800609BB213F02E
:102860000202C1D113F0010940F0B080A7682068CE
:102870004D46002D54D09A0540F1BC80AF42BB4676
:1028800000F2E78013F4906F2FD0D4E9041707EB20
:102890004707A0EB010B07EBD777681C7F10584464
:1028A000B8423A4684BF07463A465B0540F1E980A4
:1028B00011465046FDF776FF002800F0F5805A4695
:1028C00021690190FDF7C6FDA289019B22F4906267
:1028D00042F08002A281A7EB0B0203EB0B006761C1
:1028E00023612060A2602F46AB465A464946FDF759
:1028F0004BFEA2682368D21B5B442F46A260236074
:102900000025D8F80830DB1BB944C8F80830002B84
:102910003FD0B4F90C30A76820689BB2002DAAD133
:10292000D6E900950836A4E70BF1080353E90267DE
:102930009B460833002FF9D03A460A21304600F072
:102940003FF9002853D00130A0EB06094B46D4E9EB
:1029500004122068BB4228BF3B46884203D9A568C1
:102960001544AB4219DC9A427DDC1346A56A216A04
:1029700032465046A847051E1CDDB9EB05096BD051
:102980000120D8F808305B1B2E447F1BC8F80830A4
:1029900013BB002003B0BDE8F08F31462A46FDF797
:1029A000F3FD23682B44236021465046FFF7A8FD22
:1029B0000028E2D0B4F90C3043F040034FF0FF3070
:1029C000A38103B0BDE8F08F0020704733469146E5
:1029D000104617464E469B46002FA5D00028B5D17D
:1029E0003A460A21304600F0EBF80028ABD17B1CB8
:1029F0009946ACE72369834215D36169A94212D88D
:102A00002E4BA76A9D4294BF2B466FF000434A4667
:102A100093FBF1F3504601FB03F3216AB847071E0D
:102A2000C8DDED1B6DE7AF4228BF2F463A46494649
:102A3000FDF7AAFDA3682268DB1B3A44A36022606D
:102A4000002BEED121465046FFF75AFD0028E8D072
:102A5000B0E72F46AB4648E721465046FFF750FD0A
:102A600000288ED0A6E71A4631460193FDF78CFD6B
:102A7000019BA1682268C91A1A44A16022601D4600
:102A80007BE7504600F0F0F8034600287FF423AFC0
:102A900021695046FDF730FEB4F90C300C2223F0CA
:102AA0008003CAF8002087E70C23CAF80030B4F985
:102AB0000C3081E74FF0FF306CE700BFFEFFFF7F77
:102AC00000FCFF7F2DE9F04110F148071BD088463C
:102AD0000026D7E90154013D0FD4A389012B05F14C
:102AE000FF3506D9B4F90E300133204601D0C04776
:102AF00006436B1C04F16804EFD13F68002FE8D156
:102B00003046BDE8F0813E463046BDE8F08100BF6A
:102B10002DE9F84310F148071FD0884606464FF0CC
:102B20000009D7E90154013D11D4A389012B05F116
:102B3000FF3508D9B4F90E3001332146304602D0B2
:102B4000C04749EA00096B1C04F16804EDD13F68F5
:102B5000002FE6D14846BDE8F883B9464846BDE8AF
:102B6000F88300BF38B5074C0023054608462360AC
:102B700000F0B2FB431C00D038BD2368002BFBD013
:102B80002B6038BD4CC9012070B50D46084C11466C
:102B900006461A4628460023236000F0ADFB431C7E
:102BA00000D070BD2368002BFBD0336070BD00BF28
:102BB0004CC90120000000000000000000000000DF
:102BC00001F0FF01102A2BDB10F0070F08D010F8DE
:102BD000013B013A8B422DD010F0070F42B3F6D1E2
:102BE000F0B441EA012141EA014122F007047FF0FB
:102BF00000070023F0E80256083C85EA010586EA52
:102C0000010685FA47F5A3FA87F586FA47F6A5FA8D
:102C100087F68EB9EED1F0BC01F0FF0102F0070299
:102C200032B110F8013B013A83EA010313B1F8D144
:102C30000020704701387047002D06BF3546033825
:102C4000073815F0010F07D1013015F4807F02BF5E
:102C5000013015F4C03F0130F0BC0138704700BFAF
:102C6000704700BF704700BF09B3F8B51446CAB13A
:102C700006460D4600F052FAA04202D32F463846CF
:102C8000F8BD21463046FDF78DFD07460028F6D0F9
:102C900022462946FDF7DEFB30462946FDF72CFD8E
:102CA0003846F8BD2746FDF727FD3846F8BD1146E2
:102CB000FDF778BD2DE9F0478E681D46AE420C4603
:102CC0000B68174636D88046888910F4906F0ED16D
:102CD000354618462A463946FDF756FCA268236851
:102CE000961B2B44A66023600020BDE8F087D1E945
:102CF000041606EB4606A3EB010906EBD6766B1C21
:102D000076104B44B342324684BF1E4632464305DA
:102D100012D511464046FDF745FD824600B34A46AE
:102D20002169FDF797FBA38923F4906343F08003A7
:102D3000A38106E02E46CCE74046FFF795FF82468A
:102D400050B1A6EB09020AEB09036661C4F810A0B2
:102D50002360A2602E46BCE721694046FDF7CCFC0B
:102D60000C23C8F80030A38943F04003A3814FF03F
:102D7000FF30BAE72DE9F04F936883B09046002BFF
:102D80006DD017688D6882460C460868083743E0A6
:102D9000A38913F4906F2ED0D4E9041505EB4505F3
:102DA000A0EB010B05EBD5750BEB06006D100130A8
:102DB000A8422A4684BF05462A465B0536D51146F9
:102DC0005046FDF7EFFC00283AD05A4621690190A1
:102DD000FDF740FBA289019B22F4906242F0800241
:102DE000A281A5EB0B0203EB0B0065612361206060
:102DF000A2603546B3465A464946FDF7C5FBD8F8AA
:102E00000830A2682068551B58449E1BA5602060AE
:102E1000C8F808601EB3083757E90296AB46002E83
:102E2000F9D0AE42B4D23546B346E4E75046FFF798
:102E30001BFF03460028D4D121695046FDF75CFCF6
:102E40000C23CAF80030A389002243F040034FF05E
:102E5000FF30A381C8E9012203B0BDE8F08F002054
:102E6000C8F8040003B0BDE8F08F00BF2DE9F04FB3
:102E700090468A899FB014068B46029003D50A6952
:102E8000002A00F00B81059330238DF8323098F83A
:102E900000308E4E002120220B918DF83120012729
:102EA000002B00F08480252B00F0F680454603E0DF
:102EB000252B00F0868025466B786C1C002BF7D103
:102EC000B4EB080A73D04246534659460298FFF7BE
:102ED000F1FE01306BD00B9B6A7853440B93002AB0
:102EE00065D000234FF0FF3201340693CDE908335B
:102EF0008DF85B301C93079205E0069A07FA03F3FE
:102F000013432C4606932546052215F8011B30462F
:102F1000FFF756FEAA46831B0028EED1069BD90672
:102F200044BF20228DF85B2021781A0744BF2B2252
:102F30008DF85B202A2948D1059A116804320029AE
:102F400005927EDB09916178A51C2E2956D0604C34
:102F500003222046FFF734FE002868D0001B069BA2
:102F6000402404FA00F00343069305F10108297890
:102F700058488DF830100622FFF722FE002866D050
:102F8000554B002B56D005AB00935A46534B029835
:102F900006A9AFF300808146B9F1FF3F07D00B9B34
:102FA0004B440B9398F80030002B7FF47CAFBBF8B8
:102FB0000C305B0654BF0B984FF0FF301FB0BDE8DC
:102FC000F08FB4EB080A8CD07DE7A1F13002092A1A
:102FD00088BFA246B9D8099B01E02C460135297863
:102FE00003EB830302EB4303A1F13002092AAA4653
:102FF000F3D92E2904F102050993A8D19AF80110FA
:103000002A292ED1059B9AF802101A6807920433D8
:10301000002A05930AF103050AF1020337DB2C4C61
:10302000032220469A46FFF7CBFD002896D1A846FA
:1030300055469CE7059B073323F0070308330593A8
:10304000ADE7494243F00203099106937BE705ABE4
:1030500000935A46214B029806A9FDF74FFE814680
:103060009AE7A1F130020023092A079301D923E04E
:103070005546697803EB830302EB4303A1F1300269
:10308000092A05F1010AF3D9023507935FE74FF0EA
:10309000FF329A4607925AE7444622E740210393BB
:1030A000FDF780FB039BCBF80000CBF8100030B19C
:1030B0004022CBF81420E6E6AA46013547E7029AFB
:1030C0000C2313604FF0FF3078E700BFC82D0508D0
:1030D000D02D0508D42D050800000000B52C0208ED
:1030E00070B50D46084C114606461A462846002380
:1030F000236000F009F9431C00D070BD2368002B49
:10310000FBD0336070BD00BF4CC9012008B506205C
:1031100000F092F8012000F015F900BF51F8043CCE
:10312000181F002BBCBF0B58C018704710B580216A
:103130000446FDF737FB606440B1031F00227C307A
:1031400043F8042F8342FBD1002010BD4FF0FF3025
:1031500010BD00BF436C0BB100207047E6E700BF15
:103160001F2970B5054608D8436C16460C464BB16E
:1031700053F8240043F8246070BD162202604FF01B
:10318000FF3070BDFFF7D2FF08B96B6CF0E74FF06E
:10319000FF3070BD1F2938B521D8426C05460C465A
:1031A0006AB152F8213053B1012B16D0591C10D0FE
:1031B0000025204642F824509847284638BD284626
:1031C00000F070F8224601462846BDE8384000F07D
:1031D00055B816230360012038BD002038BD1623E2
:1031E00003604FF0FF3038BD1F2921D838B5436C3C
:1031F00005460C4683B153F8242003EB84034AB1FF
:10320000511C10D0012A0CD0002520461D6090478B
:10321000284638BD012038BDFFF788FF28B96B6C00
:10322000E9E7032038BD022038BD4FF0FF3038BD3C
:103230004FF0FF30704700BF024B01461868FFF7A0
:10324000A9BF00BF00000020024B0A4601461868D3
:10325000FFF786BF00000020034B1868436C0BB1DA
:103260000020704762E700BF00000020024B0146CB
:103270001868FFF7B9BF00BF0000002038B50B4643
:10328000074C0546114618460023236000F02CF831
:10329000431C00D038BD2368002BFBD02B6038BD09
:1032A0004CC9012000F010B8024B58221A604FF0B0
:1032B000FF3070474CC90120024B58221A604FF072
:1032C000FF3070474CC90120024B58221A604FF062
:1032D000FF3070474CC90120024B58221A60002071
:1032E000704700BF4CC90120024B58221A604FF0B2
:1032F000FF3070474CC90120024B58221A604FF032
:10330000FF3070474CC90120024B58221A604FF021
:10331000FF3070474CC90120044A05491368002B4F
:1033200008BF0B4618441060184670471C05002063
:1033300070CA0120024B58221A604FF0FF307047CC
:103340004CC90120FEE700BF81F0004102E000BF50
:1033500083F0004330B54FEA41044FEA430594EA55
:10336000050F08BF90EA020F1FBF54EA000C55EA90
:10337000020C7FEA645C7FEA655C00F0E2804FEA61
:103380005454D4EB5555B8BF6D420CDD2C4480EA43
:10339000020281EA030382EA000083EA010180EA73
:1033A000020281EA0303362D88BF30BD11F0004FC1
:1033B0004FEA01314FF4801C4CEA113102D04042F7
:1033C00061EB410113F0004F4FEA03334CEA133332
:1033D00002D0524263EB430394EA050F00F0A7804A
:1033E000A4F10104D5F1200E0DDB02FA0EFC22FA45
:1033F00005F2801841F1000103FA0EF2801843FA39
:1034000005F359410EE0A5F120050EF1200E012A29
:1034100003FA0EFC28BF4CF0020C43FA05F3C01867
:1034200051EBE37101F0004507D54FF0000EDCF1E0
:10343000000C7EEB00006EEB0101B1F5801F1BD389
:10344000B1F5001F0CD349085FEA30004FEA3C0C8D
:1034500004F101044FEA445212F5800F80F09A8083
:10346000BCF1004F08BF5FEA500C50F1000041EB87
:10347000045141EA050130BD5FEA4C0C404141EB8B
:103480000101013C28BFB1F5801FE9D291F0000F86
:1034900004BF01460020B1FA81F308BF2033A3F135
:1034A0000B03B3F120020CDA0C3208DD02F1140C2C
:1034B000C2F10C0201FA0CF021FA02F10CE002F167
:1034C0001402D8BFC2F1200C01FA02F120FA0CFC60
:1034D000DCBF41EA0C019040E41AA2BF01EB0451A9
:1034E000294330BD6FEA04041F3C1CDA0C340EDCA7
:1034F00004F11404C4F1200220FA04F001FA02F3EA
:1035000040EA030021FA04F345EA030130BDC4F1A7
:103510000C04C4F1200220FA02F001FA04F340EA9C
:103520000300294630BD21FA04F0294630BD94F04D
:10353000000F83F4801306BF81F480110134013D34
:103540004EE77FEA645C18BF7FEA655C29D094EAA5
:10355000050F08BF90EA020F05D054EA000C04BF23
:103560001946104630BD91EA030F1EBF002100200E
:1035700030BD5FEA545C05D14000494128BF41F0AD
:10358000004130BD14F580043CBF01F5801130BD11
:1035900001F0004545F0FE4141F470014FF000009C
:1035A00030BD7FEA645C1ABF194610467FEA655C4D
:1035B0001CBF0B46024650EA013406BF52EA0335EF
:1035C00091EA030F41F4002130BD00BF90F0000FDD
:1035D00004BF0021704730B54FF4806404F1320419
:1035E0004FF000054FF0000150E700BF90F0000FD2
:1035F00004BF0021704730B54FF4806404F13204F9
:1036000010F0004548BF40424FF000013EE700BFC8
:1036100042004FEAE2014FEA31014FEA02701FBF58
:1036200012F07F4393F07F4F81F06051704732F08A
:103630007F4208BF704793F07F4F04BF41F40021E1
:10364000704730B54FF4607401F0004521F000413F
:103650001CE700BF50EA010208BF704730B54FF0C9
:1036600000050AE050EA010208BF704730B511F0CA
:10367000004502D5404261EB41014FF4806404F102
:1036800032045FEA915C3FF4D8AE4FF003025FEA88
:10369000DC0C18BF03325FEADC0C18BF033202EB0C
:1036A000DC02C2F1200300FA03FC20FA02F001FA66
:1036B00003FE40EA0E0021FA02F11444BDE600BF09
:1036C00070B54FF0FF0C4CF4E06C1CEA11541DBFB8
:1036D0001CEA135594EA0C0F95EA0C0F00F0DEF883
:1036E0002C4481EA030621EA4C5123EA4C5350EA68
:1036F000013518BF52EA033541F4801143F48013B9
:1037000038D0A0FB02CE4FF00005E1FB02E506F049
:103710000042E0FB03E54FF00006E1FB03569CF09E
:10372000000F18BF4EF0010EA4F1FF04B6F5007FA4
:1037300064F5407404D25FEA4E0E6D4146EB060616
:1037400042EAC62141EA55514FEAC52040EA5E509F
:103750004FEACE2EB4F1FD0C88BFBCF5E06F1ED849
:10376000BEF1004F08BF5FEA500E50F1000041EB80
:10377000045170BD06F0004646EA010140EA02002D
:1037800081EA0301B4EB5C04C2BFD4EB0C0541EA4F
:10379000045170BD41F480114FF0000E013C00F364
:1037A000AB8014F1360FDEBF002001F0004170BD88
:1037B000C4F10004203C35DA0C341BDC04F11404A1
:1037C000C4F1200500FA05F320FA04F001FA05F22D
:1037D00040EA020001F0004221F0004110EBD370FA
:1037E00021FA04F642EB06015EEA430E08BF20EA26
:1037F000D37070BDC4F10C04C4F1200500FA04F3C9
:1038000020FA05F001FA04F240EA020001F000415A
:1038100010EBD37041F100015EEA430E08BF20EACD
:10382000D37070BDC4F1200500FA05F24EEA020E15
:1038300020FA04F301FA05F243EA020321FA04F044
:1038400001F0004121FA04F220EA020000EBD370FB
:103850005EEA430E08BF20EAD37070BD94F0000FFB
:103860000FD101F00046400041EB010111F4801F2F
:1038700008BF013CF7D041EA060195F0000F18BFE0
:10388000704703F00046520043EB030313F4801F1C
:1038900008BF013DF7D043EA0603704794EA0C0FD6
:1038A0000CEA135518BF95EA0C0F0CD050EA4106EC
:1038B00018BF52EA4306D1D181EA030101F0004169
:1038C0004FF0000070BD50EA410606BF1046194691
:1038D00052EA430619D094EA0C0F02D150EA01369D
:1038E00013D195EA0C0F05D152EA03361CBF1046DE
:1038F00019460AD181EA030101F0004141F0FE417D
:1039000041F470014FF0000070BD41F0FE4141F400
:10391000780170BD70B54FF0FF0C4CF4E06C1CEA00
:1039200011541DBF1CEA135594EA0C0F95EA0C0FB5
:1039300000F0A7F8A4EB050481EA030E52EA033570
:103940004FEA013100F088804FEA03334FF0805591
:1039500045EA131343EA12634FEA022245EA1115BE
:1039600045EA10654FEA00260EF000419D4208BF6F
:10397000964244F1FD0404F5407402D25B084FEA1C
:103980003202B61A65EB03055B084FEA32024FF4C8
:1039900080104FF4002CB6EB020E75EB030E22BF25
:1039A000B61A754640EA0C005B084FEA3202B6EBE5
:1039B000020E75EB030E22BFB61A754640EA5C0094
:1039C0005B084FEA3202B6EB020E75EB030E22BF24
:1039D000B61A754640EA9C005B084FEA3202B6EB25
:1039E000020E75EB030E22BFB61A754640EADC00E4
:1039F00055EA060E18D04FEA051545EA16754FEA46
:103A000006164FEAC30343EA52734FEAC2025FEA63
:103A10001C1CC0D111F4801F0BD141EA00014FF0F2
:103A200000004FF0004CB6E711F4801F04BF0143C3
:103A30000020B4F1FD0C88BFBCF5E06F3FF6AFAEDF
:103A4000B5EB030C04BFB6EB020C5FEA500C50F16F
:103A5000000041EB045170BD0EF0004E4EEA1131F2
:103A600014EB5C04C2BFD4EB0C0541EA045170BDF9
:103A700041F480114FF0000E013C90E645EA060E3D
:103A80008DE60CEA135594EA0C0F08BF95EA0C0F6B
:103A90003FF43BAF94EA0C0F0AD150EA01347FF4B3
:103AA00034AF95EA0C0F7FF425AF104619462CE78A
:103AB00095EA0C0F06D152EA03353FF4FDAE1046ED
:103AC000194622E750EA410618BF52EA43067FF43E
:103AD000C5AE50EA41047FF40DAF52EA43057FF4CE
:103AE000EBAE12E74A0011D212F5001211D20DD539
:103AF0006FF47873B3EB62520ED44FEAC12343F0F4
:103B0000004343EA505323FA02F070474FF000009D
:103B1000704750EA013002D14FF0FF3070474FF04C
:103B2000000070474FEA4102B2F1E04324BFB3F511
:103B3000001CDCF1FE5C0DD901F0004C4FEAC00224
:103B40004CEA5070B2F1004F40EB830008BF20F008
:103B50000100704711F0804F21D113F13872BCBFC2
:103B600001F00040704741F480114FEA5252C2F117
:103B70001802C2F1200C10FA0CF320FA02F018BF60
:103B800040F001004FEAC1234FEAD32303FA0CFCB3
:103B900040EA0C0023FA02F34FEA4303CCE77FEA42
:103BA000625307D150EA01331EBF4FF0FE4040F48C
:103BB0004000704701F0004040F0FE4040F400003B
:103BC000704700BF53B94AB9002908BF00281CBF7D
:103BD0004FF0FF314FF0FF3000F06EB9ADF1080C3F
:103BE0006DE904CE00F006F8DDF804E0DDE902231B
:103BF00004B070472DE9F047089D04468C46002B21
:103C000040F083808A42174647D9B2FA82F242B125
:103C1000C2F1200024FA00F09140974040EA010CE4
:103C200094404FEA1748230CBCFBF8F61FFA87FEB6
:103C300008FB16C143EA014306FB0EF1994209D97C
:103C4000FB1806F1FF3080F01981994240F216818D
:103C5000023E3B445B1AA4B2B3FBF8F008FB1033FE
:103C600044EA034400FB0EFEA64509D93C1900F1C5
:103C7000FF3380F00581A64540F2028102383C44C2
:103C800040EA0640A4EB0E0400261DB1D4400023F8
:103C9000C5E900433146BDE8F08702B9FFDEB2FA5C
:103CA00082F2002A50D1CB1B4FEA174E1FFA87F839
:103CB0000126B3FBFEFC210C0EFB1C3341EA034141
:103CC00008FB0CF38B4207D979180CF1FF3002D2B4
:103CD0008B4200F2E9808446C91AA3B2B1FBFEF020
:103CE0000EFB101143EA014408FB00F8A04507D978
:103CF0003C1900F1FF3302D2A04500F2D9801846EA
:103D0000A4EB080440EA0C40BFE78B4209D9002D20
:103D100000F0B1800026C5E9000130463146BDE81B
:103D2000F087B3FA83F6002E4AD18B4202D3824247
:103D300000F2B880841A61EB030101208C46002D4B
:103D4000A8D0C5E9004CA5E7C2F1200320FA03F68C
:103D5000974001FA02F04FEA174ED9403043030C66
:103D6000B1FBFEF61FFA87F80EFB161143EA01437A
:103D700006FB08F1994204FA02F409D9FB1806F18E
:103D8000FF3C80F08D80994240F28A80023E3B44A5
:103D90005B1A81B2B3FBFEF00EFB103341EA034124
:103DA00000FB08F38B4207D9791800F1FF3C73D26E
:103DB0008B4271D902383944CB1A40EA064678E77B
:103DC000C6F1200C03FA06F422FA0CF31C4320FA85
:103DD0000CF701FA06F34FEA144E21FA0CF11F43D7
:103DE0003B0CB1FBFEF91FFA84F80EFB191143EAF4
:103DF000014109FB08FA8A4502FA06F200FA06F3C5
:103E000008D9611809F1FF3048D28A4546D9A9F18D
:103E100002092144A1EB0A01BFB2B1FBFEF00EFB87
:103E2000101147EA014700FB08F8B84507D9E71920
:103E300000F1FF312ED2B8452CD90238274440EA90
:103E40000940A7EB0807A0FB02894F45C646494633
:103E50001AD317D05DB1B3EB0E0267EB010707FA77
:103E60000CFCF2404CEA0202F740C5E900270026AC
:103E70003146BDE8F0872E4628460BE70646E9E6C0
:103E80001846FDE64345E5D2B8EB020E69EB0401A6
:103E90000138DFE70846D2E760468DE78146B9E79B
:103EA000664675E730464AE7ACF1020C394413E741
:103EB00002383C4424E700BF704700BF0000000008
:103EC0000368002B00F03E812DE9F04F2DED028BB1
:103ED00089B083460F4692469FED9D7B8DED007B1A
:103EE0008DED067B8DED047B8DED027B002642E09F
:103EF0001BF8060007EE900AF8EE677A17EE900AB4
:103F0000FFF786FB04460D4607EE906AB8EE678A17
:103F100018EE100AFFF77CFB8046894602460B46E6
:103F2000DDE90201FFF716FACDE9020122462B4630
:103F3000DDE90401FFF70EFACDE9040122462B4624
:103F400040464946FFF7BCFB02460B46DDE9060149
:103F5000FFF700FACDE9060168EE087A17EE900A3D
:103F6000FFF756FB02460B46DDE90001FFF7F2F9C9
:103F7000CDE900010136BE4275D2AAF102030B2B36
:103F80006ED801A252F823F0F13E02086140020807
:103F9000F13E0208B93F0208D33F0208ED3F020894
:103FA00007400208214002086140020861400208FF
:103FB0003B4002084B4002081BF9060007EE900A3E
:103FC000F8EEE77A17EE900AFFF722FB04460D465B
:103FD0009AE73BF8160007EE900AF8EE677A17EEBC
:103FE000900AFFF715FB04460D468DE73BF91600D6
:103FF00007EE900AF8EEE77A17EE900AFFF708FB53
:1040000004460D4680E75BF8263007EE903AF8EE5E
:10401000677A17EE900AFFF7FBFA04460D4673E73E
:104020005BF8263007EE903AF8EEE77A17EE900A42
:10403000FFF7EEFA04460D4666E70BEB86031868B9
:10404000FFF7E6FA04460D465EE70BEBC603D3E93D
:104050000001FFF767FDFFF7DBFA04460D4653E763
:104060000024002550E73846FFF7B0FA82468B4619
:10407000DDE90623FFF724FB04460D46DDE90423B2
:10408000DDE9028940464946FFF71AFB02460B4626
:1040900020462946FFF75CF906460F46DDE9002376
:1040A00050465946FFF70CFB04460D4642464B4628
:1040B000CDE9028940464946FFF702FB02460B461E
:1040C00020462946FFF744F904460D4602460B46B2
:1040D00030463946FFF71EFC06460F46DDE9002351
:1040E000DDE90401FFF7ECFA80468946DDE90623A5
:1040F000DDE90201FFF7E4FA02460B464046494675
:10410000FFF726F922462B46FFF704FC04460D462E
:1041100011A3D3E9002350465946FFF7D1FA0246CE
:104120000B4630463946FFF7CBFA22462B46FFF7BF
:1041300011F9FFF7D7FCFFF749FA09B0BDEC028B84
:10414000BDE8F08F00200021704700BFAFF3008072
:104150000000000000000000555555555555E53F3D
:1041600010B588B0304800F04BFF05E04FF47A708E
:104170000BF0A1FA002C1ADA2B4C04F10C030FCB34
:104180008DE80F0094E80E00284801F0F1F8041EB5
:10419000ECDA0394264B029330230193254B0093D2
:1041A000254B04222549002000F036FDDEE7E4B966
:1041B000234808F0C3FA234B18680BF091FB224BFD
:1041C0000293382301931B4B00931B4B04221B4982
:1041D000002000F021FD08E010F1020F21D01B4B60
:1041E000CDF81A309DF81630ABB14FF0FF3205A96B
:1041F000062002F0F0FD0028EED1DDF81A40002C78
:10420000EDD0BDF8182021461048FCF723F92046D0
:104210000BF05AFEE3E70A210D4B18680BF0AEFADB
:10422000E3E708B010BD00BF7C3D0120283D012020
:1042300070B00308E8B0030830B0030868B00308A2
:10424000587501208C4201208CB003082C050020F9
:10425000BC4201202DE9F04387B00C460546D8B199
:1042600003F002F903F006F9234A136801331360DF
:10427000B3F57A7F15D000230193009323462A4695
:104280008221FF2003F0FCF8002831D0418803F0A0
:1042900091F807B0BDE8F0836421184800F078FD7C
:1042A000DEE70BF04FFEDFF85480154F0390154BFF
:1042B00002936D230193DFF85490CDF800904346AC
:1042C00004223946002000F0A7FC04940A4E33680B
:1042D00003930D4B02936E230193CDF80090434658
:1042E00004223946002000F097FC00233360C2E727
:1042F0004FF0FF30CDE700BF2005002030B00308AD
:1043000068B003089CB00308A4B00308F8B0030821
:104310002DE9F04F87B00D4616461C460746D8B12A
:10432000FEB103F0A1F803F0A5F8284A13680133A1
:104330001360B3F57A7F19D0019400962B463A4664
:104340000021084603F09CF800283BD0291903F00F
:1043500031F807B0BDE8F08F88211D4800F018FD46
:10436000DEE789211A4800F013FDDAE70BF0EAFDD9
:10437000DFF85CA0DFF864900390164B0293922361
:104380000193DFF85CB0CDF800B0534604224946F3
:10439000002000F041FC2B190493DFF83080D8F89E
:1043A000003003930C4B029393230193CDF800B09C
:1043B000534604224946002000F02EFC0023C8F892
:1043C0000030B9E74FF0FF30C3E700BF24050020FD
:1043D00030B003089CB00308C4B0030868B00308F9
:1043E00008B1030810B540F27E420A490A48FCF7BA
:1043F00031F803F017F90146084C012384F82D36F3
:104400005B222046FCF726F8054B064A1A605C60E2
:1044100010BD00BF60B30308003E01203805002036
:1044200040130020543D01200020704700207047B9
:1044300008B50BF049FD002008BD000000B583B0B1
:10444000009393B20A460146044815F034FA10B9B5
:1044500003B05DF804FB4FF0FF30F9E754C90120C9
:1044600030B583B00C4615460022009201924FF4FD
:104470000041124807F061F80A232A46694620469F
:10448000FFF7DCFF68B92A4669462046FBF7E2FFE2
:1044900001224FF40041094807F04FF8002003B013
:1044A00030BD01200BF007F901224FF40041034811
:1044B00007F043F84FF0FF30F1E700BF0000024083
:1044C0002DE9F04383B00026019602F0CDFF0446AB
:1044D00002F0D0FF07463546ADB12402A4B2DC4B52
:1044E0003C441C800A229A700522DA700D221A714F
:1044F0000C225A71D74B1B68B34201D0D54B1E60BA
:1045000003B0BDE8F08301A9D34B186800F0ECFEBE
:104510000646DDF804805FFA88F208F00F0318F011
:10452000F00F02D00135EDB2D6E712F00C0F3CD0FF
:10453000042B5FD0052B00F08380062B00F0A680B3
:10454000072B00F0C880082B00F0EA80092B00F050
:104550000C810A2B00F02E810B2B00F05081A3F16F
:104560000C05BE4B4FF0640909FB05393A2209F1ED
:1045700002014846FCF708F84FEA1820FFF726F832
:10458000B1A3D3E90023FFF79BF8FFF7ABFAA9F833
:104590003A0006221E214846FFF792FCFFF7A2FAD6
:1045A000AB4B03EB4503D88097E71D1DAB4B4FF09A
:1045B000640909FB05393A2209F102014846FBF773
:1045C000E3FF4FEA1820FFF701F89FA3D3E9002388
:1045D000FFF776F8FFF786FAA9F83A0006221E21BF
:1045E0004846FFF76DFCFFF77DFA994B03EB450357
:1045F000D88072E703F10B05984B4FF0640909FB73
:1046000005393A2209F102014846FBF7BDFF4FEA9E
:104610001820FEF7DBFF8CA3D3E90023FFF750F847
:10462000FFF760FAA9F83A0006221E214846FFF774
:1046300047FCFFF757FA864B03EB4503D8804CE75E
:1046400003F10905854B4FF0640909FB05393A224E
:1046500009F102014846FBF797FF4FEA1820FEF7E1
:10466000B5FF79A3D3E90023FFF72AF8FFF73AFA59
:10467000A9F83A0006221E214846FFF721FCFFF761
:1046800031FA734B03EB4503D88026E7DD1D734BEE
:104690004FF0640909FB05393A2209F10201484645
:1046A000FBF772FF4FEA1820FEF790FF66A3D3E9ED
:1046B0000023FFF705F8FFF715FAA9F83A000622DC
:1046C0001E214846FFF7FCFBFFF70CFA604B03EB9B
:1046D0004503D88001E75D1D604B4FF0640909FB7D
:1046E00005393A2209F102014846FBF74DFF4FEA2E
:1046F0001820FEF76BFF54A3D3E90023FEF7E0FF79
:10470000FFF7F0F9A9F83A0006221E214846FFF704
:10471000D7FBFFF7E7F94E4B03EB4503D880DCE608
:10472000DD1C4E4B4FF0640909FB05393A2209F1B3
:1047300002014846FBF728FF4FEA1820FEF746FF24
:1047400041A3D3E90023FEF7BBFFFFF7CBF9A9F89C
:104750003A0006221E214846FFF7B2FBFFF7C2F9D6
:104760003B4B03EB4503D880B7E603F10109642511
:1047700003FB0553394D1D443A22A91C2846FBF77B
:1047800003FF4FEA1820FEF721FF2FA3D3E90023F0
:10479000FEF796FFFFF7A6F9688706221E21284636
:1047A000FFF78EFBFFF79EF9294B03EB4909A9F8A8
:1047B000060092E65D1E294B4FF0640909FB05399E
:1047C0003A2209F102014846FBF7DEFE4FEA1820C3
:1047D000FEF7FCFE1CA3D3E90023FEF771FFFFF7F1
:1047E00081F9A9F83A0006221E214846FFF768FB26
:1047F000FFF778F9164B03EB4503D8806DE6DD1E15
:10480000164B4FF0640909FB05393A2209F1020100
:104810004846FBF7B9FE4FEA1820FEF7D7FE0AA379
:10482000D3E90023FEF74CFFFFF75CF9A9F83A0043
:1048300006221E214846FFF743FBFFF753F9044BBE
:1048400003EB4503D88048E628B858518369583FA0
:10485000543D012028050020283D0120680B002040
:1048600030B583B002F000FE58B9012402F002FE18
:10487000220292B212FA80F292B200232BB10021EE
:1048800019E002F0F1FD0446F0E7110A1B4D262461
:1048900004FB03F4281901EB02212953052181703F
:1048A0000A21C1700C2101710D2141710133DBB26C
:1048B000E4E70131C9B20F2915D80023002BF8D144
:1048C00003EBC30203EB42020A440D4800EB420033
:1048D000C5882C0A094800EB420204EB0520D08071
:1048E0000133DBB2EAE726230093044B00220621C2
:1048F000012002F02FFA03B030BD00BF2C3D012093
:10490000543D012000B585B04FF48071144806F085
:104910000DFE012805D0134B00221A7005B05DF87A
:1049200004FB104A1378591C1170022BF6D90E4B58
:1049300002931F2301930D4B00930D4B04220D494D
:10494000002000F069F901F08DFC4FF47A7240F21A
:104950007E41094800F028FE084800F0CBFADDE768
:1049600000040240381300205CB10308BCB1030806
:104970001CB1030858B10308003E0120C4B203086B
:1049800070B584B01B4D1C4C1C4B0293302301931B
:104990001B4E00962B4604222146002000F03CF9D5
:1049A000184B02933123019300962B460422214693
:1049B000002000F031F9144B02933223019300964A
:1049C0002B4604222146002000F026F90F4807F06C
:1049D00081FE4FF480410E4806F0B5FD08210D48D8
:1049E00006F0B1FDFFF78EFF4FF49D700AF063FEF5
:1049F000ECE700BF1CB1030878B1030880B10308DD
:104A0000CCB103081C03002008030020A4430120AC
:104A1000001002400000024030B589B0204B0293E4
:104A2000492301931F4B00931F4B04221F49002071
:104A300000F0F2F8062408E01D4BCDF81A309DF87E
:104A40001640022C1ED0032C21D04FF0FF3205A9B6
:104A5000052002F0C0F980B9DDF81A40002CEBD037
:104A6000134DBDF8182021462846FBF7F3FC2046DD
:104A70000BF02AFACDF81A50E1E710F1020FE0D15D
:104A800009B030BD26210B48FFF7E4FBDDE7BDF898
:104A90001830DDF81A2026210648FFF739FCD4E744
:104AA000A4B10308DCB103081CB103089CB10308DE
:104AB000A8110020543D012008B54FF0FF31054BEF
:104AC00018680AF08DFFFFF78DFC01F073FB0AF008
:104AD000EDFD00BF8C42012010B582B00C460138BC
:104AE00005280ED8DFE800F0030F1A25303B0846F2
:104AF000FCF786FE0090234600221146022002F0B9
:104B000029F902B010BD0846FCF77AFE0090234652
:104B100000221146022002F01DF9F2E70846FCF7D8
:104B20006FFE0090234600221146022002F012F987
:104B3000E7E70846FCF764FE009023460022114692
:104B4000022002F007F9DCE70846FCF759FE009066
:104B5000234600221146022002F0FCF8D1E7084665
:104B6000FCF74EFE0090234600221146022002F080
:104B7000F1F8C6E7194B1A4A1268C3F83E20194AE1
:104B80001268C3F84220184A1268C3F80220174A74
:104B90001268C3F80620164A1268DA60154A1268CD
:104BA0001A61154A1268C3F81620144A1268C3F82D
:104BB0001A20134A12681A62124A12685A62124A7A
:104BC0001268C3F82A20114A1268C3F82E20104A2E
:104BD00012685A630F4A12689A63704720040020D3
:104BE00094420120F4420120C0420120C842012029
:104BF000A0420120D0420120AC420120904201207D
:104C0000EC420120B8420120CC420120DC420120CC
:104C1000E4420120E04201202DE9F041ADF50A7D9A
:104C20001E460B78212B30D00D4617460024849465
:104C300085948694879488944FF4807842462146E0
:104C400044A8FBF709FD4246214604A8FBF704FDF2
:104C500006F084FF04461EB1909B0BB1919BC3B933
:104C60004FF48072002144A8FBF7F6FC44AC434D9E
:104C70000FCD0FC495E8070003C424F8022B120CD3
:104C8000227044A90320FFF727FF0DF50A7DBDE838
:104C9000F08114212846FCF7DBFE024684AE29464B
:104CA0003046FCF79BFE4246002144A8FBF7D4FCAB
:104CB000919B0293909B019300962346304AFF21DB
:104CC00044A8FCF769FA072F42DC929B002B3FD0E7
:104CD0004246002104A8FBF7BFFC44AC2046FCF789
:104CE0008FFD93AB8993C0F1FF05929A294604A8E2
:104CF000FDF730FA804604A8FCF782FD064602461E
:104D000004A92046FCF7EAFD2046FCF779FD1D4B7F
:104D10001B88235221463846FFF7DEFE454501D366
:104D2000002EB2DC4FF48072002144A8FBF794FC03
:104D300044AC154D0FCD0FC495E8070003C424F80B
:104D4000022B120C227044A90520FFF7C5FE9CE738
:104D50004FF48072002144A8FBF77EFC44AC0B4D5D
:104D60000FCD0FC40FCD0FC495E8030044F8040B1A
:104D7000218044A90320FFF7AFFE86E748B203086D
:104D8000ECB1030844B2030804B2030820B20308DC
:104D900030B59BB005460C465022002106A8FBF713
:104DA0005BFC2F212846FCF775FE0494013003902C
:104DB000084B029340F23F130193074B0093074BBC
:104DC000042207490020FFF727FF4FF47A700AF00A
:104DD00072FCE6E7A0B20308B8B2030864B20308A5
:104DE000C8FB0308024A136801331360704700BF11
:104DF0003C13002008B528B1012806D0022807D0AE
:104E0000002008BD06F0C4FEFBE706F0C7FEF8E789
:104E100006F0CAFEF5E70000F0B593B0334C30223F
:104E2000002104F11000FBF717FCC0212170A8221B
:104E300062700823A3702820E0706FF017002071C3
:104E400003206071A171E2712372582060726FF0CB
:104E50005900A0721320E0726FF063052573607330
:104E60006FF06D05A573E073FF2020746074A0746B
:104E700021756275A3750126E67580236376E123AB
:104E8000A3763046FFF7B6FF05463046FFF7B2FF80
:104E900045400220FFF7AEFF4540C4F81A500A23F0
:104EA0000093402302AA2021A02000F0D9FAB0B933
:104EB0009DF80830013BDBB2FD2B15D89DF80E3074
:104EC00093B102AE254612AF34460FCC286069601C
:104ED000AA60EB6026461035BC42F5D104E00448D8
:104EE00007F08EF904F00CF813B0F0BDC03D0120BE
:104EF000FC420120F0B593B005464022002102A8F3
:104F0000FBF7AAFB2C4602AE4035374620686168A5
:104F1000A268E3680FC710343E46AC42F5D10020CA
:104F2000FFF768FF04460120FFF764FF44400220BA
:104F3000FFF760FF4440CDF822400A23009340234E
:104F400002AA2021A02000F0D1FA08B113B0F0BDD0
:104F50004FF47A700AF0AFFB06F0C8FDF6E70000E8
:104F600098B370B504460020207060700125A570CC
:104F7000FFF740FFC4F803002846FFF73BFFC4F8E3
:104F800007000220FFF736FFC4F80B004FF0FF3395
:104F9000E37323746374A374E37423756375A37557
:104FA000E37523766376A376084B1B3403F1400642
:104FB0001D6858689968DA6825606060A160E260E1
:104FC00010331034B342F3D170BD7047C03D01209F
:104FD000014B9888704700BFC03D0120014B5889A4
:104FE000704700BFC03D0120014B9889704700BF4A
:104FF000C03D0120014BD889704700BFC03D012052
:1050000070B5064658B13446074D0FCD0FC42B6816
:105010002360064B736140233376002070BDB421BA
:105020000348FFF7B5FEEEE740B303086400002035
:1050300004B3030830B4054688B144688CB100233A
:105040002A7A9A420AD903EB430204EB820054F80D
:1050500022208A4203D00133DBB2F1E7002030BCCA
:1050600070472046FBE7000000B583B00346094ABD
:1050700092E8030002AA02E903003BB10822694654
:10508000186800F0E7F903B05DF804FB4FF0FF305B
:10509000F9E700BF54B3030870B505460221FFF7D6
:1050A000C9FF064604212846FFF7C4FF0446B3881B
:1050B0000322826013F0010F01D00222826013F0FC
:1050C000400F02D0A3680133A36007212846FFF7F1
:1050D000B1FF436823F00F031B041B0C44F6D0728E
:1050E000934201D0002070BDA3680133A360F9E7AB
:1050F00010B40446002013E04000C0B280F0070066
:105100005B0853B122781A4214BF01220022B2EB8D
:10511000D01FF1D14000C0B2F2E701340139C9B269
:1051200009B18023EDE75DF8044B704770B582B09C
:1051300002460B46204903C902AC04E90300002AD9
:1051400034D0154619461046FFF774FF014680B368
:10515000036803F03F038DF80030426800238C6839
:10516000A34208DAE41A02A8044404F8082C121234
:105170000133DBB2F3E76E7A4EB9286896B1A2B27A
:10518000023292B2694600F065F902B070BD611C4E
:10519000C9B26846FFF7ACFF631C02AA134403F8C8
:1051A000080CEAE7A2B2013292B2EBE74FF0FF300F
:1051B000EBE74FF0FF30E8E7C0AE030803460020FE
:1051C00029B113F8012B50400139C9B2F8E77047F3
:1051D00070B584B004460A46424B93E8030004AD20
:1051E00005E903006D4685E80300002C70D02646D3
:1051F00011462046FFF71EFF044600286BD00368C7
:1052000003F03F0343F040038DF808303068737AB1
:105210009BB12289023292B202A900F01BF9051E4D
:1052200053DB767A012E0CD00020022E24D00028E9
:1052300054D100236360012244E02289013292B2FA
:10524000EAE7236803F03F0343F040038DF80030A2
:10525000334607E004AA1A4412F8081C02F8101C8E
:105260000133DBB2A1684A1C9A42F3DA0231C9B2B7
:105270006846FFF73DFFD8E7236803F03F0343F09C
:1052800040038DF80030012307E004AA1A4412F805
:10529000081C02F8101C0133DBB2A1684A1C9A42B8
:1052A000F3DA0231C9B26846FFF788FFBFE76368E7
:1052B0001B02636004A9114411F8081C0B446360CD
:1052C0000132D2B2A3689342F1DA284604B070BD2D
:1052D0004FF0FF35F9E74FF0FF35F6E76FF00105C6
:1052E000F3E700BFC0AE0308A8B1F8B50E46054607
:1052F00043689BB10421FFF79DFE074688B128460D
:10530000FFF7CAFE044604212846FFF761FF204349
:105310007B683360F8BD4FF0FF3070474FF0FF30CF
:10532000F8E74FF0FF30F5E7C8B110B50446436821
:10533000C3B10221FFF77EFEB8B1436813F0080045
:1053400003D001236372002010BD13F0040302D0C8
:1053500002236372F8E7002262721846F4E74FF006
:10536000FF3070474FF0FF30EEE74FF0FF30EBE7D4
:1053700084B070B5054605AC84E80E000C200AF038
:1053800025FD044614200AF021FD002C4DD00646D0
:105390000A9B63609DF82C30237220602C6005A965
:1053A000204600F045F8051E33DB2046FFF75CFE83
:1053B000051E2EDB01212046FFF7B8FE051E28DB67
:1053C00002212046FFF7B2FE051E22DB2046FFF732
:1053D000ABFF051E1DDB06212046FFF72BFE054611
:1053E00018B94FF0FF3514E00C3565B12968302944
:1053F00009D00729F8D0C9B22046FFF797FE002848
:1054000001DB0C35F1E707212046FFF7E1FE051E21
:1054100004DB2846BDE8704004B0704720460AF01F
:1054200053FD30460AF050FDF3E74FF0FF35F0E74B
:1054300051B138B504460D46CB681B68984730B962
:105440002368EA68DA6038BD4FF0FF3070474FF0EC
:10545000FF30F8E708B5C3685B68984708BD0000EF
:105460002DE9F04F87B082460F4691469846DDF809
:1054700040B000231E4605931A464FF48071194828
:1054800006F05BF83D4603E00136F6B2022E1FD867
:1054900007EB08039D421BD205F03F02EB1BA8EB74
:1054A00003041119402901D9C2F14004A4B2CDF876
:1054B00008B001944B44009310232A4651460A48F1
:1054C00006F06AFF05900028DED12544ADB2DDE785
:1054D00001224FF48071034806F02FF8059807B0B9
:1054E000BDE8F08F00080240FC4201202DE9F04F9A
:1054F00087B082460F4691469846DDF840B00023BB
:105500001E4605931A464FF480711B4806F015F8A5
:105510003D4611E0A4B2CDF808B001944B4400938D
:1055200010232A465146154806F084FE059090B196
:105530000136F6B2022E14D807EB08039D4210D2B2
:1055400005F03F02EB1BA8EB030411194029E1D938
:10555000C2F14004DEE706200AF0ADF82544ADB202
:10556000E8E701224FF48071034805F0E6FF059853
:1055700007B0BDE8F08F00BF00080240FC420120E8
:1055800030B583B004460B46009202460021A020AD
:10559000FFF766FF054610B92378FF2B01D100F015
:1055A00061FE284603B030BD00B583B00B460092C3
:1055B00002460021A020FFF799FF03B05DF804FB2D
:1055C0002DE9F043ADF5037D0E46174699464FF49D
:1055D00081742246002141A8FBF73EF822460021B3
:1055E0006846FBF739F8002408E04FF4807259F858
:1055F00024100DF58370FCF7CFF80134B44218DAAB
:105600004FEA840857F8245022492846FBF792FEB7
:105610000028EAD020492846FBF78CFE0028ECD170
:105620004FF4807259F808100DF10200FCF7B4F83D
:10563000E3E70DF58370FCF7E3F884B2ADF80441BD
:105640000DF10200FCF7DCF885B2ADF8005013490B
:105650000DF58370FBF76EFE90B911490DF1020054
:10566000FBF702FF88B994B10DB90E4809E00E4C62
:105670000123E37606F072FAC4F831000B4800E02B
:1056800008480DF5037DBDE8F0830648F9E70548B5
:10569000F7E700BF04B8030810B80308264001204C
:1056A0003A400120F0B70308BC040020E0B703082B
:1056B0002DE9F043ADF21C5D98467B4BDB7E23B9B0
:1056C0007A480DF21C5DBDE8F0830E461746764B16
:1056D000D3F8310000F03CFF754B984204D9724B6F
:1056E0000022DA767148ECE706F038FA6E4BC3F820
:1056F00031004FF48174224600210DF21440FAF774
:10570000ABFF22460021C4A8FAF7A6FF22460021DB
:1057100083A8FAF7A1FF2246002142A8FAF79CFFCE
:105720002246002101A8FAF797FF002408E04FF471
:10573000807258F824100DF21640FCF72DF8013451
:10574000B44242DA4FEA840957F8245059492846AE
:10575000FBF7F0FD0028EAD057492846FBF7EAFDA1
:10576000C0B156492846FBF7E5FDE0B1544928464B
:10577000FBF7E0FD00B353492846FBF7DBFD0028AB
:10578000DDD14FF4807258F809100DF10600FCF7D6
:1057900003F8D4E74FF4807258F809100DF2123074
:1057A000FBF7FAFFCBE74FF4807258F809100DF2BF
:1057B0000E20FBF7F1FFC2E74FF4807258F8091092
:1057C0000DF58570FBF7E8FFB9E70DF21640FCF721
:1057D00017F884B2ADF814440DF21230FCF710F84B
:1057E00085B2ADF810530DF20E20FCF709F886B221
:1057F000ADF80C620DF58570FCF702F887B2ADF8D4
:1058000008710DF10600FBF7FBFF80B2ADF8040054
:10581000002C37D0002D37D0002E37D0002F37D0B6
:10582000002837D0142E37D8142F37D826490DF238
:105830001640FBF77FFD98BB24490DF21230FBF7B1
:1058400013FE78BB0DF106010DF58570FBF70CFE1C
:1058500008B11F4835E71C4C14220DF20E212046DA
:10586000FBF79AFF14220DF58571A018FBF794FF42
:105870004FF47A7240F27E41A4F22620FFF794FEA4
:1058800014481EE714481CE713481AE7124818E7A3
:10589000114816E7104814E70F4812E70E4810E7C2
:1058A0000D480EE70C480CE7BC0400201CB80308A8
:1058B00020BF020048B8030858B8030868B80308B6
:1058C00078B8030888B80308264001203A40012030
:1058D000C8FB030830B80308F0B703081D4BDB7E94
:1058E0000BB91D48704770B582B00D461646194B6E
:1058F000D3F8310000F02CFE184B984205D9154B17
:105900000022DA76144802B070BD06F027F9114B78
:10591000C3F831000024AC4219DA114956F82400CA
:10592000FBF7A2FD08B10134F5E70E4B18680AF049
:10593000A8F908B90C48E6E70C4B019300231A4676
:1059400001A9084800680AF00BF90948DBE7094893
:10595000D9E700BFBC0400201CB8030820BF020028
:10596000C0B80308C44201209CB80308C8B80308A3
:10597000B0B80308C8FB03081D4BDB7E0BB91D48FC
:10598000704770B582B00D461646194BD3F83100FA
:1059900000F0DEFD184B984205D9154B0022DA764F
:1059A000144802B070BD06F0D9F8114BC3F83100AD
:1059B0000024AC4219DA114956F82400FBF754FDD3
:1059C00008B10134F5E70E4B18680AF05AF908B926
:1059D0000C48E6E70C4B019300231A4601A908483E
:1059E00000680AF0BDF80948DBE70948D9E700BFBD
:1059F000BC0400201CB8030820BF0200D0B8030874
:105A0000C44201209CB80308D8B80308B0B8030802
:105A1000C8FB03082DE9F043C9B09846A74BDB7ECD
:105A20001BB9A74849B0BDE8F0830E461746A34B03
:105A3000D3F8310000F08CFDA24B984204D99F4B63
:105A40000022DA769E48EDE706F088F89B4BC3F813
:105A500031004FF48172002107A8FAF7FDFD002400
:105A600011E04FF4807258F824100DF11E00FBF77E
:105A700093FE0DF11E00FBF7C3FE80B2ADF81C00D3
:105A8000002853D10134B44280F20C814FEA8409DA
:105A900057F824508C492846FBF74CFC0028E0D0EE
:105AA0008A492846FBF746FC00284DD088492846FD
:105AB000FBF740FC002866D086492846FBF73AFCF5
:105AC000002800F0818084492846FBF733FC002839
:105AD00000F09B8081492846FBF72CFC002800F051
:105AE000BF807F492846FBF725FC0028CAD14FF428
:105AF000807258F809100DF11E00FBF74DFE0DF1F4
:105B00001E00FBF77DFE80B2ADF81C000028B9D066
