:020000040800F2
:1000000080DB00105D020008B9AD00087D9D00088E
:10001000B5AD0008AD1900088DEC00080000000027
:100020000000000000000000000000009D0100082A
:10003000C736000800000000F9010008EDE30008E1
:1000400077020008770200087702000877020008AC
:10005000770200087702000877020008770200089C
:100060007702000877020008770200085D35000873
:10007000770200087702000877020008770200087C
:100080006D35000877020008770200087702000843
:10009000770200087702000877020008770200085C
:1000A000770200087702000877020008770200084C
:1000B000770200087702000877020008770200083C
:1000C000770200087702000877020008770200082C
:1000D000770200086DEC000877020008770200083C
:1000E000770200087702000877020008770200080C
:1000F00077020008770200087702000877020008FC
:100100007702000877020008D1E40008C9B00008AF
:1001100077020008770200087702000877020008DB
:10012000770200087D3500088D3500087702000849
:10013000770200088137000877020008770200087C
:1001400077020008770200087702000877020008AB
:10015000770200089D350008AD3500087DEC0008E9
:10016000770200087702000877020008770200088B
:1001700077020008770200087702000800000000FC
:100180007702000877020008DFF80CD000F076FD57
:10019000004800476D6C010880DB00102C4B19688B
:1001A0000868B0E8F04F80F30988BFF36F8F4FF015
:1001B000000080F3118870470000000008480068C4
:1001C000006880F308884FF0000080F3148862B65E
:1001D00061B6BFF34F8FBFF36F8F00DF00BF00BF6B
:1001E00008ED00E0DFF80C00016841F470010160E7
:1001F000704700BF88ED00E0EFF30980BFF36F8F19
:10020000134B1A681EF0100F08BF20ED108A20E96A
:10021000F04F106009B44FF0500080F31188BFF325
:100220004F8FBFF36F8F25F0F1FE4FF0000080F38A
:10023000118809BC19680868B0E8F04F1EF0100F6B
:1002400008BFB0EC108A80F30988BFF36F8F704746
:10025000A4000020EFF305807047000006488047A7
:1002600006480047FEE7FEE7FEE7FEE7FEE7FEE79B
:10027000FEE7FEE7FEE7FEE7BDE4000889010008AF
:100280002DE9F05F0546002092469B4688460646CB
:10029000814640241BE0284641464746224600F05E
:1002A00078FB53465A46C01A914110D3114618465E
:1002B000224600F05FFB2D1A67EB01084F462246ED
:1002C0000120002100F056FB17EB00094E41201ED3
:1002D000A4F10104DFDC484631462A464346BDE826
:1002E000F09F000000487047F4D403080649074A0D
:1002F0000868504343F239021044086040087047D0
:100300000149086070470000E40300206D4EC641BB
:1003100010B5431A934209D28318881803E010F8E5
:10032000011D03F8011D521EF9D210BD40EA010360
:100330009B0703D009E008C9121F08C0042AFAD29B
:1003400003E011F8013B00F8013B521EF9D210BD49
:10035000D2B201E000F8012B491EFBD27047002207
:10036000F6E710B513460A4604461946FFF7F0FFB4
:10037000204610BD30B505462A460B4612F8010B43
:1003800013F8014B08B1A042F8D01CB1002802D0EC
:100390006D1CF1E7284630BDCAB2401E10F8011F9F
:1003A0008A4202D00029F9D100207047421C10F87F
:1003B000011B0029FBD1801A704710B5002200E014
:1003C000521C835C8C5CA34201D1002BF8D1D8B2C3
:1003D000E1B2401A10BD30B504460020034600E0EB
:1003E0005B1C934203D2E05CCD5C401BF8D030BD77
:1003F00030B505460020034600E05B1C934205D261
:10040000EC5CC85C201A01D1002CF6D130BD000094
:1004100070B500B91068002512E00B4602E0A64254
:1004200003D05B1C1C78002CF9D1E3B22B4305D020
:100430002CB125B1002100F8011B04E00546401C49
:100440000678002EE9D11060284670BD004ADFE72B
:10045000E803002010B50346002004E0401C491CBE
:1004600003F8014B521E012A02D90C78002CF5D159
:1004700022B100221A7001E0401C491C0A78002AAF
:10048000FAD110BD10B50346002002E0401C521EF8
:100490005B1CA2B11C78002CF8D104E0401C491C64
:1004A00003F8014B521E012A03D90C78002CF5D118
:1004B00000E022B100221A7001E0401C491C0A78B9
:1004C000002AFAD110BD2DE9F0410E460546002460
:1004D00000E0641C285D00F07EFA0746305D00F005
:1004E0007AFA381A02D1295D0029F2D1BDE8F081EB
:1004F00070B506460EF028FC046805460A22002165
:10050000304600F06EFA2C6070BD2DE9FE4F80463B
:1005100081EA0300C00F0C46009021F0004123F057
:100520000045B8EB0200A94105D24046214690465D
:100530001C460B46024623F00040104347D0270DCF
:10054000C7F30A00C3F30A510290401A01904028F1
:100550006BDAC3F3130040F4801B0098924620B17D
:100560000023D2EB030A63EB0B0B01985946C0F151
:100570004002504600F0FEF906460D4650465946E8
:10058000019A00F016FA10EB08006141002487EA96
:10059000115284EAE7731A4340D0009A62B3019A79
:1005A000012A4FEA075215DC001B61EB02014FF0F4
:1005B000004202EA0752CDE90042001C41F58011D9
:1005C00032462B4600F08BFA03B0BDE8F08F404670
:1005D0002146F9E7001B61EB0201001C41F5801385
:1005E00000185B412018A2F5001747EB030140EA11
:1005F000D570B6196D4111E06D084FEA360645EA2F
:10060000C0754FEA0752001B61EB0201001C41F567
:10061000801149084FEA30000019514132462B46FB
:1006200003B0BDE8F04F00F04BBA00980122400043
:100630000023D0EB020263EBE073009821464FEAFF
:10064000E074B8EB000061EB0401E9E783F00043DC
:100650005BE781F0004158E72DE9FE4F81EA030492
:1006600004F0004421F0004100944FF0000B23F00F
:10067000004350EA01045ED052EA03045BD0C3F3A6
:100680000A54C1F30A552C44A4F2F3340194A0FB9C
:100690000254C1F3130141F48011C3F3130343F473
:1006A000801301FB024400FB034E840A970A44EACC
:1006B000815447EA8357A4FB076802958D0A05FB1E
:1006C00007854FEA932C04FB0C542705029D4FEA43
:1006D000065847EA1637B5EB08056EEB070C870E90
:1006E000920E47EA811742EA8312A7FB0201B6EB9A
:1006F0000B0164EB00042B0D43EA0C335E1844EB52
:100700001C50DA465146E7FB0201C5F313044FEAD9
:100710000B3343EA14534FEA0432019C43EA0603C5
:10072000A4F10C040294009CCDE900B400F0D7F9C8
:1007300003B0BDE8F08F00200146F9E72DE9F04D48
:1007400081EA030404F0004B21F0004514464FF009
:10075000000A23F0004150EA050220D054EA0102C9
:100760001DD0C5F30A570246C5F31303C1F31300A6
:10077000C1F30A5640F4801543F48013A7EB060832
:10078000101BD64608F2FD3873EB050002D308F1C2
:10079000010801E092185B41B8F1000F03DA002074
:1007A0000146BDE8F08D00204FF4801106468446D6
:1007B0000EE0171B73EB050705D3121B63EB050354
:1007C00006434CEA010C49084FEA300092185B419D
:1007D00050EA0107EDD152EA030012D082EA040088
:1007E00083EA0501084305D0101BAB4106D2012264
:1007F000002306E000224FF0004302E06FF0010208
:1008000053101AEB06004CEB085110EB0A0041EBB9
:100810000B01BDE8F04D00F053B90EB5C10F80EAF1
:10082000E0700844CA07002140F233438DE80E000F
:100830000A460B4600F053F903B000BD0EB540F276
:10084000334102910021CDE900110A460B4600F028
:1008500046F903B000BDC1F30A5210B5C1F313014C
:1008600040F2FF3341F480119A4201DA002010BDBA
:1008700040F233439A42A2F2334203DC524200F088
:1008800088F810BD904010BD00F0004230F00040EC
:100890000AD0C10D01F56071C0F3160042EA0151A2
:1008A000C20840071143704700200146704700000E
:1008B00030B5041E71F1000404DB4FF000444042E7
:1008C00064EB0101141E73F1000405DB1C464FF0BC
:1008D0000043524263EB04038B4208BF824230BDA7
:1008E00030B5041E71F1000404DB4FF000444042B7
:1008F00064EB0101141E73F1000405DB1C464FF08C
:100900000043524263EB0403994208BF904230BD5A
:1009100001F0004330B421F0004150EA010206D05A
:100920000A0DA2F56072C1F31301002A02DC30BC8B
:1009300000207047440F44EAC104C100E01830BCF5
:1009400000EBC25000F085B830B50B4601460020E0
:100950002022012409E021FA02F59D4205D303FA81
:1009600002F5491B04FA02F52844151EA2F1010202
:10097000F1DC30BD202A04DB203A00FA02F100202D
:1009800070479140C2F1200320FA03F319439040CD
:100990007047202A04DB203A21FA02F00021704738
:1009A00021FA02F3D040C2F12002914008431946D7
:1009B0007047202A06DBCB17203A41FA02F043EABF
:1009C000E07306E041FA02F3D040C2F12002914008
:1009D000084319467047A0F14101192900D8203079
:1009E00070472DE9F04791460F46804604460026A1
:1009F00014F8015B2DB1FFF775FC0068405DC0077E
:100A0000F6D12B2D02D02D2D18D0641E4A46394622
:100A1000204600F045F927B13968A14201D1C7F855
:100A2000008071054FF002040BD54042002803DD21
:100A30000EF08AF90460A007BDE8F08746F48066EE
:100A4000E4E70028F8DA0EF07FF904606FF0004068
:100A5000F2E70029A8BF7047401C490008BF20F0FA
:100A60000100704710B4B0FA80FC00FA0CF050EAB4
:100A7000010404BF10BC704749B1CCF1200421FA35
:100A800004F411FA0CF118BF012121430843A3EB30
:100A90000C01CB1D4FEA00614FEA102042BF00203D
:100AA00010BC704700EBC35010440029A4BF10BC19
:100AB0007047401C490008BF20F0010010BC70477F
:100AC00010B5141E73F1000408DA401C41F1000156
:100AD00092185B411A4301D120F0010010BD2DE9AD
:100AE000F04D92469B4611B1B1FA81F202E0B0FAA4
:100AF00080F220329046FFF73DFF04460F4640EA61
:100B00000A0041EA0B0153465A46084313D01146E6
:100B100053EA010019D0C8F140025046FFF739FFEF
:100B200005460E46504659464246FFF723FF084306
:100B300005D0012004E020463946BDE8F08D0020B4
:100B4000054346EAE0762C4337430A986305E40AF6
:100B5000A0EB08000022FD0A44EA47540A3002D5FF
:100B600000200146E9E7010510196941DDE9084562
:100B700000196941BDE8F04DA2E770B521F00043CE
:100B800003430CD0C1F30A550024D5EB040564EBF4
:100B90000403D617AD1AB34102DB0020014670BD35
:100BA000201841EB025170BD2DE9F04D00231A468B
:100BB0001B1A8A4103DB00200146BDE8F08DC1F31A
:100BC0000A52C1F3130141F480154FF0000BD10715
:100BD00002D100186D41521E0027044640F2FF1159
:100BE000384601EB620A3E468046024600204FF43A
:100BF0008011FFF7CEFEC2197141BB1846EB010010
:100C0000B4EB030C75EB000C04D3E41A65EB0005A0
:100C100017460E46241908F101006D41804634281C
:100C2000E3DDF91946EB0600091BA84103D24FF09A
:100C3000FF32134601E0002213461BEB070046EB90
:100C40000A51BDE8F04DFFF73BBFC1F30A52C1F3B3
:100C5000130140F2FF3341F480119A4202DA00207E
:100C60000146704740F233439A42A2F2334202DC1B
:100C70005242FFF78EBEFFF77DBE0000064C074DC7
:100C800006E0E06840F0010394E80700984710345C
:100C9000AC42F6D3FFF77CFAECDB03082CDC03084C
:100CA0002DE9F05F82460078002715468B460AF151
:100CB0000104B946302801D09DB113E014F8010BAE
:100CC0000127782803D0582801D045B10AE00DB19A
:100CD000102D07D10027102514F8010B02E008257C
:100CE00000E00A250026B0460EE005FB080005FBE3
:100CF00006F1012701EB10461FFA80F8B6F5803F98
:100D000000D3B94614F8010B294600F018F8002862
:100D1000EBDABBF1000F05D00FB1641E00E05446C2
:100D2000CBF80040B9F1000F06D00EF00DF802210B
:100D30000160C81EBDE8F09F48EA0640FAE73A287D
:100D400000D2303820F02002412A01D3A2F137002E
:100D5000884201D34FF0FF30704770B58C1810F8FF
:100D6000015B15F0070301D110F8013B2A1106D1F0
:100D700010F8012B03E010F8016B01F8016B5B1E0A
:100D8000F9D12B0705D40023521E0DD401F8013BE5
:100D9000FAE710F8013BCB1A921C03E013F8015B51
:100DA00001F8015B521EF9D5A142D8D3002070BDD5
:100DB0002DE9F04F85B01E4617468A4604004FF0D5
:100DC000000518BFBAF1000F4FD0002E1CBF0E98BF
:100DD00000284AD0102FBEBF40F61D4005B0BDE828
:100DE000F08F207910F0060F1EBF40F61E4005B0B0
:100DF000BDE8F08F17F00F0F0FBF9146A7F1100954
:100E000040F004002071E846B9F1000F25DD002014
:100E100005EB800104EB80025AF80110526909BA0F
:100E2000514048F82010401C0428F1DB684604F1CA
:100E3000140104F12802636A00F09EF85FF00000DC
:100E400004EB800105EB80024969401C09BAB150EE
:100E50000428F5DB10354D45D9DBBD4276DA00209C
:100E60007A1BD11702EB917119E005B04FF4426083
:100E7000BDE8F08F05EB80035AF803C09CFA8CF9AB
:100E800004EB800CDCF814B089EA0B0948F82090D8
:100E9000DCF814C0401C9CFA8CFC46F803C0B0EB94
:100EA000A10FE7DB04EB8009D9F8141048F82010F3
:100EB000414202EB8102002A1FDD05EB800101EBBC
:100EC0000A0C8B195FF00001C1F1000E4FF0180AF7
:100ED0001CF801BB0AEBCE0A58F820E00BFA0AFB1B
:100EE0008BEA0E0B48F820B0D9F814B02BFA0AFAA6
:100EF000491C03F801AB521EE6D1421CC2F10400AA
:100F000000280DDD04EB820008EB8201C2F104022F
:100F100010F11400521E50F8043B41F8043BF9D183
:100F2000684604F1140104F12802636A00F024F811
:100F3000A5F110015FF0000004EB800201EB8003DB
:100F40005269401C12BAF2500428F5DB0E98076073
:100F500005B00020BDE8F08F002812BF002A4FF432
:100F600042607047017941F0020101710020106078
:100F70007047042300F02CBB2DE9F80F4FF0030C51
:100F80000CEBE308C24B4FF0010CC3F808C0D3F8D8
:100F900008C0D3F800C0CDF800C0BCF1FF3F00F09E
:100FA000E5804368D2F804C0006883EA0C07136840
:100FB00080EA0304A4466346B6483D0ECCF30746D8
:100FC00050F8255050F8266004F0FF0985EA3625D0
:100FD000C3F3072650F8299050F8266007F0FF0A5F
:100FE0004FEA364686EA396675401669C3F3074903
:100FF0006E404FEA1C6550F8299050F8255050F883
:101000002AA085EA3925C4F307290CF0FF0B50F814
:101010002990CCF3072C4FEA394989EA3A6985EAE5
:101020000905D2F81490C4F3074A85EA09054FEA86
:10103000136950F82AA050F82990240E89EA3A2919
:10104000C7F3072AC7F30747DBB250F82AA050F8C6
:101050002CC050F82BB050F8244050F8277050F8AE
:1010600023304FEA3A4A4FEA3C4C8AEA3B6A84EA28
:1010700037248CEA336389EA0A0984EA030CD2F83C
:1010800018A0D3692032A8F1010889EA0A098CEA7C
:101090000304B8F1000F7CDD330EC5F3074C50F8A4
:1010A000233050F82CC0E7B283EA3C23C9F3072C65
:1010B00050F8277050F82CC006F0FF0A4FEA3C4C5D
:1010C0008CEA376C83EA0C03D2F800C050F82AA0EF
:1010D00083EA0C072B0EC9F3074C50F8233050F865
:1010E0002CC005F0FF0B83EA3C23C4F3072CC5F3A7
:1010F000072550F82CC050F825504FEA3C4C8CEA9C
:101100003A6C83EA0C03D2F804C0C4F3074A83EABA
:101110000C0C4FEA196350F82AA050F82330240E23
:1011200083EA3A23C6F3072AC6F3074650F8244059
:1011300050F8266050F82AA084EA362409F0FF0609
:1011400050F82BB050F826604FEA3A4A4FEA35453E
:101150008AEA3B6A85EA366583EA0A036C40D2F87C
:1011600008A0D56883EA0A036C4026E7DDF800C0D2
:10117000C3F800C01B68009363B14368D2F804C091
:10118000006883EA0C07136880EA030C6346644630
:1011900012E710E00368D2F800C0946883EA0C07F5
:1011A0004368D2F804C083EA0C0C8368C0686340CB
:1011B000D468444000E7384850FA84F300EB166CDA
:1011C0001B789CF800C0C9F3072743EA0C63C5F3FA
:1011D000074CC75D10F80CC04FEA0C4C4CEA072CCA
:1011E00043EA0C03D2F800C083EA0C030B6050FA08
:1011F00086F300EB156C1B789CF800C0C4F307273E
:1012000043EA0C63C9F3074CC75D10F80CC04FEA02
:101210000C4C4CEA072C43EA0C03D2F804C083EAD6
:101220000C034B6050FA85F300EB196C1B789CF8AB
:1012300000C0C6F3072743EA0C63C4F3074CC75D3D
:1012400010F80CC04FEA0C4C4CEA072C43EA0C0394
:10125000D2F808C083EA0C038B6050FA89F300EBE4
:10126000146C1B789CF800C0C5F3072443EA0C6398
:10127000C6F3074CD26810F80CC0005D4FEA0C4C66
:101280004CEA002018435040C860BDE8F80F704792
:101290000030024074BA03084CB8030870B50C461D
:1012A0008446002315462046B3EBA20F09DA00BF9F
:1012B0005CF8231009BA40F823105B1CB3EBA20FB3
:1012C000F6DB214600F096F8E910052000EB41031B
:1012D000002BD8BF70BD04F11002454800F5C56170
:1012E000D2F800C000EB1C64CCF307452478455DC0
:1012F00051F8244051F8255084EA3524CCF30725D1
:10130000455D51F825504FEA354550FA8CFC9CF864
:1013100000C051F82CC085EA3C6C84EA0C0C42F801
:1013200004CB52F804CB00EB1C64CCF307452478C3
:10133000455D51F8244051F8255084EA3524CCF31A
:101340000725455D51F825504FEA354550FA8CFC8C
:101350009CF800C051F82CC085EA3C6C84EA0C0C67
:1013600042F804CC52F808CB00EB1C64CCF30745E0
:101370002478455D51F8244051F8255084EA3524FD
:10138000CCF30725455D51F825504FEA354550FA15
:101390008CFC9CF800C051F82CC085EA3C6C84EAB7
:1013A0000C0C42F808CC52F804CC00EB1C64CCF3D3
:1013B00007452478455D51F8244051F8255084EACA
:1013C0003524CCF30725455D51F825504FEA3545C6
:1013D00050FA8CFC9CF800C05B1E51F82CC085EACA
:1013E0003C6C84EA0C0C42F804CC7FF479AF70BDFD
:1013F0004CB8030870B400239510002D15DDA0F142
:10140000040C081F12F0040F03D05CF8044F40F8DE
:10141000044FD21009D000BFDCF8044044605CF8EF
:10142000084F40F8084F521EF6D1684C042DA4F521
:10143000007005D0062D34D0082D6DD070BC7047DB
:10144000CA6800EB126CC2F307459CF800C0455D0A
:101450004CEA056CC2F30725455D2D0450FA82F66F
:10146000367845EA06254CEA050C54F823600D68E9
:101470005B1C75408CEA050CC1F810C04D680A2B46
:101480008CEA050CC1F814C08D688CEA050C8CEA56
:101490000202C1F818C0CA61B8BF1031D0DB70BCFD
:1014A00070474A6900EB126CC2F307459CF800C014
:1014B000455D4CEA056CC2F30725455D2D0450FAE5
:1014C00082F6367845EA06254CEA050C54F8236086
:1014D0000D685B1C75408CEA050CC1F818C04D689E
:1014E000082B8CEA050CC1F81CC08D688CEA050C31
:1014F000C1F820C0CD688CEA050CC1F824C0A4BF97
:1015000070BC70470D698CEA050C8CEA0202C1F8C8
:1015100028C0CA621831C4E7CA6900EB126CC2F372
:1015200007459CF800C0455D4CEA056CC2F30725F1
:10153000455D2D0450FA82F6367845EA06254CEAD8
:10154000050C54F823600D685B1C75408CEA050C93
:10155000C1F820C04D68072B8CEA050CC1F824C0E7
:101560008D688CEA050CC1F828C0CD688CEA050CA2
:10157000C1F82CC0A4BF70BC704750FA8CF52D7810
:1015800000EB1C66367845EA0665CCF30746CCF3DB
:10159000072C865D10F80CC0360446EA0C2C45EA90
:1015A0000C0C0D698CEA050CC1F830C04D698CEA51
:1015B000050CC1F834C08D698CEA050C8CEA020276
:1015C000C1F838C0CA632031A6E700004CBA03084E
:1015D0002DE9F0410E46002818BF002E04D003F07C
:1015E00006012AB9022903D04FF44260BDE8F08118
:1015F000D0F824C0BCF1100F1CBFBCF1180FBCF117
:10160000200F08D102290AD0D0F810C0ACF1010C8B
:10161000BCF1100F03D340F61F40BDE8F081C2605B
:1016200090F804C002292CF0060C80F804C048D0C1
:10163000002141618161C1610162D0F810C0BCF13B
:10164000000F3EDD1CF0010F4FF01804A2F1010263
:1016500004D012F8011F0906416101215FEA6C0CF8
:101660002FD0CF1701EB977727F00307CF1B5578C3
:101670007F4204EBC70705FA07F721F0030505448D
:10168000D5F8148047EA08076F614D1C4FEAE578EA
:1016900005EB987828F00308A5EB080512F8027FFF
:1016A0006D4204EBC505AF404D1C25F00305054414
:1016B000891CD5F81480BCF1010C47EA08076F615A
:1016C000CFD1017911F0010F0DD113F0010F866018
:1016D0001CBF062131EA030108D000F12801426A4B
:1016E0003046FFF7DBFD0020BDE8F08100F1280166
:1016F000426A0020B0EBA20F09DA00BF56F8203092
:101700001BBA41F82030401CB0EBA20FF6DB0846B4
:10171000FFF770FEE7E70000F0B5ADF2145D044698
:101720000F4615461E46784890F8200018B977A055
:101730000DF2145DF0BD7449086B05F0A9FB784902
:10174000884205D90020704981F820006FA0EFE79A
:1017500005F098FB6C4908634FF482710DF58260C7
:10176000FEF7FDFD4FF48271C3A8FEF7F8FD4FF4BC
:10177000827182A8FEF7F3FD4FF4827141A8FEF753
:10178000EEFD4FF482716846FEF7E9FD00244AE061
:1017900055F8240063A1FEF796FE40B956F82410D0
:1017A0004FF480720DF21240FEF754FE3AE055F805
:1017B000240060A1FEF787FE40B956F824104FF4CC
:1017C00080720DF20E30FEF745FE2BE055F8240036
:1017D0005CA1FEF778FE40B956F824104FF48072F1
:1017E0000DF20A20FEF736FE1CE055F8240059A140
:1017F000FEF769FE40B956F824104FF480720DF5DB
:101800008370FEF727FE0DE055F8240055A1FEF782
:101810005AFE38B956F824104FF480720DF10200C8
:10182000FEF718FE641CBC42B2DB0DF21240FEF75C
:10183000BDFD80B2ADF810040DF20E30FEF7B6FD1E
:1018400080B2ADF80C030DF20A20FEF7AFFD80B2B6
:10185000ADF808020DF58370FEF7A8FD80B2ADF873
:1018600004010DF10200FEF7A1FD80B2ADF8000009
:10187000BDF81004002817DDBDF80C03002813DDA7
:10188000BDF8080200280FDDBDF8040100280BDDBB
:10189000BDF80000002807DDBDF80802142803DCAD
:1018A000BDF80401142801DD33A041E737490DF2EA
:1018B0001240FEF708FE30B9344914310DF20E30F3
:1018C000FEF77BFD08B12CA032E70DF102010DF50A
:1018D0008370FEF772FDA8B914220DF20A212B487D
:1018E000FEF7B8FD14220DF5837128481430FEF779
:1018F000B1FD4FF47A7240F27E41254804F054F96C
:1019000024A015E712A013E7000000102F4C6F670A
:10191000696E54696D656F75742E68746D6C000026
:1019200020BF0200557365726E616D655F4C617317
:101930007400000050617373776F72645F4C617361
:1019400074000000557365726E616D655F4E65775A
:101950000000000050617373776F72645F4E6577AB
:101960000000000050617373776F72645F436F6EA5
:101970006669726D000000002F4C6F67696E4572DA
:10198000726F722E68746D6C000000008A04012072
:10199000640201202F4163636F756E74436F6E663E
:1019A00069674F4B2E68746D6C00000000BFFEE746
:1019B00000B59DB000201C901B901A901C9001F067
:1019C00054BA1C9800EB800101EB4020FE4931F82D
:1019D0001000002801F045821C9800EB800101EB0B
:1019E0004020F94931F8100006280AD200211C983D
:1019F00000EB800202EB4020F34A22F8101001F0C5
:101A000038BA1C9800EB800101EB4020EE4931F818
:101A10001000B0F5806F13D200221C9800EB8001FB
:101A200001EB4020E84901EB40000A301C9901EB32
:101A3000810303EB4121E44B33F8111042540AE0D7
:101A400000211C9800EB800202EB4020DE4A02EBF2
:101A5000400080F809141C9800EB800101EB402045
:101A6000D94931F810000B901C9800EB800101EB74
:101A70004020D54901EB40000A300A900146D34886
:101A80000B9A08F029F9D2A1D048FEF773FC1B90FD
:101A90001B9848B900211C9800EB800202EB402003
:101AA000C94A22F81010AAE7C848FEF77FFCC74AC7
:101AB0001B99891A091D401A401C02460B901B995C
:101AC000091DC248FEF724FCC3A1C048FEF752FC22
:101AD0001B901B9848B900211C9800EB800202EB78
:101AE0004020B94A22F8101089E700201B9908709D
:101AF0001BA9B64801F0DCFF19901998082881F05D
:101B0000A581DFE810F0F3003903A30908005300B2
:101B10009C006F05D2081B98002846D0AB491B9843
:101B2000401A01D001F093B9A848FEF73FFC042801
:101B30003BD11C9800EB800101EB4020A24901EB56
:101B4000400050F8021F1791406818904FF48062CF
:101B5000A2A1A648FEF77EFCA448FEF727FCA349F5
:101B6000891E088064200090084600880B9001467A
:101B70009E48DDE9172306F07BF9642000909B481E
:101B8000801E008809909A4801680A9140680346BF
:101B90000A460B909548099906F06AF94FF47A7253
:101BA00040F27E41934803F0FFFFBBE71B980028FB
:101BB00044D086491B98401A00D0B3E78348FEF70B
:101BC000F5FB06283AD11C9800EB800101EB402080
:101BD0007D4901EB400050F8021F179140681890B2
:101BE0004FF4806284A18148FEF734FC7F48FEF701
:101BF000DDFB7E49891E088064200090084600882D
:101C00000B9001467948DDE9172306F031F964208D
:101C100000907648801E00880990754801680A91F6
:101C2000406803460A460B907048099906F020F96F
:101C30004FF47A7017F06EF806F012F872E71B98FE
:101C4000002852D061491B98401A00D06AE75F48CB
:101C5000FEF7ACFB072848D11C9800EB800101EB94
:101C60004020594901EB400050F8021F179140688D
:101C700018904FF4806266495C48FEF7EBFB5B48C6
:101C8000FEF794FB5949891E08806420009008469D
:101C900000880B9001465548DDE9172306F0E8F867
:101CA000642000905148801E0088514909900868BE
:101CB0000A90486803460B904C48DDE9091206F08B
:101CC000D7F8642017F026F803F080FC642017F0A2
:101CD00021F84FF47A7240F27E41464803F064FFE7
:101CE000642017F017F805F0BBFF1BE71B980028CE
:101CF00068D036491B98401A00D013E71C9800EBB7
:101D0000800101EB4020304901EB400050F8021FF8
:101D10001791406818902EA33EA24FF4806133487B
:101D20000CF0C6FF3148FEF741FB3049891E0880A0
:101D300064200090084600880B9001462B48DDE99E
:101D4000172306F095F8012016F0E4FF4FF48062A7
:101D500036492648FEF77EFB2448FEF727FB234939
:101D6000891E088064200090084600880B90014678
:101D70001E48DDE9172306F07BF8012016F0CAFFA4
:101D80004FF480622AA11948FEF764FB1748FEF75A
:101D90000DFB1649891E08806420009008460088C3
:101DA0000B9001461148DDE9172306F061F8012088
:101DB00016F0B0FF01200C9024A105A223A0CDE9CC
:101DC000012147E0D7E10000340000109215001017
:101DD000434D443A000000000D0A0000536176654F
:101DE00020436F6E6669670D0A00000094190010A9
:101DF00036B003086402012053797374656D205274
:101E000065626F6F7420403153210D0A000000009D
:101E10003CD803080D0AD6A1CDB73A25730D0AD6D2
:101E2000A1CEB23A5C725C6E0D0A000080D8030845
:101E3000D0F2BAC50909C3FCC1EE0909B9A6C4DCD0
:101E4000090909D3C3B7A80D0A000000534156453C
:101E5000000000000090F3A24FF48061F8480C9B52
:101E60000CF026FFF648FEF7A1FAF549891E088016
:101E700064200090084600880B900146F048DDE998
:101E8000172305F0F5FF012016F044FF0C98401CC5
:101E90000C90ECA0AFF2C801EAA2CDE900210290BB
:101EA000EAA24FF48061E6480C9B0CF001FFE44885
:101EB000FEF77CFAE249891E0880642000900846FB
:101EC00000880B900146DE48DDE9172305F0D0FFBE
:101ED000012016F01FFF0C98401C0C90E4A0AFF2FC
:101EE0001011E3A2CDE900210290E3A24FF480613A
:101EF000D3480C9B0CF0DCFED148FEF757FAD049D2
:101F0000891E088064200090084600880B900146D6
:101F1000CB48DDE9172305F0ABFF012016F0FAFEF0
:101F20000C98401C0C90DBA0AFF25C11D9A2CDE95B
:101F300000210290DAA24FF48061C1480C9B0CF0A2
:101F4000B7FEBF48FEF732FABD49891E08806420FB
:101F50000090084600880B900146B948DDE9172338
:101F600005F086FF0C98401C0C90D6A0AFF2A01193
:101F7000D4A2CDE900210290D3A24FF48061B048F1
:101F80000C9B0CF095FEAE48FEF710FAAC49891E8A
:101F9000088064200090084600880B900146A848FD
:101FA000DDE9172305F064FF012016F0B3FE0C985D
:101FB000401C0C90C3A0AFF2E811C2A2CDE90021F1
:101FC0000290CDA24FF480619D480C9B0CF070FEF6
:101FD0009B48FEF7EBF99A49891E0880642000901F
:101FE000084600880B9001469548DDE9172305F067
:101FF0003FFF012016F08EFE0C98401C0C90B1A003
:10200000AFF23421AFA2CDE900210290C6A24FF475
:1020100080618B480C9B0CF04BFE8948FEF7C6F99B
:102020008749891E088064200090084600880B902C
:1020300001468348DDE9172305F01AFF012016F059
:1020400069FE0C98401C0C909EA0AFF27C219DA2D2
:10205000CDE900210290BFA24FF4806178480C9B2B
:102060000CF026FE7648FEF7A1F97549891E088016
:1020700064200090084600880B9001467048DDE916
:10208000172305F0F5FE012016F044FE0C98401CC5
:102090000C908CA0AFF2C8218AA2CDE90021029059
:1020A000B9A24FF4806166480C9B0CF001FE6448B5
:1020B000FEF77CF96249891E08806420009008467A
:1020C00000880B9001465E48DDE9172305F0D0FE3D
:1020D000012016F01FFE0C98401C80B20C9079A0D5
:1020E000AFF2143177A2CDE900210290B2A24FF4F1
:1020F000806153480C9B0CF0DBFD5148FEF756F90C
:102100004F49891E088064200090084600880B9083
:1021100001464B48DDE9172305F0AAFE012016F021
:10212000F9FD0C98401C80B20C9066A0AFF26031B3
:1021300064A2CDE900210290ACA24FF48061404836
:102140000C9B0CF0B5FD3E48FEF730F93C49891E6A
:10215000088064200090084600880B9001463848AB
:10216000DDE9172305F084FE012016F0D3FD0C985D
:10217000401C80B20C90D5E41B98002850D0A84990
:102180001B98401A00D0CDE4A548FEF70FF90828A7
:1021900046D11C9800EB800101EB4020A14901EBE6
:1021A000400050F8021F1791406818904FF4806269
:1021B0009DA12348FEF74EF92148FEF7F7F8204984
:1021C000891E088064200090084600880B90014614
:1021D0001B48DDE9172305F04BFE012016F09AFDA0
:1021E0002EA203204108A0A315204008CDE9093103
:1021F0000B92089029A2042040089EA310214908B0
:10220000CDE90413CDE9060224A2022040089BA3D5
:102210000A214908CDE90013CDE9020299A335E16D
:10222000DFE1000025303264097C092573097C094F
:10223000B1A3B4E609097C09257325730D0A0000D2
:1022400094190010524553544F52450025303264C2
:10225000097C092573097C09BBD6B8B4B3F6B3A7CA
:10226000C9E8D6C3097C09257325730D0A0000004F
:102270005245424F4F54000025303264097C0925F5
:1022800073097C09D6D8C6F409097C09257325731E
:102290000D0A00005441534B494E464F00000000C8
:1022A00025303264097C0925737C09B2E9D1AFD4A9
:1022B000CBD0D0D7B4CCAC097C09257325730D0ADB
:1022C000000000005345540025303264097C092584
:1022D00073097C09C5E4D6C3B1BEB5D84950097CA1
:1022E00009257325737C4C6F63616C49507C566182
:1022F0006C75650D0A00000025303264097C0925E3
:1023000073097C09C5E4D6C3D7D3CDF8D1DAC2EBC3
:10231000097C09257325737C4E65744D61736B7C54
:1023200056616C75650D0A0025303264097C0925FB
:1023300073097C09C5E4D6C3CDF8B9D8097C092551
:102340007325737C476174657761797C56616C7520
:10235000650D0A0025303264097C092573097C0962
:10236000C5E4D6C3B1BEB5D8B6CBBFDA097C092562
:102370007325737C4C6F63616C506F72747C566113
:102380006C75650D0A00000025303264097C092552
:1023900073097C09C5E4D6C3D4B6B3CC4950097CD3
:1023A00009257325737C52656D6F746549507C56A1
:1023B000616C75650D0A000025303264097C0925C1
:1023C00073097C09C5E4D6C3D4B6B3CCB6CBBFDAA7
:1023D000097C09257325737C52656D6F7465506F98
:1023E00072747C56616C75650D0A0000253032648C
:1023F000097C092573097C09C5E4D6C34D4143B561
:10240000D8D6B7097C09257325737C4D41434164B7
:1024100064727C2830782956616C75650D0A00005D
:1024200092150010340000102D2D2D2D2D2D2D2D49
:102430002D2D2D2D2D2D2D2D2D2D2D2D2D2D2D2DCC
:102440002D2D2D2D2D2D2D2D2D2D2D2D2D2D2D2DBC
:102450002D2D2D2D2D2D2D2D2D2D2D2D2D2D2D2DAC
:102460002D2D2D2D0D0A0000CAA3D3E0D5BB284287
:1024700029000000D3C5CFC8BCB60000D7B4CCAC8F
:1024800000000000C8CECEF1C3FB0000F7A24FF45D
:102490008061FD480CF00CFCFB48FDF787FFFA4912
:1024A000891E088064200090084600880B90014631
:1024B000F548DDE9172305F0DBFC012016F02AFCC6
:1024C00016F08EFF0F900F9880000B9019F0B4F863
:1024D00010901098F0B30F98800001460B90109860
:1024E000FDF73DFFDDE90F1016F040FF0F900F984C
:1024F00088B300200C9029E00C99109850F8210026
:1025000000B91FE00C99109850F821004FF4806238
:10251000DD490B9006F024FF98B9DB48FDF746FF34
:10252000D949891E088064200090084600880B90D5
:102530000146D548DDE9172305F09AFC012016F085
:10254000E9FB00BF0C98401C80B20C900F990C98CE
:10255000884201E004E000E0CED3109823F0C2F8F6
:1025600023F09CFD0E9023F09FFD0D90DDE90D10F2
:102570004FF4C843C5A2CDE900014FF48061C248C1
:102580000CF096FBC048FDF711FFBF49891E08807B
:1025900064200090084600880B900146BA48DDE9A7
:1025A000172305F065FC012016F0B4FB4FF48062A0
:1025B000AFF28C11B448FDF74DFFB348FDF7F6FEBE
:1025C000B149891E088064200090084600880B905D
:1025D0000146AD48DDE9172305F04AFC012016F05D
:1025E00099FBC8E51B98002876D0B5491B98401A7E
:1025F00000D0C0E5B3A1B248FDF7BCFE1B90B049C6
:102600001B98401A032800D0B5E51B98401C1A906F
:10261000ADA11A98FDF7AEFE00285ED0AAA11A98C7
:10262000FDF7A8FE1B90DDE91A01081A00D0A2E50B
:10263000A4A11A98FDF79EFE1B90DDE91A01081A65
:10264000072800D097E51B98401C1A909DA11A9866
:10265000FDF790FE1B901B9800B1F8E316A91A989D
:1026600005F0FEF800B1F2E31C9800EB800101EBED
:102670004020974901EB400050F8021F1791406835
:1026800018909DF85B109DF85A009DF85920CDE9EF
:10269000002002919DF8580003468EA24FF48061FD
:1026A0000B9079480CF004FB7748FDF77FFE7649E4
:1026B000891E088064200090084600880B9001461F
:1026C0007148DDE9172305F0D3FB0A2016F022FB41
:1026D0008A481699C0F80110E6E289A11A98FDF718
:1026E00049FE00285ED086A11A98FDF743FE1B9094
:1026F000DDE91A01081A00D0A9E372A11A98FDF7C2
:1027000039FE1B90DDE91A01081A082800D09EE363
:102710001B98401C1A906BA11A98FDF72BFE1B907A
:102720001B9800B193E316A91A9805F099F800B127
:102730008DE31C9800EB800101EB4020644901EB24
:10274000400050F8021F1791406818909DF85B00F8
:102750009DF85A109DF85920CDE9002102909DF86E
:102760005800034669A24FF480610B9046480CF074
:102770009FFA4548FDF71AFE4349891E08806420E8
:102780000090084600880B9001463F48DDE917237A
:1027900005F06EFB0A2016F0BDFA58481699C0F8ED
:1027A000171081E264A11A98FDF7E4FD00285CD0BF
:1027B00061A11A98FDF7DEFD1B90DDE91A01081AE8
:1027C00000D044E33FA11A98FDF7D4FD1B90DDE94A
:1027D0001A01081A072800D039E31B98401C1A90E8
:1027E00038A11A98FDF7C6FD1B901B9800B12EE387
:1027F00015A91A9806F01AFC00B128E31C9800EB02
:10280000800101EB4020324901EB400050F8021FEB
:102810001791406818909DF857109DF856009DF844
:102820005520CDE9002002919DF85400034644A2B2
:102830004FF480610B9014480CF03AFA1248FDF7FF
:10284000B5FD1149891E0880642000900846008863
:102850000B9001460C48DDE9172305F009FB0A201F
:1028600016F058FA254815997CE07EE0252D323582
:1028700073252A73252A73252A73252A73252A731B
:10288000252A730D0A000000941900100D0AD7DCE8
:10289000C4DAB4E6A3BA2564422020CAA3D3E0C4B4
:1028A000DAB4E6A3BA2564422020C0FACAB7D7EE4C
:1028B000D0A1C4DAB4E6A3BA2564420D0A00000030
:1028C000921500107C0000004C4F43414C495000D1
:1028D00034000010436F6E666967204C6F63616C53
:1028E0002049504164647265737320546F3A2564C3
:1028F0002E25642E25642E25640D0A006402012015
:1029000052454D4F5445495000000000436F6E66DC
:1029100069672052656D6F74652049504164647227
:1029200065737320546F3A25642E25642E25642E1A
:1029300025640D0A000000004E45544D41534B00E4
:10294000436F6E666967205375626E6574204D61D2
:10295000736B20546F3A25642E25642E25642E2532
:10296000640D0A00C0F809109EE1FAA11A98FDF75B
:1029700001FDE8B3F7A11A98FDF7FCFC1B90DDE917
:102980001A01081A00D062E2AFF2C8011A98FDF7E6
:10299000F1FC1B90DDE91A01081A072800D056E265
:1029A0001B98401C1A90AFF2E4011A98FDF7E2FC64
:1029B0001B901B9800B14AE214A91A9804F02EFA51
:1029C00000B144E21C9800EB800101EB4021E34898
:1029D00000EB410151F8020F1790486818909DF8DC
:1029E00053009DF852109DF85120CDE9002100E0E0
:1029F00023E002909DF850000346D9A24FF4806175
:102A00000B90DF480CF054F9DD48FDF7CFFCDC49B2
:102A1000891E088064200090084600880B900146BB
:102A2000D748DDE9172305F023FA0A2016F072F9DA
:102A3000D4481499C0F80D1036E1D3A11A98FDF7C7
:102A400099FCD8B3D0A11A98FDF794FC1B90DDE94E
:102A50001A01081A00D0FAE1AFF298111A98FDF79E
:102A600089FC1B90DDE91A01081A092800D0EEE163
:102A70001B98401C1A90AFF2B4111A98FDF77AFC1B
:102A80001B901B9800B1E2E14FF48062BC481A9998
:102A9000FDF7E0FC11A9BA4806F043FA00B1D6E10F
:102AA0001C9800EB800101EB4020AC4901EB400198
:102AB00051F8020F17904868189000E01FE0B5A287
:102AC0004FF48061AE48119B0CF0F2F8AC48FDF772
:102AD0006DFCAB49891E0880642000900846008880
:102AE0000B900146A648DDE9172305F0C1F90A203D
:102AF00016F010F9A3481199C0F80510D4E0ACA164
:102B00001A98FDF737FCD8B3A9A11A98FDF732FC43
:102B10001B90DDE91A01081A00D098E1AFF25C21A0
:102B20001A98FDF727FC1B90DDE91A01081A0A28FC
:102B300000D08CE11B98401C1A90AFF278211A98B3
:102B4000FDF718FC1B901B9800B180E14FF48062E8
:102B50008B481A99FDF77EFC11A9894806F0E1F926
:102B600000B174E11C9800EB800101EB40207B492F
:102B700001EB400050F8021F17914068189000E0E8
:102B800021E08EA24FF480617D48119B0CF090F8FB
:102B90007B48FDF70BFC81B27948801E01806420E0
:102BA00000907748801E00880B9001467448DDE94C
:102BB000172305F05DF90A2016F0ACF87148119959
:102BC000C0F81B1070E084A11A98FDF7D3FBE0B3A6
:102BD00081A11A98FDF7CEFB1B90DDE91A01081AB6
:102BE00000D034E1AFF224311A98FDF7C3FB1B90FB
:102BF000DDE91A01081A072800D028E11B98401CBB
:102C00001A90AFF240311A98FDF7B4FB1B901B9855
:102C100000B11CE172A212A91A9804F063FF00B17E
:102C200015E11C9800EB800101EB40204B4901EBC2
:102C3000400151F8020F1790486818909DF84D0018
:102C40009DF84C109DF84B2000E02DE09DF84A3097
:102C5000CDE90132CDE903109DF8490000909DF8BF
:102C6000480003465FA24FF480610B9044480CF08B
:102C70001FF84348FDF79AFB4149891E08806420EC
:102C80000090084600880B9001463D48DDE9172377
:102C900005F0EEF80A2016F03DF83A481130129986
:102CA0000160BDF84C108180D1E01B98D0B35C4925
:102CB0001B98401A00D0CAE0AFF2F8315848FDF72F
:102CC00059FB1B9056481B99081A082800D0BEE0F3
:102CD0001B98401C1A90AFF214411A98FDF74AFB5A
:102CE0001B901B9800B1B2E01A981B904DA11B9845
:102CF000FDF763FB00B1AAE004F092FE90B9012059
:102D00004A4948701C9800EB800101EB40211348B0
:102D100000EB410050F8021F1791406818904FF4E3
:102D2000806200E014E042A11548FDF793FB1448CF
:102D3000FDF73CFB1249891E08806420009008467C
:102D400000880B9001460E48DDE9172305F090F846
:102D50007DE00000474154455741590034000010C0
:102D6000436F6E66696720476174657761792054A7
:102D70006F3A25642E25642E25642E25640D0A00E5
:102D800094190010640201204C4F43414C504F52A3
:102D900054000000436F6E666967204C6F63616C7E
:102DA00020506F727420546F3A25640D0A000000A1
:102DB00052454D4F5445504F52540000436F6E667C
:102DC00069672052656D70746520506F727420546D
:102DD0006F3A25640D0A00004D41434144445200BE
:102DE0003A000000436F6E6669672052656D6F742C
:102DF00065204D41434164647220546F3A2530325E
:102E0000583A253032583A253032583A253032581F
:102E10003A253032583A253032580D0A0000000069
:102E200092150010444D323430380000000000107C
:102E30004C6963656E73652052656769737465726A
:102E4000656420446F6E65210D0A000000BF00BF5D
:102E500000211C9800EB800202EB4020064A22F879
:102E600010101C98401C80B21C901C980528FEF481
:102E7000A8AD00BF1DB000BD3400001070B5034602
:102E8000002011E013F8015B684008240AE000F01C
:102E900080051DB182EA4005E8B201E04506280E32
:102EA000651EECB2002CF2DC0D1EA1F10101E9D18E
:102EB00070BD00002DE9F047C8B004468A461546AB
:102EC0001E46F94890F8200018B9F8A048B0BDE8AF
:102ED000F087F549086B03F0DBFFF949884205D913
:102EE0000020F14981F82000F0A0EFE703F0CAFFCD
:102EF000ED4908634FF4827107A8FDF730FA00240A
:102F000080E255F82400EFA1FDF7DDFA18BB56F872
:102F100024104FF480720DF11E00FDF79BFA0DF1A5
:102F20001E00FDF743FA80B2ADF81C00BDF81C008E
:102F300000280FD006A9881D04F092FC0746002F38
:102F400008D1E2480699C0F80110E148DF49D1F8FC
:102F50000110016055E255F82400DEA1FDF7B3FA37
:102F600020BB56F824104FF480720DF11E00FDF7BF
:102F700071FA0DF11E00FDF719FA80B2ADF81C00D0
:102F8000BDF81C000028E5D005A90DF11E0006F0D3
:102F90004DF80746002FDDD1CC480599C0F809103F
:102FA000CB48CA49D1F8091001612AE255F824003A
:102FB000CAA1FDF788FA20BB56F824104FF480729E
:102FC0000DF11E00FDF746FA0DF11E00FDF7EEF9BA
:102FD00080B2ADF81C00BDF81C000028BAD004A9CE
:102FE0000DF11E0003F01AFF0746002FB2D1B748BB
:102FF0000499C0F80D10B648B449D1F80D104161DC
:10300000FFE155F82400B7A1FDF75DFA10BB56F8B3
:1030100024104FF480720DF11E00FDF71BFA0DF124
:103020001E00FDF7C3F980B2ADF81C00BDF81C000E
:1030300000288FD001A90DF11E0005F072FF074690
:10304000002F87D1A1480199C0F80510A049019827
:103050008880D6E155F82400A5A1FDF734FA50BBCD
:1030600056F824104FF480720DF11E00FDF7F2F9AE
:103070000DF11E00FDF79AF980B2ADF81C00BDF805
:103080001C00002891D09BA202A90DF11E0004F0A3
:1030900029FD0746002F88D18C4811300299016024
:1030A000BDF80C1081808A48884911310A68826114
:1030B00089888183A5E155F824008FA1FDF703FAE3
:1030C00020BB56F824104FF480720DF11E00FDF75E
:1030D000C1F90DF11E00FDF769F980B2ADF81C00D1
:1030E000BDF81C0000288BD006A9881D04F0B8FB91
:1030F0000746002F84D175480699C0F81710744808
:103100007249D1F81710C0F806107AE155F824007A
:103110007CA1FDF7D8F918BB56F824104FF4807243
:103120000DF11E00FDF796F90DF11E00FDF73EF9B9
:1031300080B2ADF81C00BDF81C00002889D001A9A0
:103140000DF11E0005F0EDFE0746002FB2D15F48DD
:103150000199C0F81B10019881B25D48418150E18E
:1031600055F824006AA1FDF7AEF998BB56F8241073
:103170004FF480720DF11E00FDF76CF90DF11E0089
:10318000FDF714F980B2ADF81C00BDF81C00002852
:1031900090D062A10DF11E00FDF795F920B9012034
:1031A0004A4981F88A022CE15EA10DF11E00FDF76B
:1031B0008AF920B90220454981F88A0221E15BA100
:1031C0000DF11E00FDF77FF928B90A203F4981F86B
:1031D0008A0216E10BE057A10DF11E00FDF773F90D
:1031E000002892D10B20394981F88A0209E155F86B
:1031F000240052A1FDF767F948B355F8240052A105
:10320000FDF761F918B355F8240052A1FDF75BF9F9
:10321000E8B155F8240052A1FDF755F9B8B155F8B9
:10322000240052A1FDF74FF988B155F8240052A1AE
:10323000FDF749F958B155F8240052A1FDF743F9BB
:1032400028B155F8240052A1FDF73DF958BB55F8B7
:10325000240052A1FDF78EF88146B9F1000F00D18C
:10326000D4E009F102094FF4807249460DF11E00C5
:10327000FDF7F0F84AA10DF11E00FDF77BF881463D
:10328000B9F1000F00D1C1E0002089F800000DF174
:103290001E00FDF72DF98046B8F1080F02DCB8F1E9
:1032A000000F7FDCB2E0ACE0000000102F4C6F6735
:1032B000696E54696D656F75742E68746D6C00006D
:1032C00020BF02004C6F63616C4950006402012012
:1032D000103801204E65744D61736B004761746551
:1032E000576179004C6F63616C506F72740000001D
:1032F0004D4143002D00000052656D6F74654950CB
:103300000000000052656D6F7465506F72740000AC
:1033100053656E736F725F5479706500505431302D
:1033200030000000505431303030000054435F4BC7
:103330000000000054435F4A000000004348315F32
:10334000436F6E66696700004348325F436F6E6685
:10335000696700004348335F436F6E66696700002A
:103360004348345F436F6E66696700004348355FCA
:10337000436F6E66696700004348365F436F6E6651
:10338000696700004348375F436F6E6669670000F6
:103390004348385F436F6E6669670000434800002A
:1033A0005F000000FFE756F824104FF480720DF123
:1033B0001E00FDF74FF80DF11E00FCF7F7FF80B27D
:1033C000ADF81C00BDF81C00D8B113A10DF11E0012
:1033D000FDF779F838B90121A8F1010000EB80026E
:1033E0000F4800F822100FA10DF11E00FDF76BF839
:1033F00038B90021A8F1010000EB8002084800F86C
:103400002210641C5445FFF67CAD00BF074819F03C
:1034100081F907A05AE50000456E61626C65000005
:10342000EF04012044697361626C6500103801206B
:103430002F436F6E666967506167652E7368746DA0
:103440006C00000010B53F48407878B93D4880785E
:1034500060B93C48C07848B93A48007930B9394831
:103460003949D1F80110C0F8011015E0354840780D
:10347000FF2811D133488078FF280DD13148C0781A
:10348000FF2809D12F480079FF2805D12D482E4962
:10349000D1F80110C0F801102A48D0F805004FF605
:1034A000FF71884205D32848D0F805102548C0F898
:1034B00005102448406E322804D32248406EB0F5EF
:1034C000FA2F03D92048406E1E4948661D48806E79
:1034D000052803D31B48806EFF2803D91A48816E44
:1034E000184881661748D0F8F40142F210718842FA
:1034F00005D91548D0F8F4011249C1F8F401114872
:10350000D0F8F80142F21071884205D90E48D0F87F
:10351000F8110C48C0F8F8110A4890F82602FF2864
:1035200004D1142209A10B48FCF794FF054890F838
:103530003A02FF2805D1142207A106481430FCF7EF
:1035400089FF10BD64020120B8AB030841646D69B6
:103550006E0000008A0401203100000010B502480E
:1035600002F0C2F810BD0000AC04002010B5024803
:1035700002F0BAF810BD00000C05002010B502489A
:1035800002F0B2F810BD0000B406002010B50248E9
:1035900002F0AAF810BD0000F405002010B50248A2
:1035A00002F0A2F810BD00001407002010B5024878
:1035B00002F09AF810BD0000540600200146087879
:1035C00010381823B0FBF3F20848805CC865032A62
:1035D00005D908686FF30900001D886503E00868D5
:1035E0006FF309008865886D70470000A8770208AE
:1035F000014600208A6A8B69CBB932B1012A0DD00D
:10360000022A03D0032A10D10EE000BFCB6A03F0D8
:103610008073B3F1807F00D1012007E0CB6AB3F162
:10362000C07F00D1012001E000E000BF34E08B69E1
:10363000B3F5005F1AD132B1012A07D0022A03D0B4
:10364000032A11D10AE000BF01200EE0CB6A03F08B
:103650008073B3F1807F00D1012006E0CB6AB3F123
:10366000C07F00D1012000E000BF15E032B1012A87
:1036700005D0022A04D0032A0CD103E000BF00BF0A
:10368000012008E0CB6A03F08073B3F1807F00D1A2
:10369000012000E000BF00BF704730B50468246817
:1036A00024F4802405682C60046863608468402CDE
:1036B00004D10468A2600468E16003E00468A160CA
:1036C0000468E26030BD7047016801F58051896986
:1036D00021F00202016801F580518A61704701689A
:1036E00001F58051896941F00202016801F58051BC
:1036F0008A617047016801F58051896921F400529F
:10370000016801F580518A617047016801F58051B7
:10371000896941F40052016801F580518A6170475E
:1037200008B508490968C9084FF47A72B1FBF2F18B
:103730004143009100BF00BF00994A1E009200293A
:10374000F9D108BDA000002038B504460020009043
:10375000206800F58050806940F48011206800F5F1
:1037600080508161206800F58050806900900120C0
:10377000FFF7D6FF0099206800F58050816138BDC1
:1037800010B5024802F000FC10BD00005C380020BB
:1037900030B503461479557944EA0520084C0C44A9
:1037A0002064D4782406957844EA0544557844EAA0
:1037B0000524157844EA0500014C0C44606430BDD2
:1037C0000080024070B5AEB004460E46002526B11A
:1037D0004FF40061E160C900A160002011901290D7
:1037E0001390149015901690E06918B94FF480600A
:1037F000179001E0002017904FF4007018900020FF
:1038000019901A901B901C901D9040201E90002033
:103810001F90209021902290239024902590269014
:10382000802027900020289029902A902B902C907F
:103830002D902068056871480540DDE911010843B5
:103840001399084314990843A1680843159908433C
:1038500016990843E16808431799084318990843E3
:10386000199908431A9908431B990843054320688E
:10387000056020680568012002F016F920680560DF
:10388000DDE91C0108431E9908431F99084320994C
:103890000843219908432299084323990843216842
:1038A000486020684568012002F0FEF82068456005
:1038B00024982168886025982168C86020688569F7
:1038C0004FF641700540DDE9261040EA0140289995
:1038D0000843299908432A9908432B99084305432B
:1038E0002068856120688569012002F0DDF8206884
:1038F0008561DDE92C0108432168C8612068C5693C
:10390000012002F0D1F82068C561002001904FF03D
:1039100000700290002003904FF4001004900020EB
:10392000059006900790089004200990C0050A9021
:1039300040120B9080010C9040120D9080200E9050
:1039400000200F901090206800F5805085692C4869
:103950000540DDE901010843039908430499084340
:1039600005990843069908430799084308990843AD
:10397000099908430543206800F580508561206857
:1039800000F580508569012002F08EF8206800F56E
:1039900080508561DDE90A0108430C9908430D99BF
:1039A00008430E9908430F9940EA81001099084393
:1039B00040F40001206800F580500160206800F5A7
:1039C00080500568012002F06FF8206800F58050F3
:1039D0000560A069012809D1206800F58050C06900
:1039E00008490843216801F58051C861002120463B
:1039F0006269FFF7CDFE2EB070BD00000F8120FF81
:103A0000233FDEF84000010038B504460020009056
:103A10002068006820F004002168086020680068C1
:103A200000900120FFF77CFE00982168086038BDF7
:103A300038B50446002000902068006840F004007B
:103A4000216808602068006800900120FFF768FE88
:103A500000982168086038BD38B504460020009001
:103A60002068006820F0080021680860206800686D
:103A700000900120FFF754FE00982168086038BDCF
:103A800038B50446002000902068006840F0080027
:103A9000216808602068006800900120FFF740FE60
:103AA00000982168086038BD72B600BFFEE70000CC
:103AB00070B505460C462FA12846FCF75BFCA842D2
:103AC00006D12CA12846FCF755FC2060032070BDD0
:103AD0002AA12846FCF74EFCA84206D127A1284679
:103AE000FCF748FC20600420F1E726A12846FCF7FB
:103AF00041FCA84206D123A12846FCF73BFC2060EC
:103B00000520E4E721A12846FCF734FCA84206D1B1
:103B10001EA12846FCF72EFC20600020D7E71CA140
:103B20002846FCF727FCA84206D119A12846FCF735
:103B300021FC20600120CAE718A12846FCF71AFCE6
:103B4000A84206D115A12846FCF714FC20600620E7
:103B5000BDE713A12846FCF70DFCA84206D110A131
:103B60002846FCF707FC20600720B0E70020206013
:103B7000401EACE753415645000000005245424FFD
:103B80004F540000524553544F5245002F3F000000
:103B90005441534B494E464F0000000053455400DA
:103BA0005245474953544552000000000246002048
:103BB000012A02D140F0400301E020F04003184602
:103BC000034661F305031846704700002DE9F843EA
:103BD00006460F464FF00108F5E04046B8F1050FE4
:103BE0007DD008DC00F10100062879D2DFE800F082
:103BF000DFE30E246082062873D0072872D0B0F568
:103C00007A7F70D0B0F5FA6F6AD1CEE00024A14679
:103C10006D4800EB86004078C0F302116A484030DE
:103C200010F8210000F00700012802D14FF47A7843
:103C300001E04FF00208C2E0002E01DC002004E0A9
:103C40000F2E01DB0F2000E030460646002525E060
:103C5000B54201D1012000E000205B4901EB850164
:103C6000497860F3C711584800EB85004170564809
:103C700000EB8500D0F8009005F1090000EB400052
:103C8000524901EB800C4B4600979CE8070000F07E
:103C9000B3FD044604B103E0681CC5B2102DD7DBA8
:103CA00000BF14B94FF0030801E04FF4FA6886E052
:103CB0004FF40009444800EB860000974078C0F3B9
:103CC0000210293000EB4000404901EB800C4B46CC
:103CD0009CE8070000F090FD044644B904E02AE0A7
:103CE00069E033E053E05DE04FF0040801E04FF499
:103CF000FA6864E034480D38407820F0C000403065
:103D000031490D3948700846407820F03C001830A1
:103D100048700846D0F801904B462C4800970C306C
:103D200007C800F069FD044614B94FF0050801E02A
:103D30004FF4FA6843E0384600F01CFD044614B91D
:103D40004FF0060801E04FF4FA6838E01E480D38DD
:103D5000407820F0C00040301B490D3948700846BB
:103D6000407820F03C00143048700846D0F80190AC
:103D70004B46164800970C3007C800F03DFD04463E
:103D800014B94FF0070801E04FF4FA6817E038461D
:103D900000F0F0FC044614B94FF47A7801E04FF4D7
:103DA000FA680CE02046BDE8F8832046FBE70124D2
:103DB0004FF4FA6803E001244FF4FA6800BF00BF33
:103DC0000A2014F0A7FF08E75D38012080B003083F
:103DD00012480078124B93F88A32984201D00120A1
:103DE0007047002115E001EB81030E4810F8230015
:103DF000012800D100E00020024608480D3000EB09
:103E000081004078B2EBD01F01D00220E8E7481CC7
:103E1000C1B20829E7DB0020E2E7000050380120AA
:103E200064020120EF040120FEB50126E4E23046E1
:103E3000062E72D009DC00F1010007286ED2DFE8FF
:103E400000F0FC6D134E5A729700092867D004DC0D
:103E500007287DD0082861D175E2B0F57A7F78D047
:103E6000B0F5FA6FF7D1BBE2002002906D21FE4859
:103E7000FCF775FA0021FD4880F82210FC48006923
:103E8000F949C1F80100FB4890F88A020870002542
:103E90000EE005F1090000EB4000F54901EB800060
:103EA0004168F1480D3000EB85000160681CC5B227
:103EB000102DEEDB00250EE005F1190000EB4000AF
:103EC000EB4901EB80004168E7484D3000EB85008D
:103ED0000160681CC5B2082DEEDB022688E200F006
:103EE00029FC044624B90326642014F013FF01E0E2
:103EF0004FF4FA667CE202A800F072FB044614B1AB
:103F00004FF4FA6674E29DF80800142803D09DF877
:103F10000800162804D104266AE23DE065E240E28A
:103F20004FF4FA6664E2D048407A20F00400001DA5
:103F3000CD4948720846D0F80900019064200090ED
:103F4000CB48019B543007C805F0E3FE044601E06E
:103F500063E043E22CB90121C44880F82210052611
:103F600005E00021C14880F822104FF4FA663FE2D4
:103F7000642001AB0090BE4807C800F047FB044630
:103F800024B9019800F0010000B101240CB9062603
:103F900001E04FF4FA662BE2B348407820F00300CA
:103FA000B14948700846407820F03C001030487015
:103FB0000846407820F0C0004030487008468078BD
:103FC00020F00100401C88700846807820F0020034
:103FD000801C88700846807820F00400001D8870DE
:103FE0000846807820F008019F488170807820F092
:103FF00010019D488170D0F801000190642000906C
:104000009B48019B0C3007C805F083FE04460CB9A1
:10401000072601E04FF4FA66EAE1934890F84D0074
:1040200020F00700401D904981F84D00084690F8A7
:104030004D0020F01800103000E0D3E181F84D0071
:10404000084690F84D0020F02000203081F84D0007
:10405000084690F84D0020F04000403081F84D00B7
:10406000084690F84D0020F08000803081F84D0027
:10407000084690F84E0020F00100401C81F84E00E8
:10408000084690F84E0020F00601774880F84E1060
:1040900090F84E0020F008000830734981F84E0077
:1040A0000846D0F84D000190642000907248019BB2
:1040B0002C3007C805F02DFE044614B14FF4FA6603
:1040C00096E16C4890F88A02012802D002284FD16C
:1040D00050E0654890F8510020F00700C01C62498C
:1040E00081F85100084690F8510020F01800103077
:1040F00081F85100084690F8510020F0200020304F
:1041000081F85100084690F8510020F040004030FE
:1041100081F85100084690F8510020F0800080306E
:1041200081F85100084690F8520020F00101491C26
:104130004D4880F8521090F8520020F006014A488D
:1041400080F8521090F8520020F00801464880F89C
:104150005210D0F851000190642000904648019B15
:10416000383007C805F0D5FD044614B14FF4FA669F
:1041700051E050E03C4890F8510020F00700401C0E
:10418000394981F85100084690F8510020F0180094
:10419000103081F85100084690F8510020F02000BE
:1041A000203081F85100084690F8510020F040007E
:1041B000403081F85100084690F8510020F080000E
:1041C000803081F85100084690F8520020F001013B
:1041D000491C254880F8521090F8520020F0060142
:1041E000214880F8521090F8520020F008011E4833
:1041F00080F85210D0F851000190642000901E48C1
:10420000019B383007C805F084FD044614B14FF413
:10421000FA6600E000BF00BF134890F8610020F08C
:104220000701114880F8611090F8610020F0180033
:1042300010300D4981F86100084690F8610020F0C7
:104240002000203081F86100084690F8610020F0DD
:104250004000403081F86100084690F8610020F08D
:10426000800080300AE0000050380120000000107B
:1042700080B003086402012080B1030881F8610066
:10428000084690F8620020F00101491C5B4880F864
:10429000621090F8620020F00601584880F8621021
:1042A00090F8620020F00801544880F86210D0F8BD
:1042B00061000190642000905148019B683007C85C
:1042C00005F027FD044614B14FF4FA6690E04B4820
:1042D0000146D1F84D10C0F8651090F8650020F047
:1042E0000701464880F86510D0F865000190642009
:1042F00000904348019B743007C805F00AFD04464E
:1043000014B14FF4FA6673E03C480146D1F84D1001
:10431000C0F8691090F8690020F00701374880F86C
:104320006910D0F869000190642000903448803012
:10433000019B07C805F0EDFC04460CB9082601E016
:104340004FF4FA6654E00020019001980190019822
:1043500040F480100190019840F4202001900198D1
:1043600040F01E000190002512E06420009005F14D
:10437000210000EB4000234901EB8007019B97E8F7
:10438000070005F0C6FC044604B103E0681CC5B292
:10439000082DEADB00BF0CB9092601E04FF4FA66EC
:1043A00026E0194890F88A020A280FDB00200190C5
:1043B000019840F400500190642000901148019B46
:1043C000303007C805F0A5FC044600E0002414B90D
:1043D0004FF47A7601E04FF4FA6609E00020FEBD62
:1043E0000120FCE74FF4FA6602E04FF4FA6600BFE2
:1043F00000BF0A2014F08EFC19E50000503801209F
:1044000080B1030880B003086402012070B504463F
:10441000012C01D0012000E0002005462A464FF47F
:104420000041024802F0F4FC70BD000000000240B0
:10443000FEB506460025002453E0404800EB84000A
:10444000006802900120A040304028B13B4800EBBA
:1044500084004078C00900E000209DF8091060F356
:10446000C7118DF80910029F6420009004F1090023
:1044700000EB4000324901EB800C3B469CE8070012
:1044800005F047FC054605B153E02C4804F108014E
:1044900000EB8100006802900120A040304028B16C
:1044A000264800EB84004078C00900E000209DF819
:1044B000091060F3C7118DF80910029F6420009065
:1044C00004F1110000EB40001D4901EB800C3B465C
:1044D0009CE8070005F01DFC054605B129E0601CBD
:1044E000C4B2082CA9DB0120FFF790FF002115487A
:1044F00004F0D3FA054605B11BE00021124880F80C
:1045000029100020FFF782FF01966423012201A9F0
:104510000C4804F0CCFA054605B10AE00120FFF78B
:1045200075FF0121074804F0B8FA054605B100E01F
:1045300000BF0020FFF76AFF2846FEBD5D3801205E
:1045400080B0030854040020000000102DE9F04161
:1045500086B007468846154600200590284600F09C
:1045600009F906461EB1304606B0BDE8F0811A4A88
:10457000183207CA02AB07C318488078C0F380001E
:1045800028B19DF81000401CC0B28DF8100005AB9A
:10459000009502A807C800F039F806460EB130466B
:1045A000E2E70E488078C0F3800080B10598C4B27D
:1045B00004F0800050B904F0400038B904F00F0056
:1045C00088F800000598000A059000E0012605988B
:1045D00038603046C8E7000080B00308503801203A
:1045E0007CB50446C82001AB009007483C3007C8A2
:1045F00000F00CF8054615B90198207001E0002084
:10460000207028467CBD000080B003082DE9FF5FC4
:104610009846DDF83890454890F82200012800D1EE
:1046200000E000208246BAF1010F04D19DF8080095
:10463000801C400003E09DF80800401C4000054637
:10464000284616F0F9FF044624B90126304604B086
:10465000BDE8F09F29462046FBF781FE02F012FCE0
:1046600083469DF800100120FFF7A0FA20701FE09C
:104670002F4804F047F8012810D1FFF7C7FE0121A9
:104680002A4880F8291004EB5502C5F34F03214650
:10469000274804F0E3FA064606B90AE0584602F055
:1046A000F7FB484501D9032637E0012014F032FB1F
:1046B000DEE700BF2EE01E4804F024F801281FD1D9
:1046C000BAF1010F12D1207804EB550108700122D4
:1046D000C2EB550104EB55000722FEF7CFFB07465E
:1046E000681E215CB94201D0012616E09DF8082021
:1046F00004EB5500411C404600F008FA00260AE091
:10470000584602F0C5FB484501D9032603E00120C5
:1047100014F000FBCFE700BF00BF0020FFF776FEDC
:10472000204620F0DFFF304691E700000000001037
:10473000540400201CB5FF2208216846FBF708FE40
:104740000120FFF763FE0121084880F82910642347
:1047500008226946064804F0AAF904460020FFF73B
:1047600055FE0A2014F0D6FA20461CBD00000010A9
:10477000540400207CB5044602F084FB064617E092
:1047800001AB0D48009407C8FFF740FF054605B18F
:104790000FE0019800F0800000B90AE0304602F016
:1047A00077FBA04201D9032503E0012014F0B2FAFF
:1047B000E6E700BF28467CBD80B00308F8B5044694
:1047C000012C00D100E000200949897960F3C7116C
:1047D00007488171D0F8055064202B4600900548A9
:1047E000243007C800F008F806463046F8BD00003F
:1047F0005038012080B003082DE9FF471F46DDF83F
:104800003080394890F82200012800D100E00020D3
:104810008146B9F1010F03D19DF80800801C02E028
:104820009DF80800401C0546284616F005FF044682
:1048300024B90126304604B0BDE8F08702F022FB1F
:1048400082469DF800100220FFF7B0F920709DF815
:1048500008203946601C05F026FAB9F1010F06D18F
:10486000691E07222046FEF709FB691E60541CE002
:104870001E4803F047FF01280DD1FFF7C7FD0121B6
:10488000194880F82910AAB22146184804F09CFA69
:10489000064606B90AE0504602F0FAFA404501D948
:1048A000032619E0012014F035FAE1E700BF10E01B
:1048B0000E4803F027FF012801D100260AE05046E8
:1048C00002F0E6FA404501D9032603E0012014F086
:1048D00021FAEDE700BF00BF0020FFF797FD20465B
:1048E00020F000FF3046A6E700000010540400202E
:1048F00010B52DED028B5F4890F88A02012804D094
:10490000022836D00A287DD167E000242EE004EB8F
:104910008401594810F82100012826D140F297104F
:10492000604356490844B0F8010001281DDD40F2FB
:10493000971262430B461A44B2F8011040F29712E4
:1049400062431A44D01C082201F00CFFB0EE408AEA
:10495000F0EE608A51EC180BFBF77DFF40F29711E7
:104960006143464A1144C1F89301641C082CCED31C
:104970007CE000242EE004EB84013F4810F8210085
:10498000012826D140F2971060433C490844B0F812
:10499000010001281DDD40F2971262430B461A44C4
:1049A000B2F8011040F2971262431A44D01C082258
:1049B00001F0D8FEB0EE408AF0EE608A51EC180BA0
:1049C000FBF749FF40F2971161432C4A1144C1F8AB
:1049D0009301641C082CCED348E0002430E004EBA3
:1049E0008401254810F82100012828D140F29710B1
:1049F000604323490844B0F8010001281FDD40F25C
:104A0000971200E031E062430B461A44B2F80110FD
:104A100040F2971262431A44D01C082201F0A2FE11
:104A2000B0EE408AF0EE608A51EC180BFBF713FFF2
:104A300040F297116143124A1144C1F89301641C7A
:104A4000082CCCD30F48B0F801100822C01C01F08C
:104A500089FEB0EE408AF0EE608A51EC180BFBF74D
:104A6000FAFE0849C1F8930100E000BF00BFBDECA9
:104A7000028B10BD64020120EF040120F027012009
:104A8000381B0120A83401202DE9F04FC9B006469B
:104A90000F4690469946DDF848B1DDF84CA1549C8C
:104AA00000208DF8100018200C90CDF81CB04A465C
:104AB000414603A8FCF75DFA05461DB1012049B047
:104AC000BDE8F08F02A853463A463146009003A84D
:104AD000FCF76EF9054615B90298206003E0002046
:104AE00020600120EBE7206800EB0A0102AA03A87E
:104AF000FCF732FA05462DB9206802990844206077
:104B00000020DCE7002020600120D8E710B5034634
:104B100000201860002A00DC04E0042A01D30420ED
:104B200000E010460246002006E08C18241A14F813
:104B3000014C1C54441CA0B29042F6DB10BD10B5D1
:104B400004460CB9012010BD607920B90020207105
:104B5000204600F005F8012060710020F3E7000016
:104B600008B50A4A016891420FD100BF00210091A7
:104B70000749096841F48051054A116011460968E6
:104B800001F48051009100BF00BF08BD0030024019
:104B90003038024070B52DED068B04460E461546A2
:104BA000A4F50000FBF739FE41EC180B2846FBF793
:104BB00045FE41EC190B9FED120B53EC102B51EC01
:104BC000180BFBF7BBFD41EC1A0B53EC192BFBF751
:104BD00043FD41EC180B3046FBF730FE41EC190B5E
:104BE00053EC192B51EC180BFBF7A8FD41EC180BFB
:104BF000B0EE480AF0EE680ABDEC068B70BD00000E
:104C0000000000000000604170B52DED048B0446EB
:104C10000D4640F6C41229462046FFF7BBFFB0EE12
:104C2000409AF0EE609A51EC190BFBF771FE08EE1A
:104C3000100A9FED0D0AB4EEC08AF1EE10FA04DB03
:104C40009FED0A0ABDEC048B70BD9FED090A28EEAA
:104C5000000ADFED050A70EEC80A80EE201AB0EEF9
:104C6000418AB0EE480AEDE700401C450000000014
:104C700000A0AF452DE9F0412DED088B06460F460B
:104C800014461D46B0EE409AF0EE609A6DBB102CB3
:104C900005D89FED330BBDEC088BBDE8F08138469D
:104CA000FBF7CCFD41EC1A0B3046FBF7C7FD41EC9E
:104CB0001B0B53EC1A2BFBF741FD41EC180B204664
:104CC000FBF7BCFD41EC1A0B53EC1A2B51EC180B03
:104CD000FBF734FD41EC180B53EC192B51EC180B7E
:104CE000FBF7BAFC41EC180B34E0012D30D1A4F5F0
:104CF0000000102802D89FED1A0BCCE7A6F50000A3
:104D0000FBF79CFD41EC180B3846FBF797FD41EC97
:104D10001A0B53EC1A2B51EC180BFBF70FFD41EC5F
:104D2000180BA4F50000FBF789FD41EC1A0B53ECBE
:104D30001A2B51EC180BFBF701FD41EC180B53EC4F
:104D4000192B51EC180BFBF787FC41EC180B01E019
:104D50009FED038BB0EE480AF0EE680A9BE7000077
:104D600000000000000000002DE9F0412DED088B4F
:104D700006460F4614461D46B0EE409AF0EE609A85
:104D80006DBB102C05D89FED330BBDEC088BBDE837
:104D9000F0813846FBF752FD41EC1A0B3046FBF729
:104DA0004DFD41EC1B0B53EC1A2BFBF7C7FC41EC00
:104DB000180B2046FBF742FD41EC1A0B53EC1A2B63
:104DC00051EC180BFBF7BAFC41EC180B53EC192B08
:104DD00051EC180BFBF740FC41EC180B34E0012DB3
:104DE00030D1A4F50000102802D89FED1A0BCCE7B3
:104DF000A6F50000FBF722FD41EC180B3846FBF747
:104E00001DFD41EC1A0B53EC1A2B51EC180BFBF760
:104E100095FC41EC180BA4F50000FBF70FFD41ECED
:104E20001A0B53EC1A2B51EC180BFBF787FC41ECD7
:104E3000180B53EC192B51EC180BFBF70DFC41EC44
:104E4000180B01E09FED038BB0EE480AF0EE680A04
:104E50009BE7000000000000000000002DE9F04189
:104E60002DED0C8BB0EE408AF0EE608A07469FED88
:104E7000400B53EC102B51EC180BFBF719FD08D32A
:104E80009FED3D0B53EC102B51EC180BFBF728FD5D
:104E900004D20120BDEC0C8BBDE8F0819FED389B66
:104EA0009FED370B53EC102B51EC180BFBF700FD6B
:104EB00002D20025092619E09FED330B53EC102B8D
:104EC00051EC180BFBF7F4FC02D801250A260DE083
:104ED0009FED2D0B53EC102B51EC180BFBF700FD45
:104EE00002D20225082601E00120D3E79FED280B1E
:104EF00053EC102B51EC180BFBF7AEFB41EC1A0BEB
:104F000000242FE02046FBF799FC41EC1D0BB0EE8E
:104F10004D1AF0EE6D1AB0EE4A0AF0EE6A0A0AF087
:104F20000BF9B0EE40CAF0EE60CA05EB85001A49F5
:104F300001EB001000EBC40090ED001BB0EE410A45
:104F4000F0EE610A53EC102B51EC1C0BFBF784FBC9
:104F500041EC1B0B53EC192BFBF7D7FA41EC190B67
:104F6000601CC4B2B442CDDB87ED009B002091E70A
:104F700000000000000018C03333333333734B405C
:104F80000000000000000000BE9F1A2FDDA4344086
:104F90000000000000408F4058B3030810B52DED0D
:104FA000108BB0EE408AF0EE608AB0EE41FA88EEE7
:104FB0000F0A10EE104A2046FBF766FC41EC1E0B70
:104FC000B0EE4E0AF0EE6E0A09F0D2FEB0EE40CA24
:104FD000F0EE60CAB7EE000AC0EE280A10EE904A62
:104FE0002046FBF751FC41EC1D0B53EC1C2BFBF74F
:104FF00033FB41EC1B0B9FED100B53EC102BFBF71D
:1050000084FA41EC1A0B53EC1A2B9FED0D0B51EC6B
:10501000100BFBF793FB41EC190BFBF779FC0FEE40
:10502000900A9FED090A3FEEC00AF0EE40FAB0EE9A
:105030006F0ABDEC108B10BD000000E0E1796B3F02
:10504000000000000000F03F3393884330B52DEDA1
:10505000108B97B0B0EE408AF0EE608A05469FED67
:10506000DA0B8DED140B9FEDDA0B8DED120B9FED2E
:10507000DA0B8DED100B9FEDDA0B8DED0E0B9FED26
:10508000D20B53EC102B51EC180BFBF757FB41ECF8
:105090001C0B9FEDD50B53EC102BFBF7D7FA41EC13
:1050A0001B0B9FEDCB0B53EC102BFBF747FB41EC9D
:1050B000190B9FEDCF0B53EC102B51EC180BFBF79A
:1050C0000FFC7DD89FEDC00B53EC102B51EC180B4F
:1050D000FBF7EEFB74D2002411E19FEDC71BB0EE8D
:1050E000490AF0EE690A0AF027F8B0EE40EAF0EE5D
:1050F00060EA9FEDC30B53EC102B51EC1E0BFBF73A
:10510000ABFA41EC1C0B9FEDC01BB0EE490AF0EE70
:10511000690A0AF011F8B0EE40FAF0EE60FA9FED7D
:10512000BC0B53EC102B51EC1F0BFBF795FA41EC29
:105130001E0B53EC192B9FEDB80B51EC100BFBF72A
:105140008BFA41EC1F0B9FEDA20B53EC102BFBF7DE
:10515000DCF953EC1E2BCDE906019DED060B51EC5D
:10516000100BFBF773FA41EC1D0B53EC1C2BFBF7F8
:10517000CCF941EC1B0B9FED940B53EC102BFBF780
:105180006BFA9FEDA71BB0EE490AF0EE690ACDE974
:105190000A0109F0D1FFB0EE40DAF0EE60DA9FEDDF
:1051A000900B53EC102B51EC1D0BFBF755FA41EC17
:1051B0001C0B9FED911BB0EE490AF0EE690A00E06E
:1051C000A1E009F0B9FFB0EE40DAF0EE60DA9FED51
:1051D000960B53EC102B51EC1D0BFBF73DFA9FED9A
:1051E0008A1BB0EE490AF0EE690ACDE9020109F026
:1051F000A3FFB0EE40FAF0EE60FA9FED770B53ECB0
:10520000102B51EC1F0BFBF727FA41EC1D0B53EC55
:10521000192B9FED6F0B51EC100BFBF71DFA41ECB6
:105220001F0B9FED710B53EC102BFBF76EF941EC4C
:105230001E0B53EC1D2BFBF768F9CDE900019DED2A
:10524000020B53EC102B9DED000B51EC100BFBF7F8
:10525000FDF953EC1C2BCDE904019DED040B51EC41
:10526000100BFBF752F99FED580B53EC102BCDE9C7
:1052700006019DED060B51EC100BFBF7EDF941EC2F
:105280001B0B53EC182BFBF7E4F9CDE908019DED5E
:105290000A0B53EC102B9DED080B51EC100BFBF798
:1052A0004DFA53EC192BCDE90C019DED0C0B51EC93
:1052B000100BFBF72AF941EC1A0B53EC192B51ECAC
:1052C0001A0BFBF7C3F941EC1C0BB0EE4C0AF0EEE5
:1052D0006C0A09F040FDB0EE40BAF0EE60BA9FED06
:1052E000540B53EC102B51EC1B0BFBF7E1FA00D2E3
:1052F00008E0B0EE4A9AF0EE6A9A601CC4B20A2C3A
:10530000FFF6EBAE5BE09FED300B53EC102B51EC56
:10531000180BFBF7E5FA4DD89FED470B53EC102B1C
:1053200051EC180BFBF7C4FA44D89FED270B53EC54
:10533000102B51EC180BFBF78CF99FED410B53EC44
:10534000102BCDE90C019DED0C0B51EC100BFBF774
:1053500083F941EC1E0B9FED2C1B9FED3B0B09F0DD
:10536000EBFEB0EE40FAF0EE60FA53EC1E2B51EC7F
:105370001F0BFBF76BF941EC1D0BB0EE4D0AF0EE85
:105380006D0A0AF001FDB0EE40CAF0EE60CA9FED72
:105390002E0B53EC102B51EC1C0BFBF757F941EC87
:1053A0001B0B9FED2B0B53EC102BFBF7C7F941ECBC
:1053B0001A0B04E0012017B0BDEC108B30BD85ED59
:1053C00000AB0020F7E7000000000000000059409B
:1053D0001C64ED4A2602703F88CE19EEAF60A3BE72
:1053E000FA5FD7A9A36592BD000000000000F03F5E
:1053F00085EB51B81E8532400000000000000840D7
:10540000FA5FD7A9A365B2BD00000000000000400C
:10541000796408CB1B8F15BE88CE19EEAF60B3BE82
:105420000000000000001040F78560B9CFBEFCBD51
:105430007B14AE47E17A843F04560E2DB267784064
:10544000B45208E412472EBF6CEC12D55B03D93F6F
:10545000B45208E412471EBF70B52DED108B86B014
:10546000B0EE408AF0EE608A04469FED420BB0EE4B
:1054700040FAF0EE60FA9FED410B8DED040B9FEDCD
:10548000410B8DED020B9FED410B53EC102B51ECBA
:10549000180BFBF753F941EC1A0B9FED3E0B53EC45
:1054A000102BFBF7D3F841EC190B9FED340B53ECA9
:1054B000102BFBF743F9CDE900019FED380B53ECBE
:1054C000102B51EC180BFBF70BFA49D89FED350B5D
:1054D00053EC102B51EC180BFBF7EAF940D29FED7F
:1054E000250B53EC102B51EC180BFBF7B2F841ECE9
:1054F0001E0B9FED2E0B53EC102BFBF7ADF841EC80
:105500001C0B9FED2C1B9FED2D0B09F015FEB0EE33
:1055100040DAF0EE60DA53EC1C2B51EC1D0BFBF77C
:1055200095F841EC1B0BB0EE4B0AF0EE6B0A0AF05B
:105530002BFCB0EE40AAF0EE60AA9FED200B53ECDE
:10554000102B51EC1A0BFBF781F841EC190B9FED76
:105550001D0B53EC102BFBF7F1F80E46054604E04B
:10556000012006B0BDEC108B70BDC4E900560020D0
:10557000F7E700000000000000408F40E1E366060E
:10558000DCA36F3F1594CB8E82EAA5BE000000001D
:1055900000005940000000000000F03F2FDD24060D
:1055A00081188940E17A14AE0791A0409DCE727FA8
:1055B000036765BF00000000000000408A7A40DEFB
:1055C00004E60E409DCE727F036755BF10B540F2D2
:1055D0007E420C490C48FAF79BFE012409E004EBDB
:1055E00084020A4901EB82001422FAF791FE601C42
:1055F00084B2082CF3D3044805490A88828289784A
:10560000817510BDB8AB030864020120EF040120CE
:10561000107AFF1F70B50446A56D01F033FC0646F5
:1056200094F83500022808D08020606500BF002073
:1056300084F8340000BF012070BD2068006820F0AD
:105640001600216808602068406920F08000216809
:105650004861206C08B9A06C28B12068006820F06F
:105660000800216808602068006820F001002168B7
:10567000086010E001F006FC801B05280BD92020F3
:105680006065032084F8350000BF002084F83400F2
:1056900000BF0320D0E72068006800F00100002868
:1056A000E8D194F85C103F208840A860012084F87D
:1056B000350000BF002084F8340000BF00BFBBE706
:1056C000014691F83500022803D08020486501206A
:1056D0007047052081F835000868006820F0010057
:1056E0000A6810600020F3E7F8B504460020009037
:1056F0008C4800684FF41651B0FBF1F7A56D2E6889
:1057000094F85C1008208840304098B12068006808
:1057100000F0040070B12068006820F004002168E7
:10572000086094F85C1008208840A860606D40F024
:105730000100606594F85C1001208840304068B139
:105740002068406900F0800040B194F85C100120AE
:105750008840A860606D40F00200606594F85C10BD
:1057600004208840304068B12068006800F00200E2
:1057700040B194F85C1004208840A860606D40F04F
:105780000400606594F85C1010208840304078B3C5
:105790002068006800F0080050B394F85C101020F6
:1057A0008840A8602068006800F4802080B12068EC
:1057B000006800F4002028B9206CC8B12046216C94
:1057C000884715E0A06C98B12046A16C88470FE08F
:1057D0002068006800F4807028B92068006820F014
:1057E000080021680860206C10B12046216C8847B1
:1057F00094F85C10202088403040002865D0206854
:10580000006800F0100000285FD094F85C102020A1
:105810008840A86094F83500052828D120680068E1
:1058200020F01600216808602068406920F08000A0
:1058300021684861206C08B9A06C28B12068006814
:1058400020F008002168086094F85C103F20884030
:10585000A860012084F8350000BF002084F83400DF
:1058600000BF206D10B12046216D8847F8BD20682B
:10587000006800F4802080B12068006800F40020F7
:1058800028B9606C10B12046616C88471DE0E06B60
:10589000D8B12046E16B884717E02068006800F423
:1058A000807068B92068006820F0100021680860E6
:1058B000012084F8350000BF002084F8340000BFC8
:1058C000E06B10B12046E16B8847606D38B3606DC6
:1058D00000F00100F0B1052084F835002068006870
:1058E00020F001002168086000BF0098401C009073
:1058F000B84200D905E02068006800F001000028E7
:10590000F3D100BF012084F8350000BF002084F8E7
:10591000340000BFE06C10B12046E16C884700BF46
:10592000A4E70000A00000202DE9F0410446002576
:1059300001F0A8FA074614B90120BDE8F081606AB9
:1059400000B100BF022084F8350000BF002084F8B9
:10595000340000BF2068006820F001002168086062
:105960000AE001F08FFAC01B052805D920206065E8
:10597000032084F83500E0E72068006800F00100AB
:105980000028EED12068056821480540D4E90101CE
:105990000843E16808432169084361690843A16934
:1059A0000843E1690843216A08430543606A042803
:1059B00003D1D4E90B010843054320680560206842
:1059C000456925F00705606A0543606A04280DD122
:1059D000A06A0543E06A48B12046FDF709FE28B1F8
:1059E00040206065012084F83500A6E72068456105
:1059F0002046FDF7E3FD064694F85C103F20884002
:105A0000B06000206065012084F83500002094E734
:105A10003F8010F02DE9F04704460D4616461F461C
:105A20004FF00008D4F8589000BF94F834000128D3
:105A300002D10220BDE8F087012084F8340000BFC5
:105A400094F83500012825D1022084F83500002083
:105A500060653B46324629462046FDF71EFE94F817
:105A60005C103F208840C9F808002068006840F0BA
:105A7000160021680860206C28B12068006840F09A
:105A80000800216808602068006840F00100216873
:105A9000086006E000BF002084F8340000BF4FF02B
:105AA00002084046C6E7000070B5044601F0EAF976
:105AB00006462546681C10B104480078054400BF1E
:105AC00001F0E0F9801BA842FAD370BD9C000020D1
:105AD000F8B504460D4616462B4622460021A02066
