:020000040800F2
:1000000000000220B5770108B1690008B369000853
:10001000B5690008B7690008B96900080000000068
:1000200000000000000000000000000061C900089E
:10003000BB6900080000000001CA000885BE000876
:100040000578010805780108057801080578010898
:100050000578010805780108057801080578010888
:10006000057801080578010805780108BD690008D0
:100070000578010805780108057801080578010868
:10008000CD690008057801080578010805780108A0
:10009000057801080578010805780108DD69000880
:1000A00005780108E9690008057801080578010864
:1000B000F9690008096A0008196A0008057801084A
:1000C0000578010805780108057801080578010818
:1000D00005780108296A00080578010805780108F3
:1000E00005780108057801080578010805780108F8
:1000F0000578010805780108396A000805780108C3
:100100000578010805780108496A000805780108A2
:100110000578010805780108596A0008696A00082D
:1001200005780108796A0008896A000805780108DD
:1001300005780108996A0008057801080578010822
:100140000578010805780108057801080578010897
:1001500005780108A96A0008B96A0008C96A000898
:100160000578010805780108057801080578010877
:1001700005780108057801080578010800000000ED
:0801800005780108057801086B
:1001900010B5054C237833B9044B13B10448AFF3C1
:1001A00000800123237010BD3005002000000000F6
:1001B0002490010808B5034B1BB103490348AFF372
:1001C000008008BD000000003405002024900108D4
:1001D00010F8012B11F8013B012A28BF9A42F7D0F1
:1001E000D01A7047034613F8012B002AFBD1181AC6
:1001F000013870470000000000000000000000000F
:1002000001F0FF01102A2BDB10F0070F08D010F8C7
:10021000013B013A8B422DD010F0070F42B3F6D1CB
:10022000F0B441EA012141EA014122F007047FF0E4
:1002300000070023F0E80256083C85EA010586EA3B
:10024000010685FA47F5A3FA87F586FA47F6A5FA77
:1002500087F68EB9EED1F0BC01F0FF0102F0070283
:1002600032B110F8013B013A83EA010313B1F8D12E
:100270000020704701387047002D06BF354603380F
:10028000073815F0010F07D1013015F4807F02BF48
:10029000013015F4C03F0130F0BC0138704700BF99
:1002A00081F0004102E000BF83F0004330B54FEA27
:1002B00041044FEA430594EA050F08BF90EA020F94
:1002C0001FBF54EA000C55EA020C7FEA645C7FEA27
:1002D000655C00F0E2804FEA5454D4EB5555B8BF4A
:1002E0006D420CDD2C4480EA020281EA030382EABB
:1002F000000083EA010180EA020281EA0303362D4D
:1003000088BF30BD11F0004F4FEA01314FF4801C1F
:100310004CEA113102D0404261EB410113F0004F31
:100320004FEA03334CEA133302D0524263EB4303E8
:1003300094EA050F00F0A780A4F10104D5F1200E86
:100340000DDB02FA0EFC22FA05F2801841F10001E1
:1003500003FA0EF2801843FA05F359410EE0A5F1B5
:1003600020050EF1200E012A03FA0EFC28BF4CF0E6
:10037000020C43FA05F3C01851EBE37101F000459C
:1003800007D54FF0000EDCF1000C7EEB00006EEBA9
:100390000101B1F5801F1BD3B1F5001F0CD3490833
:1003A0005FEA30004FEA3C0C04F101044FEA44528A
:1003B00012F5800F80F09A80BCF1004F08BF5FEA11
:1003C000500C50F1000041EB045141EA050130BDF1
:1003D0005FEA4C0C404141EB0101013C28BFB1F503
:1003E000801FE9D291F0000F04BF01460020B1FA4E
:1003F00081F308BF2033A3F10B03B3F120020CDA21
:100400000C3208DD02F1140CC2F10C0201FA0CF0FE
:1004100021FA02F10CE002F11402D8BFC2F1200C63
:1004200001FA02F120FA0CFCDCBF41EA0C01904019
:10043000E41AA2BF01EB0451294330BD6FEA040462
:100440001F3C1CDA0C340EDC04F11404C4F120024D
:1004500020FA04F001FA02F340EA030021FA04F35F
:1004600045EA030130BDC4F10C04C4F1200220FAB6
:1004700002F001FA04F340EA0300294630BD21FAF4
:1004800004F0294630BD94F0000F83F4801306BFBA
:1004900081F480110134013D4EE77FEA645C18BFAE
:1004A0007FEA655C29D094EA050F08BF90EA020F45
:1004B00005D054EA000C04BF1946104630BD91EA3D
:1004C000030F1EBF0021002030BD5FEA545C05D140
:1004D0004000494128BF41F0004130BD14F580047F
:1004E0003CBF01F5801130BD01F0004545F0FE41F3
:1004F00041F470014FF0000030BD7FEA645C1ABF28
:10050000194610467FEA655C1CBF0B46024650EA5E
:10051000013406BF52EA033591EA030F41F400218A
:1005200030BD00BF90F0000F04BF0021704730B510
:100530004FF4806404F132044FF000054FF00001E5
:1005400050E700BF90F0000F04BF0021704730B5A6
:100550004FF4806404F1320410F0004548BF40427B
:100560004FF000013EE700BF42004FEAE2014FEAD0
:1005700031014FEA02701FBF12F07F4393F07F4FAB
:1005800081F06051704732F07F4208BF704793F0AE
:100590007F4F04BF41F40021704730B54FF46074C1
:1005A00001F0004521F000411CE700BF50EA0102C4
:1005B00008BF704730B54FF000050AE050EA01026D
:1005C00008BF704730B511F0004502D5404261EBDD
:1005D00041014FF4806404F132045FEA915C3FF41E
:1005E000D8AE4FF003025FEADC0C18BF03325FEABB
:1005F000DC0C18BF033202EBDC02C2F1200300FA6C
:1006000003FC20FA02F001FA03FE40EA0E0021FA90
:1006100002F11444BDE600BF70B54FF0FF0C4CF47E
:10062000E06C1CEA11541DBF1CEA135594EA0C0F30
:1006300095EA0C0F00F0DEF82C4481EA030621EA6B
:100640004C5123EA4C5350EA013518BF52EA0335A6
:1006500041F4801143F4801338D0A0FB02CE4FF058
:100660000005E1FB02E506F00042E0FB03E54FF088
:100670000006E1FB03569CF0000F18BF4EF0010E80
:10068000A4F1FF04B6F5007F64F5407404D25FEA7C
:100690004E0E6D4146EB060642EAC62141EA55512F
:1006A0004FEAC52040EA5E504FEACE2EB4F1FD0C71
:1006B00088BFBCF5E06F1ED8BEF1004F08BF5FEAEF
:1006C000500E50F1000041EB045170BD06F00046A1
:1006D00046EA010140EA020081EA0301B4EB5C044E
:1006E000C2BFD4EB0C0541EA045170BD41F4801146
:1006F0004FF0000E013C00F3AB8014F1360FDEBF6B
:10070000002001F0004170BDC4F10004203C35DA46
:100710000C341BDC04F11404C4F1200500FA05F3C9
:1007200020FA04F001FA05F240EA020001F000426A
:1007300021F0004110EBD37021FA04F642EB0601E0
:100740005EEA430E08BF20EAD37070BDC4F10C040A
:10075000C4F1200500FA04F320FA05F001FA04F2CE
:1007600040EA020001F0004110EBD37041F10001BA
:100770005EEA430E08BF20EAD37070BDC4F12005C5
:1007800000FA05F24EEA020E20FA04F301FA05F22D
:1007900043EA020321FA04F001F0004121FA04F2D5
:1007A00020EA020000EBD3705EEA430E08BF20EAA5
:1007B000D37070BD94F0000F0FD101F000464000DF
:1007C00041EB010111F4801F08BF013CF7D041EA61
:1007D000060195F0000F18BF704703F00046520065
:1007E00043EB030313F4801F08BF013DF7D043EA36
:1007F0000603704794EA0C0F0CEA135518BF95EAEC
:100800000C0F0CD050EA410618BF52EA4306D1D172
:1008100081EA030101F000414FF0000070BD50EA91
:10082000410606BF1046194652EA430619D094EA1B
:100830000C0F02D150EA013613D195EA0C0F05D105
:1008400052EA03361CBF104619460AD181EA030159
:1008500001F0004141F0FE4141F470014FF0000011
:1008600070BD41F0FE4141F4780170BD70B54FF0AC
:10087000FF0C4CF4E06C1CEA11541DBF1CEA13552C
:1008800094EA0C0F95EA0C0F00F0A7F8A4EB05040E
:1008900081EA030E52EA03354FEA013100F0888005
:1008A0004FEA03334FF0805545EA131343EA1263CE
:1008B0004FEA022245EA111545EA10654FEA002683
:1008C0000EF000419D4208BF964244F1FD0404F53C
:1008D000407402D25B084FEA3202B61A65EB030598
:1008E0005B084FEA32024FF480104FF4002CB6EB55
:1008F000020E75EB030E22BFB61A754640EA0C00D5
:100900005B084FEA3202B6EB020E75EB030E22BF14
:10091000B61A754640EA5C005B084FEA3202B6EB55
:10092000020E75EB030E22BFB61A754640EA9C0014
:100930005B084FEA3202B6EB020E75EB030E22BFE4
:10094000B61A754640EADC0055EA060E18D04FEAA2
:10095000051545EA16754FEA06164FEAC30343EA42
:1009600052734FEAC2025FEA1C1CC0D111F4801F0F
:100970000BD141EA00014FF000004FF0004CB6E708
:1009800011F4801F04BF01430020B4F1FD0C88BFA7
:10099000BCF5E06F3FF6AFAEB5EB030C04BFB6EBB2
:1009A000020C5FEA500C50F1000041EB045170BDA5
:1009B0000EF0004E4EEA113114EB5C04C2BFD4EBD2
:1009C0000C0541EA045170BD41F480114FF0000E56
:1009D000013C90E645EA060E8DE60CEA135594EAD2
:1009E0000C0F08BF95EA0C0F3FF43BAF94EA0C0FD5
:1009F0000AD150EA01347FF434AF95EA0C0F7FF44A
:100A000025AF104619462CE795EA0C0F06D152EA9D
:100A100003353FF4FDAE1046194622E750EA410681
:100A200018BF52EA43067FF4C5AE50EA41047FF492
:100A30000DAF52EA43057FF4EBAE12E74A0011D244
:100A400012F5001211D20DD56FF47873B3EB625228
:100A50000ED44FEAC12343F0004343EA505323FA34
:100A600002F070474FF00000704750EA013002D1A9
:100A70004FF0FF3070474FF0000070474FEA4102DF
:100A8000B2F1E04324BFB3F5001CDCF1FE5C0DD9EC
:100A900001F0004C4FEAC0024CEA5070B2F1004F36
:100AA00040EB830008BF20F00100704711F0804F39
:100AB00021D113F13872BCBF01F00040704741F4FE
:100AC00080114FEA5252C2F11802C2F1200C10FA02
:100AD0000CF320FA02F018BF40F001004FEAC123E6
:100AE0004FEAD32303FA0CFC40EA0C0023FA02F38A
:100AF0004FEA4303CCE77FEA625307D150EA013360
:100B00001EBF4FF0FE4040F44000704701F000402F
:100B100040F0FE4040F40000704700BF53B94AB9AE
:100B2000002908BF00281CBF4FF0FF314FF0FF30F5
:100B300000F06EB9ADF1080C6DE904CE00F006F8D6
:100B4000DDF804E0DDE9022304B070472DE9F04749
:100B5000089D04468C46002B40F083808A4217464D
:100B600047D9B2FA82F242B1C2F1200024FA00F071
:100B70009140974040EA010C94404FEA1748230CFB
:100B8000BCFBF8F61FFA87FE08FB16C143EA0143D7
:100B900006FB0EF1994209D9FB1806F1FF3080F0EF
:100BA0001981994240F21681023E3B445B1AA4B27D
:100BB000B3FBF8F008FB103344EA034400FB0EFEDD
:100BC000A64509D93C1900F1FF3380F00581A645FF
:100BD00040F2028102383C4440EA0640A4EB0E0495
:100BE00000261DB1D4400023C5E900433146BDE8CD
:100BF000F08702B9FFDEB2FA82F2002A50D1CB1B95
:100C00004FEA174E1FFA87F80126B3FBFEFC210CB2
:100C10000EFB1C3341EA034108FB0CF38B4207D95E
:100C200079180CF1FF3002D28B4200F2E980844641
:100C3000C91AA3B2B1FBFEF00EFB101143EA014446
:100C400008FB00F8A04507D93C1900F1FF3302D298
:100C5000A04500F2D9801846A4EB080440EA0C40F5
:100C6000BFE78B4209D9002D00F0B1800026C5E90D
:100C7000000130463146BDE8F087B3FA83F6002E16
:100C80004AD18B4202D3824200F2B880841A61EBCF
:100C9000030101208C46002DA8D0C5E9004CA5E732
:100CA000C2F1200320FA03F6974001FA02F04FEA5E
:100CB000174ED9403043030CB1FBFEF61FFA87F8FC
:100CC0000EFB161143EA014306FB08F1994204FAB0
:100CD00002F409D9FB1806F1FF3C80F08D8099429F
:100CE00040F28A80023E3B445B1A81B2B3FBFEF0C5
:100CF0000EFB103341EA034100FB08F38B4207D996
:100D0000791800F1FF3C73D28B4271D90238394413
:100D1000CB1A40EA064678E7C6F1200C03FA06F43F
:100D200022FA0CF31C4320FA0CF701FA06F34FEAFF
:100D3000144E21FA0CF11F433B0CB1FBFEF91FFAD4
:100D400084F80EFB191143EA014109FB08FA8A45B0
:100D500002FA06F200FA06F308D9611809F1FF3029
:100D600048D28A4546D9A9F102092144A1EB0A01DA
:100D7000BFB2B1FBFEF00EFB101147EA014700FBCA
:100D800008F8B84507D9E71900F1FF312ED2B84568
:100D90002CD90238274440EA0940A7EB0807A0FBFA
:100DA00002894F45C64649461AD317D05DB1B3EB09
:100DB0000E0267EB010707FA0CFCF2404CEA020254
:100DC000F740C5E9002700263146BDE8F0872E46EA
:100DD00028460BE70646E9E61846FDE64345E5D218
:100DE000B8EB020E69EB04010138DFE70846D2E7F1
:100DF00060468DE78146B9E7664675E730464AE7C3
:100E0000ACF1020C394413E702383C4424E700BF3C
:100E1000704700BF000000000368002B00F03E8117
:100E20002DE9F04F2DED028B89B083460F46924697
:100E30009FED9D7B8DED007B8DED067B8DED047B25
:100E40008DED027B002642E01BF8060007EE900ABB
:100E5000F8EE677A17EE900AFFF786FB04460D4618
:100E600007EE906AB8EE678A18EE100AFFF77CFB6F
:100E70008046894602460B46DDE90201FFF716FA75
:100E8000CDE9020122462B46DDE90401FFF70EFA07
:100E9000CDE9040122462B4640464946FFF7BCFBFC
:100EA00002460B46DDE90601FFF700FACDE906012F
:100EB00068EE087A17EE900AFFF756FB02460B46DB
:100EC000DDE90001FFF7F2F9CDE900010136BE428C
:100ED00075D2AAF102030B2B6ED801A252F823F0AF
:100EE000490E0008B90F0008490E0008110F00084C
:100EF0002B0F0008450F00085F0F0008790F00084E
:100F0000B90F0008B90F0008930F0008A30F0008DD
:100F10001BF9060007EE900AF8EEE77A17EE900A42
:100F2000FFF722FB04460D469AE73BF8160007EE52
:100F3000900AF8EE677A17EE900AFFF715FB044661
:100F40000D468DE73BF9160007EE900AF8EEE77ABA
:100F500017EE900AFFF708FB04460D4680E75BF8A2
:100F6000263007EE903AF8EE677A17EE900AFFF710
:100F7000FBFA04460D4673E75BF8263007EE903A1D
:100F8000F8EEE77A17EE900AFFF7EEFA04460D4600
:100F900066E70BEB86031868FFF7E6FA04460D4692
:100FA0005EE70BEBC603D3E90001FFF767FDFFF730
:100FB000DBFA04460D4653E70024002550E7384687
:100FC000FFF7B0FA82468B46DDE90623FFF724FBE4
:100FD00004460D46DDE90423DDE902894046494621
:100FE000FFF71AFB02460B4620462946FFF75CF93D
:100FF00006460F46DDE9002350465946FFF70CFB35
:1010000004460D4642464B46CDE9028940464946D4
:10101000FFF702FB02460B4620462946FFF744F93C
:1010200004460D4602460B4630463946FFF71EFC85
:1010300006460F46DDE90023DDE90401FFF7ECFA7F
:1010400080468946DDE90623DDE90201FFF7E4FA7F
:1010500002460B4640464946FFF726F922462B46F4
:10106000FFF704FC04460D4611A3D3E900235046C4
:101070005946FFF7D1FA02460B4630463946FFF78C
:10108000CBFA22462B46FFF711F9FFF7D7FCFFF703
:1010900049FA09B0BDEC028BBDE8F08F00200021B9
:1010A000704700BFAFF300800000000000000000A8
:1010B000555555555555E53F10B588B0364B0293FB
:1010C0002B230193354B0093354B042235490020E7
:1010D00004F061F9344800F0CFFD4FF0FF34002CEC
:1010E0001DDA0394314B02932F2301932B4B009372
:1010F0002B4B04222B49002004F04DF92A4C04F11B
:101100000C030FCB8DE80F0094E80E00284800F088
:101110006BFF04464FF47A700AF07BFFDFE7E4B917
:10112000244807F0B9FF244B18680BF087F8234BCD
:10113000029338230193194B0093194B0422194948
:10114000002004F028F908E010F1020F21D01C4B18
:10115000CDF81A309DF81630ABB14FF0FF3205A92B
:10116000062002F054FC0028EED1DDF81A40002CD5
:10117000EDD0BDF818202146114816F0FDFB2046A1
:101180000BF050FBE3E70A210E4B18680AF0A4FFAE
:10119000E3E708B010BD00BF849001081891010872
:1011A000449001087C900108AC3C01209C9001080F
:1011B000583C01205074012084410120B89001085E
:1011C00058050020B44101202DE9F04387B00C46BA
:1011D0000546D8B102F050FF02F054FF234A1368CD
:1011E00001331360B3F57A7F15D000230193009388
:1011F00023462A468221FF2002F04AFF002831D0F0
:10120000418802F0DFFE07B0BDE8F0836221184894
:1012100000F0A0FCDEE70BF043FBDFF85480154F35
:101220000390154B02936B230193DFF85490CDF894
:101230000090434604223946002004F0ACF80494A0
:101240000A4E336803930D4B02936C230193CDF840
:101250000090434604223946002004F09CF8002305
:101260003360C2E74FF0FF30CDE700BF4C050020F0
:10127000449001087C900108CC900108D4900108AA
:10128000289101082DE9F04F87B00D4616461C46FF
:101290000746D8B1FEB102F0EFFE02F0F3FE284A95
:1012A000136801331360B3F57A7F19D00194009667
:1012B0002B463A460021084602F0EAFE00283BD0C1
:1012C000291902F07FFE07B0BDE8F08F86211D4886
:1012D00000F040FCDEE787211A4800F03BFCDAE72B
:1012E0000BF0DEFADFF85CA0DFF864900390164B99
:1012F000029390230193DFF85CB0CDF800B0534621
:1013000004224946002004F046F82B190493DFF824
:101310003080D8F8003003930C4B02939123019353
:10132000CDF800B0534604224946002004F033F8BB
:101330000023C8F80030B9E74FF0FF30C3E700BF23
:101340005005002044900108CC900108F490010859
:101350007C9001083891010810B540F27E420A499C
:101360000A4816F009FB02F065FF0146084C01230C
:1013700084F82D365B22204616F0FEFA054B064A0D
:101380001A605C6010BD00BFA0920108F03C012013
:101390006405002068130020843C01200020704771
:1013A0000020704708B50BF03DFA002008BD000092
:1013B00000B583B0009393B20A460146044814F086
:1013C0002AFF10B903B05DF804FB4FF0FF30F9E7D6
:1013D0004CC8012030B583B00C461546002200925F
:1013E00001924FF40041124806F070FD0A232A468C
:1013F00069462046FFF7DCFF68B92A466946204661
:1014000016F0BAFA01224FF40041094806F05EFDD9
:10141000002003B030BD01200AF0FBFD01224FF493
:101420000041034806F052FD4FF0FF30F1E700BFE6
:10143000000002402DE9F04383B00025019502F041
:101440001BFE044602F01EFE80462E46AEB124026C
:10145000A4B2E24B44441C800A229A700522DA703E
:101460000D221A710C225A71DD4B1B68AB4201D060
:10147000DB4B1D6003B0BDE8F08301A9D94B1868B0
:1014800000F06EFD0546019FFAB207F00F0317F05A
:10149000F00F02D00136F6B2D8E712F00C0F42D0AE
:1014A000042B6BD0052B00F09580062B00F0BE803E
:1014B000072B00F0E680082B00F00E81092B00F0CE
:1014C00036810A2B00F05E810B2B00F09381A3F193
:1014D0000C06C54B4FF0640909FB06393A2209F1A5
:1014E0000201484616F056FA3B0A07EE903AF8EE2B
:1014F000677A9FEDBE7A67EE877ADFEDBD6A87EE89
:10150000A67ABCEEC77A17EE103AA9F83A3006224E
:101510001E214846FFF780FCFFF790FAAF4B03EB24
:101520004603D88093E71E1DAF4B4FF0640909FBBB
:1015300006393A2209F10201484616F02BFA3B0A15
:1015400007EE903AF8EE677A9FEDA87A67EE877A11
:10155000DFEDA76A87EEA67ABCEEC77A17EE103ADF
:10156000A9F83A3006221E214846FFF755FCFFF73E
:1015700065FA9A4B03EB4603D88068E703F10B0644
:10158000994B4FF0640909FB06393A2209F102012F
:10159000484616F0FFF93B0A07EE903AF8EE677AF4
:1015A0009FED927A67EE877ADFED916A87EEA67AF1
:1015B000BCEEC77A17EE103AA9F83A3006221E217F
:1015C0004846FFF729FCFFF739FA844B03EB460343
:1015D000D8803CE703F10906834B4FF0640909FB0F
:1015E00006393A2209F10201484616F0D3F93B0ABE
:1015F00007EE903AF8EE677A9FED7C7A67EE877A8D
:10160000DFED7B6A87EEA67ABCEEC77A17EE103A5A
:10161000A9F83A3006221E214846FFF7FDFBFFF7E6
:101620000DFA6E4B03EB4603D88010E7DE1D6E4BC0
:101630004FF0640909FB06393A2209F102014846D4
:1016400016F0A8F93B0A07EE903AF8EE677A9FED9C
:10165000677A67EE877ADFED666A87EEA67ABCEE78
:10166000C77A17EE103AA9F83A3006221E214846EA
:10167000FFF7D2FBFFF7E2F9584B03EB4603D880A4
:10168000E5E65E1D584B4FF0640909FB06393A2226
:1016900009F10201484616F07DF93B0A07EE903A3F
:1016A000F8EE677A9FED517A67EE877ADFED506A40
:1016B00087EEA67ABCEEC77A17EE103AA9F83A3050
:1016C00006221E214846FFF7A7FBFFF7B7F9434B59
:1016D00003EB4603D880BAE6DE1C434B4FF06409A7
:1016E00009FB06393A2209F10201484616F052F97F
:1016F0003B0A07EE903AF8EE677A9FED3C7A67EE88
:10170000877ADFED3B6A87EEA67ABCEEC77A17EEE2
:10171000103AA9F83A3006221E214846FFF77CFB12
:10172000FFF78CF92D4B03EB4603D8808FE603F1CE
:101730000109642603FB06632B4E1E443A22B11CAA
:10174000304616F027F93B0A07EE903AF8EE677A32
:101750009FED267A67EE877ADFED256A87EEA67A17
:10176000BCEEC77A17EE103A738706221E21304668
:10177000FFF752FBFFF762F9184B03EB4909A9F891
:10178000060064E65E1E184B4FF0640909FB06393B
:101790003A2209F10201484616F0FCF83B0A07EE2E
:1017A000903AF8EE677A9FED117A67EE877ADFED6F
:1017B000106A87EEA67ABCEEC77A17EE103AA9F83F
:1017C0003A3006221E214846FFF726FBFFF736F97E
:1017D000024B03EB4603D88039E600BF843C01206E
:1017E00054050020583C0120940B0020E23C1C3999
:1017F00039B4483EDE1E154B4FF0640909FB06392B
:101800003A2209F10201484616F0C4F83B0A07EEF5
:10181000903AF8EE677A9FED0E7A67EE877ADFED01
:101820000D6A87EEA67ABCEEC77A17EE103AA9F8D1
:101830003A3006221E214846FFF7EEFAFFF7FEF87F
:10184000054B03EB4603D88001E600BF940B002054
:10185000E23C1C3939B4483E843C012030B583B0A9
:1018600002F010FC83B203F580739BB200220AB130
:10187000002115E0190A1B4D262404FB02F4281947
:1018800001EB03212953052181700A21C1700C212C
:1018900001710D2141710132D2B2E8E70131C9B2C3
:1018A0000F2915D80023002BF8D103EBC30203EB5B
:1018B00042020A440C4800EB4200C5882C0A094841
:1018C00000EB420204EB0520D0800133DBB2EAE7F3
:1018D00026230093034B00220621012002F056F834
:1018E00003B030BD5C3C0120843C012070B584B065
:1018F0001A4D1B4C1B4B02931F2301931A4E00964B
:101900002B4604222146002003F045FD174B02938D
:101910002023019300962B4604222146002003F049
:101920003AFD134B02932123019300962B46042288
:101930002146002003F02FFD0E4807F079FB4FF4FD
:1019400080410D4806F0C8FA08210C4806F0C4FA98
:101950004FF49D700AF05DFBEEE700BF4C9101086B
:10196000849101088C910108C8910108F8020020B7
:10197000E40200209C4201200010024000000240CE
:1019800030B589B0204B0293392301931F4B00934C
:101990001F4B04221F49002003F0FDFC062408E031
:1019A0001D4BCDF81A309DF81640022C1ED0032C8A
:1019B00021D04FF0FF3205A9052002F028F880B9A8
:1019C000DDF81A40002CEBD0134DBDF8182021464D
:1019D000284615F0D1FF20460AF024FFCDF81A5012
:1019E000E1E710F1020FE0D109B030BD26210B482C
:1019F000FFF7EAFBDDE7BDF81830DDF81A202621F5
:101A00000648FFF73FFCD4E7B0910108D8910108E0
:101A10004C910108A8910108D4110020843C0120B8
:101A200008B54FF0FF31064B18680AF087FCFFF746
:101A300093FC01F039FA01F0DFF90AF0E5FA00BF92
:101A40008441012030B593B00A230093402302AAB9
:101A50002021A02000F040FB78B99DF80830FF2B32
:101A60000BD0074C02AD0FCD0FC40FCD0FC40FCD5F
:101A70000FC495E80F0084E80F0013B030BD00BF1D
:101A80000000002000B583B002460A2300934023E3
:101A90002021A02000F066FB10B103B05DF804FB2C
:101AA0004FF47A700AF0B5FA06F0E8FCF5E70000AA
:101AB000194B1A4A1268C3F83E20194A1268C3F833
:101AC0004220184A1268C3F80220174A1268C3F865
:101AD0000620164A1268DA60154A12681A61154A19
:101AE0001268C3F81620144A1268C3F81A20134A61
:101AF00012681A62124A12685A62124A1268C3F8CD
:101B00002A20114A1268C3F82E20104A12685A631C
:101B10000F4A12689A637047FC0300208C41012031
:101B2000EC410120B8410120C04101209841012031
:101B3000C8410120A441012088410120E441012045
:101B4000B0410120C4410120D4410120DC410120E9
:101B5000D841012030B59BB005460C4650220021EB
:101B600006A815F031FF2F21284616F040FC0494FA
:101B700001300390084B029388230193074B009395
:101B8000074B04220749002003F005FC4FF47A704C
:101B90000AF03FFAE7E700BF2092010838920108F7
:101BA000E8910108C8DA0108024A1368013313609A
:101BB000704700BF6413002008B528B1012806D083
:101BC000022807D0002008BD06F0AAFCFBE706F0BB
:101BD000ADFCF8E706F0B0FCF5E7000088B3F8B517
:101BE00004460020207060700125A570FFF7E4FF17
:101BF000C4F803002846FFF7DFFFC4F807000220FF
:101C0000FFF7DAFFC4F80B004FF0FF33E3732374E0
:101C10006374A374E37423756375A375E375237606
:101C20006376A376074E1B3406F1400735460FCD89
:101C300020606160A260E3602E461034BD42F5D1A1
:101C4000F8BD704700000020014B9888704700BF26
:101C500000000020014B5889704700BF00000020A1
:101C6000014B9889704700BF00000020014BD889C4
:101C7000704700BF0000002070B5064658B13446DA
:101C8000074D0FCD0FC42B682360064B73614023B3
:101C90003376002070BDB4210348FFF75BFFEEE709
:101CA00080920108400000204492010830B40546AB
:101CB00088B144688CB100232A7A9A420AD903EB8E
:101CC000430204EB820054F822208A4203D00133FD
:101CD000DBB2F1E7002030BC70472046FBE7000094
:101CE00000B583B00346094A92E8030002AA02E95C
:101CF00003003BB108226946186800F0E7F903B019
:101D00005DF804FB4FF0FF30F9E700BF9492010843
:101D100070B505460221FFF7C9FF06460421284693
:101D2000FFF7C4FF0446B3880322826013F0010F5B
:101D300001D00222826013F0400F02D0A368013369
:101D4000A36007212846FFF7B1FF436823F00F0384
:101D50001B041B0C44F6D072934201D0002070BDCE
:101D6000A3680133A360F9E710B40446002013E030
:101D70004000C0B280F007005B0853B122781A42DD
:101D800014BF01220022B2EBD01FF1D14000C0B23B
:101D9000F2E701340139C9B209B18023EDE75DF8FA
:101DA000044B704770B582B002460B46204903C908
:101DB00002AC04E90300002A34D015461946104647
:101DC000FFF774FF014680B3036803F03F038DF80B
:101DD0000030426800238C68A34208DAE41A02A8A3
:101DE000044404F8082C12120133DBB2F3E76E7AD4
:101DF0004EB9286896B1A2B2023292B2694600F09A
:101E000065F902B070BD611CC9B26846FFF7ACFF4E
:101E1000631C02AA134403F8080CEAE7A2B20132D9
:101E200092B2EBE74FF0FF30EBE74FF0FF30E8E71F
:101E30003C9001080346002029B113F8012B5040C3
:101E40000139C9B2F8E7704770B584B004460A4654
:101E5000424B93E8030004AD05E903006D4685E8B5
:101E60000300002C70D0264611462046FFF71EFFC7
:101E7000044600286BD0036803F03F0343F040039F
:101E80008DF808303068737A9BB12289023292B2A1
:101E900002A900F01BF9051E53DB767A012E0CD047
:101EA0000020022E24D0002854D100236360012298
:101EB00044E02289013292B2EAE7236803F03F034B
:101EC00043F040038DF80030334607E004AA1A447B
:101ED00012F8081C02F8101C0133DBB2A1684A1C7E
:101EE0009A42F3DA0231C9B26846FFF73DFFD8E7FC
:101EF000236803F03F0343F040038DF800300123D3
:101F000007E004AA1A4412F8081C02F8101C013356
:101F1000DBB2A1684A1C9A42F3DA0231C9B26846C0
:101F2000FFF788FFBFE763681B02636004A91144E1
:101F300011F8081C0B4463600132D2B2A3689342CB
:101F4000F1DA284604B070BD4FF0FF35F9E74FF0E5
:101F5000FF35F6E76FF00105F3E700BF3C9001089D
:101F6000A8B1F8B50E46054643689BB10421FFF7BA
:101F70009DFE074688B12846FFF7CAFE04460421A5
:101F80002846FFF761FF20437B683360F8BD4FF0C0
:101F9000FF3070474FF0FF30F8E74FF0FF30F5E7C4
:101FA000C8B110B504464368C3B10221FFF77EFEF5
:101FB000B8B1436813F0080003D001236372002016
:101FC00010BD13F0040302D002236372F8E700226D
:101FD00062721846F4E74FF0FF3070474FF0FF3061
:101FE000EEE74FF0FF30EBE784B070B5054605AC87
:101FF00084E80E000C200AF097FB044614200AF037
:1020000093FB002C4DD006460A9B63609DF82C3054
:10201000237220602C6005A9204600F045F8051EBB
:1020200033DB2046FFF75CFE051E2EDB0121204638
:10203000FFF7B8FE051E28DB02212046FFF7B2FE9F
:10204000051E22DB2046FFF7ABFF051E1DDB062128
:102050002046FFF72BFE054618B94FF0FF3514E078
:102060000C3565B12968302909D00729F8D0C9B2E3
:102070002046FFF797FE002801DB0C35F1E707212A
:102080002046FFF7E1FE051E04DB2846BDE8704050
:1020900004B0704720460AF0C5FB30460AF0C2FB88
:1020A000F3E74FF0FF35F0E751B138B504460D4680
:1020B000CB681B68984730B92368EA68DA6038BD96
:1020C0004FF0FF3070474FF0FF30F8E708B5C368B6
:1020D0005B68984708BD00002DE9F04F87B0824645
:1020E0000F4691469846DDF840B000231E46059302
:1020F0001A464FF48071194805F0E8FE3D4603E0AA
:102100000136F6B2022E1FD807EB08039D421BD200
:1021100005F03F02EB1BA8EB03041119402901D97C
:10212000C2F14004A4B2CDF808B001944B4400932E
:1021300010232A4651460A4806F0DCFD0590002887
:10214000DED12544ADB2DDE701224FF480710348B2
:1021500005F0BCFE059807B0BDE8F08F000802400E
:10216000F44101202DE9F04F87B082460F46914699
:102170009846DDF840B000231E4605931A464FF4FA
:1021800080711B4805F0A2FE3D4611E0A4B2CDF8D7
:1021900008B001944B44009310232A465146154839
:1021A00006F0F6FC059090B10136F6B2022E14D876
:1021B00007EB08039D4210D205F03F02EB1BA8EB92
:1021C000030411194029E1D9C2F14004DEE70620D9
:1021D00009F01FFF2544ADB2E8E701224FF48071FA
:1021E000034805F073FE059807B0BDE8F08F00BF07
:1021F00000080240F441012000B583B00B46009274
:1022000002460021A020FFF7ADFF03B05DF804FBFC
:102210002DE9F043ADF5037D0E46174699464FF480
:1022200081742246002141A815F0CEFB22460021F0
:10223000684615F0C9FB002408E04FF4807259F895
:1022400024100DF5837016F0ABF80134B44218DA9F
:102250004FEA840857F824502249284616F054F8CB
:102260000028EAD02049284616F04EF80028ECD184
:102270004FF4807259F808100DF1020016F090F832
:10228000E3E70DF58370FDF7ADFF84B2ADF80441CF
:102290000DF10200FDF7A6FF85B2ADF8005013491D
:1022A0000DF5837016F030F890B911490DF1020068
:1022B000FDF78EFF88B994B10DB90E4809E00E4CB8
:1022C0000123E37606F012F9C4F831000B4800E070
:1022D00008480DF5037DBDE8F0830648F9E7054899
:1022E000F7E700BF4497010850970108163F012007
:1022F0002A3F012030970108F404002020970108AC
:102300002DE9F043ADF21C5D98467B4BDB7E23B993
:102310007A480DF21C5DBDE8F0830E461746764BF9
:10232000D3F8310000F036FF754B984204D9724B58
:102330000022DA767148ECE706F0D8F86E4BC3F865
:1023400031004FF48174224600210DF2144015F043
:102350003BFB22460021C4A815F036FB2246002193
:1023600083A815F031FB2246002142A815F02CFB72
:102370002246002101A815F027FB002408E04FF4B5
:10238000807258F824100DF2164016F009F8013446
:10239000B44242DA4FEA840957F824505949284692
:1023A00015F0B2FF0028EAD05749284615F0ACFFD7
:1023B000C0B15649284615F0A7FFE0B15449284658
:1023C00015F0A2FF00B35349284615F09DFF0028E1
:1023D000DDD14FF4807258F809100DF1060015F0A8
:1023E000DFFFD4E74FF4807258F809100DF2123075
:1023F00015F0D6FFCBE74FF4807258F809100DF2B4
:102400000E2015F0CDFFC2E74FF4807258F8091086
:102410000DF5857015F0C4FFB9E70DF21640FDF714
:10242000E1FE84B2ADF814440DF21230FDF7DAFE8D
:1024300085B2ADF810530DF20E20FDF7D3FE86B233
:10244000ADF80C620DF58570FDF7CCFE87B2ADF8E6
:1024500008710DF10600FDF7C5FE80B2ADF804006D
:10246000002C37D0002D37D0002E37D0002F37D09A
:10247000002837D0142E37D8142F37D826490DF21C
:10248000164015F041FF98BB24490DF21230FDF7BC
:102490009FFE78BB0DF106010DF58570FDF798FEE6
:1024A00008B11F4835E71C4C14220DF20E212046BE
:1024B00015F076FF14220DF58571A01815F070FF48
:1024C0004FF47A7240F27E41A4F22620FFF794FE88
:1024D00014481EE714481CE713481AE7124818E787
:1024E000114816E7104814E70F4812E70E4810E7A6
:1024F0000D480EE70C480CE7F40400205C97010837
:1025000020BF02008897010898970108A897010842
:10251000B8970108C8970108163F01202A3F0120FB
:10252000C8DA010870970108309701081D4BDB7E5F
:102530000BB91D48704770B582B00D461646194B51
:10254000D3F8310000F026FE184B984205D9154B00
:102550000022DA76144802B070BD05F0C7FF114BB7
:10256000C3F831000024AC4219DA114956F82400AE
:10257000FDF72EFE08B10134F5E70E4B18680AF09E
:102580002EF808B90C48E6E70C4B019300231A46D5
:1025900001A90848006809F091FF0948DBE70948EC
:1025A000D9E700BFF40400205C97010820BF0200B7
:1025B00000980108BC410120DC9701080898010837
:1025C000F0970108C8DA01081D4BDB7E0BB91D48E6
:1025D000704770B582B00D461646194BD3F83100DE
:1025E00000F0D8FD184B984205D9154B0022DA7639
:1025F000144802B070BD05F079FF114BC3F83100EB
:102600000024AC4219DA114956F82400FDF7E0FD28
:1026100008B10134F5E70E4B186809F0E0FF08B97E
:102620000C48E6E70C4B019300231A4601A9084821
:10263000006809F043FF0948DBE70948D9E700BF14
:10264000F40400205C97010820BF020010980108E4
:10265000BC410120DC97010818980108F097010897
:10266000C8DA01082DE9F043C9B09846A44BDB7ED7
:102670001BB9A44849B0BDE8F0830E461746A04BED
:10268000D3F8310000F086FD9F4B984204D99C4B53
:102690000022DA769B48EDE705F028FF984BC3F857
:1026A00031004FF48172002107A815F08DF9002444
:1026B00011E04FF4807258F824100DF11E0015F04F
:1026C0006FFE0DF11E00FDF78DFD80B2ADF81C0010
:1026D000002853D10134B44280F20C814FEA8409BE
:1026E00057F824508949284615F00EFE0028E0D0FE
:1026F0008749284615F008FE00284DD08549284610
:1027000015F002FE002866D08349284615F0FCFD2E
:10271000002800F081808149284615F0F5FD002849
:1027200000F09B807E49284615F0EEFD002800F061
:10273000BF807C49284615F0E7FD0028CAD14FF438
:10274000807258F809100DF11E0015F029FE0DF1E8
:102750001E00FDF747FD80B2ADF81C000028B9D07F
:1027600001A90DF11E0000F02EFC0028B2D1019B42
:102770006D4AC2F81B306D4A5381ABE706A90DF1D3
:102780001E0000F061FC0028A4D1069B664AC2F836
:102790000130664A13609DE74FF4807258F80910C3
:1027A0000DF11E0015F0FCFD0DF11E00FDF71AFDE8
:1027B00080B2ADF81C0000288CD005A90DF11E00D8
:1027C00000F06CFC002885D1059B574AC2F80930FF
:1027D000564A13617EE74FF4807258F809100DF1E4
:1027E0001E0015F0DDFD0DF11E00FDF7FBFC80B2B3
:1027F000ADF81C0000283FF46DAF04A90DF11E00D8
:1028000000F076FC00287FF465AF049B464AC2F8CE
:102810000D30464A53615DE74FF4807258F8091055
:102820000DF11E0015F0BCFD0DF11E00FDF7DAFCE8
:1028300080B2ADF81C0000283FF44CAF01A90DF1A7
:102840001E0000F0C0FB00287FF444AF019B364A15
:10285000C2F80530354A93803CE74FF4807258F84F
:1028600009100DF11E0015F09BFD0DF11E00FDF786
:10287000B9FC80B2ADF81C0000283FF42BAF2C4A05
:1028800002A90DF11E0000F05DFC00287FF422AFCC
:10289000254B0298C3F81100BDF80C20A3F81520B1
:1028A000224AD3F811109161B3F81530938311E7E0
:1028B0004FF4807258F809100DF11E0015F070FDEC
:1028C0000DF11E00FDF78EFC80B2ADF81C00002853
:1028D0003FF400AF06A90DF11E0000F0B5FB002883
:1028E0007FF4F8AE069B104AC2F817300F4AC2F8C0
:1028F0000630EFE60D48FFF7C5F80E48BAE600BF10
:10290000F40400205C97010820BF020034980108FD
:102910003C980108449801084C980108589801080F
:10292000609801086C980108F03C0120000000202C
:102930005C9801082098010830B58BB00C4615460C
:102940001649174B53F8200015F065FD90B101466C
:102950002122023101A815F023FD5F2101A815F005
:10296000EFFC38B10022027001A814F04CFF431EA6
:102970000F2B06D92A460B49204615F011FD0BB046
:1029800030BD094B1B68013803EB4000C388074A80
:102990002946204615F020FCF1E700BF689D01089C
:1029A000100300207C980108681300207898010823
:1029B000F0B587B0061EC0F24F810C461746A94BF2
:1029C00053F82650A849284615F09EFC002800F030
:1029D000A380A649284615F097FC002800F0AE8099
:1029E000A349284615F090FC002800F0AD80A149CD
:1029F000284615F089FC002800F0B0809E49284642
:102A000015F082FC002800F0C2809C49284615F091
:102A10007BFC002800F0C1809949284615F074FC21
:102A2000002800F0C9809749284615F06DFC002861
:102A300000F0D5809449284615F066FC002800F087
:102A4000E1809249284615F05FFC002800F0E48000
:102A50008F49284615F058FC002800F0F0808D4979
:102A6000284615F051FC002850D08B49284615F017
:102A70004BFC00284AD08949284615F045FC00281F
:102A800044D08749284615F03FFC00283ED08549B0
:102A9000284615F039FC002838D08349284615F01F
:102AA00033FC98B38149284615F02EFC70B3804959
:102AB000284615F029FC48B37E49284615F024FC29
:102AC00020B37D49284615F01FFCF8B17B49284604
:102AD00015F01AFCD0B17A49284615F015FCA8B1BA
:102AE0007849284615F010FC80B17749284615F042
:102AF0000BFC58B17549284615F006FC30B17449F5
:102B0000284615F001FC002840F0A3803A462146F3
:102B10003046FFF711FF08E020216E4815F010FC49
:102B200001463A46204615F03BFC002C00F0978009
:102B30002046FDF757FB80B207B0F0BD3A46664924
:102B4000204615F02DFCF0E72021644815F0F8FB35
:102B500001463A46204615F023FCE6E7604B5A68EA
:102B600092F8333092F8341092F8350092F83650DB
:102B700092F8376092F838200492039602950190FB
:102B80000091584A3946204615F026FBCDE73A46D3
:102B90005549204615F004FCC7E7514B5A68D37ECF
:102BA000117F507F927F0292019000914F4A3946E7
:102BB000204615F011FBB8E7494B5A6892F82B30C4
:102BC00092F82C1092F82D0092F82E20029201908B
:102BD0000091464A3946204615F0FEFAA5E7404BDB
:102BE0005A6892F82F3092F8301092F8310092F82B
:102BF00032200292019000913C4A3946204615F05D
:102C0000EBFA92E7364B5B68B3F81F30384A394627
:102C1000204615F0E1FA88E7314B5A6892F82130E6
:102C200092F8221092F8230092F824200292019048
:102C300000912E4A3946204615F0CEFA75E7284B0A
:102C40005B68B3F825302A4A3946204615F0C4FAA5
:102C50006BE70023237068E74FF6FF706CE70020F6
:102C60006AE700BF10030020809801088C980108D3
:102C7000A098010858980108C498010834980108E0
:102C80003C980108449801084C9801086098010894
:102C90006C980108E0980108EC980108F898010880
:102CA00004990108109901081C9901082899010844
:102CB00034990108409901084C9901085899010874
:102CC00064990108709901087C99010888990108A4
:102CD00094990108E402002098980108F802002065
:102CE00068130020A4980108D0980108D49801081E
:102CF00078980108134B002283F8FF2383F80024FF
:102D000083F8012483F80224A9B10A78B2B110B57E
:102D10000C4C40F2FF32204615F042FB40F2FF32ED
:102D20000949204615F019FB2046FDF75BFAC4F867
:102D3000FF03002010BD6FF00F0070476FF00F0011
:102D4000704700BF70130020A099010870B50E46AF
:102D50000C46FCB1144BD3F8FF036289811840F292
:102D6000FE3399420CD8104D6168284414F004FEDB
:102D7000D5F8FF3362891344C5F8FF332468E8E7C8
:102D8000094B002283F8FF2383F8002483F80124F1
:102D900083F80224304610F0F3FE034BD3F8FF23F0
:102DA0000020985470BD00BF7013002010B5084675
:102DB000064C214615F0F4FA002384F8FF3384F81A
:102DC000003484F8013484F8023410BD70130020FC
:102DD00008B538220249034814F054FC08BD00BF6E
:102DE00010030020B129000808B50521014814F09E
:102DF00081FC08BD0C9C010808B5FFF7E9FFFFF74F
:102E0000F3FF14F025FC08BD38B505460C461E4BF3
:102E1000DB7EEBB91C4B0022DA761C492046FDF71D
:102E2000D7F948B11A492046FDF7D2F920B119491E
:102E30002046FDF7CDF9A0B91749284614F082FCC9
:102E400000B305F053FB104BC3F83100002038BD30
:102E50000D4BD3F8310000F09DF9104B9842F0D99A
:102E6000D8E70F492046FDF7B3F90028E9D10A4B0E
:102E70002B6012236B600023AB60EB6001232B748B
:102E80001846E4E70120E2E7F40400202098010856
:102E900020970108DC9701085C97010820BF020019
:102EA000A49901087047000008B540F27E4202492B
:102EB000024814F061FD08BDA0920108F03C012019
:102EC00030B4054600231A4608E003EB830300EB09
:102ED00043039BB2303B9BB20132D2B2022A08D8E4
:102EE000A85C38B1A0F13004E4B2092CEDD901207E
:102EF00000E00020012808D052B1A85C68B9FF2B7F
:102F00000FD900230B70012005E000230B7002E0B5
:102F100000230B70012030BC704700230B70012090
:102F2000F9E70B70F7E770B405460378302B03D050
:102F300000263346002414E04378782B03D0582B26
:102F400003D00026F5E70226F3E70226F1E7A0F119
:102F50006102D2B2052A12D8613840EA0414013362
:102F6000DBB2721C9A4213DBE85C90B1A0F1300234
:102F7000D2B2092AEBD8303840EA0414EFE7A0F1C6
:102F80004102D2B2052A0FD8413840EA0414E6E7DC
:102F9000002001280AD063B1E85C70B9FE2C10D97A
:102FA00000230B70012006E00120F2E700230B70E4
:102FB00001E00B70012070BC704700230B700120F2
:102FC000F9E70C70F7E72DE9F0418646002400256B
:102FD000002210E04FEA8508A30048EA947C1B1900
:102FE0004CEB0504DE1844EB04073038341847EB8B
:102FF000E0750132D2B2092A09D81EF8020038B1B0
:10300000A0F13003DBB2092BE4D9012000E000205D
:1030100001280BD06AB11EF8020078B9012D08BF53
:10302000002C0FD300230B60012005E000230B6070
:1030300002E000230B600120BDE8F08100230B605B
:103040000120F9E70C60F7E730B587B004460D467C
:10305000FDF7C8F80F2802D9012007B030BD1022B3
:10306000214602A815F09CF9002402A801E00134D1
:10307000E4B2032C0BD801AA074915F00BFA40B1B2
:103080002919FFF71DFF0028F1D00120E5E70020F6
:10309000E3E70120E1E700BF349C010830B587B0C9
:1030A00004460D46FDF79EF80F2802D9012007B00F
:1030B00030BD1022214602A815F072F9002402A8A2
:1030C00001E00134E4B2032C0BD801AA074915F042
:1030D000E1F940B12919FFF7F3FE0028F1D00120F2
:1030E000E5E70020E3E70120E1E700BF349C0108A9
:1030F00030B587B004460D46FDF774F80F2802D9A5
:10310000012007B030BD1022214602A815F048F971
:10311000002402A801E00134E4B2032C0BD801AA78
:10312000074915F0B7F940B12919FFF7C9FE002882
:10313000F1D00120E5E70020E3E70120E1E700BF4F
:10314000349C010870B586B004460E461546FDF75E
:1031500049F8132802D9012006B070BD1422214677
:1031600001A815F01DF9002401A801E00134E4B222
:10317000052C0BD86A46294615F08CF940B1311957
:10318000FFF7D1FE0028F1D00120E5E70020E3E7BA
:103190000120E1E710B5044605F0A8F9A04201D3EB
:1031A000001B10BD001B0138FBE7000010B50446F2
:1031B00002F053F8204602F0E5F8FF2803D0034B55
:1031C00033F8100010BD4FF0FF30FBE75CA601089C
:1031D00010B5084802F054F838B9064C214602F000
:1031E00042F82046FFF7E2FF10BD0248FFF7DEFF7E
:1031F000FAE700BF7C27002008B5012211460348EA
:1032000004F064FE02F00EFDFD2008BD000802403F
:1032100030B585B0FEF718FD484B93F82D3013F00C
:10322000040F02D1FE2005B030BD0446434811F022
:10323000CFF80022114620200AF0C0FF404A10605B
:1032400000286BD03F4B02934FF4A97301933E4B80
:1032500000933E4B04223E49002002F09CF8384D7A
:10326000A2B23C4928680BF02DF82B680A221A629A
:10327000002840D1384B029340F257130193324B50
:103280000093324B0422324902F085F8334B01227D
:103290005A70334A9179D3791B0443EA0163117A56
:1032A00043EA0123517A0B431A0202F47F0242EAF5
:1032B0000162190A01F47F410A4342EA1363294A71
:1032C0001360294A117853781B0443EA016391780B
:1032D00043EA0123D1780B431A0202F47F0242EA47
:1032E0000162190A01F47F410A4342EA13631F4A4B
:1032F0001360FD2097E71E4B029340F26113019388
:10330000114B0093114B04221149002002F043F8A5
:103310000B4B18680AF0C0FFFE2084E7154B0293A0
:103320004FF4B3730193084B0093084B04220849F0
:10333000002002F030F8FE2075E700BFD8420120DF
:1033400078410120709C0108789E0108389C010892
:103350006C9C010840D401088C9C01087417002063
:103360000000002070410120F00300207441012082
:10337000A09C0108B89C010808B5114B5B78012B93
:1033800008D1104B93F82D3013F0040F15D000BF67
:10339000FD2013E005F0AAF8B0F5FA6F02D30A4B4E
:1033A0001B780BB9FE2009E0084B186808F0FAFFFB
:1033B000054A1378013B1370F4E7FD2008BD00BFF8
:1033C00074170020D8420120F4030020AC410120F2
:1033D00000B583B00B4B186808F007FE0A4B1B784A
:1033E00053B9002100910B460A46062000F0CEFAA0
:1033F000FD2003B05DF804FB044B186808F0D2FF11
:10340000EFE700BFB8410120F4030020AC410120E8
:103410002DE9F04FA9B000210F91602210A814F0FF
:10342000D3FA234B1B681BB9FD2029B0BDE8F08FF0
:10343000204CA579E679277A94F80980FEF710FCEC
:103440000B90FEF707FC0C90FEF710FC0D9094F823
:10345000009094F801A094F802B0E478FEF7F4FB31
:1034600009900894CDF81CB0CDF818A0CDF81490B0
:103470000D9B04930C9B03930B9B0293CDF804804C
:10348000009733462A460C490FA814F0D9FE0FA81E
:10349000FCF7A8FE0446FEF7E3FB83B2074A214689
:1034A0000FA800F03BFA024A1368013B1360BBE728
:1034B000F803002000000020D49C01087441012082
:1034C00008B5054B054A0649064801F0BBFEFFF763
:1034D0007FFE08F09EFDFAE7909E0108889E010895
:1034E0008C2700207C27002010B588B05A4B02930F
:1034F0006E230193594B0093594B042259490020E4
:1035000001F049FF26E00392574B02937823019381
:10351000524B0093524B04225249002001F03BFFD2
:103520002BE010F1020F00F09480DDF81A404F49B3
:10353000204614F070FF40B3152300934C4B01223A
:103540000421104600F022FA4FF47A7008F061FD71
:1035500004F094FF4FF0FF3205A9042000F057FA61
:103560000028DED1DDF81A100029DED0BDF81820C1
:10357000632AC8D83F4814F0FFF9DDF81A0009F0B3
:1035800051F93C4BCDF81A30CFE73B49204614F0B7
:1035900042FF38B10023009302220421072000F0EB
:1035A000F5F9D7E73549204614F035FF48B1BDF8A5
:1035B00018300093234601220421072000F0E6F989
:1035C000C8E72F49204614F026FF38B100230093A6
:1035D00003220421072000F0D9F9BBE7294920463E
:1035E00014F019FF38B1002300930422114607207C
:1035F00000F0CCF9AEE72449204614F00CFF48B1A6
:10360000BDF818300093234605220421072000F05E
:10361000BDF99FE71D49204614F0FDFE48B1BDF8F5
:1036200018300093234606220421072000F0AEF94B
:1036300090E71749204614F0EEFE00288AD0BDF826
:1036400018300093234607220421104600F09EF90B
:1036500080E708B010BD00BF349D0108289E010816
:10366000389C0108309D0108509D010818980108F8
:10367000C89E010878170020649D01086C9D010810
:10368000749D0108809D0108889D0108909D010896
:10369000989D010830B589B04FF0FF311A4B18687A
:1036A00008F04CFE194B0293AA230193184B009388
:1036B000184B04221849002001F06DFE07E0BDF808
:1036C0001810164800F0FEF80A2008F0A2FC4FF08F
:1036D000FF3205A9022000F09AF980B9DDF81A40FE
:1036E000002CECD00D4DBDF818202146284614F0D2
:1036F00043F9204609F096F8CDF81A50DFE710F1AB
:10370000020FE1D109B030BDAC410120A89D0108F4
:103710003C9E0108389C0108A09D0108DC17002090
:1037200000B589B0214B0293CC230193204B009329
:10373000204B04222049002001F02DFE0BE01F4BFE
:103740000293DA2301931A4B00931A4B04221C496B
:10375000002001F020FE06A91A4B18680AF036FF77
:103760000028F8D10DF1160207A906980AF0A0FC6E
:103770000028E4D1BDF816300393134B0293D423F1
:1037800001930B4B00930B4B04220D4901F003FEF8
:10379000BDF816300093079B00221146042000F06C
:1037A000F5F806980AF045FCD5E700BFCC9D010866
:1037B000509E0108389C0108C49D0108F49D010831
:1037C000C8DA010878410120E49D010830B589B0CC
:1037D000204B0293EC2301931F4B00931F4B0422B9
:1037E0001F49002001F0D7FD022404E09DF8164097
:1037F000F4B1012C23D04FF0FF3205A9012000F0D5
:1038000006F980B9DDF81A40002CEFD0154DBDF84F
:1038100018202146284614F0AFF8204609F002F897
:10382000CDF81A50E2E710F1020FE1D109B030BD36
:10383000BDF81810DDF81A0000F018F8DBE741F2C7
:103840009233094ABDF81810DDF81A0000F066F846
:10385000D1E700BF109E0108649E0108389C010852
:10386000089E0108AC1F002070410120114B5B78BD
:10387000012B1BD170B506460C460AF0CDFB0E4D50
:103880002860A1B20AF0E6FB2C6823685E600B4B4F
:103890001E68FEF7DFF983B2094A214630460AF076
:1038A00055FD28680AF0C5FB002070BD4FF0FF30C1
:1038B000704700BF74170020AC270020784101201A
:1038C00070410120114B5B78012B1BD170B506466E
:1038D0000C460AF0A1FB0E4D2860A1B20AF0BAFB1B
:1038E0002C6823685E600B4B1E68FEF7B9F983B243
:1038F000094A214630460AF029FD28680AF099FB5A
:10390000002070BD4FF0FF30704700BF74170020DB
:10391000B027002078410120704101202DE9F041BD
:103920001446104A5278012A19D1074688461E4685
:103930000AF072FB0C4D28601FFA88F10AF08AFB2E
:1039400029680B685F6033462246084800680AF021
:10395000FDFC28680AF06DFB0020BDE8F0814FF007
:10396000FF30FAE774170020B427002078410120C7
:10397000082807D800EB8000034B03EB4000D0F889
:103980000600704700207047FC0300202DE9F0413D
:1039900084B00D4614461E460A9FFFF7E9FF80B328
:1039A0008046ADF80450ADF80640A7B900240023C6
:1039B000ADF80A30ADF80C30ADF80830404608F0EC
:1039C0000EFEB8B904B3204608F02CFF4FF0FF30CC
:1039D00004B0BDE8F081384608F0A6FE0446002891
:1039E000E5D03A46314613F0C7FFCDF80A40ADF8AE
:1039F0000870E3E700231A4601A9404608F05EFD7F
:103A0000E6E76FF00500E3E74FF0FF30E0E770B561
:103A100082B00C461546FFF7ABFF58B1064608F0DA
:103A2000D1FD01902B4600222146304608F088FD4A
:103A300002B070BD6FF00500FAE7000010B5044653
:103A400038B1A0682369626802FB0303E068181AB2
:103A500010BD4FF4E2710248FEF77CF8F1E700BFB9
:103A6000E09E010838B50C46054680B1EA68111998
:103A7000E9606B68934208D82A690AB1013A2A6161
:103A8000B1FBF3F203FB1211E960002038BD40F2F4
:103A9000EF110248FEF75EF8E8E700BFE09E01087C
:103AA0002DE9F041804616460F4679B1FB6838682B
:103AB0000021B1420FD2C25C08F8012001337C68BA
:103AC000B3FBF4F504FB15330131F2E7AF210548F0
:103AD000FEF740F8EAE731463846FFF7C3FF00201B
:103AE000BDE8F081E09E01082DE9F8430F469046BD
:103AF0009946044638B167B1B8F1000F0FD0256878
:103B00003E787F7836E040F207112C48FEF722F825
:103B1000F1E74FF484712948FEF71CF8ECE740F216
:103B200009112648FEF716F8E9E7B9F1020F14D09B
:103B3000002201339BB2B3FBF1F601FB16339BB2BB
:103B4000EB5C02EB032292B2904231D39AB321464E
:103B50004046FFF7A5FF002028E001339BB2B3FBEE
:103B6000F1F201FB12339BB2EA5CE2E7012120464D
:103B7000FFF778FF2046FFF761FF80B2E1688BB264
:103B800090B1EA5CB242F1D101339BB26168B3FB00
:103B9000F1F201FB12339BB2EA5CBA42C5D00121BB
:103BA0002046FFF75FFFE5E76FF00300BDE8F8830D
:103BB0004FF0FF30FAE74FF0FF30F7E7E09E0108E3
:103BC00070B50D461646044608B1002306E04FF4D2
:103BD00010710D48FDF7BEFFF7E70133AB4212D27B
:103BE0002268A068411CA160F15C1154A168626860
:103BF0009142F2D3002020726072A072E0722069BC
:103C000001302061E9E770BDE09E010820B108B5F0
:103C100008F008FE002008BD6FF0050070470000A6
:103C200012490A688B68C3EB032313444A68934222
:103C300000D1704710B50C46531C4B60023201EBAB
:103C400082025068FFF7E2FF6268FE2A0CD9A3687F
:103C50000BB1013BA360064BA3FB0213DB09C3EBD3
:103C60000323D31A014A536010BD00BFC4270020AC
:103C70008180808030B587B01C4A14689368C3EB9C
:103C800003210C445268A41A04930394184B029322
:103C900040F2ED230193174B0093174B0422174971
:103CA000002001F078FB09E0154BA3FB0213DB09B0
:103CB000C3EB0323D31A0D4A53602C46651E94B1FF
:103CC0000A4C63685A1C6260023304EB8303586831
:103CD000FFF79CFF6268FE2AEFD9A368002BE3D0B0
:103CE000013BA360E0E707B030BD00BFC427002060
:103CF000489F010854A00108149F0108C8DA010870
:103D000081808080F8B5184D44F624620021284651
:103D100013F05AFE154F42F2107422460021384625
:103D200013F052FE124E22460021304613F04CFE94
:103D3000104B1D6044F620625A600F480268D36839
:103D400043F01003D3600D4D2A68D36843F010038D
:103D5000D3602246394606F045F8224631462846C9
:103D600006F040F8F8BD00BF244E00108457002034
:103D7000CC2B00207057002080770120C4770120D1
:103D800038B50C46054688B10B2323801048FFF751
:103D900055FE6B88032B13D00DD8022B04D8224676
:103DA0000C490B4801F00CFA002038BDEC210A4800
:103DB000FDF7D0FEE8E7042BF6D1FFF731FFF3E77C
:103DC00022460449D5F8060001F0FAF9ECE700BFF5
:103DD000705700202C530020149F010810B5044692
:103DE00001F03BFA204601F0CDFAFF2803D0034B47
:103DF00033F8100010BD4FF0FF30FBE75CA6010860
:103E000010B5042903D90A48FFF7E8FF10BD04469E
:103E1000074801F035FA012806D00A2CF3D80449E6
:103E2000204601F020FAEEE7014801F024FAF4E719
:103E3000F852002070B586B00024ADF81640214835
:103E4000FDF7CCFEFFF75EFF1F4B02937B23019330
:103E50001E4B00931E4B04221E49204601F09BFA84
:103E60001D4B1E4A1E491F4801F0ECF905244FF076
:103E7000FF320BE01C4884780DF11601FFF780FF3C
:103E80002146BDF81600FFF7BBFF02461649032086
:103E9000FFF7BDFD88B9144BD3F80640002CE9D0DC
:103EA0001D46124E9A882146304613F065FD204685
:103EB00008F0B8FCC5F80660DCE710F1020FDFD1AE
:103EC0000624DDE72C530020709F01080CA0010898
:103ED000149F0108689F010894A0010868A00108C8
:103EE00008530020F8520020B8270020E452002098
:103EF000002851D02DE9F04186B0044600294ED06B
:103F00008AB20146274805F05BFC0546002832D1FD
:103F1000254A1368591C1160B3F57A7F03D000203D
:103F200006B0BDE8F08108F0BBFC204F204E0390A6
:103F3000204B029340F2FB130193DFF88480CDF80D
:103F400000803B4604223146002001F024FA237A07
:103F500004950393184B02934FF4FE730193CDF82D
:103F600000803B4604223146002001F014FA002074
:103F70000D4B1860D4E70390104B029340F20123DD
:103F800001930F4B0093094B04220949002001F0D3
:103F900002FA4FF0FF30C3E76FF0050070476FF093
:103FA0000500BDE7C4770120DC520020149F010802
:103FB000689F0108CC900108889F0108AC9F010808
:103FC0001CA00108002840D02DE9F04186B004462D
:103FD00000293DD08AB20146204805F0F1FB054694
:103FE000002838D11E4A1368591C1160B3F57A7F36
:103FF00003D0002006B0BDE8F08108F051FC194F55
:10400000194E0390194B02934FF407730193DFF895
:104010006480CDF800803B4604223146002001F048
:10402000BAF9237A04950393114B029340F21D23AE
:104030000193CDF800803B4604223146002001F078
:10404000AAF90020064B1860D4E76FF0050070470E
:104050006FF00500CEE74FF0FF30CBE7807701200F
:10406000E0520020149F0108689F0108CC900108CD
:10407000CC9F01082CA00108014B1878704700BFA5
:104080002C530020014B9878704700BF2C53002020
:104090002DE9F84F80460D4617461E460B9CFFF74C
:1040A000EBFF8246FFF7EEFF81464FF47A72002164
:1040B000244813F089FC15B1B8F1000F0BD14CB3B3
:1040C0000A9B002B3BD004F1FF38424619461D489D
:1040D00013F052FC1FE01B4C44F22743238006F1EF
:1040E0000A0B1FFA8BFBA4F802B049EA0A20A08051
:1040F000A4F8068025723246394604F1090013F00F
:104100003BFC0BF1FF31204601F046F96388013B8F
:10411000E05411E0A0460B4D3246394605EB08004D
:1041200013F02AFCA11989B269800139284601F0EF
:1041300033F96B88013BE8540248BDE8F88F4FF033
:104140000008E8E7885300202DE9F04F83B081464E
:10415000884617461E460D9DFFF78EFF8346FFF7E4
:1041600091FF0190324BD3F808A0BAF1000F18D19B
:1041700070190A3008F0D8FA044628B1B8F1000FD7
:1041800002D0B9F1000F10D1002C47D05DB30C9BC9
:1041900053B305F1FF3A52461946204613F0ECFBA3
:1041A00022E0FFF767FD002438E027230370442353
:1041B000437006F10A039DB24380019B43EA0B2B37
:1041C000A0F804B0A0F8069080F80880324639467E
:1041D000093013F0D1FB691E204601F0DDF8638839
:1041E000013BE05410E0AA463246394604EB0A008F
:1041F00013F0C2FB3544A9B265800139204601F0B5
:10420000CBF86388013BE054094B1A68511C1960D4
:10421000023203EB82035C60FF2903D0204603B027
:10422000BDE8F08F024B00221A6001229A60F5E788
:10423000C4270020004870472C530020704700001E
:10424000F0B583B004460E46FFF716FF0546FFF7AC
:1042500019FF0746404B9C4204D0404B9C423BD048
:1042600003B0F0BD3E4A136801331360092E2CD908
:104270003C4B1B7A022B1CD1280280B238443A4BAB
:104280001880384B5B7A012B06D93648013B4372C4
:104290004188FFF72DFE18E00023019300932623A9
:1042A000314A8221FF20FFF7F3FE4188FFF78AFEA3
:1042B0000BE02C4A31462D48FFF782FC0023009387
:1042C000022203210846FFF761FB42F210722549E2
:1042D000214805F087FDC3E7254A136801331360C1
:1042E000092E13D9234A136801331360224B1B7A1A
:1042F000822B12D0204A31461C48FFF761FC002374
:104300000093022203210846FFF740FB42F210729D
:104310001949124805F066FDA2E717498A78CB785B
:1043200002EB0322154C44F62066A251204613F0FE
:1043300023FB280280B20C4A38441080A359019311
:104340000094262300210846FFF7A2FE0028DDD0B6
:104350004188FFF737FED9E780770120C477012035
:104360008041012084570020843C012070570020A8
:104370007C41012028530020CC2B0020000000109D
:1043800010B584B0044605F0D5FC8DF80F0094F804
:104390003D3013F0200F01D104B010BD0023009375
:1043A000042203210846FFF7F1FAF5E700B585B0CE
:1043B000036C0393074B029340F2C1230193064B16
:1043C0000093064B04220649002000F0E4FF05B0EC
:1043D0005DF804FBF09F01083CA00108149F010850
:1043E000689F01080023032B13D830B4047A1D46BC
:1043F000084A32F82320144205D101339BB2032B23
:10440000F4D930BC7047034B03EB85056B880B80F8
:10441000F7E7704710A5010838B50C46054668B1A6
:1044200094B10023122B15D834F8020B020A02EBC8
:10443000002225F8022B0133DBB2F3E740F2A25150
:104440000548FDF787FBEBE740F2A3510248FDF773
:1044500081FBE6E738BD00BF24A1010830B587B075
:104460000C46054660B3002C30D0B5F809302380E7
:104470002378013323706378013363700023019341
:1044800000935B2322468121FF20FFF75DFE054656
:1044900010B32378627804920393114B029340F295
:1044A000B64301930F4B00930F4B04220F4900209A
:1044B00000F071FF69882846FFF784FD07B030BD22
:1044C00040F2A6410848FDF745FBCCE740F2A74182
:1044D0000548FDF73FFBC8E74FF0FF30EEE700BFB0
:1044E0005CA10108E4A4010824A10108689F010857
:1044F00003881B0A5A1ED2B20F2A00D9704770B423
:1045000002460B49262404FB031320301668556825
:104510009468D1681E605D609C60D9601032103371
:104520008242F3D11168196092889A8070BC7047FA
:10453000CC84002070B50E46054690B1BDB1E6B101
:10454000002495F82D36A3421DD35B2000FB0450B8
:104550000C223146033013F001FAB0B10134E4B259
:10456000EFE740F22E510A48FDF7F4FAE6E740F291
:104570002F510748FDF7EEFAE1E74FF4A661044832
:10458000FDF7E8FADCE7002070BD4FF0FF30FBE7F5
:1045900024A10108F0B585B00E4615460446002852
:1045A00043D0002C47D0002E4BD094F82D36112B41
:1045B0005DD8102B4BD85A1CD2B284F82D265B2321
:1045C00003FB024237687068B168C2F80370C2F832
:1045D0000700C2F80B1094F82D2603FB02F31833E2
:1045E000234405F11B02033305F15B0C1768566881
:1045F0009068D1681F605E609860D9601032103397
:104600006245F3D194F82D162A785B2303FB01F35E
:10461000E618E2546B787370AB78B37003F066FF02
:10462000C6F81300002005B0F0BD40F24F51184805
:10463000FDF790FAB5E74FF4AA611548FDF78AFA3D
:10464000B1E740F251511248FDF784FAADE7114B42
:10465000029340F2575301930F4B00930C4B0422EB
:104660000E49002000F097FE4FF0FF30DBE7094BCA
:10467000029340F264530193074B0093044B0422CE
:104680000649002000F087FE4FF0FF30CBE700BF67
:1046900024A1010878A1010800A50108689F01086C
:1046A000F0B589B00C461546064648B174B131469E
:1046B0002046FFF73FFF074670B1384609B0F0BD0E
:1046C00040F20E511448FDF745FAEFE740F20F5162
:1046D0001148FDF73FFAEAE72A4631462046FFF740
:1046E00059FF0746A8B994F82D360693B368059389
:1046F0007368049333680393084B029340F21A5390
:104700000193074B0093044B0422064900F043FE3B
:10471000D3E74FF0FF37D0E724A1010898A10108A3
:10472000F0A4010894A1010830B585B00C460546F7
:1047300098B1C4B122466B4652F8030F5168926893
:1047400007C3224629466846FFF7AAFF8DF80F00E7
:104750009DF80F0040B205B030BD40F2E34105487E
:10476000FDF7F8F9E5E740F2E4410248FDF7F2F918
:10477000E0E700BF24A10108FD20704710B584B018
:10478000FFF77AFC0446FFF77DFC114B1A68D188CD
:10479000127A230243F008031BB20B401BB293B101
:1047A00012F0800F11D10B4B02934FF49E730193C3
:1047B000094B0093094B04220949002000F0EBFD4E
:1047C000FD2004B010BDFE20FBE7FE20F9E700BF8E
:1047D000947E0020BCA10108A8A3010824A101081F
:1047E000689F0108FD207047F0B583B00E4D2B681F
:1047F00003F109065F88FFF73FFC0446FFF742FC20
:104800002B68DB88240244F0FF04A34202D0FE2080
:1048100003B0F0BD00973346042203210520FFF7C3
:10482000B5F8FD20F4E700BF947E0020FD2070471E
:10483000FD20704738B5084B1D68FFF71DFC044686
:10484000FFF720FCEB88A4B2B4EB132F01D1FD20BD
:1048500038BDFE20FCE700BF947E0020FD2070479D
:10486000FD207047FD207047FD207047FD207047F8
:1048700010B584B0124B1B681C7AFFF7FDFBFFF7E5
:1048800001FC032C02D0FE2004B010BD0D4B02939E
:104890004FF4E57301930C4B00930C4B04220C492D
:1048A000002000F078FD0023019300935B23094A68
:1048B00012688321FF20FFF747FCFD20E4E700BFDB
:1048C000947E0020D4A10108BCA3010824A1010802
:1048D000689F01085887002010B584B0FFF7CCFB13
:1048E0000446FFF7CFFB104B1B68DB88A4B2B4EB88
:1048F000132F02D0FE2004B010BD0C4B029340F2E7
:10490000E51301930A4B00930A4B04220A49002045
:1049100000F041FD00220092034B1B68032101209F
:10492000FFF734F8FD20E6E7947E0020E4A10108BB
:10493000D0A3010824A10108689F0108134B1B683C
:10494000197ADA884FF6FF739A421CD1012901D0F7
:10495000FE20704700B585B00D4B029340F2FF1367
:1049600001930C4B00930C4B04220C49002000F0E7
:1049700012FD0B4B1968054B1868FFF76FFDFD2002
:1049800005B05DF804FBFE20704700BF947E002058
:10499000F8A10108E4A3010824A10108689F010807
:1049A0005887002000B585B0FFF766FB0E4B1968ED
:1049B000CB8880B2B0EB132F03D0FE2005B05DF89A
:1049C00004FB09310948FFF7AFFE094B029340F29F
:1049D00019230193074B0093074B0422074900203A
:1049E00000F0D9FCFD20E9E7947E00209C7E0020A9
:1049F00008A20108F4A3010824A10108689F010886
:104A000030B587B00E4B1D686988284600F0DEFC83
:104A100004462B7A049303900A4B029340F22F230F
:104A20000193094B0093094B04220949002000F02F
:104A3000B2FC14B9FD2007B030BDFE20FBE700BF7B
:104A4000947E00201CA2010804A4010824A10108EE
:104A5000689F010830B585B00E4B1D68FFF70CFB51
:104A60000446FFF70FFBEB88A4B2B4EB132F02D080
:104A7000FE2005B030BD084B029340F2472301935E
:104A8000064B0093064B04220649002000F083FCED
:104A9000FD20EEE7947E0020E4A1010818A401089F
:104AA00024A10108689F01082DE9F8438146714C53
:104AB0004FF4FA620021204612F086FF6E4D6F4BD4
:104AC0001B682846984729462046FFF7A5FCB9F8F9
:104AD0000280A8F10A080026263437469EE000230B
:104AE0000F2B0AD805EB4302D1880A0A02EB0122F8
:104AF00024F8022B0133DBB2F2E726378EE003F015
:104B0000F5FC00F00F0600220FE031440B0203F425
:104B10007F0303EB0163080A00F47F40034403EBC7
:104B2000116344F8043B0132D2B2072A11D805EBD5
:104B30008203D3F806100029E7D10B0203F47F03A8
:104B400003EB0163080A00F47F40034403EB1163A5
:104B5000E7E7263762E003F0C9FC00F00F06002209
:104B60000FE031440B0203F47F0303EB0163080AF7
:104B700000F47F40034403EB116344F8043B01322B
:104B8000D2B2072A11D805EB8203D3F80610002908
:104B9000E7D10B0203F47F0303EB0163080A00F47F
:104BA0007F40034403EB1163E7E7263736E0002339
:104BB0000F2B0AD805EB4302D1880A0A02EB012227
:104BC00024F8022B0133DBB2F2E7263726E000237C
:104BD0000F2B0AD805EB4302D1880A0A02EB012207
:104BE00024F8022B0133DBB2F2E7263716E005EB9F
:104BF0008103D3F80630F218130203F47F0303EBAA
:104C00000263100A00F47F40034403EB126344F88C
:104C1000043B0131C9B20729E9D92637474526D2D5
:104C200009F109053D442846FFF762FC2A88130A6A
:104C300003EB022323806A88130A03EB02236380B9
:104C4000AA88130A03EB0223A38006342B88DBB265
:104C5000012B3FF444AF102B3FF451AF202B3FF416
:104C60007AAF022BA3D0082BB1D00021D3E7FD20CF
:104C7000BDE8F883489C0010CC84002054870020B5
:104C80002DE9F04F87B07C4B029340F2D223019381
:104C90007A4B00937A4B04227A49002000F07BFB88
:104CA000794E4FF4FA620021304612F08DFE774BB8
:104CB0001B685B88A3F10A0B4FF00008CDF8108049
:104CC000C246C1469EE000270F2F0CD805EBC70057
:104CD00004EB4703DB886E4A0821304413F07CFA6A
:104CE0000137FFB2F0E78035049B2B4404932E4438
:104CF00009F126097FE003F0F9FB00F00F0300271C
:104D0000CDF81480984613E007EB470005EB8000D0
:104D100004EB8703D3F8062008EB070313435D4A2F
:104D20000C21DFF864C1604413F056FA0137FFB27A
:104D3000072FE9D9DDF81480BAF1030F02D80AF180
:104D4000010A58E009F126094FF0000A53E0002754
:104D500005960F2F0DD805EBC70004EB4703DB8842
:104D60004D4A0821484E304413F036FA0137FFB25D
:104D7000EFE7059EBAF1030F02D80AF1010A3AE003
:104D800009F126094FF0000A35E0002705960F2F9C
:104D90000DD805EBC70004EB4703DB883E4A08212A
:104DA000394E304413F018FA0137FFB2EFE7059E91
:104DB000BAF1030F02D80AF1010A1CE009F1260931
:104DC0004FF0000A17E007EB470005EB800004EB0B
:104DD0008703D3F806302F4A0C21DFF8ACC06044BB
:104DE00013F0FAF90137FFB2072FECD9BAF1030F2C
:104DF0002DD80AF1010AB8F1040F2DD008F10108ED
:104E00005FFA88F8D94532D2204B1C6809344C44EB
:104E10002046FFF76DFB23886288A18801910092EC
:104E20001E4A2421304613F0D7F93046FBF7DAF951
:104E300005462388DBB2012B3FF445AF102B3FF42E
:104E40005AAF022B83D0082B9FD00027CCE709F163
:104E500026094FF0000ACEE7049B00930A4B00227C
:104E600003210120FEF792FD4FF00008CAE7FD2064
:104E700007B0BDE8F08F00BF48A201082CA40108CC
:104E800024A10108689F0108489C0010947E00201E
:104E900080A2010888A2010894A201085CA201086E
:104EA000104B1B68DA881B7A12F0FF0F17D013F033
:104EB000800F01D1FE20704700B585B00A4B0293E8
:104EC00040F25B330193094B0093094B04220949DB
:104ED000002000F060FAFD2005B05DF804FBFE2024
:104EE000704700BF947E00209CA2010840A40108E6
:104EF00024A10108689F0108FD207047FD2070472C
:104F000030B587B00025ADF81650124B1B685B8892
:104F1000ADF81630104B1868FEF790FD044603906C
:104F20000E4B029340F2813301930D4B00930D4BD6
:104F300004220D49284600F02EFA092C02D8FD2043
:104F400007B030BD2B460095022203210846FEF72C
:104F50001DFDF4E7947E0020987E0020B0A2010899
:104F600054A4010824A10108689F0108FD2070478E
:104F7000FD20704710B584B00F4B1C686388039305
:104F80000E4B02934FF46A7301930D4B00930D4B3C
:104F900004220D49002000F0FEF9638800200190F2
:104FA000009022460146FFF773F810B16188FEF7C2
:104FB0009FFFFD2004B010BD947E0020D4A2010804
:104FC00064A4010824A10108689F010810B584B0F9
:104FD0000F4B1C68638803930E4B029340F2BB3364
:104FE00001930D4B00930D4B04220D49002000F05E
:104FF000D2F9638800200190009022460146FFF715
:1050000047F810B16188FEF7DDFFFD2004B010BD48
:10501000947E0020F0A2010874A4010824A10108D4
:10502000689F010830B585B00D4B1C6865880395F5
:105030000C4B029340F2CE3301930B4B00930B4B7E
:1050400004220B49002000F0A6F900952346032214
:1050500011460520FEF79AFCFD2005B030BD00BFCB
:10506000947E00200CA3010884A4010824A1010857
:10507000689F010800B585B0FEF7FEFFFFF702F854
:105080000C4B1B6893F90830002B10DB0A4B029382
:105090004FF47B730193094B0093094B0422094998
:1050A000002000F078F9FD2005B05DF804FBFE203B
:1050B000FAE700BF947E002030A301089CA40108F9
:1050C00024A10108689F0108FD2070470D4B1B6853
:1050D00093F90830002B01DBFE20704700B585B046
:1050E000094B02934FF482630193084B0093084BE2
:1050F00004220849002000F04EF9FD2005B05DF8BB
:1051000004FB00BF947E002044A30108B0A4010862
:1051100024A10108689F0108FD20704700B583B0F5
:10512000064B1B685A88009209330222032105208E
:10513000FEF72CFCFD2003B05DF804FB947E0020FC
:10514000054B1A68537A012B03D9013B5372FD209A
:105150007047FE20704700BF947E002010B586B0D7
:105160000023019300935B23104A126801214FF63C
:10517000FF70FEF7E9FFA8B10446037AC2880492E3
:1051800003930B4B029340F24F430193094B00935F
:10519000094B04220949002000F0FDF861882046EF
:1051A000FEF7A6FEFD2006B010BD00BF5887002008
:1051B00058A30108C4A4010824A10108689F01089C
:1051C00070B588B00D46144644F22743ADF81C3044
:1051D000144B18600223144A07A9FEF785FC30B16E
:1051E000124B00221A600B23238008B070BD0F4EB3
:1051F0000D4830600E4B1D602146FFF7F3F8238801
:105200003268127A049203930A4B029340F2794374
:105210000193094B0093094B04220949002000F037
:10522000BAF8E2E7987E002018A40010947E0020CF
:105230005887002084A30108D4A4010824A10108F0
:10524000689F010830B4044600202070FF25657077
:105250006160A260E36030BC70474378FF2B01D0EF
:1052600001230370704701230B7000224A704B68C2
:1052700018809A70704700230370FF2343707047B3
:105280004378FF2B01D001207047002070472DE9A3
:10529000F8430546002707704078FF2870D06C68F7
:1052A00004EB80044FF00108FF2023E06B7801330A
:1052B0006B70C7F30E0324F8043F0023A370012E84
:1052C00010D1AB68228853F82220A37803EB430364
:1052D00002EB430932F8137032F91330002BE5DB8F
:1052E0000026ECE7EB6853F827309847FF2806D1F3
:1052F000FE20B046B8F1010F42D14646DFE7FD2857
:1053000005D099F8041099F80500C44625E099F8ED
:10531000021099F80300F8E76B7823B9FF226A704E
:105320009C46984619E0013B6B70AB6834F8041D4D
:1053300053F82110A37803EB430301EB43097F2AC1
:1053400004D099F8041099F8050006E099F80210C5
:1053500099F8030001E0C446B046B8F1010F0DD141
:1053600001F07F02A2F17E03DBB2012BD4D9A2703F
:1053700011F0800FEFD1B446B046EEE76646B8E7CD
:10538000BDE8F88308B50378012B01D0FF2008BDE4
:10539000FFF77DFFFBE7704738B50D46044658B16F
:1053A0000020691E6DB1234613F8012B42400548C9
:1053B000805C0D461C46F4E7C9210348FCF7CAFB94
:1053C000EEE738BDA4A6010868A6010838B50D4669
:1053D000044610B1A5B100210CE0DC210B48FCF71C
:1053E000B9FBF7E7234613F8012B4A400849895CCB
:1053F00005461C46681E002DF4D121B9002038BD99
:105400004FF0FF30FBE74FF0FF30F8E768A60108E8
:10541000A4A6010830B595B03022002108A812F0EA
:10542000D3FA0024039404940594069407940194F9
:105430001C4B1A6C42F080521A641B6C03F08053B0
:105440000193019B0294184B1A6842F480421A603F
:105450001B6803F480430293029B092308934FF4D3
:105460008033099301230D9302250E954FF4800399
:105470000F9304231093A82211921295139308A856
:1054800002F0E4F80F230393049505944FF4A0531E
:1054900006934FF480530793052103A802F038FBCD
:1054A00015B030BD003802400070004008B502F071
:1054B000F7FFFFF7AFFF00F03DF800F027F900F02D
:1054C0009DFB01F00BF800F0DBFA01F02FF800F083
:1054D0005FFF00F027FF00F0C9FF00F091FF01F02F
:1054E0004DF800F0EBFA10F001FD01F037F901F092
:1054F00051F9FCF7A7FA06F0D3FC00F057F906F0D3
:10550000E1FCFEE710B504460268074B9A4204D05E
:105510002268064B9A4203D010BD02F0DBFFF7E78A
:105520000020FBF787FFF7E700000140000800407C
:10553000704700002DE9F04F8DB0002407940894C7
:1055400009940A940B9401946A4B1A6B42F010026E
:105550001A631A6B02F010020192019A02941A6BFC
:1055600042F004021A631A6B02F004020292029AD9
:1055700003941A6B42F080021A631A6B02F08002E5
:105580000392039A04941A6B42F001021A631A6B95
:1055900002F001020492049A05941A6B42F002028E
:1055A0001A631A6B02F002020592059A06941A6BAE
:1055B00042F008021A631B6B03F008030693069B74
:1055C000DFF838B1224640F20111584602F07EFC65
:1055D000DFF82CA1224648F20801504602F076FC82
:1055E000454F22462221384602F070FCDFF8149124
:1055F00022464FF48041484602F068FCDFF80881FB
:1056000022468021404602F061FC4BF6FF7307936F
:1056100003250895099407A9484602F06DFB4EF250
:105620000C0307930895099407A9584602F064FBF8
:1056300040F2011307930126089609940A9507A9D9
:10564000584602F059FB41F67103079308950994F7
:1056500007A9504602F050FB48F20803079308964A
:1056600009940A9507A9504602F046FB4CF21D63C7
:1056700007930895099407A9384602F03DFB2223B9
:105680000793089609940A9407A9384602F034FB58
:105690004FF480430793089609940A9407A9484653
:1056A00002F02AFB4FF67F7307930895099407A928
:1056B000404602F021FB80230793089609940A9440
:1056C00007A9404602F018FB4FF4807307934FF48C
:1056D00044130893099407A9384602F00DFB2246AB
:1056E0000521172002F088FE172002F0B9FE0DB048
:1056F000BDE8F08F0038024000040240000802407C
:105700000000024000100240000C024010B582B0C0
:1057100000240094224B1A6B42F480021A631A6B25
:1057200002F480020092009A01941A6B42F4001273
:105730001A631B6B03F400130193019B224605219E
:105740000B2002F059FE0B2002F08AFE22460521B2
:10575000102002F051FE102002F082FE22460521A8
:10576000392002F049FE392002F07AFE2246052156
:105770003A2002F041FE3A2002F072FE2246052154
:10578000452002F039FE452002F06AFE224605213E
:10579000462002F031FE462002F062FE02B010BD4B
:1057A00000380240704700207047000070B56F4815
:1057B00006F0CEFC6E4E30606E4806F0C9FC6E4CB2
:1057C00020606E4806F0C4FC6D4D28604FF0FF313C
:1057D000306806F007FD4FF0FF31286806F002FD43
:1057E0004FF0FF31206806F0FDFC664A01210846B3
:1057F00006F04AFD644D2860644A0221084606F01E
:1058000043FD634C20604FF0FF31286806F0EAFC4E
:105810004FF0FF31206806F0E5FC5E4B00220121CD
:105820005D4806F005FC5D4B18605D4B00220121D0
:105830005C4806F0FDFB5C4B18605C4B00220121CC
:105840005B4806F0F5FB5B4B18605B4A0A211420AD
:1058500006F0E9FD594B1860594A0A21052006F067
:10586000E2FD584B1860584A0A21142006F0DBFD6F
:10587000564B1860564A0A21052006F0D4FD554BB8
:105880001860554A0A21052006F0CDFD534B1860DB
:10589000534A0A21052006F0C6FD524B1860524AB1
:1058A0000A21052006F0BFFD504B1860504A0A211E
:1058B000052006F0B8FD4F4B18604F4A0421012027
:1058C00006F0B1FD4D4B18604D4A00214D4806F0E1
:1058D0001FFB4D4B18604D4A00214D4806F018FB48
:1058E0004C4B18604C4A00214C4806F011FB4C4BC5
:1058F00018604C4A00214C4806F00AFB4B4C2060D3
:105900004B4A00214B4806F003FB4B4B18604B4AB7
:1059100000214B4806F0FCFA4A4B18604A4A002125
:105920004A4806F0F5FA4A4B18604A4A00214A48AC
:1059300006F0EEFA494B1860494A0021494806F042
:10594000E7FA494B1860494A0021494806F0E0FA55
:10595000484B1860FCF7ACF8206806F037FB464867
:1059600006F0D4FB454B186070BD00BF30AA01089B
:10597000AC41012050AA01088441012040AA01083D
:10598000D041012044AB0108E041012054AB0108A3
:10599000CC41012064AB0108A91B00089041012003
:1059A00010AA0108351400089C41012020AA010812
:1059B0005D180008B441012084AA0108B04101200B
:1059C000CCAA0108D4410120E4AA010888410120A1
:1059D000FCAA0108C04101209CAA0108EC41012059
:1059E00014AB0108C8410120B4AA01089441012068
:1059F0002CAB0108D841012034A90108BC41012089
:105A0000ECA90108ED180008F0410120B8A901082F
:105A1000C1340008A041012094A90108B910000870
:105A20008C41012098AB010821370008B8410120C2
:105A3000BCAB0108CD3700089841012074AB0108C8
:105A400095360008A441012070A90108353E0008E0
:105A5000E441012060AA0108E9340008C4410120A2
:105A6000E0AB010881190008DC4101204CA90108C4
:105A7000211A0008A8410120DCA90108E841012001
:105A800008B50B480B4B03600B4B4360002383604E
:105A9000C3604FF48042026143618361C36103626A
:105AA00002F098FF00B908BDFFF742FDFBE700BF19
:105AB0004842012000540040A086010008B50B4870
:105AC0000B4B03600B4B436000238360C3604FF4B8
:105AD0008042026143618361C361036202F07AFF25
