:020000040800F2
:1000000000000220A97E01086F5500087155000804
:10001000735500087555000877550008000000006A
:10002000000000000000000000000000C1D7000830
:10003000795500080000000061D80008E9CC0008EC
:10004000F97E0108F97E0108F97E0108F97E0108B0
:10005000F97E0108F97E0108F97E0108F97E0108A0
:10006000F97E0108F97E0108F97E01087D55000836
:100070008D5500089D550008AD550008BD55000878
:10008000F97E0108CD550008F97E0108F97E0108C6
:10009000F97E0108F97E0108F97E0108F97E010860
:1000A000F97E0108DD550008F97E0108F97E010896
:1000B000ED550008FD5500080D560008F97E0108B1
:1000C000F97E0108F97E0108F97E0108F97E010830
:1000D000F97E01081D560008F97E01082D5600081A
:1000E000F97E0108F97E0108F97E0108F97E010810
:1000F0003D560008F97E0108F97E0108F97E0108E5
:10010000F97E0108F97E01084D560008F97E0108C4
:10011000F97E0108F97E01085D5600086D56000859
:10012000F97E01087D5600088D560008F97E010809
:10013000F97E01089D560008F97E0108F97E010844
:10014000F97E0108F97E0108F97E0108F97E0108AF
:10015000F97E0108AD560008BD560008CD560008CE
:10016000F97E0108F97E0108F97E0108F97E01088F
:10017000F97E0108F97E0108F97E010800000000FF
:08018000F97E0108F97E010877
:1001900010B5054C237833B9044B13B10448AFF3C1
:1001A00000800123237010BDEC020020000000003D
:1001B0005CA9010808B5034B1BB103490348AFF321
:1001C000008008BD00000000F00200205CA90108CA
:1001D00010F8012B11F8013B012A28BF9A42F7D0F1
:1001E000D01A7047034613F8012B002AFBD1181AC6
:1001F000013870470000000000000000000000000F
:1002000001F0FF01102A2BDB10F0070F08D010F8C7
:10021000013B013A8B422DD010F0070F42B3F6D1CB
:10022000F0B441EA012141EA014122F007047FF0E4
:1002300000070023F0E80256083C85EA010586EA3B
:10024000010685FA47F5A3FA87F586FA47F6A5FA77
:1002500087F68EB9EED1F0BC01F0FF0102F0070283
:1002600032B110F8013B013A83EA010313B1F8D12E
:100270000020704701387047002D06BF354603380F
:10028000073815F0010F07D1013015F4807F02BF48
:10029000013015F4C03F0130F0BC0138704700BF99
:1002A00081F0004102E000BF83F0004330B54FEA27
:1002B00041044FEA430594EA050F08BF90EA020F94
:1002C0001FBF54EA000C55EA020C7FEA645C7FEA27
:1002D000655C00F0E2804FEA5454D4EB5555B8BF4A
:1002E0006D420CDD2C4480EA020281EA030382EABB
:1002F000000083EA010180EA020281EA0303362D4D
:1003000088BF30BD11F0004F4FEA01314FF4801C1F
:100310004CEA113102D0404261EB410113F0004F31
:100320004FEA03334CEA133302D0524263EB4303E8
:1003300094EA050F00F0A780A4F10104D5F1200E86
:100340000DDB02FA0EFC22FA05F2801841F10001E1
:1003500003FA0EF2801843FA05F359410EE0A5F1B5
:1003600020050EF1200E012A03FA0EFC28BF4CF0E6
:10037000020C43FA05F3C01851EBE37101F000459C
:1003800007D54FF0000EDCF1000C7EEB00006EEBA9
:100390000101B1F5801F1BD3B1F5001F0CD3490833
:1003A0005FEA30004FEA3C0C04F101044FEA44528A
:1003B00012F5800F80F09A80BCF1004F08BF5FEA11
:1003C000500C50F1000041EB045141EA050130BDF1
:1003D0005FEA4C0C404141EB0101013C28BFB1F503
:1003E000801FE9D291F0000F04BF01460020B1FA4E
:1003F00081F308BF2033A3F10B03B3F120020CDA21
:100400000C3208DD02F1140CC2F10C0201FA0CF0FE
:1004100021FA02F10CE002F11402D8BFC2F1200C63
:1004200001FA02F120FA0CFCDCBF41EA0C01904019
:10043000E41AA2BF01EB0451294330BD6FEA040462
:100440001F3C1CDA0C340EDC04F11404C4F120024D
:1004500020FA04F001FA02F340EA030021FA04F35F
:1004600045EA030130BDC4F10C04C4F1200220FAB6
:1004700002F001FA04F340EA0300294630BD21FAF4
:1004800004F0294630BD94F0000F83F4801306BFBA
:1004900081F480110134013D4EE77FEA645C18BFAE
:1004A0007FEA655C29D094EA050F08BF90EA020F45
:1004B00005D054EA000C04BF1946104630BD91EA3D
:1004C000030F1EBF0021002030BD5FEA545C05D140
:1004D0004000494128BF41F0004130BD14F580047F
:1004E0003CBF01F5801130BD01F0004545F0FE41F3
:1004F00041F470014FF0000030BD7FEA645C1ABF28
:10050000194610467FEA655C1CBF0B46024650EA5E
:10051000013406BF52EA033591EA030F41F400218A
:1005200030BD00BF90F0000F04BF0021704730B510
:100530004FF4806404F132044FF000054FF00001E5
:1005400050E700BF90F0000F04BF0021704730B5A6
:100550004FF4806404F1320410F0004548BF40427B
:100560004FF000013EE700BF42004FEAE2014FEAD0
:1005700031014FEA02701FBF12F07F4393F07F4FAB
:1005800081F06051704732F07F4208BF704793F0AE
:100590007F4F04BF41F40021704730B54FF46074C1
:1005A00001F0004521F000411CE700BF50EA0102C4
:1005B00008BF704730B54FF000050AE050EA01026D
:1005C00008BF704730B511F0004502D5404261EBDD
:1005D00041014FF4806404F132045FEA915C3FF41E
:1005E000D8AE4FF003025FEADC0C18BF03325FEABB
:1005F000DC0C18BF033202EBDC02C2F1200300FA6C
:1006000003FC20FA02F001FA03FE40EA0E0021FA90
:1006100002F11444BDE600BF70B54FF0FF0C4CF47E
:10062000E06C1CEA11541DBF1CEA135594EA0C0F30
:1006300095EA0C0F00F0DEF82C4481EA030621EA6B
:100640004C5123EA4C5350EA013518BF52EA0335A6
:1006500041F4801143F4801338D0A0FB02CE4FF058
:100660000005E1FB02E506F00042E0FB03E54FF088
:100670000006E1FB03569CF0000F18BF4EF0010E80
:10068000A4F1FF04B6F5007F64F5407404D25FEA7C
:100690004E0E6D4146EB060642EAC62141EA55512F
:1006A0004FEAC52040EA5E504FEACE2EB4F1FD0C71
:1006B00088BFBCF5E06F1ED8BEF1004F08BF5FEAEF
:1006C000500E50F1000041EB045170BD06F00046A1
:1006D00046EA010140EA020081EA0301B4EB5C044E
:1006E000C2BFD4EB0C0541EA045170BD41F4801146
:1006F0004FF0000E013C00F3AB8014F1360FDEBF6B
:10070000002001F0004170BDC4F10004203C35DA46
:100710000C341BDC04F11404C4F1200500FA05F3C9
:1007200020FA04F001FA05F240EA020001F000426A
:1007300021F0004110EBD37021FA04F642EB0601E0
:100740005EEA430E08BF20EAD37070BDC4F10C040A
:10075000C4F1200500FA04F320FA05F001FA04F2CE
:1007600040EA020001F0004110EBD37041F10001BA
:100770005EEA430E08BF20EAD37070BDC4F12005C5
:1007800000FA05F24EEA020E20FA04F301FA05F22D
:1007900043EA020321FA04F001F0004121FA04F2D5
:1007A00020EA020000EBD3705EEA430E08BF20EAA5
:1007B000D37070BD94F0000F0FD101F000464000DF
:1007C00041EB010111F4801F08BF013CF7D041EA61
:1007D000060195F0000F18BF704703F00046520065
:1007E00043EB030313F4801F08BF013DF7D043EA36
:1007F0000603704794EA0C0F0CEA135518BF95EAEC
:100800000C0F0CD050EA410618BF52EA4306D1D172
:1008100081EA030101F000414FF0000070BD50EA91
:10082000410606BF1046194652EA430619D094EA1B
:100830000C0F02D150EA013613D195EA0C0F05D105
:1008400052EA03361CBF104619460AD181EA030159
:1008500001F0004141F0FE4141F470014FF0000011
:1008600070BD41F0FE4141F4780170BD70B54FF0AC
:10087000FF0C4CF4E06C1CEA11541DBF1CEA13552C
:1008800094EA0C0F95EA0C0F00F0A7F8A4EB05040E
:1008900081EA030E52EA03354FEA013100F0888005
:1008A0004FEA03334FF0805545EA131343EA1263CE
:1008B0004FEA022245EA111545EA10654FEA002683
:1008C0000EF000419D4208BF964244F1FD0404F53C
:1008D000407402D25B084FEA3202B61A65EB030598
:1008E0005B084FEA32024FF480104FF4002CB6EB55
:1008F000020E75EB030E22BFB61A754640EA0C00D5
:100900005B084FEA3202B6EB020E75EB030E22BF14
:10091000B61A754640EA5C005B084FEA3202B6EB55
:10092000020E75EB030E22BFB61A754640EA9C0014
:100930005B084FEA3202B6EB020E75EB030E22BFE4
:10094000B61A754640EADC0055EA060E18D04FEAA2
:10095000051545EA16754FEA06164FEAC30343EA42
:1009600052734FEAC2025FEA1C1CC0D111F4801F0F
:100970000BD141EA00014FF000004FF0004CB6E708
:1009800011F4801F04BF01430020B4F1FD0C88BFA7
:10099000BCF5E06F3FF6AFAEB5EB030C04BFB6EBB2
:1009A000020C5FEA500C50F1000041EB045170BDA5
:1009B0000EF0004E4EEA113114EB5C04C2BFD4EBD2
:1009C0000C0541EA045170BD41F480114FF0000E56
:1009D000013C90E645EA060E8DE60CEA135594EAD2
:1009E0000C0F08BF95EA0C0F3FF43BAF94EA0C0FD5
:1009F0000AD150EA01347FF434AF95EA0C0F7FF44A
:100A000025AF104619462CE795EA0C0F06D152EA9D
:100A100003353FF4FDAE1046194622E750EA410681
:100A200018BF52EA43067FF4C5AE50EA41047FF492
:100A30000DAF52EA43057FF4EBAE12E74FF0FF3CF7
:100A400006E000BF4FF0010C02E000BF4FF0010CC8
:100A50004DF804CD4FEA410C7FEA6C5C4FEA430C41
:100A600018BF7FEA6C5C1BD001B050EA410C0CBF90
:100A700052EA430C91EA030F02BF90EA020F0020F2
:100A8000704710F1000F91EA030F58BF994208BF59
:100A900090422CBFD8176FEAE37040F00100704716
:100AA0004FEA410C7FEA6C5C02D150EA013C07D16D
:100AB0004FEA430C7FEA6C5CD6D152EA033CD3D0B8
:100AC0005DF8040B704700BF8446104662468C46B2
:100AD0001946634600E000BF01B5FFF7B7FF0028E5
:100AE00048BF10F1000F01BD4DF808EDFFF7F4FF0E
:100AF0000CBF012000205DF808FB00BF4DF808ED99
:100B0000FFF7EAFF34BF012000205DF808FB00BFBB
:100B10004DF808EDFFF7E0FF94BF012000205DF8DD
:100B200008FB00BF4DF808EDFFF7CEFF94BF012092
:100B300000205DF808FB00BF4DF808EDFFF7C4FF8B
:100B400034BF012000205DF808FB00BF4FEA410CD4
:100B50007FEA6C5C02D150EA013C0AD14FEA430CB7
:100B60007FEA6C5C02D152EA033C02D14FF00000F4
:100B700070474FF0010070474A0011D212F5001281
:100B800011D20DD56FF47873B3EB62520ED44FEAE5
:100B9000C12343F0004343EA505323FA02F0704765
:100BA0004FF00000704750EA013002D14FF0FF30A3
:100BB00070474FF00000704753B94AB9002908BF89
:100BC00000281CBF4FF0FF314FF0FF3000F06EB92E
:100BD000ADF1080C6DE904CE00F006F8DDF804E094
:100BE000DDE9022304B070472DE9F047089D044673
:100BF0008C46002B40F083808A42174647D9B2FAD0
:100C000082F242B1C2F1200024FA00F091409740F4
:100C100040EA010C94404FEA1748230CBCFBF8F65D
:100C20001FFA87FE08FB16C143EA014306FB0EF1DB
:100C3000994209D9FB1806F1FF3080F019819942D9
:100C400040F21681023E3B445B1AA4B2B3FBF8F0BB
:100C500008FB103344EA034400FB0EFEA64509D905
:100C60003C1900F1FF3380F00581A64540F2028176
:100C700002383C4440EA0640A4EB0E0400261DB1B5
:100C8000D4400023C5E900433146BDE8F08702B9EE
:100C9000FFDEB2FA82F2002A50D1CB1B4FEA174E88
:100CA0001FFA87F80126B3FBFEFC210C0EFB1C3358
:100CB00041EA034108FB0CF38B4207D979180CF188
:100CC000FF3002D28B4200F2E9808446C91AA3B2F7
:100CD000B1FBFEF00EFB101143EA014408FB00F8E3
:100CE000A04507D93C1900F1FF3302D2A04500F21C
:100CF000D9801846A4EB080440EA0C40BFE78B42B9
:100D000009D9002D00F0B1800026C5E90001304668
:100D10003146BDE8F087B3FA83F6002E4AD18B4204
:100D200002D3824200F2B880841A61EB03010120F1
:100D30008C46002DA8D0C5E9004CA5E7C2F12003E0
:100D400020FA03F6974001FA02F04FEA174ED94015
:100D50003043030CB1FBFEF61FFA87F80EFB1611A9
:100D600043EA014306FB08F1994204FA02F409D967
:100D7000FB1806F1FF3C80F08D80994240F28A809A
:100D8000023E3B445B1A81B2B3FBFEF00EFB103314
:100D900041EA034100FB08F38B4207D9791800F1BF
:100DA000FF3C73D28B4271D902383944CB1A40EAE6
:100DB000064678E7C6F1200C03FA06F422FA0CF393
:100DC0001C4320FA0CF701FA06F34FEA144E21FAFD
:100DD0000CF11F433B0CB1FBFEF91FFA84F80EFB2C
:100DE000191143EA014109FB08FA8A4502FA06F2A1
:100DF00000FA06F308D9611809F1FF3048D28A4594
:100E000046D9A9F102092144A1EB0A01BFB2B1FB05
:100E1000FEF00EFB101147EA014700FB08F8B84549
:100E200007D9E71900F1FF312ED2B8452CD9023885
:100E3000274440EA0940A7EB0807A0FB02894F4579
:100E4000C64649461AD317D05DB1B3EB0E0267EB25
:100E5000010707FA0CFCF2404CEA0202F740C5E930
:100E6000002700263146BDE8F0872E4628460BE7CE
:100E70000646E9E61846FDE64345E5D2B8EB020E24
:100E800069EB04010138DFE70846D2E760468DE7E9
:100E90008146B9E7664675E730464AE7ACF1020C91
:100EA000394413E702383C4424E700BF704700BFD1
:100EB00010B582B00C46013805280ED8DFE800F0E6
:100EC000030F1A25303B0846FFF78CF900902346A4
:100ED00000221146022002F0D5FC02B010BD0846E7
:100EE000FFF780F90090234600221146022002F00D
:100EF000C9FCF2E70846FFF775F900902346002287
:100F00001146022002F0BEFCE7E70846FFF76AF947
:100F10000090234600221146022002F0B3FCDCE7D9
:100F20000846FFF75FF90090234600221146022091
:100F300002F0A8FCD1E70846FFF754F900902346D9
:100F400000221146022002F09DFCC6E7154B164A0E
:100F50001268C3F80220154A1268C3F80620144A22
:100F60001268DA60134A12681A61134A1268C3F8E9
:100F70001620124A1268C3F81A20114A12681A621F
:100F8000104A12685A62104A1268C3F82A200F4A9F
:100F90001268C3F82E200E4A12689A640D4A12682D
:100FA000DA647047B401002044100120541001207D
:100FB0001C100120641001202810012010100120B5
:100FC0006C100120381001205C10012068100120F5
:100FD00030100120581001202DE9F041ADF50A7DB7
:100FE0001E460B78212B30D00D46174600248494E2
:100FF00085948694879488944FF48078424621465D
:1010000044A817F05BF84246214604A817F056F8AA
:1010100005F0DAFE04461EB1909B0BB1919BC3B95B
:101020004FF48072002144A817F048F844AC434DB7
:101030000FCD0FC495E8070003C424F8022B120C4F
:10104000227044A90320FFF733FF0DF50A7DBDE8A8
:10105000F0811421284617F06AFD024684AE294625
:10106000304617F051FD4246002144A817F026F8FB
:10107000919B0293909B019300962346304AFF2157
:1010800044A817F023FC072F42DC929B002B3FD093
:101090004246002104A817F011F844AC2046FFF79F
:1010A000A1F893AB8993C0F1FF05929A294604A851
:1010B00017F05AFE804604A8FFF794F80646024649
:1010C00004A9204617F0FBFC2046FFF78BF81D4BC8
:1010D0001B88235221463846FFF7EAFE454501D3D7
:1010E000002EB2DC4FF48072002144A816F0E6FF17
:1010F00044AC154D0FCD0FC495E8070003C424F888
:10110000022B120C227044A90520FFF7D1FE9CE7A8
:101110004FF48072002144A816F0D0FF44AC0B4D70
:101120000FCD0FC40FCD0FC495E8030044F8040B96
:10113000218044A90320FFF7BBFE86E7D4A901085C
:1011400078A90108D0A9010890A90108ACA9010853
:1011500000B585B002464FF47A73009340232021F6
:10116000A02001F037FF10B105B05DF804FB03903B
:10117000084B029357230193074B0093074B04221C
:101180000749FFF729FF4FF47A700BF074FE05F062
:10119000E3FDE9E730AA010858AA0108F0A901080F
:1011A0002CAA010830B59BB005460C465022002100
:1011B00006A816F083FF2F21284617F0C5FC0494DB
:1011C00001300390084B029340F237130193074B11
:1011D0000093074B042207490020FFF7FDFE4FF460
:1011E0007A700BF048FEE6E740AA010868AA0108F9
:1011F000F0A901088CF50108024A13680133136055
:10120000704700BF0803002008B528B1012806D0A8
:10121000022807D0002008BD05F0F0FDFBE705F02F
:10122000F3FDF8E705F0F6FDF5E70000F0B593B043
:10123000384C3022002104F1100016F03FFFC0218D
:101240002170A82262700823A3702820E0706FF03C
:101250001700207103206071A171E2712372582080
:1012600060726FF05900A0721320E0726FF0630596
:10127000257360736FF06D05A573E073FF20207414
:101280006074A07421756275A3750126E6758023CC
:101290006376E123A3763046FFF7B6FF0546304676
:1012A000FFF7B2FF45400220FFF7AEFF4540C4F80C
:1012B0001A504FF47A7240F27E41174801F0D2FE84
:1012C0004FF47A730093402302AA2021A02001F05A
:1012D0003DFEC0B99DF80830013BDBB2FD2B17D8AD
:1012E0009DF80E30FF2B13D093B102AE254612AFFE
:1012F00034460FCC28606960AA60EB602646103542
:10130000BC42F5D104E0054808F010FC06F0BAF83C
:1013100013B0F0BD340B0120740B012038120120F2
:10132000A0B370B504460020207001256570042329
:10133000A370FFF769FFC4F803002846FFF764FFB6
:10134000C4F807000220FFF75FFFC4F80B004FF05E
:10135000FF33E37323746374A374E37423756375B9
:10136000A375E37523766376A376094B1B3403F1EB
:1013700040061D6858689968DA6825606060A16059
:10138000E26010331034B342F3D170BD704700BF38
:10139000340B0120014B9888704700BF340B0120AB
:1013A000014B5889704700BF340B0120014B9889CD
:1013B000704700BF340B0120014BD889704700BF34
:1013C000340B01200A2900D8704770B58EB004464E
:1013D0002822002104A816F071FE2C21204617F0C7
:1013E00029FB461C2E21204617F024FB0546821BB4
:1013F000D2B2314601A803F09FFF01352E212846C5
:1014000017F018FB0446421BD2B229460DF1050025
:1014100003F092FF01342E21204617F00BFB054606
:10142000021BD2B221460DF1060003F085FF002217
:10143000691C0DF1070003F07FFF0EB070BD00B511
:1014400085B000238DF80F30072902D005B05DF874
:1014500004FB2C2117F0EEFA0222411C0DF10F00C3
:1014600003F019FF9DF80F00000200220192009284
:101470001346032140F0FF0002F0E2FD0028E5D012
:10148000418802F0B1FCE1E710B584B000238DF88B
:101490000B300A2901D004B010BD8DF80C302C217E
:1014A00017F0C8FA441C022221460DF10B0003F08C
:1014B000F2FE2C21204617F0BDFA0222411C03A89F
:1014C00003F0E9FE9DF80B40C4B1200240F0FF009C
:1014D000002301930093012303AA042180B202F0A8
:1014E000AFFD0028D7D0418802F07EFCD3E7601C16
:1014F0000021C0B200F062FA0134E4B2032CCAD871
:101500009DF80C30234113F0010FF0D0601C012135
:10151000C0B200F053FAEFE700B587B000230393A1
:1015200004938DF814300A23ADF80E3003F004FE56
:101530008DF8080060B903A803F002FA00220092B7
:1015400013460321072002F09DF907B05DF804FB64
:10155000002301930093012302AA02214FF6FF709A
:1015600002F012FD0028F0D0418802F03DFCECE7CB
:1015700010B586B000238DF813302C2117F05AFADD
:101580000222411C0DF1130003F085FE01240CB969
:1015900006B010BD013C03F0CFFD8DF814009DF89E
:1015A00013308DF81530002301930093022305AA10
:1015B00019464FF6FF7002F0E7FC78B1418802F05F
:1015C00013FC0390074B0293C6230193064B009331
:1015D000064B042206490020FFF7FEFC0A200BF010
:1015E0004AFCD4E7F4AA010804AB0108B4AA010834
:1015F000F0AA010870B582B002F098FD044603F02D
:1016000097FD05465B263246214616F02FFD03F076
:101610008BFD114B18605D60104B18680BF0F4FDEA
:101620000023019300933346224601214FF6FF70B9
:1016300002F006FD10B1418802F0D6FB4FF47A703B
:101640000BF019FC0022009213460721084602F015
:1016500019F902B070BD00BF0C0300200C1001206E
:10166000F0B595B04FF48071224805F073F8012869
:1016700004D0214B00221A7015B0F0BD1E4A137819
:10168000591C1170022BF7D91C4B02932123019393
:101690001B4B00931B4B04221B490020FFF79CFCB3
:1016A00001F0D2FA4FF47A7240F27E41174801F00D
:1016B000EDFC174C04AE04F1400735462068616824
:1016C000A268E3680FC510342E46BC42F5D1012054
:1016D000FFF79AFD04460120FFF796FD44400220E3
:1016E000FFF792FD4440CDF82A4004A8FFF730FDF3
:1016F000C2E700BF000402402803002058AB0108E5
:10170000C0AB01081CAB0108F0AA0108740B012052
:1017100074AA010800B585B0204D214C214B0293DD
:101720003A230193204E00962B46042221460020A6
:10173000FFF752FC1D4B02933B23019300962B466F
:10174000042221460020FFF747FC194B02933C235B
:10175000019300962B46042221460020FFF73CFC13
:10176000144B02933D23019300962B4604222146FD
:101770000020FFF731FC104808F042FC08210F4818
:1017800004F0F5FF08210E4804F0F1FFFFF768FFB1
:101790004FF49D700BF06FFBEDE700BF1CAB010831
:1017A000F0AA010874AB0108D0AB01088CAB0108AA
:1017B0007800002060000020EC120120000C0240A4
:1017C0000000024030B589B03B4B02935523019392
:1017D0003A4B00933A4B04223A490020FFF7FCFBB6
:1017E000394803F03FFC40F6B831384B18680BF02D
:1017F000A5FB082409E010F1020F1FD109B030BD8C
:101800000A21334B18680BF099FB4FF0FF3205A902
:10181000072002F078F80028EDD1DDF81A405CB11D
:101820002C4DBDF818202146284616F01FFC2046F6
:101830000BF028FFCDF81A509DF81640072CE4D87D
:1018400001A353F824F000BF01180008691800082C
:10185000771800087F1800088B18000895180008F2
:10186000A1180008AD180008BDF81810DDF81A001E
:10187000FFF77EFEC9E70020FFF7BCFEC5E70A219F
:10188000134B18680BF05AFBBFE7114B18680BF0AD
:101890006FFBBAE7BDF818100E48FFF7F5FDB4E787
:1018A000BDF818100B48FFF7CAFDAEE7BDF81810D9
:1018B0000848FFF787FDA8E7ACAB0108E0AB0108DB
:1018C0001CAB0108F0AA01087D1900083C1001209A
:1018D000501001201403002008B54FF0FF31044BD5
:1018E00018680BF05DFC01F049F90BF0BFFA00BF7E
:1018F0000C10012008B500F005F80A200BF0BBFA27
:10190000F9E7000038B502F033FB044602F036FB7D
:101910002402A4B20444164B1C8000245C809C80EA
:1019200010E0144B03EBC405A98853F8340004F00D
:1019300011FFA87104F108020D4B03EB4203D8809C
:101940000134E4B2072CECD900240EE00A4B03EB7F
:10195000C405A98853F8340004F0FCFEA871044BB8
:1019600003EB4403D8800134E4B2032CEED938BD34
:101970002C0300200000002040000020F8B50446A1
:1019800090B10C4D05F120072E460FCE206061600E
:10199000A260E36035461034BE42F5D13068206065
:1019A000B388A3800020F8BD65210348FFF7FAFB48
:1019B000E7E700BF2C030020F0AB0108042800D9A2
:1019C000704710B50138054B03EBC0040A46A188E7
:1019D00053F8300004F0C5FE10BD00BF40000020E9
:1019E0002DE9F043ADF5037D0E46174699464FF4B9
:1019F00081742246002141A816F060FB2246002196
:101A0000684616F05BFB002408E04FF4807259F83A
:101A100024100DF5837017F03DF80134B44218DA44
:101A20004FEA840857F824502249284616F0E6FF6A
:101A30000028EAD02049284616F0E0FF0028ECD123
:101A40004FF4807259F808100DF1020017F022F8D7
:101A5000E3E70DF58370FEF7C5FB84B2ADF80441F2
:101A60000DF10200FEF7BEFB85B2ADF80050134940
:101A70000DF5837016F0C2FF90B911490DF1020007
:101A8000FEF7A6FB88B994B10DB90E4809E00E4CDB
:101A90000123E37605F098F9C4F831000B4800E023
:101AA00008480DF5037DBDE8F0830648F9E70548D1
:101AB000F7E700BF50AC01085CAC01089A0D0120AB
:101AC000AE0D01203CAC0108B00200202CAC010896
:101AD0002DE9F04385B098468A4BDB7E1BB98A48D6
:101AE00005B0BDE8F0830E461746864BD3F83100AB
:101AF00001F020FA854B984204D9824B0022DA7615
:101B00008148EDE705F060F97E4BC3F831004FF4F2
:101B10008174224600217E4816F0D0FA2246002128
:101B20007C4816F0CBFA224600217B4816F0C6FA14
:101B300022460021794816F0C1FA22460021784851
:101B400016F0BCFA002407E04FF4807258F8241015
:101B5000744816F09FFF0134B4423EDA4FEA84091C
:101B600057F824507049284616F048FF0028EBD05B
:101B70006E49284616F042FFB8B16D49284616F066
:101B80003DFFD0B16B49284616F038FFE8B16A49ED
:101B9000284616F033FF0028DDD14FF4807258F844
:101BA0000910664816F076FFD5E74FF4807258F8B2
:101BB0000910634816F06EFFCDE74FF4807258F8B5
:101BC0000910604816F066FFC5E74FF4807258F8B8
:101BD00009105D4816F05EFFBDE74D4DA81CFEF7ED
:101BE00001FB84B22C804B4EB01CFEF7FBFA85B291
:101BF0003580494FB81CFEF7F5FA86B23E80DFF813
:101C00001C8108F10200FEF7EDFA87B2A8F8007017
:101C1000DFF80C8108F10200FEF7E4FA80B2A8F8C0
:101C20000000002C3FD0002D3DD0002E3BD0002FD7
:101C300039D0002837D0142E35D8142F33D8434943
:101C4000384816F0DBFE00283CD141493C48FEF7FD
:101C5000BFFA002836D139493B48FEF7B9FA0028C7
:101C60003FD13A4C14223749204616F013FF142274
:101C70003549A01816F00EFF4FF47A7240F27E41FB
:101C8000A4F2262001F002FA324B029340F2DD2347
:101C90000193314B0093314B042231490020FFF76F
:101CA0009BF930481CE7304B029340F2CF2301935D
:101CB000294B0093294B042229490020FFF78CF976
:101CC0002A480DE72A4B029340F2D5230193224B79
:101CD0000093224B042222490020FFF77DF923487C
:101CE000FEE61F4C234B029340F2E22301931A4B72
:101CF00000931A4B042221460020FFF76DF920467D
:101D0000EEE600BFB002002068AC010820BF020070
:101D1000640A00205C080020680B00206009002095
:101D200058070020660A002094AC0108A4AC010802
:101D3000B4AC0108C4AC0108D4AC01085A070020B7
:101D40005E0800206A0B0020620900209A0D012025
:101D5000AE0D012060AD010874B20108E8AC0108C5
:101D60008CF501087CAC010828AD01083CAC0108E9
:101D700040AD01086CAD01081D4BDB7E0BB91D4861
:101D8000704770B582B00D461646194BD3F8310036
:101D900001F0D0F8184B984205D9154B0022DA769D
:101DA000144802B070BD05F00FF8114BC3F83100B4
:101DB0000024AC4219DA114956F82400FEF708FA5B
:101DC00008B10134F5E70E4B18680BF03AFB08B97F
:101DD0000C48E6E70C4B019300231A4601A908487A
:101DE00000680BF09DFA0948DBE70948D9E700BF16
:101DF000B002002068AC010820BF020094AD0108C9
:101E00002010012070AD01089CAD010884AD0108CF
:101E10008CF501081D4BDB7E0BB91D48704770B572
:101E200082B00D461646194BD3F8310001F082F806
:101E3000184B984205D9154B0022DA76144802B0A7
:101E400070BD04F0C1FF114BC3F831000024AC4257
:101E500019DA114956F82400FEF7BAF908B101342D
:101E6000F5E70E4B18680BF0ECFA08B90C48E6E7FA
:101E70000C4B019300231A4601A9084800680BF097
:101E80004FFA0948DBE70948D9E700BFB002002054
:101E900068AC010820BF0200A4AD01082010012099
:101EA00070AD0108ACAD010884AD01088CF50108E6
:101EB0002DE9F043C9B09846A74BDB7E1BB9A74874
:101EC00049B0BDE8F0830E461746A34BD3F8310066
:101ED00001F030F8A24B984204D99F4B0022DA76E9
:101EE0009E48EDE704F070FF9B4BC3F831004FF4C0
:101EF0008172002107A816F0E1F8002411E04FF4E8
:101F0000807258F824100DF11E0016F0C3FD0DF17B
:101F10001E00FEF767F980B2ADF81C00002853D10F
:101F20000134B44280F20C814FEA840957F82450FE
:101F30008C49284616F062FD0028E0D08A492846E0
:101F400016F05CFD00284DD08849284616F056FD55
:101F5000002866D08649284616F050FD002800F07B
:101F600081808449284616F049FD002800F09B80B6
:101F70008149284616F042FD002800F0BF807F49C5
:101F8000284616F03BFD0028CAD14FF4807258F85D
:101F900009100DF11E0016F07DFD0DF11E00FEF77B
:101FA00021F980B2ADF81C000028B9D001A90DF1CB
:101FB0001E0000F0D8FE0028B2D1019B704AC2F882
:101FC0001B30704A5381ABE706A90DF11E0000F0EB
:101FD0000BFF0028A4D1069B694AC2F80130694A68
:101FE00013609DE74FF4807258F809100DF11E0040
:101FF00016F050FD0DF11E00FEF7F4F880B2ADF8BA
:102000001C0000288CD005A90DF11E0000F016FF61
:10201000002885D1059B5A4AC2F80930594A1361F4
:102020007EE74FF4807258F809100DF11E0016F08B
:1020300031FD0DF11E00FEF7D5F880B2ADF81C00A1
:1020400000283FF46DAF04A90DF11E0000F020FF41
:1020500000287FF465AF049B494AC2F80D30494A15
:1020600053615DE74FF4807258F809100DF11E00BE
:1020700016F010FD0DF11E00FEF7B4F880B2ADF8B9
:102080001C0000283FF44CAF01A90DF11E0000F028
:102090006AFE00287FF444AF019B394AC2F805303C
:1020A000384A93803CE74FF4807258F809100DF1DC
:1020B0001E0016F0EFFC0DF11E00FEF793F880B243
:1020C000ADF81C0000283FF42BAF2F4A02A90DF1F8
:1020D0001E0000F007FF00287FF422AF284B029873
:1020E000C3F81100BDF80C20A3F81520254AD3F839
:1020F00011109161B3F81530938311E74FF480729A
:1021000058F809100DF11E0016F0C4FC0DF11E0068
:10211000FEF768F880B2ADF81C0000283FF400AF6D
:1021200006A90DF11E0000F05FFE00287FF4F8AE56
:10213000069B134AC2F81730124AC2F80630EFE67F
:102140004FF47A7240F27E410D4800F09FFF0D4837
:10215000FEF7FEFF0D48B3E6B002002068AC0108B0
:1021600020BF0200C8AD0108D0AD0108D8AD0108FC
:10217000E0AD0108ECAD0108F4AD010800AE0108C6
:10218000740B0120340B0120F0AD0108B4AD01083F
:102190002DE9F047C4B0994600238DF808306B4B09
:1021A000DB7E1BB96A4844B0BDE8F0870F46904615
:1021B000664BD3F8310000F0BDFE664B984204D95F
:1021C000624B0022DA766248EDE704F0FDFD5F4BDA
:1021D000C3F8310000240BE059F824502846FEF7DC
:1021E00001F8C2B229460DF10B0003F0A5F8013445
:1021F000BC4280F296804FEA840A58F8245056492F
:10220000284616F0FBFB0028E6D05449284616F075
:10221000F5FB18B35249284616F0F0FBF0B15149CE
:10222000284616F0EBFBC8B14F49284616F0E6FBEE
:10223000A0B14E49284616F0E1FB78B14C4928463A
:1022400016F0DCFB50B14B49284616F0D7FB28B1FD
:102250004949284616F0D2FB0028C8D147492846EC
:1022600016F086FC014600285BD04FF480720231E4
:102270000DF10E0016F00EFC5F210DF10E0016F0B0
:10228000D9FB00284DD0002202700DF10E0015F090
:1022900034FE0646431E072B43D84FF4807259F88C
:1022A0000A100DF10E0016F0F5FB0DF10E00FDF712
:1022B00099FF80B2ADF80C00002898D030490DF19C
:1022C0000E0016F09BFB58B9721E012303FA02F2AE
:1022D0009DF8083013438DF808309DF80B30DBB1C2
:1022E00028490DF10E0016F089FB00287FF47FAF1E
:1022F000721E012303FA02F29DF8083023EA02035A
:102300008DF808309DF80B30002B7FF470AF002162
:10231000F0B2FFF753FB6AE70121F0B2FFF74EFB83
:10232000DEE79DF80B0000020023019300930123D8
:1023300002AA042140F0FF0001F082FE20B1418892
:1023400001F052FD10482EE70F482CE7B0020020A4
:1023500068AC010820BF020020AE010828AE0108C9
:1023600034AE010840AE01084CAE010858AE010879
:1023700064AE010870AE01087CAE010874B80108B3
:1023800088AE010890AE01080CAE010830B58BB0E4
:102390000C4615463C493D4B53F8200016F0E8FB2F
:1023A00000286AD001462122023101A816F072FBF2
:1023B0005F2101A816F03EFB00285ED000220270CB
:1023C00001A815F09AFD431E0F2B56D8304B1B6801
:1023D000002B57D02F4A1268002A53D09B78102B1D
:1023E00011D0202B22D0012B33D0082B3BD0042B33
:1023F00048D1431E02EB4303DB88274A2946204687
:1024000016F064FA3EE008280ADC013802EB80008E
:10241000D0F80630214A2946204616F057FA31E016
:102420002A461F49204616F035FB2BE008280ADC17
:10243000013802EB8000D0F80630184A29462046C1
:1024400016F044FA1EE02A461549204616F022FBF3
:1024500018E0431E02EB4303DB880F4A294620465F
:1024600016F034FA0EE0431E02EB4303DB880A4AFF
:102470002946204616F02AFA04E02A460849204652
:1024800016F008FB0BB030BD74B8010890000020B6
:10249000700C00206C0C0020A0AE010898AE010862
:1024A0009CAE0108F0B587B0061EC0F2AF820C46A4
:1024B0001746BA4B53F82650B949284616F09EFAEB
:1024C000002800F0B580B749284616F097FA002892
:1024D00000F0BF80B449284616F090FA002800F0BA
:1024E000BE80B249284616F089FA002800F0C18063
:1024F000AF49284616F082FA002800F0D380AD4993
:10250000284616F07BFA002800F0D280AA49284617
:1025100016F074FA002800F0DA80A849284616F070
:102520006DFA002800F0E680A549284616F066FA04
:10253000002800F0F280A349284616F05FFA002830
:1025400000F0F580A049284616F058FA002800F05F
:1025500001819E49284616F051FA002800F00481B6
:102560009B49284616F04AFA002800F0068199494E
:10257000284616F043FA002800F0058196492846BF
:1025800016F03CFA002800F04D819449284616F0D8
:1025900035FA002800F05F819149284616F02EFA9E
:1025A000002800F05E818F49284616F027FA00289F
:1025B00000F066818C49284616F020FA002800F0C9
:1025C00072818A49284616F019FA002800F07E81A7
:1025D0008749284616F012FA002800F081818549C3
:1025E000284616F00BFA002800F08D818249284613
:1025F00016F004FA002840F09781804B1B68FBB16D
:1026000018787F4A526892F82D16884200F085812A
:102610007C490A6826320A605B33784A1360774B3C
:102620001B681B78784A3946204616F04FF907E0B8
:10263000734B5B689B78754A3946204616F046F91D
:10264000002C00F0E6812046FDF7CCFD80B207B0FB
:10265000F0BD3A466E49204616F01CFAF0E72021FC
:102660006C4816F0E7F901463A46204616F012FA91
:10267000E6E7634B5A6892F8333092F8341092F8D8
:10268000350092F8365092F8376092F8382004926C
:1026900003960295019000915F4A3946204616F054
:1026A00015F9CDE73A465D49204616F0F3F9C7E73C
:1026B000534B5A68D37E117F507F927F02920190D4
:1026C0000091574A3946204616F000F9B8E74C4BBE
:1026D0005A6892F82B3092F82C1092F82D0092F84C
:1026E0002E200292019000914D4A3946204616F064
:1026F000EDF8A5E7424B5A6892F82F3092F8301067
:1027000092F8310092F83220029201900091444AEE
:102710003946204616F0DAF892E7394B5B68B3F891
:102720001F30394A3946204616F0D0F888E7344B36
:102730005A6892F8213092F8221092F8230092F809
:102740002420029201900091354A3946204616F025
:10275000BDF875E72A4B5B68B3F825302A4A39463D
:10276000204616F0B3F86BE7244B1B689B78274A8A
:102770003946204616F0AAF862E73A462449204630
:1027800016F088F95CE72021224816F053F901463B
:102790003A46204616F07EF952E700BF900000202E
:1027A000A4AE0108B0AE0108C0AE0108C8AE010871
:1027B000F0AE010804AF01081CAF010828AF010802
:1027C00034AF010844AF010850AF01085CAF010805
:1027D00068AF010874AF0108ECAD010878AF0108DB
:1027E000C8AD0108D0AD0108D8AD0108E0AD0108C1
:1027F000F4AD010800AE010884AF0108700C0020A0
:102800000C0300206C0C002040AF0108A0AE0108B2
:10281000F0AD010878000020D0AE010800AF01083B
:1028200010AF01087C4B1A6892F8333092F83410DC
:1028300092F8350092F8365092F8376092F83820C6
:1028400004920396029501900091744A39462046FD
:1028500016F03CF8F4E63A467149204616F01AF9AB
:10286000EEE66D4B1A68D37E117F507F927F029205
:10287000019000916B4A3946204616F027F8DFE6B2
:10288000654B1A6892F82B3092F82C1092F82D00B4
:1028900092F82E20029201900091624A3946204619
:1028A00016F014F8CCE65C4B1A6892F82F3092F8C8
:1028B000301092F8310092F832200292019000918B
:1028C000584A3946204616F001F8B9E6524B1B68C3
:1028D000B3F81F30544A3946204615F0F7FFAFE6EB
:1028E0004D4B1A6892F8213092F8221092F823008A
:1028F00092F824200292019000914A4A39462046DB
:1029000015F0E4FF9CE6444B1B68B3F82530464ABB
:102910003946204615F0DAFF92E63F4B1A60434BEA
:102920001A68434B1A607AE64249284616F066F860
:1029300000284ED04049284616F060F8002848D0BC
:102940003E49284616F05AF8002842D03C4928460D
:1029500016F054F800283CD03A49284616F04EF8B4
:10296000002836D03849284616F048F888B3374949
:10297000284616F043F860B33549284616F03EF86D
:1029800038B33449284616F039F810B3324928468E
:1029900016F034F8E8B13149284616F02FF8C0B1E6
:1029A0002F49284616F02AF898B12E49284616F0E5
:1029B00025F870B12C49284616F020F848B12B496B
:1029C000284616F01BF820B12949284616F016F8BB
:1029D00028B93A4621463046FFF7D8FC30E625496B
:1029E000284616F00BF870B90B4B1B68002B3FF410
:1029F00027AE0E4B5B6893F82D360B4A39462046BE
:102A000015F064FF1CE60023237019E64FF6FF70F3
:102A10001DE600201BE600BF700C0020D0AE0108B0
:102A200000AF010810AF010840AF01080C030020FF
:102A30006C0C002090AF01089CAF0108A8AF010802
:102A4000B4AF0108C0AF0108CCAF0108D8AF01088E
:102A5000E4AF0108F0AF0108FCAF010808B00108BD
:102A600014B0010820B001082CB0010838B00108EA
:102A700044B0010850B00108134B002283F8FF2333
:102A800083F8002483F8012483F80224A9B10A788A
:102A9000B2B110B50C4C40F2FF32204615F0FAFFEF
:102AA00040F2FF320949204615F0D1FF2046FDF7DC
:102AB00099FBC4F8FF03002010BD6FF00F007047B2
:102AC0006FF00F00704700BF540300205CB0010896
:102AD00070B50E460C46FCB1144BD3F8FF03628967
:102AE000811840F2FE3399420CD8104D6168284499
:102AF00015F0BCFAD5F8FF3362891344C5F8FF33EB
:102B00002468E8E7094B002283F8FF2383F80024B8
:102B100083F8012483F80224304611F083FE034B2E
:102B2000D3F8FF230020985470BD00BF5403002049
:102B300010B50846064C214615F0ACFF002384F87A
:102B4000FF3384F8003484F8013484F8023410BD73
:102B50005403002008B546220249034815F00CF939
:102B600008BD00BF90000020A524000808B506217C
:102B7000014815F039F908BD90B2010808B5FFF712
:102B8000E9FFFFF7F3FF054B5968054A11601A6822
:102B9000044B1A6015F0D6F808BD00BF0C030020E6
:102BA000700C00206C0C002038B505460C461E4BFE
:102BB000DB7EEBB91C4B0022DA761C492046FDF780
:102BC00007FB48B11A492046FDF702FB20B119491D
:102BD0002046FDF7FDFAA0B91749284615F02CF953
:102BE00000B304F0F1F8104BC3F83100002038BDF9
:102BF0000D4BD3F8310000F09DF9104B9842F0D9FD
:102C0000D8E70F492046FDF7E3FA0028E9D10A4B3F
:102C10002B6012236B600023AB60EB6001232B74ED
:102C20001846E4E70120E2E7B0020020B4AD010855
:102C30002CAC010870AD010868AC010820BF02008F
:102C400060B001087047000008B540F27E420249BA
:102C5000024815F00BFA08BDC4B20108740B01203C
:102C600030B4054600231A4608E003EB830300EB6B
:102C700043039BB2303B9BB20132D2B2022A08D846
:102C8000A85C38B1A0F13004E4B2092CEDD90120E0
:102C900000E00020012808D052B1A85C68B9FF2BE1
:102CA0000FD900230B70012005E000230B7002E018
:102CB00000230B70012030BC704700230B700120F3
:102CC000F9E70B70F7E770B405460378302B03D0B3
:102CD00000263346002414E04378782B03D0582B89
:102CE00003D00026F5E70226F3E70226F1E7A0F17C
:102CF0006102D2B2052A12D8613840EA04140133C5
:102D0000DBB2721C9A4213DBE85C90B1A0F1300296
:102D1000D2B2092AEBD8303840EA0414EFE7A0F128
:102D20004102D2B2052A0FD8413840EA0414E6E73E
:102D3000002001280AD063B1E85C70B9FE2C10D9DC
:102D400000230B70012006E00120F2E700230B7046
:102D500001E00B70012070BC704700230B70012054
:102D6000F9E70C70F7E72DE9F041864600240025CD
:102D7000002210E04FEA8508A30048EA947C1B1962
:102D80004CEB0504DE1844EB04073038341847EBED
:102D9000E0750132D2B2092A09D81EF8020038B112
:102DA000A0F13003DBB2092BE4D9012000E00020C0
:102DB00001280BD06AB11EF8020078B9012D08BFB6
:102DC000002C0FD300230B60012005E000230B60D3
:102DD00002E000230B600120BDE8F08100230B60BE
:102DE0000120F9E70C60F7E730B587B004460D46DF
:102DF000FDF7F8F90F2802D9012007B030BD1022E5
:102E0000214602A815F046FE002402A801E0013484
:102E1000E4B2032C0BD801AA074915F0E8FE40B133
:102E20002919FFF71DFF0028F1D00120E5E7002058
:102E3000E3E70120E1E700BFC0B2010830B587B089
:102E400004460D46FDF7CEF90F2802D9012007B040
:102E500030BD1022214602A815F01CFE002402A855
:102E600001E00134E4B2032C0BD801AA074915F0A4
:102E7000BEFE40B12919FFF7F3FE0028F1D0012072
:102E8000E5E70020E3E70120E1E700BFC0B2010869
:102E900030B587B004460D46FDF7A4F90F2802D9D6
:102EA000012007B030BD1022214602A815F0F2FD26
:102EB000002402A801E00134E4B2032C0BD801AADB
:102EC000074915F094FE40B12919FFF7C9FE002803
:102ED000F1D00120E5E70020E3E70120E1E700BFB2
:102EE000C0B2010870B586B004460E461546FDF71F
:102EF00079F9132802D9012006B070BD14222146A9
:102F000001A815F0C7FD002401A801E00134E4B2D6
:102F1000052C0BD86A46294615F069FE40B13119D7
:102F2000FFF7D1FE0028F1D00120E5E70020E3E71C
:102F30000120E1E710B5044603F046FFA04201D3AB
:102F4000001B10BD001B0138FBE700002DE9F04F0E
:102F500087B082460F4691469846DDF840B0002380
:102F60001E4605931A461021184803F0FAFB3D4609
:102F700003E00136F6B2022E1FD807EB08039D428C
:102F80001BD205F03F02EB1BA8EB030411194029EB
:102F900001D9C2F14004A4B2CDF808B001944B4469
:102FA000009310232A465146094806F08BFE0590EF
:102FB0000028DED12544ADB2DDE70122102103480F
:102FC00003F0CFFB059807B0BDE8F08F0004024086
:102FD000381201202DE9F04F87B082460F46914606
:102FE0009846DDF840B000231E4605931A4610218E
:102FF0001A4803F0B6FB3D4611E0A4B2CDF808B084
:1030000001944B44009310232A465146144806F07D
:10301000A7FD059090B10136F6B2022E14D807EB49
:1030200008039D4210D205F03F02EB1BA8EB0304FE
:1030300011194029E1D9C2F14004DEE7062009F068
:103040001AFF2544ADB2E8E701221021034803F03E
:1030500088FB059807B0BDE8F08F00BF0004024070
:103060003812012030B583B004460B460092024668
:103070000021A020FFF76AFF054610B92378FF2B37
:1030800001D1FFF7E1FD284603B030BD00B583B0A4
:103090000B46009202460021A020FFF79BFF03B0E1
:1030A0005DF804FB10B5044602F057F8204602F024
:1030B000E9F8FF2803D0034B33F8100010BD4FF0A0
:1030C000FF30FBE79CC1010810B5084802F058F832
:1030D00038B9064C214602F046F82046FFF7E2FFD9
:1030E00010BD0248FFF7DEFFFAE700BF7C1C00209E
:1030F00008B501221146034803F033FB04F082FBBC
:10310000FD2008BD0008024030B585B0FEF742F949
:10311000484B93F8313013F0040F02D1FE2005B074
:1031200030BD0446434811F0A9FF0022114620207B
:103130000BF0CCFE404A106000286BD03F4B02934E
:103140004FF4A97301933E4B00933E4B04223E493A
:103150000020FDF741FF384DA2B23C4928680BF032
:1031600033FF2B680A221A62002840D1384B0293A1
:1031700040F257130193324B0093324B04223249F1
:10318000FDF72AFF334B01225A70334A9179D379E4
:103190001B0443EA0163117A43EA0123517A0B438A
:1031A0001A0202F47F0242EA0162190A01F47F4125
:1031B0000A4342EA1363294A1360294A1178537873
:1031C0001B0443EA0163917843EA0123D1780B435E
:1031D0001A0202F47F0242EA0162190A01F47F41F5
:1031E0000A4342EA13631F4A1360FD2097E71E4B10
:1031F000029340F261130193114B0093114B04228F
:1032000011490020FDF7E8FE0B4B18680BF0CCFECF
:10321000FE2084E7154B02934FF4B3730193084BE0
:103220000093084B042208490020FDF7D5FEFE203C
:1032300075E700BF28130120FC0F01207CB70108AF
:1032400084B9010844B7010878B7010804EF010800
:1032500098B70108740C0020340B0120F40F0120F2
:10326000A8010020F80F0120ACB70108C4B701087D
:1032700008B5114B5B78012B08D1104B93F8313016
:1032800013F0040F15D000BFFD2013E003F09CFDE8
:10329000B0F5FA6F02D30A4B1B780BB9FE2009E098
:1032A000084B186809F0B0FF054A1378013B13700A
:1032B000F4E7FD2008BD00BF740C00202813012096
:1032C000AC0100203410012000B583B00B4B18680E
:1032D00009F0BDFD0A4B1B7853B9002100910B4644
:1032E0000A46062000F0CEFAFD2003B05DF804FB8C
:1032F000044B186809F088FFEFE700BF4410012075
:10330000AC010020341001202DE9F04FA9B00021BC
:103310000F91602210A814F0D1FE234B1B681BB93B
:10332000FD2029B0BDE8F08F204CA579E679277AF9
:1033300094F80980FEF73AF80B90FEF731F80C90FC
:10334000FEF73AF80D9094F8009094F801A094F8E4
:1033500002B0E478FEF71EF809900894CDF81CB08E
:10336000CDF818A0CDF814900D9B04930C9B0393FB
:103370000B9B0293CDF80480009733462A460C49F4
:103380000FA815F0D7FA0FA8FCF72CFF0446FEF79C
:103390000DF883B2074A21460FA800F03BFA024A13
:1033A0001368013B1360BBE7B0010020340B012020
:1033B000E0B70108F80F012008B5054B054A06499A
:1033C000064801F0BFFEFFF77FFE09F054FDFAE763
:1033D0009CB9010894B901088C1C00207C1C0020B9
:1033E00010B588B05A4B02936E230193594B00934A
:1033F000594B042259490020FDF7EEFD26E00392C7
:10340000574B029378230193524B0093524B042263
:1034100052490020FDF7E0FD2BE010F1020F00F013
:103420009480DDF81A404F49204615F0A1FB40B3C7
:10343000152300934C4B01220421104600F022FA80
:103440004FF47A7009F017FD03F086FC4FF0FF325D
:1034500005A9042000F057FA0028DED1DDF81A1083
:103460000029DED0BDF81820632AC8D83F4814F0E0
:10347000FDFDDDF81A000AF005F93C4BCDF81A30D5
:10348000CFE73B49204615F073FB38B1002300938A
:1034900002220421072000F0F5F9D7E7354920463C
:1034A00015F066FB48B1BDF81830009323460122A1
:1034B0000421072000F0E6F9C8E72F49204615F05F
:1034C00057FB38B10023009303220421072000F0AA
:1034D000D9F9BBE72949204615F04AFB38B100234A
:1034E000009304221146072000F0CCF9AEE72449EE
:1034F000204615F03DFB48B1BDF818300093234637
:1035000005220421072000F0BDF99FE71D49204650
:1035100015F02EFB48B1BDF8183000932346062263
:103520000421072000F0AEF990E71749204615F076
:103530001FFB00288AD0BDF81830009323460722CD
:103540000421104600F09EF980E708B010BD00BFCE
:1035500040B8010834B9010844B701083CB8010873
:103560005CB80108ACAD0108D4B90108780C0020A2
:1035700070B8010878B8010880B801088CB8010853
:1035800094B801089CB80108A4B8010830B589B006
:103590004FF0FF311A4B186809F002FE194B0293E5
:1035A000AA230193184B0093184B042218490020BA
:1035B000FDF712FD07E0BDF81810164800F0FEF800
:1035C0000A2009F058FC4FF0FF3205A9022000F054
:1035D0009AF980B9DDF81A40002CECD00D4DBDF8F9
:1035E00018202146284614F041FD20460AF04AF8EA
:1035F000CDF81A50DFE710F1020FE1D109B030BD6C
:1036000034100120B4B8010848B9010844B70108D2
:10361000ACB80108DC0C002000B589B0214B029346
:10362000CC230193204B0093204B042220490020FF
:10363000FDF7D2FC0BE01F4B0293DA2301931A4BE8
:1036400000931A4B04221C490020FDF7C5FC06A973
:103650001A4B18680BF00AFE0028F8D10DF116027B
:1036600007A906980BF0ACFB0028E4D1BDF8163092
:103670000393134B0293D42301930B4B00930B4BF7
:1036800004220D49FDF7A8FCBDF816300093079BF6
:1036900000221146042000F0F5F806980BF051FBCB
:1036A000D5E700BFD8B801085CB9010844B70108E4
:1036B000D0B8010800B901088CF50108FC0F012001
:1036C000F0B8010830B589B0204B0293EC23019388
:1036D0001F4B00931F4B04221F490020FDF77CFC69
:1036E000022404E09DF81640F4B1012C23D04FF0E1
:1036F000FF3205A9012000F006F980B9DDF81A4073
:10370000002CEFD0154DBDF818202146284614F0A6
:10371000ADFC204609F0B6FFCDF81A50E2E710F1F3
:10372000020FE1D109B030BDBDF81810DDF81A0064
:1037300000F018F8DBE741F29233094ABDF818109F
:10374000DDF81A0000F066F8D1E700BF1CB90108E7
:1037500070B9010844B7010814B90108AC1400207D
:10376000F40F0120114B5B78012B1BD170B506467D
:103770000C460BF0D9FA0E4D2860A1B20BF0F2FA0C
:103780002C6823685E600B4B1E68FDF709FE83B250
:10379000094A214630460BF05BFC28680BF0D1FA51
:1037A000002070BD4FF0FF30704700BF740C002048
:1037B000AC1C0020FC0F0120F40F0120114B5B78A2
:1037C000012B1BD170B506460C460BF0ADFA0E4D21
:1037D0002860A1B20BF0C6FA2C6823685E600B4B20
:1037E0001E68FDF7E3FD83B2094A214630460BF01F
:1037F0002FFC28680BF0A5FA002070BD4FF0FF30B9
:10380000704700BF740C0020B01C0020FC0F01208A
:10381000F40F01202DE9F0411446104A5278012A94
:1038200019D1074688461E460BF07EFA0C4D2860DB
:103830001FFA88F10BF096FA29680B685F6033462F
:103840002246084800680BF003FC28680BF079FA60
:103850000020BDE8F0814FF0FF30FAE7740C002043
:10386000B41C0020FC0F0120082807D800EB8000C2
:10387000034B03EB4000D0F8060070470020704770
:10388000B40100202DE9F04184B00D4614461E46D7
:103890000A9FFFF7E9FF80B38046ADF80450ADF80A
:1038A0000640A7B900240023ADF80A30ADF80C306B
:1038B000ADF80830404609F0C4FDB8B904B320465D
:1038C00009F0E0FE4FF0FF3004B0BDE8F08138466B
:1038D00009F05AFE04460028E5D03A46314614F075
:1038E000C5FBCDF80A40ADF80870E3E700231A469F
:1038F00001A9404609F014FDE6E76FF00500E3E793
:103900004FF0FF30E0E770B582B00C461546FFF788
:10391000ABFF58B1064609F087FD01902B46002207
:103920002146304609F03EFD02B070BD6FF0050043
:10393000FAE7000010B5044638B1A0682369626850
:1039400002FB0303E068181A10BD4FF4E27102484D
:10395000FDF728FCF1E700BFECB9010838B50C46CB
:10396000054680B1EA681119E9606B68934208D88E
:103970002A690AB1013A2A61B1FBF3F203FB121181
:10398000E960002038BD40F2EF110248FDF70AFC63
:10399000E8E700BFECB901082DE9F0418046164682
:1039A0000F4679B1FB6838680021B1420FD2C25C82
:1039B00008F8012001337C68B3FBF4F504FB1533F0
:1039C0000131F2E7AF210548FDF7ECFBEAE73146AC
:1039D0003846FFF7C3FF0020BDE8F081ECB90108CD
:1039E0002DE9F8430F4690469946044638B167B131
:1039F000B8F1000F0FD025683E787F7836E040F2AE
:103A000007112C48FDF7CEFBF1E74FF484712948EC
:103A1000FDF7C8FBECE740F209112648FDF7C2FBB1
:103A2000E9E7B9F1020F14D0002201339BB2B3FBD6
:103A3000F1F601FB16339BB2EB5C02EB032292B270
:103A4000904231D39AB321464046FFF7A5FF0020AC
:103A500028E001339BB2B3FBF1F201FB12339BB2BE
:103A6000EA5CE2E701212046FFF778FF2046FFF7F6
:103A700061FF80B2E1688BB290B1EA5CB242F1D1F1
:103A800001339BB26168B3FBF1F201FB12339BB2CD
:103A9000EA5CBA42C5D001212046FFF75FFFE5E7A7
:103AA0006FF00300BDE8F8834FF0FF30FAE74FF006
:103AB000FF30F7E7ECB9010870B50D46164604462D
:103AC00008B1002306E04FF410710D48FDF76AFBC2
:103AD000F7E70133AB4212D22268A068411CA16013
:103AE000F15C1154A16862689142F2D30020207207
:103AF0006072A072E072206901302061E9E770BD58
:103B0000ECB9010820B108B509F0BCFD002008BDE2
:103B10006FF005007047000012490A688B68C3EB1C
:103B2000032313444A68934200D1704710B50C46F2
:103B3000531C4B60023201EB82025068FFF7E2FF38
:103B40006268FE2A0CD9A3680BB1013BA360064B47
:103B5000A3FB0213DB09C3EB0323D31A014A53600F
:103B600010BD00BFC41C00208180808030B587B0AC
:103B70001C4A14689368C3EB03210C445268A41ACE
:103B800004930394184B029340F2ED230193174BD7
:103B90000093174B042217490020FDF71DFA09E096
:103BA000154BA3FB0213DB09C3EB0323D31A0D4A06
:103BB00053602C46651E94B10A4C63685A1C6260BF
:103BC000023304EB83035868FFF79CFF6268FE2A08
:103BD000EFD9A368002BE3D0013BA360E0E707B077
:103BE00030BD00BFC41C002054BA010868BB0108E6
:103BF00020BA01088CF5010881808080F8B5184D45
:103C000044F624620021284614F058FA154F42F277
:103C1000107422460021384614F050FA124E224603
:103C20000021304614F04AFA104B1D6044F6206221
:103C30005A600F480268D36843F01003D3600D4DFB
:103C40002A68D36843F01003D3602246394607F050
:103C500033F822463146284607F02EF8F8BD00BF5B
:103C6000244E0010884C0020CC200020744C0020F2
:103C7000504901209449012038B50C46054688B1C9
:103C80000B2323801048FFF755FE6B88032B13D0BE
:103C90000DD8022B04D822460C490B4801F002FA39
:103CA000002038BDEC210A48FDF77CFAE8E7042B38
:103CB000F6D1FFF731FFF3E722460449D5F80600B5
:103CC00001F0F0F9ECE700BF744C00203048002010
:103CD00020BA010810B5044601F03FFA204601F071
:103CE000D1FAFF2803D0034B33F8100010BD4FF07A
:103CF000FF30FBE79CC1010810B5042903D90A482D
:103D0000FFF7E8FF10BD0446074801F039FA012823
:103D100006D00A2CF3D80449204601F024FAEEE735
:103D2000014801F028FAF4E7F847002070B586B0A2
:103D30000024ADF816402148FDF7F2FAFFF75EFFC8
:103D40001F4B02937B2301931E4B00931E4B0422B7
:103D50001E492046FDF740F91D4B1E4A1E491F48CB
:103D600001F0F0F905244FF0FF320BE01C48847895
:103D70000DF11601FFF780FF2146BDF81600FFF791
:103D8000BBFF024616490320FFF7BDFD88B9144B5F
:103D9000D3F80640002CE9D01D46124E9A882146E1
:103DA000304614F063F9204609F06CFCC5F8066053
:103DB000DCE710F1020FDFD10624DDE730480020F8
:103DC0007CBA010820BB010820BA010874BA0108B6
:103DD000A8BB01087CBB010808480020F847002068
:103DE000B81C0020E4470020002851D02DE9F04104
:103DF00086B0044600294ED08AB20146274806F014
:103E000049FC0546002832D1254A1368591C116027
:103E1000B3F57A7F03D0002006B0BDE8F08109F049
:103E20006FFC204F204E0390204B029340F2FB1377
:103E30000193DFF88480CDF800803B4604223146B0
:103E40000020FDF7C9F8237A04950393184B0293D9
:103E50004FF4FE730193CDF800803B4604223146B7
:103E60000020FDF7B9F800200D4B1860D4E703904F
:103E7000104B029340F2012301930F4B0093094B27
:103E8000042209490020FDF7A7F84FF0FF30C3E7EF
:103E90006FF0050070476FF00500BDE79449012001
:103EA000DC47002020BA010874BA010894BA01085E
:103EB0009CBA0108C0BA010830BB0108002840D0F4
:103EC0002DE9F04186B0044600293DD08AB2014672
:103ED000204806F0DFFB0546002838D11E4A13684B
:103EE000591C1160B3F57A7F03D0002006B0BDE8FD
:103EF000F08109F005FC194F194E0390194B0293FC
:103F00004FF407730193DFF86480CDF800803B46DF
:103F1000042231460020FDF75FF8237A04950393CD
:103F2000114B029340F21D230193CDF800803B46D4
:103F3000042231460020FDF74FF80020064B1860A0
:103F4000D4E76FF0050070476FF00500CEE74FF043
:103F5000FF30CBE750490120E047002020BA01089C
:103F600074BA010894BA0108E0BA010840BB01081C
:103F7000014B1878704700BF30480020014B9878FB
:103F8000704700BF304800202DE9F84F80460D46AD
:103F900017461E460B9CFFF7EBFF8246FFF7EEFF2E
:103FA00081464FF47A720021244814F087F815B145
:103FB000B8F1000F0BD14CB30A9B002B3BD004F19E
:103FC000FF38424619461D4814F050F81FE01B4CBC
:103FD00044F22743238006F10A0B1FFA8BFBA4F857
:103FE00002B049EA0A20A080A4F806802572324671
:103FF000394604F1090014F039F80BF1FF3120467D
:1040000001F0DEF96388013BE05411E0A0460B4D5E
:104010003246394605EB080014F028F8A11989B298
:1040200069800139284601F0CBF96B88013BE854DF
:104030000248BDE8F88F4FF00008E8E78C48002000
:104040002DE9F04F83B08146884617461E460D9DE8
:10405000FFF78EFF8346FFF791FF0190324BD3F8B5
:1040600008A0BAF1000F18D170190A3009F08CFAC3
:10407000044628B1B8F1000F02D0B9F1000F10D1F9
:10408000002C47D05DB30C9B53B305F1FF3A524669
:104090001946204613F0EAFF22E0FFF767FD0024EF
:1040A00038E0272303704423437006F10A039DB2CE
:1040B0004380019B43EA0B2BA0F804B0A0F80690C4
:1040C00080F8088032463946093013F0CFFF691E68
:1040D000204601F075F96388013BE05410E0AA46E0
:1040E0003246394604EB0A0013F0C0FF3544A9B24A
:1040F00065800139204601F063F96388013BE05493
:10410000094B1A68511C1960023203EB82035C6090
:10411000FF2903D0204603B0BDE8F08F024B0022F8
:104120001A6001229A60F5E7C41C0020004870471D
:10413000304800207047000010B582B02C4B9842E8
:1041400004D02C4B98421ED002B010BD2A4A1368EE
:1041500001331360092903D9284B1B7A022B06D19E
:1041600042F210722549224806F0A6FDECE7234AE8
:104170002348FFF7A1FC00230093022203210846F5
:10418000FFF780FBECE71F4A13680133136009292E
:1041900012D91D4A1368013313601C4B1B7A822B02
:1041A00011D01A4A1648FFF787FC00230093022219
:1041B00003210846FFF766FB42F2107213490D48CF
:1041C00006F07AFDC0E711498A78CB7802EB03222A
:1041D0000F4C44F62063E250204613F047FF204680
:1041E00000F0AEFB0B4A136801331360E4E700BF35
:1041F000504901209449012004100120884C0020DE
:10420000744C00200010012028480020CC20002001
:10421000000000102C48002010B584B0044606F0C1
:10422000F3FC8DF80F0094F83D3013F0200F01D10E
:1042300004B010BD00230093042203210846FFF7B9
:1042400021FBF5E700B585B0036C0393074B0293A0
:1042500040F2C1230193064B0093064B042206490A
:104260000020FCF7B9FE05B05DF804FB04BB0108B3
:1042700050BB010820BA010874BA01080023032BBF
:1042800013D830B4047A1D46084A32F82320144269
:1042900005D101339BB2032BF4D930BC7047034BDB
:1042A00003EB85056B880B80F7E7704750C001086A
:1042B00038B50C46054668B194B10023122B15D8C9
:1042C00034F8020B020A02EB002225F8022B01331C
:1042D000DBB2F3E740F2A2510548FCF763FFEBE7DE
:1042E00040F2A3510248FCF75DFFE6E738BD00BF8E
:1042F00038BC010830B587B00C46054660B3002CC9
:1043000030D0B5F8093023802378013323706378E7
:10431000013363700023019300935B2322468121C4
:10432000FF20FFF78DFE054610B3237862780492D4
:104330000393114B029340F2B64301930F4B00934A
:104340000F4B04220F490020FCF746FE69882846DF
:10435000FFF7B4FD07B030BD40F2A6410848FCF7B6
:1043600021FFCCE740F2A7410548FCF71BFFC8E757
:104370004FF0FF30EEE700BF70BC010824C0010819
:1043800038BC010874BA010803881B0A5A1ED2B24D
:104390000F2A00D9704770B402460B49262404FB4B
:1043A00003132030166855689468D1681E605D60FC
:1043B0009C60D960103210338242F3D111681960C9
:1043C00092889A8070BC7047D079002070B50E46F4
:1043D000054690B1BDB1E6B1002495F82D36A34253
:1043E0001DD35B2000FB04500C223146033013F038
:1043F0002FFEB0B10134E4B2EFE740F22E510A488B
:10440000FCF7D0FEE6E740F22F510748FCF7CAFE62
:10441000E1E74FF4A6610448FCF7C4FEDCE70020A6
:1044200070BD4FF0FF30FBE738BC0108F0B585B038
:104430000E4615460446002843D0002C47D0002ED7
:104440004BD094F82D36112B5DD8102B4BD85A1C1D
:10445000D2B284F82D265B2303FB024237687068D2
:10446000B168C2F80370C2F80700C2F80B1094F8E4
:104470002D2603FB02F31833234405F11B020333FB
:1044800005F15B0C176856689068D1681F605E6024
:104490009860D960103210336245F3D194F82D162C
:1044A0002A785B2303FB01F3E618E2546B78737000
:1044B000AB78B37002F088FCC6F81300002005B09A
:1044C000F0BD40F24F511848FCF76CFEB5E74FF4D1
:1044D000AA611548FCF766FEB1E740F25151124857
:1044E000FCF760FEADE7114B029340F25753019386
:1044F0000F4B00930C4B04220E490020FCF76CFD7F
:104500004FF0FF30DBE7094B029340F26453019315
:10451000074B0093044B042206490020FCF75CFD86
:104520004FF0FF30CBE700BF38BC01088CBC01085E
:1045300040C0010874BA0108F0B589B00C461546B0
:10454000064648B174B131462046FFF73FFF0746A3
:1045500070B1384609B0F0BD40F20E511448FCF776
:1045600021FEEFE740F20F511148FCF71BFEEAE78E
:104570002A4631462046FFF759FF0746A8B994F866
:104580002D360693B36805937368049333680393D9
:10459000084B029340F21A530193074B0093044BCC
:1045A00004220649FCF718FDD3E74FF0FF37D0E7A8
:1045B00038BC0108ACBC010830C00108A8BC010827
:1045C00030B585B00C46054698B1C4B122466B465D
:1045D00052F8030F5168926807C32246294668467D
:1045E000FFF7AAFF8DF80F009DF80F0040B205B04D
:1045F00030BD40F2E3410548FCF7D4FDE5E740F269
:10460000E4410248FCF7CEFDE0E700BF38BC0108FA
:10461000FD20704710B584B0FFF7AAFC0446FFF7F1
:10462000ADFC114B1A68D188127A230243F00803BB
:104630001BB20B401BB293B112F0800F11D10B4B88
:1046400002934FF49E730193094B0093094B04228C
:1046500009490020FCF7C0FCFD2004B010BDFE207D
:10466000FBE7FE20F9E700BF98730020D0BC0108EB
:10467000D4BE010838BC010874BA0108FD20704797
:10468000F0B583B00E4D2B6803F109065F88FFF784
:104690006FFC0446FFF772FC2B68DB88240244F0B1
:1046A000FF04A34202D0FE2003B0F0BD00973346C2
:1046B000042203210520FFF7E5F8FD20F4E700BF01
:1046C00098730020FD207047FD20704738B5084BD7
:1046D0001D68FFF74DFC0446FFF750FCEB88A4B2C1
:1046E000B4EB132F01D1FD2038BDFE20FCE700BF45
:1046F00098730020FD207047FD207047FD20704713
:10470000FD207047FD20704710B584B0124B1B6828
:104710001C7AFFF72DFCFFF731FC032C02D0FE20A2
:1047200004B010BD0D4B02934FF4E57301930C4B95
:1047300000930C4B04220C490020FCF74DFC002395
:10474000019300935B23094A12688321FF20FFF73E
:1047500077FCFD20E4E700BF98730020E8BC010867
:10476000E8BE010838BC010874BA01085C7C00206E
:1047700010B584B0FFF7FCFB0446FFF7FFFB104BBE
:104780001B68DB88A4B2B4EB132F02D0FE2004B068
:1047900010BD0C4B029340F2E51301930A4B0093BA
:1047A0000A4B04220A490020FCF716FC0022009262
:1047B000034B1B6803210120FFF764F8FD20E6E7A7
:1047C00098730020F8BC0108FCBE010838BC010841
:1047D00074BA0108134B1B68197ADA884FF6FF7315
:1047E0009A421CD1012901D0FE20704700B585B046
:1047F0000D4B029340F2FF1301930C4B00930C4BB3
:1048000004220C490020FCF7E7FB0B4B1968054B11
:104810001868FFF76FFDFD2005B05DF804FBFE2072
:10482000704700BF987300200CBD010810BF01083D
:1048300038BC010874BA01085C7C002000B585B062
:10484000FFF796FB0E4B1968CB8880B2B0EB132FA5
:1048500003D0FE2005B05DF804FB09310948FFF7DD
:10486000AFFE094B029340F219230193074B0093CB
:10487000074B042207490020FCF7AEFBFD20E9E7C7
:1048800098730020A07300201CBD010820BF010800
:1048900038BC010874BA010830B587B00E4B1D68EA
:1048A0006988284600F0A6FD04462B7A04930390FD
:1048B0000A4B029340F22F230193094B0093094BBB
:1048C000042209490020FCF787FB14B9FD2007B03A
:1048D00030BDFE20FBE700BF9873002030BD01080B
:1048E00030BF010838BC010874BA010830B585B082
:1048F0000E4B1D68FFF73CFB0446FFF73FFBEB88C0
:10490000A4B2B4EB132F02D0FE2005B030BD084B8B
:10491000029340F247230193064B0093064B042277
:1049200006490020FCF758FBFD20EEE798730020B5
:10493000F8BC010844BF010838BC010874BA01087A
:104940002DE9F0478046744C4FF4FA62002120466E
:1049500013F0B4FB714D724B1B68284698472946EB
:104960002046FFF7A5FCB8F802A0AAF10A09002624
:10497000263437469EE000230F2B0AD805EB43026E
:10498000D1880A0A02EB012224F8022B0133DBB2A0
:10499000F2E726378EE002F017FA00F00F06002249
:1049A0000FE031440B0203F47F0303EB0163080AB9
:1049B00000F47F40034403EB116344F8043B0132ED
:1049C000D2B2072A11D805EB8203D3F806100029CA
:1049D000E7D10B0203F47F0303EB0163080A00F441
:1049E0007F40034403EB1163E7E7263762E002F000
:1049F000EBF900F00F0600220FE031440B0203F444
:104A00007F0303EB0163080A00F47F40034403EBD8
:104A1000116344F8043B0132D2B2072A11D805EBE6
:104A20008203D3F806100029E7D10B0203F47F03B9
:104A300003EB0163080A00F47F40034403EB1163B6
:104A4000E7E7263736E000230F2B0AD805EB4302B1
:104A5000D1880A0A02EB012224F8022B0133DBB2CF
:104A6000F2E7263726E000230F2B0AD805EB430296
:104A7000D1880A0A02EB012224F8022B0133DBB2AF
:104A8000F2E7263716E005EB8103D3F80630F2187B
:104A9000130203F47F0303EB0263100A00F47F4068
:104AA000034403EB126344F8043B0131C9B2072904
:104AB000E9D926374F4526D208F109053D44284655
:104AC000FFF762FC2A88130A03EB022323806A881B
:104AD000130A03EB02236380AA88130A03EB022361
:104AE000A38006342B88DBB2012B3FF444AF102B9C
:104AF0003FF451AF202B3FF47AAF022BA3D0082B09
:104B0000B1D00021D3E70AF11C010348FEF72AFEC9
:104B1000FD20BDE8F08700BF489C0010D079002040
:104B2000587C00202DE9F04F87B07C4B029340F277
:104B3000D22301937A4B00937A4B04227A490020C6
:104B4000FCF74AFA794E4FF4FA620021304613F02E
:104B5000B5FA774B1B685B88A3F10A0B4FF000088E
:104B6000CDF81080C246C1469EE000270F2F0CD81A
:104B700005EBC70004EB4703DB886E4A082130448D
:104B800013F0A4FE0137FFB2F0E78035049B2B44FD
:104B900004932E4409F126097FE002F015F900F094
:104BA0000F030027CDF81480984613E007EB470069
:104BB00005EB800004EB8703D3F8062008EB07031E
:104BC00013435D4A0C21DFF864C1604413F07EFE9C
:104BD0000137FFB2072FE9D9DDF81480BAF1030FCE
:104BE00002D80AF1010A58E009F126094FF0000A3B
:104BF00053E0002705960F2F0DD805EBC70004EBF7
:104C00004703DB884D4A0821484E304413F05EFECE
:104C10000137FFB2EFE7059EBAF1030F02D80AF1A0
:104C2000010A3AE009F126094FF0000A35E00027B1
:104C300005960F2F0DD805EBC70004EB4703DB8863
:104C40003E4A0821394E304413F040FE0137FFB28E
:104C5000EFE7059EBAF1030F02D80AF1010A1CE042
:104C600009F126094FF0000A17E007EB470005EBB2
:104C7000800004EB8703D3F806302F4A0C21DFF8BD
:104C8000ACC0604413F022FE0137FFB2072FECD90D
:104C9000BAF1030F2DD80AF1010AB8F1040F2DD093
:104CA00008F101085FFA88F8D94532D2204B1C6818
:104CB00009344C442046FFF767FB23886288A188AB
:104CC000019100921E4A2421304613F0FFFD304628
:104CD000FBF788FA05462388DBB2012B3FF445AF8A
:104CE000102B3FF45AAF022B83D0082B9FD0002704
:104CF000CCE709F126094FF0000ACEE7049B0093A8
:104D00000A4B002203210120FEF7BCFD4FF00008F2
:104D1000CAE7FD2007B0BDE8F08F00BF5CBD010809
:104D200058BF010838BC010874BA0108489C00103B
:104D30009873002094BD01089CBD0108A8BD01081E
:104D400070BD0108104B1B68DA881B7A12F0FF0F48
:104D500017D013F0800F01D1FE20704700B585B049
:104D60000A4B029340F25B330193094B0093094BCA
:104D7000042209490020FCF72FF9FD2005B05DF859
:104D800004FBFE20704700BF98730020B0BD0108EF
:104D90006CBF010838BC010874BA0108FD207047D7
:104DA000FD20704730B587B00025ADF81650124B86
:104DB0001B685B88ADF81630104B1868FEF7BAFD1B
:104DC000044603900E4B029340F2813301930D4B46
:104DD00000930D4B04220D492846FCF7FDF8092CE1
:104DE00002D8FD2007B030BD2B46009502220321DA
:104DF0000846FEF747FDF4E7987300209C730020F7
:104E0000C4BD010880BF010838BC010874BA01089C
:104E1000FD207047FD20704710B584B00F4B1C6813
:104E2000638803930E4B02934FF46A7301930D4B07
:104E300000930D4B04220D490020FCF7CDF8638848
:104E400000200190009022460146FFF79DF810B126
:104E50006188FEF7C9FFFD2004B010BD98730020E3
:104E6000E8BD010890BF010838BC010874BA010808
:104E700010B584B00F4B1C68638803930E4B0293EC
:104E800040F2BB3301930D4B00930D4B04220D49AF
:104E90000020FCF7A1F863880020019000902246D2
:104EA0000146FFF771F810B16188FFF707F8FD20A0
:104EB00004B010BD9873002004BE0108A0BF010813
:104EC00038BC010874BA010830B585B00D4B1C68B8
:104ED000658803950C4B029340F2CE3301930B4B44
:104EE00000930B4B04220B490020FCF775F800954A
:104EF0002346032211460520FEF7C4FCFD2005B021
:104F000030BD00BF9873002020BE0108B0BF01086B
:104F100038BC010874BA010800B585B0FFF728F85D
:104F2000FFF72CF80C4B1B6893F90830002B10DBB3
:104F30000A4B02934FF47B730193094B0093094B87
:104F4000042209490020FCF747F8FD2005B05DF870
:104F500004FBFE20FAE700BF9873002044BE01085E
:104F6000C8BF010838BC010874BA0108FD207047A9
:104F70000D4B1B6893F90830002B01DBFE207047B6
:104F800000B585B0094B02934FF482630193084B3F
:104F90000093084B042208490020FCF71DF8FD206F
:104FA00005B05DF804FB00BF9873002058BE0108EF
:104FB000DCBF010838BC010874BA0108FD20704745
:104FC00000B583B0064B1B685A8800920933022251
:104FD00003210520FEF756FCFD2003B05DF804FB1D
:104FE00098730020054B1A68537A012B03D9013BB3
:104FF0005372FD207047FE20704700BF9873002059
:1050000010B586B00023019300935B23104A126809
:1050100001214FF6FF70FFF713F8A8B10446037A99
:10502000C288049203930B4B029340F24F430193C7
:10503000094B0093094B042209490020FBF7CCFFE0
:1050400061882046FEF7D0FEFD2006B010BD00BFEF
:105050005C7C00206CBE0108F0BF010838BC010870
:1050600074BA010810B584B004460390084B02934B
:105070004FF48C630193074B0093074B04220749BD
:105080000020FBF7A9FF064B1C6004B010BD00BF59
:1050900098BE010800C0010838BC0108F0AA010848
:1050A000587C002070B588B00D46144644F2274362
:1050B000ADF81C30144B18600223144A07A9FEF700
:1050C0008FFC30B1124B00221A600B23238008B0F2
:1050D00070BD0F4E0D4830600E4B1D602146FFF72E
:1050E000CDF823883268127A049203930A4B029314
:1050F00040F279430193094B0093094B042209497B
:105100000020FBF769FFE2E79C73002018A4001061
:10511000987300205C7C0020B0BE010814C0010818
:1051200038BC010874BA010800487047D0790020E3
:1051300000487047A0730020014B93F82D0670477C
:10514000A073002030B4044600202070FF25657055
:105150006160A260E36030BC70474378FF2B01D0F0
:1051600001230370704701230B7000224A704B68C3
:1051700018809A70704700230370FF2343707047B4
:105180004378FF2B01D001207047002070472DE9A4
:10519000F8430546002707704078FF2870D06C68F8
:1051A00004EB80044FF00108FF2023E06B7801330B
:1051B0006B70C7F30E0324F8043F0023A370012E85
:1051C00010D1AB68228853F82220A37803EB430365
:1051D00002EB430932F8137032F91330002BE5DB90
:1051E0000026ECE7EB6853F827309847FF2806D1F4
:1051F000FE20B046B8F1010F42D14646DFE7FD2858
:1052000005D099F8041099F80500C44625E099F8EE
:10521000021099F80300F8E76B7823B9FF226A704F
:105220009C46984619E0013B6B70AB6834F8041D4E
:1052300053F82110A37803EB430301EB43097F2AC2
:1052400004D099F8041099F8050006E099F80210C6
:1052500099F8030001E0C446B046B8F1010F0DD142
:1052600001F07F02A2F17E03DBB2012BD4D9A27040
:1052700011F0800FEFD1B446B046EEE76646B8E7CE
:10528000BDE8F88308B50378012B01D0FF2008BDE5
:10529000FFF77DFFFBE7002845D0F0B40446002966
:1052A00043D012F0010F42D1002303E0002500F8A3
:1052B000015B0133B3EB520FF8D3520096B20127D2
:1052C0000020054607E052B223781A43227020E0FE
:1052D000013401270135AE4222D94B5DA3F13002E2
:1052E000D2B2362A1CD8A3F13A0C5FFA8CFCBCF17E
:1052F000060F15D9A3F1470C5FFA8CFCBCF1190F0E
:105300000ED90130392BDED9373B5BB222781343FB
:105310002370002FDCD023781B0123700027D9E7EE
:105320004008F0BC7047002070470020F9E70020DB
:10533000F7E7000000000000C8B32DE9F84F0E4663
:10534000824689B300250570541E2F4621E0A0F146
:10535000300B2846FBF7F6F841EC110B9FED160BCE
:1053600014F0F6F959EC108B5846FBF7EBF842466F
:105370004B46FBF751F9804689463846FBF7D2F891
:1053800042464B46FAF792FFFBF7F6FB0746013C15
:105390000135002C06DB305DA0F13003DBB2092BB8
:1053A000F5D8D4E78AF800700020BDE8F88F002017
:1053B000704700BFAFF300800000000000002440F1
:1053C00038B50D46044658B10020691E6DB123461C
:1053D00013F8012B42400548805C0D461C46F4E75B
:1053E000C9210348FBF7DEFEEEE738BDE4C1010842
:1053F000A8C1010838B50D46044610B1A5B1002179
:105400000CE0DC210B48FBF7CDFEF7E7234613F851
:10541000012B4A400849895C05461C46681E002D40
:10542000F4D121B9002038BD4FF0FF30FBE74FF039
:10543000FF30F8E7A8C10108E4C1010830B595B014
:105440003022002108A812F039FE002403940494AD
:1054500005940694079401941D4B1A6C42F08052F7
:105460001A641B6C03F080530193019B0294194B47
:105470001A6842F480421A601B6803F48043029366
:10548000029B0D2308934FF48033099301230A9361
:105490000D9302250E954FF480030F930423109370
:1054A000A82211921295139308A800F0CFFB0F23A6
:1054B0000393049505944FF4A05306934FF480533F
:1054C0000793052103A800F023FE15B030BD00BFEF
:1054D000003802400070004008B501F04FFCFFF7B3
:1054E000ADFF1B4BDA6842F00102DA609A6842F4C1
:1054F00080529A6001F0A2FC01F082FD02F066F990
:1055000001F08EFF01F0BEFF01F0DAFF03F004F8B6
:1055100003F01EF803F036F802F0F4FC02F0CEFDC2
:1055200002F00AFE02F048FE02F07EFE02F0B4FE37
:1055300002F0DAFE02F000FF02F052FDFBF776FE09
:1055400007F0E0FB01F0CEFD07F0EEFBFEE700BF49
:10555000002004E008B50268034B9A4200D008BD61
:1055600001F026FCFBE700BF0000014070477047D8
:10557000FEE7FEE7FEE7FEE77047000008B50248D9
:1055800001F0A8FA08BD00BF8C12012008B502483E
:1055900001F0A0FA08BD00BF2C47012008B5024861
:1055A00001F098FA08BD00BF7811012008B5024843
:1055B00001F090FA08BD00BFD047012008B50248AD
:1055C00001F088FA08BD00BFC410012008B50248E8
:1055D00001F080FA08BD00BFD811012008B50248CB
:1055E00000F014F908BD00BFD849012008B50248F1
:1055F00000F00CF908BD00BF3C46012008B5024888
:1056000000F004F908BD00BFAC45012008B5024810
:1056100000F0FCF808BD00BF1C45012008B5024899
:1056200005F05AF908BD00BF5049012008B50248ED
:1056300005F052F908BD00BF8C47012008B50248AB
:1056400000F0E4F808BD00BFD444012008B50248CA
:1056500000F0DCF808BD00BF6445012008B5024831
:1056600000F0D4F808BD00BFF445012008B5024899
:1056700000F0CCF808BD00BF8446012008B5024800
:1056800001F028FA08BD00BFCC46012008B5024849
:1056900001F020FA08BD00BFF048012008B502481B
:1056A00003F0C0FB08BD00BF442C012008B5024830
:1056B00001F010FA08BD00BF9048012008B502486B
:1056C00001F008FA08BD00BF3048012008B50248C3
:1056D00005F002F908BD00BF9449012000B583B070
:1056E000002200920D4B596C41F480415964596C71
:1056F00001F48041009100990192196C41F08051B0
:1057000019641B6C03F080530193019B0F216FF010
:10571000010001F0DFFA03B05DF804FB003802403D
:1057200030B4036A056A25F001050562846924F036
:10573000F00444EA021423F00A030B438461036279
:1057400030BC704730B4056A25F0100505628469E5
:10575000036A24F4704444EA023423F0A00343EAC9
:1057600001138461036230BC7047836823F07003C7
:105770000B4343F0070383607047000090F83D300F
:10578000DBB2012B37D1022380F83D300268D368A9
:1057900043F00103D3600368194A934220D0B3F168
:1057A000804F1DD0A2F57C42934219D002F5806251
:1057B000934215D002F58062934211D002F57842EF
:1057C00093420DD002F57052934209D0A2F5943263
:1057D000934205D01A6842F001021A600020704717
:1057E0009A6802F00702062A07D01A6842F00102FE
:1057F0001A6000207047012070470020704700BFEA
:1058000000000140704770477047704710B504466C
:1058100003681A6912F0020F11D0DA6812F0020F51
:105820000DD06FF002021A610123037703689B69B0
:1058300013F0030F70D0FFF7E6FF002323772368F0
:105840001A6912F0040F12D0DA6812F0040F0ED0A9
:105850006FF004021A610223237723689B6913F413
:10586000407F5FD02046FFF7CEFF002323772368D9
:105870001A6912F0080F12D0DA6812F0080F0ED071
:105880006FF008021A61042323772368DB6913F0A1
:10589000030F4ED02046FFF7B6FF0023237723687F
:1058A0001A6912F0100F12D0DA6812F0100F0ED031
:1058B0006FF010021A61082323772368DB6913F461
:1058C000407F3DD02046FFF79EFF002323772368CB
:1058D0001A6912F0010F03D0DA6812F0010F36D105
:1058E00023681A6912F0800F03D0DA6812F0800F73
:1058F00034D123681A6912F0400F03D0DA6812F02D
:10590000400F32D123681A6912F0200F03D0DA68F1
:1059100012F0200F30D110BDFFF774FF2046FFF7C3
:1059200073FF8AE72046FFF76DFF2046FFF76CFF05
:105930009BE72046FFF766FF2046FFF765FFACE7D1
:105940002046FFF75FFF2046FFF75EFFBDE76FF0E1
:1059500001021A612046FFF7FDFDC1E76FF08002EA
:105960001A61204600F071F9C3E76FF040021A6136
:105970002046FFF74AFFC5E76FF020021A61204674
:1059800000F062F9C7E700000368304A904212D085
:10599000B0F1804F0FD0A2F57C4290420BD002F5BF
:1059A0008062904207D002F58062904203D002F5F7
:1059B0007842904203D123F070034A681343234A8C
:1059C00090422AD0B0F1804F27D0A2F57C4290427D
:1059D00023D002F5806290421FD002F5806290428F
:1059E0001BD002F57842904217D002F570529042D7
:1059F00013D002F5806290420FD002F5806290428F
:105A00000BD0A2F59832904207D002F58062904206
:105A100003D002F58062904203D123F44073CA6838
:105A2000134323F080034A69134303608B68C36206
:105A30000B688362054B984203D003F5806398425C
:105A400001D10B69036301234361704700000140EA
:105A500040B310B5044690F83D30F3B1022384F80A
:105A60003D30214651F8040BFFF78EFF012384F8E7
:105A7000463084F83E3084F83F3084F8403084F873
:105A8000413084F8423084F8433084F8443084F85C
:105A9000453084F83D30002010BD80F83C3002F0E5
:105AA00085FCDBE70120704710B4846824F47F4450
:105AB00042EA03220A43224382605DF8044B7047A6
:105AC00090F83C30012B78D010B50446012380F8C3
:105AD0003C30022380F83D300268936823F47F4312
