:020000040802F0
:1000000000000220298003080D90020811900208C8
:10001000259002082790020829900208000000009D
:1000200000000000000000000000000081D902086C
:100030002B9002080000000021DA020885DA02088D
:1000400079800308798003087980030879800308A0
:1000500079800308798003082D9002083790020800
:10006000419002084B9002085590020879800308DD
:100070007980030879800308798003087980030870
:100080006190020871900208798003087980030862
:100090007980030879800308798003088D9002082D
:1000A00079800308A9900208798003087980030801
:1000B000B9900208C9900208D99002087980030813
:1000C0007980030879800308798003087980030820
:1000D0007980030879800308E99002087980030891
:1000E0007980030879800308798003087980030800
:1000F0007980030879800308419102087980030818
:1001000079800308798003085191020879800308F7
:1001100079800308798003086191020871910208CF
:1001200079800308798003087980030879800308BF
:100130007980030881910208798003087980030897
:10014000798003087980030879800308798003089F
:10015000798003087980030879800308798003088F
:10016000798003087980030879800308798003087F
:100170007980030879800308798003080000000073
:0801800079800308798003086F
:1001C0000348044B834202D0034B03B118477047E6
:1001D000180300201803002000000000054806490D
:1001E0000B1AD90F01EBA301491002D0034B03B145
:1001F0001847704718030020180300200000000073
:1002000010B5064C237843B9FFF7DAFF044B13B15E
:100210000448AFF300800123237010BD18030020B1
:10022000000000007C80030808B5044B1BB10449A2
:100230000448AFF30080BDE80840CFE700000000AD
:100240001C0300207C8003080CB400B583B004AB11
:1002500053F8042B019300F035FB03B05DF804EB79
:1002600002B070470EB410B583B005AB064C53F81E
:10027000042B01930146206800F024FB03B0BDE885
:10028000104003B0704700BF0000002070B50D4E55
:100290000D4D761BB61006D00024013455F8043BF2
:1002A0009847A642F9D1094E094D761B17F0E6FE94
:1002B000B61006D00024013455F8043B9847A642F6
:1002C000F9D170BD04FA030804FA030808FA030818
:1002D00004FA030870B50C46B1F90E10002996B067
:1002E00016461D4613DB6A4601F0E8FE00280EDBC9
:1002F000019A02F47042A2F50052B2FA82F2520957
:100300004FF4806300202A60336016B070BDA3896B
:1003100000221B062A6004D540230020336016B05B
:1003200070BD4FF480630020336016B070BD00BF15
:100330008A8992070B4606D501F1470201211A600E
:10034000C3E90421704770B582B001AB6A460C4620
:100350000646FFF7BFFF00990546304600F00AFA4F
:10036000B4F90C3070B11649B162019A009920605D
:1003700043F08003A381C4E904018AB92B43A3811C
:1003800002B070BD9A05FBD423F0030304F14702C9
:1003900043F002030121A3812260C4E90421EFE7B5
:1003A0003046B4F90E1002F071F810B9B4F90C30FF
:1003B000E4E7A38923F0030343F001031BB2DDE765
:1003C000B11E0208032A70B412D940EA0105AD0734
:1003D00004460B4620D11946204653F8045B54F8D6
:1003E000046BAE4218D1043A032A20461946F2D8CB
:1003F000541E72B103780A789A4208BF241806D0B6
:100400000CE010F8013F11F8012F934206D1A042F1
:10041000F7D1002070BC7047541EEBE7981A70BCEF
:10042000704700BF844641EA000313F003036DD117
:10043000403A41D351F8043B40F8043B51F8043BA7
:1004400040F8043B51F8043B40F8043B51F8043BAE
:1004500040F8043B51F8043B40F8043B51F8043B9E
:1004600040F8043B51F8043B40F8043B51F8043B8E
:1004700040F8043B51F8043B40F8043B51F8043B7E
:1004800040F8043B51F8043B40F8043B51F8043B6E
:1004900040F8043B51F8043B40F8043B51F8043B5E
:1004A00040F8043B51F8043B40F8043B51F8043B4E
:1004B00040F8043B403ABDD2303211D351F8043BEE
:1004C00040F8043B51F8043B40F8043B51F8043B2E
:1004D00040F8043B51F8043B40F8043B103AEDD29D
:1004E0000C3205D351F8043B40F8043B043AF9D2EE
:1004F000043208D0D2071CBF11F8013B00F8013BC1
:1005000001D30B8803806046704700BF082A13D3CD
:100510008B078DD010F003038AD0C3F10403D21AE5
:10052000DB071CBF11F8013B00F8013B80D331F819
:10053000023B20F8023B7BE7043AD9D3013A11F899
:10054000013B00F8013BF9D20B7803704B78437004
:100550008B788370604670478842F0B40DD98B1851
:1005600083420AD9841832B1224613F8014D02F8A9
:10057000014D9942F9D1F0BC70470F2A0ED80346BD
:10058000541E002AF7D001340C44013B11F8012B12
:1005900003F8012FA142F9D1F0BC704740EA0103F2
:1005A0009B073BD1A2F110073F0901F1200606EBA2
:1005B000071601F1100300F1100453F8105C44F821
:1005C000105C53F80C5C44F80C5C53F8085C44F87D
:1005D000085C53F8045C44F8045C1033B34204F143
:1005E0001004EAD17B1C1B0112F00C0F194402F01D
:1005F0000F05034415D0043DAD0803EB850C1C1F0B
:100600000E4656F8047B44F8047F6445F9D1013561
:10061000AD002B44294402F00302B1E7541E034607
:10062000B1E72A46ACE700BFF0B4860746D0541EB7
:10063000002A3CD0CAB2034602E014F1FF3436D39C
:1006400003F8012B9D07F8D1032C29D9CDB245EA37
:1006500005250F2C45EA054533D9A4F110063609C6
:1006600003F1200707EB061703F1100242E90455D6
:1006700042E902551032BA42F8D1721C14F00C0F44
:1006800003EB021204F00F0613D0331F23F0030311
:100690000433134442F8045B9342FBD106F0030495
:1006A0002CB1C9B21C4403F8011B9C42FBD1F0BC25
:1006B000704734461346002CF3D1F8E7144603463E
:1006C000C2E71A462646E0E700293CD038B551F883
:1006D000043C0C1F002BB8BFE418054601F060FF76
:1006E000234B1A682AB1A2420DD9216860188242B0
:1006F00023D0626028461C60BDE8384001F052BF3C
:10070000A34203D81A465368002BF9D11168501838
:10071000A04219D024D821686018834206D06360B3
:1007200054602846BDE8384001F03CBFD3E90003DF
:100730000144636021605460F3E7D2E900020144A0
:1007400062602160D6E770472068014450188342F8
:100750001160E6D1D3E90003014453601160E0E782
:100760000C232B602846BDE8384001F01BBF00BFBA
:1007700034030020F8B5CD1C25F0030508350C2DF9
:1007800038BF0C25002D064633DBA94231D82A4F4D
:1007900001F006FF3A6852B113685B1B04D43FE0D6
:1007A00023685B1B29D522465468002CF8D1796850
:1007B00000293BD02946304600F082FC431C28D05B
:1007C000C41C24F00304A04205D0211A304600F0D6
:1007D00077FC01301DD02560304601F0E3FE04F1C6
:1007E0000B0020F00700231DC21A01D01B1AA350D2
:1007F000F8BD0C2232600020F8BD0B2B05D8A242B8
:10080000636811D05360E7E7144623601C442560F9
:10081000E2E70C233046336001F0C4FE0020F8BD4F
:100820000B2BF1D8536814463B60D5E7304600F0F7
:1008300047FC7860BEE700BF340300209368013BAB
:10084000002B936011DA10B49469A34209DB0A29E2
:1008500007D01368581C1060197008465DF8044BE7
:1008600070475DF8044B01F01DB91368581C106007
:1008700019700846704700BF9BB1F8B513440F4686
:1008800006465D1E541E01E0AC4208D03A4614F8FC
:10089000011F3046FFF7D2FF431CF5D1F8BD002001
:1008A000F8BD0020704700BF936810B5144613B917
:1008B0005360184610BD01F015FC0023C4E9013354
:1008C00010BD00BF2DE9F04F9FB08B4690461C46EF
:1008D000039018B18369002B00F0B780A24B9B45B1
:1008E00000F0B980A14B9B4500F0C780A04B9B4511
:1008F00004BF039BD3F80CB0BBF80C30180740F1D1
:10090000B280DBF81030002B00F0AD8030238DF882
:10091000323098F800300594002120220B918DF898
:100920003120944E0127002B00F08780252B00F00A
:100930001581454603E0252B00F0A38025466B7802
:100940006C1C002BF7D1B4EB080A76D04246534614
:1009500059460398FFF790FF01306ED00B9B6A78E1
:1009600053440B93002A68D000234FF0FF32013428
:100970000693CDE908338DF85B301C93079205E0B0
:10098000069A07FA03F313432C46069325460522DD
:1009900015F8011B304601F0B3FDAA46831B002861
:1009A000EED1069BD90644BF20228DF85B2021782A
:1009B0001A0744BF2B228DF85B202A2966D1059A9D
:1009C0001168043200290592C0F29D800991617876
:1009D000A51C2E2973D0684C0322204601F090FDFF
:1009E000002800F08680001B069B402404FA00F0DB
:1009F0000343069305F10108297860488DF830100B
:100A0000062201F07DFD002800F083805C4B002B66
:100A100072D005AB00935A465A4B039806A9AFF320
:100A200000808146B9F1FF3F07D00B9B4B440B93ED
:100A300098F80030002B7FF479AFBBF80C305B06E0
:100A400018D40B981FB0BDE8F08F01F017FB464B90
:100A50009B457FF447AF039BD3F804B0BBF80C3041
:100A600018073FF54EAF5946039801F091F800285A
:100A70003FF44CAF4FF0FF30E4E7039BD3F808B0EE
:100A80003AE7B4EB080A3FF46FAF5FE7A1F1300239
:100A9000092A88BFA2469CD8099B01E02C46013553
:100AA000297803EB830302EB4303A1F13002092A07
:100AB000AA46F3D92E2904F1020509938BD19AF89D
:100AC00001102A292FD1059B9AF802101A68079263
:100AD0000433002A05930AF103050AF1020338DB07
:100AE000254C032220469A4601F00AFD00287FF497
:100AF0007AAFA84655467FE7059B073323F00703E7
:100B00000833059391E7494243F0020309910693A4
:100B10005DE705AB00935A461A4B039806A900F00F
:100B2000D5F881467EE7A1F130020023092A079318
:100B300001D915E05546697803EB830302EB4303C3
:100B4000A1F13002092A05F1010AF3D90235079310
:100B500041E74FF0FF329A4607923CE7444603E7ED
:100B6000AA46013537E700BF948203087482030860
:100B70005482030834F903083CF9030840F90308D8
:100B8000000000007908020810B4044C13460A461D
:100B9000014620685DF8044BFFF794BE000000207A
:100BA0002DE9F0470C4691460A698968DDF82080F6
:100BB0008A42B8BF0A46C9F8002094F84310064696
:100BC0001F4611B10132C9F80020236899065CD58F
:100BD000D9F800200232C9F80020236813F0060F6C
:100BE00019461DD1E1688A1A002AD8BF194617DDB7
:100BF00004F1190A002505E0E368D9F800209B1AE2
:100C0000AB420CDD0123524639463046C047013025
:100C100005F10105F0D14FF0FF30BDE8F087216804
:100C200094F84330003318BF01238A060AD5E1182F
:100C30005A1C302081F84300224494F8451082F871
:100C40004310023304F1430239463046C0470130B5
:100C5000E1D02368A268216903F00603042B1DD0AC
:100C60008A4226DD4FF00009521A91441A340025B9
:100C700001E04D451DDA0123224639463046C04782
:100C8000013005F10105F4D1C5E713F0060F13D0CB
:100C900094F84330003318BF0123D3E7D9F800009C
:100CA000E3688A42A3EB000323EAE379DCDC002B50
:100CB000DCDC0020BDE8F087E168D9F800208A1A62
:100CC000002AD8BF194693DCAAE700BF2DE9F043FC
:100CD0000C46097E85B06E29064617460C98984644
:100CE00004F1430E6DD039D9732900F0F68044D950
:100CF000752900F00481782940F011817823226859
:100D0000DFF858C284F845300168150651F8043BF5
:100D1000016040F1A180D10744BF42F0200222606F
:100D2000002B00F093801022002184F843106068AB
:100D3000A0600028C0F2C880216821F00401216071
:100D4000002B40F0A380002840F0C0807546082AA0
:100D500000F0AC80AEEB0503236141E0632900F0B5
:100D6000E5801AD8002938D0582940F0D88084F876
:100D700045102268DFF8E8C1C6E76F2900F0BF80A0
:100D8000702940F0CC802268DFF8D0C142F0200208
:100D90007823226084F84530B6E7642902D06929B7
:100DA00040F0BD8022680368110603F1040557D5A1
:100DB000196805600B46002959DBDFF8A4C10A2237
:100DC000B5E70368226861691D1D056015061B688B
:100DD00002D4500600F1BD801960002375462361DE
:100DE000CDF800803B4603AA21463046FFF7D8FEE7
:100DF000013020D02A46236939463046C0470130A9
:100E000019D022680398E368920719D51A1A002AA4
:100E100016DD04F11909002504E0E36803981A1AA5
:100E2000AA420DDD01234A4639463046C04701300B
:100E300005F10105F1D14FF0FF3005B0BDE8F083B9
:100E40009842B8BF184605B0BDE8F083226822F08A
:100E500020022260102267E7500648BF9BB25AE783
:100E60005106A5D5B3F9003005601946A3E76168BE
:100E7000A1602D200029C3F1000384F8430002DBA8
:100E800022F004022260DFF8D8C00A22754600E092
:100E90000B46B3FBF2F102FB113093421CF8000049
:100EA00005F8010DF4D2082A7FF454AF2368DB075C
:100EB0007FF550AF626823699A423FF74BAF30230A
:100EC00005F8013C013D45E7002BDFD19CF80030DF
:100ED00084F8423004F1420539E703686268191D5D
:100EE00001601D680021284601F00AFB002832D06D
:100EF000401B60602061002384F8433070E7226863
:100F0000036812F0800F03F104051AD01B68056016
:100F10006F290CBF08220A22DFF844C004E701232E
:100F200084F84210236104F14205E4E703681A687B
:100F3000191D0123016004F1420584F84220236158
:100F4000D9E712F0400F0DBF1B6805601B880560D4
:100F5000DEE7198041E76068CCE700BF5CF9030871
:100F600048F903080EB410B5044683B008B183698C
:100F700063B106A803460190059AA1682046FFF7D1
:100F8000A1FC03B0BDE8104003B0704701F076F853
:100F9000EFE700BF0FB410B50B4B1C6882B00CB16B
:100FA000A36963B105A803460190049AA16820468D
:100FB000FFF788FC02B0BDE8104004B0704720463F
:100FC00001F05CF8EEE700BF0000002038B5124BDE
:100FD0001C68A26B05461AB10023C2E9045338BD50
:100FE000182001F07BFA0246A06378B101200021AD
:100FF0000A4B1360C2E904010B2309480949938194
:101000000023C2E90101C2E9045338BD064B074879
:10101000422100F03DFE00BF000000200E33CDABAA
:1010200034126DE6ECDE050070F9030888F9030858
:1010300038B51A4B1C68A26B92B1146918495369F0
:10104000184801FB04F100FB0313A4FB0045611CDD
:101050001D4445F1000323F00040C2E9041338BDEC
:10106000182001F03BFA0246A06388B1012000215C
:10107000C2E904010A480C4C0C4B0D490D4D14609B
:1010800053600B24034695609481C2E9041338BD74
:10109000094B0A484E2100F0FBFD00BF0000002074
:1010A0002DF451582D7F954C0E33CDAB34126DE697
:1010B0002E7F954CECDE050070F9030888F90308D3
:1010C00038B5074C002305460846236001F0E6FDCD
:1010D000431C00D038BD2368002BFBD02B6038BDEB
:1010E000EC9401200CB470B59CB020AC0B4E54F8BD
:1010F000042B0291234606916FF0004502A901944A
:101100000795CDE9045601F051FB029B00221A70AD
:101110001CB0BDE8704002B0704700BF0802FFFF7E
:101120000EB430B59CB01FAB0C4C0D4D53F8042BD6
:101130000193014602910691206802A96FF00044D4
:101140000794CDE9044501F031FB029B00221A709F
:101150001CB0BDE8304003B0704700BF0000002065
:101160000802FFFF10B50C46B1F90E1001F058FC53
:10117000002803DB636D0344636510BDA38923F47A
:101180008053A38110BD00BF002070472DE9F041BE
:101190001646B1F90C201F46D3050C460546B1F999
:1011A0000E1009D422F48052A2813B4632462846D2
:1011B000BDE8F04100F0D6BC0022022301F078F92E
:1011C000B4F90C20B4F90E10ECE700BF10B50C46D2
:1011D000B1F90E1001F06CF9A389421C0EBF23F483
:1011E000805343F480536065A38110BDB1F90E10A4
:1011F00000F072BDC9B200F00303002935D07BB105
:101200000378002B57D0994252D0431C05E013F8C5
:10121000012B002A4DD08A424AD09A071846F6D1AF
:1012200070B441EA0126046846EA064601E050F837
:10123000044F86EA0405A5F10132A4F1013322EA44
:10124000050223EA0403134313F0803FEFD0037831
:1012500043B1994202D106E08B4204D010F8013F1D
:10126000002BF9D1184670BC70474BB10378FBB125
:10127000431C02E002780133D2B199071846F9D134
:101280000268A2F1013323EA020313F0803F08D180
:1012900050F8042FA2F1013323EA020313F0803F38
:1012A000F6D0037823B110F8013F002BFBD1704733
:1012B0007047104670471846704700BF80EA010229
:1012C000844612F0030F4FD111F0030F32D14DF8C5
:1012D000044D11F0040F51F8043B0BD0A3F101327F
:1012E0009A4312F0803F04BF4CF8043B51F8043B92
:1012F00016D100BF51F8044BA3F101329A4312F00A
:10130000803FA4F101320BD14CF8043BA24312F010
:10131000803F04BF51F8043B4CF8044BEAD023460D
:101320000CF8013B13F0FF0F4FEA3323F8D15DF8BF
:10133000044B704711F0010F06D011F8012B0CF887
:10134000012B002A08BF704711F0020FBFD031F8FF
:10135000022B12F0FF0F16BF2CF8022B8CF8002086
:1013600012F47F4FB3D1704711F8012B0CF8012B09
:10137000002AF9D1704700BF9AB1012A19D070B480
:101380000B46054601E0E04217D013F8016B05F863
:10139000016BEC431444002EF5D1581A013870BC8F
:1013A00070470B4613F8012B002AFBD1581A01385D
:1013B000704700220B460270F4E700222A7013F8EF
:1013C000012B002AFBD1581A013870BC704700BFAE
:1013D000000000000000000000000000000000000D
:1013E00000000000000000000000000000000000FD
:1013F00000000000000000000000000000000000ED
:1014000090F800F06DE9024520F007016FF0000C44
:1014100010F0070491F820F040F049804FF00004EC
:101420006FF00700D1E9002391F840F000F10800C7
:1014300082FA4CF2A4FA8CF283FA4CF3A2FA8CF3FF
:101440004BBBD1E9022382FA4CF200F10800A4FA66
:101450008CF283FA4CF3A2FA8CF3E3B9D1E90423BA
:1014600082FA4CF200F10800A4FA8CF283FA4CF3F1
:10147000A2FA8CF37BB9D1E9062301F1200182FAAB
:101480004CF200F10800A4FA8CF283FA4CF3A2FAB1
:101490008CF3002BC6D0002A04BF04301A4612BABF
:1014A000B2FA82F2FDE8024500EBD2007047D1E9C2
:1014B000002304F00305C4F100004FEAC50514F051
:1014C000040F91F840F00CFA05F562EA05021CBF22
:1014D00063EA050362464FF00004A9E7830730B4CE
:1014E00027D10468A4F1013323EA040313F0803FF9
:1014F000034608D153F8045FA5F1013424EA05043A
:1015000014F0803FF6D01C781CB113F8014F002C6A
:10151000FBD101399D189D4202F1FF3207D011F82D
:10152000014F03F8014B14B1002AF4D11A7030BCFA
:1015300070470346E7E700BF002A46D040EA0103B0
:1015400013F00303F0B425D1032A23D904680D68EE
:10155000AC423CD1043A35D0A4F1013525EA04046B
:1015600014F0803F2ED1071D0D1D0DE057F8043BF0
:101570000E68A3F10134B34224EA030427D1043AEC
:1015800020D014F0803F1DD1032A2946384605F1AA
:101590000405EBD803780D789D4202F1FF360ED199
:1015A00086B17BB1044602E082180BD053B114F827
:1015B000013F11F8015FAB42A6EB0402F4D0581BC7
:1015C000F0BC70470020F0BC7047104670470378AD
:1015D0000D789D4202F1FF36E3D0F0E72DE9F04FA0
:1015E0000124254688461646AE462A46ADF21C4DD5
:1015F00007461C4600214FF0FF3553189C4206EB6E
:1016000005000ED9805C16F803C0844580F0CC80BC
:1016100019460122A3EB050E53189C4206EB050068
:10162000F0D8CDF80CE04FF0010E724600214FF0DB
:10163000FF3053189C4206EB000C0FD91CF802C077
:1016400016F80390E14540F2B68019460122A3EB5B
:10165000000E53189C4206EB000CEFD86B1C0130B7
:101660009842029328BFCDE9020E05AB0DF2144259
:1016700043F8044F9342FBD1631E0093002C00F00B
:101680001681009B06AD721E9819019512F8011F74
:10169000D34323443344824245F82130F6D1DDE977
:1016A00002233046F118FEF78DFE002840F09680A8
:1016B000029B013B0593F31882468146049307EB96
:1016C000090E009B019A1EF8033052F82330EBB14B
:1016D000BAF1000F03D0039A934238BFA31A99447A
:1016E0004FF0000AA8EB04034B45E8D207EB0800D3
:1016F00044F4006101F0AAF98044A8EB04034B45CF
:10170000DDD200200DF21C4DBDE8F08F029B534549
:1017100038BF53461D46009B9D4218D205EB090277
:10172000715DB85C88423A4406EB050334D1A4F1FC
:10173000020CB444C6F1010B05E013F8010F12F8D6
:10174000011F884228D19C450BEB0305F5D1029B74
:101750009A4580F0A980059B049A4B441178FA5C65
:1017600091423B4440F0A0800AEB09053D44049AB5
:1017700005E012F8010D13F8011D884203D1AB42B8
:10178000A3EB0E0CF5D10AF1010AE2457DD8039BCB
:101790009944A4EB030AA5E7029BC3F10103994412
:1017A000A9444FF0000A9DE70CD04FF0010E0D4602
:1017B0007246714421E70BD04FF0010E0846724685
:1017C000714436E7724512BF01321946012214E70F
:1017D000724512BF0132194601222AE7029AA31A62
:1017E000934238BF1346511E013305937318049179
:1017F0000393002506EB020B07EB050E009A0199F7
:101800001EF8023051F8233083B11D44A8EB0403C5
:101810009D42F1D907EB080044F4006101F016F98C
:101820008044A8EB04039D42E6D96AE7029B9342F9
:1018300017D2EA189BF80030B95C99423A4429D192
:10184000A4F1020CB4445B46C6F1010905E013F8AB
:10185000010F12F8011F88421ED1634509EB030AEC
:10186000F5D1049B5A1C10D0EA18039BB95C1B7875
:1018700099423A4416D1039B05E013F8010D12F882
:10188000011D88420ED1B342F7D170460DF21C4DB6
:10189000BDE8F08FDDF808A0029BC3F101031D44F1
:1018A0005544B3E7059BB0E7DDF808C06BE706AB2E
:1018B0000193F4E62DE9F0410E46097890B0044614
:1018C000002958D07278002A00F08D80B078002866
:1018D00055D0F378002B00F08D803379002B5FD04A
:1018E0003046FFF78DFD804640F40071204601F040
:1018F000ADF8804572D8B8F1FE0F00F29280A0EBEF
:101900000807402208F1010168462744FEF78CFED3
:10191000B8F1000F10D0731E03EB08055FFA88F0D2
:1019200013F8012F10A902F03F020A44F11A0144F2
:10193000AB4202F8401CF3D1013C10AA14F8083065
:1019400003F03F03134413F8403C1C44A74203D266
:1019500038E02C44A74235D314F8085010AB05F0FA
:101960003F051D4442463146204615F8405CFEF7CF
:1019700029FD0028EDD1204610B0BDE8F081237884
:1019800042EA014253B3601C617800E0204641EA1C
:101990000343441C11B39A424178F7D1441EEAE74D
:1019A0002278DAB1306800BA02E0834208D00C46EF
:1019B00042EA03236278611C002AF6D183420DD1EA
:1019C000033CD8E717F8083007EB080033B14FF4B1
:1019D000006101F03BF80744A742ADD20024204645
:1019E00010B0BDE8F081FFF705FC0446204610B0BA
:1019F000BDE8F0811204237842EA016242EA002243
:101A0000002BEBD01B02601C617800E020460B43EA
:101A10001B02441C0029E1D09A424178F6D1841E71
:101A2000A9E70146434620463246FFF7D7FD044664
:101A3000A1E700BFF0B418B307460D4617F8016BD5
:101A400001E0A64217D015F8014B002CF9D1E6B100
:101A500017F8015B0C4601E0002BF9D014F8013BAC
:101A60009D42F9D155B1002307F8013C17600646A5
:101A70003046F0BC704763B13846DDE72F46F5E7E6
:101A800010680028D8D10646F2E730461660F0BC50
:101A90007047176006460370EAE700BF0123FFF7AF
:101AA000C9BF00BFF8B50D461446064608B18369A4
:101AB00043B3254B9C422AD0244B9C4229D0244B33
:101AC0009C4208BFF468A389A269A2601A0722D5C4
:101AD000236903B322686169D31AEDB299422F4694
:101AE00029DD0133A168501C0139A1602060157007
:101AF00062699A4216D0A389DB0701D50A2D11D05D
:101B00003846F8BD00F0BAFA0F4B9C42D4D1746845
:101B1000D9E7B468D7E72146304600F039F838B93C
:101B20002369D7E72146304600F07EF90028E7D048
:101B30004FF0FF37E4E72146304600F075F9002802
:101B4000F6D122680123CDE794820308748203084A
:101B500054820308024B0A4601461868FFF7A2BFE9
:101B60000000002070B50D46084C114606461A4686
:101B700028460023236001F09FF8431C00D070BD6D
:101B80002368002BFBD0336070BD00BFEC940120B4
:101B90003B4B70B51D6806460C460DB1AB69DBB119
:101BA000384B9C421ED0384B9C424AD0374B9C420B
:101BB00008BFEC68B4F90C2093B2190718D5206956
:101BC00008B313F001022CD0636900225B42A361C9
:101BD000A26060B3002070BD284600F04FFA294B88
:101BE0009C42E0D16C68B4F90C2093B21907E6D49A
:101BF000DD063CD5580726D4206942F00803A381AE
:101C00009BB20028DDD103F42072B2F5007FD8D05A
:101C100030462146FEF78CFBA389206913F00102B0
:101C2000D2D1990758BF6269A2600028D2D1B4F915
:101C30000C301A06CFD543F04003A3814FF0FF309C
:101C400070BDAC68B6E7616B51B104F144039942D1
:101C500004D03046FEF738FDB4F90C20002363634E
:101C600000232069636022F024022060C5E742F06F
:101C70004002092333604FF0FF30A28170BD00BFE6
:101C80000000002094820308748203085482030831
:101C900000B50A4C2668054685B01C46F06852B16E
:101CA000074B0091CDE9013206492B462246FEF74B
:101CB000D9FA00F0EDFE044B1A46F2E700000020CE
:101CC000BCF90308CCF903083C93030808B5134694
:101CD0000022FFF7DDFF00BF38B5074C00230546A3
:101CE0000846236000F0A2FF431C00D038BD2368E3
:101CF000002BFBD02B6038BDEC9401208B891A0798
:101D00002DE9F0410C46804641D44A68002A59DD4D
:101D1000E66A002E53D00022D8F80050216AC8F895
:101D2000002013F4805251D101234046B047431C98
:101D30005FD0A389E66A216A5F0705D56268636B95
:101D4000801A0BB1236CC01A024600234046B047EC
:101D5000461C45D1D8F80030B4F90C20002B55D0E2
:101D60001D2B01D0162B5AD123690022C4E9003261
:101D7000616BC8F8005011B304F14403994202D0DA
:101D80004046FEF7A1FC00206063BDE8F0810E69CB
:101D9000AEB10D680E6099070CBF63690023AD1BDF
:101DA000A3600AE02B463246A76A216A4046B8473C
:101DB0000028A5EB000506440ADD002DF2DC00201A
:101DC000BDE8F0810A6C002AA2DCF8E7606DB3E799
:101DD000A38943F04003A3814FF0FF30BDE8F081B9
:101DE0002269A389226000226260DA04C0D560659E
:101DF000BEE7D8F80030002B9BD01D2B0CD0162B43
:101E00000AD0A38943F04003A381D9E72169C4E93B
:101E10000013D304ACD5EAE7C8F80050CFE742F08E
:101E20004002A281CCE700BF0B6923B310B5044682
:101E300082B008B18369BBB1104B994212D0104BEC
:101E4000994216D00F4B994208BFE168B1F90C30A6
:101E50002BB1204602B0BDE81040FFF74FBF002075
:101E600002B010BD6168F1E7019100F007F9019936
:101E7000E2E7A168EAE70020704700BF9482030808
:101E8000748203085482030820B1054B0146186888
:101E9000FFF7CABF034B0449186800F0CDBA00BF72
:101EA0000000002050820308291E0208002070470D
:101EB000014900F0C1BA00BF291E02080020704786
:101EC00070B54A1E682505FB02F50E4605F1740142
:101ED000FEF750FC044640B100210C30666005F16D
:101EE00068022160A060FEF79FFB204670BD00BF26
:101EF0001E4B70B51D68AB69064643B34835D5E93E
:101F00000134013B05D51EE0013B5A1C04F1680475
:101F100019D0B4F90C20002AF6D10025144B6566BF
:101F2000C4E90055A560C4E90455A5612946E360EC
:101F3000082204F15C00FEF777FBC4E90D55C4E903
:101F40001255204670BD2C682CB12546D7E728468F
:101F500000F010F8D2E704213046FFF7B1FF044645
:101F600028600028F1D10C233360EAE7508203088F
:101F70000100FFFF2DE9F84F334B34491A688162A5
:101F800090424FF00003C0E91233036504BF012300
:101F900083610546FFF7ACFF68602846FFF7A8FF9E
:101FA000A8602846FFF7A4FF6E68E86000240423B9
:101FB000F3607466C6E90044B460C6E90444B461E1
:101FC000214606F15C000822FEF72EFBDFF888B000
:101FD000AF68DFF888A0DFF88890DFF888801C4BB6
:101FE000C6F83080C6E9086BC6E90AA92146FB603D
:101FF00008227C66C7E90044BC60C7E90444BC61B0
:1020000007F15C00FEF710FBEE68124BC7F830805A
:10201000C7E9087BC7E90AA92146F3607466C6E9E7
:102020000044B460C6E90444B46106F15C000822CF
:10203000FEF7FAFA0123C6E9086BC6E90AA9C6F851
:102040003080AB61BDE8F88F50820308B11E0208F2
:102050000900010012000200651102088D1102083A
:10206000CD110208ED110208024B0349186800F077
:10207000E3B900BF50820308291E0208836903B92F
:1020800078E77047704700BF704700BF704700BFD8
:10209000704700BF024B0349186800F0A7B900BFA2
:1020A00000000020AD1E0208024B0349186800F032
:1020B0009DB900BF00000020BD1E020838B50B46C8
:1020C000074C0546114618460023236000F0B6FD74
:1020D000431C00D038BD2368002BFBD02B6038BDDB
:1020E000EC9401209368002B00F002812DE9F04F61
:1020F000B1F90C309BB20C46190783B0824690466A
:1021000035D522699AB313F00202D8F800603DD0A9
:102110000027D4F828B0D4F820C0DFF8CC923D4690
:102120004D452B463A4628BF4B4661465046D5B1F1
:10213000D847002840F3D280D8F808301B1A07444B
:102140002D1AC8F80830002B00F0B780D4F820C052
:10215000D4F828B04D452B463A4628BF4B46614639
:102160005046002DE4D1D6E900750836D8E721465F
:102170005046FFF70DFD002840F03081B4F90C30D7
:10218000D8F800609BB213F00202C1D113F001092C
:1021900040F0B080A76820684D46002D54D09A05C5
:1021A00040F1BC80AF42BB4600F2E78013F4906F71
:1021B0002FD0D4E9041707EB4707A0EB010B07EB7F
:1021C000D777681C7F105844B8423A4684BF074608
:1021D0003A465B0540F1E98011465046FEF7CAFADF
:1021E000002800F0F5805A4621690190FEF71AF99F
:1021F000A289019B22F4906242F08002A281A7EBA7
:102200000B0203EB0B00676123612060A2602F4685
:10221000AB465A464946FEF79FF9A2682368D21B8F
:102220005B442F46A26023600025D8F80830DB1BF2
:10223000B944C8F80830002B3FD0B4F90C30A76877
:1022400020689BB2002DAAD1D6E900950836A4E7F4
:102250000BF1080353E902679B460833002FF9D0BE
:102260003A460A21304600F04BF9002853D001309D
:10227000A0EB06094B46D4E904122068BB4228BFF4
:102280003B46884203D9A5681544AB4219DC9A4203
:102290007DDC1346A56A216A32465046A847051ED2
:1022A0001CDDB9EB05096BD00120D8F808305B1BA9
:1022B0002E447F1BC8F8083013BB002003B0BDE8D4
:1022C000F08F31462A46FEF747F923682B442360F6
:1022D00021465046FFF7A8FD0028E2D0B4F90C30A3
:1022E00043F040034FF0FF30A38103B0BDE8F08F0F
:1022F0000020704733469146104617464E469B468F
:10230000002FA5D00028B5D13A460A21304600F06A
:10231000F7F80028ABD17B1C9946ACE723698342D0
:1023200015D36169A94212D82E4BA76A9D4294BF6A
:102330002B466FF000434A4693FBF1F3504601FBF6
:1023400003F3216AB847071EC8DDED1B6DE7AF42F6
:1023500028BF2F463A464946FEF7FEF8A368226892
:10236000DB1B3A44A3602260002BEED1214650468D
:10237000FFF75AFD0028E8D0B0E72F46AB4648E704
:1023800021465046FFF750FD00288ED0A6E71A469A
:1023900031460193FEF7E0F8019BA1682268C91A53
:1023A0001A44A16022601D467BE7504600F0FCF80D
:1023B000034600287FF423AF21695046FEF784F9D5
:1023C000B4F90C300C2223F08003CAF8002087E710
:1023D0000C23CAF80030B4F90C3081E74FF0FF301D
:1023E0006CE700BFFEFFFF7F00FCFF7F2DE9F0419F
:1023F00010F148071BD088460026D7E90154013D5B
:102400000FD4A389012B05F1FF3506D9B4F90E309D
:102410000133204601D0C04706436B1C04F1680419
:10242000EFD13F68002FE8D13046BDE8F0813E464D
:102430003046BDE8F08100BF2DE9F84310F14807B0
:102440001FD0884606464FF00009D7E90154013DE8
:1024500011D4A389012B05F1FF3508D9B4F90E3049
:1024600001332146304602D0C04749EA00096B1CBF
:1024700004F16804EDD13F68002FE6D14846BDE87D
:10248000F883B9464846BDE8F88300BF38B5074C25
:10249000002305460846236000F0E0FB431C00D003
:1024A00038BD2368002BFBD02B6038BDEC94012095
:1024B00070B50D46084C114606461A4628460023BC
:1024C000236000F0DBFB431C00D070BD2368002BB1
:1024D000FBD0336070BD00BFEC940120024B01467D
:1024E0001868FEF747B900BF00000020024B014604
:1024F0001868FEF7E9B800BF0000002000000000E7
:1025000001F0FF01102A2BDB10F0070F08D010F8A4
:10251000013B013A8B422DD010F0070F42B3F6D1A8
:10252000F0B441EA012141EA014122F007047FF0C1
:1025300000070023F0E80256083C85EA010586EA18
:10254000010685FA47F5A3FA87F586FA47F6A5FA54
:1025500087F68EB9EED1F0BC01F0FF0102F0070260
:1025600032B110F8013B013A83EA010313B1F8D10B
:102570000020704701387047002D06BF35460338EC
:10258000073815F0010F07D1013015F4807F02BF25
:10259000013015F4C03F0130F0BC0138704700BF76
:1025A000704700BF704700BF09B3F8B51446CAB101
:1025B00006460D4600F074FAA04202D32F46384674
:1025C000F8BD21463046FEF7D5F807460028F6D07C
:1025D00022462946FDF726FF30462946FEF774F8C5
:1025E0003846F8BD2746FEF76FF83846F8BD114665
:1025F000FEF7C0B82DE9F0478E681D46AE420C4686
:102600000B68174636D88046888910F4906F0ED133
:10261000354618462A463946FDF79EFFA2682368CC
:10262000961B2B44A66023600020BDE8F087D1E90B
:10263000041606EB4606A3EB010906EBD6766B1CE7
:1026400076104B44B342324684BF1E4632464305A1
:1026500012D511464046FEF78DF8824600B34A4631
:102660002169FDF7DFFEA38923F4906343F0800323
:10267000A38106E02E46CCE74046FFF795FF824651
:1026800050B1A6EB09020AEB09036661C4F810A079
:102690002360A2602E46BCE721694046FEF714F88D
:1026A0000C23C8F80030A38943F04003A3814FF006
:1026B000FF30BAE72DE9F04F936883B09046002BC6
:1026C0006DD017688D6882460C460868083743E06D
:1026D000A38913F4906F2ED0D4E9041505EB4505BA
:1026E000A0EB010B05EBD5750BEB06006D1001306F
:1026F000A8422A4684BF05462A465B0536D51146C0
:102700005046FEF737F800283AD05A462169019022
:10271000FDF788FEA289019B22F4906242F08002BC
:10272000A281A5EB0B0203EB0B0065612361206026
:10273000A2603546B3465A464946FDF70DFFD8F824
:102740000830A2682068551B58449E1BA560206075
:10275000C8F808601EB3083757E90296AB46002E4A
:10276000F9D0AE42B4D23546B346E4E75046FFF75F
:102770001BFF03460028D4D121695046FDF7A4FF72
:102780000C23CAF80030A389002243F040034FF025
:10279000FF30A381C8E9012203B0BDE8F08F00201B
:1027A000C8F8040003B0BDE8F08F00BF2DE9F04F7A
:1027B00090468A899FB014068B46029003D50A6919
:1027C000002A00F00B81059330238DF8323098F801
:1027D00000308E4E002120220B918DF831200127F0
:1027E000002B00F08480252B00F0F680454603E0A6
:1027F000252B00F0868025466B786C1C002BF7D1CA
:10280000B4EB080A73D04246534659460298FFF784
:10281000F1FE01306BD00B9B6A7853440B93002A76
:1028200065D000234FF0FF3201340693CDE9083321
:102830008DF85B301C93079205E0069A07FA03F3C4
:1028400013432C4606932546052215F8011B3046F6
:10285000FFF756FEAA46831B0028EED1069BD90639
:1028600044BF20228DF85B2021781A0744BF2B2219
:102870008DF85B202A2948D1059A11680432002975
:1028800005927EDB09916178A51C2E2956D0604CFB
:1028900003222046FFF734FE002868D0001B069B69
:1028A000402404FA00F00343069305F10108297857
:1028B00058488DF830100622FFF722FE002866D017
:1028C000554B002B56D005AB00935A46534B0298FC
:1028D00006A9AFF300808146B9F1FF3F07D00B9BFB
:1028E0004B440B9398F80030002B7FF47CAFBBF87F
:1028F0000C305B0654BF0B984FF0FF301FB0BDE8A3
:10290000F08FB4EB080A8CD07DE7A1F13002092AE0
:1029100088BFA246B9D8099B01E02C460135297829
:1029200003EB830302EB4303A1F13002092AAA4619
:10293000F3D92E2904F102050993A8D19AF80110C0
:102940002A292ED1059B9AF802101A68079204339F
:10295000002A05930AF103050AF1020337DB2C4C28
:10296000032220469A46FFF7CBFD002896D1A846C1
:1029700055469CE7059B073323F00703083305936F
:10298000ADE7494243F00203099106937BE705ABAB
:1029900000935A46214B029806A9FEF797F9814603
:1029A0009AE7A1F130020023092A079301D923E015
:1029B0005546697803EB830302EB4303A1F1300230
:1029C000092A05F1010AF3D9023507935FE74FF0B1
:1029D000FF329A4607925AE7444622E74021039382
:1029E000FDF7C8FE039BCBF80000CBF8100030B118
:1029F0004022CBF81420E6E6AA46013547E7029AC2
:102A00000C2313604FF0FF3078E700BF34F9030860
:102A10003CF9030840F9030800000000F52502080E
:102A200070B50D46084C114606461A462846002346
:102A3000236000F02BF9431C00D070BD2368002BED
:102A4000FBD0336070BD00BFEC940120C9B10278A7
:102A5000CAB1431C014499421A4616D010B41478E6
:102A6000013334B199421A4607D014780133002C4F
:102A7000F8D1101A5DF8044B7047081A5DF8044B42
:102A800070470846704710467047081A704700BFE5
:102A900008B5062000F092F8012000F015F900BFFB
:102AA00051F8043C181F002BBCBF0B58C0187047CE
:102AB00010B580210446FDF75DFE606440B1031F40
:102AC00000227C3043F8042F8342FBD1002010BD4C
:102AD0004FF0FF3010BD00BF436C0BB100207047BA
:102AE000E6E700BF1F2970B5054608D8436C1646B7
:102AF0000C464BB153F8240043F8246070BD1622F5
:102B000002604FF0FF3070BDFFF7D2FF08B96B6C69
:102B1000F0E74FF0FF3070BD1F2938B521D8426C67
:102B200005460C466AB152F8213053B1012B16D03C
:102B3000591C10D00025204642F8245098472846BA
:102B400038BD284600F070F8224601462846BDE808
:102B5000384000F055B816230360012038BD00202E
:102B600038BD162303604FF0FF3038BD1F2921D830
:102B700038B5436C05460C4683B153F8242003EB6B
:102B800084034AB1511C10D0012A0CD000252046E4
:102B90001D609047284638BD012038BDFFF788FFEB
:102BA00028B96B6CE9E7032038BD022038BD4FF02F
:102BB000FF3038BD4FF0FF30704700BF024B014679
:102BC0001868FFF7A9BF00BF00000020024B0A46AB
:102BD00001461868FFF786BF00000020034B186805
:102BE000436C0BB10020704762E700BF000000207B
:102BF000024B01461868FFF7B9BF00BF0000002074
:102C000038B50B46074C054611461846002323608D
:102C100000F02CF8431C00D038BD2368002BFBD0FB
:102C20002B6038BDEC94012000F010B8024B582204
:102C30001A604FF0FF307047EC940120024B58228D
:102C40001A604FF0FF307047EC940120024B58227D
:102C50001A604FF0FF307047EC940120024B58226D
:102C60001A600020704700BFEC940120024B5822EC
:102C70001A604FF0FF307047EC940120024B58224D
:102C80001A604FF0FF307047EC940120024B58223D
:102C90001A604FF0FF307047EC940120044A054958
:102CA0001368002B08BF0B46184410601846704785
:102CB0003C030020F8940120024B58221A604FF088
:102CC000FF307047EC940120FEE700BF53B94AB9CA
:102CD000002908BF00281CBF4FF0FF314FF0FF3024
:102CE00000F06EB9ADF1080C6DE904CE00F006F805
:102CF000DDF804E0DDE9022304B070472DE9F04778
:102D0000089D04468C46002B40F083808A4217467B
:102D100047D9B2FA82F242B1C2F1200024FA00F09F
:102D20009140974040EA010C94404FEA1748230C29
:102D3000BCFBF8F61FFA87FE08FB16C143EA014305
:102D400006FB0EF1994209D9FB1806F1FF3080F01D
:102D50001981994240F21681023E3B445B1AA4B2AB
:102D6000B3FBF8F008FB103344EA034400FB0EFE0B
:102D7000A64509D93C1900F1FF3380F00581A6452D
:102D800040F2028102383C4440EA0640A4EB0E04C3
:102D900000261DB1D4400023C5E900433146BDE8FB
:102DA000F08702B9FFDEB2FA82F2002A50D1CB1BC3
:102DB0004FEA174E1FFA87F80126B3FBFEFC210CE1
:102DC0000EFB1C3341EA034108FB0CF38B4207D98D
:102DD00079180CF1FF3002D28B4200F2E980844670
:102DE000C91AA3B2B1FBFEF00EFB101143EA014475
:102DF00008FB00F8A04507D93C1900F1FF3302D2C7
:102E0000A04500F2D9801846A4EB080440EA0C4023
:102E1000BFE78B4209D9002D00F0B1800026C5E93B
:102E2000000130463146BDE8F087B3FA83F6002E44
:102E30004AD18B4202D3824200F2B880841A61EBFD
:102E4000030101208C46002DA8D0C5E9004CA5E760
:102E5000C2F1200320FA03F6974001FA02F04FEA8C
:102E6000174ED9403043030CB1FBFEF61FFA87F82A
:102E70000EFB161143EA014306FB08F1994204FADE
:102E800002F409D9FB1806F1FF3C80F08D809942CD
:102E900040F28A80023E3B445B1A81B2B3FBFEF0F3
:102EA0000EFB103341EA034100FB08F38B4207D9C4
:102EB000791800F1FF3C73D28B4271D90238394442
:102EC000CB1A40EA064678E7C6F1200C03FA06F46E
:102ED00022FA0CF31C4320FA0CF701FA06F34FEA2E
:102EE000144E21FA0CF11F433B0CB1FBFEF91FFA03
:102EF00084F80EFB191143EA014109FB08FA8A45DF
:102F000002FA06F200FA06F308D9611809F1FF3057
:102F100048D28A4546D9A9F102092144A1EB0A0108
:102F2000BFB2B1FBFEF00EFB101147EA014700FBF8
:102F300008F8B84507D9E71900F1FF312ED2B84596
:102F40002CD90238274440EA0940A7EB0807A0FB28
:102F500002894F45C64649461AD317D05DB1B3EB37
:102F60000E0267EB010707FA0CFCF2404CEA020282
:102F7000F740C5E9002700263146BDE8F0872E4618
:102F800028460BE70646E9E61846FDE64345E5D246
:102F9000B8EB020E69EB04010138DFE70846D2E71F
:102FA00060468DE78146B9E7664675E730464AE7F1
:102FB000ACF1020C394413E702383C4424E700BF6B
:102FC000704700BF2DE9F843BDF82090002A4BD090
:102FD0001F469046144600250DE04FF47D7303FB19
:102FE00000500830214B1844324661680430FDF728
:102FF00019FA354424689CB11D4B18784FF47D7341
:1030000003FB00F3194AD35A53B96389002BF1D05B
:103010001E462B44B3F57A7FDFD3C5F57A76DCE71D
:103020003868134C2378114E4FF47D7101FB03F186
:10303000721890703868000AD07078881071F8782B
:103040005071C2F8089075520133DBB22370042B23
:1030500001D900222270074B1B683A685A60A3F816
:103060001490404611F018FFBDE8F88304B3002027
:10307000440300204003002008B590F8313013F0DD
:10308000040F00D108BD024B186812F091FBF9E75C
:10309000D0940120024B93F83100C0F380007047B8
:1030A000A003012070B58EB03E4BD3F801501C69CF
:1030B000002108460AF07CFFC5F30720000440EA1F
:1030C0000560C5F3074340EA032040EA15652B027B
:1030D00003F47F0343EA05632A0A02F47F421343A1
:1030E00043EA156330490B60C4F307231B0443EA2A
:1030F0000463C4F3074243EA022343EA14631A0257
:1031000002F47F0242EA03621C0A04F47F44224371
:1031100042EA1363254A1360030203F47F03040A9F
:1031200004F47F44234343EA106040F08070204B56
:103130001860204C20480290204801900020009008
:10314000204612F09DFA204612F02CFB94F8313004
:1031500013F0040F21D0204612F02AFB154C184919
:10316000204612F0AFFB00230C930D9301210CA815
:103170000AF042F9134B1860134E3460706005ACCE
:10318000124D0FCD0FC495E8070084E807003146C3
:1031900005A80AF086F80EB070BD064812F02AFBAA
:1031A000DCE700BFA8F00020D8030120E4030120E1
:1031B000E8030120A00301200DDF02086D8A020848
:1031C000098B020800480020940301209480030822
:1031D000002306E0064A5268D900CA40C2540133AF
:1031E000DBB2032BF6D9034B1B685B8A4360704745
:1031F000A00301204003002010B504460EF0ECF9B6
:103200000C4B1860A0B122460B490DF0FBFF0446A1
:1032100000220A49074B18680EF0A0F91CB9201EBD
:1032200018BF012010BD034B18680EF0ABF9F6E78C
:103230000120F7E740030020A0F40308C52F02088F
:1032400038B50D461446012810D0022810D11020A0
:10325000002211460CF080F820605CB12A46064935
:103260000CF032F9003818BF012002E02020EFE70F
:10327000012038BD0120FCE7A0F4030808B5FF21B8
:103280000CF048F9003818BF012008BD08B50CF053
:1032900009FA003818BF012008BDF0B587B007460D
:1032A0000E460023ADF80E3005A90CF055FB0028A2
:1032B0003CD10023338010E006F10C00049918443F
:1032C000FDF7B0F83388BDF80E201344338005981D
:1032D0000BF0D4FFB0F1FF3F0ED00DF10E0204A9A8
:1032E00005980BF095FF0546BDF80E203388C3F511
:1032F0007A74A242EBD8DFE700230DF1060202A99F
:1033000038460CF0A7F8029BB3701A0AF2701A0C38
:1033100032711B0E7371BDF80630B36005980BF067
:1033200067FF281E18BF012007B0F0BD05980BF0FD
:103330005FFF0120F8E700B583B00023009301236D
:1033400031F80C2B0CF08CF9003818BF012003B0B9
:103350005DF804FB70B584B005460C46694681E80B
:103360000C009DF800209DF801301B0443EA026325
:103370009DF8022043EA02239DF803100B431A0232
:1033800002F47F0242EA0162190A01F47F410A4312
:1033900042EA13630393FFF77DFE28B3154B1B68C6
:1033A0002BB34FF4C1722146362011F0DDFD0646E5
:1033B000B0B12246294612F019F8BDF8043003AA2C
:1033C00031460C4800680EF083F820B9304611F001
:1033D00063FD002009E0304611F05EFD012004E0AD
:1033E00011F05AFD012000E0012004B070BD012061
:1033F000FBE700BF4003002008B502F0DDF902F052
:10340000D1F902F0DFFA0CE002F0FEFD01210848DC
:1034100007F0A3FA074807F0EAFD4FF47A7009F0C5
:103420007AFF054B1B78002BEED002F01DFEEDE776
:10343000000C024088030120BE05002010B50124C5
:1034400007E0B4F57A7F01D14FF0FF34642009F032
:1034500062FF042CF5DCB4F1FF3FF7DB631C052BA6
:10346000F4D801A252F823F0B53402084D34020812
:10347000BD340208813402089B340208A7340208D4
:10348000104B18680AF0DAF80C220F490F48FCF7C5
:1034900099FFA8B14FF0FF34D8E70D4B18680AF038
:1034A000CDF80424D2E70B4B18680AF0C7F84FF4A4
:1034B0007A74CBE7002009F029FFC7E70224C5E7AB
:1034C0000324C3E7ECF0002090920308107AFF1F5A
:1034D00018F10020E4F000202DE9F04182B06425CD
:1034E0000124C5E04FF0FF34BFE0FFF7DBFD4FF4F0
:1034F0007A7009F010FF07F03BFD06460224B4E0A5
:10350000FFF7C8FD78B9304601F05CFA41F2883324
:10351000984240F2AA80664B1868002800F0A58007
:1035200009F0BEFFA1E0634B18680AF087F807F0C6
:103530001FFD0646032498E05F4B9889FFF75CFE69
:103540005E4B1870002840F0908007F011FD064691
:1035500004248AE0304601F035FAB0F57A7F40F273
:103560008480574B18680AF069F8564B18680AF0BF
:1035700065F807F0FDFC0646052476E0524A4E4BFE
:1035800019890220FFF75CFE4C4B187000286CD1A3
:103590004E4B18680AF052F84D4B18680AF04EF876
:1035A00007F0E6FC064606245FE0444B1B78002B40
:1035B0005BD107F0DDFC0646072456E000230193AB
:1035C000414B18686423036201A9FFF75FFE0746B9
:1035D0003A4B1870002848D10346012B12D803EB50
:1035E00043023C4951F8222012B10133DBB2F4E727
:1035F0000A4603EB430C019942F82C1002EB8C00B5
:1036000000220272012B1ED8012B2ED901980CF03A
:1036100034F801980BF00EFF27E007EB470352F850
:10362000230040B10CF029F807EB4703294A52F870
:1036300023000BF0FFFE08EB4808264B019A43F8E5
:1036400028203B46E0E7012F0BD8B84607EB47039D
:10365000204A02EB83031B7A012BDED00137FFB235
:10366000F1E73B46D0E74FF0FF34284609F053FE20
:10367000B4F1FF3FF7DB631C092B3FF633AF01A228
:1036800052F823F06B360208E5340208EB340208E6
:103690000135020839350208553502087D35020822
:1036A000AB350208BD350208AD3602080125DCE75E
:1036B00014F10020F4F00020A8F0002045030020C1
:1036C000F0F00020FCF00020ECAE002008F100201B
:1036D00010F10020B0DE002030B5A1B007F048FCAA
:1036E00009F0D5FD1F90012464254EE004A8FFF7E2
:1036F0006FFD9DF812309DF81320019200939DF804
:1037000011309DF810202C4906A8FDF709FD06A8E8
:10371000FDF776FE294C94E80C0081B206A8FFF76D
:1037200019FE0A2009F0F7FD059A254906A8FDF7BC
:10373000F7FC06A8FDF764FE94E80C0081B206A829
:10374000FFF708FE1F4A937ED17E107F557F0395B9
:10375000029001910093537E127E1B4906A8FDF74B
:10376000DFFC06A8FDF74CFE94E80C0081B206A829
:10377000FFF7F0FD154B186808B109F091FE03241E
:10378000012529461FA809F073FF022CAED0032C97
:103790000ED0012CF5D164242246002106A8FCF7A6
:1037A00043FF07F0E5FB204609F0B5FD0224E8E7FA
:1037B0000A2009F0B0FDE4E7BC820308D8920308B0
:1037C000D4820308A8F00020E882030814F1002046
:1037D00008B501F003F90A2009F09DFDF9E70000A2
:1037E00010B582B0012428E001AA50210220FFF781
:1037F00027FDF8B903241DE00198FFF73FFDC8B984
:10380000042417E069460198FFF740FD90B9009B3A
:10381000C8221A6205240DE0009800F0F3FA06248D
:1038200008E000980BF029FF00980BF003FE042439
:1038300000E00224642009F06EFD631E052BF9D818
:1038400001A252F823F000BF33380208E93702081A
:10385000F937020805380208193802082338020827
:1038600000B587B0064B02AC0FCB07C4237001A98B
:1038700002A801F001F8642009F04DFDF7E700BF50
:10388000108303082DE9F0419EB08046B34C6FE0F1
:10389000B349B448FEF70EF808B1022684E0B249F5
:1038A000B048FEF707F808B103267DE0AF49AD4800
:1038B000FEF700F808B1042676E0AD49A948FDF707
:1038C000F9FF08B105266FE0AA49A648FDF7F2FF07
:1038D00008B1062668E0A849A248FDF7EBFF08B149
:1038E000072661E0A5499F48FDF7E4FF00283BD08B
:1038F000082659E0A24AD378117901910093937870
:103900005278A04905A8FDF70BFC05A8FDF778FD46
:103910000246944C05A92046FDF7E0FD34F80C6CF6
:1039200005A8FDF76DFD064424F80C6C3C212846E3
:10393000FDF760FC0546002800F048819249FDF73C
:10394000B9FF0446002800F04181421B854E023237
:1039500029463046FDF7C2FD36F80C1C2144491BB0
:10396000023126F80C1C023488494046FFF7E3FC7C
:1039700085492046FDF79EFF0646002800F0268177
:10398000021B023292B2814D25F80C2B01322146E6
:103990002846FDF7F1FCB41C7D492846FDF78AFF57
:1039A00000283FF475AF01263E212046FDF722FC9A
:1039B0000546002800F00A81021B6A4F01322146A9
:1039C0003846FDF78BFD37F80C3C2B441C1B0134AB
:1039D00027F80C4C0135013E072EA7D801A353F858
:1039E00026F000BFF5380208053A02083F3A0208FF
:1039F000793A0208EB3A0208BB3A02081B3B02087C
:103A00009D3B02085E4A937CD17C01910093537CDC
:103A1000127C5C4905A8FDF783FB05A8FDF7F0FCC7
:103A20000246504C05A92046FDF758FD34F80C6CB1
:103A300005A8FDF7E5FC064424F80C6C76E7504A2F
:103A4000937DD17D01910093537D127D4D4905A851
:103A5000FDF766FB05A8FDF7D3FC0246414C05A91E
:103A60002046FDF73BFD34F80C6C05A8FDF7C8FCBB
:103A7000064424F80C6C59E7414A937ED17E107FAE
:103A8000547F0394029001910093537E127E41492A
:103A900005A8FDF745FB05A8FDF7B2FC0246314C31
:103AA00005A92046FDF71AFD34F80C6C05A8FDF7B2
:103AB000A7FC064424F80C6C38E7314BDA68364929
:103AC00005A8FDF72DFB05A8FDF79AFC0246254C3D
:103AD00005A92046FDF702FD34F80C6C05A8FDF79A
:103AE0008FFC064424F80C6C20E7254B9A682A4981
:103AF00005A8FDF715FB05A8FDF782FC0246194C49
:103B000005A92046FDF7EAFC34F80C6C05A8FDF782
:103B100077FC064424F80C6C08E7194A92F8223026
:103B200092F823100191009392F8213092F820200E
:103B3000144905A8FDF7F4FA05A8FDF761FC024653
:103B4000084C05A92046FDF7C9FC34F80C6C05A803
:103B5000FDF756FC064424F80C6CE7E67084030875
:103B600030830308A8EA0020408303084C8303083D
:103B70005C83030868830308748303088083030855
:103B8000A8F00020908303089C9703089CEA00207B
:103B9000208303089C830308BC8303080D4B5A6AE7
:103BA0000D4905A8FDF7BCFA05A8FDF729FC02465A
:103BB0000A4C05A92046FDF791FC34F80C6C05A8C9
:103BC000FDF71EFC064424F80C6CAFE600201EB086
:103BD000BDE8F081A8F00020BC830308A8EA00201B
:103BE00030B5A1B03F217848FDF704FB002800F074
:103BF000E38004460134754B33F80C5B2B44A3423D
:103C000040F2DC8072492046FDF754FE40B1031BB0
:103C10009BB20022E2546F49204600F00BFE15E0F3
:103C2000694BE31A9BB2EB1A9BB2F2E7642204F1F0
:103C3000080106A8FDF7A0FB05A906A800F01CFED8
:103C400018B9059A644BC3F8012000241FAA6349E0
:103C50002046FDF723FF0446002800F0B18008222B
:103C60005F49FDF769FC0028E0D008225D49204645
:103C7000FDF762FC002839D008225B492046FDF799
:103C80005BFC002842D0092258492046FDF754FC2D
:103C900000284BD00E2256492046FDF74DFC002847
:103CA00057D00E2253492046FDF746FC002861D02C
:103CB000092251492046FDF73FFC00286BD00B221A
:103CC0004E492046FDF738FC0028BED1642204F19D
:103CD0000B0106A8FDF750FB694606A800F069FD38
:103CE0000028B2D13C4B009A5A62AEE7642204F13C
:103CF000080106A8FDF740FB04A906A800F0E6FDB0
:103D00000028A2D1344B049A1A619EE7642204F180
:103D1000080106A8FDF730FB03A906A800F000FE85
:103D2000002892D12C4B039A5A618EE7642204F149
:103D3000090106A8FDF720FB314A01A906A800F0F9
:103D400019FE002881D1244B02990198986199832A
:103D50007BE7642204F10E0106A8FDF70DFB69461E
:103D600006A800F026FD00287FF46FAF1A4B009ADA
:103D70009A606AE7642204F10E0106A8FDF7FCFAD6
:103D8000694606A800F015FD00287FF45EAF124BCF
:103D9000009ADA6059E7642204F1090106A8FDF7E8
:103DA000EBFA05A906A800F067FD00287FF44DAFE7
:103DB000094B059A1A6248E7012002E0012000E061
:103DC000002021B030BD00BFD4C60020C8C60020EE
:103DD000C083030838F90308A8F00020C88303084B
:103DE000CC830308D8830308E4830308F083030823
:103DF0000084030810840308208403082C8403082B
:103E0000FC83030810B504461749FFF746FA00B1D2
:103E100010BD20460BF036FC20BB06221349144887
:103E2000FDF78AFB68B1142212491148FDF784FBA3
:103E300058B1142210490E48FDF77EFB48B101200D
:103E4000E6E72046FFF71EFDE2E72046FFF71AFDF2
:103E5000DEE72046FFF7C4FE01F04EFC2046FFF7E8
:103E600011FDD5E70120D3E7C8C600203884030838
:103E7000D4C60020408403085884030830B595B0A8
:103E80003022002108A8FCF7CFFB002403940494FF
:103E900005940694079401941C4B1A6C42F08052CE
:103EA0001A641B6C03F080530193019B0294184B1E
:103EB0001A6842F480421A601B6803F4804302933C
:103EC000029B092308934FF48033099301230D9338
:103ED00002250E954FF480030F9304231093A8221C
:103EE00011921295139308A805F01AFF0F2303935C
:103EF000049505944FF4A05306934FF48053079311
:103F0000052103A806F068F915B030BD003802405D
:103F10000070004008B507F005F8FFF7AFFF00F0AC
:103F2000E5FA01F0B9FB00F095F804F0C5FA04F0E9
:103F30007BFB04F02BFF04F0E1FA04F065FA04F0D7
:103F40004DFF04F07BFE04F043FE04F0E7FE04F0B6
:103F5000ADFE04F06BFF144807F049F8134B9A6864
:103F600042F480529A60DA6842F00102DA609A689C
:103F700042F001029A609A6842F002029A609A68DE
:103F800042F004029A609A6842F008029A609A68C5
:103F900042F020029A60DA6842F00202DA6000F031
:103FA00071F909F06FF9FEE788030120002004E0B1
:103FB00010B5044602681D4B9A4218D022681C4B6B
:103FC0009A4217D022681B4B9A4218D022681A4B8B
:103FD0009A4219D02268194B9A421AD02368B3F139
:103FE000804F1BD02268164B9A421BD010BD06F0A2
:103FF000B3FFE3E71349122003F05AFEE2E7114949
:10400000342003F055FEE1E70F49122003F050FE83
:10401000E0E70D49342003F04BFEDFE70B4802F0E8
:104020008FFADFE7094802F0AFFADFE7000001404E
:10403000000400400008004000140040000401405B
:10404000000C00400C0100206400002020F1002042
:10405000704700002DE9F0438DB0002407940894C8
:1040600009940A940B940194714B1A6B42F010025C
:104070001A631A6B02F010020192019A02941A6BF1
:1040800042F004021A631A6B02F004020292029ACE
:1040900003941A6B42F080021A631A6B02F08002DA
:1040A0000392039A04941A6B42F001021A631A6B8A
:1040B00002F001020492049A05941A6B42F0020283
:1040C0001A631A6B02F002020592059A06941A6BA3
:1040D00042F008021A631B6B03F008030693069B69
:1040E000544E2246C121304606F031FC524F224642
:1040F00043F28301384606F02AFC3F230793DFF89A
:104100004081CDF820800994DFF8389107A948460E
:1041100006F030FB4FF6C07307930325089509940A
:1041200007A9484606F026FB4FF60C73079308953F
:10413000099407A9304606F01DFBC12307934FF0F1
:104140000109CDF8209009940A9407A9304606F099
:1041500011FB49F6797307930895099407A9374825
:1041600006F008FB4CF21F43079308950994A6F547
:10417000806607A9304606F0FDFA4CF61C730793DB
:104180000895099407A9384606F0F4FA43F2830328
:104190000793CDF8209009940A9407A9384606F0B1
:1041A000E9FA2023079308940223099307A93046CC
:1041B00006F0E0FA4FF440730793CDF8208009949D
:1041C00007A9304606F0D6FA22460521062006F059
:1041D00055FE062006F086FE22460521072006F041
:1041E0004DFE072006F07EFE22460521082006F03F
:1041F00045FE082006F076FE22460521092006F03D
:104200003DFE092006F06EFE224605210A2006F03A
:1042100035FE0A2006F066FE22460521172006F02C
:104220002DFE172006F05EFE0DB0BDE8F08300BF46
:104230000038024000080240000C0240000002402A
:10424000000031100010024008B5012009F063F8A9
:10425000FBE708B5012009F05EF8FBE708B501208F
:1042600009F059F8FBE7704700207047034B0360E3
:10427000034B0B6080231360704700BF480500208C
:10428000480300202DE9F04FE3B0002560956195CB
:10429000012160A809F0B0F8844B18604FF0FF319D
:1042A00009F0CEF8824C5CAE94E80F0086E80F006F
:1042B0002946304609F02EF97E4B186055AE04F1C0
:1042C00010070FCF0FC697E8070086E807002946BA
:1042D00055A808F0E6FF784B18604EAE04F12C07A5
:1042E0000FCF0FC697E8070086E8070029464EA8BB
:1042F00008F0D7FF714B186047AE04F148070FCFA5
:104300000FC697E8070086E80700294647A808F087
:10431000C8FFDFF8C8B1CBF8000040AE04F1640775
:104320000FCF0FC697E8070086E80700294640A888
:1043300008F0B7FFDFF8A8A1CAF8000039AE04F111
:1043400080070FCF0FC697E8070086E807002946C9
:1043500039A808F0A6FFDFF88C91C9F8000032AE4A
:1043600004F19C070FCF0FC697E8070086E8070007
:10437000294632A808F095FFDFF86C81C8F80000E4
:104380002BAE04F1B8070FCF0FC697E8070086E8F9
:10439000070029462BA808F084FF494F386024AE57
:1043A00004F1D40CBCE80F000FC69CE8070086E8B7
:1043B0000700294624A808F074FF424B18601DAE80
:1043C00004F1F00CBCE80F000FC69CE8070086E87B
:1043D000070029461DA808F064FF3B4A106016AE8E
:1043E00004F5867CBCE80F000FC69CE8070086E851
:1043F0000700294616A808F054FF344E30600DF12E
:104400003C0C04F5947EBEE80F00ACE80F009EE87B
:1044100007008CE8070029460FA808F042FF2C4B44
:1044200018600DF1200C04F5A27EBEE80F00ACE888
:104430000F009EE807008CE80700294608A808F04E
:1044400030FF244B18600DF1040C04F5B0740FCC50
:10445000ACE80F0094E807008CE80700294601A8A3
:1044600008F01FFF1C4B1860DBF8000009F0E0F8B3
:10447000DAF8000009F0DCF8D9F8000009F0D8F803
:10448000D8F8000009F0D4F8386809F0D1F80D4BDD
:10449000186809F0CDF8306809F0CAF80A4A1068BF
:1044A00009F0C6F863B0BDE8F08F00BF14F100203A
:1044B000B08003081CF1002004F1002000F100206E
:1044C00008F1002010F10020E4F00020F4F00020BA
:1044D0000CF10020F8F00020E8F0002018F1002096
:1044E000ECF00020F0F00020FCF0002010B53022AD
:1044F00000211D48FCF798F83C2200211B48FCF7DE
:1045000093F841F2C434224600211948FCF78CF894
:10451000224600211748FCF787F84FF4FD6200217E
:104520001548FCF781F84FF47D74224600211348AA
:10453000FCF77AF8224600211148FCF775F8114B78
:1045400000241C605C609C60DC601C615C614FF45A
:10455000067221460C48FCF767F84FF404722146B6
:104560000A48FCF761F810BD80DE0020A8F00020AA
:1045700004B30020BCCA0020C8DE0020C8C600204A
:104580009CEA0020B0DE002090EE0020F0B0002079
:10459000324B1B6833F0FF0309D1304A127932B92C
:1045A0002F4BD3F801202D4BC3F8012002E013F567
:1045B000807F48D0294B9A684FF6FE739A4203D900
:1045C000274B9A68254B9A60244BDA684FF6FE73A6
:1045D0009A4203D9224BDA68204BDA601F4B93F8DA
:1045E0002830013BDBB2FD2B05D91D4B93F8282069
:1045F0001A4B83F82820194BDB6A323B194A934245
:1046000003D9174BDA6A154BDA62144B1B6B053B67
:10461000FA2B03D9124B1A6B104B1A630F4B5A6BC0
:1046200042F210739A4203D90D4B5A6B0B4B5A63EB
:104630000A4B9A6B42F210739A4203D9084B9A6B59
:10464000064B9A637047054B1B79FF2BB2D1044B85
:10465000D3F80120014BC3F80120ABE7A8F00020FC
:104660009C920308CECF070070B4054612B11646DF
:10467000002310E00020287070BC7047013E00232A
:10468000AB550120F8E7EC5401339BB2CA1812F87D
:10469000010C0028F0D0B342F0D8CC5CA4F1610248
:1046A000D2B2192AEFD8203CEC54EDE730B40546DD
:1046B00000231A4608E003EB830300EB43039BB29D
:1046C000303B9BB20132D2B2022A08D8A85C38B182
:1046D000A0F13004E4B2092CEDD9012000E0002063
:1046E000012808D052B1A85C68B9FF2B0FD900236C
:1046F0000B70012005E000230B7002E000230B701B
:10470000012030BC704700230B700120F9E70B70CB
:10471000F7E770B405460378302B03D00026334604
:10472000002414E04378782B03D0582B03D00026C4
:10473000F5E70226F3E70226F1E7A0F16102D2B223
:10474000052A12D8613840EA04140133DBB2721C26
:104750009A4213DBE85C90B1A0F13002D2B2092A90
:10476000EBD8303840EA0414EFE7A0F14102D2B2AE
:10477000052A0FD8413840EA0414E6E70020012852
:104780000AD063B1E85C70B9FE2C10D900230B701D
:10479000012006E00120F2E700230B7001E00B701E
:1047A000012070BC704700230B700120F9E70C70EA
:1047B000F7E72DE9F041864600240025002210E0AD
:1047C0004FEA8508A30048EA947C1B194CEB0504CA
:1047D000DE1844EB04073038341847EBE07501323B
:1047E000D2B2092A09D81EF8020038B1A0F130036C
:1047F000DBB2092BE4D9012000E0002001280BD016
:104800006AB11EF8020078B9012D08BF002C0FD341
:1048100000230B60012005E000230B6002E0002371
:104820000B600120BDE8F08100230B600120F9E757
:104830000C60F7E7F8B506460F4604463046FCF72D
:10484000DFFD3044A04212D339462046FDF732F84E
:10485000044670B13846FCF7D3FD25182046FCF716
:10486000CFFD421C29462046FCF786FDE6E70120E5
:10487000F8BD0020FCE7000030B587B004460D46C7
:10488000FCF7BEFD0F2802D9012007B030BD102271
:10489000214602A8FCF770FD002402A801E00134C3
:1048A000E4B2032C0BD801AA0749FDF7F7F840B191
:1048B0002919FFF7FBFE0028F1D00120E5E70020D1
:1048C000E3E70120E1E700BFE092030830B587B0DD
:1048D00004460D46FCF794FD0F2802D9012007B0CD
:1048E00030BD1022214602A8FCF746FD002402A894
:1048F00001E00134E4B2032C0BD801AA0749FDF70B
:10490000CDF840B12919FFF7D1FE0028F1D00120E0
:10491000E5E70020E3E70120E1E700BFE0920308BC
:1049200030B587B004460D46FCF76AFD0F2802D962
:10493000012007B030BD1022214602A8FCF71CFD63
:10494000002402A801E00134E4B2032C0BD801AA30
:104950000749FDF7A3F840B12919FFF7A7FE002882
:10496000F1D00120E5E70020E3E70120E1E700BF07
:10497000E092030870B586B004460E461546FCF773
:104980003FFD132802D9012006B070BD1422214634
:1049900001A8FCF7F1FC002401A801E00134E4B215
:1049A000052C0BD86A462946FDF778F840B1311935
:1049B000FFF7AFFE0028F1D00120E5E70020E3E794
:1049C0000120E1E710B5044606F0D2FAA04201D377
:1049D000001B10BD001B0138FBE700002DE9F04370
:1049E000ADF2844D002433E04FF47D7303FB05F5F5
:1049F000134600225A530DF2844DBDE8F083AC4AB1
:104A00004FF47D7303FB0423002283F8F32337E084
:104A10004FF47D7303FB05F5A54B00225A53EAE7DB
:104A20004FF47D7303FB05F5A14B00225A53E2E7D7
:104A300028B126A8FCF7E4FC042800F036834FF4E4
:104A40007D7303FB05F59A4B00225A530134A4B23F
:104A5000042CD0D825464FF47D7303FB04F3944A0D
:104A6000D35A002BF2D0052BBED9B3F57A7FC6D22C
:104A70008F494FF47D7202FB0412134400221A7313
:104A80004FF47D7303FB05F303F10801884A1144D9
:104A9000D25A043126A8FFF7E7FD864926A8FCF77D
:104AA00009FF06460028B3D000F1040826AF3846B7
:104AB000FCF7A6FCF61B861BF21E41463846FBF7A8
:104AC0004BFD7D493846FCF7F5FE0028A8D00022B2
:104AD000027026AE79493046FCF7ECFEB042A7D012
:104AE00026AE77493046FCF7E5FEB04275D026AEDB
:104AF00074493046FCF7DEFEB04200F09F8026AEDF
:104B000071493046FCF7D6FEB04200F0EF8026AE89
:104B10006E493046FCF7CEFEB04200F0518226AE20
:104B20006B493046FCF7C6FEB04288D1002886D0DB
:104B300026AF7C213846FCF75DFBC71B032F7FF4B3
:104B40007EAF461C63493046FCF7B4FE002800F0F7
:104B5000EC82B0427FF473AF7C213046FCF74AFB15
:104B6000861B072E7FF46BAF461C7C213046FCF77A
:104B700041FB00287FF463AF23A93046FFF77CFE9A
:104B800000287FF45CAF4FF47D73494A03FB052393
:104B9000D3F8022024AE24929B6825939DF88E3092
:104BA0009DF88F20019200939DF88D309DF88C2008
:104BB000494905A8FCF7B4FA05A8FCF721FC96E8DA
:104BC0000C0081B205A8FEF7C5FB0A2008F0A3FB84
:104BD000239A424BC3F8012031E700283FF42FAF5E
:104BE00026A8FCF70DFC06287FF429AF4FF47D734F
:104BF0002F4A03FB0523D3F8022024AE24929B689E
:104C000025936422364905A8FCF7B6FB05A8FCF7F6
:104C1000F7FB96E80C0081B205A8FEF79BFB082283
:104C200030493046FBF7CEFB002840F06A824FF453
:104C30007A7008F070FB06F063F900E700283FF493
:104C4000FEAE26A8FCF7DCFB07287FF4F8AE4FF495
:104C50007D73174A03FB0523D3F8022024AE249268
:104C60009B6825936422204905A8FCF785FB05A8CD
:104C7000FCF7C6FB96E80C0081B205A8FEF76AFBBC
:104C8000082218493046FBF79DFB002840F043827C
:104C9000642008F040FB00F045FD642008F03BFB79
:104CA00000F02AFD642008F036FB06F029F9C6E67C
:104CB00004B30020E49203089C970308EC920308D5
:104CC000F4920308FC920308049303080893030872
:104CD00014930308949603089C960308A8F00020F8
:104CE00028930308D89203084093030800283FF450
:104CF000A6AE4FF47D739C4A03FB0523D3F8022034
:104D000024AE32609B687360DFF8B08242469749F8
:104D100005A8FCF705FA05A8FCF772FB96E80C005D
:104D200081B205A8FEF716FB012008F0F4FA642210
:104D30008F4905A8FCF720FB05A8FCF761FB96E866
:104D40000C0081B205A8FEF705FB012008F0E3FA8C
:104D50006422884905A8FCF70FFB05A8FCF750FB67
:104D600096E80C0081B205A8FEF7F4FA012008F0DD
:104D7000D2FA814B0193CDF8008001227F4905A82A
:104D8000FCF7CEF905A8FCF73BFB96E80C0081B2D6
:104D900005A8FEF7DFFA012008F0BDFA784B019371
:104DA000CDF800800222774905A8FCF7B9F905A8DB
:104DB000FCF726FB96E80C0081B205A8FEF7CAFABC
:104DC000012008F0A8FA704B0193CDF8008003226F
:104DD0006E4905A8FCF7A4F905A8FCF711FB96E8B5
:104DE0000C0081B205A8FEF7B5FA012008F093FA8D
:104DF000674B0193CDF800800422664905A8FCF7B3
:104E00008FF905A8FCF7FCFA96E80C0081B205A81A
:104E1000FEF7A0FA604F0197CDF800803B460522CF
:104E20005E4905A8FCF77CF905A8FCF7E9FA96E8C5
:104E30000C0081B205A8FEF78DFA012008F06BFA8C
:104E40000197CDF800803B460622554905A8FCF79E
:104E500067F905A8FCF7D4FA96E80C0081B205A81A
:104E6000FEF778FA012008F056FA0197CDF8008095
:104E70003B4607224B4905A8FCF752F905A8FCF769
:104E8000BFFA96E80C0081B205A8FEF763FA01208C
:104E900008F041FA0197CDF800803B4608224249CC
:104EA00005A8FCF73DF905A8FCF7AAFA96E80C005E
:104EB00081B205A8FEF74EFA012008F02CFA0197FE
:104EC000CDF800803B460922384905A8FCF728F9AF
:104ED00005A8FCF795FA96E80C0081B205A8FEF744
:104EE00039FA012008F017FA0197CDF800803B4607
:104EF0000A222F4905A8FCF713F905A8FCF780FA48
:104F000096E80C0081B205A8FEF724FA012008F00B
:104F100002FA0197CDF800803B460B22254905A8EF
:104F2000FCF7FEF805A8FCF76BFA96E80C0081B2D6
:104F300005A8FEF70FFA012008F0EDF90197CDF86A
:104F400000803B460C221C4905A8FCF7E9F805A89F
:104F5000FCF756FA96E80C0081B205A8FEF7FAF9BC
:104F6000012008F0D8F96AE504B30020849303080F
:104F70009C930308E4930308EC920308009403084D
:104F8000FC9203081C940308F4920308409403085D
:104F9000089303085C94030814930308809403089F
:104FA000B0940308E09403080C9503083C950308AB
:104FB0006C9503089C950308D0950308E4920308B8
:104FC00000283FF43CAD26A8FCF71AFA08287FF425
:104FD00036AD9F4F6422394605A8FCF7CDF905A8E8
:104FE000FCF70EFA9B4E96E80C0081B205A8FEF77E
:104FF000B1F96422984905A8FCF7BEF905A8FCF7A9
:10500000FFF996E80C0081B205A8FEF7A3F94FF06E
:105010000009CDF8149005A808F06EF805A8FCF773
:10502000EFF996E80C0081B205A8FEF793F9642227
:10503000394605A8FCF7A0F905A8FCF7E1F996E8C0
:105040000C0081B205A8FEF785F96422834905A802
:10505000FCF792F905A8FCF7D3F996E80C0081B2A9
:1050600005A8FEF777F94FF064084246494605A8BF
:10507000FBF7DAFA05A808F09DF805A8FCF7C0F9D7
:1050800096E80C0081B205A8FEF764F9424639465D
:1050900005A8FCF771F905A8FCF7B2F996E80C0031
:1050A00081B205A8FEF756F9C9E44FF47D736C4A46
:1050B00003FB0523D3F8022024AE24929B6825939A
:1050C0006422684905A8FCF757F905A8FCF798F988
:1050D00096E80C0081B205A8FEF73CF908225D496C
:1050E0003046FBF76FF910B900F006FBA7E405A8FE
:1050F000FCF786F9574B0CCB81B205A8FEF72AF9CD
:10510000F2E705A8FCF77CF9524B0CCB81B205A85D
:10511000FEF720F98BE505A8FCF772F94D4B0CCB97
:1051200081B205A8FEF716F9B2E54F493046FCF703
:10513000C1FB002842D0B0427FF481AC7C213046D4
:10514000FCF758F8861B072E7FF479AC461C7C21AF
:105150003046FCF74FF800287FF471AC22A93046A6
:10516000FFF7B4FB00287FF46AAC4FF47D733C4A30
:1051700003FB0523D3F8022024AE24929B682593D9
:105180009DF88A309DF88B20019200939DF889301C
:105190009DF88820354905A8FBF7C2FF05A8FCF754
:1051A0002FF996E80C0081B205A8FEF7D3F80A2083
:1051B00008F0B1F8229A2E4B1A6140E42D4930468E
:1051C000FCF778FB002859D0B0427FF438AC7C2142
:1051D0003046FCF70FF8861B072E7FF430AC461CD8
:1051E0007C213046FCF706F800287FF428AC21A982
:1051F0003046FFF795FB00287FF421AC4FF47D7318
:10520000174A03FB0523D3F8022024AE24929B689F
:1052100025939DF886309DF88720019200939DF894
:1052200085309DF88420144905A8FBF779FF05A86F
:10523000FCF7E6F896E80C0081B205A8FEF78AF8BC
:105240000A2008F068F8219A094B5A61FFF7F7BB6A
:1052500004960308D8920308349603086896030856
:1052600004B3002018930308C4960308CC960308DF
:10527000A8F00020F0960308F8960308B8493046D5
:10528000FCF718FB002843D0B0427FF4D8AB7C2158
:105290003046FBF7AFFF861B082E7FF4D0AB461CD1
:1052A0007C213046FBF7A6FF00287FF4C8AB23A97A
:1052B0003046FFF7E1FA00287FF4C1AB4FF47D736D
:1052C000A84A03FB0523D3F8022024AE24929B684E
:1052D00025939DF88E309DF88F20019200939DF8C4
:1052E0008D309DF88C20A04905A8FBF719FF05A873
:1052F000FCF786F896E80C0081B205A8FEF72AF8BC
:105300000A2008F008F8239A984B1A62FFF797BB17
:1053100097493046FCF7CEFA00283FD0B0427FF4E0
:105320008EAB7C213046FBF765FF861B072E7FF492
:1053300086AB461C7C213046FBF75CFF00287FF4DF
:105340007EAB6422314605A8FCF716F81EA905A815
:10535000FFF72FFA00287FF472AB4FF47D73814A78
:1053600003FB0523D3F8022024AE24929B682593E7
:105370001E9A804905A8FBF7D3FE05A8FCF740F864
:1053800096E80C0081B205A8FDF7E4FF0A2007F0BB
:10539000C2FF1E9A754BDA60FFF751BB7649304663
:1053A000FCF788FA00283FD0B0427FF448AB7C215C
:1053B0003046FBF71FFF861B072E7FF440AB461CD1
:1053C0007C213046FBF716FF00287FF438AB6422BF
:1053D000314605A8FBF7D0FF1EA905A8FFF7E9F99C
:1053E00000287FF42CAB4FF47D735E4A03FB05234A
:1053F000D3F8022024AE24929B6825931E9A5F491D
:1054000005A8FBF78DFE05A8FBF7FAFF96E80C0050
:1054100081B205A8FDF79EFF0A2007F07CFF1E9AC7
:10542000524B9A60FFF70BBB55493046FCF742FAE6
:1054300000283FD0B0427FF402AB7C213046FBF71E
:10544000D9FE861B0A2E7FF4FAAA461C7C21304620
:10545000FBF7D0FE00287FF4F2AA6422314605A8AB
:10546000FBF78AFF1EA905A8FFF7A3F900287FF420
:10547000E6AA4FF47D733B4A03FB0523D3F80220D1
:1054800024AE24929B6825931E9A3E4905A8FBF7FB
:1054900047FE05A8FBF7B4FF96E80C0081B205A80B
:1054A000FDF758FF0A2007F036FF1E9A2F4B5A626D
:1054B000FFF7C5BA34493046FCF7FCF900283FF441
:1054C000BEAAB0427FF4BBAA7C213046FBF792FE15
:1054D000861B072E7FF4B3AA461C7C213046FBF7BF
:1054E00089FE00287FF4ABAA284A1FA93046FFF79F
:1054F00041FA00287FF4A3AA4FF47D73194A03FBF5
:105500000523D3F8022024AF24929B6825931FAE75
:105510009DF87E309DF87F209DF880109DF88100D9
:1055200003900291019200939DF87D309DF87C20BC
:10553000174905A8FBF7F4FD05A8FBF761FF97E8FD
:105540000C0081B205A8FDF705FF0A2007F0E3FE75
:10555000064B96E8030098619983FFF770BA00BF85
:105560001897030804B3002024970308A8F000202C
:105570005097030858970308789703088097030803
:10558000A0970308AC970308C8970308D0970308AF
:10559000D4970308F8B507460E4615460024AC42DA
:1055A0000BD236F81420002307EB4401012004F04D
:1055B000EBFF034610B90134F1E700231846F8BDAC
:1055C0002DE9F04387B0B0F1006F5AD306460F467D
:1055D000154600EB42022F4B9A4258D800F178440E
:1055E000B4F5803F09D24FEA9438C4F34F04C4F5B0
:1055F0008034A5421AD82C4618E0B4F5003F08D2F2
:1056000000F1774808F57F084FEA184808F10408C8
:10561000EBE700F1774808F57E084FEA584808F1B3
:105620000508E2E704F076FF2DE02C4604F05AFF6F
:10563000642005F0A3FC0023019301230293CDF81D
:105640000C80049302230593694601A805F048F8ED
:1056500081460028E6D1224639463046FFF79AFFB8
:10566000A5420BD908F1010807EB440726442D1B7E
:10567000B5F5803FD9D94FF40034D7E704F04AFF9D
:1056800001E04FF00109484607B0BDE8F0834FF054
:105690000109F8E7FEFF0F08F8B5144C144D04F1AA
:1056A00030072E4620686168A268E3680FC6103490
:1056B0003546BC42F5D1334620686168A26807C30D
:1056C0000B4B1B78FF2B03D0FEF762FF0020F8BDC9
:1056D000074C084D0FCD0FC40FCD0FC40FCD0FC415
:1056E00095E8070084E80700EEE700BF00000E0819
:1056F000A8F000209C92030810B500231C4601E08E
:105700000134E4B2022C07D81E2204490448FFF7F2
:1057100057FF03460028F3D1184610BDA8F000201B
:1057200000000E0830B4074C074D0FCD0FC40FCD4D
:105730000FC40FCD0FC495E8070084E807000020D0
:1057400030BC7047A8F000209C92030800B587B0D9
:105750008DF817000A230293012301930DF117021C
:10576000009200227821034812F0ACFB07B05DF8EC
:1057700004FB00BF3402012000B587B08DF817008C
:105780000A230293012301930DF117020092402294
:105790007821034812F096FB07B05DF804FB00BFC8
:1057A0003402012008B5AF20FFF7D0FF08BD08B5CF
:1057B000AE20FFF7CBFF08BD10B5634C002280215F
:1057C000204605F0C4F8642007F0A5FD01228021E1
:1057D000204605F0BCF8642007F09DFDFFF7E7FFC9
:1057E000044608B1204610BDFFF7B0FF044600286C
:1057F000F8D11020FFF7AAFF04460028F2D120209C
:10580000FFF7A4FF04460028ECD10120FFF79EFF1C
:1058100004460028E6D12120FFF798FF044600281F
:10582000E0D1FFF793FF04460028DBD17F20FFF78C
:105830008DFF04460028D5D12220FFF787FF0446BC
:105840000028CFD1FFF782FF04460028CAD10320E9
:10585000FFF77CFF04460028C4D18120FFF776FFC4
:1058600004460028BED14520FFF770FF04460028FB
:10587000B8D1A020FFF76AFF04460028B2D1A620C5
:10588000FFF764FF04460028ACD1A820FFF75EFFB5
:1058900004460028A6D11F20FFF758FF0446002821
:1058A000A0D1C820FFF752FF044600289AD1D32088
:1058B000FFF74CFF0446002894D1FFF747FF04464A
:1058C00000288FD1D520FFF741FF0446002889D159
:1058D0008020FFF73BFF0446002883D1D920FFF743
:1058E00035FF044600287FF47DAF2220FFF72EFF0E
:1058F000044600287FF476AFDA20FFF727FF04463E
:1059000000287FF46FAF1220FFF720FF0446002825
:105910007FF468AFDB20FFF719FF044600287FF40F
:1059200061AF2020FFF712FF044600287FF45AAF32
:105930008D20FFF70BFF044600287FF453AF15209E
:10594000FFF704FF4EE700BF000C024038B52120EE
:10595000FFF7FCFE034608B1184638BDFFF7F6FE18
:1059600003460028F8D17F20FFF7F0FE0346002809
:10597000F2D12220FFF7EAFE03460028ECD1FFF720
:10598000E5FE03460028E7D10320FFF7DFFE0346CC
:105990000028E1D1002501E00135ADB27F2DDBD833
:1059A0000024032CF8D8064B03EBC413585DFFF713
:1059B000E3FE03460028CFD10134A4B2F1E700BFD3
:1059C000F0AE002008B54FF4007200210248FAF74B
:1059D0002BFEFFF7BBFF08BDF0AE00202DE9F04124
:1059E0009DF818C0904250D8994251D87F2851D87C
:1059F0001F2951D890420AD27F2A28BF7F2296467B
:105A0000994206D21F2B28BF1F231F4637E0864628
:105A1000F6E70F4633E04FF0000800B30646802853
:105A200028BF8026BCF1010F1BD003F0070501241D
:105A300004FA05F5194A02EBC812945D24EA05043C
:105A4000945501339BB2BB4217D8072BE3D91F2BC8
:105A500002D84FEAD308E0E74FF00408DDE7064636
:105A6000E0E703F00705012404FA05F50B4A02EB11
:105A7000C812945D2C439455E3E7013080B2704521
:105A800001D80B46DFE7002000E00120BDE8F081EF
:105A90000120FBE70120F9E70120F7E7F0AE002045
:105AA0002DE9F04F83B090469DF830C09DF834202A
:105AB00000927F2800F2F9801F2900F2F880BCF1E3
:105AC0000C0F0CD0BCF1100F09D0BCF1180F06D090
:105AD000BCF1200F03D0BCF1300F40F0EA804FEA58
:105AE0005C0E1EFB03F510FA85F5ADB2013DADB2BB
:105AF00001EB0C0292B2013A92B215B17F2D28BF90
:105B00007F2512B11F2A28BF1F220646AE4200F28F
