:020000040800F2
:1000000000000220052E0108A95A0008AD5A000878
:10001000C15A0008C35A0008C55A00080000000071
:10002000000000000000000000000000F19B00083C
:10003000C75A000800000000819C0008E59C0008E9
:10004000552E0108552E0108552E0108552E010880
:10005000552E0108552E0108C95A0008CF5A00082C
:10006000D55A0008DB5A0008E15A0008552E01084D
:10007000552E0108552E0108552E0108552E010850
:10008000E95A0008F55A0008552E0108552E0108B6
:10009000552E0108552E0108552E0108115B000848
:1000A000552E01082D5B0008552E0108552E01081C
:1000B000395B0008455B0008515B0008552E0108BC
:1000C000552E0108552E0108552E0108552E010800
:1000D000552E0108552E01085D5B0008552E0108BC
:1000E000552E0108552E0108552E0108552E0108E0
:1000F000552E0108552E0108B15B0008552E010848
:10010000552E0108552E0108BD5B0008552E01082B
:10011000552E0108552E0108C95B0008D55B000863
:10012000552E0108552E0108552E0108552E01089F
:10013000552E0108E15B0008552E0108552E0108D7
:10014000552E0108552E0108552E0108552E01087F
:10015000552E0108552E0108552E0108552E01086F
:10016000552E0108552E0108552E0108552E01085F
:10017000552E0108552E0108552E010800000000DB
:08018000552E0108552E01085F
:1001900010B5054C237833B9044B13B10448AFF3C1
:1001A00000800123237010BD5403002000000000D4
:1001B0006844010808B5034B1BB103490348AFF37A
:1001C000008008BD000000005803002068440108BA
:1001D000034613F8012B002AFBD1181A0138704787
:1001E00001F0FF01102A2BDB10F0070F08D010F8E8
:1001F000013B013A8B422DD010F0070F42B3F6D1EC
:10020000F0B441EA012141EA014122F007047FF004
:1002100000070023F0E80256083C85EA010586EA5B
:10022000010685FA47F5A3FA87F586FA47F6A5FA97
:1002300087F68EB9EED1F0BC01F0FF0102F00702A3
:1002400032B110F8013B013A83EA010313B1F8D14E
:100250000020704701387047002D06BF354603382F
:10026000073815F0010F07D1013015F4807F02BF68
:10027000013015F4C03F0130F0BC0138704700BFB9
:1002800053B94AB9002908BF00281CBF4FF0FF31FD
:100290004FF0FF3000F06EB9ADF1080C6DE904CEFF
:1002A00000F006F8DDF804E0DDE9022304B0704751
:1002B0002DE9F047089D04468C46002B40F08380D2
:1002C0008A42174647D9B2FA82F242B1C2F12000FF
:1002D00024FA00F09140974040EA010C94404FEA24
:1002E0001748230CBCFBF8F61FFA87FE08FB16C163
:1002F00043EA014306FB0EF1994209D9FB1806F1C6
:10030000FF3080F01981994240F21681023E3B4451
:100310005B1AA4B2B3FBF8F008FB103344EA0344C1
:1003200000FB0EFEA64509D93C1900F1FF3380F011
:100330000581A64540F2028102383C4440EA06406D
:10034000A4EB0E0400261DB1D4400023C5E90043F0
:100350003146BDE8F08702B9FFDEB2FA82F2002A28
:1003600050D1CB1B4FEA174E1FFA87F80126B3FB7B
:10037000FEFC210C0EFB1C3341EA034108FB0CF38D
:100380008B4207D979180CF1FF3002D28B4200F270
:10039000E9808446C91AA3B2B1FBFEF00EFB10112E
:1003A00043EA014408FB00F8A04507D93C1900F1D5
:1003B000FF3302D2A04500F2D9801846A4EB08040E
:1003C00040EA0C40BFE78B4209D9002D00F0B18014
:1003D0000026C5E9000130463146BDE8F087B3FA92
:1003E00083F6002E4AD18B4202D3824200F2B880BB
:1003F000841A61EB030101208C46002DA8D0C5E9C9
:10040000004CA5E7C2F1200320FA03F6974001FA59
:1004100002F04FEA174ED9403043030CB1FBFEF611
:100420001FFA87F80EFB161143EA014306FB08F199
:10043000994204FA02F409D9FB1806F1FF3C80F056
:100440008D80994240F28A80023E3B445B1A81B221
:10045000B3FBFEF00EFB103341EA034100FB08F34F
:100460008B4207D9791800F1FF3C73D28B4271D9C6
:1004700002383944CB1A40EA064678E7C6F1200C28
:1004800003FA06F422FA0CF31C4320FA0CF701FAE3
:1004900006F34FEA144E21FA0CF11F433B0CB1FB5B
:1004A000FEF91FFA84F80EFB191143EA014109FB1A
:1004B00008FA8A4502FA06F200FA06F308D961182A
:1004C00009F1FF3048D28A4546D9A9F102092144F1
:1004D000A1EB0A01BFB2B1FBFEF00EFB101147EA1F
:1004E000014700FB08F8B84507D9E71900F1FF31CB
:1004F0002ED2B8452CD90238274440EA0940A7EB50
:100500000807A0FB02894F45C64649461AD317D0B3
:100510005DB1B3EB0E0267EB010707FA0CFCF2408A
:100520004CEA0202F740C5E9002700263146BDE843
:10053000F0872E4628460BE70646E9E61846FDE614
:100540004345E5D2B8EB020E69EB04010138DFE761
:100550000846D2E760468DE78146B9E7664675E70B
:1005600030464AE7ACF1020C394413E702383C4408
:1005700024E700BF704700BF2DE9F74F9846BDF84C
:1005800030901646002A50D0294BDFF8ACB0174601
:1005900000259A461C784FF47D7262433BF8022096
:1005A000C2B97A899AB14FF47D70511900FB045099
:1005B000B1F57A7F00F10C0028BFC5F57A72796831
:1005C0000192584412F0F4FC019A194B15443F680B
:1005D000002FDFD14FF47D71D8F8003061430BEB71
:1005E00001020134180AE4B29370D070042C4FEA6F
:1005F00013404FEA1363537184BF00238AF800301D
:100600000C4B1071C2F808901B68D8F800202BF82A
:100610000150304698BF8AF800405A60A3F8149001
:1006200003B0BDE8F04F0FF0EDBD03B0BDE8F08FB3
:10063000740300207003002038B3002090F831309C
:100640005B0703D5024B186810F00EBA704700BF65
:1006500090930120024B93F83100C0F38000704763
:100660006C02012070B5334B0021D3F801401D69A5
:100670008EB0084609F08AFDC4F30740C4F307238F
:10068000000240EA034040EA04602B0E2A49C5F309
:10069000072240EA146443EA056324BA43EA0243AA
:1006A000C5F307450C6043EA05230402050A234A03
:1006B00004F47F0405F47F451BBA2C43136044EA1D
:1006C00010601F4B1F4C40F0807018601E48029055
:1006D0001E48019000200090204610F027F9204687
:1006E00010F0BCF994F831305B0720461FD510F0AC
:1006F000BBF917491348174E174D10F03DFA002368
:10070000012105A8CDE9053309F044F8134BC6E9EA
:10071000004018600FCD07AC0FC495E8070084E8CF
:100720000700314607A808F0A5FF0EB070BD10F015
:10073000BFF9DEE7DCF00020A4020120B0020120B6
:10074000B40201206C020120F9A0000899540008AD
:100750000556000860020120804401082848002056
:10076000034B5B680360034B1B685B8A4360704705
:100770006C0201207003002037B501900CF0C4FC1E
:100780000B4D286090B1019A0A490CF009FB0A4907
:100790000446002228680CF07FFC14B128680CF095
:1007A0008DFC201E18BF012003B030BD0120FBE7E7
:1007B0007003002074B2010879050008012838B5DB
:1007C0000C4615460FD002280FD1102000221146EA
:1007D0000AF090FD0649286022460AF035FE0038EE
:1007E00018BF012038BD2020F0E70120FAE700BF44
:1007F00074B2010808B5FF210AF04CFE003818BF9A
:10080000012008BD08B50AF001FF003818BF01201B
:1008100008BD2DE9FF410C46002301A90746ADF8AC
:1008200000300BF037F8002837D1A04628F80C0B21
:1008300001986A4602A90AF0E9FC06462088BDF83C
:100840000050C0F57A739D4207D82A460299404469
:1008500012F0AEFB22881544258001980AF002FDB3
:100860000130E5D100230DF1020203A938460AF058
:10087000B9FD039BBDF80C2062801A0C1B0E63713E
:10088000BDF8023001982271A3600AF0ADFC301E61
:1008900018BF012004B0BDE8F08101980AF0A4FC63
:1008A0000120F7E707B50023009331F80C2B012353
:1008B0000AF08EFE003818BF012003B05DF804FB7B
:1008C000F0B585B00C46694681E80C0006460392F7
:1008D000FFF7C0FEF8B1114F3B68E3B14FF4C172AE
:1008E000214636200FF0F6FC054690B122463146EF
:1008F0000FF00CFFBDF80430386803AA29460CF04D
:100900008FFB0446284624B90FF07CFC204605B036
:10091000F0BD0FF077FC0120F9E700BF7003002065
:1009200070B501F0CDFF01F0C5FF02F0B5F80B4E38
:100930000B4D0C4C33786BB102F032FB0121284691
:1009400006F07BFB204606F036FE4FF47A7008F086
:10095000BEFEEFE702F0ECFAF0E700BFEA05002088
:10096000000C024054020120F8B51C4D1C4E1D4FD6
:100970000224642008F0ABFE042C29DC631C052B48
:1009800022D8DFE803F01D2123031217164B186845
:1009900008F0C6FF15490C22384612F0FBFA002871
:1009A00014BF4FF0FF340324E3E7306808F0B8FFCA
:1009B0000424DEE7286808F0B3FF4FF47A74D8E720
:1009C000002008F07FFED4E70024D2E70224D0E71D
:1009D000B4F57A7F08BF4FF0FF34CAE718F1002062
:1009E0004CF10020107AFF1F20F10020D0550108A3
:1009F0002DE9F347DFF8C491674F4FF064080125F4
:100A0000082D0ADC6B1C092B00F2C280DFE803F022
:100A10000FC01C27414E617881BBB5F5807F00F087
:100A2000B58008DCFF2D40F0B3804FF4FA784046E3
:100A300008F04DFEE4E7B5F57A7FF8D0B5F5FA6F2A
:100A400018BF4FF0FF35F2E7FFF70CFE4FF47A7056
:100A500008F03DFE06F074FD02250446E7E7FFF7C7
:100A6000F9FD68B9204601F0E3F841F28833984275
:100A7000DDD94A4B18680028D9D008F0D5FED6E752
:100A8000474B186808F04CFF06F05AFD0325044652
:100A9000CDE7444B9889FFF76FFE434B1870002851
:100AA000C5D106F04DFD04250446C0E7204601F0FF
:100AB000BFF8B0F57A7FBAD93C4B186808F030FF20
:100AC0003B4B186808F02CFF06F03AFD052504465C
:100AD000ADE7344B4A4619890220FFF76FFE324BCF
:100AE00018700028A3D1334B186808F019FF324B57
:100AF000186808F015FF06F023FD0625044696E762
:100B0000294B1B78002B92D106F01AFD07250446CD
:100B10008DE7D9F80000002301936423036201A943
:100B2000FFF770FE204B1870002880D13B68C3B1DE
:100B3000FB68ABB13B7A012B1BD106464FF00C0A88
:100B40000AFB06FA57F80A0028B10AF04DFD57F8DB
:100B50000A000AF039FC0C204643019BBB5166E7B2
:100B600001230C225343FA180199F9500023137200
:100B70005DE73E7D012EE1D001980AF035FD019838
:100B80000AF022FC53E74FF0010850E701254EE739
:100B90004FF0FF354BE700BFE4DE002048F10020B6
:100BA00028F10020DCF000207503002024F1002053
:100BB00030F100203CF1002044F1002020AF002063
:100BC0002DE9F041A0B006F0BBFC08F04CFD364F1B
:100BD000364CDFF8E880049001256426022D13D0FE
:100BE000032D5CD0012D0AD16422002107A812F048
:100BF00007FA06F0A5FC642008F069FD02253146DD
:100C000004A808F0A5FEE9E705A8FFF7A9FD9DF8EF
:100C1000173001939DF816309DF814200093394643
:100C20009DF8153007A812F0F3FD07A8FFF7D0FADA
:100C300094E80C0081B207A8FFF742FE0A2008F0F2
:100C400046FD069A414607A812F0E2FD07A8FFF705
:100C5000BFFA94E80C0081B207A8FFF731FE144AEE
:100C60001449537F0393137F0293D37E0193937EA2
:100C70000093537E127E07A812F0CAFD07A8FFF763
:100C8000A7FA94E80C0081B207A8FFF719FE0A4BF7
:100C9000186808B108F0C8FD03250126AFE70A204F
:100CA00008F015FDABE700BF4046010818560108E3
:100CB000DCF000206846010848F100205546010894
:100CC00008B500F0BFFF0A2008F001FDF9E713B5F1
:100CD0000224642008F0FBFCA31E042BF9D8DFE8F3
:100CE00003F0030C131E23006A4650210220FFF775
:100CF00065FD0028EDD10324EBE70098FFF77AFDAE
:100D00000028F8D10424E4E7009801A9FFF77AFD50
:100D10000028F7D1019BC8221A620524D9E701985F
:100D200000F032FA0624D4E701980AF05DFC01983D
:100D30000AF04AFBE6E700007FB50C4B02AA03F17C
:100D40000806154618685968144603C40833B342A8
:100D50002246F7D118681B792060237101A9284623
:100D600000F0D8FE642008F0B2FCF7E790460108D6
:100D70002DE9F047704C714DDFF8F8819EB00746C1
:100D800004F10C094146284612F0F4FD06460028FD
:100D900000F0CD80421B023292B2294622804846A2
:100DA000013212F0ADFD66494846B51C12F0E2FD75
:100DB000002848D16349644812F0DCFD002844D182
:100DC0006249614812F0D6FD002840D160495E4872
:100DD00012F0D0FD00283CD15E495B4812F0CAFDFC
:100DE000002838D15C49584812F0C4FD002834D19D
:100DF0005A49554812F0BEFD88BB5949524812F075
:100E0000B9FD002879D008263E21284612F063FD5E
:100E10008246002800F08B80421B013229464A4856
:100E200012F083FD20884F4A5044451B0135023E95
:100E300025800AF1010A062E13D8DFE806F01D24EA
:100E40002B69636B76000126DEE70226DCE70326CA
:100E5000DAE70426D8E70526D6E70626D4E70726EC
:100E6000D2E713790193D3780093937852783E496F
:100E700005A812F0CDFC1BE0D37C0193937C00937A
:100E8000537C127CF3E7D37D0193937D0093537DD4
:100E9000127DECE7537F0393137F0293D37E01937C
:100EA000937E0093537E3149127E05A812F0B0FC68
:100EB00005A8FFF78DF905A90246234812F035FD74
:100EC00005A8FFF785F92388184420803C21504667
:100ED00012F001FD064650B3414612F04BFD0546A7
:100EE00028B3821B02321848314612F01EFD2288B8
:100EF0002A44931B02332380023521463846FFF7EC
:100F0000D1FC3FE7D2681A4905A812F081FCCFE76F
:100F10009268F8E792F82330019392F82230009318
:100F200092F8213092F82020A1E7526AEBE70020E6
:100F30001EB0BDE8F08700BFD0EA0020BE47010820
:100F40009D460108AA460108DCEA0020B8460108CF
:100F5000C2460108D0460108DB460108E646010802
:100F6000F2460108DCF00020004701080C470108A8
:100F70000947010869560108F0B5744DA1B03F2139
:100F8000284612F0A8FC002800F0DD8035F80C6C33
:100F9000441C73199C4280F0D6806D49204612F0A3
:100FA000E9FC50BB651B751BA8B20023235469499B
:100FB000694D6A4E6A4F204600F08CFD20466A4615
:100FC000294612F016FD0446002800F0BD800822D4
:100FD000314612F0BDFC98B904F10801642207A85B
:100FE00012F08EFC01A907A800F094FD18B95D4B22
:100FF000019AC3F801200024E0E7001B80B2D4E787
:1010000008223946204612F0A3FC78B904F1080101
:10101000642207A812F074FC02A907A800F09EFD44
:101020000028E8D14F4B029A1A61E4E74E490822A2
:10103000204612F08DFC78B904F10801642207A85B
:1010400012F05EFC03A907A800F0ACFD0028D2D185
:10105000444B039A5A61CEE744490922204612F0D4
:1010600077FCA0B904F10901642207A805AC12F0CD
:1010700047FC3F4A214607A800F0B8FD0028BAD136
:1010800094E803003B4B43F8040B1980B3E73A495B
:101090000E22204612F05CFC78B904F10E016422A5
:1010A00007A812F02DFC04A907A800F0ECFC00280A
:1010B000A1D12C4B049A9A609DE730490E2220461C
:1010C00012F046FC78B904F10E01642207A812F070
:1010D00017FC04A907A800F0D6FC00288BD1214BEF
:1010E000049ADA6087E726490922204612F030FC8C
:1010F00080B904F10901642207A812F001FC01A9DA
:1011000007A800F007FD00287FF475AF154B019A82
:101110001A6270E71B490B22204612F019FC0028C6
:101120007FF469AF04F10B01642207A812F0E8FB19
:1011300004A907A800F0A7FC00287FF45CAF094BC6
:10114000049A5A6257E7012021B0F0BD08C7002079
:101150002A47010890B601083047010832470108C4
:101160003B470108DCF00020444701084D470108D7
:1011700057470108F4F00020594701086847010863
:10118000774701088147010810B514490446FFF765
:1011900040FB10BB20460AF02AFAE8B91049114872
:1011A000062212F0D5FB20B92046BDE81040FFF71B
:1011B000DFBD0D490B48142212F0CAFB0028F3D002
:1011C0000A490848142212F0C3FB28B92046FFF749
:1011D000D3FE01F01FFBE7E7012010BDFCC6002095
:1011E0008D47010808C7002094470108A947010856
:1011F00030B5002495B02146142203A8CDE90A4455
:101200000C9411F0FDFE1D4B01941A6C42F08052BB
:101210001A641B6C03F080530193019B184B0294DA
:101220001A6842F480421A601B6803F480430293F8
:10123000029B09224FF48033CDE9082302250123C4
:10124000A822CDE90D354FF48001042308A8CDE98B
:101250000F13CDE91125139305F09EF90F23CDE966
:1012600003354FF4A0504FF48053CDE90603052118
:1012700003A8059405F066FB15B030BD00380240A8
:101280000070004008B506F035F9FFF7B1FF00F037
:10129000DBFA01F095FA00F091F810F071FF03F01D
:1012A00081FF04F0D9FA10F08DFF11F0F1FA04F08B
:1012B000F5FA04F02FFA04F0F9F904F097FA04F0C3
:1012C0005FFA04F00FFB144806F075F9134B9A68A7
:1012D00042F480529A60DA6842F00102DA609A6859
:1012E00042F001029A609A6842F002029A609A689B
:1012F00042F004029A609A6842F008029A609A6882
:1013000042F020029A60DA6842F00202DA6000F0ED
:1013100067F908F0A3F9FEE754020120002004E079
:1013200002681C4B9A4210B5044601D106F0FCF845
:101330002268194B9A4203D11849122003F016FC77
:101340002268174B9A4203D11449342003F00EFC53
:101350002268144B9A4203D11349122003F006FC71
:101360002268124B9A4203D10F49342003F0FEFB4E
:101370002368B3F1804F02D10D4802F0F1FB2268DF
:101380000C4B9A4204D1BDE81040094802F00CBC55
:1013900010BD00BF0000014000040040EC00002030
:1013A000000800400014004000000020000401403C
:1013B00054F10020000C0040704700002DE9F0437C
:1013C0008DB01422002107A811F01AFE00246F4BE3
:1013D00001941A6B6E4E6F4FDFF8C48142F0100219
:1013E0001A631A6B02F010020192019A02941A6BAE
:1013F00042F004021A631A6B02F004020292029A8B
:1014000003941A6B42F080021A631A6B02F0800296
:101410000392039A04941A6B42F001021A631A6B46
:1014200002F001020492049A05941A6B42F002023F
:101430001A631A6B02F002020592059A06941A6B5F
:1014400042F008021A631B6B03F00803069322465E
:101450003046C121069B05F0EBFD2246384643F29B
:10146000830105F0E5FD3F2307A94B4809940325B7
:10147000CDE9073805F0F8FC4FF6C07307A94648D8
:101480000994CDE9073505F0EFFC4FF60C7307A979
:101490003046CDE907354FF00109099405F0E4FC29
:1014A000C12307A93046CDE90739A6F58066CDE905
:1014B000094405F0D9FC49F6797307A9374809941E
:1014C000CDE9073505F0D0FC4CF21F4307A93046A3
:1014D000CDE90735099405F0C7FC4CF61C7307A944
:1014E0003846CDE90735099405F0BEFC43F2830385
:1014F00007A93846CDE90739CDE9094405F0B4FC20
:101500002023CDE9073407A902233046099305F0CB
:10151000ABFC4FF4407307A93046CDE90738099476
:1015200005F0A2FC22460521062005F091FF0620C9
:1015300005F0C0FF22460521072005F089FF07209E
:1015400005F0B8FF22460521082005F081FF08209C
:1015500005F0B0FF22460521092005F079FF09209A
:1015600005F0A8FF224605210A2005F071FF0A2098
:1015700005F0A0FF22460521172005F069FF17207E
:1015800005F098FF0DB0BDE8F08300BF00380240C1
:1015900000080240000C024000100240000002401F
:1015A0000000311008B5012008F091F8FBE708B5FC
:1015B000012008F08CF8FBE708B5012008F087F857
:1015C000FBE7704700207047034B0360034B0B6041
:1015D00080231360704700BF780500207803002047
:1015E0002DE9F04FE3B00025012101A8CDE9015517
:1015F00008F0D0F8844C854BDFF83CB218604FF00F
:10160000FF3108F0EBF894E80F0003AE86E80F0016
:101610002946304608F00CF97D4BDFF820A218600F
:1016200004F110070FCF07AE0FC697E8070086E852
:101630000700294607A808F01DF8764BDFF800924E
:10164000186004F12C070FCF0EAE0FC697E8070005
:1016500086E8070029460EA808F00CF86E4BDFF864
:10166000E481186004F148070FCF15AE0FC697E864
:10167000070086E80700294615A807F0FBFF04F1DC
:101680006407CBF800000FCF1CAE0FC697E8070029
:1016900086E8070029461CA807F0ECFF04F1800744
:1016A000CAF800000FCF23AE0FC697E8070086E800
:1016B0000700294623A807F0DDFF04F19C07C9F8BD
:1016C00000000FCF2AAE0FC697E8070086E8070094
:1016D00029462AA807F0CEFF04F1B807C8F8000091
:1016E0000FCF31AE0FC697E8070086E807002946FE
:1016F00031A807F0BFFF494F04F1D40C3860BCE8B3
:101700000F0038AE0FC69CE8070086E807002946A0
:1017100038A807F0AFFF424B04F1F00C1860BCE8AA
:101720000F003FAE0FC69CE8070086E80700294679
:101730003FA807F09FFF3B4A04F5867C1060BCE899
:101740000F0046AE0FC69CE8070086E80700294652
:1017500046A807F08FFF344E04F5947E3060BEE853
:101760000F000DF59A7CACE80F009EE807008CE8AE
:10177000070029464DA807F07DFF2C4B04F5A27EFB
:101780001860BEE80F000DF5A87CACE80F009EE8DD
:1017900007008CE80700294654A807F06BFF244B8C
:1017A00004F5B07418600FCC0DF5B67CACE80F00F2
:1017B00094E807008CE8070029465BA807F05AFF69
:1017C0001C4B1860DBF8000008F0A4F8DAF8000001
:1017D00008F0A0F8D9F8000008F09CF8D8F800004C
:1017E00008F098F8386808F095F80D4B186808F07C
:1017F00091F8306808F08EF80A4A106808F08AF804
:1018000063B0BDE8F08F00BF9C44010848F10020A0
:1018100050F1002038F1002034F100203CF100208C
:1018200044F1002018F1002028F1002040F10020B0
:101830002CF100201CF100204CF1002020F10020B0
:1018400024F1002030F1002008B5302200211C488E
:1018500011F0D6FB3C2200211A4811F0D1FB41F2D5
:10186000C4320021184811F0CBFB41F2C4320021F0
:10187000164811F0C5FB4FF4FD620021144811F029
:10188000BFFB4FF47D720021124811F0B9FB4FF4F9
:101890007D720021104811F0B3FB182200210F487F
:1018A00011F0AEFB4FF4067200210D4811F0A8FBB9
:1018B000BDE808400B484FF40472002111F0A0BBB2
:1018C000B4DE0020DCF0002038B30020F0CA002095
:1018D000FCDE0020FCC60020D0EA0020E4DE002070
:1018E000C4EE002024B10020284B1A6832F0FF0219
:1018F00045D11A7922B9264AD2F80120C3F801202D
:1019000099684FF6FE72914288BF214AD96884BF18
:1019100092689A604FF6FE72914288BF1C4A1D4938
:1019200084BFD268DA6093F82820013AD2B2FD2A47
:1019300082BF174A92F8282083F82820DA6A323AC0
:101940008A4288BF124A596B84BFD26ADA621A6B24
:10195000053AFA2A82BF0E4A126B1A6342F21072DB
:10196000914288BF0A4A996B84BF526B5A6342F214
:101970001072914282BF064A926B9A63704712F5C9
:10198000807FBDD11A79FF2ABAD1B4E7DCF00020FC
:10199000DC550108CECF070030B51AB902701446E5
:1019A000204630BD0023CC5CA4F16105192D98BF01
:1019B000203CC4545C1CA3B211FA84F414F8014C0A
:1019C000002CEDD09A42EED21044002300F8013CE6
:1019D0000124E5E730B500242346025DE5B29AB163
:1019E000A2F13005092D11D803EB830302EB430369
:1019F0000134303B032C9BB2EFD1C27832B9FF2BBC
:101A000004D80B70002004E0002DF8D100230B70E7
:101A1000012030BDF0B50378302B0FD1437803F0AF
:101A2000DF03582B14BF0023022300225E1C9E42BA
:101A300006DAEBB900230B700120F0BD0023F4E7B8
:101A4000C45CECB1A4F13005EFB2092F04D845EA2B
:101A500002120133DBB2EAE7A4F16105EFB2052F10
:101A6000F5D9413CE5B2052DE4D844EA0212F0E78D
:101A7000C35C002BDED1FE2ADCD80A700020DCE734
:101A8000002BF8D1D6E7F0B50022002400234FF058
:101A90000A0C055DE6B2BDB1303DEEB2092E15D897
:101AA000A2FB0C6772190CFB037704F1010447EBEE
:101AB000E5730A2CEDD1807A40B9012B08BF002ACA
:101AC00004D20A60002004E0002EF6D100230B604F
:101AD0000120F0BDF8B505460E4604462846FEF73F
:101AE00077FB2844844212D82046314611F042FF49
:101AF000044668B13046FEF76BFB07462046FEF70A
:101B000067FBE119421C204611F0FAFEE6E70120CE
:101B1000F8BD000070B586B004460D46FEF758FBD0
:101B20000F2817D82146102202A80B4E11F0E8FE0C
:101B3000002402AB01AA3146184611F05AFF48B101
:101B40002919FFF747FF28B90134042C0346F1D1C6
:101B500006B070BD0120FBE7A88B010870B586B008
:101B600004460D46FEF734FB0F2817D821461022F5
:101B700002A80B4E11F0C4FE002402AB01AA3146AC
:101B8000184611F036FF48B12919FFF723FF28B98D
:101B90000134042C0346F1D106B070BD0120FBE7EF
:101BA000A88B010870B586B004460D46FEF710FB01
:101BB0000F2817D82146102202A80B4E11F0A0FEC4
:101BC000002402AB01AA3146184611F012FF48B1B9
:101BD0002919FFF7FFFE28B90134042C0346F1D17F
:101BE00006B070BD0120FBE7A88B010870B586B078
:101BF00004460D461646FEF7EBFA132816D8214682
:101C0000142201A811F07CFE002401AB6A46314683
:101C1000184611F0EEFE48B12919FFF7FBFE28B96E
:101C20000134062C0346F1D106B070BD0120FBE75C
:101C300010B5044605F084FCA04236BFE443001B07
:101C4000001910BD2DE9F04FB44DB54EDFF8DC8220
:101C5000ADF2844D002735F80C2C002A00F0EF80FF
:101C6000052A4FF0000108D84FF47D735F43AD4B58
:101C7000D9530DF2844DBDE8F08FB2F57A7F37BFAE
:101C8000A84885F8E7134FF47D7303FB070338BFBB
:101C90009B180DF1980938BF197348462946FFF77C
:101CA0007BFE9F49484611F065FE044628B94FF473
:101CB0007D735F439B4BD853DBE74846FEF788FABA
:101CC000A9EB040103390A18211D484611F07EF9D9
:101CD0009549484611F04EFE28B94FF47D735F4395
:101CE000904BD853C5E7002404709049484611F042
:101CF00041FE814574D0DFF85CA24846514611F0A0
:101D000039FE814500F0A280DFF84CB248465946C2
:101D100011F030FE814500F0CA808549484611F037
:101D200029FE814500F01C818249484611F022FEBF
:101D3000814500F061828049484611F01BFE48450C
:101D4000824679D17C2111F0C6FDA0EB0A0ABAF1D6
:101D5000030F71D1441C7949204611F00BFE8246D5
:101D6000002800F0B582A04266D17C2111F0B3FDBD
:101D7000A0EB0A0ABAF1070F5ED1441C7C21204671
:101D800011F0A9FD002857D105A92046FFF7C2FE92
:101D9000002851D155F80A3C0B9355F8043C0C939C
:101DA0009DF8173001939DF816309DF81420644972
:101DB00000930DA89DF8153011F02AFD0DA8FEF72F
:101DC00007FA0BAC94E80C0081B20DA8FEF778FD81
:101DD0000A2007F07CFC5B4B059AC3F801202BE03E
:101DE000FEF7F6F9042827D155F80A3C56490B931B
:101DF000642255F8043C0C930DA811F081FD0DA848
:101E0000FEF7E6F90BACDFF854A181B294E80C00C0
:101E10000DA8FEF755FD08225146204611F0BAF8EC
:101E200040B10DA8FEF7D4F99AE80C0081B20DA8D4
:101E3000FEF746FD00F0EEFC002325F80C3C0137D0
:101E4000052F05F57D757FF406AF12E7FEF7C0F9A3
:101E50000628F1D155F80A3C3C490B93642255F809
:101E6000043C0C930DA811F04BFD0DA8FEF7B0F942
:101E70000BACDFF8E8A081B294E80C000DA8FEF7E7
:101E80001FFD08225146204611F084F840B10DA8EC
:101E9000FEF79EF99AE80C0081B20DA8FEF710FD3E
:101EA0004FF47A7007F013FC05F012FBC4E7FEF75D
:101EB0008FF90728C0D155F80A3C25490B936422B5
:101EC00055F8043C0C930DA811F01AFD0DA8FEF76F
:101ED0007FF90BACDFF884A081B294E80C000DA868
:101EE000FEF7EEFC08225146204611F053F840B1AF
:101EF0000DA8FEF76DF99AE80C0081B20DA8FEF767
:101F0000DFFC642007F0E3FB00F098FC642007F09E
:101F1000DEFB00F07FFC6420C4E700BF44B3002078
:101F20002056010838B300206956010825560108DB
:101F3000395601083C56010845560108A3590108C5
:101F4000AB590108DCF0002049560108575601083A
:101F50006C5601082A560108315601081856010826
:101F60000BAC55F80A3C93492360324655F8043CC3
:101F700063600DA811F04CFC0DA8FEF729F994E858
:101F80000C0081B20DA8FEF79BFC012007F09FFB1F
:101F9000894964220DA811F0B3FC0DA8FEF718F9C9
:101FA00094E80C0081B20DA8FEF78AFC012007F02E
:101FB0008EFB824964220DA811F0A2FC0DA8FEF749
:101FC00007F994E80C0081B20DA8FEF779FC012016
:101FD00007F07DFB43467A490122CDE900680DA850
:101FE00011F016FC0DA8FEF7F3F894E80C0081B28E
:101FF0000DA8FEF765FC012007F069FB5B467149FF
:102000000222CDE9006B0DA811F002FC0DA8FEF72D
:10201000DFF894E80C0081B20DA8FEF751FC012016
:1020200007F055FB5346CDE9006A6749DFF8C4A1C4
:1020300003220DA811F0ECFB0DA8FEF7C9F894E8F7
:102040000C0081B20DA8FEF73BFC012007F03FFB1E
:102050005E4B5F49CDE9006304220DA811F0D8FB67
:102060000DA8FEF7B5F894E80C0081B20DA8FEF7B4
:1020700027FC534657490522CDE9006A0DA811F007
:10208000C7FB0DA8FEF7A4F894E80C0081B20DA8D8
:10209000FEF716FC012007F01AFB53464E490622B4
:1020A000CDE9006A0DA811F0B3FB0DA8FEF790F87A
:1020B00094E80C0081B20DA8FEF702FC012007F0A5
:1020C00006FB534645490722CDE9006A0DA811F0E9
:1020D0009FFB0DA8FEF77CF894E80C0081B20DA8D8
:1020E000FEF7EEFB012007F0F2FA53463C490822C6
:1020F000CDE9006A0DA811F08BFB0DA8FEF768F87A
:1021000094E80C0081B20DA8FEF7DAFB012007F07D
:10211000DEFA534633490922CDE9006A0DA811F0D1
:1021200077FB0DA8FEF754F894E80C0081B20DA8D7
:10213000FEF7C6FB012007F0CAFA53462A490A22D5
:10214000CDE9006A0DA811F063FB0DA8FEF740F879
:1021500094E80C0081B20DA8FEF7B2FB012007F055
:10216000B6FA534621490B22CDE9006A0DA811F0B9
:102170004FFB0DA8FEF72CF894E80C0081B20DA8D7
:10218000FEF79EFB012007F0A2FA534618490C22E5
:10219000CDE9006A0DA811F03BFB0DA8FEF718F879
:1021A00094E80C0081B20DA8FEF78AFB012007F02D
:1021B0008EFA41E6AD560108C456010809570108D8
:1021C000235701083E570108605701083C56010893
:1021D0007B5701089C570108CA570108FA570108A4
:1021E000265801085558010884580108B3580108B9
:1021F000E658010845560108FDF7EAFF08287FF474
:102200001BAEB949DFF810A364220DA811F078FBCA
:102210000DA8FDF7DDFF9AE80C0081B20DA8FEF7CE
:102220004FFBB24964220DA811F06AFB0DA8FDF71F
:10223000CFFF9AE80C0081B20DA8FEF741FB0DA874
:102240000D9407F06BF90DA8FDF7C2FF9AE80C009A
:1022500081B20DA8FEF734FBA34964220DA811F04A
:102260004FFB0DA8FDF7B4FF9AE80C0081B20DA852
:10227000FEF726FB9E4964220DA811F041FB0DA834
:10228000FDF7A6FF9AE80C0081B20DA8FEF718FB37
:10229000214664220DA810F0B3FE0DA807F084F9C2
:1022A0000DA8FDF795FF9AE80C0081B20DA8FEF786
:1022B00007FB8D4964220DA811F022FB0DA8FDF744
:1022C00087FF9AE80C0081B20DA8FEF7F9FAB3E592
:1022D0008849204611F04EFB00283DD0A0427FF4F3
:1022E000ABAD7C2111F0F7FA041B072C7FF4A4ADF1
:1022F000441C7C21204611F0EEFA00287FF49CADAE
:1023000006A92046FFF72AFC00287FF495AD55F872
:102310000A3C0B9355F8043C0C939DF81B30019339
:102320009DF81A309DF81820734900930DA89DF868
:10233000193011F06DFA0DA8FDF74AFF0BAC94E8C7
:102340000C0081B20DA8FEF7BBFA0A2007F0BFF916
:102350006A4B069A1A616FE56949204611F00AFB3B
:1023600000283DD0A0427FF467AD7C2111F0B3FA84
:10237000041B072C7FF460AD441C7C21204611F027
:10238000AAFA00287FF458AD07A92046FFF70AFCF7
:1023900000287FF451AD55F80A3C0B9355F8043CE6
:1023A0000C939DF81F3001939DF81E309DF81C2062
:1023B000544900930DA89DF81D3011F029FA0DA87D
:1023C000FDF706FF0BAC94E80C0081B20DA8FEF7F8
:1023D00077FA0A2007F07BF9484B079A5A612BE5F8
:1023E0004949204611F0C6FA00283DD0A0427FF4AA
:1023F00023AD7C2111F06FFA041B082C7FF41CAD77
:10240000441C7C21204611F066FA00287FF414ADAC
:1024100005A92046FFF77EFB00287FF40DAD55F897
:102420000A3C0B9355F8043C0C939DF8173001932C
:102430009DF816309DF81420344900930DA89DF89E
:10244000153011F0E5F90DA8FDF7C2FE0BAC94E8CC
:102450000C0081B20DA8FEF733FA0A2007F037F915
:10246000264B059A1A62E7E42949204611F082FAC0
:10247000002853D0A0427FF4DFAC7C2111F02BFA6E
:10248000041B072C7FF4D8AC441C7C21204611F09F
:1024900022FA00287FF4D0AC214664220DA811F066
:1024A0002FFA08A90DA8FFF7EEFA00287FF4C4ACB4
:1024B00055F80A3C089A17490B930DA855F8043CA7
:1024C0000C9311F0A5F90DA8FDF782FE0BAC94E872
:1024D0000C0081B20DA8FEF7F3F90A2007F0F7F817
:1024E000064B089ADA60A7E419590108495901080E
:1024F0007A590108D3590108DB590108DCF00020A2
:10250000FF590108075A0108275A0108305A0108E3
:10251000595A0108615A01081856010866492046AF
:1025200011F028FA002839D0A0427FF485AC7C2134
:1025300011F0D1F9041B072C7FF47EAC441C7C21E4
:10254000204611F0C8F900287FF476AC21466422B9
:102550000DA811F0D5F908A90DA8FFF794FA0028E5
:102560007FF46AAC55F80A3C089A54490B930DA8BD
:1025700055F8043C0C9311F04BF90DA8FDF728FE1B
:102580000BAC94E80C0081B20DA8FEF799F90A2073
:1025900007F09DF84A4B089A9A604DE44949204655
:1025A00011F0E8F9002839D0A0427FF445AC7C2135
:1025B00011F091F9041B0A2C7FF43EAC441C7C21E1
:1025C000204611F088F900287FF436AC21466422B9
:1025D0000DA811F095F908A90DA8FFF754FA0028E5
:1025E0007FF42AAC55F80A3C089A37490B930DA89A
:1025F00055F8043C0C9311F00BF90DA8FDF7E8FD1C
:102600000BAC94E80C0081B20DA8FEF759F90A2032
:1026100007F05DF82A4B089A5A620DE42B492046D0
:1026200011F0A8F900283FF407ACA0427FF404ACF5
:102630007C2111F050F9041B072C7FF4FDAB00F155
:10264000010A7C21504611F046F900287FF4F4ABD2
:1026500009AC1F4A21465046FFF7C8FA00287FF40C
:10266000EBAB55F80A3C0B9355F8043C0C9363799B
:10267000039323790293E3780193A378009363781B
:10268000227814490DA811F0C3F80DA8FDF7A0FD9C
:102690000DF12C0A81B29AE80C000DA8FEF710F992
:1026A0000A2007F014F894E803000B4B43F8040BDE
:1026B0001980FFF7C1BB00BF7F5A0108875A010884
:1026C000DCF00020A55A0108B05A0108CB5A0108D5
:1026D00023560108D35A0108F4F00020F8B5064645
:1026E0000F4615460024AC4201D10020F8BD37F852
:1026F0001420002306EB4401012004F0BDFA002859
:10270000F4D10134EFE700002DE9F04FB0F1006F94
:1027100087B00746894616464CD3284B00EB420249
:102720009A4247D800F17844B4F5803F22D2A50BF5
:10273000C4F34F04C4F58034B44228BF34464FF08C
:10274000000B4FF0010A04F051FA642004F0FEFE81
:102750000223694601A8CDE901BACDE9035A0593E0
:1027600004F034FB804688B104F052FA404607B0CA
:10277000BDE8F08FB4F5003F21BF00F1774505F5C6
:102780007E056D0C053538BF0425D1E72246494644
:102790003846FFF7A3FFB442E6D2361BB6F5803FBA
:1027A00009EB4409274405F1010594BF34464FF471
:1027B0000034C8E74FF00108D8E700BFFEFF0F085C
:1027C000114B124A70B503F138061546186859685E
:1027D000144603C40833B3422246F7D11868206078
:1027E0002B78FF2B0BD10A4D084C0FCD0FC40FCD0A
:1027F0000FC40FCD0FC495E8070084E80700FFF76A
:1028000073F8002070BD00BF00000E08DCF000204F
:10281000DC55010870B5074D074E03241E222946DA
:102820003046FFF771FF18B1013C14F0FF04F5D1F9
:1028300070BD00BFDCF0002000000E0830B5074D71
:10284000074C0FCD0FC40FCD0FC40FCD0FC495E8AB
:10285000070084E80700002030BD00BFDC550108F8
:10286000DCF000207FB501230A22CDE901320DF111
:1028700017028DF81700009278210022024810F00C
:1028800031FA07B05DF804FBB49401207FB5012351
:102890000A22CDE901320DF117028DF817000092DE
:1028A00078214022024810F01DFA07B05DF804FBC1
:1028B000B4940120AF20FFF7D5BFAE20FFF7D2BF01
:1028C00010B5002280215A4804F0B2FB642006F0C3
:1028D000FEFE01228021564804F0AAFB642006F087
:1028E000F6FEFFF7EAFF0446002840F09E80FFF75F
:1028F000B9FF0446002840F098801020FFF7B2FF8F
:102900000446002840F091802020FFF7ABFF0446EA
:10291000002840F08A800120FFF7A4FF0446002829
:1029200040F083802120FFF79DFF044600287CD1E2
:10293000FFF798FF0446002877D17F20FFF792FF2A
:102940000446002871D12220FFF78CFF044600289E
:102950006BD1FFF787FF0446002866D10320FFF7FD
:1029600081FF0446002860D18120FFF77BFF0446E9
:1029700000285AD14520FFF775FF0446002854D19E
:10298000A020FFF76FFF044600284ED1A620FFF7D6
:1029900069FF0446002848D1A820FFF763FF0446DA
:1029A000002842D11F20FFF75DFF0446E8BBC82086
:1029B000FFF758FF0446C0BBD320FFF753FF044680
:1029C00098BBFFF74FFF044678BBD520FFF74AFFBF
:1029D000044650BB8020FFF745FF044628BBD920A2
:1029E000FFF740FF044600BB2220FFF73BFF0446F1
:1029F000D8B9DA20FFF736FF0446B0B91220FFF746
:102A000031FF044688B9DB20FFF72CFF044660B98C
:102A10002020FFF727FF044638B98D20FFF722FF5B
:102A2000044610B91520FFF71DFF204610BD00BF5A
:102A3000000C024070B52120FFF714FF034638BB9D
:102A4000FFF710FF034618BB7F20FFF70BFF03467D
:102A5000F0B92220FFF706FF0346C8B9FFF702FFCF
:102A60000346A8B90320FFF7FDFE034680B9094ECF
:102A700080240025EB01F05CFFF708FF034638B91E
:102A80000135042DF6D1013CA4B20136002CF0D161
:102A9000184670BD24AF002008B505484FF40072F9
:102AA000002110F0ADFABDE80840FFF7C3BF00BF3A
:102AB00024AF00202DE9F04390429DF81CC043D87C
:102AC000994241D87F283FD81F293DD8904210D243
:102AD0007F2A28BF7F2299420DD21F2B28BF1F2398
:102AE000DFF868E04FF00108904227D90020BDE8E8
:102AF000F0830246EFE70B46F2E7072C1AD91F2CAA
:102B00001AD8E6080EEBC61604F0070516F907906A
:102B100008FA05F56DB2BCF1010F0CBF45EA0905D5
:102B200029EA05050134F555A4B29C42E5D90130E6
:102B300080B2D9E70026E5E70426E3E780280746C8
:102B40000C4628BF8027F0E70120D0E724AF002003
:102B50002DE9F04F85B07F2803929DF83CE09DF869
:102B60003820009140D81F293ED80C2A07D002F007
:102B7000F704102C03D002F0EF04202C34D14FEADC
:102B8000520C1CFB03F3441E23449BB27F2B28BF33
:102B90007F230193009BDFF804811344013B9BB228
:102BA0001F2B28BF1F2302930026019983B28B425B
:102BB00065D9002005B0BDE8F08F0399B6FBFCF3A2
:102BC00011F803B0072C8CBFE5080025BBF11F0FDF
:102BD0000AD9ABF1200B182A1FFA8BFB3AD005D883
:102BE0000C2A0CD0102A2ED00120E3E7202AFBD19A
:102BF0000CFB13639B00254903EB8B1305E00CFBD7
:102C000013635B00224902FB0B3301EBE70B1BF85C
:102C1000033007F0070B43FA0BF3DB0722D508EB71
:102C2000C51504F0070315F800B00AFA03F343EAE8
:102C30000B032B540134A4B20137029B9C42BCD934
:102C400001360130B1E70CFB13635B00114903EB64
:102C50000B13DAE70CFB136303EB43030E4909FB89
:102C60000B33D2E7BEF1010FE4D108EBC51504F038
:102C7000070B2B5C0EFA0BFB23EA0B03D9E7009C36
:102C800000274FF024094FF0010AD6E7CC72010863
:102C90000C5B0108805F01087065010824AF00200B
:102CA000BFF34F8F0549064BCA6802F4E062134335
:102CB000CB60BFF34F8F00BFFDE700BF00ED00E02A
:102CC0000400FA0501207047094B98420DD3094AC8
:102CD0008B0000EB8101914207D803F10060064BA5
:102CE000984294BF0020012070470120704700BF28
:102CF00000C0000800F80708FFFF000837B51446B9
:102D000000228DF8062040F25142ADF804204822FE
:102D10008DF8072022788A420546084613D00129FB
:102D20000CBF0846022020701A78D043187000F0BB
:102D300049FE042223788DF806300DEB0201284667
:102D400001F073F8207803B030BD07B540F6514369
:102D5000ADF8043048238DF807308B78012B0CD167
:102D6000137013788DF8063004220DEB020101F088
:102D70005CF8002003B05DF804FB022BF0D00120CA
:102D8000F8E700002DE9F7435C4D5D486F7AEE7877
:102D9000AC7901F0AAF9002840F09680594801F07A
:102DA000A4F9002840F09080DFF87C81DFF87C9166
:102DB000534801F09FF9534801F09CF94A46062117
:102DC000404600F09DFF99F8001098F82B00E4B2FF
:102DD00004EA01034C4C5322227098F80A206770D1
:102DE00013F00F0318BF0123012A98F81520A670CD
:102DF00063F3041189F800100CBF6FF00F0100217C
:102E0000012A0CBF0F220022114398F820203F4BCB
:102E10002171012A0CBF6FF00F02002201280CBFA4
:102E20000F2000209B6F024362711BB19A88A27130
:102E3000DB88E3710023E37000F000FF030AE07217
:102E4000A372030C000E63722072314C98F8570085
:102E5000304B67704422227098F836209B6FA67022
:102E6000012A98F841200CBF6FF00F010021012AC0
:102E70000CBF0F220022114398F84C202171012A27
:102E80000CBF6FF00F02002201280CBF0F200020A2
:102E9000024362711BB19A88A271DB88E37100263C
:102EA000E67000F0CBFE030AE072A372030C000E82
:102EB00020723246144863720D2100F09FFE1448C0
:102EC00032460D2100F09AFE134B144A0C4911486A
:102ED000CDE90053124B01F02DFA38B9114A13789D
:102EE00043F00203137003B0BDE8F0830328FAD166
:102EF0000C4A137823F00203F4E700BF06F2002027
:102F000054F100205DF10020CD000020EC000020F5
:102F1000DA000020000000208C0200207401002054
:102F2000DAF10020EA050020AEF10020E9050020DA
:102F300070B5194B86B002AA03F108061546186849
:102F40005968144603C40833B3422246F7D11868BF
:102F500099889B79A371114B2060A1801C78CCB11A
:102F6000013CE4B200211C707F2200911F2308461F
:102F7000FFF7A0FD10220121CDE90021C4F10E03CD
:102F80000021DBB22A460846FFF7E2FDFFF752FDBB
:102F900006B070BD0324E5E78C8A0108E700002035
:102FA00030B5144A87B05168106803AB03C3118968
:102FB000927A19809A70104B1C78CCB1013CE4B223
:102FC00000251C707F2200951F2310212846FFF743
:102FD00071FD1021C4F10A030122CDE90012DBB218
:102FE00003AA2846FFF7B4FDFFF724FD07B030BD64
:102FF0000324E5E79B8A0108E800002010B51F4C78
:103000001F480E22214602F0C2F823786289FF2B66
:1030100004BF02232370E378FF2B04BF0123E37076
:10302000237AFF2B04BF0A232372A379FF2B04BF4B
:103030000F23A3716378FF2B04BF012363702379EF
:10304000FF2B04BF012323716379FF2B04BF0523EA
:1030500063714FF6FF739A4201BF6FF04B03A37287
:103060000023E372237BFF2B04BF01232373637BC5
:10307000FF2B04BF02236373002010BD06F2002063
:1030800000000808022907D0052908D0012909D124
:103090000549042200F0C9BE04490422FAE70448A5
:1030A00000F0BABD704700BF638B01085F8B010859
:1030B0005B8B010808B583787D2B01D1FFF7F0FD0C
:1030C00008BD000010B5064B047806480B2202FB31
:1030D000043400F0A1FD2046BDE8104000F09CBD86
:1030E000AC000020A68A0108F8B505460848094E3C
:1030F000094F00F091FD00242B782341DB074CBFE2
:1031000038463046013400F087FD042CF4D1F8BD78
:10311000BC8A0108A992010844B20108F8B5054625
:103120000848094E094F00F077FD00242B78234111
:10313000DB074CBF38463046013400F06DFD042CEF
:10314000F4D1F8BDD48A010844B20108A99201085B
:103150001FB50C4B8DF807001B88ADF80C30012211
:1031600000230DF1070103A88DF80E3000F0A1FF38
:10317000054800F051FD03A800F04EFD05B05DF8D4
:1031800004FB00BF18460108F48A01081FB50C4B68
:103190008DF807001B88ADF80C30012200230DF1DB
:1031A000070103A88DF80E3000F083FF054800F0FA
:1031B00033FD03A800F030FD05B05DF804FB00BF4F
:1031C00018460108118B01081FB50C4B8DF807003C
:1031D0001B88ADF80C30012200230DF1070103A874
:1031E0008DF80E3000F065FF054800F015FD03A8CE
:1031F00000F012FD05B05DF804FB00BF18460108A1
:103200002C8B010810B50078054C00EBC00004447D
:10321000044800F001FD2046BDE8104000F0FCBC71
:1032200088000020488B010810B50446FFF7EAFF2C
:10323000E01CFFF747FFA01DFFF756FFE01DFFF75B
:103240006DFF207AFFF7C0FF207BFFF79FFF607BB9
:10325000BDE81040FFF77CBF42780A2A10B40ED0B8
:103260000C2A05D0032A0FD15DF8044BFFF722BFCB
:103270008A1C5DF8044B01469868FFF766BD5DF84F
:10328000044B0846FFF7D0BF5DF8044B70470000C1
:103290002DE9F743D3E901850C461746CB1DCA1C1F
:1032A000417801390646112918D8DFE811F01200DB
:1032B0001A0022009E0126002C0016017800AF00A3
:1032C000B2014C01AC01DD00C101F50117007B0129
:1032D000320022463146284601F008FB03B0BDE823
:1032E000F083637B07F581723146284601F068FB65
:1032F000F4E73046FFF7DEFEF0E722463146284687
:1033000001F0BEFBEAE722463146284601F072FB97
:10331000E4E741F25121ADF8041048218DF807107F
:10332000B1784FF0000901298DF8069015D1E378A6
:10333000022BD3D197F80721D20659BF8DF806305A
:10334000B64B03238DF8063058BF197004220DEBDD
:103350000201404600F069FDC0E7022910D1E07883
:103360000128BBD12846FFF7C9FC04220DEB02015E
:1033700040468DF8062000F058FD87F80891E5E7F3
:103380000429ABD1E1780229A8D1A44C21780129E4
:10339000A4D12846FFF7B2FC84F80090D6E70023BA
:1033A0008DF8063040F65103ADF8043048238DF80F
:1033B0000730FFF723FEB378012B1DD1984A9948B7
:1033C000E370012101F0A1FE002887D1964B9548BA
:1033D0000E22214601F0BBFE00287FF47FAF0326BA
:1033E00095F83030012B09D00120013E06F06FF92D
:1033F00016F0FF06F4D171E7022BDFD0E3788DF8E9
:10340000063004220DEB02012846A3E700238DF8C5
:10341000063040F65113ADF8043048238DF80730DC
:10342000FFF7ECFDB3787E4A7E48A371012101F0DD
:103430006CFE00287FF452AF7B4B7A480E22214667
:1034400001F085FE00287FF449AF032695F830305F
:10345000012B01D1A379D2E70120013E06F037F913
:1034600016F0FF06F2D139E700238DF8023040F65E
:103470005153ADF8003048238DF80330FFF7BEFDFF
:10348000E378674A6748012BB37804BFDB43DBB2BC
:10349000E371012101F039FE00287FF41FAF624B78
:1034A00060480E22214601F052FEA0B9032695F88D
:1034B0003030012B08D1E3798DF8023004226946BF
:1034C000284600F0B2FC06E00120013E06F0FFF8BD
:1034D00016F0FF06EBD1FFF7E3FB00238DF8063073
:1034E00040F25173ADF8043048238DF80730FFF7F0
:1034F00085FDB3785A1F372A3FF6F0AE484A49484F
:103500002372012101F001FE00287FF4E7AE464B53
:1035100044480E22214601F01AFE0028DBD1032682
:1035200095F83030012B06D1237A8DF8063004222D
:103530000DEB0201C4E70120013E06F0C8F816F0C9
:10354000FF06EDD1C7E70023B1788DF8063040F6CD
:103550005133ADF8043001294FF048038DF807309E
:103560007FF4BCAE2E4A314801F0CFFD00287FF435
:10357000B5AE032495F83030012B0BD10422B3787B
:103580008DF806300DEB0201284600F04EFCFFF7E7
:1035900035FDA3E60120013C06F099F814F0FF0484
:1035A000E8D1F4E700218DF8061041F25111ADF891
:1035B000041048218DF80710E17801290AD1B1786B
:1035C000012903D102212846FFF798FB012387F840
:1035D000093183E60229F9D104228DF8061040460C
:1035E0000DEB020100F021FCF0E7B178012903D1D5
:1035F0002846FFF783FB71E60229F9D000297FF402
:103600006DAEE178F4E7A21C31462846FFF79DFB3A
:1036100064E62046FFF708FE60E600BFEB050020E9
:10362000C52C000800000808C92C0008008000080C
:1036300000238DF8063040F65163ADF8043048237E
:103640008DF80730FFF7DAFCB378227B934220D065
:10365000012B1CD12C4A2D482373012101F055FD6B
:1036600000287FF43BAE2A4FDFF8A08003263B46BC
:103670000E222146404601F06AFD00283DD001207F
:10368000013E06F024F816F0FF06F0D126E6022BE4
:10369000E0D08DF80620B4E600238DF8063040F621
:1036A0005173ADF8043048238DF80730FFF7A6FCBE
:1036B000B378627B9342ECD0012B1BD1124A1348A2
:1036C0006373012101F021FD00287FF407AE104F44
:1036D000DFF8388003263B460E222146404601F0A3
:1036E00036FD50B10120013E05F0F1FF16F0FF0656
:1036F000F1D1F3E5022BCCD1E0E704220DEB02017E
:10370000284600F06DFAE6E6C52C0008000008081F
:10371000C92C00080048704706F20020014B1878B9
:10372000704700BF06F2002070B52C4B002202212A
:1037300040201024042501265D7099701D73597373
:103740001974197683F8231083F8251083F82E1046
:1037500083F830501A70D8701A715E71DA729873EB
:10376000DA739A75DC7558769E76DA7683F82120BE
:1037700083F8224083F8240083F8262083F82C2045
:1037800083F82D4083F82F0083F8312083F8372009
:10379000082583F8384083F8391083F8441083F8FB
:1037A0004F10202183F83A0083F83B5083F83C20E7
:1037B00083F8422083F8434083F8450083F846406D
:1037C00083F8472083F84D2083F84E4083F850005B
:1037D00083F8511083F8522070BD00BFAEF1002075
:1037E00038B53C4D3C4CFFF709FCFFF79DFF2846E0
:1037F00000F0B0F80522227262746FF0470284F87C
:103800004F200B2284F8502034486FF01702002319
:103810006FF0640184F8582003222370A370637052
:10382000E171E37023716371A3716372E372A37238
:10383000217423736373A373E37384F8483084F8AB
:103840004A3084F8493084F84B3084F84C3084F89E
:103850004D3084F84E3084F8513084F8533084F879
:10386000523084F8592084F85430026884F8553076
:1038700084F8563084F85730D36843F01003D3608F
:10388000A968174D4FF480620EF016FE00F0ECF8B8
:10389000E87900F097F8FF21204600F048FCFF216E
:1038A00004F1090000F043FCFF2104F1480000F09E
:1038B0003EFCFF2104F1510000F039FC2946094883
:1038C00000F0DEFC224629460748BDE8384001F0FA
:1038D00073B900BF1802012054F100207494012034
:1038E00006F2002000000020EC000020036859626E
:1038F00070470368586A80B270470000034B044861
:103900009A69996892B20EF0D7BD00BF18020120E3
:103910007494012001480EF017BE00BF749401207A
:1039200008B50A4A0A4B0C21C3E9002000221846B8
:10393000C3E90222C3E905121A61DA610EF054FDEF
:1039400018B1BDE80840FDF737BD08BD0044004090
:1039500074940120134B036003F58062426003F509
:10396000006203F54063C360002303748374C3746F
:1039700003758375C37503768376C3760377837780
:10398000C377012380F83030074B8260C0F83130B4
:103990000422064B4274427542764277C0F83530B5
:1039A000704700BF18F20020FD38000815390008E4
:1039B000024B82B2D96802480EF044BD18020120C1
:1039C00074940120F0B589B0244B254E0024019455
:1039D00007941A6B42F008021A631A6B02F008028D
:1039E0000192019A02941A6B42F004021A631B6B53
:1039F00003F00403029305460127029B03A9C02399
:103A00003046CDE90337CDE9054403F02DFACDE981
:103A10000544144C4FF4405303A92046CDE9033725
:103A200003F022FA05EA07023046402103F000FBCA
:103A3000C5F3400220464FF4805103F0F9FAC5F374
:103A400080023046802103F0F3FAC5F3C0024FF440
:103A50000051204603F0ECFA09B0F0BD00380240F6
:103A600000080240000C024008B50A4803F0A9FD16
:103A7000094803F0A6FD094803F0A3FD084803F038
:103A8000A0FD084803F09DFDBDE80840064803F08E
:103A900098BD00BF60340120E033012020350120B3
:103AA000A0330120E034012020340120B0F5807FD4
:103AB00007B501460AD1224B0093224A224B01212D
:103AC000012001F060F803B05DF804FBB0F5007F61
:103AD00005D11B4B00931B4A1B4B0221F0E7012829
:103AE00005D1174B0093194A174B0220E9E702282A
:103AF00004D1134B0093154A134BE2E7042818D165
:103B0000022300930E4A124B0121124801F0B4FA2D
:103B1000D9E7102906D102230093094A0E4B01214F
:103B20000E48F3E72029CED102210B4B044A009125
:103B3000F6E70828EDD10221054B014A0091E4E7A0
:103B40008002002060340120EC000020E0330120DE
:103B50002035012000000020A03301202C0000208F
:103B600010B5044600F0EFFA04F1090000F0EBFA9A
:103B700004F11B0000F0E7FA04F1240000F0E3FA7E
:103B800004F12D0000F0DFFA04F1360000F0DBFA5A
:103B900004F13F0000F0D7FABDE81040014800F002
:103BA0006CBA00BFD8050020024A136801331360C5
:103BB000704700BF14F200200148012103F03DBA14
:103BC000000C024005F083BD014800F093BA00BF2D
:103BD00078F10020014800F08DBA00BF81F100208B
:103BE00008B5054B084611460CCBFCF769FEBDE84D
:103BF00008400A2005F06BBD1856010808B5054BB2
:103C000089B20CCBFCF75CFEBDE808400A2005F049
:103C10005EBD00BF1856010810B50446FCF7D8FA7F
:103C2000054B81B20CCB2046FCF74AFE0A2005F07A
:103C30004EFD002010BD00BF18560108014B18684A
:103C4000704700BF14F2002008B50E4B186818B179
:103C50004FF0FF3105F0C2FDFFF7C2FD0A480B4CE3
:103C6000FFF7DAFF0A48FFF7D7FF0A48FFF7D4FF4C
:103C7000FFF788F8204603F09EFC012005F027FDA1
:103C8000F6E700BF48F10020878B010854020120AD
:103C9000BB0200209802002008B5064C064DE36ADE
:103CA0001BB12946204600F0EEF8642005F00FFD18
:103CB000F5E700BF18020120B139000870B50C4CBF
:103CC0000C4E0D4D22463146284600F091FF40B97A
:103CD0000A4A137843F001031370012005F0F7FC42
:103CE000F0E70328F9D1054A137823F00103F3E73D
:103CF000FD3B000854F10020EC000020EA05002004
:103D00002DE9F74F002688461746054634464FF002
:103D10000109A988D5F800B00191FFF78FFF01993B
:103D20008246584603F07EF90128034618D1C5F8AB
:103D300006A0AB7209FA06F2012B64B23B7852B2CC
:103D40000CBF94431443E4B223F00F030136234322
:103D5000082E3B7005F10B05DBD103B0BDE8F08FF9
:103D6000D5F806309A4536BF0AF1FF32AAEB0303B5
:103D7000D31A984504D9D0452CBF00230123D8E796
:103D80000023D6E7436A026919449BB29A42416212
:103D900008D8836A0BB1013B8362B1FBF2F302FBEB
:103DA0001311416200207047F8B5456AD0F810C081
:103DB0000768ACB211FA85F5ADB2B5FBFCF60CFBA9
:103DC00016553D4415F8015C954212D15E18B34278
:103DD00003D1FFF7D7FF0020F8BD3A5D03F8012BB0
:103DE00001340569A4B2B4FBF5F205FB1244A4B298
:103DF000EDE70120F0E738B50446D0F80D309847DC
:103E000020790021E17060B1D4F809309DB201221F
:103E10004DB101386B1E20712270C4F8093008467C
:103E200038BD2070FCE71046FAE770B50A4400235D
:103E3000914201D1002070BDC56A4469A54221BFED
:103E400080F82C3080F82D3080F82E3080F82F301C
:103E5000C46A4568661CC66211F8016B2E55E7E717
:103E600038B5C56A416804462A46C0680FF0A0F814
:103E7000002384F82C3084F82D3084F82E3084F818
:103E80002F30284638BD73B590F83030012B0446EA
:103E90000E4610D1002580F83050FFF7E1FFD4F82E
:103EA0003530019098470198B047D4F831309847A1
:103EB000284602B070BD0120FBE7826A03695343C4
:103EC000426A006A9B1A18447047F8B50E460446C9
:103ED00015461946FFF7F1FF08B3636A2068327888
:103EE000C75C97420ED185B121690133B3FBF1F272
:103EF00001FB12332A78C35C9A4205D20221204684
:103F0000FFF740FF012009E0E95C0029F6D0069B9D
:103F100072782046FFF748FF0028EFD1F8BD042053
:103F2000FCE7F8B50E46044615461946FFF7C5FFEF
:103F300018B3636A20683278C75C97421BD185B199
:103F400021690133B3FBF1F201FB12332A78C35C20
:103F50009A4205D202212046FFF714FF012009E012
:103F6000E95C0029F6D0069B72782046FFF71CFF1B
:103F70000028EFD1F8BD0121EDE70420FAE737B5BD
:103F80000023019304460D46FFF797FF0190019B24
:103F900063B1019B53B12168636A019A19442846B1
:103FA000FFF743FF01992046FFF7ECFE2046FFF79D
:103FB00084FF0190019B7BB1019B6BB129686B6A07
:103FC000019A19442046FFF730FF0199284603B0B3
:103FD000BDE83040FFF7D6BE03B030BD8369F0B511
:103FE0008B4218BF591A00231A46994200D1F0BDDE
:103FF000046A86680568671C0762F65C2E55056AC8
:104000000469A5420AD3846A80F82020013480F82C
:10401000212080F8222080F8232084620133E4E705
:1040200038B59DF81050012D04461DD10079C0B956
:1040300031B101392570C4F80910237112B9002576
:10404000284638BDC4F80D20E378012BF7D19047FE
:10405000237900255A1EE5702271002BEFD02570C0
:10406000EEE7002AF0D1EAE7002DE8D1C378012B72
:10407000E5D1BDE83840FFF7BEBE08B503786BB1A7
:10408000D0F80530D0F80920934209D20133C0F8A6
:104090000530C378012B01D1FFF7ADFE002008BD2C
:1040A000002301220370C27043718371C3710372D4
:1040B000EFE770B58D188D4200F102000E4601D871
:1040C000500070BD0C7823099F2C8CBF37333033E0
:1040D00000F8023C337803F00F03092B8CBF373311
:1040E0003033013100F8013CE5E74078013818BF72
:1040F0000120704700234370184670478378012BD6
:1041000006D0B0F803302BB903700123837000236D
:1041100018467047FE2B4FF0010204D8013B027095
:10412000A0F80330F1E7FF2B08BF0270EDE710B5F0
:10413000A0F80310002181700446FFF7DFFF6171D2
:10414000A171084610BD08B50278012A0FD1B0F858
:104150000530B0F80710994297BF00230133427031
:10416000837099BF43718371A0F805308270FFF7A7
:10417000C5FF002008BD0000BFF34F8F0549064B67
:10418000CA6802F4E0621343CB60BFF34F8F00BFF5
:10419000FDE700BF00ED00E00400FA052DE9F04165
:1041A000174602780E46910798460446DDE9065305
:1041B00060D022F00302027040790B2102096FF0F7
:1041C0000A0C11FB02C21A44927A3AB100F00F00B5
:1041D00011FB00C10B449B7A002B44D1FFF79AFAE4
:1041E00001234089A374B8F80230C0B200EBC000CC
:1041F00080009B00B0FBF3F0E0803146204600F0E9
:104200003FFE6423EB7033896B71A389EB711B0A4A
:10421000AB7173782B72B3786B72638BEB721B0A82
:10422000AB726379122B21D14123A370A3782B7336
:104230000A21681D00F05EFF5023EB730123A87371
:104240006B70AB703389052B0BD8FFF763FA0B4B00
:10425000027903EBC201013113F832203846FFF72F
:10426000E4FD002007E00223A374C6E7342BDDD170
:104270004223DAE70420BDE8F08100BFB88C0108D2
:1042800070B505464E890C46FFF748FA83074CD5B2
:10429000264B012183F804114021002283F80211EA
:1042A000382183F8031183F80521637885F87C3081
:1042B0001F4BAE833221A5F8486083F83F2083F876
:1042C000412083F8402083F8461083F8472083F884
:1042D000422083F8432083F8442083F84520217A44
:1042E00083F82420C1EB411001EB8000C0000139AC
:1042F000A3F82B00C1EB411001EB8001C90083F84A
:10430000262083F8252083F8272083F8282083F8A7
:10431000292083F82A20DA765A771A7759849A77EF
:10432000DA7783F8202083F8212070BD7401002003
:1043300054F100202DE9F04F2DED028BC9B01E463F
:1043400002F581730F46DDF850B10393054614461C
:10435000FFF7E0F903790493559B07F1090AD3F8B5
:10436000009007F1240807F11B039BF8077008EE83
:10437000103A002207F001030221284608EE903A85
:1043800000F0EDFD10F0020F039BC7F3400700F0B3
:104390004581CDE900464A46A96FA86DFFF7FEFEAC
:1043A000002103905046FFF7C2FE01214046FFF76F
:1043B000BEFE012118EE100AFFF7B9FE012300939B
:1043C000B24AB34803233221FFF72AFE4046FFF7E3
:1043D0008CFE0646A8BB4046FFF78CFE1C223146E9
:1043E00028460EF00DFE1C22314605F12C000EF081
:1043F00007FE0E22314605F15C000EF001FE0E2292
:10440000314605F16A000EF0FBFD4FF4857231462E
:1044100020460EF0F5FD9BF8013085F87C3018EE53
:10442000902A9C48402102F003FE9B483A464FF4F4
:10443000805102F0FDFDFF215046FFF778FE032377
:104440000393559B9E689BF80230012B40F0058139
:10445000559B924AD3F80080914908AF00970023FA
:104460003046FFF732FD002840F0F280559B22468F
:1044700059463846FEF7F0FE559BD3F808801E6873
:10448000FFF748F99BF80230012B04F1120740F0C6
:10449000118131464046FFF772FD559B18EE100A18
:1044A0001E68FFF722FE804640B97E4B53F8042970
:1044B0001B689A4280F087810123A3709BF8033028
:1044C0009BF80780012B08F0010640F0ED8194F87D
:1044D00001A0A96FAB6D9BF80C90BAF1010F454696
:1044E000C8F3400816D14A784FF0000B0B2A84F825
:1044F00001B040F07F81637B6B4823F00F0343F0F2
:1045000004036373FFF7F6FD67485946FFF70FFE94
:1045100084F800A06448FFF7E8FD814688B9624846
:10452000FFF7E8FD49466048FFF701FE594832466B
:10453000402102F07DFD584842464FF4805102F080
:1045400077FD2178012913D1002323705748FFF705
:10455000EEFD50483246402102F06AFD4E48424688
:104560004FF4805102F064FD637B43F040036373BA
:104570004E48FFF7BAFDB8B966F3000568F3410588
:10458000EDB24A48FFF7B6FDEA4302F001024148A6
:10459000402185F0020502F04BFDC5F340023E4884
:1045A0004FF4805102F044FDA378012B30D1559B8C
:1045B0003F499D680023A370237A0B2B02BF237908
:1045C00001332371374B186801F584431B68984207
:1045D00080F0748142234343CE18CA5C62747678BB
:1045E000267444F2042601300233885119443846B7
:1045F0000EF0DEFC617C0F312A46C9B2E01CFFF7E9
:10460000FDFA002363742374637B03F00F03637369
:10461000039849B0BDEC028BBDE8F08FC20614D5FB
:104620004A4605F15C01CDE9004628460393FFF7B1
:10463000B5FDCDE90046039B4A4605F16A0105F147
:104640002C00FFF7ABFD0390C0E6FF230393BDE60C
:1046500041463046FFF793FC0EE73046FFF72DFC4E
:1046600000283FF409AF08AF0C4A0D49009700231A
:104670003046FFF756FC00287FF4FEAE559B2246DD
:1046800059463846FEF704FEF6E600BFB93B00087F
:10469000D805002000080240000C0240678B01088A
:1046A000008D0108F04700208AF1002093F10020DE
:1046B000EC0500200379DFF82C82304618F80390CF
:1046C000FFF7FBFB4845FFF4E8AE04987D490097EF
:1046D00001EB40014B4630460022FFF722FC064624
:1046E00000286CD1FFF716F803792374FFF712F84E
:1046F000037918F8033063740493FFF70BF8724AD8
:104700000179637C12F81190059302EB410292F853
:1047100001A0FEF7FFFF0279059B18F802209A42DC
:104720003FF6BBAE6949D1F80080B8F1000F10D058
:10473000049AA1F58441A2EB0A02334607EB090A69
:10474000059109F1020998B2804526D8002E3FF460
:10475000A4AE42221FFA88F85D4E02FB08F808F169
:104760000200049A304439460EF022FC627C06F8BE
:10477000082006EB0803227C5A7006F5844633684D
:10478000FE2B89BF4FF0FF3301333370002391BFFD
:1047900033607370B370F3707FE60793422303FBBB
:1047A0000090059B0692184451460EF0F3FB079BC0
:1047B000069A10F0FF0603F10103C4D16DE6002351
:1047C0006374237469E618EE100AFFF793FCFEF792
:1047D000A1FF404B027903EBC201013113F83220F3
:1047E0003046FFF722FB44F20C22414638480EF0D7
:1047F00007FC63E60C2A06D1637B23F00F0343F02A
:104800000403637386E60D2A05D1637B23F00F034F
:1048100043F00603F5E7A2F1140009283FF67AAE4B
:104820004FF00A0B0978B2FBFBF00BFB1022D2B25F
:1048300091427FF46FAE0493FEF76CFF94F806216B
:10484000DFF8A4A0012A26D0049B5B8B1BB341890F
:1048500041F65832B2FBF1F253439B00B3FBFBF33A
:10486000AAF83D3000238AF836308AF838308AF8C2
:1048700037308AF83B308AF83C308AF839308AF889
:104880003A3015480121FFF752FCB9F1020F04BF7D
:10489000012323703EE6B4F802319AB2002ADFD138
:1048A0000E48FFF7B9F9DDE732460D48402102F026
:1048B000BFFB9BF80720C2F3400270E6002363743D
:1048C000237497E6D88C0108E08C0108EC4700209F
:1048D000EC050020988C01088AF10020AA8B0108C1
:1048E00000080240E88C010854F100202DE9F04155
:1048F000CB780D2B07460C46154602D88B78032B38
:1049000004D92548FFF788F901243AE0FEF776FB41
:104910006388224A2248AB80012100F0F6FB04465E
:104920000028F1D11F4B1E480E22294600F00FFC33
:1049300038BB032697F83080B8F1010F24D16A798B
:10494000194B53F82200FEF7EBFF1848FFF764F904
:104950002879174B00EB80001844FFF75DF91548E4
:10496000FFF75AF96879144BC0EBC0001844FFF701
:1049700053F91248FFF750F941463846FEF782FBDB
:1049800000242046BDE8F0810120013EFFF71AF91E
:1049900016F0FF06CED1F4E7C08B0108C52C000845
:1049A00000000808C92C0008608C0108D58B01089C
:1049B000EC8C0108EA8B0108FE8B01086A5601089D
:1049C000022B14D08B78591EC9B2B3290FD807EE29
:1049D000903ADFED076A5380B8EEE77A0123C6EE1E
:1049E000877A1371FCEEE77A17EE901A1180704700
:1049F00000E0C44673B500230C46ADF8023040F227
:104A00005163ADF80030482315468DF80430064652
:104A1000FEF7F4FA62881748130A03EB02236B814E
:104A2000154A012100F071FB00BB144B11480E2206
:104A3000294600F08CFB78B9032496F83030012B1E
:104A40000CD16A89130A03EB02236946052230461A
:104A5000ADF80230FFF7C4F8FFF78EFB0120013CF0
:104A6000FFF7B0F814F0FF04E7D1F5E7012002B03A
:104A700070BD00BF00000808C52C0008C92C000844
:104A800073B500230D468DF8063040F25153ADF852
:104A9000043048238DF8073006461446FEF7AEFA78
:104AA000AB78012B20D1184A18482370012100F05F
:104AB0002CFBF0B9164B15480E22214600F047FB9F
:104AC00080B9032596F83030012B15D12046FEF72A
:104AD00099FB042223788DF806300DEB0201304655
:104AE000FFF77EF8FFF748FB022BDCD02046FEF7ED
:104AF00089FB012002B070BD0120013DFFF762F883
:104B000015F0FF05DED1EDE7C52C00080000080810
:104B1000C92C000870B5037816469A0721D523F0F2
:104B20000203114C03700B89A37083892372002543
:104B30001B0A7322E57025716571A571E371837895
:104B400022700A210122A01C62706372A57200F01B
:104B5000D1FA5023E072237320460D21B047284636
:104B600070BDFF20FCE700BFF8470020122804D1E9
:104B70004B8901334B8100207047342802BFCB8E14
:104B80000133CB86F7E737B50446012C15461846A6
:104B9000069A08D100942B4600F06EFA003818BF30
:104BA000012003B030BD022C04D1012300932C302E
:104BB0002B46F1E70020F4E710B5097AC1EB411468
:104BC000002301EB840182F82D3082F82F3082F827
:104BD0002E3082F8303082F8313082F8323082F86C
:104BE0003330C9000123918680F87C3010BD00006D
:104BF0002DE9F3410F46154601F12D08002204214D
:104C0000044600F0ACF9820740D52A46A16FA06D9A
:104C1000FFF780FF002105463846FFF788FA01219B
:104C20004046FFF784FA01230093224A22480323D7
:104C30003221FFF7F5F94046FFF757FA064608BB61
:104C40004046FFF757FA1C22314620460EF0D8F9AD
:104C50001C22314604F12C000EF0D2F90E2231460E
:104C600004F15C000EF0CCF90E22314604F16A002A
:104C70000EF0C6F9012384F87C30FF213846FFF797
:104C800056FA0325284602B0BDE8F081C3060ED5CA
:104C90002A4604F15C012046FFF73CFF2A4604F156
:104CA0006A0104F12C00FFF735FF0546C3E7FF2535
:104CB000C1E700BFB93B0008D8050020022AF0B5C3
:104CC00068D0042A64D1C378012B37D14378022BF2
:104CD00005D05BB100230371CB880133CB804289BF
:104CE0000389002A18BF4FF0FF339BB20382037978
:104CF00001224270134403710023C370836003795F
:104D0000022B0FD9038AC2899A4292BF4123838121
:104D100042238370037898BF828143F004030370B9
:104D2000012303710379012B30D90B8903BBC2899D
:104D300002B9028A828101339BB21DE0022BDED1CF
:104D40004378012B0CD9002303718B8801338B80AE
:104D500042890389002A18BF4FF0FF339BB201E05C
:104D6000002BF5D1C3810379022242700133C2E7DF
:104D70004FF6FF729342DED10B81037843F00203BA
:104D80000370037843F00103037001E0002BF8D1B6
:104D90000020F0BDC378012B1BD14378022B03D038
:104DA0001BB1CB880133CB800389C38203790122F5
:104DB00042701344037100230381C3700379002BF5
:104DC000E6D0468BC28AB6B1931B9E4213DB428368
:104DD000DEE7022BF2D14378012B04D98B88013313
:104DE0008B80038901E0002BFBD1C382037902226F
:104DF00042700133DEE70B895BB9037843F00103AE
:104E0000037001230B81837C012B04BFC388438380
:104E10000EE0048B8CB9847C012C06D1047882814D
:104E200044F0020404700133ECE7022C00D1428309
:104E300002B1028300230371AAE7B2EBD40F0BD9AE
:104E40000478828144F0010404704FF6FF74A34299
:104E5000E9D14FF6FF73D5E7858B0A2765437E437B
:104E6000B5FBF6F5822D07DD002545831425B4FB3F
:104E7000F5F4A242C7D9E3E7837C022BC3D1D6E77E
:104E800083890889022810B507D18B8140F6024337
:104E90000B8000238B70012010BD8A896AB902281B
:104EA0000BD948780B2804D140F602420A808B8146
:104EB000F1E70B234B708A70EDE713B90B234B70AE
:104EC000E9E79A4248788B814FF00A0422D2B2FB7C
:104ED000F4F2B3FBF2F30D2BDAB20FD801304870C5
:104EE0008A704B78A3F10A02092A21D80A20B3FB61
:104EF000F0F200FB12330B700020CDE70A380928CE
:104F000094BF15200B201E2B48708A70E9D91523F9
:104F10004B70E5E7B3FBF4F3B2FBF3F31E2B00F1A8
:104F200001008B7088BF1623487088BF4B70D8E78C
:104F3000A3F11402092ADFD80A200C78B3FBF0F29F
:104F400000FB1233DBB29C424FF0000004D2012C74
:104F5000A2D00B234B709FE79ED188819CE7F8B5C8
:104F6000174690F87C2012F0010F0B46044600F122
:104F70002C0500F15C0100F16A0626D0C278AAB1C6
:104F80001A46FFF79BFE1223A465A167637194F88C
:104F90007C3023F0010343F0020384F87C30D4F822
:104FA0008030984794F87C201046F8BD90F82F2068
:104FB000002AF9D01A4631462846FFF77FFE3423EF
:104FC000A565A66784F83130E1E712F0020F08D03A
:104FD000806DC278002AE7D0A16F1A46FFF76EFEF7
:104FE000DDE7D206DED5C2786AB11A46FFF766FE63
:104FF00094F87C3043F0400384F87C3012236371D2
:10500000D4F88030984794F82F30002BCAD03A4615
:1050100031462846FFF752FE94F87C3063F07F0358
:1050200084F87C30342384F83130B8E710B5037845
:10503000047B42686BB1022C0BD18468121B8A423C
:1050400003D300230370184610BD013B0370FF20FB
:10505000FAE7012CFBD182600133F7E738B505464A
:10506000084611461C46A8479DF8103098420CBFD0
:1050700002200120207338BD2DE9F34798460446ED
:105080001368DDF828A0DFF8689040460D46164604
:105090009847164BC9F80400012D074658600FD1F8
:1050A000616AB068E28B0095FFF7D8FF0F4B51465D
:1050B0001846FFF7BBFF80B1012002B0BDE8F087C2
:1050C000022DF9D10123A16AB0680093228C4B46CE
:1050D000FFF7C4FF51464846EBE7E570404673686A
:1050E0002781002198470020E7E700BF08480020FB
:1050F0001848002001440023884201D11846704717
:1051000010F8012B1344DBB2F6E770B504460E46E7
:1051100090470546C8B904F1784424F4FF6424F0AC
:10512000070404F1006401F061FD1EB901F070FD97
:10513000284670BD0221204601F048FE013E10B90C
:1051400004F50064F1E701F063FD0125F0E7F8B52F
:105150000F461146044616469847054698B901F091
:1051600045FD043F2644A64203D801F051FD2846E0
:10517000F8BD57F8042F00232146022001F07CFDE2
:1051800018B101F045FD0125F1E70434EBE710B556
:105190000023934201D1002010BD1C5CCC5401338C
:1051A000F7E700000848094A08B50623C0E90023CC
:1051B00040F2E243836002F0DDF918B1BDE8084037
:1051C000FCF7FAB808BD00BF5402012000300040CF
:1051D0002DE9F74F254AD66A4FF00008B3680C4610
:1051E0004746914640F2F45B2CB92048394600F01E
:1051F00071FE204604E03268002A11DA6FF00700E1
:10520000D9F8003041F214029958890605D52021B9
:10521000995041F204020021995003B0BDE8F08F8B
:10522000628945464FF0000A616805EB0208D845DF
:1052300003EB0500514408D8CDE900230DF0B8FE7A
:10524000009A2468019B1744CEE7ABEB05052A467C
:105250000DF0AEFEF6683368002BCFDBAA442F4476
:10526000B368A8F2F4520025DEE700BF881B0120D6
:105270002DE9F74F80463A4C20684FF0FF3104F09B
:10528000ADFA0028F8D1374E37480CF048FF3046C9
:1052900000F094FE054630B1002433480CF044FF82
:1052A000002CF0D1E7E7B18F01BB0024336BB06B6A
:1052B000002282424DD10023B36341F214023368CD
:1052C0009958090605D58021995041F2080200211C
:1052D0009950002CE0D0D8F810304146204698472D
:1052E0000028DAD020460AF08DFFD6E74FF4C172CD
:1052F000376C0AF0EFFF04460028D6D0D6F830A06D
:10530000B94640F2F45B0746B7F80AE0AC46002322
:1053100078680CEB0E055D45184409EB0C0106D8C6
:1053200072460DF045FE3F68002FEDD1BEE7ABEBB6
:105330000C02019300920DF03BFEDDE90023DAF848
:105340000CA0A5F2F45EDAF8089013444FF0000CBC
:10535000DEE7196841F000411960DB680132A8E717
:105360002C480020881B012004360120F0B504469B
:105370008DB01422002107A80DF042FE22683F4B99
:105380009A4278D1A3F59043002401941A6B3C48CB
:1053900042F000721A631A6B02F000720192019AD5
:1053A00002941A6B42F080621A631A6B02F08062F8
:1053B0000292029A03941A6B42F000621A631A6B0B
:1053C00002F000620392039A04941A6B42F0040202
:1053D0001A631A6B02F004020492049A05941A6B81
:1053E00042F001021A631A6B02F001020592059A5B
:1053F00006941A6B42F002021A631B6B099403F0C5
:1054000002030693022703260B25069B07A93223D6
:10541000CDE90737CDE90A6501F026FD8623194855
:105420000B9507A9CDE90737CDE9094601F01CFD29
:105430004FF4605314480B9507A9CDE90737CDE920
:10544000094601F011FD224605213D2002F000F839
:105450003D2002F02FF822460121094801F0E8FD25
:10546000642002F073F801220548114601F0E0FDC6
:10547000642002F06BF80DB0F0BD00BF0080024068
:10548000000802400000024000040240014B18687E
:1054900004F0CAB92C480020F0B504468DB030B9EC
:1054A000374B3849384840F223220EF049F947F289
:1054B00073436386354B6361354B364DA361364B81
:1054C000364901910122C5E9003200232B82ADF853
:1054D000083001A9EB6128464FF40003C5E9051225
:1054E0002B6200F05DFE28B994F8313043F00403DC
:1054F00084F831302A4A2B4926482B4E042300F0E9
:1055000073FC2A4A2A492348042300F0A9FC0623F5
:1055100084F830306B691A7884F82A205A7884F835
:105520002B209A7884F82C20DA7884F82D201A79A8
:1055300084F82E205B7984F82F3040F2DC532385E9
:1055400094F8313043F00A0384F831300027012108
:1055500003A8CDE9037704F01DF9164B18600FCEB0
:1055600005AD0FC596E8070085E80700214605A8A8
:1055700004F080F8074800F00FFF38460DB0F0BD8A
:10558000088D0108198D0108278D0108E114010813
:10559000D1510008881B0120008002400080E100FA
:1055A000D01B0120B80201201C460108380301204D
:1055B000081B01202C48002001F0C2BF37B5002392
:1055C0000F4D0193044601AA0121284600F075FD04
:1055D0002068019B90F8312003F0040351070193E8
:1055E00008D42BB10BF08AFAC82004F070F8EAE76F
:1055F0005207F9D5002BF7D10BF0A4FAF4E700BF5E
:10560000881B012073B590F83130002105465807FA
:105610000091019144D5244C6368002B35D04FF4A0
:105620008052204600F084FD01F08AFF264600905B
:1056300001AA0121304600F040FD01F081FF009BEE
:10564000C01AB0F57A7F20D8019B9A06F0D501AA3E
:1056500015481F2100F031FD019B13F0100218BF07
:105660004FF400625B074CBF00234FF48043E260BD
:10567000A3600D48002100F003FF0B4800F08CFEF2
:105680002846FAF7DBFF02B070BDD4E902235208C6
:1056900042EAD30292B20021034800F049FDE8E754
:1056A000014800F0B3FEEBE7881B01207FB5102214
:1056B000002102A80DF0A4FC154853224FF08041B0
:1056C0000023C0E9001240F2E732CDE90033C0E91F
:1056D00003238360836102F091F808B1FBF76CFE4D
:1056E0004FF480530A48029302A902F0ABF808B1C4
:1056F000FBF762FE002306486946CDE9003302F05D
:1057000035F908B1FBF758FE07B05DF804FB00BFA0
:10571000E03401207FB51022002102A80DF070FCBA
:105720001548164948F23F320023C0E900124FF6EF
:10573000FE72CDE90033C0E903238360836102F088
:105740005DF808B1FBF738FE4FF480530A48029326
:1057500002A902F077F808B1FBF72EFE00230648F5
:105760006946CDE9003302F001F908B1FBF724FEE8
:1057700007B05DF804FB00BF603401200004004066
:105780007FB51022002102A80DF03AFC15481649F9
:1057900048F23F320023C0E900124FF6FE72CDE915
:1057A0000033C0E903238360836102F027F808B166
:1057B000FBF702FE4FF480530A48029302A902F05D
:1057C00041F808B1FBF7F8FD002306486946CDE92A
:1057D000003302F0CBF808B1FBF7EEFD07B05DF83F
:1057E00004FB00BFE0330120000800407FB5102219
:1057F000002102A80DF004FC1548164945F20722C5
:105800000023C0E9001240F69F72CDE90033C0E9E1
:1058100003238360836101F0F1FF08B1FBF7CCFD46
:105820004FF480530A48029302A902F00BF808B122
:10583000FBF7C2FD002306486946CDE9003302F0BC
:1058400095F808B1FBF7B8FD07B05DF804FB00BFA1
:1058500020340120000C004013B50E4A0E4853239B
:10586000C0E9002331230024C3608023CDE9004434
:105870008460836101F0C2FF08B1FBF79DFD06481B
:105880006946CDE9004402F071F808B1FBF794FDD8
:1058900002B010BD00100040A034012013B50F4A23
:1058A0000F4848F23F330024C0E900234FF6FE734F
:1058B000CDE900448460C360846101F09FFF08B1BA
:1058C000FBF77AFD06486946CDE9004402F04EF840
:1058D00008B1FBF771FD02B010BD00BF001400401D
:1058E000203501207FB51022002102A80DF088FB91
:1058F0001548164948F23F320023C0E900124FF61E
:10590000FE72CDE90033C0E90323C0E905338360AB
:1059100001F074FF08B1FBF74FFD4FF480530A48C4
:10592000029302A901F08EFF08B1FBF745FD0023A9
:1059300005486946CDE9003302F018F808B1FBF7D5
:105940003BFD07B05DF804FBA033012000040140DB
:1059500000B50368B3F1804F89B016D103F50E335B
:1059600000220192196C41F0010119641B6C03F0D3
:10597000010301931C200521019B01F069FD1C20FE
:1059800009B05DF804EB01F095BD404A934211D196
:105990003F4B00220292196C41F0020119641B6C0A
:1059A00003F0020302931D200521029B01F050FD2C
:1059B0001D20E5E7374A934211D1354B002203926F
:1059C000196C41F0040119641B6C03F00403039388
:1059D0001E200521039B01F03BFD1E20D0E72E4A2F
:1059E000934211D12A4B00220492196C41F0080114
:1059F00019641B6C03F00803049332200521049BF7
:105A000001F026FD3220BBE7244A934211D1204BFE
:105A100000220592196C41F0100119641B6C03F00F
:105A20001003059336200521059B01F011FD36205A
:105A3000A6E71B4A934211D1154B00220692196C1E
:105A400041F0200119641B6C03F0200306933720FA
:105A50000521069B01F0FCFC372091E7114A934297
:105A600011D10B4B00220792596C41F0020159648D
:105A70005B6C03F0020307932E200521079B01F0C6
:105A8000E7FC2E207CE709B05DF804FB0004004031
:105A90000038024000080040000C004000100040A8
:105AA00000140040000401407047000008B5034C9A
:105AB00001220221204601F0BBFAF9E7000C024066
:105AC000FEE7FEE7FEE77047012001F0BDBA0220C5
:105AD00001F0BABA042001F0B7BA082001F0B4BA54
