:020000040802F0
:1000000000000220952803083155020835550208E2
:10001000495502084B5502084D55020800000000E2
:1000200000000000000000000000000081960208AF
:100030004F5502080000000011970208759702084A
:10004000E5280308E5280308E5280308E528030850
:10005000E5280308E528030851550208575502080A
:100060005D5502086355020869550208E528030832
:10007000E5280308E5280308E5280308E528030820
:10008000715502087D550208E5280308E528030894
:10009000E5280308E5280308E52803089955020820
:1000A000E5280308B5550208E5280308E5280308F4
:1000B000C1550208CD550208D9550208E5280308A4
:1000C000E5280308E5280308E5280308E5280308D0
:1000D000E5280308E5280308E5550208E528030894
:1000E000E5280308E5280308E5280308E5280308B0
:1000F000E5280308E528030839560208E52803081F
:10010000E5280308E528030845560208E528030802
:10011000E5280308E5280308515602085D56020841
:10012000E5280308E5280308E5280308E52803086F
:10013000E528030869560208E5280308E5280308AE
:10014000E5280308E5280308E5280308E52803084F
:10015000E5280308E5280308E5280308E52803083F
:10016000E5280308E5280308E5280308E52803082F
:10017000E5280308E5280308E52803080000000037
:08018000E5280308E528030847
:1001900010B5054C237833B9044B13B10448AFF3C1
:1001A00000800123237010BD0C030020000000001C
:1001B000F83E030808B5034B1BB103490348AFF3EE
:1001C000008008BD0000000010030020F83E030876
:1001D000034613F8012B002AFBD1181A0138704787
:1001E00001F0FF01102A2BDB10F0070F08D010F8E8
:1001F000013B013A8B422DD010F0070F42B3F6D1EC
:10020000F0B441EA012141EA014122F007047FF004
:1002100000070023F0E80256083C85EA010586EA5B
:10022000010685FA47F5A3FA87F586FA47F6A5FA97
:1002300087F68EB9EED1F0BC01F0FF0102F00702A3
:1002400032B110F8013B013A83EA010313B1F8D14E
:100250000020704701387047002D06BF354603382F
:10026000073815F0010F07D1013015F4807F02BF68
:10027000013015F4C03F0130F0BC0138704700BFB9
:1002800053B94AB9002908BF00281CBF4FF0FF31FD
:100290004FF0FF3000F06EB9ADF1080C6DE904CEFF
:1002A00000F006F8DDF804E0DDE9022304B0704751
:1002B0002DE9F047089D04468C46002B40F08380D2
:1002C0008A42174647D9B2FA82F242B1C2F12000FF
:1002D00024FA00F09140974040EA010C94404FEA24
:1002E0001748230CBCFBF8F61FFA87FE08FB16C163
:1002F00043EA014306FB0EF1994209D9FB1806F1C6
:10030000FF3080F01981994240F21681023E3B4451
:100310005B1AA4B2B3FBF8F008FB103344EA0344C1
:1003200000FB0EFEA64509D93C1900F1FF3380F011
:100330000581A64540F2028102383C4440EA06406D
:10034000A4EB0E0400261DB1D4400023C5E90043F0
:100350003146BDE8F08702B9FFDEB2FA82F2002A28
:1003600050D1CB1B4FEA174E1FFA87F80126B3FB7B
:10037000FEFC210C0EFB1C3341EA034108FB0CF38D
:100380008B4207D979180CF1FF3002D28B4200F270
:10039000E9808446C91AA3B2B1FBFEF00EFB10112E
:1003A00043EA014408FB00F8A04507D93C1900F1D5
:1003B000FF3302D2A04500F2D9801846A4EB08040E
:1003C00040EA0C40BFE78B4209D9002D00F0B18014
:1003D0000026C5E9000130463146BDE8F087B3FA92
:1003E00083F6002E4AD18B4202D3824200F2B880BB
:1003F000841A61EB030101208C46002DA8D0C5E9C9
:10040000004CA5E7C2F1200320FA03F6974001FA59
:1004100002F04FEA174ED9403043030CB1FBFEF611
:100420001FFA87F80EFB161143EA014306FB08F199
:10043000994204FA02F409D9FB1806F1FF3C80F056
:100440008D80994240F28A80023E3B445B1A81B221
:10045000B3FBFEF00EFB103341EA034100FB08F34F
:100460008B4207D9791800F1FF3C73D28B4271D9C6
:1004700002383944CB1A40EA064678E7C6F1200C28
:1004800003FA06F422FA0CF31C4320FA0CF701FAE3
:1004900006F34FEA144E21FA0CF11F433B0CB1FB5B
:1004A000FEF91FFA84F80EFB191143EA014109FB1A
:1004B00008FA8A4502FA06F200FA06F308D961182A
:1004C00009F1FF3048D28A4546D9A9F102092144F1
:1004D000A1EB0A01BFB2B1FBFEF00EFB101147EA1F
:1004E000014700FB08F8B84507D9E71900F1FF31CB
:1004F0002ED2B8452CD90238274440EA0940A7EB50
:100500000807A0FB02894F45C64649461AD317D0B3
:100510005DB1B3EB0E0267EB010707FA0CFCF2408A
:100520004CEA0202F740C5E9002700263146BDE843
:10053000F0872E4628460BE70646E9E61846FDE614
:100540004345E5D2B8EB020E69EB04010138DFE761
:100550000846D2E760468DE78146B9E7664675E70B
:1005600030464AE7ACF1020C394413E702383C4408
:1005700024E700BF704700BF2DE9F74F9846BDF84C
:1005800030901646002A50D0294BDFF8ACB0174601
:1005900000259A461C784FF47D7262433BF8022096
:1005A000C2B97A899AB14FF47D70511900FB045099
:1005B000B1F57A7F00F10C0028BFC5F57A72796831
:1005C0000192584412F03CFA019A194B15443F68C5
:1005D000002FDFD14FF47D71D8F8003061430BEB71
:1005E00001020134180AE4B29370D070042C4FEA6F
:1005F00013404FEA1363537184BF00238AF800301D
:100600000C4B1071C2F808901B68D8F800202BF82A
:100610000150304698BF8AF800405A60A3F8149001
:1006200003B0BDE8F04F0FF035BB03B0BDE8F08F6D
:100630002C03002028030020F0B2002090F8313075
:100640005B0703D5024B18680FF056BF704700BF19
:100650005C930120024B93F83100C0F38000704797
:100660003802012070B5334B0021D3F801401D69D9
:100670008EB0084609F0D2FAC4F30740C4F307234A
:10068000000240EA034040EA04602B0E2A49C5F309
:10069000072240EA146443EA056324BA43EA0243AA
:1006A000C5F307450C6043EA05230402050A234A03
:1006B00004F47F0405F47F451BBA2C43136044EA1D
:1006C00010601F4B1F4C40F0807018601E48029055
:1006D0001E4801900020009020460FF06FFE20463B
:1006E0000FF004FF94F831305B0720461FD50FF060
:1006F00003FF17491348174E174D0FF085FF0023CE
:10070000012105A8CDE9053308F088FD134BC6E9A2
:10071000004018600FCD07AC0FC495E8070084E8CF
:100720000700314607A808F0E9FC0EB070BD0FF0D5
:1007300007FFDEE794F00020700201207C02012018
:100740008002012038020120899B0208214F020803
:100750008D5002082C020120103F0308E0470020C2
:10076000034B5B680360034B1B685B8A4360704705
:10077000380201202803002037B501900CF00CFA54
:100780000B4D286090B1019A0A490CF051F80A49C2
:100790000446002228680CF0C7F914B128680CF050
:1007A000D5F9201E18BF012003B030BD0120FBE7A2
:1007B0002803002078AD030879050208012838B520
:1007C0000C4615460FD002280FD1102000221146EA
:1007D0000AF0D8FA0649286022460AF07DFB003864
:1007E00018BF012038BD2020F0E70120FAE700BF44
:1007F00078AD030808B5FF210AF094FB003818BF54
:10080000012008BD08B50AF049FC003818BF0120D6
:1008100008BD2DE9FF410C46002301A90746ADF8AC
:1008200000300AF07FFD002837D1A04628F80C0BD5
:1008300001986A4602A90AF031FA06462088BDF8F6
:100840000050C0F57A739D4207D82A460299404469
:1008500012F0F6F822881544258001980AF04AFA29
:100860000130E5D100230DF1020203A938460AF058
:1008700001FB039BBDF80C2062801A0C1B0E6371F8
:10088000BDF8023001982271A3600AF0F5F9301E1C
:1008900018BF012004B0BDE8F08101980AF0ECF91E
:1008A0000120F7E707B50023009331F80C2B012353
:1008B0000AF0D6FB003818BF012003B05DF804FB36
:1008C000F0B585B00C46694681E80C0006460392F7
:1008D000FFF7C0FEF8B1114F3B68E3B14FF4C172AE
:1008E000214636200FF03EFA054690B122463146A9
:1008F0000FF054FCBDF80430386803AA29460CF008
:10090000D7F80446284624B90FF0C4F9204605B0AC
:10091000F0BD0FF0BFF90120F9E700BF2803002068
:1009200070B501F0CDFF01F0C5FF02F0B5F80B4E38
:100930000B4D0C4C33786BB102F0C6FA01212846FE
:1009400006F0BFF8204606F07AFB4FF47A7008F004
:1009500002FCEFE702F080FAF0E700BFA3050020F9
:10096000000C024020020120F8B51C4D1C4E1D4F0A
:100970000224642008F0EFFB042C29DC631C052B07
:1009800022D8DFE803F01D2123031217164B186845
:1009900008F00AFD15490C22384612F043F80028E9
:1009A00014BF4FF0FF340324E3E7306808F0FCFC89
:1009B0000424DEE7286808F0F7FC4FF47A74D8E7DF
:1009C000002008F0C3FBD4E70024D2E70224D0E7DC
:1009D000B4F57A7F08BF4FF0FF34CAE7D0F00020AB
:1009E00004F10020107AFF1FD8F0002060500308A7
:1009F0002DE9F347DFF8C491674F4FF064080125F4
:100A0000082D0ADC6B1C092B00F2C280DFE803F022
:100A10000FC01C27414E617881BBB5F5807F00F087
:100A2000B58008DCFF2D40F0B3804FF4FA784046E3
:100A300008F091FBE4E7B5F57A7FF8D0B5F5FA6FE9
:100A400018BF4FF0FF35F2E7FFF70CFE4FF47A7056
:100A500008F081FB06F0B8FA02250446E7E7FFF745
:100A6000F9FD68B9204601F0E3F841F28833984275
:100A7000DDD94A4B18680028D9D008F019FCD6E710
:100A8000474B186808F090FC06F09EFA03250446D0
:100A9000CDE7444B9889FFF76FFE434B1870002851
:100AA000C5D106F091FA04250446C0E7204601F0BE
:100AB000BFF8B0F57A7FBAD93C4B186808F074FCDF
:100AC0003B4B186808F070FC06F07EFA05250446DA
:100AD000ADE7344B4A4619890220FFF76FFE324BCF
:100AE00018700028A3D1334B186808F05DFC324B16
:100AF000186808F059FC06F067FA0625044696E7E0
:100B0000294B1B78002B92D106F05EFA072504468C
:100B10008DE7D9F80000002301936423036201A943
:100B2000FFF770FE204B1870002880D13B68C3B1DE
:100B3000FB68ABB13B7A012B1BD106464FF00C0A88
:100B40000AFB06FA57F80A0028B10AF095FA57F896
:100B50000A000AF081F90C204643019BBB5166E76D
:100B600001230C225343FA180199F9500023137200
:100B70005DE73E7D012EE1D001980AF07DFA0198F3
:100B80000AF06AF953E74FF0010850E701254EE7F4
:100B90004FF0FF354BE700BF9CDE002000F1002046
:100BA000E0F0002094F000202D030020DCF0002075
:100BB000E8F00020F4F00020FCF00020D8AE002087
:100BC0002DE9F041A0B006F0FFF908F090FA364F99
:100BD000364CDFF8E880049001256426022D13D0FE
:100BE000032D5CD0012D0AD16422002107A811F049
:100BF0004FFF06F0E9F9642008F0ADFA022531460E
:100C000004A808F0E9FBE9E705A8FFF7A9FD9DF8AE
:100C1000173001939DF816309DF814200093394643
:100C20009DF8153007A812F03BFB07A8FFF7D0FA94
:100C300094E80C0081B207A8FFF742FE0A2008F0F2
:100C40008AFA069A414607A812F02AFB07A8FFF77E
:100C5000BFFA94E80C0081B207A8FFF731FE144AEE
:100C60001449537F0393137F0293D37E0193937EA2
:100C70000093537E127E07A812F012FB07A8FFF71D
:100C8000A7FA94E80C0081B207A8FFF719FE0A4BF7
:100C9000186808B108F00CFB03250126AFE70A200D
:100CA00008F059FAABE700BFD0400308A85003088A
:100CB00094F00020F840030800F10020E54003080C
:100CC00008B500F0BFFF0A2008F045FAF9E713B5B0
:100CD0000224642008F03FFAA31E042BF9D8DFE8B1
:100CE00003F0030C131E23006A4650210220FFF775
:100CF00065FD0028EDD10324EBE70098FFF77AFDAE
:100D00000028F8D10424E4E7009801A9FFF77AFD50
:100D10000028F7D1019BC8221A620524D9E701985F
:100D200000F032FA0624D4E701980AF0A5F90198F8
:100D30000AF092F8E6E700007FB50C4B02AA03F137
:100D40000806154618685968144603C40833B342A8
:100D50002246F7D118681B792060237101A9284623
:100D600000F0D8FE642008F0F6F9F7E72041030808
:100D70002DE9F047704C714DDFF8F8819EB00746C1
:100D800004F10C094146284612F03CFB06460028B7
:100D900000F0CD80421B023292B2294622804846A2
:100DA000013212F0F5FA66494846B51C12F02AFBEA
:100DB000002848D16349644812F024FB002844D13C
:100DC0006249614812F01EFB002840D160495E482C
:100DD00012F018FB00283CD15E495B4812F012FB70
:100DE000002838D15C49584812F00CFB002834D157
:100DF0005A49554812F006FB88BB5949524812F02F
:100E000001FB002879D008263E21284612F0ABFAD3
:100E10008246002800F08B80421B013229464A4856
:100E200012F0CBFA20884F4A5044451B0135023E50
:100E300025800AF1010A062E13D8DFE806F01D24EA
:100E40002B69636B76000126DEE70226DCE70326CA
:100E5000DAE70426D8E70526D6E70626D4E70726EC
:100E6000D2E713790193D3780093937852783E496F
:100E700005A812F015FA1BE0D37C0193937C009334
:100E8000537C127CF3E7D37D0193937D0093537DD4
:100E9000127DECE7537F0393137F0293D37E01937C
:100EA000937E0093537E3149127E05A812F0F8F923
:100EB00005A8FFF78DF905A90246234812F07DFA2F
:100EC00005A8FFF785F92388184420803C21504667
:100ED00012F049FA064650B3414612F093FA05461D
:100EE00028B3821B02321848314612F066FA228873
:100EF0002A44931B02332380023521463846FFF7EC
:100F0000D1FC3FE7D2681A4905A812F0C9F9CFE72A
:100F10009268F8E792F82330019392F82230009318
:100F200092F8213092F82020A1E7526AEBE70020E6
:100F30001EB0BDE8F08700BF88EA00204E420308DB
:100F40002D4103083A41030894EA00204841030870
:100F500052410308604103086B41030876410308CE
:100F60008241030894F00020904103089C4103084B
:100F700099410308F9500308F0B5744DA1B03F2121
:100F8000284612F0F0F9002800F0DD8035F80C6CEE
:100F9000441C73199C4280F0D6806D49204612F0A3
:100FA00031FA50BB651B751BA8B200232354694955
:100FB000694D6A4E6A4F204600F08CFD20466A4615
:100FC000294612F05EFA0446002800F0BD8008228F
:100FD000314612F005FA98B904F10801642207A815
:100FE00012F0D6F901A907A800F094FD18B95D4BDD
:100FF000019AC3F801200024E0E7001B80B2D4E787
:1010000008223946204612F0EBF978B904F10801BC
:10101000642207A812F0BCF902A907A800F09EFDFF
:101020000028E8D14F4B029A1A61E4E74E490822A2
:10103000204612F0D5F978B904F10801642207A816
:1010400012F0A6F903A907A800F0ACFD0028D2D140
:10105000444B039A5A61CEE744490922204612F0D4
:10106000BFF9A0B904F10901642207A805AC12F088
:101070008FF93F4A214607A800F0B8FD0028BAD1F1
:1010800094E803003B4B43F8040B1980B3E73A495B
:101090000E22204612F0A4F978B904F10E01642260
:1010A00007A812F075F904A907A800F0ECFC0028C5
:1010B000A1D12C4B049A9A609DE730490E2220461C
:1010C00012F08EF978B904F10E01642207A812F02B
:1010D0005FF904A907A800F0D6FC00288BD1214BAA
:1010E000049ADA6087E726490922204612F078F947
:1010F00080B904F10901642207A812F049F901A995
:1011000007A800F007FD00287FF475AF154B019A82
:101110001A6270E71B490B22204612F061F9002881
:101120007FF469AF04F10B01642207A812F030F9D3
:1011300004A907A800F0A7FC00287FF45CAF094BC6
:10114000049A5A6257E7012021B0F0BDC0C60020C2
:10115000BA41030894B10308C0410308C24103081F
:10116000CB41030894F00020D4410308DD4103087B
:10117000E7410308ACF00020E9410308F841030807
:10118000074203081142030810B514490446FFF74B
:1011900040FB10BB204609F072FFE8B91049114826
:1011A000062212F01DF920B92046BDE81040FFF7D5
:1011B000DFBD0D490B48142212F012F90028F3D0BC
:1011C0000A490848142212F00BF928B92046FFF703
:1011D000D3FE01F01FFBE7E7012010BDB4C60020DD
:1011E0001D420308C0C600202442030839420308F8
:1011F00030B5002495B02146142203A8CDE90A4455
:101200000C9411F045FC1D4B01941A6C42F0805275
:101210001A641B6C03F080530193019B184B0294DA
:101220001A6842F480421A601B6803F480430293F8
:10123000029B09224FF48033CDE9082302250123C4
:10124000A822CDE90D354FF48001042308A8CDE98B
:101250000F13CDE91125139304F0E2FE0F23CDE91E
:1012600003354FF4A0504FF48053CDE90603052118
:1012700003A8059405F0AAF815B030BD0038024067
:101280000070004008B505F079FEFFF7B1FF00F0EF
:10129000DBFA01F095FA00F091F810F0B9FC03F0D8
:1012A000C5FC04F01DF810F0D5FC11F039F804F07D
:1012B00039F803F073FF03F03DFF03F0DBFF03F0A9
:1012C000A3FF04F053F8144805F0B9FE134B9A68D5
:1012D00042F480529A60DA6842F00102DA609A6859
:1012E00042F001029A609A6842F002029A609A689B
:1012F00042F004029A609A6842F008029A609A6882
:1013000042F020029A60DA6842F00202DA6000F0ED
:1013100067F907F0E7FEFEE720020120002004E065
:1013200002681C4B9A4210B5044601D105F040FEFC
:101330002268194B9A4203D11849122003F0CAF8C7
:101340002268174B9A4203D11449342003F0C2F8A3
:101350002268144B9A4203D11349122003F0BAF8C1
:101360002268124B9A4203D10F49342003F0B2F89D
:101370002368B3F1804F02D10D4802F031F82268A2
:101380000C4B9A4204D1BDE81040094802F04CB819
:1013900010BD00BF0000014000040040A400002078
:1013A000000800400014004000000020000401403C
:1013B0000CF10020000C0040704700002DE9F043C4
:1013C0008DB01422002107A811F062FB00246F4B9E
:1013D00001941A6B6E4E6F4FDFF8C48142F0100219
:1013E0001A631A6B02F010020192019A02941A6BAE
:1013F00042F004021A631A6B02F004020292029A8B
:1014000003941A6B42F080021A631A6B02F0800296
:101410000392039A04941A6B42F001021A631A6B46
:1014200002F001020492049A05941A6B42F002023F
:101430001A631A6B02F002020592059A06941A6B5F
:1014400042F008021A631B6B03F00803069322465E
:101450003046C121069B05F02FFB2246384643F259
:10146000830105F029FB3F2307A94B480994032575
:10147000CDE9073805F03CFA4FF6C07307A9464896
:101480000994CDE9073505F033FA4FF60C7307A937
:101490003046CDE907354FF00109099405F028FAE7
:1014A000C12307A93046CDE90739A6F58066CDE905
:1014B000094405F01DFA49F6797307A937480994DC
:1014C000CDE9073505F014FA4CF21F4307A9304661
:1014D000CDE90735099405F00BFA4CF61C7307A902
:1014E0003846CDE90735099405F002FA43F2830343
:1014F00007A93846CDE90739CDE9094405F0F8F9DF
:101500002023CDE9073407A902233046099305F0CB
:10151000EFF94FF4407307A93046CDE90738099435
:1015200005F0E6F922460521062005F0D5FC062047
:1015300005F004FD22460521072005F0CDFC07201B
:1015400005F0FCFC22460521082005F0C5FC08201A
:1015500005F0F4FC22460521092005F0BDFC092018
:1015600005F0ECFC224605210A2005F0B5FC0A2016
:1015700005F0E4FC22460521172005F0ADFC1720FC
:1015800005F0DCFC0DB0BDE8F08300BF0038024080
:1015900000080240000C024000100240000002401F
:1015A0000000311008B5012007F0D5FDFBE708B5B4
:1015B000012007F0D0FDFBE708B5012007F0CBFDC7
:1015C000FBE7704700207047034B0360034B0B6041
:1015D00080231360704700BF3005002030030020D7
:1015E0002DE9F04FE3B00025012101A8CDE9015517
:1015F00007F014FE844C854BDFF83CB218604FF0C6
:10160000FF3107F02FFE94E80F0003AE86E80F00CD
:101610002946304607F050FE7D4BDFF820A21860C7
:1016200004F110070FCF07AE0FC697E8070086E852
:101630000700294607A807F061FD764BDFF8009206
:10164000186004F12C070FCF0EAE0FC697E8070005
:1016500086E8070029460EA807F050FD6E4BDFF81C
:10166000E481186004F148070FCF15AE0FC697E864
:10167000070086E80700294615A807F03FFD04F19A
:101680006407CBF800000FCF1CAE0FC697E8070029
:1016900086E8070029461CA807F030FD04F1800702
:1016A000CAF800000FCF23AE0FC697E8070086E800
:1016B0000700294623A807F021FD04F19C07C9F87B
:1016C00000000FCF2AAE0FC697E8070086E8070094
:1016D00029462AA807F012FD04F1B807C8F800004F
:1016E0000FCF31AE0FC697E8070086E807002946FE
:1016F00031A807F003FD494F04F1D40C3860BCE871
:101700000F0038AE0FC69CE8070086E807002946A0
:1017100038A807F0F3FC424B04F1F00C1860BCE869
:101720000F003FAE0FC69CE8070086E80700294679
:101730003FA807F0E3FC3B4A04F5867C1060BCE858
:101740000F0046AE0FC69CE8070086E80700294652
:1017500046A807F0D3FC344E04F5947E3060BEE812
:101760000F000DF59A7CACE80F009EE807008CE8AE
:10177000070029464DA807F0C1FC2C4B04F5A27EBA
:101780001860BEE80F000DF5A87CACE80F009EE8DD
:1017900007008CE80700294654A807F0AFFC244B4B
:1017A00004F5B07418600FCC0DF5B67CACE80F00F2
:1017B00094E807008CE8070029465BA807F09EFC28
:1017C0001C4B1860DBF8000007F0E8FDDAF80000B9
:1017D00007F0E4FDD9F8000007F0E0FDD8F80000BC
:1017E00007F0DCFD386807F0D9FD0D4B186807F0ED
:1017F000D5FD306807F0D2FD0A4A106807F0CEFD2B
:1018000063B0BDE8F08F00BF2C3F030800F100205B
:1018100008F10020F0F00020ECF00020F4F00020AF
:10182000FCF00020D0F00020E0F00020F8F00020D4
:10183000E4F00020D4F0002004F10020D8F00020D3
:10184000DCF00020E8F0002008B5302200211C4820
:1018500011F01EF93C2200211A4811F019F941F249
:10186000C4320021184811F013F941F2C4320021AA
:10187000164811F00DF94FF4FD620021144811F0E3
:1018800007F94FF47D720021124811F001F94FF46D
:101890007D720021104811F0FBF8182200210F483A
:1018A00011F0F6F84FF4067200210D4811F0F0F82F
:1018B000BDE808400B484FF40472002111F0E8B86D
:1018C0006CDE002094F00020F0B20020A8CA0020B6
:1018D000B4DE0020B4C6002088EA00209CDE002090
:1018E0007CEE0020DCB00020284B1A6832F0FF02AA
:1018F00045D11A7922B9264AD2F80120C3F801202D
:1019000099684FF6FE72914288BF214AD96884BF18
:1019100092689A604FF6FE72914288BF1C4A1D4938
:1019200084BFD268DA6093F82820013AD2B2FD2A47
:1019300082BF174A92F8282083F82820DA6A323AC0
:101940008A4288BF124A596B84BFD26ADA621A6B24
:10195000053AFA2A82BF0E4A126B1A6342F21072DB
:10196000914288BF0A4A996B84BF526B5A6342F214
:101970001072914282BF064A926B9A63704712F5C9
:10198000807FBDD11A79FF2ABAD1B4E794F0002044
:101990006C500308CECF070030B51AB90270144658
:1019A000204630BD0023CC5CA4F16105192D98BF01
:1019B000203CC4545C1CA3B211FA84F414F8014C0A
:1019C000002CEDD09A42EED21044002300F8013CE6
:1019D0000124E5E730B500242346025DE5B29AB163
:1019E000A2F13005092D11D803EB830302EB430369
:1019F0000134303B032C9BB2EFD1C27832B9FF2BBC
:101A000004D80B70002004E0002DF8D100230B70E7
:101A1000012030BDF0B50378302B0FD1437803F0AF
:101A2000DF03582B14BF0023022300225E1C9E42BA
:101A300006DAEBB900230B700120F0BD0023F4E7B8
:101A4000C45CECB1A4F13005EFB2092F04D845EA2B
:101A500002120133DBB2EAE7A4F16105EFB2052F10
:101A6000F5D9413CE5B2052DE4D844EA0212F0E78D
:101A7000C35C002BDED1FE2ADCD80A700020DCE734
:101A8000002BF8D1D6E7F0B50022002400234FF058
:101A90000A0C055DE6B2BDB1303DEEB2092E15D897
:101AA000A2FB0C6772190CFB037704F1010447EBEE
:101AB000E5730A2CEDD1807A40B9012B08BF002ACA
:101AC00004D20A60002004E0002EF6D100230B604F
:101AD0000120F0BDF8B505460E4604462846FEF73F
:101AE00077FB2844844212D82046314611F08AFC04
:101AF000044668B13046FEF76BFB07462046FEF70A
:101B000067FBE119421C204611F042FCE6E7012088
:101B1000F8BD000070B586B004460D46FEF758FBD0
:101B20000F2817D82146102202A80B4E11F030FCC6
:101B3000002402AB01AA3146184611F0A2FC48B1BC
:101B40002919FFF747FF28B90134042C0346F1D1C6
:101B500006B070BD0120FBE79485030870B586B020
:101B600004460D46FEF734FB0F2817D821461022F5
:101B700002A80B4E11F00CFC002402AB01AA314666
:101B8000184611F07EFC48B12919FFF723FF28B948
:101B90000134042C0346F1D106B070BD0120FBE7EF
:101BA0009485030870B586B004460D46FEF710FB19
:101BB0000F2817D82146102202A80B4E11F0E8FB7F
:101BC000002402AB01AA3146184611F05AFC48B174
:101BD0002919FFF7FFFE28B90134042C0346F1D17F
:101BE00006B070BD0120FBE79485030870B586B090
:101BF00004460D461646FEF7EBFA132816D8214682
:101C0000142201A811F0C4FB002401AB6A4631463E
:101C1000184611F036FC48B12919FFF7FBFE28B928
:101C20000134062C0346F1D106B070BD0120FBE75C
:101C300010B5044605F0C8F9A04236BFE443001BC6
:101C4000001910BD2DE9F04FB44DB54EDFF8DC8220
:101C5000ADF2844D002735F80C2C002A00F0EF80FF
:101C6000052A4FF0000108D84FF47D735F43AD4B58
:101C7000D9530DF2844DBDE8F08FB2F57A7F37BFAE
:101C8000A84885F8E7134FF47D7303FB070338BFBB
:101C90009B180DF1980938BF197348462946FFF77C
:101CA0007BFE9F49484611F0ADFB044628B94FF42E
:101CB0007D735F439B4BD853DBE74846FEF788FABA
:101CC000A9EB040103390A18211D484610F0C6FE8D
:101CD0009549484611F096FB28B94FF47D735F4350
:101CE000904BD853C5E7002404709049484611F042
:101CF00089FB814574D0DFF85CA24846514611F05B
:101D000081FB814500F0A280DFF84CB2484659467D
:101D100011F078FB814500F0CA808549484611F0F2
:101D200071FB814500F01C818249484611F06AFB35
:101D3000814500F061828049484611F063FB4845C7
:101D4000824679D17C2111F00EFBA0EB0A0ABAF190
:101D5000030F71D1441C7949204611F053FB824690
:101D6000002800F0B582A04266D17C2111F0FBFA78
:101D7000A0EB0A0ABAF1070F5ED1441C7C21204671
:101D800011F0F1FA002857D105A92046FFF7C2FE4D
:101D9000002851D155F80A3C0B9355F8043C0C939C
:101DA0009DF8173001939DF816309DF81420644972
:101DB00000930DA89DF8153011F072FA0DA8FEF7EA
:101DC00007FA0BAC94E80C0081B20DA8FEF778FD81
:101DD0000A2007F0C0F95B4B059AC3F801202BE0FD
:101DE000FEF7F6F9042827D155F80A3C56490B931B
:101DF000642255F8043C0C930DA811F0C9FA0DA803
:101E0000FEF7E6F90BACDFF854A181B294E80C00C0
:101E10000DA8FEF755FD08225146204610F002FE9F
:101E200040B10DA8FEF7D4F99AE80C0081B20DA8D4
:101E3000FEF746FD00F0EEFC002325F80C3C0137D0
:101E4000052F05F57D757FF406AF12E7FEF7C0F9A3
:101E50000628F1D155F80A3C3C490B93642255F809
:101E6000043C0C930DA811F093FA0DA8FEF7B0F9FD
:101E70000BACDFF8E8A081B294E80C000DA8FEF7E7
:101E80001FFD08225146204610F0CCFD40B10DA8A0
:101E9000FEF79EF99AE80C0081B20DA8FEF710FD3E
:101EA0004FF47A7007F057F905F056F8C4E7FEF7DB
:101EB0008FF90728C0D155F80A3C25490B936422B5
:101EC00055F8043C0C930DA811F062FA0DA8FEF72A
:101ED0007FF90BACDFF884A081B294E80C000DA868
:101EE000FEF7EEFC08225146204610F09BFD40B163
:101EF0000DA8FEF76DF99AE80C0081B20DA8FEF767
:101F0000DFFC642007F027F900F098FC642007F05C
:101F100022F900F07FFC6420C4E700BFFCB200207F
:101F2000B0500308F0B20020F9500308B550030880
:101F3000C9500308CC500308D55003083354030894
:101F40003B54030894F00020D9500308E7500308DD
:101F5000FC500308BA500308C1500308A8500308F6
:101F60000BAC55F80A3C93492360324655F8043CC3
:101F700063600DA811F094F90DA8FEF729F994E813
:101F80000C0081B20DA8FEF79BFC012007F0E3F8DE
:101F9000894964220DA811F0FBF90DA8FEF718F984
:101FA00094E80C0081B20DA8FEF78AFC012007F02E
:101FB000D2F8824964220DA811F0EAF90DA8FEF7C3
:101FC00007F994E80C0081B20DA8FEF779FC012016
:101FD00007F0C1F843467A490122CDE900680DA80F
:101FE00011F05EF90DA8FEF7F3F894E80C0081B249
:101FF0000DA8FEF765FC012007F0ADF85B467149BE
:102000000222CDE9006B0DA811F04AF90DA8FEF7E8
:10201000DFF894E80C0081B20DA8FEF751FC012016
:1020200007F099F85346CDE9006A6749DFF8C4A183
:1020300003220DA811F034F90DA8FEF7C9F894E8B1
:102040000C0081B20DA8FEF73BFC012007F083F8DD
:102050005E4B5F49CDE9006304220DA811F020F921
:102060000DA8FEF7B5F894E80C0081B20DA8FEF7B4
:1020700027FC534657490522CDE9006A0DA811F007
:102080000FF90DA8FEF7A4F894E80C0081B20DA892
:10209000FEF716FC012007F05EF853464E49062273
:1020A000CDE9006A0DA811F0FBF80DA8FEF790F835
:1020B00094E80C0081B20DA8FEF702FC012007F0A5
:1020C0004AF8534645490722CDE9006A0DA811F0A8
:1020D000E7F80DA8FEF77CF894E80C0081B20DA893
:1020E000FEF7EEFB012007F036F853463C49082284
:1020F000CDE9006A0DA811F0D3F80DA8FEF768F835
:1021000094E80C0081B20DA8FEF7DAFB012007F07D
:1021100022F8534633490922CDE9006A0DA811F08F
:10212000BFF80DA8FEF754F894E80C0081B20DA892
:10213000FEF7C6FB012007F00EF853462A490A2293
:10214000CDE9006A0DA811F0ABF80DA8FEF740F834
:1021500094E80C0081B20DA8FEF7B2FB012006F056
:10216000FAFF534621490B22CDE9006A0DA811F070
:1021700097F80DA8FEF72CF894E80C0081B20DA892
:10218000FEF79EFB012006F0E6FF534618490C229D
:10219000CDE9006A0DA811F083F80DA8FEF718F834
:1021A00094E80C0081B20DA8FEF78AFB012006F02E
:1021B000D2FF41E63D5103085451030899510308E9
:1021C000B3510308CE510308F0510308CC50030863
:1021D0000B5203082C5203085A5203088A52030870
:1021E000B6520308E5520308145303084353030887
:1021F00076530308D5500308FDF7EAFF08287FF45B
:102200001BAEB949DFF810A364220DA811F0C0F885
:102210000DA8FDF7DDFF9AE80C0081B20DA8FEF7CE
:102220004FFBB24964220DA811F0B2F80DA8FDF7DA
:10223000CFFF9AE80C0081B20DA8FEF741FB0DA874
:102240000D9406F0AFFE0DA8FDF7C2FF9AE80C0052
:1022500081B20DA8FEF734FBA34964220DA811F04A
:1022600097F80DA8FDF7B4FF9AE80C0081B20DA80D
:10227000FEF726FB9E4964220DA811F089F80DA8EF
:10228000FDF7A6FF9AE80C0081B20DA8FEF718FB37
:10229000214664220DA810F0FBFB0DA806F0C8FE35
:1022A0000DA8FDF795FF9AE80C0081B20DA8FEF786
:1022B00007FB8D4964220DA811F06AF80DA8FDF7FF
:1022C00087FF9AE80C0081B20DA8FEF7F9FAB3E592
:1022D0008849204611F096F800283DD0A0427FF4AE
:1022E000ABAD7C2111F03FF8041B072C7FF4A4ADAB
:1022F000441C7C21204611F036F800287FF49CAD68
:1023000006A92046FFF72AFC00287FF495AD55F872
:102310000A3C0B9355F8043C0C939DF81B30019339
:102320009DF81A309DF81820734900930DA89DF868
:10233000193010F0B5FF0DA8FDF74AFF0BAC94E87B
:102340000C0081B20DA8FEF7BBFA0A2006F003FFCD
:102350006A4B069A1A616FE56949204611F052F8F6
:1023600000283DD0A0427FF467AD7C2110F0FBFF38
:10237000041B072C7FF460AD441C7C21204610F028
:10238000F2FF00287FF458AD07A92046FFF70AFCAA
:1023900000287FF451AD55F80A3C0B9355F8043CE6
:1023A0000C939DF81F3001939DF81E309DF81C2062
:1023B000544900930DA89DF81D3010F071FF0DA831
:1023C000FDF706FF0BAC94E80C0081B20DA8FEF7F8
:1023D00077FA0A2006F0BFFE484B079A5A612BE5B0
:1023E0004949204611F00EF800283DD0A0427FF464
:1023F00023AD7C2110F0B7FF041B082C7FF41CAD2B
:10240000441C7C21204610F0AEFF00287FF414AD60
:1024100005A92046FFF77EFB00287FF40DAD55F897
:102420000A3C0B9355F8043C0C939DF8173001932C
:102430009DF816309DF81420344900930DA89DF89E
:10244000153010F02DFF0DA8FDF7C2FE0BAC94E87F
:102450000C0081B20DA8FEF733FA0A2006F07BFECD
:10246000264B059A1A62E7E42949204610F0CAFF74
:10247000002853D0A0427FF4DFAC7C2110F073FF22
:10248000041B072C7FF4D8AC441C7C21204610F0A0
:102490006AFF00287FF4D0AC214664220DA810F01A
:1024A00077FF08A90DA8FFF7EEFA00287FF4C4AC67
:1024B00055F80A3C089A17490B930DA855F8043CA7
:1024C0000C9310F0EDFE0DA8FDF782FE0BAC94E826
:1024D0000C0081B20DA8FEF7F3F90A2006F03BFECE
:1024E000064B089ADA60A7E4A9530308D9530308F6
:1024F0000A540308635403086B54030894F0002043
:102500008F54030897540308B7540308C0540308B2
:10251000E9540308F1540308A8500308664920460B
:1025200010F070FF002839D0A0427FF485AC7C21E8
:1025300010F019FF041B072C7FF47EAC441C7C2197
:10254000204610F010FF00287FF476AC214664226C
:102550000DA810F01DFF08A90DA8FFF794FA002898
:102560007FF46AAC55F80A3C089A54490B930DA8BD
:1025700055F8043C0C9310F093FE0DA8FDF728FECF
:102580000BAC94E80C0081B20DA8FEF799F90A2073
:1025900006F0E1FD4A4B089A9A604DE4494920460D
:1025A00010F030FF002839D0A0427FF445AC7C21E8
:1025B00010F0D9FE041B0A2C7FF43EAC441C7C2195
:1025C000204610F0D0FE00287FF436AC214664226D
:1025D0000DA810F0DDFE08A90DA8FFF754FA002899
:1025E0007FF42AAC55F80A3C089A37490B930DA89A
:1025F00055F8043C0C9310F053FE0DA8FDF7E8FDD0
:102600000BAC94E80C0081B20DA8FEF759F90A2032
:1026100006F0A1FD2A4B089A5A620DE42B49204688
:1026200010F0F0FE00283FF407ACA0427FF404ACA9
:102630007C2110F098FE041B072C7FF4FDAB00F109
:10264000010A7C21504610F08EFE00287FF4F4AB86
:1026500009AC1F4A21465046FFF7C8FA00287FF40C
:10266000EBAB55F80A3C0B9355F8043C0C9363799B
:10267000039323790293E3780193A378009363781B
:10268000227814490DA810F00BFE0DA8FDF7A0FD4F
:102690000DF12C0A81B29AE80C000DA8FEF710F992
:1026A0000A2006F058FD94E803000B4B43F8040B96
:1026B0001980FFF7C1BB00BF0F550308175503086A
:1026C00094F0002035550308405503085B55030876
:1026D000B350030863550308ACF00020F8B5064674
:1026E0000F4615460024AC4201D10020F8BD37F852
:1026F0001420002306EB4401012004F001F8002817
:10270000F4D10134EFE700002DE9F04FB0F1006F94
:1027100087B00746894616464CD3284B00EB420249
:102720009A4247D800F17844B4F5803F22D2A50BF5
:10273000C4F34F04C4F58034B44228BF34464FF08C
:10274000000B4FF0010A03F095FF642004F042FCF7
:102750000223694601A8CDE901BACDE9035A0593E0
:1027600004F078F8804688B103F096FF404607B041
:10277000BDE8F08FB4F5003F21BF00F1774505F5C6
:102780007E056D0C053538BF0425D1E72246494644
:102790003846FFF7A3FFB442E6D2361BB6F5803FBA
:1027A00009EB4409274405F1010594BF34464FF471
:1027B0000034C8E74FF00108D8E700BFFEFF0F085C
:1027C000114B124A70B503F138061546186859685E
:1027D000144603C40833B3422246F7D11868206078
:1027E0002B78FF2B0BD10A4D084C0FCD0FC40FCD0A
:1027F0000FC40FCD0FC495E8070084E80700FFF76A
:1028000073F8002070BD00BF00000E0894F0002097
:102810006C50030870B5074D074E03241E2229464D
:102820003046FFF771FF18B1013C14F0FF04F5D1F9
:1028300070BD00BF94F0002000000E0830B5074DB9
:10284000074C0FCD0FC40FCD0FC40FCD0FC495E8AB
:10285000070084E80700002030BD00BF6C5003086B
:1028600094F000207FB501230A22CDE901320DF159
:1028700017028DF8170000927821002202480FF00D
:1028800079FF07B05DF804FB809401207FB5012338
:102890000A22CDE901320DF117028DF817000092DE
:1028A0007821402202480FF065FF07B05DF804FB75
:1028B00080940120AF20FFF7D5BFAE20FFF7D2BF35
:1028C00010B5002280215A4804F0F6F8642006F082
:1028D00042FC01228021564804F0EEF8642006F004
:1028E0003AFCFFF7EAFF0446002840F09E80FFF71D
:1028F000B9FF0446002840F098801020FFF7B2FF8F
:102900000446002840F091802020FFF7ABFF0446EA
:10291000002840F08A800120FFF7A4FF0446002829
:1029200040F083802120FFF79DFF044600287CD1E2
:10293000FFF798FF0446002877D17F20FFF792FF2A
:102940000446002871D12220FFF78CFF044600289E
:102950006BD1FFF787FF0446002866D10320FFF7FD
:1029600081FF0446002860D18120FFF77BFF0446E9
:1029700000285AD14520FFF775FF0446002854D19E
:10298000A020FFF76FFF044600284ED1A620FFF7D6
:1029900069FF0446002848D1A820FFF763FF0446DA
:1029A000002842D11F20FFF75DFF0446E8BBC82086
:1029B000FFF758FF0446C0BBD320FFF753FF044680
:1029C00098BBFFF74FFF044678BBD520FFF74AFFBF
:1029D000044650BB8020FFF745FF044628BBD920A2
:1029E000FFF740FF044600BB2220FFF73BFF0446F1
:1029F000D8B9DA20FFF736FF0446B0B91220FFF746
:102A000031FF044688B9DB20FFF72CFF044660B98C
:102A10002020FFF727FF044638B98D20FFF722FF5B
:102A2000044610B91520FFF71DFF204610BD00BF5A
:102A3000000C024070B52120FFF714FF034638BB9D
:102A4000FFF710FF034618BB7F20FFF70BFF03467D
:102A5000F0B92220FFF706FF0346C8B9FFF702FFCF
:102A60000346A8B90320FFF7FDFE034680B9094ECF
:102A700080240025EB01F05CFFF708FF034638B91E
:102A80000135042DF6D1013CA4B20136002CF0D161
:102A9000184670BDDCAE002008B505484FF4007242
:102AA00000210FF0F5FFBDE80840FFF7C3BF00BFEE
:102AB000DCAE00202DE9F04390429DF81CC043D8C5
:102AC000994241D87F283FD81F293DD8904210D243
:102AD0007F2A28BF7F2299420DD21F2B28BF1F2398
:102AE000DFF868E04FF00108904227D90020BDE8E8
:102AF000F0830246EFE70B46F2E7072C1AD91F2CAA
:102B00001AD8E6080EEBC61604F0070516F907906A
:102B100008FA05F56DB2BCF1010F0CBF45EA0905D5
:102B200029EA05050134F555A4B29C42E5D90130E6
:102B300080B2D9E70026E5E70426E3E780280746C8
:102B40000C4628BF8027F0E70120D0E7DCAE00204C
:102B50002DE9F04F85B07F2803929DF83CE09DF869
:102B60003820009140D81F293ED80C2A07D002F007
:102B7000F704102C03D002F0EF04202C34D14FEADC
:102B8000520C1CFB03F3441E23449BB27F2B28BF33
:102B90007F230193009BDFF804811344013B9BB228
:102BA0001F2B28BF1F2302930026019983B28B425B
:102BB00065D9002005B0BDE8F08F0399B6FBFCF3A2
:102BC00011F803B0072C8CBFE5080025BBF11F0FDF
:102BD0000AD9ABF1200B182A1FFA8BFB3AD005D883
:102BE0000C2A0CD0102A2ED00120E3E7202AFBD19A
:102BF0000CFB13639B00254903EB8B1305E00CFBD7
:102C000013635B00224902FB0B3301EBE70B1BF85C
:102C1000033007F0070B43FA0BF3DB0722D508EB71
:102C2000C51504F0070315F800B00AFA03F343EAE8
:102C30000B032B540134A4B20137029B9C42BCD934
:102C400001360130B1E70CFB13635B00114903EB64
:102C50000B13DAE70CFB136303EB43030E4909FB89
:102C60000B33D2E7BEF1010FE4D108EBC51504F038
:102C7000070B2B5C0EFA0BFB23EA0B03D9E7009C36
:102C800000274FF024094FF0010AD6E75C6D0308D6
:102C90009C550308105A030800600308DCAE0020AE
:102CA0002DE9F3475E4D5F4895F80980EF7895F878
:102CB00006A000F07FFE002840F098805A4800F0FF
:102CC00079FE0646002840F09180584CDFF8849148
:102CD000544800F07FFE544800F07CFE2246062156
:102CE000484600F04BFC238899F82E0003F00F03B0
:102CF0005FFA8AFA13EA0A0F637814BF01220022EE
:102D000062F3000363704A4C4A4B84F801805322FB
:102D1000227099F80A209B6FA770012A99F8162053
:102D20000CBF6FF00F010021012A0CBF0F220022FF
:102D3000114399F822202171012A0CBF6FF00F0274
:102D4000002201280CBF0F200020024362711BB13A
:102D50009A88A271DB88E3710023E37000F0A8FB7E
:102D6000030AA372030C6372030EE0722372324CE7
:102D700099F84610314B84F801804422227099F86A
:102D80003A209B6FA770012A0CBF6FF00F02002240
:102D900001290CBF0F2100210A4399F8521022711A
:102DA000012999F85E100CBF6FF00F000020012977
:102DB00008BF0F26064366711BB19A88A271DB8893
:102DC000E3710026E67000F073FB030AE072A37261
:102DD000030C000E20723246154863720D2100F07C
:102DE0003FFB154832460D2100F03AFB144B154AC3
:102DF00015491248CDE90053144B01F049F838B990
:102E0000134A137843F00203137002B0BDE8F08751
:102E10000330FAD10E4A137823F00203F4E700BF1F
:102E2000CFF1002015F100201EF10020A1050020A7
:102E300088000020A4000020950000200000002051
:102E4000440200202C0100200CF100209FF1002002
:102E5000A30500206FF1002070B5194B86B002AABF
:102E600003F10806154618685968144603C4083368
:102E7000B3422246F7D1186899889B79A371114B08
:102E80002060A1801C78CCB1013CE4B200211C7010
:102E90007F2200911F230846FFF70CFE102201211C
:102EA000CDE90021C4F10E030021DBB22A46084619
:102EB000FFF74EFEFFF7BEFD06B070BD0324E5E749
:102EC0001C850308A200002030B5144A87B0516861
:102ED000106803AB03C31189927A19809A70104B62
:102EE0001C78CCB1013CE4B200251C707F22009517
:102EF0001F2310212846FFF7DDFD1021C4F10A032E
:102F00000122CDE90012DBB203AA2846FFF720FE1A
:102F1000FFF790FD07B030BD0324E5E72B850308DC
:102F2000A300002010B5254C254821460E2201F0B3
:102F300073FE2378FF2B04BF02232370E378FF2B5B
:102F400004BF0123E370E379FF2B214606D1E37828
:102F5000012B01BF1B4B1B78DB43E3710B7A4A89C2
:102F6000FF2B04BF3C230B728B79FF2B04BF0F2375
:102F70008B714B78FF2B04BF01234B700B79FF2B18
:102F800004BF01230B714B79FF2B04BF05234B7149
:102F90004FF6FF739A4201BF6FF04B038B72002311
:102FA000CB720B7BFF2B04BF01230B734B7BFF2BDF
:102FB00004BF02234B73002010BD00BFCFF10020DF
:102FC00000000808A840030800487047CFF100201F
:102FD000014B1878704700BFCFF1002070B52C4B23
:102FE0000022022140201024042501265D709970E2
:102FF0005D7399735974997683F8261083F82810B5
:1030000083F8321083F834501A70D8701A715E71D8
:103010001A73D8731A741A765C76D8761E775A7734
:1030200083F8242083F8254083F8270083F829209B
:1030300083F8302083F8314083F8330083F835205B
:1030400083F83C20082583F83D4083F83E1083F840
:103050004A1083F85610202183F83F0083F840502F
:1030600083F8412083F8482083F8494083F84B00D7
:1030700083F84C4083F84D2083F8542083F8554062
:1030800083F8570083F8581083F8592070BD00BFAB
:103090006FF1002038B53C4D3C4CFFF743FFFFF784
:1030A0009DFF284600F096F805226274A2766FF024
:1030B000470284F858200B2284F8592034486FF0D6
:1030C000170200236FF0640184F861200322637209
:1030D000E372A372217423736373A373E373A37402
:1030E0002375E37461766375A375E375237684F8BD
:1030F000513084F8533084F8523084F8543084F8D6
:10310000553084F8563084F8573084F85A3084F8B3
:103110005C3084F85B3084F8622084F85D300268AB
:1031200084F85E3084F85F3084F86030D36843F010
:103130001003D360A968174D4FF480620EF004FFAE
:1031400000F0D2F8E87900F07DF8FF2104F10900E1
:1031500000F074FCFF2104F1120000F06FFCFF216D
:1031600004F1510000F06AFCFF2104F15A0000F064
:1031700065FC2946084800F0D5FD22462946074847
:10318000BDE8384001F0ECB9E40101200CF1002069
:1031900040940120CFF1002000000020A400002076
:1031A0000368596270470368586A80B2704700002C
:1031B000034B04489A69996892B20EF0C5BE00BFED
:1031C000E40101204094012001480EF005BF00BF3A
:1031D00040940120134B036003F58062426003F5C5
:1031E000006203F54063C360002303748374C374F7
:1031F00003758375C37503768376C3760377837708
:10320000C377012380F83030074B8260C0F831303B
:103210000422064B4274427542764277C0F835303C
:10322000704700BFE4F10020B1310208C931020843
:10323000024B82B2D96802480EF04CBEE401012074
:1032400040940120F0B589B0244B254E0024019410
:1032500007941A6B42F008021A631A6B02F0080214
:103260000192019A02941A6B42F004021A631B6BDA
:1032700003F00403029305460127029B03A9C02320
:103280003046CDE90337CDE9054403F031FBCDE904
:103290000544144C4FF4405303A92046CDE90337AD
:1032A00003F026FB05EA07023046402103F004FC48
:1032B000C5F3400220464FF4805103F0FDFBC5F3F7
:1032C00080023046802103F0F7FBC5F3C0024FF4C3
:1032D0000051204603F0F0FB09B0F0BD0038024079
:1032E00000080240000C024008B50A4803F0ADFE99
:1032F000094803F0AAFE094803F0A7FE084803F0B6
:10330000A4FE084803F0A1FEBDE80840064803F00B
:103310009CBE00BF2C340120AC330120EC340120D2
:103320006C330120AC340120EC330120B0F5807FF8
:1033300007B501460AD1224B0093224A224B0121B4
:10334000012001F0D5F803B05DF804FBB0F5007F73
:1033500005D11B4B00931B4A1B4B0221F0E70128B0
:1033600005D1174B0093194A174B0220E9E70228B1
:1033700004D1134B0093154A134BE2E7042818D1EC
:10338000022300930E4A124B0121124801F0DAFB8E
:10339000D9E7102906D102230093094A0E4B0121D7
:1033A0000E48F3E72029CED102210B4B044A0091AD
:1033B000F6E70828EDD10221054B014A0091E4E728
:1033C000380200202C340120A4000020AC3301205E
:1033D000EC340120000000206C3301202C00002080
:1033E00010B50446093000F03FFB04F1120000F074
:1033F0003BFB04F1240000F037FB04F12D0000F04A
:1034000033FB04F1360000F02FFB04F13F0000F025
:103410002BFB04F1480000F027FBBDE810400148F9
:1034200000F09ABB90050020024A13680133136034
:10343000704700BFE0F100200148012103F041BBCB
:10344000000C024005F087BE014800F0C3BA00BF7F
:1034500039F10020014800F0BDBA00BF42F1002060
:1034600008B5054B89B20CCBFDF72AFABDE8084038
:103470000A2005F070BE00BFA850030810B504462E
:1034800020B9094840F22B1100F0C8F82046FCF79B
:103490009FFE064B81B20CCB2046FDF711FA0A20A5
:1034A00005F059FE002010BD36850308A85003081A
:1034B000014B1868704700BFE0F1002008B50E4BC3
:1034C000186818B14FF0FF3105F0CCFEFFF7E2FDB0
:1034D0000A480B4CFFF7D2FF0A48FFF7CFFF0A4814
:1034E000FFF7CCFFFFF7DCFB204603F0A8FD01202F
:1034F00005F031FEF6E700BF00F1002073850308F8
:1035000020020120730200205002002008B5064C62
:10351000064DE36A1BB12946204600F0C7F8642037
:1035200005F019FEF5E700BFE40101203132020881
:1035300070B50D4C0D4D0E4E0E4823462A463146B1
:1035400001F032F840B90C4B187840F001001870C7
:10355000012005F000FEEFE70330F9D1064B1878A3
:1035600020F00100F3E700BF6FF100206134020892
:103570000CF10020A4000020A30500202DE9F74F46
:103580000F461646044618B923481A2100F046F89B
:103590001EB921481B2100F041F84FF000084546B4
:1035A0004FF00109A188D4F800B00191FFF780FF26
:1035B00001998246584603F079FA01281AD1C4F8D5
:1035C00006A009FA08F3A0725BB26DB201280CBF25
:1035D0009D431D433388EDB203F0F00308F1010869
:1035E0002B43B8F1080F338004F10C04DAD103B097
:1035F000BDE8F08FD4F806309A4536BF0AF1FF32A5
:10360000AAEB0303D31A9F4204D957452CBF0020CD
:103610000120D6E70020D4E7968503087047000014
:1036200070B50D461646044618B912482A21FFF710
:10363000F5FF1DB90F482B21FFF7F0FF29462E4457
:103640000023B14201D1002070BDE06A626990425E
:1036500021BF84F82C3084F82D3084F82E3084F883
:103660002F30E26A6068551CE56211F8015B8554F1
:10367000E7E700BFD685030838B5044618B90A48FD
:103680004421FFF7CBFFE56A6168E0682A460FF046
:10369000D7F9002384F82C3084F82D3084F82E30AC
:1036A00084F82F30284638BDD685030873B50E46FA
:1036B000044618B910485821FFF7B0FF1EB90E484C
:1036C0005921FFF7ABFF94F83030012B11D10025C1
:1036D00084F830502046FFF7CFFF0190D4F8353002
:1036E00098470198B047D4F831309847284602B03F
:1036F00070BD4FF0FF30FAE7D685030838B50D46A8
:10370000044620B90B4840F27111FFF787FF636A46
:10371000226959199BB29A42616208D8A36A0BB117
:10372000013BA362B1FBF2F302FB131161620020C3
:1037300038BD00BFD6850308F8B50E4617461D46AE
:10374000044620B91A4840F2C521FFF767FF25B9A2
:10375000174840F2C621FFF761FF636AD4F810C032
:10376000216898B216FA83F39BB2B3FBFCF20CFB10
:1037700012330B4413F8013CBB4215D12B46AF1951
:103780009F4205D131462046FFF7B8FF0020F8BD23
:103790000A5C03F8012B0130256980B2B0FBF5F219
:1037A00005FB120080B2EBE74FF0FF30EFE700BF00
:1037B000D685030810B5044620B9064840F25F11CB
:1037C000FFF72CFFA06A23694343606A1B1A206A33
:1037D000184410BDD68503082DE9F041DDF81880A6
:1037E0000F4616461D46044620B9224840F22F11C6
:1037F000FFF714FF27B91F484FF49871FFF70EFF2A
:10380000B8F1000F04D11B4840F23111FFF706FF59
:103810002046FFF7CFFF636AD4F800C039787A7882
:1038200020B31CF8030088421ED196B120690133F1
:10383000B3FBF0F100FB113331781CF803309942EF
:1038400006D202212046FFF759FF4FF0FF3009E072
:10385000F55C002DF5D0434629462046FFF76CFF66
:103860000028EED1BDE8F0810121EBE76FF0030005
:10387000F8E700BFD685030837B50C46054620B9E2
:103880001B4840F28711FFF7C9FE24B918484FF4CE
:10389000C471FFF7C3FE002328460193FFF78AFF98
:1038A0000190019B63B1019B53B129686B6A019A36
:1038B00019442046FFF7B4FE01992846FFF71EFF82
:1038C0002046FFF777FF0190019B7BB1019B6BB115
:1038D0002168636A019A19442846FFF7A1FE0199FD
:1038E000204603B0BDE83040FFF708BF03B030BD4D
:1038F000D6850308F8B50D46044620B9124840F2B3
:10390000AB11FFF78BFEA369AB4218BF5D1B002311
:103910001A469D4200D1F8BD216AA66820684F1C56
:103920002762F65C4654206A216988420AD3A16A5C
:1039300084F82020013184F8212084F8222084F8A2
:103940002320A1620133E4E7D685030838B50C468D
:10395000054620B9074840F2F321FFF75FFE34B176
:103960000123013C2B70C5F80940002038BD4FF001
:10397000FF30FBE7D685030810B5044620B905489B
:1039800040F21331FFF74AFEE078013818BF4FF0DC
:10399000FF3010BDD685030810B5044620B9044891
:1039A00040F2E621FFF73AFE0020E07010BD00BFB4
:1039B000D685030810B5044620B905484FF44C716C
:1039C000FFF72CFE6078013818BF4FF0FF3010BDB4
:1039D000D685030810B5044620B9044840F23A31B0
:1039E000FFF71CFE0020607010BD00BFD6850308E5
:1039F00010B5044620B9104840F26931FFF70EFEB9
:103A0000A378012B14D0B4F8033023B92370012319
:103A1000A370002010BDFE2B4FF0010204D8013B23
:103A20002270A4F80330F2E7FF2B08BF2270EEE704
:103A30004FF0FF30EEE700BFD685030838B50D46DE
:103A4000044620B9074840F22231FFF7E7FDA4F809
:103A500003500025A5702046FFF7CAFF6571A571C8
:103A6000284638BDD685030810B5044620B90E484F
:103A700040F25231FFF7D2FD2278012A0FD1B4F87B
:103A80000530B4F80710994297BF002301336270E4
:103A9000A37099BF6371A371A4F80530A27020468A
:103AA000FFF7A6FF002010BDD68503082DE9F041E1
:103AB0000F469DF8188015461E46044620B9254835
:103AC0004FF4F271FFF7AAFDB8F1010F24D1237969
:103AD000FBB939462046FFF739FF18B14FF0FF30E8
:103AE000BDE8F08126710DB90020F9E7C4F80D504A
:103AF0002046FFF741FF0028F6D1A8472046FFF7F0
:103B00004BFF23795A1E2271002BEDD0002020702C
:103B1000E6E7002DE8D0EBE7B8F1000FE4D120464E
:103B2000FFF72AFF0028DFD1D4F80D309847204650
:103B3000FFF732FF2379002BE8D0D4F80910204694
:103B400089B2FFF703FF0028C8D12379013B237115
:103B5000C6E700BFD685030813B5044620B911484F
:103B60004FF40471FFF75AFD23787BB1D4F8053088
:103B7000D4F8092093420CD20133C4F80530002355
:103B800000931A4619462046FFF790FF002002B026
:103B900010BD002301222370E2706371A371E371F1
:103BA0002372ECE7D685030838B50D46044620B9E4
:103BB000074840F2A721FFF731FD25B904484FF42B
:103BC0002A71FFF72BFD6B7884F87C30002038BD1C
:103BD0000C8603082DE9F8430E46DDE9085917461F
:103BE0009846044620B94D4840F25F21FFF716FD84
:103BF00026B94A484FF41871FFF710FD27B9474816
:103C000040F26121FFF70AFD25B9444840F26321E3
:103C1000FFF704FDB9F1000F04D140484FF41971CA
:103C2000FFF7FCFC23789A0774D023F0030323707A
:103C3000B9F1000F04D1394840F2F121FFF7EEFC51
:103C400061790C230A096FF00B0013FB02024A444E
:103C5000927A3AB101F00F0113FB01034B449B7AB6
:103C6000002B50D1FFF7B0F901234089A374B8F8B5
:103C70000230C0B200EBC00080009B00B0FBF3F04C
:103C8000E0803146204600F025FE26B9234840F268
:103C90008521FFF7C3FC6423EB7033896B71A38923
:103CA000EB711B0AAB7173782B72B3786B72638BF9
:103CB000EB721B0AAB726379122B27D14123A370DD
:103CC000A3782B730A21681D00F090FF5023EB733B
:103CD0000123A8736B70AB703389052B11D827B9FA
:103CE0000E4840F21F41FFF799FCFFF76DF90C4BAE
:103CF000027903EBC201013113F832203846FFF795
:103D00008FFC002008E00223A374BAE7342BD7D13C
:103D10004223D4E76FF00300BDE8F8830C86030864
:103D2000248703082DE9F04106464F890C46FFF72A
:103D30004FF9830740F196804B48DFF85081FFF739
:103D40009DFB2079494B00EB80001844FFF796FB60
:103D50004748FFF793FB6079464BC0EBC0000A254C
:103D60001844FFF78BFB6089B0FBF5F36422B0FBCE
:103D7000F2F1B1FBF5F205FB1212303288F80020A7
:103D8000B3FBF5F205FB123205FB1303303230337F
:103D9000394888F8012088F80230FFF76FFB404669
:103DA000FFF76CFB3548FFF769FB2846FFF74AFB36
:103DB000334B012283F80421002283F8052140229D
:103DC00083F80221382283F8032121463046FFF789
:103DD000EBFE26B92B4840F2B621FFF71FFC2A4B19
:103DE000B78300223221A6F8487083F8482083F870
:103DF0004A2083F8492083F84F1083F8502083F835
:103E00004B2083F84C2083F84D2083F84E20217AF4
:103E100083F82D20C1EB411001EB8000C000013977
:103E20009886C1EB411001EB8001C90083F82F2077
:103E300083F82E2083F8302083F8312083F8322055
:103E400083F8332083F8242083F8262083F8252064
:103E5000A3F82B1083F8272083F8282083F8292043
:103E600083F82A20BDE8F0813D86030858870308BF
:103E700050860308A2860308628603085B50030885
:103E80002C0100200C8603080CF10020B047002014
:103E90002DE9F04F2DED048B0F4685B014461E46DC
:103EA000054618B9BC488421FFF7B8FB1FB9BA48CA
:103EB0008521FFF7B3FB1CB9B7488621FFF7AEFB9E
:103EC0001EB9B5488721FFF7A9FB129B1BB9B24861
:103ED0008821FFF7A3FB139B1BB9AF488921FFF78C
:103EE0009DFBFFF771F80379029304F5817825B9FA
:103EF000A94840F20921FFF791FB139B23B9A6487B
:103F000040F20A21FFF78AFB27B9A34840F20B21B0
:103F1000FFF784FB24B9A0484FF40371FFF77EFB41
:103F2000139BD3F8009007F1240308EE103A129B7C
:103F3000DB7903F0010208EE902AC3F3400300226C
:103F40000221284609EE103A00F042FD830707F1EE
:103F5000120B07F12D0A40F15581CDE90046434689
:103F60004A46A96FA86DFFF735FE002180465846E6
:103F7000FFF764FD01215046FFF760FD012118EEB7
:103F8000100AFFF75BFD012107F13600FFF756FD30
:103F900001230093814A824803233221FFF786FDE3
:103FA0005046FFF707FD0746002844D15046FFF76B
:103FB00011FD1C22394628460EF06AFD1C223946A6
:103FC00005F12C000EF064FDB5F86030F372B5F821
:103FD0006230F3750E22394605F15C000EF058FD93
:103FE000B5F86E3086F82330B5F8703086F82F308B
:103FF0000E22394605F16A000EF04AFD40F20B121E
:10400000394620460EF044FD12992846FFF7CCFDB4
:1040100018EE902A6348402102F04EFD19EE102A56
:1040200061484FF4805102F047FDFF215846FFF7E9
:1040300005FD6FF00208139B9F681E68FEF7C4FF22
:10404000129B9B78012B04F1120940F0F580314658
:104050003846FFF711FC139B18EE100A1E68FFF795
:10406000A9FC40B9514B53F804291B689A4280F0CF
:1040700062810123A370129BDE79DB78012B06F0AD
:10408000010740F0D6816278129BA86FD5F858A03E
:1040900093F80CB0012A3546C6F3400615D1437893
:1040A00000210B2B617040F06381637B40480292DA
:1040B00023F00F0343F004036373FFF78BFC3C48CA
:1040C0000021FFF7BBFC029A22703948FFF772FC0F
:1040D000824688B93648FFF77DFC51463448FFF7E1
:1040E000ADFC30483A46402102F0E6FC2E4832460C
:1040F0004FF4805102F0E0FC2178012913D1002314
:1041000023702C48FFF79AFC26483A46402102F0DB
:10411000D3FC254832464FF4805102F0CDFC637B3E
:1041200043F0400363732348FFF744FCB8B967F3D7
:10413000000566F34105EDB21E48FFF74BFCEA436C
:1041400002F001021748402185F0020502F0B4FC9C
:10415000C5F3400214484FF4805102F0ADFCA3783F
:10416000012B49D1139B9D680023A37025B90A48F0
:1041700040F2EE31FFF752FA237A0F490B2B02BFC0
:10418000237901332371094B186801F584431B68B7
:10419000984280F0588111E00C86030839340208F7
:1041A0009005002000080240000C0240A8470020B3
:1041B0004BF1002054F10020A4050020422343438A
:1041C000CE18CA5C62747678267444F204260130F4
:1041D00002338851194448460EF032FC617C0F319D
:1041E0002A46C9B2E01CFFF73BF90023637423742D
:1041F000637B03F00F036373404605B0BDEC048B93
:10420000BDE8F08FC20614D543464A4605F15C016D
:10421000CDE900462846FFF7DDFC4346CDE90046E0
:104220004A4605F16A0105F12C00FFF7D3FC8046F0
:10423000B6E64FF0FF38B3E60379854F304617F8FE
:1042400003A0FFF7B7FA5045FFF405AF0298814984
:10425000CDF8009001EB4001534630460022FFF7B5
:10426000BBFA0646002862D1FEF7AEFE037923743E
:10427000FEF7AAFE037917F803A084F811A0FEF751
:10428000A3FE754B027913F812B003EB42035A7880
:10429000637C02930392FEF797FE0179029B795C9F
:1042A00099423FF6D8AE6D4B1F6887B1039A09EB70
:1042B0000B013046AAEB02020BF1020BA3F584437B
:1042C0001FFA86FCBC4521D300283FF4C4AE42232C
:1042D000BFB2634E5F43B81C5246304449460EF0AD
:1042E000AFFB627CF255F319227C5A7006F58446C6
:1042F0003368FE2B89BF4FF0FF3301333370002347
:1043000091BF33607370B370F370A4E6422000FB7A
:104310000CB01844CDE902120EF084FB10F0FF003F
:10432000DDE902124E4B06F10106C9D193E60023E6
:10433000637423748FE618EE100AFFF74BFB26B95F
:10434000484840F22E41FFF769F9FEF73DFE464B23
:10435000027903EBC201013113F832203046FFF736
:104360005FF944F20C2200213D480EF091FB82E6F9
:104370000C2B06D1637B23F00F0343F0040363731C
:10438000A3E60D2B05D1637B23F00F0343F0060357
:10439000F5E7A3F11402092A3FF697AE0A21B3FB11
:1043A000F1F201FB12330278DBB29A427FF48DAE58
:1043B000BAF1000F04D12B4840F23E31FFF72EF93D
:1043C000FEF702FE94F80631012B284B27D0BAF8ED
:1043D0001A2022B3408941F29411B1FBF0F14A4313
:1043E00092000A21B2FBF1F2A3F84620002283F8E2
:1043F0003F2083F8412083F8402083F8442083F84D
:10440000452083F8422083F8432019480121FFF713
:1044100015FBBBF1020F04BF0123237055E6B4F86E
:10442000022191B20029DFD11248FFF727F80F4B84
:10443000DCE73A461048402102F03EFB129BDA7955
:10444000C2F3400286E6002363742374C6E600BF0D
:1044500054870308448703084C870308A4470020B7
:10446000A40500200C860308048703080CF1002033
:104470004BF10020798603080008024070B50378EC
:1044800016469A0721D523F00203114C03700B89BD
:10449000A3708389237200251B0A7322E57025719E
:1044A0006571A571E371837822700A210122A01C35
:1044B00062706372A57200F099FB5023E07223735F
:1044C00020460D21B047284670BD4FF0FF30FBE776
:1044D000B3470020122804D14B8901334B810020BF
:1044E0007047342802BFCB8E0133CB86F7E700003C
:1044F000F0B585B01C460A9F05460E4613462AB9FC
:10450000164803923521FFF789F8039B2CB913480D
:1045100003933621FFF782F8039B2FB90F480393CB
:104520003721FFF77BF8039B012D0BD100953A460D
:104530003146204600F006FB002814BFFF20002073
:1045400005B0F0BD022D06D10122009231463A4657
:1045500004F12C00EEE70020F2E700BF6C870308AF
:1045600010B5097AC1EB411401EB84010023C900A5
:1045700082F8363082F8383082F83730A2F83D10B1
:1045800082F8393082F83A3082F83B3082F83C3099
:10459000044618B90348E921FFF740F8012384F8DD
:1045A0007C3010BD6C8703082DE9F7430E46154695
:1045B00001F10909002201F13608042104461F46D1
:1045C00000F006FA820754D52A46A16FA06DFFF7C6
:1045D00055FF002105464846FFF730FA01214046C5
:1045E000FFF72CFA012106F12D00FFF727FA01232E
:1045F00000932A4A2A4803233221FFF757FA4046FC
:10460000FFF7D8F9064680BB4046FFF7E3F91C22C6
:10461000314620460EF03CFA1C22314604F12C00B3
:104620000EF036FAB4F86030FB72B4F86230FB7505
:104630000E22314604F15C000EF02AFAB4F86E3016
:1046400087F82330B4F8703087F82F300E223146C7
:1046500004F16A000EF01CFA012384F87C30FF217B
:104660004846FFF7EBF96FF00205284603B0BDE8B6
:10467000F083C3060ED52A4604F15C012046FFF7FD
:10468000FDFE2A4604F16A0104F12C00FFF7F6FE54
:104690000546B4E74FF0FF35B1E700BF39340208F3
:1046A00090050020022AF8B504460D4667D0042A7A
:1046B00063D1C378012B38D1437813F0FD0F00F09C
:1046C000FF8000230371CB880133CB80628923896B
:1046D000002A18BF4FF0FF339BB2238223790122B7
:1046E0006270134423710023E370A3602379022BCB
:1046F0000FD9238AE2899A4292BF4123A3814223A0
:10470000A370237898BFA28143F004032370012390
:1047100023712379012B2ED92B89F3B9E28902B9B0
:10472000228AA28101339BB21BE0022BDED14378A7
:10473000012B40F2C980002303718B8801338B80E9
:1047400062892389002A18BF4FF0FF339BB2E381AF
:104750002379022262700133C4E74FF6FF7293425D
:10476000E0D12B81237843F002032370237843F0B8
:104770000103237001E0002BF8D10020F8BD20B91F
:10478000534840F24F21FEF749FF25B950484FF4F6
:104790001471FEF743FFE378012B31D1637813F0F6
:1047A000FD0F00F08680EB880133EB802389E382E4
:1047B0002379012262701344237100232381E37063
:1047C00025B9434840F20221FEF728FFA08BA0F153
:1047D000B403DC2B237997BF4FF4B4620822B2FBF9
:1047E000F0F2D2B2002BC8D0B4F81AC0E18ABCF102
:1047F000000F14D0A1EB0C039C4510DB6183BCE7D8
:10480000022BDDD16378012B57D9AB880133AB8004
:104810002389E3822379022262700133CCE72B895A
:10482000A77C33B9237843F00103237001232B8144
:1048300039E0268B9EB9012F09D12278A18142F05F
:104840000202013322702B81E388638302E0022F8E
:1048500000D1618301B12183002323718DE7B6FB71
:10486000F2FE71450DDD2278A18142F00102227035
:104870004FF6FF72934201D00133D8E74FF6FF7332
:10488000D5E712014FF00A0ED2B270430EFB0CFCBA
:10489000B0FBFCF0904209DD002262831422B6FBDB
:1048A000F2F6B142DFD8012FD4D1CDE7022FFAD1F1
:1048B000CFE7002B3FF47BAF78E7002BA9D0A7E729
:1048C000002B3FF40AAF01E7002B3FF440AF37E77E
:1048D0009D87030838B50C46054618B93B483B216F
:1048E000FEF79CFE1CB939483C21FEF797FE218952
:1048F000AB89022908D1A38140F60243238000231B
:10490000A3704FF0FF3038BDA2896AB902290BD9D4
:1049100061780B2904D140F602422280A381F0E79E
:104920000B236370A270ECE713B90B236370E8E705
:104930009A426178A3814FF00A0022D2B2FBF0F2D2
:10494000B3FBF2F30D2BDAB20FD801316170A27014
:104950006378A3F10A02092A21D80A21B3FBF1F2F4
:1049600001FB123323700020CDE70A39092994BFD7
:1049700015210B211E2B6170A270E9D915236370DC
:10498000E5E7B3FBF0F3B2FBF3F31E2B01F10101FA
:10499000A37088BF1623617088BF6370D8E7A3F146
:1049A0001402092ADFD80A202178B3FBF0F200FBB9
:1049B0001233DBB299424FF0000004D20129A2D099
:1049C0000B2363709FE79ED1A0819CE79D8703081E
:1049D0002DE9F3410D469046044618B93548A32108
:1049E000FEF71CFE94F87C30D80704F12C0604F185
:1049F0005C0104F16A072BD5E378D3B12A4620463F
:104A00000191FFF74FFE0199A4651223A16763711D
:104A100094F87C3023F0010343F0020384F87C30E7
:104A2000D4F88030984794F87C30184602B0BDE83E
:104A3000F08194F82F30002BF7D02A4639463046C3
:104A4000FFF730FE3423A665A76784F83130DFE72F
:104A50009A0708D5A06DC378002BE6D0A16F2A462F
:104A6000FFF720FEDCE7DB06DDD5E37873B12A46ED
:104A70002046FFF717FE94F87C3043F0400384F89B
:104A80007C3012236371D4F88030984794F82F302B
:104A9000002BC8D0424639463046FFF703FE94F853
:104AA0007C3063F07F0384F87C30342384F8313029
:104AB000B6E700BF9D87030838B50D46044620B908
:104AC0000D4840F25511FEF7A9FD2378217B62685D
:104AD0006BB102290BD1A168521AAA4202D300205D
:104AE000207038BD013B23704FF0FF30F9E70129FA
:104AF000FAD1A2600133F6E79D870308F8B50E46A8
:104B000017461C46054620B90D484FF4BD71FEF707
:104B100085FD26B90A4840F27B11FEF77FFD24B9D6
:104B200007484FF4BE71FEF779FD39463046A84775
:104B30009DF8183098420CBF022001202073F8BD68
:104B40009D8703082DE9F347DDF828A00E4615469A
:104B50001F46044620B9224840F29111FEF75EFD3F
:104B600025B91F484FF4C971FEF758FD27B91C48F5
:104B700040F29311FEF752FD2B68DFF86C90384637
:104B80009847184BC9F80400012E8046586010D190
:104B90000096616AA868E28BFFF7B0FF114B51469F
:104BA0001846FFF789FF88B14FF0FF3002B0BDE82B
:104BB000F087022EF8D101230093A16AA868228C05
:104BC0004B46FFF79BFF51464846EAE7E6703846FA
:104BD0006B68A4F80880002198470020E6E700BF32
:104BE0009D870308C0470020D047002038B50D46F8
:104BF000044620B907484FF48571FEF70FFD2544A0
:104C00000020AC4200D138BD14F8013B1844C0B2BA
:104C1000F7E700BFD387030810B50023934201D103
:104C2000002010BD1C5CCC540133F7E70848094A4A
:104C300008B50623C0E9002340F2E243836002F096
:104C4000DDF918B1BDE80840FCF7B6BB08BD00BFF0
:104C500020020120003000402DE9F74F254AD66A96
:104C60004FF00008B3680C464746914640F2F45BAB
:104C70002CB92048394600F071FE204604E0326825
:104C8000002A11DA6FF00700D9F8003041F214025F
:104C90009958890605D52021995041F20402002136
:104CA000995003B0BDE8F08F628945464FF0000A85
:104CB000616805EB0208D84503EB0500514408D8AC
:104CC000CDE900230DF0BCFE009A2468019B174437
:104CD000CEE7ABEB05052A460DF0B2FEF668336869
:104CE000002BCFDBAA442F44B368A8F2F45200256E
:104CF000DEE700BF541B01202DE9F74F80463A4CF8
:104D000020684FF0FF3104F0ADFA0028F8D1374E9B
:104D100037480CF04CFF304600F094FE054630B1A9
:104D2000002433480CF048FF002CF0D1E7E7B18FA6
:104D300001BB0024336BB06B002282424DD10023B3
:104D4000B36341F2140233689958090605D58021EE
:104D5000995041F2080200219950002CE0D0D8F877
:104D600010304146204698470028DAD020460AF005
:104D700091FFD6E74FF4C172376C0AF0F3FF044697
:104D80000028D6D0D6F830A0B94640F2F45B0746EA
:104D9000B7F80AE0AC46002378680CEB0E055D45D9
:104DA000184409EB0C0106D872460DF049FE3F6825
:104DB000002FEDD1BEE7ABEB0C02019300920DF09A
:104DC0003FFEDDE90023DAF80CA0A5F2F45EDAF884
:104DD000089013444FF0000CDEE7196841F00041E1
:104DE0001960DB680132A8E7E4470020541B01206A
:104DF000D0350120F0B504468DB01422002107A85B
:104E00000DF046FE22683F4B9A4278D1A3F59043BD
:104E1000002401941A6B3C4842F000721A631A6B2A
:104E200002F000720192019A02941A6B42F08062C1
:104E30001A631A6B02F080620292029A03941A6B50
:104E400042F000621A631A6B02F000620392039A46
:104E500004941A6B42F004021A631A6B02F0040203
:104E60000492049A05941A6B42F001021A631A6BB9
:104E700002F001020592059A06941A6B42F00202B2
:104E80001A631B6B099403F002030693022703269F
:104E90000B25069B07A93223CDE90737CDE90A6523
:104EA00001F026FD862319480B9507A9CDE90737A0
:104EB000CDE9094601F01CFD4FF4605314480B95F1
:104EC00007A9CDE90737CDE9094601F011FD2246D2
:104ED00005213D2002F000F83D2002F02FF8224687
:104EE0000121094801F0E8FD642002F073F8012275
:104EF0000548114601F0E0FD642002F06BF80DB0AA
:104F0000F0BD00BF008002400008024000000240E7
:104F100000040240014B186804F0CAB9E4470020BD
:104F2000F0B504468DB030B9374B3849384840F2B7
:104F300023220EF04DF947F273436386354B6361CC
:104F4000354B364DA361364B364901910122C5E9F7
:104F5000003200232B82ADF8083001A9EB6128460E
:104F60004FF40003C5E905122B6200F05DFE28B97D
:104F700094F8313043F0040384F831302A4A2B4945
:104F800026482B4E042300F073FC2A4A2A49234862
:104F9000042300F0A9FC062384F830306B691A78EA
:104FA00084F82A205A7884F82B209A7884F82C20C8
:104FB000DA7884F82D201A7984F82E205B7984F829
:104FC0002F3040F2DC53238594F8313043F00A034C
:104FD00084F831300027012103A8CDE9037704F0DC
:104FE0001DF9164B18600FCE05AD0FC596E80700EA
:104FF00085E80700214605A804F080F8074800F07E
:105000000FFF38460DB0F0BD0A8803081B8803085F
:1050100029880308710F0308594C0208541B01200A
:10502000008002400080E1009C1B012084020120DE
:10503000AC40030804030120D41A0120E4470020F7
:1050400001F0C2BF37B500230F4D0193044601AAFA
:105050000121284600F075FD2068019B90F8312061
:1050600003F004035107019308D42BB10BF08EFA1F
:10507000C82004F070F8EAE75207F9D5002BF7D101
:105080000BF0A8FAF4E700BF541B012073B590F8A9
:1050900031300021054658070091019144D5244C38
:1050A0006368002B35D04FF48052204600F084FD19
:1050B00001F08AFF2646009001AA0121304600F047
:1050C00040FD01F081FF009BC01AB0F57A7F20D827
:1050D000019B9A06F0D501AA15481F2100F031FD69
:1050E000019B13F0100218BF4FF400625B074CBF26
:1050F00000234FF48043E260A3600D48002100F0DC
:1051000003FF0B4800F08CFE2846FBF797FA02B02D
:1051100070BDD4E90223520842EAD30292B20021C0
:10512000034800F049FDE8E7014800F0B3FEEBE773
:10513000541B01207FB51022002102A80DF0A8FC0D
:10514000154853224FF080410023C0E9001240F27D
:10515000E732CDE90033C0E903238360836102F0C5
:1051600091F808B1FCF728F94FF480530A480293EC
:1051700002A902F0ABF808B1FCF71EF900230648BB
:105180006946CDE9003302F035F908B1FCF714F9AE
:1051900007B05DF804FB00BFAC3401207FB51022DE
:1051A000002102A80DF074FC1548164948F23F3260
:1051B0000023C0E900124FF6FE72CDE90033C0E9CA
:1051C00003238360836102F05DF808B1FCF7F4F813
:1051D0004FF480530A48029302A902F077F808B10D
:1051E000FCF7EAF8002306486946CDE9003302F0EF
:1051F00001F908B1FCF7E0F807B05DF804FB00BF67
:105200002C340120000400407FB51022002102A8A8
:105210000DF03EFC1548164948F23F320023C0E924
:1052200000124FF6FE72CDE90033C0E9032383601C
:10523000836102F027F808B1FCF7BEF84FF4805301
:105240000A48029302A902F041F808B1FCF7B4F849
:10525000002306486946CDE9003302F0CBF808B1D7
:10526000FCF7AAF807B05DF804FB00BFAC330120DF
:10527000000800407FB51022002102A80DF008FCB4
:105280001548164945F207220023C0E9001240F6EE
:105290009F72CDE90033C0E903238360836101F08D
:1052A000F1FF08B1FCF788F84FF480530A480293E5
:1052B00002A902F00BF808B1FCF77EF800230648BB
:1052C0006946CDE9003302F095F808B1FCF774F8AF
:1052D00007B05DF804FB00BFEC330120000C004078
:1052E00013B50E4A0E485323C0E90023312300248E
:1052F000C3608023CDE900448460836101F0C2FF74
:1053000008B1FCF759F806486946CDE9004402F0B7
:1053100071F808B1FCF750F802B010BD0010004061
:105320006C34012013B50F4A0F4848F23F33002474
:10533000C0E900234FF6FE73CDE900448460C360EA
:10534000846101F09FFF08B1FCF736F80648694612
:10535000CDE9004402F04EF808B1FCF72DF802B098
:1053600010BD00BF00140040EC3401207FB51022B6
:10537000002102A80DF08CFB1548164948F23F3277
:105380000023C0E900124FF6FE72CDE90033C0E9F8
:105390000323C0E90533836001F074FF08B1FCF713
:1053A0000BF84FF480530A48029302A901F08EFFD4
:1053B00008B1FCF701F8002305486946CDE9003340
:1053C00002F018F808B1FBF7F7FF07B05DF804FB2F
:1053D0006C3301200004014000B50368B3F1804F35
:1053E00089B016D103F50E3300220192196C41F0F9
:1053F000010119641B6C03F0010301931C200521BA
:10540000019B01F069FD1C2009B05DF804EB01F07F
:1054100095BD404A934211D13F4B00220292196C34
:1054200041F0020119641B6C03F0020302931D207A
:105430000521029B01F050FD1D20E5E7374A93420C
:1054400011D1354B00220392196C41F0040119640B
:105450001B6C03F0040303931E200521039B01F042
:105460003BFD1E20D0E72E4A934211D12A4B002249
:105470000492196C41F0080119641B6C03F00803D5
:10548000049332200521049B01F026FD3220BBE766
:10549000244A934211D1204B00220592196C41F00D
:1054A000100119641B6C03F01003059336200521CD
:1054B000059B01F011FD3620A6E71B4A934211D14E
:1054C000154B00220692196C41F0200119641B6CE7
:1054D00003F02003069337200521069B01F0FCFC16
:1054E000372091E7114A934211D10B4B00220792CA
:1054F000596C41F0020159645B6C03F0020307939D
:105500002E200521079B01F0E7FC2E207CE709B047
:105510005DF804FB00040040003802400008004031
:10552000000C004000100040001400400004014046
:105530007047000008B5034C01220221204601F00B
:10554000BBFAF9E7000C0240FEE7FEE7FEE7704712
:10555000012001F0BDBA022001F0BABA042001F026
:10556000B7BA082001F0B4BA102001F0B1BA0000B7
:10557000014801F0DFBB00BF8093012008B504485B
:1055800001F0D8FB034B012283F8302008BD00BF97
:10559000E0930120E401012008B5202001F098FAF1
:1055A0004FF4807001F094FABDE808404FF40070A9
:1055B00001F08EBA014801F05CBD00BF2C3501201E
:1055C000014801F056BD00BFAC340120014801F094
:1055D00050BD00BF2C340120014801F04ABD00BF7E
:1055E000AC33012037B5114C20460CF0EDFD23689B
:1055F0001B68DB0617D520460CF01DFD0C4B0D4D2E
:105600001B6828465968FEF775F9AA69A96892B21D
:1056100020460CF099FC0023019323681A6801923C
:105620005B680193019B03B030BD00BF4094012033
:1056300080930120E4010120014801F01ABD00BF60
:105640006C330120014801F014BD00BFEC33012090
:10565000014801F00EBD00BF6C340120014801F08B
:1056600008BD00BFEC340120014800F032BA00BF91
:10567000541B012082B00E4B00220092596C41F461
:1056800080415964596C01F4804100910099019264
:10569000196C41F0805119641B6C03F08053019325
:1056A000019B0F216FF0010002B001F015BC00BF9B
:1056B0000038024030B5014689B00022192001F0BF
:1056C0000BFC192001F03AFC0025154B02955A6C91
:1056D000144C42F001025A645B6C03F00103029324
:1056E00001A903A8029B00F033FF00F021FF0E4B3D
:1056F000236040F2E733E36040000C4BB0FBF3F073
:105700000138606020462561A56001F0BBFD20B92D
:10571000204601F09AFC09B030BD0120FBE700BF34
:10572000003802402C3501200000014040420F00AB
:10573000074B82B01B684FF4FA52B3FBF2F30193AC
:1057400000BF019B5A1E0192002BF9D102B0704795
:105750009402002007B50023019341F21801036869
:105760005A5842F480125A505B580193FFF7E0FFF9
:10577000019A03685A5003B05DF804FB70B5044603
:1057800029B14FF480434FF40062C0E90232E3696B
:105790002268002BD4E902350CBF4FF48061002150
:1057A0002B4310680B432D4901400B4343F4007316
:1057B00013600120156801F00DFC236840221D6074
:1057C00001205A605D6801F005FC23685D600025DA
:1057D0009D60DD609A6922F0BE021204120C42F054
:1057E00080029A6101209E6901F0F4FB2368012088
:1057F0009E61DD61DD6901F0EDFB2268184BD5612A
:1058000041F21805012051590B4043F0087343F051
:1058100004035351565901F0DDFB2368114A5E51D0
:1058200003F5805301201A601D6801F0D3FB226844
:1058300002F580531D60A369012B07D141F21C01C1
:10584000535843F4803343F0400353506369064A8E
:10585000998811601A68054B1A6070BD0F8120FF8E
:10586000233FDEF88020C102408002404480024095
:105870002DE9F04190F84540012C4FF0020431D061
:10588000012580F8455080F84440C1620C4600254F
:105890004FF4801740F2F45C03F1FF3E9D420CD1BF
:1058A000026841F21003D150012380F844300023F4
:1058B00080F845301846BDE8F0810CFB0526A6604F
:1058C000C66927601EB9266846F44006266004F1C2
:1058D0002006AE4594BF8846B046C4F80C8001351A
:1058E0003446DBE72046E6E72DE9F04390F84540F3
:1058F000012C4FF002042FD0012580F8455080F88C
:10590000444081620C4600254FF0004744F2F45CAD
:1059100040F2F45E03F1FF38AB420CD1026841F271
:105920000C03D150012380F84430002380F8453027
:105930001846BDE8F0830EFB0526A66004F120069C
:10594000A84594BF8946B1462760C4F804C0C4F88E
:105950000C9001353446DFE72046EAE7F0B590F8D1
:105960004530012B4FF0020368D0012280F845201A
:1059700080F8443029B980F8442080F8451010465A
:10598000F0BDC36A1C68002C06DA122380F844308C
:10599000002380F84530F2E740F2F454A1422ED9BA
:1059A000B1FBF4F204FB12143CB30132244C01F2BB
:1059B000F45104FB0211C1F30C01002440F2F4562F
:1059C000571E1D6825F040551D601CB91D6845F027
:1059D00080551D60A74208BF1D685E6004BF45F08A
:1059E00000551D601D6808BF5960013445F0004531
:1059F00094421D60DB68E4D10DE0012AD6D11A681B
:105A000042F040521A601A68C1F30C0142F00042A1
:105A100059601A60DB68C36241F214020368995846
:105A2000490705D50421995041F2040200219950FB
:105A3000012380F84430002380F8453018469FE762
:105A40000CFAFFFF70B590F84530012B4FF00203C0
:105A50003BD0012280F8452080F8443005241146CF
:105A6000836A1A68002A01DB013C06D10123002267
:105A700080F8443080F8452027E01A68DD6802F499
:105A80004072B2F5007F03D1036381638562E7E76B
:105A90001E68826B16F4407F02F1010201D182631D
:105AA000F4E7012A08BF0363C0E90D321B68C3F3A2
:105AB0000D43043BC363036B9B680364012380F8BD
:105AC00044300023856280F84530184670BD704729
:105AD000704770B5026841F214060446955915F0F6
