:020000040800F2
:1000000000000220B52D0108555A0008595A000871
:100010006D5A00086F5A0008715A0008000000006D
:10002000000000000000000000000000A19B00088C
:10003000735A000800000000319C0008959C0008DD
:10004000052E0108052E0108052E0108052E0108C0
:10005000052E0108052E0108755A00087B5A000874
:10006000815A0008875A00088D5A0008052E010899
:10007000052E0108052E0108052E0108052E010890
:10008000955A0008A15A0008052E0108052E0108FE
:10009000052E0108052E0108052E0108BD5A00088D
:1000A000052E0108D95A0008052E0108052E010861
:1000B000E55A0008F15A0008FD5A0008052E01080B
:1000C000052E0108052E0108052E0108052E010840
:1000D000052E0108052E0108095B0008052E010800
:1000E000052E0108052E0108052E0108052E010820
:1000F000052E0108052E01085D5B0008052E01088C
:10010000052E0108052E0108695B0008052E01086F
:10011000052E0108052E0108755B0008815B0008AB
:10012000052E0108052E0108052E0108052E0108DF
:10013000052E01088D5B0008052E0108052E01081B
:10014000052E0108052E0108052E0108052E0108BF
:10015000052E0108052E0108052E0108052E0108AF
:10016000052E0108052E0108052E0108052E01089F
:10017000052E0108052E0108052E010800000000CB
:08018000052E0108052E0108FF
:1001900010B5054C237833B9044B13B10448AFF3C1
:1001A00000800123237010BD5803002000000000D0
:1001B0001844010808B5034B1BB103490348AFF3CA
:1001C000008008BD000000005C0300201844010806
:1001D000034613F8012B002AFBD1181A0138704787
:1001E00001F0FF01102A2BDB10F0070F08D010F8E8
:1001F000013B013A8B422DD010F0070F42B3F6D1EC
:10020000F0B441EA012141EA014122F007047FF004
:1002100000070023F0E80256083C85EA010586EA5B
:10022000010685FA47F5A3FA87F586FA47F6A5FA97
:1002300087F68EB9EED1F0BC01F0FF0102F00702A3
:1002400032B110F8013B013A83EA010313B1F8D14E
:100250000020704701387047002D06BF354603382F
:10026000073815F0010F07D1013015F4807F02BF68
:10027000013015F4C03F0130F0BC0138704700BFB9
:1002800053B94AB9002908BF00281CBF4FF0FF31FD
:100290004FF0FF3000F06EB9ADF1080C6DE904CEFF
:1002A00000F006F8DDF804E0DDE9022304B0704751
:1002B0002DE9F047089D04468C46002B40F08380D2
:1002C0008A42174647D9B2FA82F242B1C2F12000FF
:1002D00024FA00F09140974040EA010C94404FEA24
:1002E0001748230CBCFBF8F61FFA87FE08FB16C163
:1002F00043EA014306FB0EF1994209D9FB1806F1C6
:10030000FF3080F01981994240F21681023E3B4451
:100310005B1AA4B2B3FBF8F008FB103344EA0344C1
:1003200000FB0EFEA64509D93C1900F1FF3380F011
:100330000581A64540F2028102383C4440EA06406D
:10034000A4EB0E0400261DB1D4400023C5E90043F0
:100350003146BDE8F08702B9FFDEB2FA82F2002A28
:1003600050D1CB1B4FEA174E1FFA87F80126B3FB7B
:10037000FEFC210C0EFB1C3341EA034108FB0CF38D
:100380008B4207D979180CF1FF3002D28B4200F270
:10039000E9808446C91AA3B2B1FBFEF00EFB10112E
:1003A00043EA014408FB00F8A04507D93C1900F1D5
:1003B000FF3302D2A04500F2D9801846A4EB08040E
:1003C00040EA0C40BFE78B4209D9002D00F0B18014
:1003D0000026C5E9000130463146BDE8F087B3FA92
:1003E00083F6002E4AD18B4202D3824200F2B880BB
:1003F000841A61EB030101208C46002DA8D0C5E9C9
:10040000004CA5E7C2F1200320FA03F6974001FA59
:1004100002F04FEA174ED9403043030CB1FBFEF611
:100420001FFA87F80EFB161143EA014306FB08F199
:10043000994204FA02F409D9FB1806F1FF3C80F056
:100440008D80994240F28A80023E3B445B1A81B221
:10045000B3FBFEF00EFB103341EA034100FB08F34F
:100460008B4207D9791800F1FF3C73D28B4271D9C6
:1004700002383944CB1A40EA064678E7C6F1200C28
:1004800003FA06F422FA0CF31C4320FA0CF701FAE3
:1004900006F34FEA144E21FA0CF11F433B0CB1FB5B
:1004A000FEF91FFA84F80EFB191143EA014109FB1A
:1004B00008FA8A4502FA06F200FA06F308D961182A
:1004C00009F1FF3048D28A4546D9A9F102092144F1
:1004D000A1EB0A01BFB2B1FBFEF00EFB101147EA1F
:1004E000014700FB08F8B84507D9E71900F1FF31CB
:1004F0002ED2B8452CD90238274440EA0940A7EB50
:100500000807A0FB02894F45C64649461AD317D0B3
:100510005DB1B3EB0E0267EB010707FA0CFCF2408A
:100520004CEA0202F740C5E9002700263146BDE843
:10053000F0872E4628460BE70646E9E61846FDE614
:100540004345E5D2B8EB020E69EB04010138DFE761
:100550000846D2E760468DE78146B9E7664675E70B
:1005600030464AE7ACF1020C394413E702383C4408
:1005700024E700BF704700BF2DE9F74F9846BDF84C
:1005800030901646002A50D0294BDFF8ACB0174601
:1005900000259A461C784FF47D7262433BF8022096
:1005A000C2B97A899AB14FF47D70511900FB045099
:1005B000B1F57A7F00F10C0028BFC5F57A72796831
:1005C0000192584412F0CCFC019A194B15443F6833
:1005D000002FDFD14FF47D71D8F8003061430BEB71
:1005E00001020134180AE4B29370D070042C4FEA6F
:1005F00013404FEA1363537184BF00238AF800301D
:100600000C4B1071C2F808901B68D8F800202BF82A
:100610000150304698BF8AF800405A60A3F8149001
:1006200003B0BDE8F04F0FF0C5BD03B0BDE8F08FDB
:10063000780300207403002038B3002090F8313094
:100640005B0703D5024B186810F0E6B9704700BF8E
:1006500090930120024B93F83100C0F38000704763
:100660006C02012070B5334B0021D3F801401D69A5
:100670008EB0084609F062FDC4F30740C4F30723B7
:10068000000240EA034040EA04602B0E2A49C5F309
:10069000072240EA146443EA056324BA43EA0243AA
:1006A000C5F307450C6043EA05230402050A234A03
:1006B00004F47F0405F47F451BBA2C43136044EA1D
:1006C00010601F4B1F4C40F0807018601E48029055
:1006D0001E48019000200090204610F0FFF82046B0
:1006E00010F094F994F831305B0720461FD510F0D4
:1006F00093F917491348174E174D10F015FA0023B8
:10070000012105A8CDE9053309F01AF8134BC6E914
:10071000004018600FCD07AC0FC495E8070084E8CF
:100720000700314607A808F07BFF0EB070BD10F03F
:1007300097F9DEE7DCF00020A4020120B0020120DE
:10074000B40201206C020120A9A000084554000851
:10075000B1550008600201203044010828480020FB
:10076000034B5B680360034B1B685B8A4360704705
:100770006C0201207403002037B501900CF09CFC42
:100780000B4D286090B1019A0A490CF0E1FA0A4930
:100790000446002228680CF057FC14B128680CF0BD
:1007A00065FC201E18BF012003B030BD0120FBE70F
:1007B0007403002028B2010879050008012838B523
:1007C0000C4615460FD002280FD1102000221146EA
:1007D0000AF068FD0649286022460AF00DFE00383E
:1007E00018BF012038BD2020F0E70120FAE700BF44
:1007F00028B2010808B5FF210AF024FE003818BF0E
:10080000012008BD08B50AF0D9FE003818BF012044
:1008100008BD2DE9FF410C46002301A90746ADF8AC
:1008200000300BF00FF8002837D1A04628F80C0B49
:1008300001986A4602A90AF0C1FC06462088BDF864
:100840000050C0F57A739D4207D82A460299404469
:1008500012F086FB22881544258001980AF0DAFC04
:100860000130E5D100230DF1020203A938460AF058
:1008700091FD039BBDF80C2062801A0C1B0E637166
:10088000BDF8023001982271A3600AF085FC301E89
:1008900018BF012004B0BDE8F08101980AF07CFC8B
:1008A0000120F7E707B50023009331F80C2B012353
:1008B0000AF066FE003818BF012003B05DF804FBA3
:1008C000F0B585B00C46694681E80C0006460392F7
:1008D000FFF7C0FEF8B1114F3B68E3B14FF4C172AE
:1008E000214636200FF0CEFC054690B12246314617
:1008F0000FF0E4FEBDF80430386803AA29460CF076
:1009000067FB0446284624B90FF054FC204605B086
:10091000F0BD0FF04FFC0120F9E700BF7403002089
:100920002DE9F04186B001F0EFFF224D224E01F09B
:10093000E5FF02F0D5F8A846204B02AA03F1080C07
:10094000174618685968144603C40833634522469D
:10095000F7D1186899889B792060A180A3712C78C1
:1009600034B3013CE4B2002188F800401F23009119
:100970007F22084602F0C2F8C4F10F03DBB2002167
:1009800001241022013B9BB2CDE9002408463A46DF
:1009900002F002F902F072F82146304606F023FB1D
:1009A000074806F0DEFD4FF47A7008F066FEC3E7F4
:1009B0000324D8E700000020000C0240F0450108A5
:1009C00054020120F8B51C4D1C4E1D4F022464201A
:1009D00008F053FE042C29DC631C052B22D8DFE829
:1009E00003F01D2123031217164B186808F06EFF41
:1009F00015490C22384612F0A5FA002814BF4FF012
:100A0000FF340324E3E7306808F060FF0424DEE7E6
:100A1000286808F05BFF4FF47A74D8E7002008F0EC
:100A200027FED4E70024D2E70224D0E7B4F57A7F8A
:100A300008BF4FF0FF34CAE718F100204CF1002046
:100A4000107AFF1F20F10020905501082DE9F3478F
:100A5000DFF8A491604F4FF064080125082D0ADCEF
:100A60006B1C092B00F2B580DFE803F00FB31C27E5
:100A70003441546B74AEB5F5807F00F0A88008DC7B
:100A8000FF2D40F0A6804FF4FA78404608F0F5FDBF
:100A9000E4E7B5F57A7FF8D0B5F5FA6F18BF4FF0F7
:100AA000FF35F2E7FFF7DEFD4FF47A7008F0E5FD61
:100AB00006F01CFD02250446E7E7FFF7CBFD002802
:100AC000E3D0464B186808F001FF06F00FFD032540
:100AD0000446DAE7424B9889FFF74EFE414B187007
:100AE0000028D2D106F002FD04250446CDE72046B9
:100AF00001F0C2F8B0F57A7FC7D93B4B186808F00F
:100B0000E5FE3A4B186808F0E1FE06F0EFFC05251B
:100B10000446BAE7324B4A4619890220FFF74EFED7
:100B2000304B18700028B0D1314B186808F0CEFE59
:100B3000304B186808F0CAFE06F0D8FC06250446BB
:100B4000A3E7284B1B78002B9FD106F0CFFC07258D
:100B500004469AE7D9F80000002301936423036256
:100B600001A9FFF74FFE1F4B187000288DD13B687D
:100B7000C3B1FB68ABB13B7A012B1BD106464FF0EA
:100B80000C0A0AFB06FA57F80A0028B10AF004FD1D
:100B900057F80A000AF0F0FB0C204643019BBB51BA
:100BA00073E701230C225343FA180199F9500023EB
:100BB00013726AE73E7D012EE1D001980AF0ECFC49
:100BC00001980AF0D9FB60E74FF001085DE70125C5
:100BD0005BE74FF0FF3558E7E4DE002028F1002006
:100BE000DCF000207903002024F1002030F1002007
:100BF0003CF1002044F1002020AF00202DE9F0411D
:100C0000A0B006F073FC08F004FD364F364CDFF858
:100C1000E880049001256426022D13D0032D5CD0BA
:100C2000012D0AD16422002107A812F0C1F906F0B3
:100C30005DFC642008F021FD0225314604A808F07F
:100C40005DFEE9E705A8FFF78BFD9DF817300193DE
:100C50009DF816309DF81420009339469DF8153004
:100C600007A812F0ADFD07A8FFF7B2FA94E80C0050
:100C700081B207A8FFF724FE0A2008F0FEFC069ABE
:100C8000414607A812F09CFD07A8FFF7A1FA94E8D7
:100C90000C0081B207A8FFF713FE144A1449537FD2
:100CA0000393137F0293D37E0193937E0093537E2D
:100CB000127E07A812F084FD07A8FFF789FA94E8CE
:100CC0000C0081B207A8FFF7FBFD0A4B186808B1BA
:100CD00008F080FD03250126AFE70A2008F0CDFCCF
:100CE000ABE700BFFF450108D8550108DCF0002044
:100CF0002746010848F100201446010808B500F015
:100D0000C5FF0A2008F0B9FCF9E713B502246420F6
:100D100008F0B3FCA31E042BF9D8DFE803F0030CA2
:100D2000131E23006A4650210220FFF747FD0028CA
:100D3000EDD10324EBE70098FFF75CFD0028F8D124
:100D40000424E4E7009801A9FFF75CFD0028F7D12F
:100D5000019BC8221A620524D9E7019800F032FAF3
:100D60000624D4E701980AF017FC01980AF004FB66
:100D7000E6E700007FB50C4B02AA03F10806154612
:100D800018685968144603C40833B3422246F7D1A1
:100D900018681B792060237101A9284600F0DEFE47
:100DA000642008F06AFCF7E74F4601082DE9F04798
:100DB000704C714DDFF8F8819EB0074604F10C09C4
:100DC0004146284612F0AEFD0646002800F0CD80D0
:100DD000421B023292B2294622804846013212F06A
:100DE00067FD66494846B51C12F09CFD002848D1B5
:100DF0006349644812F096FD002844D16249614875
:100E000012F090FD002840D160495E4812F08AFD42
:100E100000283CD15E495B4812F084FD002838D19F
:100E20005C49584812F07EFD002834D15A49554893
:100E300012F078FD88BB5949524812F073FD002822
:100E400079D008263E21284612F01DFD8246002852
:100E500000F08B80421B013229464A4812F03DFDCA
:100E600020884F4A5044451B0135023E25800AF137
:100E7000010A062E13D8DFE806F01D242B69636BE8
:100E800076000126DEE70226DCE70326DAE7042601
:100E9000D8E70526D6E70626D4E70726D2E7137952
:100EA0000193D3780093937852783E4905A812F0C5
:100EB00087FC1BE0D37C0193937C0093537C127CD2
:100EC000F3E7D37D0193937D0093537D127DECE78F
:100ED000537F0393137F0293D37E0193937E0093FA
:100EE000537E3149127E05A812F06AFC05A8FFF76F
:100EF0006FF905A90246234812F0EFFC05A8FFF799
:100F000067F92388184420803C21504612F0BBFC2E
:100F1000064650B3414612F005FD054628B3821B34
:100F200002321848314612F0D8FC22882A44931B1A
:100F300002332380023521463846FFF7B3FC3FE7F2
:100F4000D2681A4905A812F03BFCCFE79268F8E78F
:100F500092F82330019392F82230009392F82130D6
:100F600092F82020A1E7526AEBE700201EB0BDE80E
:100F7000F08700BFD0EA00207D4701085C460108E9
:100F800069460108DCEA002077460108814601082D
:100F90008F4601089A460108A5460108B146010896
:100FA000DCF00020BF460108CB460108C846010816
:100FB00029560108F0B5744DA1B03F21284612F022
:100FC00062FC002800F0DD8035F80C6C441C7319BD
:100FD0009C4280F0D6806D49204612F0A3FC50BBA5
:100FE000651B751BA8B2002323546949694D6A4EDD
:100FF0006A4F204600F092FD20466A46294612F0CC
:10100000D0FC0446002800F0BD800822314612F0D2
:1010100077FC98B904F10801642207A812F048FC93
:1010200001A907A800F09AFD18B95D4B019AC3F811
:1010300001200024E0E7001B80B2D4E708223946F3
:10104000204612F05DFC78B904F10801642207A87B
:1010500012F02EFC02A907A800F0A4FD0028E8D198
:101060004F4B029A1A61E4E74E490822204612F0DB
:1010700047FC78B904F10801642207A812F018FCB3
:1010800003A907A800F0B2FD0028D2D1444B039A6F
:101090005A61CEE744490922204612F031FCA0B93A
:1010A00004F10901642207A805AC12F001FC3F4AD3
:1010B000214607A800F0BEFD0028BAD194E803003D
:1010C0003B4B43F8040B1980B3E73A490E22204604
:1010D00012F016FC78B904F10E01642207A812F090
:1010E000E7FB04A907A800F0F2FC0028A1D12C4BD3
:1010F000049A9A609DE730490E22204612F000FCC7
:1011000078B904F10E01642207A812F0D1FB04A9FA
:1011100007A800F0DCFC00288BD1214B049ADA6090
:1011200087E726490922204612F0EAFB80B904F13C
:101130000901642207A812F0BBFB01A907A800F06F
:101140000DFD00287FF475AF154B019A1A6270E708
:101150001B490B22204612F0D3FB00287FF469AF15
:1011600004F10B01642207A812F0A2FB04A907A84E
:1011700000F0ADFC00287FF45CAF094B049A5A6282
:1011800057E7012021B0F0BD08C70020E94601085B
:1011900044B60108EF460108F1460108FA46010885
:1011A000DCF00020034701080C470108164701083E
:1011B000F4F00020184701082747010836470108C6
:1011C0004047010810B514490446FFF722FB10BB45
:1011D00020460AF0E4F9E8B910491148062212F055
:1011E0008FFB20B92046BDE81040FFF7DFBD0D4959
:1011F0000B48142212F084FB0028F3D00A49084857
:10120000142212F07DFB28B92046FFF7D3FE01F02F
:1012100025FBE7E7012010BDFCC600204C47010874
:1012200008C70020534701086847010830B500246B
:1012300095B02146142203A8CDE90A440C9411F07C
:10124000B7FE1D4B01941A6C42F080521A641B6C5D
:1012500003F080530193019B184B02941A6842F4E7
:1012600080421A601B6803F480430293029B0922A8
:101270004FF48033CDE9082302250123A822CDE9CC
:101280000D354FF48001042308A8CDE90F13CDE9F3
:101290001125139305F056F90F23CDE903354FF4CB
:1012A000A0504FF48053CDE90603052103A805940F
:1012B00005F01EFB15B030BD003802400070004044
:1012C00008B506F0EDF8FFF7B1FF00F0E1FA01F024
:1012D0009BFA00F091F810F02BFF03F039FF04F0B7
:1012E00091FA10F047FF11F0ABFA04F0ADFA04F0F8
:1012F000E7F904F0B1F904F04FFA04F017FA04F03A
:10130000C7FA144806F02DF9134B9A6842F480523C
:101310009A60DA6842F00102DA609A6842F00102EB
:101320009A609A6842F002029A609A6842F0040257
:101330009A609A6842F008029A609A6842F0200225
:101340009A60DA6842F00202DA6000F06DF908F0A3
:101350005BF9FEE754020120002004E002681C4B08
:101360009A4210B5044601D106F0B4F82268194B30
:101370009A4203D11849122003F0CEFB2268174B82
:101380009A4203D11449342003F0C6FB2268144B5F
:101390009A4203D11349122003F0BEFB2268124B7C
:1013A0009A4203D10F49342003F0B6FB2368B3F10E
:1013B000804F02D10D4802F0C9FB22680C4B9A42C3
:1013C00004D1BDE81040094802F0E4BB10BD00BFE5
:1013D0000000014000040040F00000200008004030
:1013E00000140040040000200004014054F10020DB
:1013F000000C0040704700002DE9F0438DB014222E
:10140000002107A811F0D4FD00246F4B01941A6B42
:101410006E4E6F4FDFF8C48142F010021A631A6BF0
:1014200002F010020192019A02941A6B42F0040237
:101430001A631A6B02F004020292029A03941A6B66
:1014400042F080021A631A6B02F080020392039A40
:1014500004941A6B42F001021A631A6B02F0010243
:101460000492049A05941A6B42F002021A631A6BF2
:1014700002F002020592059A06941A6B42F00802E5
:101480001A631B6B03F00803069322463046C12102
:10149000069B05F0A3FD2246384643F2830105F082
:1014A0009DFD3F2307A94B4809940325CDE9073843
:1014B00005F0B0FC4FF6C07307A946480994CDE982
:1014C000073505F0A7FC4FF60C7307A93046CDE9A8
:1014D00007354FF00109099405F09CFCC12307A9C9
:1014E0003046CDE90739A6F58066CDE9094405F017
:1014F00091FC49F6797307A937480994CDE9073576
:1015000005F088FC4CF21F4307A93046CDE90735AA
:10151000099405F07FFC4CF61C7307A93846CDE909
:101520000735099405F076FC43F2830307A9384692
:10153000CDE90739CDE9094405F06CFC2023CDE95C
:10154000073407A902233046099305F063FC4FF4E2
:10155000407307A93046CDE90738099405F05AFCD5
:1015600022460521062005F049FF062005F078FFF8
:1015700022460521072005F041FF072005F070FFF6
:1015800022460521082005F039FF082005F068FFF4
:1015900022460521092005F031FF092005F060FFF2
:1015A000224605210A2005F029FF0A2005F058FFF0
:1015B00022460521172005F021FF172005F050FFD6
:1015C0000DB0BDE8F08300BF0038024000080240C3
:1015D000000C0240001002400000024000003110E8
:1015E00008B5012008F049F8FBE708B5012008F02C
:1015F00044F8FBE708B5012008F03FF8FBE708B521
:10160000012008F03AF8FBE770470020704700001F
:10161000034B0360034B0B6080231360704700BFD4
:101620007C0500207C0300202DE9F04FE3B000256D
:10163000012101A8CDE9015508F082F8844C854BC1
:10164000DFF83CB218604FF0FF3108F09DF894E8E5
:101650000F0003AE86E80F002946304608F0BEF8BA
:101660007D4BDFF820A2186004F110070FCF07AE02
:101670000FC697E8070086E80700294607A807F085
:10168000CFFF764BDFF80092186004F12C070FCFE4
:101690000EAE0FC697E8070086E8070029460EA899
:1016A00007F0BEFF6E4BDFF8E481186004F14807D5
:1016B0000FCF15AE0FC697E8070086E8070029464A
:1016C00015A807F0ADFF04F16407CBF800000FCFB9
:1016D0001CAE0FC697E8070086E8070029461CA83D
:1016E00007F09EFF04F18007CAF800000FCF23AE79
:1016F0000FC697E8070086E80700294623A807F0E9
:101700008FFF04F19C07C9F800000FCF2AAE0FC667
:1017100097E8070086E8070029462AA807F080FF17
:1017200004F1B807C8F800000FCF31AE0FC697E834
:10173000070086E80700294631A807F071FF494FE6
:1017400004F1D40C3860BCE80F0038AE0FC69CE83A
:10175000070086E80700294638A807F061FF424BDA
:1017600004F1F00C1860BCE80F003FAE0FC69CE817
:10177000070086E8070029463FA807F051FF3B4ACB
:1017800004F5867C1060BCE80F0046AE0FC69CE8EE
:10179000070086E80700294646A807F041FF344EB7
:1017A00004F5947E3060BEE80F000DF59A7CACE83D
:1017B0000F009EE807008CE8070029464DA807F0B7
:1017C0002FFF2C4B04F5A27E1860BEE80F000DF52C
:1017D000A87CACE80F009EE807008CE807002946CB
:1017E00054A807F01DFF244B04F5B07418600FCC0B
:1017F0000DF5B67CACE80F0094E807008CE8070014
:1018000029465BA807F00CFF1C4B1860DBF80000B2
:1018100008F056F8DAF8000008F052F8D9F800009D
:1018200008F04EF8D8F8000008F04AF8386808F0D8
:1018300047F80D4B186808F043F8306808F040F896
:101840000A4A106808F03CF863B0BDE8F08F00BFAA
:101850004C44010848F1002050F1002038F10020EC
:1018600034F100203CF1002044F1002018F1002068
:1018700028F1002040F100202CF100201CF1002074
:101880004CF1002020F1002024F1002030F1002054
:1018900008B5302200211C4811F08AFB3C220021AF
:1018A0001A4811F085FB41F2C4320021184811F0AA
:1018B0007FFB41F2C4320021164811F079FB4FF44E
:1018C000FD620021144811F073FB4FF47D7200217A
:1018D000124811F06DFB4FF47D720021104811F099
:1018E00067FB182200210F4811F062FB4FF40672CB
:1018F00000210D4811F05CFBBDE808400B484FF497
:101900000472002111F054BBB4DE0020DCF0002092
:1019100038B30020F0CA0020FCDE0020FCC6002006
:10192000D0EA0020E4DE0020C4EE002024B1002034
:10193000284B1A6832F0FF0245D11A7922B9264A9B
:10194000D2F80120C3F8012099684FF6FE72914247
:1019500088BF214AD96884BF92689A604FF6FE72A8
:10196000914288BF1C4A1D4984BFD268DA6093F84F
:101970002820013AD2B2FD2A82BF174A92F82820C5
:1019800083F82820DA6A323A8A4288BF124A596BB1
:1019900084BFD26ADA621A6B053AFA2A82BF0E4A0B
:1019A000126B1A6342F21072914288BF0A4A996B15
:1019B00084BF526B5A6342F21072914282BF064A50
:1019C000926B9A63704712F5807FBDD11A79FF2A16
:1019D000BAD1B4E7DCF000209C550108CECF070057
:1019E00030B51AB902701446204630BD0023CC5CD5
:1019F000A4F16105192D98BF203CC4545C1CA3B20E
:101A000011FA84F414F8014C002CEDD09A42EED275
:101A10001044002300F8013C0124E5E730B5002420
:101A20002346025DE5B29AB1A2F13005092D11D825
:101A300003EB830302EB43030134303B032C9BB2E3
:101A4000EFD1C27832B9FF2B04D80B70002004E02C
:101A5000002DF8D100230B70012030BDF0B50378C4
:101A6000302B0FD1437803F0DF03582B14BF002332
:101A7000022300225E1C9E4206DAEBB900230B70A3
:101A80000120F0BD0023F4E7C45CECB1A4F1300503
:101A9000EFB2092F04D845EA02120133DBB2EAE7BC
:101AA000A4F16105EFB2052FF5D9413CE5B2052D52
:101AB000E4D844EA0212F0E7C35C002BDED1FE2A30
:101AC000DCD80A700020DCE7002BF8D1D6E7F0B5AF
:101AD0000022002400234FF00A0C055DE6B2BDB1E0
:101AE000303DEEB2092E15D8A2FB0C6772190CFB23
:101AF000037704F1010447EBE5730A2CEDD1807AFA
:101B000040B9012B08BF002A04D20A60002004E07B
:101B1000002EF6D100230B600120F0BDF8B505467C
:101B20000E4604462846FEF753FB2844844212D84A
:101B30002046314611F0F6FE044668B13046FEF705
:101B400047FB07462046FEF743FBE119421C2046AF
:101B500011F0AEFEE6E70120F8BD000070B586B0DA
:101B600004460D46FEF734FB0F2817D821461022F5
:101B700002A80B4E11F09CFE002402AB01AA3146D4
:101B8000184611F00EFF48B12919FFF747FF28B991
:101B90000134042C0346F1D106B070BD0120FBE7EF
:101BA000598B010870B586B004460D46FEF710FB50
:101BB0000F2817D82146102202A80B4E11F078FEEC
:101BC000002402AB01AA3146184611F0EAFE48B1E2
:101BD0002919FFF723FF28B90134042C0346F1D15A
:101BE00006B070BD0120FBE7598B010870B586B0C7
:101BF00004460D46FEF7ECFA0F2817D821461022AE
:101C000002A80B4E11F054FE002402AB01AA31468B
:101C1000184611F0C6FE48B12919FFF7FFFE28B992
:101C20000134042C0346F1D106B070BD0120FBE75E
:101C3000598B010870B586B004460D461646FEF76E
:101C4000C7FA132816D82146142201A811F030FE35
:101C5000002401AB6A463146184611F0A2FE48B195
:101C60002919FFF7FBFE28B90134062C0346F1D1F0
:101C700006B070BD0120FBE710B5044605F036FC48
:101C8000A04236BFE443001B001910BD2DE9F04F00
:101C9000B44DB54EDFF8DC82ADF2844D002735F847
:101CA0000C2C002A00F0EF80052A4FF0000108D824
:101CB0004FF47D735F43AD4BD9530DF2844DBDE8B6
:101CC000F08FB2F57A7F37BFA84885F8E7134FF455
:101CD0007D7303FB070338BF9B180DF1980938BFCC
:101CE000197348462946FFF77BFE9F49484611F085
:101CF00019FE044628B94FF47D735F439B4BD853BC
:101D0000DBE74846FEF764FAA9EB040103390A1839
:101D1000211D484611F032F99549484611F002FE5E
:101D200028B94FF47D735F43904BD853C5E7002427
:101D300004709049484611F0F5FD814574D0DFF8F4
:101D40005CA24846514611F0EDFD814500F0A280AD
:101D5000DFF84CB24846594611F0E4FD814500F0E9
:101D6000CA808549484611F0DDFD814500F01C819F
:101D70008249484611F0D6FD814500F061828049D4
:101D8000484611F0CFFD4845824679D17C2111F0BB
:101D90007AFDA0EB0A0ABAF1030F71D1441C79490C
:101DA000204611F0BFFD8246002800F0B582A04217
:101DB00066D17C2111F067FDA0EB0A0ABAF1070F8A
:101DC0005ED1441C7C21204611F05DFD002857D1D6
:101DD00005A92046FFF7C2FE002851D155F80A3C5C
:101DE0000B9355F8043C0C939DF8173001939DF824
:101DF00016309DF81420644900930DA89DF8153005
:101E000011F0DEFC0DA8FEF7E3F90BAC94E80C0032
:101E100081B20DA8FEF754FD0A2007F02EFC5B4BA3
:101E2000059AC3F801202BE0FEF7D2F9042827D148
:101E300055F80A3C56490B93642255F8043C0C9320
:101E40000DA811F035FD0DA8FEF7C2F90BACDFF8B7
:101E500054A181B294E80C000DA8FEF731FD0822D0
:101E60005146204611F06EF840B10DA8FEF7B0F9CA
:101E70009AE80C0081B20DA8FEF722FD00F0EEFCFE
:101E8000002325F80C3C0137052F05F57D757FF4FF
:101E900006AF12E7FEF79CF90628F1D155F80A3C87
:101EA0003C490B93642255F8043C0C930DA811F0A7
:101EB000FFFC0DA8FEF78CF90BACDFF8E8A081B2AF
:101EC00094E80C000DA8FEF7FBFC082251462046C2
:101ED00011F038F840B10DA8FEF77AF99AE80C0035
:101EE00081B20DA8FEF7ECFC4FF47A7007F0C5FB49
:101EF00005F0C4FAC4E7FEF76BF90728C0D155F81E
:101F00000A3C25490B93642255F8043C0C930DA818
:101F100011F0CEFC0DA8FEF75BF90BACDFF884A046
:101F200081B294E80C000DA8FEF7CAFC08225146C5
:101F3000204611F007F840B10DA8FEF749F99AE8DC
:101F40000C0081B20DA8FEF7BBFC642007F095FBE6
:101F500000F098FC642007F090FB00F07FFC642008
:101F6000C4E700BF44B30020E055010838B30020A7
:101F700029560108E5550108F9550108FC550108E5
:101F800005560108635901086B590108DCF000206F
:101F900009560108175601082C560108EA55010890
:101FA000F1550108D85501080BAC55F80A3C934986
:101FB0002360324655F8043C63600DA811F000FC24
:101FC0000DA8FEF705F994E80C0081B20DA8FEF704
:101FD00077FC012007F051FB894964220DA811F01C
:101FE00067FC0DA8FEF7F4F894E80C0081B20DA888
:101FF000FEF766FC012007F040FB824964220DA831
:1020000011F056FC0DA8FEF7E3F894E80C0081B23D
:102010000DA8FEF755FC012007F02FFB43467A4937
:102020000122CDE900680DA811F0CAFB0DA8FEF74A
:10203000CFF894E80C0081B20DA8FEF741FC012016
:1020400007F01BFB5B4671490222CDE9006B0DA82E
:1020500011F0B6FB0DA8FEF7BBF894E80C0081B2B6
:102060000DA8FEF72DFC012007F007FB5346CDE934
:10207000006A6749DFF8C4A103220DA811F0A0FB94
:102080000DA8FEF7A5F894E80C0081B20DA8FEF7A4
:1020900017FC012007F0F1FA5E4B5F49CDE90063C0
:1020A00004220DA811F08CFB0DA8FEF791F894E81E
:1020B0000C0081B20DA8FEF703FC534657490522D8
:1020C000CDE9006A0DA811F07BFB0DA8FEF780F8A2
:1020D00094E80C0081B20DA8FEF7F2FB012007F096
:1020E000CCFA53464E490622CDE9006A0DA811F0FC
:1020F00067FB0DA8FEF76CF894E80C0081B20DA800
:10210000FEF7DEFB012007F0B8FA534645490722E7
:10211000CDE9006A0DA811F053FB0DA8FEF758F8A1
:1021200094E80C0081B20DA8FEF7CAFB012007F06D
:10213000A4FA53463C490822CDE9006A0DA811F0E3
:102140003FFB0DA8FEF744F894E80C0081B20DA8FF
:10215000FEF7B6FB012007F090FA534633490922F7
:10216000CDE9006A0DA811F02BFB0DA8FEF730F8A1
:1021700094E80C0081B20DA8FEF7A2FB012007F045
:102180007CFA53462A490A22CDE9006A0DA811F0CB
:1021900017FB0DA8FEF71CF894E80C0081B20DA8FF
:1021A000FEF78EFB012007F068FA534621490B2207
:1021B000CDE9006A0DA811F003FB0DA8FEF708F8A1
:1021C00094E80C0081B20DA8FEF77AFB012007F01D
:1021D00054FA534618490C22CDE9006A0DA811F0B3
:1021E000EFFA0DA8FDF7F4FF94E80C0081B20DA8FA
:1021F000FEF766FB012007F040FA41E66D56010844
:1022000084560108C9560108E3560108FE56010824
:1022100020570108FC5501083B5701085C5701088D
:102220008A570108BA570108E657010815580108EE
:102230004458010873580108A658010805560108BA
:10224000FDF7C6FF08287FF41BAEB949DFF810A3DD
:1022500064220DA811F02CFB0DA8FDF7B9FF9AE838
:102260000C0081B20DA8FEF72BFBB24964220DA829
:1022700011F01EFB0DA8FDF7ABFF9AE80C0081B230
:102280000DA8FEF71DFB0DA80D9407F01DF90DA874
:10229000FDF79EFF9AE80C0081B20DA8FEF710FB37
:1022A000A34964220DA811F003FB0DA8FDF790FFD0
:1022B0009AE80C0081B20DA8FEF702FB9E49642249
:1022C0000DA811F0F5FA0DA8FDF782FF9AE80C00B1
:1022D00081B20DA8FEF7F4FA214664220DA810F091
:1022E00067FE0DA807F036F90DA8FDF771FF9AE813
:1022F0000C0081B20DA8FEF7E3FA8D4964220DA807
:1023000011F0D6FA0DA8FDF763FF9AE80C0081B230
:102310000DA8FEF7D5FAB3E58849204611F002FB77
:1023200000283DD0A0427FF4ABAD7C2111F0ABFA88
:10233000041B072C7FF4A4AD441C7C21204611F023
:10234000A2FA00287FF49CAD06A92046FFF72AFCDC
:1023500000287FF495AD55F80A3C0B9355F8043CE2
:102360000C939DF81B3001939DF81A309DF81820AE
:10237000734900930DA89DF8193011F021FA0DA8AA
:10238000FDF726FF0BAC94E80C0081B20DA8FEF718
:1023900097FA0A2007F071F96A4B069A1A616FE5FD
:1023A0006949204611F0BEFA00283DD0A0427FF4D2
:1023B00067AD7C2111F067FA041B072C7FF460AD38
:1023C000441C7C21204611F05EFA00287FF458ADB1
:1023D00007A92046FFF70AFC00287FF451AD55F805
:1023E0000A3C0B9355F8043C0C939DF81F30019365
:1023F0009DF81E309DF81C20544900930DA89DF8AF
:102400001D3011F0DDF90DA8FDF7E2FE0BAC94E8EC
:102410000C0081B20DA8FEF753FA0A2007F02DF93F
:10242000484B079A5A612BE54949204611F07AFA40
:1024300000283DD0A0427FF423AD7C2111F023FA87
:10244000041B082C7FF41CAD441C7C21204611F099
:102450001AFA00287FF414AD05A92046FFF77EFB89
:1024600000287FF40DAD55F80A3C0B9355F8043C59
:102470000C939DF8173001939DF816309DF81420A9
:10248000344900930DA89DF8153011F099F90DA865
:10249000FDF79EFE0BAC94E80C0081B20DA8FEF790
:1024A0000FFA0A2007F0E9F8264B059A1A62E7E4CA
:1024B0002949204611F036FA002853D0A0427FF473
:1024C000DFAC7C2111F0DFF9041B072C7FF4D8ACC2
:1024D000441C7C21204611F0D6F900287FF4D0ACB2
:1024E000214664220DA811F0E3F908A90DA8FFF711
:1024F000EEFA00287FF4C4AC55F80A3C089A174954
:102500000B930DA855F8043C0C9311F059F90DA844
:10251000FDF75EFE0BAC94E80C0081B20DA8FEF74F
:10252000CFF90A2007F0A9F8064B089ADA60A7E469
:10253000D9580108095901083A5901089359010865
:102540009B590108DCF00020BF590108C759010858
:10255000E7590108F0590108195A0108215A0108E0
:10256000D85501086649204611F0DCF9002839D019
:10257000A0427FF485AC7C2111F085F9041B072C67
:102580007FF47EAC441C7C21204611F07CF90028AD
:102590007FF476AC214664220DA811F089F908A9D0
:1025A0000DA8FFF794FA00287FF46AAC55F80A3CAE
:1025B000089A54490B930DA855F8043C0C9311F05C
:1025C000FFF80DA8FDF704FE0BAC94E80C0081B2F7
:1025D0000DA8FEF775F90A2007F04FF84A4B089A44
:1025E0009A604DE44949204611F09CF9002839D001
:1025F000A0427FF445AC7C2111F045F9041B0A2C64
:102600007FF43EAC441C7C21204611F03CF90028AC
:102610007FF436AC214664220DA811F049F908A9CF
:102620000DA8FFF754FA00287FF42AAC55F80A3CAD
:10263000089A37490B930DA855F8043C0C9311F0F8
:10264000BFF80DA8FDF7C4FD0BAC94E80C0081B2F7
:102650000DA8FEF735F90A2007F00FF82A4B089A63
:102660005A620DE42B49204611F05CF900283FF432
:1026700007ACA0427FF404AC7C2111F004F9041BE8
:10268000072C7FF4FDAB00F1010A7C21504611F0CC
:10269000FAF800287FF4F4AB09AC1F4A21465046F3
:1026A000FFF7C8FA00287FF4EBAB55F80A3C0B9310
:1026B00055F8043C0C936379039323790293E378F0
:1026C0000193A37800936378227814490DA811F040
:1026D00077F80DA8FDF77CFD0DF12C0A81B29AE880
:1026E0000C000DA8FEF7ECF80A2006F0C6FF94E8EF
:1026F00003000B4B43F8040B1980FFF7C1BB00BF6D
:102700003F5A0108475A0108DCF00020655A0108C9
:10271000705A01088B5A0108E3550108935A0108C1
:10272000F4F00020F8B506460F4615460024AC42EA
:1027300001D10020F8BD37F81420002306EB440136
:10274000012004F06FFA0028F4D10134EFE7000013
:102750002DE9F04FB0F1006F87B007468946164665
:102760004CD3284B00EB42029A4247D800F1784400
:10277000B4F5803F22D2A50BC4F34F04C4F58034D6
:10278000B44228BF34464FF0000B4FF0010A04F06A
:1027900003FA642004F0B0FE0223694601A8CDE9E3
:1027A00001BACDE9035A059304F0E6FA804688B1F0
:1027B00004F004FA404607B0BDE8F08FB4F5003FDE
:1027C00021BF00F1774505F57E056D0C053538BF55
:1027D0000425D1E7224649463846FFF7A3FFB44215
:1027E000E6D2361BB6F5803F09EB4409274405F1D4
:1027F000010594BF34464FF40034C8E74FF0010898
:10280000D8E700BFFEFF0F08114B124A70B503F165
:102810003806154618685968144603C40833B3428D
:102820002246F7D1186820602B78FF2B0BD10A4D78
:10283000084C0FCD0FC40FCD0FC40FCD0FC495E8BA
:10284000070084E80700FFF773F8002070BD00BFA1
:1028500000000E08DCF000209C55010870B5074D03
:10286000074E03241E2229463046FFF771FF18B198
:10287000013C14F0FF04F5D170BD00BFDCF0002076
:1028800000000E0830B5074D074C0FCD0FC40FCD1B
:102890000FC40FCD0FC495E8070084E8070000209F
:1028A00030BD00BF9C550108DCF000207FB501233E
:1028B0000A22CDE901320DF117028DF817000092BE
:1028C00078210022024810F0E5F907B05DF804FB1A
:1028D000B49401207FB501230A22CDE901320DF124
:1028E00017028DF81700009278214022024810F05C
:1028F000D1F907B05DF804FBB4940120AF20FFF7D5
:10290000D5BFAE20FFF7D2BF10B5002280215A48B4
:1029100004F064FB642006F0B0FE012280215648DA
:1029200004F05CFB642006F0A8FEFFF7EAFF044613
:10293000002840F09E80FFF7B9FF0446002840F0D1
:1029400098801020FFF7B2FF0446002840F09180E5
:102950002020FFF7ABFF0446002840F08A800120CA
:10296000FFF7A4FF0446002840F083802120FFF7F2
:102970009DFF044600287CD1FFF798FF04460028FD
:1029800077D17F20FFF792FF0446002871D12220E3
:10299000FFF78CFF044600286BD1FFF787FF044642
:1029A000002866D10320FFF781FF0446002860D18C
:1029B0008120FFF77BFF044600285AD14520FFF70E
:1029C00075FF0446002854D1A020FFF76FFF04468E
:1029D00000284ED1A620FFF769FF0446002848D101
:1029E000A820FFF763FF0446002842D11F20FFF70D
:1029F0005DFF0446E8BBC820FFF758FF0446C0BB94
:102A0000D320FFF753FF044698BBFFF74FFF044660
:102A100078BBD520FFF74AFF044650BB8020FFF764
:102A200045FF044628BBD920FFF740FF044600BB02
:102A30002220FFF73BFF0446D8B9DA20FFF736FF24
:102A40000446B0B91220FFF731FF044688B9DB20F5
:102A5000FFF72CFF044660B92020FFF727FF04464C
:102A600038B98D20FFF722FF044610B91520FFF773
:102A70001DFF204610BD00BF000C024070B5212094
:102A8000FFF714FF034638BBFFF710FF034618BBE0
:102A90007F20FFF70BFF0346F0B92220FFF706FF68
:102AA0000346C8B9FFF702FF0346A8B90320FFF7A2
:102AB000FDFE034680B9094E80240025EB01F05C41
:102AC000FFF708FF034638B90135042DF6D1013C64
:102AD000A4B20136002CF0D1184670BD24AF0020FE
:102AE00008B505484FF40072002110F061FABDE806
:102AF0000840FFF7C3BF00BF24AF00202DE9F0431B
:102B000090429DF81CC043D8994241D87F283FD8B5
:102B10001F293DD8904210D27F2A28BF7F22994298
:102B20000DD21F2B28BF1F23DFF868E04FF00108EC
:102B3000904227D90020BDE8F0830246EFE70B461C
:102B4000F2E7072C1AD91F2C1AD8E6080EEBC61686
:102B500004F0070516F9079008FA05F56DB2BCF107
:102B6000010F0CBF45EA090529EA05050134F555B1
:102B7000A4B29C42E5D9013080B2D9E70026E5E74E
:102B80000426E3E7802807460C4628BF8027F0E7A5
:102B90000120D0E724AF00202DE9F04F85B07F2839
:102BA00003929DF83CE09DF83820009140D81F2901
:102BB0003ED80C2A07D002F0F704102C03D002F004
:102BC000EF04202C34D14FEA520C1CFB03F3441EBB
:102BD00023449BB27F2B28BF7F230193009BDFF808
:102BE00004811344013B9BB21F2B28BF1F23029378
:102BF0000026019983B28B4265D9002005B0BDE85B
:102C0000F08F0399B6FBFCF311F803B0072C8CBFCF
:102C1000E5080025BBF11F0F0AD9ABF1200B182ADC
:102C20001FFA8BFB3AD005D80C2A0CD0102A2ED0D4
:102C30000120E3E7202AFBD10CFB13639B0025490D
:102C400003EB8B1305E00CFB13635B00224902FBD3
:102C50000B3301EBE70B1BF8033007F0070B43FACC
:102C60000BF3DB0722D508EBC51504F0070315F8B5
:102C700000B00AFA03F343EA0B032B540134A4B265
:102C80000137029B9C42BCD901360130B1E70CFBF5
:102C900013635B00114903EB0B13DAE70CFB1363BF
:102CA00003EB43030E4909FB0B33D2E7BEF1010FDF
:102CB000E4D108EBC51504F0070B2B5C0EFA0BFBF7
:102CC00023EA0B03D9E7009C00274FF024094FF0BB
:102CD000010AD6E78C720108CC5A0108405F01084E
:102CE0003065010824AF0020BFF34F8F0549064B24
:102CF000CA6802F4E0621343CB60BFF34F8F00BF9A
:102D0000FDE700BF00ED00E00400FA050120704778
:102D1000094B98420DD3094A8B0000EB8101914287
:102D200007D803F10060064B984294BF00200120B1
:102D300070470120704700BF00C0000800F8070876
:102D4000FFFF000837B5144600228DF8062040F238
:102D50005142ADF8042048228DF8072022788A429B
:102D60000546084613D001290CBF084602202070F2
:102D70001A78D043187000F01BFE042223788DF8D7
:102D800006300DEB0201284601F023F8207803B04D
:102D900030BD07B540F65143ADF8043048238DF8F7
:102DA00007308B78012B0CD1137013788DF8063017
:102DB00004220DEB020101F00CF8002003B05DF8D5
:102DC00004FB022BF0D00120F8E700002DE9F743C7
:102DD000684D69486F7AEE78AC7901F05AF90028AD
:102DE00040F08D80DFF8B081DFF8B891624801F0E3
:102DF00055F94A460621404600F056FF99F8001062
:102E000098F82B00E4B204EA01035C4C53222270D0
:102E100098F80A20677013F00F0318BF0123012AE6
:102E200098F81520A67063F3041189F800100CBF00
:102E30006FF00F010021012A0CBF0F220022114365
:102E400098F820204E4B2171012A0CBF6FF00F0221
:102E5000002201280CBF0F2000209B6F02436271EB
:102E60001BB19A88A271DB88E3710023E37000F044
:102E7000DBFE030AE072A372030C000E6372207281
:102E8000404C98F85700404B67704422227098F8E5
:102E900036209B6FA670012A98F841200CBF6FF076
:102EA0000F010021012A0CBF0F220022114398F8C4
:102EB0004C202171012A0CBF6FF00F020022012863
:102EC0000CBF0F200020024362711BB19A88A271CF
:102ED000DB88E3710026E67000F0A6FE030AE072CC
:102EE000A372030C000E20723246244863720D2137
:102EF00000F07AFE234832460D2100F075FE234B88
:102F0000234A1D492048234CCDE90053224B01F0B0
:102F1000E7F9F8B9214B186806F0D2FC237823F0C2
:102F2000020323701E4A1449154801F037FEB8B950
:102F30001A4B186806F0C4FC237823F001032370B1
:102F40002378032B12D1154B186803B0BDE8F0436A
:102F500006F0BCBC0328E5D1237843F00203E0E788
:102F60000328EDD1237843F00103E8E703B0BDE87F
:102F7000F08300BF06F2002054F10020D1000020B1
:102F8000F0000020DE00002004000020900200205D
:102F900078010020EB000020AEF1002038F1002085
:102FA000E93B0008ED05002030B5144A87B05168B0
:102FB000106803AB03C31189927A19809A70104B81
:102FC0001C78CCB1013CE4B200251C707F22009536
:102FD0001F2310212846FFF791FD1021C4F10A0399
:102FE0000122CDE90012DBB203AA2846FFF7D4FD87
:102FF000FFF744FD07B030BD0324E5E74C8A010824
:10300000EC00002010B51F4C1F480E22214602F094
:1030100094F823786289FF2B04BF02232370E3789E
:10302000FF2B04BF0123E370237AFF2B04BF0A2385
:103030002372A379FF2B04BF0F23A3716378FF2BA7
:1030400004BF012363702379FF2B04BF0123237185
:103050006379FF2B04BF052363714FF6FF739A4218
:1030600001BF6FF04B03A3720023E372237BFF2B9E
:1030700004BF01232373637BFF2B04BF022363730D
:10308000002010BD06F2002000000808022907D029
:10309000052908D0012909D10549042200F099BE6B
:1030A00004490422FAE7044800F0ACBD704700BFB1
:1030B000148B0108108B01080C8B010808B583786C
:1030C0007D2B01D1FFF710FE08BD000010B5064BA7
:1030D000047806480B2202FB043400F093FD2046DE
:1030E000BDE8104000F08EBDB0000020578A0108F6
:1030F000F8B505460848094E094F00F083FD002445
:103100002B782341DB074CBF38463046013400F0B2
:1031100079FD042CF4D1F8BD6D8A01085D92010897
:10312000F8B10108F8B505460848094E094F00F006
:1031300069FD00242B782341DB074CBF384630461D
:10314000013400F05FFD042CF4D1F8BD858A01083C
:10315000F8B101085D9201081FB50C4B8DF807000E
:103160001B88ADF80C30012200230DF1070103A8E4
:103170008DF80E3000F071FF054800F043FD03A804
:1031800000F040FD05B05DF804FB00BFC845010834
:10319000A58A01081FB50C4B8DF807001B88ADF8F8
:1031A0000C30012200230DF1070103A88DF80E3029
:1031B00000F053FF054800F025FD03A800F022FDB4
:1031C00005B05DF804FB00BFC8450108C28A0108CC
:1031D0001FB50C4B8DF807001B88ADF80C30012291
:1031E00000230DF1070103A88DF80E3000F035FF24
:1031F000054800F007FD03A800F004FD05B05DF8E8
:1032000004FB00BFC8450108DD8A010810B500783D
:10321000054C00EBC0000444044800F0F3FC2046D9
:10322000BDE8104000F0EEBC8C000020F98A0108D7
:1032300010B50446FFF7EAFFE01CFFF747FFA01DAB
:10324000FFF756FFE01DFFF76DFF207AFFF7C0FF85
:10325000207BFFF79FFF607BBDE81040FFF77CBF3E
:1032600042780A2A10B40ED00C2A05D0032A0FD1B6
:103270005DF8044BFFF722BF8A1C5DF8044B014642
:103280009868FFF786BD5DF8044B0846FFF7D0BF8E
:103290005DF8044B704700002DE9F743D3E9018541
:1032A0000C461746CB1DCA1C417801390646112928
:1032B00018D8DFE811F012001A0022009E01260043
:1032C0002C0016017800AF00B2014C01AC01DD000A
:1032D000C101F50117007B01320022463146284624
:1032E00001F0D8FA03B0BDE8F083637B07F5817283
:1032F0003146284601F038FBF4E73046FFF7DEFEA2
:10330000F0E722463146284601F08EFBEAE72246E6
:103310003146284601F042FBE4E741F25121ADF885
:10332000041048218DF80710B1784FF000090129E9
:103330008DF8069015D1E378022BD3D197F80721A9
:10334000D20659BF8DF80630B64B03238DF80630F0
:1033500058BF197004220DEB0201404600F039FD00
:10336000C0E7022910D1E0780128BBD12846FFF739
:10337000E9FC04220DEB020140468DF8062000F026
:1033800028FD87F80891E5E70429ABD1E178022907
:10339000A8D1A44C21780129A4D12846FFF7D2FC5A
:1033A00084F80090D6E700238DF8063040F65103EC
:1033B000ADF8043048238DF80730FFF723FEB378CB
:1033C000012B1DD1984A9948E370012101F073FE49
:1033D000002887D1964B95480E22214601F08DFE9C
:1033E00000287FF47FAF032695F83030012B09D0F9
:1033F0000120013E06F041F916F0FF06F4D171E715
:10340000022BDFD0E3788DF8063004220DEB0201A9
:103410002846A3E700238DF8063040F65113ADF897
:10342000043048238DF80730FFF7ECFDB3787E4A6F
:103430007E48A371012101F03EFE00287FF452AFC7
:103440007B4B7A480E22214601F057FE00287FF47C
:1034500049AF032695F83030012B01D1A379D2E78B
:103460000120013E06F009F916F0FF06F2D139E716
:1034700000238DF8023040F65153ADF80030482358
:103480008DF80330FFF7BEFDE378674A6748012BEC
:10349000B37804BFDB43DBB2E371012101F00BFE23
:1034A00000287FF41FAF624B60480E22214601F0D6
:1034B00024FEA0B9032695F83030012B08D1E3791A
:1034C0008DF8023004226946284600F082FC06E0AE
:1034D0000120013E06F0D1F816F0FF06EBD1FFF710
:1034E00003FC00238DF8063040F25173ADF8043030
:1034F00048238DF80730FFF785FDB3785A1F372A28
:103500003FF6F0AE484A49482372012101F0D3FD4D
:1035100000287FF4E7AE464B44480E22214601F0D6
:10352000ECFD0028DBD1032695F83030012B06D1C5
:10353000237A8DF8063004220DEB0201C4E7012046
:10354000013E06F09AF816F0FF06EDD1C7E700231A
:10355000B1788DF8063040F65133ADF804300129CA
:103560004FF048038DF807307FF4BCAE2E4A314847
:1035700001F0A1FD00287FF4B5AE032495F83030AA
:10358000012B0BD10422B3788DF806300DEB02012C
:10359000284600F01EFCFFF735FDA3E60120013CA4
:1035A00006F06BF814F0FF04E8D1F4E700218DF881
:1035B000061041F25111ADF8041048218DF80710A2
:1035C000E17801290AD1B178012903D102212846E5
:1035D000FFF7B8FB012387F8093183E60229F9D107
:1035E00004228DF8061040460DEB020100F0F1FBBD
:1035F000F0E7B178012903D12846FFF7A3FB71E674
:103600000229F9D000297FF46DAEE178F4E7A21C1D
:1036100031462846FFF7BDFB64E62046FFF708FE6B
:1036200060E600BFEE0500200D2D00080000080830
:10363000112D00080080000800238DF8063040F6A8
:103640005163ADF8043048238DF80730FFF7DAFCFA
:10365000B378227B934220D0012B1CD12C4A2D48D9
:103660002373012101F027FD00287FF43BAE2A4F90
:10367000DFF8A08003263B460E222146404601F09B
:103680003CFD00283DD00120013E05F0F6FF16F07C
:10369000FF06F0D126E6022BE0D08DF80620B4E636
:1036A00000238DF8063040F65173ADF804304823FE
:1036B0008DF80730FFF7A6FCB378627B9342ECD01D
:1036C000012B1BD1124A13486373012101F0F3FC53
:1036D00000287FF407AE104FDFF8388003263B4602
:1036E0000E222146404601F008FD50B10120013E66
:1036F00005F0C3FF16F0FF06F1D1F3E5022BCCD1A4
:10370000E0E704220DEB0201284600F05FFAE6E64E
:103710000D2D000800000808112D00080048704712
:1037200006F20020014B1878704700BF06F2002017
:1037300070B52C4B002202214020102404250126C4
:103740005D7099701D7359731974197683F823107D
:1037500083F8251083F82E1083F830501A70D87033
:103760001A715E71DA729873DA739A75DC7558762D
:103770009E76DA7683F8212083F8224083F82400AD
:1037800083F8262083F82C2083F82D4083F82F001F
:1037900083F8312083F83720082583F8384083F8F0
:1037A000391083F8441083F84F10202183F83A0031
:1037B00083F83B5083F83C2083F8422083F8434051
:1037C00083F8450083F8464083F8472083F84D206E
:1037D00083F84E4083F8500083F8511083F852204C
:1037E00070BD00BFAEF1002038B5354D354CFFF748
:1037F00009FCFFF79DFF284600F0A2F86FF0640275
:10380000E271052222726FF0470284F84F200B22EA
:1038100084F850202C486FF0170284F858200322B7
:10382000002384F85920026884F8483084F84A302C
:1038300084F8493084F8513084F8533084F8523099
:1038400084F84B3084F84C3084F84D3084F84E3096
:1038500084F8543084F8553084F8563084F8573062
:103860002370A3706370E37023716371A371D368D5
:1038700043F01003D360A968144D4FF480620EF03A
:10388000F3FD00F0E7F8E87900F092F8FF21204618
:1038900000F021FCFF2104F1480000F01CFCFF2196
:1038A00004F1510000F017FC2946094800F0BEFC65
:1038B000224629460748BDE8384001F053B900BF09
:1038C0001802012054F100207494012006F2002017
:1038D00004000020F000002003685962704703686C
:1038E000586A80B270470000034B04489A6999688F
:1038F00092B20EF0B9BD00BF1802012074940120ED
:1039000001480EF0F9BD00BF7494012008B50A4AC1
:103910000A4B0C21C3E9002000221846C3E9022209
:10392000C3E905121A61DA610EF036FD18B1BDE87F
:103930000840FDF75FBD08BD0044004074940120BD
:10394000134B036003F58062426003F5006203F5E8
:103950004063C360002303748374C3740375837569
:10396000C37503768376C37603778377C3770123A2
:1039700080F83030074B8260C0F831300422064BAB
:103980004274427542764277C0F83530704700BFC6
:1039900018F20020E938000801390008024B82B211
:1039A000D96802480EF026BD180201207494012047
:1039B000F0B589B0244B254E0024019407941A6B6E
:1039C00042F008021A631A6B02F008020192019A8F
:1039D00002941A6B42F004021A631B6B03F0040397
:1039E000029305460127029B03A9C0233046CDE977
:1039F0000337CDE9054403F00DFACDE90544144C35
:103A00004FF4405303A92046CDE9033703F002FAEF
:103A100005EA07023046402103F0E0FAC5F3400210
:103A200020464FF4805103F0D9FAC5F380023046A6
:103A3000802103F0D3FAC5F3C0024FF400512046B1
:103A400003F0CCFA09B0F0BD003802400008024093
:103A5000000C024008B50A4803F089FD094803F04C
:103A600086FD094803F083FD084803F080FD0848FF
:103A700003F07DFDBDE80840064803F078BD00BFB7
:103A800060340120E033012020350120A0330120E3
:103A9000E034012020340120B0F5807F07B50146D5
:103AA0000AD1224B0093224A224B0121012001F02E
:103AB00040F803B05DF804FBB0F5007F05D11B4B67
:103AC00000931B4A1B4B0221F0E7012805D1174B3D
:103AD0000093194A174B0220E9E7022804D1134B3F
:103AE0000093154A134BE2E7042818D102230093F0
:103AF0000E4A124B0121124801F094FAD9E710291D
:103B000006D102230093094A0E4B01210E48F3E728
:103B10002029CED102210B4B044A0091F6E7082858
:103B2000EDD10221054B014A0091E4E78402002017
:103B300060340120F0000020E03301202035012016
:103B400004000020A03301203000002010B50446FE
:103B500000F0CDFA04F1090000F0C9FA04F11B00ED
:103B600000F0C5FA04F1240000F0C1FA04F12D00C0
:103B700000F0BDFA04F1360000F0B9FA04F13F009C
:103B800000F0B5FABDE81040014800F04ABA00BFA5
:103B9000DC050020024A136801331360704700BF40
:103BA00014F200200148012103F01DBA000C02406C
:103BB00005F063BD014800F071BA00BF78F1002044
:103BC000014800F06BBA00BF81F1002008B5054B39
:103BD000084611460CCBFCF773FEBDE808400A20EE
:103BE00005F04BBDD855010808B5054B89B20CCB83
:103BF000FCF766FEBDE808400A2005F03EBD00BFA8
:103C0000D855010810B50446FCF7E2FA054B81B21D
:103C10000CCB2046FCF754FE0A2005F02EFD0020B8
:103C200010BD00BFD8550108014B1868704700BF90
:103C300014F2002008B50E4B186818B14FF0FF3190
:103C400005F0A2FDFFF7D0FD0A480B4CFFF7DAFFA5
:103C50000A48FFF7D7FF0A48FFF7D4FFFFF7B6F887
:103C6000204603F07EFC012005F007FDF6E700BFCB
:103C700048F10020388B010854020120BF020020C7
:103C80009C02002008B5064C064DE36A1BB129468C
:103C9000204600F0CCF8642005F0EFFCF5E700BF0B
:103CA000180201209D3900082DE9F74F00268846AB
:103CB0001746054634464FF00109A988D5F800B0EB
:103CC0000191FFF7B1FF01998246584603F080F950
:103CD0000128034618D1C5F806A0AB7209FA06F20E
:103CE000012B64B23B7852B20CBF94431443E4B24C
:103CF00023F00F0301362343042E3B7005F10B051F
:103D0000DBD103B0BDE8F08FD5F806309A4536BF59
:103D10000AF1FF32AAEB0303D31A984504D9D04520
:103D20002CBF00230123D8E70023D6E7436A0269AA
:103D300019449BB29A42416208D8836A0BB1013B95
:103D40008362B1FBF2F302FB131141620020704762
:103D5000F8B5456AD0F810C00768ACB211FA85F51D
:103D6000ADB2B5FBFCF60CFB16553D4415F8015CF5
:103D7000954212D15E18B34203D1FFF7D7FF00205E
:103D8000F8BD3A5D03F8012B01340569A4B2B4FB18
:103D9000F5F205FB1244A4B2EDE70120F0E738B5D7
:103DA0000446D0F80D30984720790021E17060B1C9
:103DB000D4F809309DB201224DB101386B1E20713B
:103DC0002270C4F80930084638BD2070FCE7104660
:103DD000FAE770B50A440023914201D1002070BD7A
:103DE000C56A4469A54221BF80F82C3080F82D3087
:103DF00080F82E3080F82F30C46A4568661CC66291
:103E000011F8016B2E55E7E738B5C56A41680446DD
:103E10002A46C0680FF0A4F8002384F82C3084F8F8
:103E20002D3084F82E3084F82F30284638BD73B5F5
:103E300090F83030012B04460E4610D1002580F852
:103E40003050FFF7E1FFD4F83530019098470198E2
:103E5000B047D4F831309847284602B070BD0120F1
:103E6000FBE7826A03695343426A006A9B1A18445B
:103E70007047F8B50E46044615461946FFF7F1FFA0
:103E800008B3636A20683278C75C97420ED185B167
:103E900021690133B3FBF1F201FB12332A78C35CD1
:103EA0009A4205D202212046FFF740FF012009E097
:103EB000E95C0029F6D0069B72782046FFF748FFA0
:103EC0000028EFD1F8BD0420FCE7F8B50E46044603
:103ED00015461946FFF7C5FF18B3636A20683278A4
:103EE000C75C97421BD185B121690133B3FBF1F265
:103EF00001FB12332A78C35C9A4205D20221204684
:103F0000FFF714FF012009E0E95C0029F6D0069BC9
:103F100072782046FFF71CFF0028EFD1F8BD012181
:103F2000EDE70420FAE737B50023019304460D4678
:103F3000FFF797FF0190019B63B1019B53B121688B
:103F4000636A019A19442846FFF743FF0199204606
:103F5000FFF7ECFE2046FFF784FF0190019B7BB149
:103F6000019B6BB129686B6A019A19442046FFF7DF
:103F700030FF0199284603B0BDE83040FFF7D6BEB8
:103F800003B030BD8369F0B58B4218BF591A0023C6
:103F90001A46994200D1F0BD046A86680568671C1C
:103FA0000762F65C2E55056A0469A5420AD3846A45
:103FB00080F82020013480F8212080F8222080F829
:103FC000232084620133E4E738B59DF81050012DB9
:103FD00004461DD10079C0B931B101392570C4F84A
:103FE0000910237112B90025284638BDC4F80D20E8
:103FF000E378012BF7D19047237900255A1EE5700D
:104000002271002BEFD02570EEE7002AF0D1EAE70D
:10401000002DE8D1C378012BE5D1BDE83840FFF78A
:10402000BEBE08B503786BB1D0F80530D0F80920D2
:10403000934209D20133C0F80530C378012B01D176
:10404000FFF7ADFE002008BD002301220370C270FF
:1040500043718371C3710372EFE770B58D188D42A0
:1040600000F102000E4601D8500070BD0C78230903
:104070009F2C8CBF3733303300F8023C337803F089
:104080000F03092B8CBF37333033013100F8013C6B
:10409000E5E74078013818BF0120704700234370DE
:1040A000184670478378012B06D0B0F803302BB93F
:1040B000037001238370002318467047FE2B4FF0D6
:1040C000010204D8013B0270A0F80330F1E7FF2B96
:1040D00008BF0270EDE710B5A0F803100021817051
:1040E0000446FFF7DFFF6171A171084610BD08B5F6
:1040F0000278012A0FD1B0F80530B0F807109942C4
:1041000097BF002301334270837099BF437183715D
:10411000A0F805308270FFF7C5FF002008BD000041
:10412000BFF34F8F0549064BCA6802F4E0621343A0
:10413000CB60BFF34F8F00BFFDE700BF00ED00E095
:104140000400FA052DE9F041174602780E46910762
:1041500098460446DDE9065363D022F0030202705C
:1041600040790B2102096FF00A0C11FB02C21A44BC
:10417000927A3AB100F00F0011FB00C10B449B7A18
:10418000002B47D1FFF7CAFA01234089A374B8F87E
:104190000230C0B200EBC00080009B00B0FBF3F027
:1041A000E0803146204600F041FE6423EB70338905
:1041B0006B71A389EB711B0AAB7173782B72B378A7
:1041C0006B72638BEB721B0AAB726379122B24D177
:1041D0004123A370A3782B730A21681D00F060FFB0
:1041E0005023EB730123A8736B70AB703389052BDD
:1041F0000BD8FFF793FA0C4B027903EBC2010131A4
:1042000013F832203846FFF7E4FDFEF7CDFE00201C
:10421000BDE8F0810223A374C3E7342BDAD1422333
:10422000D7E70420F4E700BF6C8C010870B50546A1
:104230004E890C46FFF776FA83074CD5264B0121B1
:1042400083F804114021002283F80211382183F8F9
:10425000031183F80521637885F87C301F4BAE830A
:104260003221A5F8486083F83F2083F8412083F885
:10427000402083F8461083F8472083F8422083F8D3
:10428000432083F8442083F84520217A83F82420B2
:10429000C1EB411001EB8000C0000139A3F82B00F5
:1042A000C1EB411001EB8001C90083F8262083F89F
:1042B000252083F8272083F8282083F8292083F8F5
:1042C0002A20DA765A771A7759849A77DA7783F838
:1042D000202083F8212070BD7801002054F10020B7
:1042E0002DE9F04F2DED028BC9B01F4602F5817309
:1042F0000E46DDF850B1039305461446FFF70EFA5B
:1043000003790493559B9BF80780D3F800A006F12E
:104310001B0308EE103A002208F001030221284690
:1043200008EE903A00F0F1FD10F0020F039B06F149
:104330002409C8F3400800F04581CDE90047524602
:10434000A96FA86DFFF7FEFE002103903046FFF72E
:10435000C2FE01214846FFF7BEFE012118EE100AF9
:10436000FFF7B9FE01230093B24AB3480323322179
:10437000FFF72AFE4846FFF78CFE0746A8BB4846D3
:10438000FFF78CFE1C22394628460EF011FE1C2237
:10439000394605F12C000EF00BFE0E22394605F1D0
:1043A0005C000EF005FE0E22394605F16A000EF0A3
:1043B000FFFD4FF48572394620460EF0F9FD9BF85B
:1043C000013085F87C3018EE902A9C48402102F09C
:1043D00005FE9B4842464FF4805102F0FFFDFF214D
:1043E0003046FFF778FE03230393559B9E689BF8A6
:1043F0000230012B40F00581559B924AD3F8008092
:10440000914908AF009700233046FFF732FD00289E
:1044100040F0F280559B224659463846FEF720FF71
:10442000559BD3F808801E68FFF778F99BF8023097
:10443000012B04F1120740F0118131464046FFF78D
:1044400072FD559B18EE100A1E68FFF722FE80468B
:1044500040B97E4B53F804291B689A4280F087814B
:104460000123A3709BF803309BF80780012B08F011
:10447000010640F0ED8194F801A0A96FAB6D9BF8A7
:104480000C90BAF1010F4546C8F3400816D14A789E
:104490004FF0000B0B2A84F801B040F07F81637B62
:1044A0006B4823F00F0343F004036373FFF7F6FD3B
:1044B00067485946FFF70FFE84F800A06448FFF7ED
:1044C000E8FD814688B96248FFF7E8FD4946604843
:1044D000FFF701FE59483246402102F07FFD58485F
:1044E00042464FF4805102F079FD2178012913D121
:1044F000002323705748FFF7EEFD50483246402115
:1045000002F06CFD4E4842464FF4805102F066FDC9
:10451000637B43F0400363734E48FFF7BAFDB8B9BD
:1045200066F3000568F34105EDB24A48FFF7B6FDB2
:10453000EA4302F001024148402185F0020502F001
:104540004DFDC5F340023E484FF4805102F046FD58
:10455000A378012B30D1559B3F499D680023A37060
:10456000237A0B2B02BF237901332371374B186851
:1045700001F584431B68984280F0748142234343D1
:10458000CE18CA5C62747678267444F20426013030
:1045900002338851194438460EF0E2FC617C0F3139
:1045A0002A46C9B2E01CFFF71FFB00236374237483
:1045B000637B03F00F036373039849B0BDEC028B78
:1045C000BDE8F08FC20614D5524605F15C01CDE975
:1045D000004728460393FFF7B5FDCDE90047039B4D
:1045E000524605F16A0105F12C00FFF7ABFD03907F
:1045F000C0E6FF230393BDE641463046FFF793FC38
:104600000EE73046FFF72DFC00283FF409AF08AF56
:104610000C4A0D49009700233046FFF756FC00284E
:104620007FF4FEAE559B224659463846FEF734FECF
:10463000F6E600BFA53B0008DC05002000080240AC
:10464000000C0240188B0108B48C0108F3470020CD
:104650008AF1002093F10020EF0500200379DFF8B4
:104660002C82304618F80390FFF7FBFB4845FFF417
:10467000E8AE04987D49009701EB40014B46304677
:104680000022FFF722FC064600286CD1FFF746F80F
:1046900003792374FFF742F8037918F80330637441
:1046A0000493FFF73BF8724A0179637C12F811908A
:1046B000059302EB410292F801A0FFF72FF802796F
:1046C000059B18F802209A423FF6BBAE6949D1F823
:1046D0000080B8F1000F10D0049AA1F58441A2EB3C
:1046E0000A02334607EB090A059109F1020998B25B
:1046F000804526D8002E3FF4A4AE42221FFA88F847
:104700005D4E02FB08F808F10200049A3044394675
:104710000EF026FC627C06F8082006EB0803227CDB
:104720005A7006F584463368FE2B89BF4FF0FF337D
:1047300001333370002391BF33607370B370F37033
:104740007FE60793422303FB0090059B06921844E3
:1047500051460EF0F7FB079B069A10F0FF0603F197
:104760000103C4D16DE600236374237469E618EE77
:10477000100AFFF793FCFEF7D1FF404B027903EBE1
:10478000C201013113F832203046FFF722FB44F218
:104790000C22414638480EF00BFC63E60C2A06D189
:1047A000637B23F00F0343F00403637386E60D2A53
:1047B00005D1637B23F00F0343F00603F5E7A2F175
:1047C000140009283FF67AAE4FF00A0B0978B2FBC5
:1047D000FBF00BFB1022D2B291427FF46FAE049338
:1047E000FEF79CFF94F80621DFF8A4A0012A26D04A
:1047F000049B5B8B1BB3418941F65832B2FBF1F24B
:1048000053439B00B3FBFBF3AAF83D3000238AF827
:1048100036308AF838308AF837308AF83B308AF8F0
:104820003C308AF839308AF83A3015480121FFF7D0
:1048300052FCB9F1020F04BF012323703EE6B4F825
:1048400002319AB2002ADFD10E48FFF7DBF9DDE72B
:1048500032460D48402102F0C1FB9BF80720C2F30D
:10486000400270E600236374237497E68C8C010881
:10487000948C0108EF470020EF0500204C8C0108C4
:104880008AF100205B8B0108000802409C8C010823
:1048900054F100202DE9F041CB780D2B07460C4652
:1048A000154602D88B78032B04D92548FFF7AAF9BF
:1048B00001243AE0FEF7A6FB6388224A2248AB8037
:1048C000012100F0F8FB04460028F1D11F4B1E48DF
:1048D0000E22294600F011FC38BB032697F83080E1
:1048E000B8F1010F24D16A79194B53F82200FFF770
:1048F0000DF81848FFF786F92879174B00EB800070
:104900001844FFF77FF91548FFF77CF96879144BD5
:10491000C0EBC0001844FFF775F91248FFF772F9B1
:1049200041463846FEF7B2FB00242046BDE8F08140
:104930000120013EFFF73CF916F0FF06CED1F4E767
:10494000718B01080D2D000800000808112D0008CA
:10495000148C0108868B0108A08C01089B8B010830
:10496000AF8B01082A560108022B14D08B78591EF0
:10497000C9B2B3290FD807EE903ADFED076A53802A
:10498000B8EEE77A0123C6EE877A1371FCEEE77A78
:1049900017EE901A1180704700E0C44673B50023EB
:1049A0000C46ADF8023040F25163ADF800304823B8
:1049B00015468DF804300646FEF724FB628817483A
:1049C000130A03EB02236B81154A012100F073FBEC
:1049D00000BB144B11480E22294600F08EFB78B91B
:1049E000032496F83030012B0CD16A89130A03EBAB
:1049F0000223694605223046ADF80230FFF7E6F89B
:104A0000FFF78EFB0120013CFFF7D2F814F0FF0402
:104A1000E7D1F5E7012002B070BD00BF0000080833
:104A20000D2D0008112D000873B500230D468DF8DB
:104A3000063040F25153ADF8043048238DF807306A
:104A400006461446FEF7DEFAAB78012B20D1184A51
:104A500018482370012100F02EFBF0B9164B1548C1
:104A60000E22214600F049FB80B9032596F830302C
:104A7000012B15D12046FEF7C9FB042223788DF8BF
:104A800006300DEB02013046FFF7A0F8FFF748FBB8
:104A9000022BDCD02046FEF7B9FB012002B070BD2E
:104AA0000120013DFFF784F815F0FF05DED1EDE7A9
:104AB0000D2D000800000808112D000870B50378BE
:104AC00016469A0723D523F00203124C03700B8974
:104AD000A3708389237200251B0A7322E570257158
:104AE0006571A571E371837822700A210122A01CEF
:104AF00062706372A57200F0D3FA5023E0722373E0
:104B0000FEF752FA20460D21B047284670BDFF201F
:104B1000FCE700BFFB470020122804D14B8901337A
:104B20004B8100207047342802BFCB8E0133CB86E7
:104B3000F7E737B50446012C15461846069A08D102
:104B400000942B4600F06EFA003818BF012003B025
:104B500030BD022C04D1012300932C302B46F1E709
:104B60000020F4E710B5097AC1EB4114002301EBF2
:104B7000840182F82D3082F82F3082F82E3082F8AE
:104B8000303082F8313082F8323082F83330C90068
:104B90000123918680F87C3010BD00002DE9F3419F
:104BA0000F46154601F12D0800220421044600F0AD
:104BB000ACF9820740D52A46A16FA06DFFF77EFFB2
:104BC000002105463846FFF786FA01214046FFF7E7
:104BD00082FA01230093224A224803233221FFF75D
:104BE000F3F94046FFF755FA064608BB4046FFF783
:104BF00055FA1C22314620460EF0DAF91C223146C5
:104C000004F12C000EF0D4F90E22314604F15C00C0
:104C10000EF0CEF90E22314604F16A000EF0C8F90A
:104C2000012384F87C30FF213846FFF754FA03252E
:104C3000284602B0BDE8F081C3060ED52A4604F12D
:104C40005C012046FFF73AFF2A4604F16A0104F1AD
:104C50002C00FFF733FF0546C3E7FF25C1E700BF80
:104C6000A53B0008DC050020022AF0B568D0042A24
:104C700064D1C378012B37D14378022B05D05BB1C7
:104C800000230371CB880133CB8042890389002A3A
:104C900018BF4FF0FF339BB20382037901224270A9
:104CA000134403710023C37083600379022B0FD96F
:104CB000038AC2899A4292BF41238381422383702F
:104CC000037898BF828143F00403037001230371CA
:104CD0000379012B30D90B8903BBC28902B9028A3F
:104CE000828101339BB21DE0022BDED14378012B80
:104CF0000CD9002303718B8801338B80428903898F
:104D0000002A18BF4FF0FF339BB201E0002BF5D112
:104D1000C3810379022242700133C2E74FF6FF726A
:104D20009342DED10B81037843F0020303700378D2
:104D300043F00103037001E0002BF8D10020F0BD27
:104D4000C378012B1BD14378022B03D01BB1CB8836
:104D50000133CB800389C38203790122427013445B
:104D6000037100230381C3700379002BE6D0468BC7
:104D7000C28AB6B1931B9E4213DB4283DEE7022B4D
:104D8000F2D14378012B04D98B8801338B800389BE
:104D900001E0002BFBD1C382037902224270013370
:104DA000DEE70B895BB9037843F00103037001234D
:104DB0000B81837C012B04BFC38843830EE0048BEB
:104DC0008CB9847C012C06D10478828144F00204E1
:104DD00004700133ECE7022C00D1428302B102835C
:104DE00000230371AAE7B2EBD40F0BD904788281B8
:104DF00044F0010404704FF6FF74A342E9D14FF66A
:104E0000FF73D5E7858B0A2765437E43B5FBF6F52F
:104E1000822D07DD002545831425B4FBF5F4A2425D
:104E2000C7D9E3E7837C022BC3D1D6E783890889FE
:104E3000022810B507D18B8140F602430B80002376
:104E40008B70012010BD8A896AB902280BD9487875
:104E50000B2804D140F602420A808B81F1E70B2334
:104E60004B708A70EDE713B90B234B70E9E79A4258
:104E700048788B814FF00A0422D2B2FBF4F2B3FBE4
:104E8000F2F30D2BDAB20FD8013048708A704B78EC
:104E9000A3F10A02092A21D80A20B3FBF0F200FB91
:104EA00012330B700020CDE70A38092894BF152073
:104EB0000B201E2B48708A70E9D915234B70E5E74B
:104EC000B3FBF4F3B2FBF3F31E2B00F101008B7084
:104ED00088BF1623487088BF4B70D8E7A3F114022F
:104EE000092ADFD80A200C78B3FBF0F200FB12335A
:104EF000DBB29C424FF0000004D2012CA2D00B2365
:104F00004B709FE79ED188819CE7F8B5174690F8D3
:104F10007C2012F0010F0B46044600F12C0500F135
:104F20005C0100F16A0626D0C278AAB11A46FFF7E2
:104F30009BFE1223A465A167637194F87C3023F073
:104F4000010343F0020384F87C30D4F880309847A2
:104F500094F87C201046F8BD90F82F20002AF9D054
:104F60001A4631462846FFF77FFE3423A565A6671B
:104F700084F83130E1E712F0020F08D0806DC2787A
:104F8000002AE7D0A16F1A46FFF76EFEDDE7D206D2
:104F9000DED5C2786AB11A46FFF766FE94F87C3017
:104FA00043F0400384F87C3012236371D4F88030DE
:104FB000984794F82F30002BCAD03A4631462846FD
:104FC000FFF752FE94F87C3063F07F0384F87C3066
:104FD000342384F83130B8E710B50378047B426895
:104FE0006BB1022C0BD18468121B8A4203D30023BD
:104FF0000370184610BD013B0370FF20FAE7012C37
:10500000FBD182600133F7E738B505460846114603
:105010001C46A8479DF8103098420CBF0220012082
:10502000207338BD2DE9F347984604461368DDF830
:1050300028A0DFF8689040460D4616469847164B64
:10504000C9F80400012D074658600FD1616AB068A5
:10505000E28B0095FFF7D8FF0F4B51461846FFF73C
:10506000BBFF80B1012002B0BDE8F087022DF9D16D
:105070000123A16AB0680093228C4B46FFF7C4FF5E
:1050800051464846EBE7E5704046736827810021AA
:1050900098470020E7E700BF084800201848002094
:1050A00001440023884201D11846704710F8012BB3
:1050B0001344DBB2F6E770B504460E46904705464A
:1050C000C8B904F1784424F4FF6424F0070404F11F
:1050D000006401F061FD1EB901F070FD284670BD4D
:1050E0000221204601F048FE013E10B904F500649B
:1050F000F1E701F063FD0125F0E7F8B50F46114631
:10510000044616469847054698B901F045FD043F08
:105110002644A64203D801F051FD2846F8BD57F8B1
:10512000042F00232146022001F07CFD18B101F07C
:1051300045FD0125F1E70434EBE710B50023934268
:1051400001D1002010BD1C5CCC540133F7E70000F6
:105150000848094A08B50623C0E9002340F2E243A3
:10516000836002F0DDF918B1BDE80840FCF742B9F0
:1051700008BD00BF54020120003000402DE9F74F68
:10518000254AD66A4FF00008B3680C464746914658
:1051900040F2F45B2CB92048394600F071FE2046FD
:1051A00004E03268002A11DA6FF00700D9F8003005
:1051B00041F214029958890605D52021995041F2EF
:1051C00004020021995003B0BDE8F08F6289454682
:1051D0004FF0000A616805EB0208D84503EB0500B3
:1051E000514408D8CDE900230DF0BAFE009A246896
:1051F000019B1744CEE7ABEB05052A460DF0B0FE48
:10520000F6683368002BCFDBAA442F44B368A8F2BA
:10521000F4520025DEE700BF881B01202DE9F74F7F
:1052200080463A4C20684FF0FF3104F0ADFA002878
:10523000F8D1374E37480CF04AFF304600F094FE64
:10524000054630B1002433480CF046FF002CF0D165
:10525000E7E7B18F01BB0024336BB06B00228242C1
:105260004DD10023B36341F2140233689958090603
:1052700005D58021995041F2080200219950002C57
:10528000E0D0D8F810304146204698470028DAD0C0
:1052900020460AF08FFFD6E74FF4C172376C0AF050
:1052A000F1FF04460028D6D0D6F830A0B94640F227
:1052B000F45B0746B7F80AE0AC46002378680CEBCD
:1052C0000E055D45184409EB0C0106D872460DF039
:1052D00047FE3F68002FEDD1BEE7ABEB0C02019318
:1052E00000920DF03DFEDDE90023DAF80CA0A5F2F6
:1052F000F45EDAF8089013444FF0000CDEE719680A
:1053000041F000411960DB680132A8E72C48002019
:10531000881B012004360120F0B504468DB014220C
:10532000002107A80DF044FE22683F4B9A4278D135
:10533000A3F59043002401941A6B3C4842F000729C
:105340001A631A6B02F000720192019A02941A6BAE
:1053500042F080621A631A6B02F080620292029A33
:1053600003941A6B42F000621A631A6B02F0006237
:105370000392039A04941A6B42F004021A631A6BA4
:1053800002F004020492049A05941A6B42F001029E
:105390001A631A6B02F001020592059A06941A6BC1
:1053A00042F002021A631B6B099403F00203069396
:1053B000022703260B25069B07A93223CDE90737D1
:1053C000CDE90A6501F026FD862319480B9507A94A
:1053D000CDE90737CDE9094601F01CFD4FF46053D4
:1053E00014480B9507A9CDE90737CDE9094601F027
:1053F00011FD224605213D2002F000F83D2002F07B
:105400002FF822460121094801F0E8FD642002F04E
:1054100073F801220548114601F0E0FD642002F016
:105420006BF80DB0F0BD00BF0080024000080240E4
:105430000000024000040240014B186804F0CAB9A1
:105440002C480020F0B504468DB030B9374B3849B0
:10545000384840F223220EF04BF947F2734363863B
:10546000354B6361354B364DA361364B364901915F
:105470000122C5E9003200232B82ADF8083001A9D2
:10548000EB6128464FF40003C5E905122B6200F0DA
:105490005DFE28B994F8313043F0040384F83130CC
:1054A0002A4A2B4926482B4E042300F073FC2A4A33
:1054B0002A492348042300F0A9FC062384F830304D
:1054C0006B691A7884F82A205A7884F82B209A7805
:1054D00084F82C20DA7884F82D201A7984F82E208C
:1054E0005B7984F82F3040F2DC53238594F8313017
:1054F00043F00A0384F831300027012103A8CDE9E5
:10550000037704F01DF9164B18600FCE05AD0FC5DB
:1055100096E8070085E80700214605A804F080F812
:10552000074800F00FFF38460DB0F0BDBC8C0108F5
:10553000CD8C0108DB8C0108911401087D51000815
:10554000881B0120008002400080E100D01B012068
:10555000B8020120CC45010838030120081B0120B6
:105560002C48002001F0C2BF37B500230F4D019336
:10557000044601AA0121284600F075FD2068019B20
:1055800090F8312003F004035107019308D42BB1A4
:105590000BF08CFAC82004F070F8EAE75207F9D54E
:1055A000002BF7D10BF0A6FAF4E700BF881B01200F
:1055B00073B590F8313000210546580700910191EC
:1055C00044D5244C6368002B35D04FF480522046DC
:1055D00000F084FD01F08AFF2646009001AA012117
:1055E000304600F040FD01F081FF009BC01AB0F58D
:1055F0007A7F20D8019B9A06F0D501AA15481F2171
:1056000000F031FD019B13F0100218BF4FF400624F
:105610005B074CBF00234FF48043E260A3600D485A
:10562000002100F003FF0B4800F08CFE2846FBF73A
:1056300005F802B070BDD4E90223520842EAD30251
:1056400092B20021034800F049FDE8E7014800F06C
:10565000B3FEEBE7881B01207FB51022002102A8D2
:105660000DF0A6FC154853224FF080410023C0E9FD
:10567000001240F2E732CDE90033C0E90323836032
:10568000836102F091F808B1FBF7B4FE4FF4805348
:105690000A48029302A902F0ABF808B1FBF7AAFE90
:1056A000002306486946CDE9003302F035F908B118
:1056B000FBF7A0FE07B05DF804FB00BFE03401205B
:1056C0007FB51022002102A80DF072FC1548164982
:1056D00048F23F320023C0E900124FF6FE72CDE9D6
:1056E0000033C0E903238360836102F05DF808B1F1
:1056F000FBF780FE4FF480530A48029302A902F0A0
:1057000077F808B1FBF776FE002306486946CDE935
:10571000003302F001F908B1FBF76CFE07B05DF849
:1057200004FB00BF60340120000400407FB510225C
:10573000002102A80DF03CFC1548164948F23F3202
:105740000023C0E900124FF6FE72CDE90033C0E934
:1057500003238360836102F027F808B1FBF74AFE58
:105760004FF480530A48029302A902F041F808B1AD
:10577000FBF740FE002306486946CDE9003302F0FE
:10578000CBF808B1FBF736FE07B05DF804FB00BFAD
:10579000E0330120000800407FB51022002102A85C
:1057A0000DF006FC1548164945F207220023C0E912
:1057B000001240F69F72CDE90033C0E903238360F5
:1057C000836101F0F1FF08B1FBF714FE4FF4805341
:1057D0000A48029302A902F00BF808B1FBF70AFE8F
:1057E000002306486946CDE9003302F095F808B178
:1057F000FBF700FE07B05DF804FB00BF203401207A
:10580000000C004013B50E4A0E485323C0E9002394
:1058100031230024C3608023CDE900448460836188
:1058200001F0C2FF08B1FBF7E5FD06486946CDE986
:10583000004402F071F808B1FBF7DCFD02B010BDC6
:1058400000100040A034012013B50F4A0F4848F261
:105850003F330024C0E900234FF6FE73CDE9004436
:105860008460C360846101F09FFF08B1FBF7C2FD53
:1058700006486946CDE9004402F04EF808B1FBF74E
:10588000B9FD02B010BD00BF00140040203501205A
:105890007FB51022002102A80DF08AFB1548164999
:1058A00048F23F320023C0E900124FF6FE72CDE904
:1058B0000033C0E90323C0E90533836001F074FFBE
:1058C00008B1FBF797FD4FF480530A48029302A9F1
:1058D00001F08EFF08B1FBF78DFD002305486946F6
:1058E000CDE9003302F018F808B1FBF783FD07B0EB
:1058F0005DF804FBA03301200004014000B50368FB
:10590000B3F1804F89B016D103F50E330022019216
:10591000196C41F0010119641B6C03F00103019340
:105920001C200521019B01F069FD1C2009B05DF8D8
:1059300004EB01F095BD404A934211D13F4B002248
:105940000292196C41F0020119641B6C03F002030E
:1059500002931D200521029B01F050FD1D20E5E76B
:10596000374A934211D1354B00220392196C41F012
:10597000040119641B6C03F0040303931E2005212A
:10598000039B01F03BFD1E20D0E72E4A934211D12C
:105990002A4B00220492196C41F0080119641B6C17
:1059A00003F00803049332200521049B01F026FD37
:1059B0003220BBE7244A934211D1204B00220592AA
:1059C000196C41F0100119641B6C03F0100305936E
:1059D00036200521059B01F011FD3620A6E71B4A64
:1059E000934211D1154B00220692196C41F020010F
:1059F00019641B6C03F02003069337200521069BD6
:105A000001F0FCFC372091E7114A934211D10B4B76
:105A100000220792596C41F0020159645B6C03F05B
:105A2000020307932E200521079B01F0E7FC2E209F
:105A30007CE709B05DF804FB000400400038024038
:105A400000080040000C004000100040001400401E
:105A5000000401407047000008B5034C01220221F8
:105A6000204601F0BBFAF9E7000C0240FEE7FEE732
:105A7000FEE77047012001F0BDBA022001F0BABA7A
:105A8000042001F0B7BA082001F0B4BA102001F0E8
:105A9000B1BA0000014801F0DFBB00BFB4930120A0
:105AA00008B5044801F0D8FB034B012283F83020ED
:105AB00008BD00BF149401201802012008B5202061
:105AC00001F098FA4FF4807001F094FABDE80840B4
:105AD0004FF4007001F08EBA014801F05CBD00BFC8
