:020000040802F0
:10000000000002208D22030801310208033102089A
:10001000053102080731020809310208000000001A
:10002000000000000000000000000000018B02083A
:100030000B31020800000000A18B0208B980020801
:10004000DD220308DD220308DD220308DD22030888
:10005000DD220308DD220308DD220308DD22030878
:10006000DD220308DD220308DD2203080D3102082A
:10007000DD220308DD220308DD220308DD22030858
:100080001D310208DD220308DD220308DD220308FA
:10009000DD220308DD220308DD2203082D310208DA
:1000A000DD22030839310208DD220308DD220308BE
:1000B000493102085931020869310208DD2203087A
:1000C000DD220308DD220308DD220308DD22030808
:1000D000DD22030879310208DD220308DD2203084E
:1000E000DD220308DD220308DD220308DD220308E8
:1000F000DD220308DD22030889310208DD2203081E
:10010000DD220308DD22030899310208DD220308FD
:10011000DD220308DD220308A9310208B9310208F3
:10012000DD220308C9310208D9310208DD220308A3
:10013000DD220308E9310208DD220308DD2203087D
:10014000DD220308DD220308DD220308DD22030887
:10015000DD220308F93102080932020819320208C7
:10016000DD220308DD220308DD220308DD22030867
:10017000DD220308DD220308DD2203080000000061
:08018000DD220308DD22030863
:1001900010B5054C237833B9044B13B10448AFF3C1
:1001A00000800123237010BD6403002000000000C4
:1001B0002838030808B5034B1BB103490348AFF3C4
:1001C000008008BD000000006803002028380308F4
:1001D000034613F8012B002AFBD1181A0138704787
:1001E00001F0FF01102A2BDB10F0070F08D010F8E8
:1001F000013B013A8B422DD010F0070F42B3F6D1EC
:10020000F0B441EA012141EA014122F007047FF004
:1002100000070023F0E80256083C85EA010586EA5B
:10022000010685FA47F5A3FA87F586FA47F6A5FA97
:1002300087F68EB9EED1F0BC01F0FF0102F00702A3
:1002400032B110F8013B013A83EA010313B1F8D14E
:100250000020704701387047002D06BF354603382F
:10026000073815F0010F07D1013015F4807F02BF68
:10027000013015F4C03F0130F0BC0138704700BFB9
:1002800070B54FF0FF0C4CF4E06C1CEA11541DBF2C
:100290001CEA135594EA0C0F95EA0C0F00F0DEF8F7
:1002A0002C4481EA030621EA4C5123EA4C5350EADC
:1002B000013518BF52EA033541F4801143F480132D
:1002C00038D0A0FB02CE4FF00005E1FB02E506F0BE
:1002D0000042E0FB03E54FF00006E1FB03569CF013
:1002E000000F18BF4EF0010EA4F1FF04B6F5007F19
:1002F00064F5407404D25FEA4E0E6D4146EB06068B
:1003000042EAC62141EA55514FEAC52040EA5E5013
:100310004FEACE2EB4F1FD0C88BFBCF5E06F1ED8BD
:10032000BEF1004F08BF5FEA500E50F1000041EBF4
:10033000045170BD06F0004646EA010140EA0200A1
:1003400081EA0301B4EB5C04C2BFD4EB0C0541EAC3
:10035000045170BD41F480114FF0000E013C00F3D8
:10036000AB8014F1360FDEBF002001F0004170BDFC
:10037000C4F10004203C35DA0C341BDC04F1140415
:10038000C4F1200500FA05F320FA04F001FA05F2A1
:1003900040EA020001F0004221F0004110EBD3706E
:1003A00021FA04F642EB06015EEA430E08BF20EA9A
:1003B000D37070BDC4F10C04C4F1200500FA04F33D
:1003C00020FA05F001FA04F240EA020001F00041CF
:1003D00010EBD37041F100015EEA430E08BF20EA42
:1003E000D37070BDC4F1200500FA05F24EEA020E8A
:1003F00020FA04F301FA05F243EA020321FA04F0B9
:1004000001F0004121FA04F220EA020000EBD3706F
:100410005EEA430E08BF20EAD37070BD94F0000F6F
:100420000FD101F00046400041EB010111F4801FA3
:1004300008BF013CF7D041EA060195F0000F18BF54
:10044000704703F00046520043EB030313F4801F90
:1004500008BF013DF7D043EA0603704794EA0C0F4A
:100460000CEA135518BF95EA0C0F0CD050EA410660
:1004700018BF52EA4306D1D181EA030101F00041DD
:100480004FF0000070BD50EA410606BF1046194605
:1004900052EA430619D094EA0C0F02D150EA013611
:1004A00013D195EA0C0F05D152EA03361CBF104652
:1004B00019460AD181EA030101F0004141F0FE41F1
:1004C00041F470014FF0000070BD41F0FE4141F475
:1004D000780170BD81F0004102E000BF83F000436D
:1004E00030B54FEA41044FEA430594EA050F08BFCF
:1004F00090EA020F1FBF54EA000C55EA020C7FEA93
:10050000645C7FEA655C00F0E2804FEA5454D4EB0F
:100510005555B8BF6D420CDD2C4480EA020281EAD9
:10052000030382EA000083EA010180EA020281EA11
:100530000303362D88BF30BD11F0004F4FEA013163
:100540004FF4801C4CEA113102D0404261EB410172
:1005500013F0004F4FEA03334CEA133302D05242F8
:1005600063EB430394EA050F00F0A780A4F10104B4
:10057000D5F1200E0DDB02FA0EFC22FA05F28018EE
:1005800041F1000103FA0EF2801843FA05F35941D4
:100590000EE0A5F120050EF1200E012A03FA0EFC53
:1005A00028BF4CF0020C43FA05F3C01851EBE3717D
:1005B00001F0004507D54FF0000EDCF1000C7EEB9A
:1005C00000006EEB0101B1F5801F1BD3B1F5001FD8
:1005D0000CD349085FEA30004FEA3C0C04F10104F7
:1005E0004FEA445212F5800F80F09A80BCF1004F20
:1005F00008BF5FEA500C50F1000041EB045141EAA2
:10060000050130BD5FEA4C0C404141EB0101013C6A
:1006100028BFB1F5801FE9D291F0000F04BF014659
:100620000020B1FA81F308BF2033A3F10B03B3F12B
:1006300020020CDA0C3208DD02F1140CC2F10C02BB
:1006400001FA0CF021FA02F10CE002F11402D8BF19
:10065000C2F1200C01FA02F120FA0CFCDCBF41EAE5
:100660000C019040E41AA2BF01EB0451294330BDB4
:100670006FEA04041F3C1CDA0C340EDC04F1140491
:10068000C4F1200220FA04F001FA02F340EA030068
:1006900021FA04F345EA030130BDC4F10C04C4F1AE
:1006A000200220FA02F001FA04F340EA030029468E
:1006B00030BD21FA04F0294630BD94F0000F83F4D8
:1006C000801306BF81F480110134013D4EE77FEABB
:1006D000645C18BF7FEA655C29D094EA050F08BF07
:1006E00090EA020F05D054EA000C04BF19461046E8
:1006F00030BD91EA030F1EBF0021002030BD5FEA2C
:10070000545C05D14000494128BF41F0004130BD53
:1007100014F580043CBF01F5801130BD01F00045A7
:1007200045F0FE4141F470014FF0000030BD7FEA1A
:10073000645C1ABF194610467FEA655C1CBF0B4615
:10074000024650EA013406BF52EA033591EA030F2C
:1007500041F4002130BD00BF90F0000F04BF002124
:10076000704730B54FF4806404F132044FF0000557
:100770004FF0000150E700BF90F0000F04BF0021D0
:10078000704730B54FF4806404F1320410F0004536
:1007900048BF40424FF000013EE700BF42004FEA31
:1007A000E2014FEA31014FEA02701FBF12F07F43AE
:1007B00093F07F4F81F06051704732F07F4208BF65
:1007C000704793F07F4F04BF41F40021704730B56C
:1007D0004FF4607401F0004521F000411CE700BFB8
:1007E00050EA010208BF704730B54FF000050AE03B
:1007F00050EA010208BF704730B511F0004502D53C
:10080000404261EB41014FF4806404F132045FEA3D
:10081000915C3FF4D8AE4FF003025FEADC0C18BFE6
:1008200003325FEADC0C18BF033202EBDC02C2F1D8
:10083000200300FA03FC20FA02F001FA03FE40EA6A
:100840000E0021FA02F11444BDE600BF4A0011D2A5
:1008500012F5001211D20DD56FF47873B3EB62521A
:100860000ED44FEAC12343F0004343EA505323FA26
:1008700002F070474FF00000704750EA013002D19B
:100880004FF0FF3070474FF00000704753B94AB93E
:10089000002908BF00281CBF4FF0FF314FF0FF3088
:1008A00000F06EB9ADF1080C6DE904CE00F006F869
:1008B000DDF804E0DDE9022304B070472DE9F047DC
:1008C000089D04468C46002B40F083808A421746E0
:1008D00047D9B2FA82F242B1C2F1200024FA00F004
:1008E0009140974040EA010C94404FEA1748230C8E
:1008F000BCFBF8F61FFA87FE08FB16C143EA01436A
:1009000006FB0EF1994209D9FB1806F1FF3080F081
:100910001981994240F21681023E3B445B1AA4B20F
:10092000B3FBF8F008FB103344EA034400FB0EFE6F
:10093000A64509D93C1900F1FF3380F00581A64591
:1009400040F2028102383C4440EA0640A4EB0E0427
:1009500000261DB1D4400023C5E900433146BDE85F
:10096000F08702B9FFDEB2FA82F2002A50D1CB1B27
:100970004FEA174E1FFA87F80126B3FBFEFC210C45
:100980000EFB1C3341EA034108FB0CF38B4207D9F1
:1009900079180CF1FF3002D28B4200F2E9808446D4
:1009A000C91AA3B2B1FBFEF00EFB101143EA0144D9
:1009B00008FB00F8A04507D93C1900F1FF3302D22B
:1009C000A04500F2D9801846A4EB080440EA0C4088
:1009D000BFE78B4209D9002D00F0B1800026C5E9A0
:1009E000000130463146BDE8F087B3FA83F6002EA9
:1009F0004AD18B4202D3824200F2B880841A61EB62
:100A0000030101208C46002DA8D0C5E9004CA5E7C4
:100A1000C2F1200320FA03F6974001FA02F04FEAF0
:100A2000174ED9403043030CB1FBFEF61FFA87F88E
:100A30000EFB161143EA014306FB08F1994204FA42
:100A400002F409D9FB1806F1FF3C80F08D80994231
:100A500040F28A80023E3B445B1A81B2B3FBFEF057
:100A60000EFB103341EA034100FB08F38B4207D928
:100A7000791800F1FF3C73D28B4271D902383944A6
:100A8000CB1A40EA064678E7C6F1200C03FA06F4D2
:100A900022FA0CF31C4320FA0CF701FA06F34FEA92
:100AA000144E21FA0CF11F433B0CB1FBFEF91FFA67
:100AB00084F80EFB191143EA014109FB08FA8A4543
:100AC00002FA06F200FA06F308D9611809F1FF30BC
:100AD00048D28A4546D9A9F102092144A1EB0A016D
:100AE000BFB2B1FBFEF00EFB101147EA014700FB5D
:100AF00008F8B84507D9E71900F1FF312ED2B845FB
:100B00002CD90238274440EA0940A7EB0807A0FB8C
:100B100002894F45C64649461AD317D05DB1B3EB9B
:100B20000E0267EB010707FA0CFCF2404CEA0202E6
:100B3000F740C5E9002700263146BDE8F0872E467C
:100B400028460BE70646E9E61846FDE64345E5D2AA
:100B5000B8EB020E69EB04010138DFE70846D2E783
:100B600060468DE78146B9E7664675E730464AE755
:100B7000ACF1020C394413E702383C4424E700BFCF
:100B8000704700BF08B5094B1B78012B0BD0012221
:100B90001146074803F042FD01F0FEFB034B012222
:100BA0001A70FD2008BDFE20FCE700BF8003002076
:100BB00000080240024B00225A701A70FD20704754
:100BC000800300204FF47A7070470000F0B595B0B4
:100BD000FFF7F8FF6F4B5B78012B00F0D8800546DC
:100BE0006D4B93F8313013F0040F02D1FE2015B095
:100BF000F0BD69480FF042FB00221146202009F0A9
:100C000005FB664B1860002800F09C8050220021F4
:100C1000684611F041FC5A2340F22222604968469E
:100C200012F042F86846FFF7D3FA07460DEB0006CC
:100C30005C4C0FCC4DF807007160B260F36003CCE0
:100C40003061716123883383684600F0E9FB534CBF
:100C5000AAB25549206809F057FB23680A221A6294
:100C6000002852D150220021684611F015FC5E2365
:100C700040F222224A49684612F016F86846FFF709
:100C8000A7FA06460DEB0005484C0FCC4DF80600C0
:100C90006960AA60EB6020682861684600F0C0FBCC
:100CA0003C4B01225A70424A117853781B0443EAA4
:100CB0000163917843EA0123D1780B431A0202F4CD
:100CC0007F0242EA0162190A01F47F410A4342EAC3
:100CD0001363384A1360384A117853781B0443EA87
:100CE0000163917843EA0123D1780B431A0202F49D
:100CF0007F0242EA0162190A01F47F410A4342EA93
:100D000013632E4A1360FD2071E7502200216846CC
:100D100011F0C2FB642340F222222149684611F0FF
:100D2000C3FF6846FFF754FA00222549684411F0D2
:100D3000BBFF684600F074FB184B186809F0D4FA42
:100D4000FE2054E750220021684611F0A5FB6923DC
:100D500040F222221249684611F0A6FF6846FFF7CA
:100D600037FA06460DEB0005164C0FCC4DF8060081
:100D70006960AA60EB6003CC286169612288A3786E
:100D80002A83AB76684600F04BFBFE202FE7FD2060
:100D90002DE700BF80030020608F0020AC89002079
:100DA000483803085C380308886803087838030863
:100DB00000000020A489002004000020A889002051
:100DC0008C380308A838030841F2A630704741F276
:100DD0009C30704708B5094B9B78012B01D1FD2051
:100DE00008BD074B186807F01AFA064B186807F099
:100DF00016FA024B01229A70F1E700BF800300202F
:100E0000648E0020508E00201C4B5B78012B32D169
:100E100010B59AB0002406944C22214607A811F080
:100E20003BFB0294039404940594154B1B6813B97F
:100E3000FD201AB010BD0422124902A800F0B6FE2F
:100E4000FFF7C5FF0446FFF7BFFF0090234602AA45
:100E50000D4906A811F028FF06A8FFF7B9F90146C9
:100E600023460A4A06A800F0DBFD054A1368013B49
:100E70001360FD20DDE7FE20704700BF80030020E7
:100E80000800002000000020C4380308A8890020C2
:100E900070B5D6B000241694FC22214617A811F094
:100EA000FBFA50222146684611F0F6FABE2340F2C2
:100EB00021225A49684611F0F7FE6846FFF788F983
:100EC00006460DEB0005564C0FCC4DF80600696048
:100ED000AA60EB6003CC2861696123782B766846B1
:100EE00000F09EFA4F48FFF773F93B2831D85022A3
:100EF0000021684611F0D0FABF2340F22122474971
:100F0000684611F0D1FE6846FFF762F9454968442A
:100F100011F0CAFE684600F083FA4348FFF758F91B
:100F20003B281AD850220021684611F0B5FAC02398
:100F300040F221223949684611F0B6FE6846FFF7B3
:100F400047F93949684411F0AFFE684600F068FA85
:100F500021E0364800F064FADFE7344800F060FA38
:100F600019E050220021684611F096FACD2340F294
:100F700021222A49684611F097FE6846FFF728F9B2
:100F800000222B49684411F08FFE684600F048FAB1
:100F9000012007F053F92749274B186809F006FB91
:100FA0000028F5D14FF48072002116A811F074FAD0
:100FB0000DF1520215A91F4B186809F0A1F800287D
:100FC000CFD1BDF852208DF8582015990DF1590058
:100FD00011F03AFA50220021684611F05DFAC92357
:100FE00040F221220D49684611F05EFE6846FFF787
:100FF000EFF8BDF852201149684411F055FE6846DB
:1010000000F00EFA0123002216A90D48006807F02F
:1010100047FB084B186809F034F8B9E7483803086B
:10102000F0380308240000200C0000200C390308CD
:101030003039030884030020AC8900201C390308E0
:10104000608E002030B5ADF5617D01AC324D0FCD25
:101050000FC495E8030044F8040B21701EE0002340
:101060000F2B0BD860AA32F813100A0A02EB0122E8
:1010700007A921F813200133DBB2F1E7202107A8EB
:1010800000F076FC13E060A8FFF7A2F8014660A824
:1010900000F09AFC14E0012007F0D0F800231A4673
:1010A00060A91E48006807F03DFB0028D7D0002348
:1010B0001A4660A91A48006807F034FB0028E2D0FD
:1010C00000231A4660A91748006807F02BFB002888
:1010D000E1D1154960A811F05FFE0028DBD0FF22A6
:1010E000002120A811F0D8F901A8FFF771F80246F5
:1010F00001A920A811F03BFE20A8FFF769F80146DE
:1011000041F29233094A20A800F08AFC642007F0DB
:1011100095F803F011FDBEE74C390308688E0020F6
:10112000588E0020608E002044390308A4890020D6
:1011300008B500F091FDFF2803D0034B33F81000F1
:1011400008BD014B1888FBE7AC3E030810B5084802
:1011500000F07BFD38B9064C214600F06EFD2046BC
:10116000FFF7E6FF10BD0248FFF7E2FFFAE700BF16
:101170009003002010B594B001211A4B186807F0B5
:10118000BFF800F071F903E04FF4FA7007F056F879
:10119000154804F099FA4FF48041144803F044FADA
:1011A00000F094F90446124B1B688342ECD05022A5
:1011B0000021684611F070F95E2340F2FF220D49CC
:1011C000684611F071FD6846FFF702F822460A49A9
:1011D000684411F069FD684600F022F9044B1C6078
:1011E000D2E700BF548E0020248F00200010024060
:1011F00088030020483803086439030808B5054B04
:10120000054A0649064800F00DFDFFF79FFF07F06D
:1012100015F8FAE7CC390308C4390308A003002005
:101220009003002000000000F0B5A3B020220021B0
:101230001AA811F031F90123ADF868300023199391
:10124000494C204600F072F904F10C030FCB8DE8F5
:101250000F0094E80E00454800F01EFB061E1EDB42
:1012600005AD50220021284611F016F98A2340F2DC
:1012700012223F49284611F017FD2846FEF7A8FF25
:1012800084462F183B4C0FCC45F80C007960BA60AF
:10129000FB6023783B74284600F0C2F840E05022FF
:1012A000002105A811F0F8F8882340F212223049F5
:1012B00005A811F0F9FC05A8FEF78AFF32462E4971
:1012C00005AB184411F0F0FC05A800F0A9F827E0E0
:1012D0002A4B1B68B34219D0284B1E6050220021B4
:1012E00005A811F0D9F8982340F21222204905A848
:1012F00011F0DAFC05A8FEF76BFF3246204905AB7A
:10130000184411F0D1FC05A800F08AF8012300224E
:101310001AA91C48006807F0C3F90A2006F08EFFDE
:1013200000240F2CD4D819A9104B186800F070FABB
:101330000646199800F00F05000AFFF70DFA08A3FA
:10134000D3E90023FEF79CFF22AB03EB4505FFF733
:101350007DFA25F8200C0134E4B2E2E7AFF3008017
:1013600028B858518369583FB4890020B0890020BB
:101370004838030894390308783903088C0300209F
:10138000A8390308688E00200020704730B585B06A
:101390000C4615460022029203924FF40041134876
:1013A00003F03CF90A2300932B4602AA2146104879
:1013B00010F04FFE68B92A4602A9204611F044F801
:1013C00001224FF40041094803F028F9002005B03C
:1013D00030BD012006F032FF01224FF400410348E6
:1013E00003F01CF94FF0FF30F1E700BF00000240AE
:1013F000DC2201200020704708B507F0EBFA00203E
:1014000008BD0000024A136801331360704700BF33
:10141000C0030020014B1868704700BFC0030020C4
:1014200010B59EB0044678220021684611F034F8C9
:10143000FFF7F0FF02460A49684611F035FC68469E
:10144000FEF7C6FE00222146684411F02DFC0A2357
:10145000002269460348006807F022F91EB010BD5B
:10146000043A0308588E002070B582B0154C164E11
:1014700040F27E452A463146204610F0E5FF4FF403
:101480007A7300932B4622460021A02000F0F2FA46
:101490002A463146204610F0C9FF58B94FF47A73F6
:1014A000009340F27E43074A0021A02000F0E2FAB8
:1014B00002B070BD4FF47A722946204600F06AFBF4
:1014C000ECE700BFD08900202C3A030810B586B0A5
:1014D000002203920492CDF8132040238DF80C30A3
:1014E00002238DF817300F4C4FF40041204603F0D3
:1014F00095F80A2300939DF817300DF10F0203A908
:10150000094810F0A6FD01224FF40041204603F0E7
:1015100085F89DF90F30002B02DB002006B010BDCE
:101520000120FBE700000240DC22012070B170B412
:1015300006460446074D0FCD0FC42B682360064BAB
:10154000736140233376002070BC70474FF6FA7009
:10155000704700BF0C3A03084000002030B4054635
:1015600088B144688CB100232A7A9A420AD903EBE5
:10157000430204EB820054F822208A4203D0013354
:10158000DBB2F1E7002030BC70472046FBE70000EB
:1015900000B583B00346094A92E8030002AA02E9B3
:1015A00003003BB108226946186800F0DCF903B07B
:1015B0005DF804FB4FF0FF30F9E700BF203A030865
:1015C00070B505460221FFF7C9FF064604212846EB
:1015D000FFF7C4FF0446B3880322826013F0010FB3
:1015E00001D00222826013F0400F02D0A3680133C1
:1015F000A36007212846FFF7B1FF436823F00F03DC
:101600001B041B0C44F6D072934201D0002070BD25
:10161000A3680133A360F9E710B40446002013E087
:101620004000C0B280F007005B0853B122781A4234
:1016300014BF01220022B2EBD01FF1D14000C0B292
:10164000F2E701340139C9B209B18023EDE75DF851
:10165000044B704770B582B002460B46204903C95F
:1016600002AC04E90300002A34D01546194610469E
:10167000FFF774FF014680B3036803F03F038DF862
:101680000030426800238C68A34208DAE41A02A8FA
:10169000044404F8082C12120133DBB2F3E76E7A2B
:1016A0004EB9286896B1A2B2023292B2694600F0F1
:1016B0005AF902B070BD611CC9B26846FFF7ACFFB1
:1016C000631C02AA134403F8080CEAE7A2B2013231
:1016D00092B2EBE74FF0FF30EBE74FF0FF30E8E777
:1016E000403803080346002029B113F8012B50406D
:1016F0000139C9B2F8E7704770B584B004460A46AC
:10170000424B93E8030004AD05E903006D4685E80C
:101710000300002C70D0264611462046FFF71EFF1E
:10172000044600286BD0036803F03F0343F04003F6
:101730008DF808303068737A9BB12289023292B2F8
:1017400002A900F010F9051E53DB767A012E0CD0A9
:101750000020022E24D0002854D1002363600122EF
:1017600044E02289013292B2EAE7236803F03F03A2
:1017700043F040038DF80030334607E004AA1A44D2
:1017800012F8081C02F8101C0133DBB2A1684A1CD5
:101790009A42F3DA0231C9B26846FFF73DFFD8E753
:1017A000236803F03F0343F040038DF8003001232A
:1017B00007E004AA1A4412F8081C02F8101C0133AE
:1017C000DBB2A1684A1C9A42F3DA0231C9B2684618
:1017D000FFF788FFBFE763681B02636004A9114439
:1017E00011F8081C0B4463600132D2B2A368934223
:1017F000F1DA284604B070BD4FF0FF35F9E74FF03D
:10180000FF35F6E76FF00105F3E700BF4038030846
:10181000A8B1F8B50E46054643689BB10421FFF711
:101820009DFE074688B12846FFF7CAFE04460421FC
:101830002846FFF761FF20437B683360F8BD4FF017
:10184000FF3070474FF0FF30F8E74FF0FF30F5E71B
:10185000C8B110B504464368C3B10221FFF77EFE4C
:10186000B8B1436813F0080003D00123637200206D
:1018700010BD13F0040302D002236372F8E70022C4
:1018800062721846F4E74FF0FF3070474FF0FF30B8
:10189000EEE74FF0FF30EBE784B038B5054605AC16
:1018A00084E80E000C2007F017F80446142007F017
:1018B00013F8002C42D00A9B63609DF82C302372F1
:1018C00020602C6005A9204600F03BF8002831DBA1
:1018D0002046FFF75DFE00282CDB01212046FFF7A4
:1018E000B9FE002826DB02212046FFF7B3FE0028C0
:1018F00020DB2046FFF7ACFF00281BDB062120463B
:10190000FFF72CFE054628B94FF0FF3012E00C35EA
:1019100000E00C3555B12968302907D00729F6D0E9
:10192000C9B22046FFF796FE0028F2DA07212046CA
:10193000FFF7E2FEBDE8384004B070474FF0FF30DB
:10194000F8E751B138B504460D46CB681B68984797
:1019500030B92368EA68DA6038BD4FF0FF3070476D
:101960004FF0FF30F8E708B5C3685B68984708BDDB
:10197000114B5B78012B1BD170B506460C4608F065
:1019800073FB0E4D2860A1B208F08CFB2C68236815
:101990005E600B4B1E68FFF717FA83B2094A2146B7
:1019A000304608F0F5FC286808F06BFB002070BD9D
:1019B0004FF0FF30704700BF80030020C4030020B9
:1019C000AC890020A4890020114B5B78012B1BD12E
:1019D00070B506460C4608F047FB0E4D2860A1B2D4
:1019E00008F060FB2C6823685E600B4B1E68FFF7F5
:1019F000EEF983B2094A2146304608F0C9FC28684E
:101A000008F03FFB002070BD4FF0FF30704700BF73
:101A100080030020C8030020AC890020A489002096
:101A20002DE9F0411446104A5278012A19D107468F
:101A300088461E4608F018FB0C4D28601FFA88F1F6
:101A400008F030FB29680B685F603346224608487F
:101A5000006808F09DFC286808F013FB0020BDE832
:101A6000F0814FF0FF30FAE780030020CC03002024
:101A7000AC8900202DE9F04F87B082460F46914691
:101A80009846DDF840B000231E4605931A464FF4F1
:101A90008071194802F0C2FD3D4603E00136F6B2FE
:101AA000022E1FD807EB08039D421BD205F03F0210
:101AB000EB1BA8EB03041119402901D9C2F1400422
:101AC000A4B2CDF808B001944B44009310232A46E9
:101AD00051460A4803F05AFC05900028DED12544FF
:101AE000ADB2DDE701224FF48071034802F096FDAC
:101AF000059807B0BDE8F08F000802407C8E0020FA
:101B00002DE9F04F87B082460F4691469846DDF8A2
:101B100040B000231E4605931A464FF480711B48BF
:101B200002F07CFD3D4611E0A4B2CDF808B001946E
:101B30004B44009310232A465146154803F074FB8A
:101B4000059090B10136F6B2022E14D807EB0803C7
:101B50009D4210D205F03F02EB1BA8EB03041119C4
:101B60004029E1D9C2F14004DEE7062006F066FB19
:101B70002544ADB2E8E701224FF48071034802F03A
:101B80004DFD059807B0BDE8F08F00BF000802408A
:101B90007C8E002000B583B00B46009202460021E7
:101BA000A020FFF7ADFF03B05DF804FBF0B484B0F4
:101BB000002301930293ADF80C3010E0531E07E0B0
:101BC00004AA1A4412F80C2C303200F8012B013B05
:101BD000002BF5DA15B1202300F8013B2A46551EEB
:101BE000ADB2D2B111F8014B002301930293ADF8CD
:101BF0000C30002CF2D01A46002CDFD004AB9E181B
:101C0000074BA3FB0473DB0803EB8307A4EB470438
:101C100006F80C4CDCB20132EEE704B0F0BC7047C1
:101C2000CDCCCCCC30B4044600202070FF256570AC
:101C30006160A260E36030BC704701230B7000223A
:101C40004A704B6818809A7070474378FF2B01D018
:101C500001207047002070472DE9F8430546002712
:101C600007704078FF2870D06C6804EB80044FF058
:101C70000108FF2023E06B7801336B70C7F30E037C
:101C800024F8043F0023A370012E10D1AB682288F2
:101C900053F82220A37803EB430302EB430932F805
:101CA000137032F91330002BE5DB0026ECE7EB680C
:101CB00053F827309847FF2806D1FE20B046B8F1E8
:101CC000010F42D14646DFE7FD2805D099F8041000
:101CD00099F80500C44625E099F8021099F8030028
:101CE000F8E76B7823B9FF226A709C46984619E0A2
:101CF000013B6B70AB6834F8041D53F82110A378D6
:101D000003EB430301EB43097F2A04D099F8041045
:101D100099F8050006E099F8021099F8030001E02F
:101D2000C446B046B8F1010F0DD101F07F02A2F117
:101D30007E03DBB2012BD4D9A27011F0800FEFD15A
:101D4000B446B046EEE76646B8E7BDE8F883000063
:101D500030B595B03022002108A810F09DFB00247A
:101D60000394049405940694079401941C4B1A6CF4
:101D700042F080521A641B6C03F080530193019B64
:101D80000294184B1A6842F480421A601B6803F4EC
:101D900080430293029B092308934FF480330993F5
:101DA00001230D9302250E954FF480030F93042316
:101DB0001093A82211921295139308A801F0EEFF38
:101DC0000F230393049505944FF4A05306934FF407
:101DD00080530793052103A802F042FA15B030BDE5
:101DE000003802400070004008B502F0B7FEFFF76F
:101DF000AFFF00F031F800F01BF900F0B9FA00F085
:101E000019FF00F0F7F900F03DFF00F06BFE00F065
:101E100033FE00F0D7FE00F09DFE00F05BFF00F007
:101E200007FA0FF081FF01F045F801F05FF806F0C6
:101E300051F900F04DF906F05FF9FEE708B50268C8
:101E4000034B9A4200D008BD02F0A2FEFBE700BFA0
:101E500000000140704700002DE9F04F8DB00024D4
:101E60000794089409940A940B9401946A4B1A6B92
:101E700042F010021A631A6B02F010020192019AEA
:101E800002941A6B42F004021A631A6B02F0040205
:101E90000292029A03941A6B42F080021A631A6B40
:101EA00002F080020392039A04941A6B42F001023A
:101EB0001A631A6B02F001020492049A05941A6BD9
:101EC00042F002021A631A6B02F002020592059AAE
:101ED00006941A6B42F008021A631B6B03F00803A6
:101EE0000693069BDFF838B1224640F201115846AE
:101EF00002F094FB494F22462221384602F08EFB25
:101F0000DFF820A122464FF48041504602F086FBC4
:101F1000DFF8149122464FF40041484602F07EFB60
:101F2000DFF8088122468021404602F077FB4BF61D
:101F3000FF73079303260896099407A9504602F0F9
:101F400083FA4EF20C0307930896099407A95846A2
:101F500002F07AFA40F201130793012508950994DB
:101F60000A9407A9584602F06FFA41F679030793DD
:101F70000896099407A9484602F066FA4CF21D63D8
:101F800007930896099407A9384602F05DFA2223C0
:101F90000793089509940A9407A9384602F054FA61
:101FA0004FF480430793089509940A9407A9504673
:101FB00002F04AFA4FF67F7307930896099407A92F
:101FC000404602F041FA4FF4004307930895099404
:101FD0000A9407A9484602F037FA80230793089528
:101FE00009940A9407A9404602F02EFA4FF4807330
:101FF00007934FF444130893099407A9384602F055
:1020000023FA22460521172002F054FD172002F082
:1020100085FD0DB0BDE8F08F00380240000402409D
:10202000000802400010024000000240000C024084
:1020300010B582B000240094224B1A6B42F4800247
:102040001A631A6B02F480020092009A01941A6BD0
:1020500042F400121A631B6B03F400130193019BFB
:10206000224605210B2002F025FD0B2002F056FD33
:1020700022460521102002F01DFD102002F04EFD29
:1020800022460521392002F015FD392002F046FDD7
:10209000224605213A2002F00DFD3A2002F03EFDD5
:1020A00022460521452002F005FD452002F036FDBF
:1020B00022460521462002F0FDFC462002F02EFDBE
:1020C00002B010BD00380240704700207047000089
:1020D00038B52C4B002201212B4806F0BDF82B4BC4
:1020E00018602B4A4FF48071012006F08EFA294BBC
:1020F0001860294A4FF48071012006F086FA274BB8
:102100001860274A2021012006F07FFA254B18602D
:10211000254A50210A2006F078FA244B1860244AF8
:102120004FF48071022006F070FA224B1860224AA8
:102130000021224806F006F8214B1860214A0021B0
:10214000214805F0FFFF214B1860214A002121485A
:1021500005F0F8FF204C2060204A0021204805F0BF
:10216000F1FF204D2860204A0021204805F0EAFFB9
:102170001F4B1860286806F043F8206806F040F806
:1021800038BD00BFE040030805140208548E00204B
:10219000804003086C8E0020C8400308708E002029
:1021A00068400308688E002098400308588E00207D
:1021B000B0400308608E00204440030875110208F7
:1021C000788E0020FC3F0308FD110208748E002069
:1021D0002040030829120208508E0020F040030816
:1021E000910E0208648E0020144103084510020875
:1021F0005C8E002008B50B480B4B03600B4B436013
:1022000000238360C3604FF48042026143618361B5
:10221000C361036202F02AFF00B908BDFFF71AFE8E
:10222000FBE700BFD08E002000540040A0860100D4
:1022300008B50B480B4B03600B4B436000238360D6
:10224000C3604FF48042026143618361C3610362F2
:1022500002F00CFF00B908BDFFF7FCFDFBE700BF73
:102260007C8E0020005C0040A08601002DE9F0413A
:102270008AB0002305930693079308930993036894
:10228000354A934205D0354A934227D00AB0BDE87B
:10229000F08100250095324C236B43F00203236349
:1022A000236B03F002030093009BC02305931223CA
:1022B000069301230793032308930423099305A995
:1022C000284802F0C1F80195236C43F400132364FD
:1022D000236C03F400130193019BD7E700250295BB
:1022E0001F4C236B43F004032363236B03F00403AD
:1022F0000293029B0395236B43F001032363236B3B
:1023000003F001030393039B4FF4007305934FF015
:102310001208CDF818800795032708970426099618
:1023200005A9114802F090F84FF480730593CDF899
:10233000188007950897099605A90C4802F084F8BB
:102340000495236C43F400032364236C03F400031B
:102350000493049B9AE700BF00540040005C0040D7
:102360000038024000040240000802400000024021
:1023700008B50748074B03600623436040F2E24379
:10238000836003F075F900B908BDFFF763FDFBE753
:10239000248F002000300040F0B585B04C4FC021A4
:1023A0003970A8227A700024BC701723FB70494E44
:1023B000FF2333707370B370F470474D29706A70E7
:1023C000AC700123EB702146204606F0B1FE3A784E
:1023D0007B781B0443EA0263BA7843EA0223F97864
:1023E0000B431A0202F47F0242EA0162190A01F465
:1023F0007F410A4342EA136338490B6032787378AD
:102400001B0443EA0263B27843EA0223F0780343F1
:102410001A0202F47F0242EA0062180A00F47F40C6
:10242000024342EA13632E4A136028786B781B0438
:1024300043EA0063A87843EA0023ED782B431802AF
:1024400000F47F0040EA05601D0A05F47F4528433B
:1024500040EA1360234B1860234D2448029024481F
:102460000190009428460DF071FE28460DF000FF03
:1024700095F8313013F0040F26D028460DF0FEFEFB
:10248000194D1C4928460DF083FF00220121084602
:1024900005F0ECFF184B1860184C25606060184D73
:1024A0002022002128460FF0F7FF2A1F154B45F880
:1024B000043C4FF48063536110239361214612481A
:1024C00005F040FE05B0F0BD07480DF0F9FED7E776
:1024D000A08F00209C8F0020388F0020988F002034
:1024E000A48F0020A88F0020608F00208D9002080C
:1024F00011290208B1290208D0030020308F0020E2
:10250000408F002038410308612902082DE9F04777
:10251000334801F031F900285ED1314B998FD3F85F
:10252000408079B94FF0000A2D4B1B6B00212C4ADB
:10253000926B8A423BD91A6842F000421A60DB680B
:102540000131F4E74FF4C1720DF0D4FA824600284D
:10255000EAD0234B1F6B8146002421E0D9F8040008
:10256000C4F5BE62043208EB040130440FF06CFF86
:10257000FF68D7F80880A5F2F452361B06F2F4562D
:102580000024A51840F2F4539D42E7D8D9F804007E
:1025900008EB040130440FF057FFD9F800902C46A7
:1025A000B9F1000FC0D0B9F80A200026E9E70C4BBA
:1025B00000229A631B6841F214029A5812F0800FAD
:1025C00007D041F214028021995041F20802002103
:1025D00099505046BDE8F0874FF0000AF9E700BF78
:1025E0007CA8002038B505464FF0FF310E4B186827
:1025F00005F096FF0028F7D107E020460DF012FA0B
:102600000A480FF062FB002CEED008480FF056FB92
:102610002846FFF77BFF04460028F1D02B692946A6
:1026200098470028ECD0E8E7D403002020C500201C
:102630002DE9F84F8B462C4BDE6AD6F808A0002413
:102640002746BBF1000F32D03368002B35DBBBF8D7
:102650000A90002504EB090840F2F453984519D973
:10266000DBF80410C4F5BE62043229440AEB04000E
:102670000FF0EAFEF6683368002B21DBD6F808A0DD
:10268000A8F2F4592D1B05F2F4553F1B07F2F4573D
:102690000024DFE7DBF804104A4629440AEB040073
:1026A0000FF0D2FE4F44DBF800B04446C9E739468C
:1026B0000D4800F0D1FF002004E06FF0070001E0BA
:1026C0006FF00700084B1B6841F214029A5812F091
:1026D000200F07D041F214022021995041F2040248
:1026E00000219950BDE8F88F7CA8002030B58DB04E
:1026F00004463A483A4B0360012242604FF480435B
:1027000083604FF40063C360002303828DF80430BC
:1027100080218DF80510E1218DF806108DF8073025
:102720008DF808308DF8093001A941618261C361DB
:102730004FF40003036201F029F928B994F831300D
:1027400043F0040384F83130244D0423254A2649FC
:10275000284600F00FFF0423244A2549284600F0AC
:1027600043FF062384F830306B691A7884F82A20F6
:102770005A7884F82B209A7884F82C20DA7884F818
:102780002D201A7984F82E205B7984F82F3040F2BE
:10279000DC53238594F8313043F00A0384F8313058
:1027A00000220121084605F061FE124B186020222C
:1027B000002104A80FF070FE0F4B03934FF4AF738A
:1027C00008933023099303AA21460C4805F0BAFC6C
:1027D000284601F007FA0DB030BD00BF7CA80020EC
:1027E00000800240C4A80020AC8F00202C90002064
:1027F000FCA70020D403002040410308E52502087F
:10280000F0B58DB000230793089309930A930B93B7
:102810000268374B9A4201D00DB0F0BD00240194FC
:10282000A3F590431A6B42F000721A631A6B02F020
:1028300000720192019A02941A6B42F080621A634C
:102840001A6B02F080620292029A03941A6B42F0B1
:1028500000621A631A6B02F000620392039A0494F6
:102860001A6B42F004021A631A6B02F0040204921B
:10287000049A05941A6B42F001021A631A6B02F073
:1028800001020592059A06941A6B42F002021A633D
:102890001B6B03F002030693069B32230793022768
:1028A0000897099403260A960B250B9507A911484A
:1028B00001F0CAFD86230793089709940A960B95A1
:1028C00007A90D4801F0C0FD4FF460530793089726
:1028D00009940A960B9507A9084801F0B5FD224610
:1028E00005213D2002F0E6F83D2002F017F993E7BC
:1028F0000080024000080240000002400004024044
:1029000008B5024B186805F03FFE08BDD40300204F
:1029100010B5044670B1732384F83230742384F800
:102920003330084B6361084BA3612046FFF7DEFE9E
:10293000002010BD054B40F225220549054810F046
:102940004BF9E8E7650F0308312602084841030800
:102950005C4103086C41030808B502F025F908BD85
:1029600010B582B004460023019306E012F0040F74
:1029700000D0B3B1C82005F061FC01AA01210A48CA
:1029800000F08EFF019B03F004030193206890F890
:10299000312012F0040FE9D1002BE7D00DF0B6FC86
:1029A000E8E70DF0D7FCE5E77CA8002070470000C1
:1029B00030B583B0044600230193009390F8313082
:1029C00013F0040F51D02B4B5B68002B35D04FF424
:1029D00080520021274800F09FFF02F0E5F80190A7
:1029E0006A460121234800F05BFF02F0DDF8019BFD
:1029F000C31AB3F57A7F20D8009B13F0200FEFD0D5
:102A00006A4610211B4800F04BFF009B13F0040F97
:102A10000AD0184A4FF40061D16013F0020F07D0BA
:102A2000144B00229A6013E0124A0021D160F4E7AF
:102A3000104B4FF480429A600AE00E48C268C2F31D
:102A4000CF028368C3F34F031A43002100F064FFF1
:102A5000084D0021284601F009F9284601F0C2F886
:102A60002046FFF7A3FF03B030BD024801F0DCF8B9
:102A7000F6E700BF7CA8002000B587B000230293D2
:102A80000393049305930093019315484FF08042FC
:102A9000026053224260836040F2E732C260036109
:102AA000836102F0AFFF90B94FF48053029302A903
:102AB0000B4802F0DFFF68B90023009301936946D9
:102AC000074803F057F840B907B05DF804FBFFF77B
:102AD000C1F9E9E7FFF7BEF9EEE7FFF7BBF9F3E766
:102AE000FCC1002000B587B0002302930393049338
:102AF0000593009301931548154A026048F23F324E
:102B0000426083604FF6FE72C2600361836102F02F
:102B100079FF90B94FF48053029302A90B4802F059
:102B2000A9FF68B90023009301936946074803F0A1
:102B300021F840B907B05DF804FBFFF78BF9E9E72E
:102B4000FFF788F9EEE7FFF785F9F3E76CC100209E
:102B50000004004000B587B0002302930393049360
:102B60000593009301931548154A026048F23F32DD
:102B7000426083604FF6FE72C2600361836102F0BF
:102B800041FF90B94FF48053029302A90B4802F021
:102B900071FF68B90023009301936946074802F06A
:102BA000E9FF40B907B05DF804FBFFF753F9E9E727
:102BB000FFF750F9EEE7FFF74DF9F3E7DCC000202F
:102BC0000008004000B587B00023029303930493EC
:102BD0000593009301931548154A026045F20722B8
:102BE0004260836040F69F72C2600361836102F0BD
:102BF00009FF90B94FF48053029302A90B4802F0E9
:102C000039FF68B90023009301936946074802F031
:102C1000B1FF40B907B05DF804FBFFF71BF9E9E726
:102C2000FFF718F9EEE7FFF715F9F3E724C10020E5
:102C3000000C004000B583B00023009301930F48BF
:102C40000F4A02605322426083603123C3608023B5
:102C5000836102F0D7FE50B90023009301936946C7
:102C6000064802F087FF28B903B05DF804FBFFF7C0
:102C7000F1F8F1E7FFF7EEF8F6E700BFB4C1002086
:102C80000010004000B583B00023009301930F486B
:102C90000F4A026048F23F32426083604FF6FE7294
:102CA000C260836102F0AEFE50B90023009301932D
:102CB0006946064802F05EFF28B903B05DF804FBE0
:102CC000FFF7C8F8F1E7FFF7C5F8F6E744C20020C0
:102CD0000014004000B587B00023029303930493CF
:102CE0000593009301931648164A026048F23F325A
:102CF000426083604FF6FE72C2600361436183618C
:102D000002F080FE90B94FF48053029302A90C4860
:102D100002F0B0FE68B900230093019369460848A9
:102D200002F028FF40B907B05DF804FBFFF792F806
:102D3000E9E7FFF78FF8EEE7FFF78CF8F3E700BF5E
:102D400094C000200004014000B589B00368B3F1CD
:102D5000804F14D0504A934226D0504A934237D0E5
:102D60004F4A934248D04F4A934259D04E4A9342D9
:102D70006AD04E4A93427BD009B05DF804FB002232
:102D8000019203F50E33196C41F0010119641B6CBB
:102D900003F001030193019B05211C2001F08AFE31
:102DA0001C2001F0BBFEE7E700220292404B196CA9
:102DB00041F0020119641B6C03F002030293029BB1
:102DC00005211D2001F076FE1D2001F0A7FED3E7AE
:102DD00000220392364B196C41F0040119641B6CFC
:102DE00003F004030393039B05211E2001F062FE00
:102DF0001E2001F093FEBFE7002204922C4B196CB9
:102E000041F0080119641B6C03F008030493049B50
:102E10000521322001F04EFE322001F07FFEABE7AB
:102E200000220592224B196C41F0100119641B6CB1
:102E300003F010030593059B0521362001F03AFEAF
:102E4000362001F06BFE97E700220692184B196CB2
:102E500041F0200119641B6C03F020030693069BCC
:102E60000521372001F026FE372001F057FE83E7C9
:102E7000002207920E4B596C41F0020159645B6CC1
:102E800003F002030793079B05212E2001F012FE99
:102E90002E2001F043FE6FE70004004000080040D0
:102EA000000C0040001000400014004000040140ED
:102EB0000038024008B50A480A4B03600A4B4360D9
:102EC00000238360C36003610C2242618361C3619C
:102ED00002F082FF00B908BDFEF7BCFFFBE700BFB0
:102EE0000CC40020001001400094110008B50A48ED
:102EF0000A4B03600A4B436000238360C360036195
:102F00000C2242618361C36102F066FF00B908BD13
:102F1000FEF7A0FFFBE700BF50C4002000140140F3
:102F2000D0DD060030B58BB0044600230593069330
:102F30000793089309930368644A934204D0644A50
:102F4000934262D00BB030BD00250195614B5A6CA5
:102F500042F010025A645A6C02F010020192019A77
:102F600002951A6B42F001021A631B6B03F0010316
:102F70000293029B4FF4C0630593022306930795C7
:102F8000032308930723099305A9534801F05CFA2A
:102F90005248534B03604FF0006343608560C56047
:102FA0004FF48063036145618561C56105624562D7
:102FB00001F0BCFB18BB494BA3639C6349484A4BD7
:102FC00003604FF000634360402383600023C360CD
:102FD0004FF48062026143618361C36103624362B3
:102FE00001F0A4FB70B93F4B63639C630022052191
:102FF000252001F05FFD252001F090FDA2E7FEF7FE
:1030000029FFD8E7FEF726FFEDE700250395314BB2
:103010005A6C42F020025A645A6C02F02002039269
:10302000039A04951A6B42F004021A631B6B03F0B7
:1030300004030493049BC02305930223069307957E
:10304000032308930823099305A9284801F0FCF9F4
:103050002748284B03604FF0206343608560C560BC
:103060004FF48063036145618561C5610562456216
:1030700001F05CFB18BB1E4BA3639C631E481F4BF7
:1030800003604FF020634360402383600023C360EC
:103090004FF48062026143618361C36103624362F2
:1030A00001F044FB70B9144B63639C63002205215B
:1030B000472001F0FFFC472001F030FD42E7FEF71A
:1030C000C9FED8E7FEF7C6FEEDE700BF00100140DD
:1030D000001401400038024000000240ACC3002050
:1030E00040640240ECC20020B86402400008024084
:1030F0008CC20020286402404CC30020A06402401F
:103100007047FEE7FEE7FEE7FEE7704708B50248B6
:1031100001F0D0FB08BD00BF9423012008B5024890
:1031200001F0C8FB08BD00BF3423012008B54FF4EF
:10313000807001F083FA08BD08B5024802F040FB38
:1031400008BD00BF94C4002008B5024802F038FB57
:1031500008BD00BFFCC1002008B5024802F030FBEA
:1031600008BD00BF6CC1002008B5024802F028FB72
:1031700008BD00BFDCC0002008B5024802F0E6FE32
:1031800008BD00BF0CC4002008B5024802F018FBBF
:1031900008BD00BF94C0002008B5024802F010FB33
:1031A00008BD00BF24C1002008B5024802F008FB9A
:1031B00008BD00BFB4C1002008B5024802F000FB02
:1031C00008BD00BF44C2002008B5024801F072FBF0
:1031D00008BD00BF8CC2002008B5024801F06AFBA0
:1031E00008BD00BFACC3002008B5024800F012FBC8
:1031F00008BD00BF7CA8002008B5024801F05AFBBA
:1032000008BD00BF4CC3002008B5024801F052FBC6
:1032100008BD00BFECC2002008B5024802F096FECF
:1032200008BD00BF50C4002000B583B0002200924A
:103230000D4B596C41F480415964596C01F4804143
:10324000009100990192196C41F0805119641B6C36
:1032500003F080530193019B0F216FF0010001F0F7
:1032600029FC03B05DF804FB0038024010B588B0BB
:1032700001460022192001F01DFC192001F04EFC2E
:1032800000240194144B5A6C42F001025A645B6CA6
:1032900003F001030193019B02A903A801F0B6F812
:1032A00001F0A4F843000D48A0FB03239B0C013B55
:1032B0000B480C4A026040F2E732C260436004618E
:1032C000846002F09FFB10B1012008B010BD0448DB
:1032D00002F02EFAF9E700BF0038024083DE1B43FC
:1032E00094C40020000001405079137943EA002380
:1032F00007480B50D07893781B0443EA006350785A
:1033000043EA002312781343024A8B50704700BFF0
:103310004080024044800240016841F218028B580C
:1033200043F400538B507047016841F218028B58E8
:1033300023F400538B507047016841F218028B58F8
:1033400043F002038B507047016841F218028B581A
:1033500023F002038B50704782B0084B1B68084A69
:10336000A2FB03235B0A00FB03F3019300BF019B55
:103370005A1E0192002BF9D102B07047EC020020D6
:10338000D34D621010B582B0044600230193026849
:10339000136843F00803136003681B68019301205E
:1033A000FFF7DAFF2368019A1A6002B010BD10B56A
:1033B00082B00446002301930268136843F00403BB
:1033C000136003681B6801930120FFF7C5FF2368A2
:1033D000019A1A6002B010BD30B583B004460023D4
:1033E0000193026841F21805535943F48013535175
:1033F00003685B5901930120FFF7AEFF2368019A30
:103400005A5103B030BD10B582B004460023019379
:103410000268136823F00403136003681B680193B8
:103420000120FFF799FF2368019A1A6002B010BDCE
:1034300010B582B00446002301930268136823F09C
:103440000803136003681B6801930120FFF784FFE2
:103450002368019A1A6002B010BD000070B59EB0DA
:10346000044629B14FF40063C3604FF48043836086
:10347000E369002B6AD14FF48063079321680B68DE
:10348000394A1A40A368E06803430798034343F4AA
:10349000007313430B6023681D68012001F08AFB51
:1034A00023681D60236840225A6023685D680120FC
:1034B00001F080FB23685D60236800259D60236820
:1034C000DD602268936923F0BE031B041B0C43F0EC
:1034D0008003936123689E69012001F06BFB2368E0
:1034E0009E612368DD612368DD69012001F062FBD4
:1034F0002368DD61226841F2180551591B4B0B40CE
:1035000043F0087343F00403535123685E590120CC
:1035100001F050FB23685E51236803F58053144A81
:103520001A60236803F580531D68012001F042FBF7
:10353000236803F580531D60A369012B09D06269DC
:1035400000212046FFF7D0FE1EB070BD0023079378
:1035500094E7216841F21C028B5843F4803343F016
:1035600040038B50EBE700BF0F8120FF233FDEF8C5
:103570008020C102F0B490F84540012C32D00124E3
:1035800080F84540022480F84440C162002401E0F4
:10359000F16001349C4218D2670101EB44164FF4EC
:1035A0008015CD5140F2F45505FB0425B560C56981
:1035B0001DB9CD5945F44005CD515D1EA542E7D951
:1035C000651C01EB4515F560E3E7026841F2100365
:1035D000D150012380F84430002380F8453018464C
:1035E000F0BC70470220FBE7F0B490F84540012C96
:1035F0002FD0012480F84540022480F844408162A5
:10360000002401E0E96001349C4215D2660101EB1F
:1036100044154FF000478F5144F2F4566E6040F26B
:10362000F45606FB0426AE605E1EA642EAD9661C6E
:1036300001EB4616EE60E6E7026841F20C03D1505A
:10364000012380F84430002380F845301846F0BC50
:1036500070470220FBE7000090F84530012B00F096
:103660008580012380F84530022380F84430B1B1D1
:10367000C36A1A68002A1ADB30B440F2F45291424D
:103680001DD93B4CA4FB0124A40A40F2F45202FBD6
:10369000141202B10134012C11D0002348E001239F
:1036A00080F84430002280F84520184670471223E5
:1036B00080F84430002380F84530012070471A68B4
:1036C00042F040521A60C36AC1F30C015960C26AE9
:1036D000136843F000431360C36ADB68C362036886
:1036E00041F214029A5812F0040F08D041F2140269
:1036F00004219950026841F204030021D1500123B2
:1037000080F84430002380F84530184630BC7047BC
:10371000C26A40F2F4555560621E9A4217D0C56ADB
:103720002A6842F000422A60C26AD268C26201334B
:103730009C42D4D9C56A2A6822F040522A60002BE4
:10374000E6D1C56A2A6842F080522A60E0E7C56A7D
:103750002A6842F000522A60064A02FB041202F272
:10376000F452C56AC2F30C026A60D8E702207047BF
:103770000BB002AC0CFAFFFF90F84530012B45D09E
:10378000012380F84530022380F84430002104E012
:10379000036301228263DB688362836A1A68002AFA
:1037A0002CDB03292AD801311A6802F44072B2F5E1
:1037B000007FEDD01A6812F4407F05D1826B013290
:1037C0008263DB688362E8E74363826B0132826372
:1037D000012A11D01A68C2F30D42043AC263026B87
:1037E00092680264DB688362012380F8443000231E
:1037F00080F84530184670470363EBE7012380F8F3
:103800004430002280F84520184670470220704757
:103810007047704710B50446036841F214029A5885
:1038200012F0400F11D141F214029B5813F0010F16
:1038300019D1226841F214034FF48031D15022682B
:10384000D35813F4004F1BD110BDFFF759F822686D
:1038500041F214034021D150012384F84430002365
:1038600084F84530E5E7FFF7D3FF2168012341F2F3
:1038700014028B5084F84430002384F84530D8E794
:103880002046FFF7C6FF226841F214034FF40041BF
:10389000D150012384F84430002384F84530D3E725
:1038A000F8B590F84430DBB2822B33D0054616468B
:1038B000822380F844300068026902F01C022B8ADF
:1038C000DB029BB213438C0104F4F8641C4344F004
:1038D0000104046101F068F9074614F0010F10D0EB
:1038E00001F062F9C31BB3F5803F02D22B681C695B
:1038F000F3E7012385F84430002385F845300320A1
:1039000007E02B685B699BB23360012385F8443084
:103910000020F8BD0220FCE790F84430DBB2422BD7
:1039200032D070B50546422380F8443006683069CD
:1039300000F01C002B8ADB029BB203438C0104F4D1
:10394000F8641C4344F0030492B272612B681C615A
:1039500001F02AF9064614F0010F10D001F024F905
:10396000831BB3F5803F02D22B681C69F3E7012368
:1039700085F84430002385F84530032003E0012317
:1039800085F84430002070BD0220704770B582B0C9
:1039900000230193002800F00E81044690F8443083
:1039A000002B34D000230093844B5A6C42F48042A5
:1039B0005A645B6C03F480430093009B804B5A680D
:1039C00022F400025A605A68216A0A435A60236846
:1039D00003F580531A6842F001021A6001F0E4F81E
:1039E0000546236803F58052126812F0010F13D0C8
:1039F00001F0DAF8401BB0F5FA7FF2D9032584F81C
:103A00004450002384F84530284602B070BD80F849
:103A10004530FEF7F5FEC5E71D6925F01C0500F0F1
:103A2000CFFC684B0344684A934255D245F00805E1
:103A300023681D614FF4004200212046FFF76CFF10
:103A40000546002860D1FF2001F0B4F86368002B20
:103A500000F0918001F0A8F8064601AA0121204655
:103A6000FFF71EFF01F0A0F8801B41F28833984257
:103A700052D8019B13F0040FEFD04FF48052002175
:103A80002046FFF749FF002852D101F08DF8064685
:103A900001AA01212046FFF703FF01F085F8801BF2
:103AA00041F2883398424BD8019B13F0200FEFD09E
:103AB00001AA10212046FFF7F3FE00284CD1019BFC
:103AC00013F0040F50D04FF40062E26013F0020FC5
:103AD0004DD00023A3605EE03C4B03443C4A93423C
:103AE00002D845F00C05A3E73A4B03443A4A934207
:103AF0009ED33A4B03443A4A934202D845F0040518
:103B000096E745F0100593E701212046FFF7A6FC54
:103B1000012584F8445077E701212046FFF79EFCF9
:103B2000012384F84430002384F8453003256BE7F3
:103B300001212046FFF792FC012584F8445063E7F9
:103B400001212046FFF78AFC012384F8443000233A
:103B500084F84530032557E701212046FFF77EFC16
:103B6000012584F844504FE70022E260AEE74FF4AD
:103B70008043A3600FE0E268C2F3CF02A368C3F3FF
:103B80004F031A4300212046FFF7C6FE58B940F6FE
:103B9000FF7001F00FF800212046FFF75FFC0123C2
:103BA00084F8443030E701212046FFF757FC012517
:103BB00084F8445028E7012526E700BF003802407A
:103BC0000038014000D3CEFEC0E1E40040F1E9FD41
:103BD0003F787D0100796CFC005A6202001F0AFAEE
:103BE0007FF0FA0238B590F84530012B1AD0044620
:103BF000012580F84550022380F84430FFF7C2FBCE
:103C00002046FFF7D4FB2046FFF7E6FB2046FFF7F0
:103C100083FB2046FFF790FB84F84450002084F893
:103C2000450038BD0220FCE738B590F84530012B3F
:103C30001AD00446012580F84550022380F844300C
:103C4000FFF772FB2046FFF77FFB2046FFF7DBFB09
:103C50002046FFF7C1FB2046FFF7EAFB84F84450FB
:103C6000002084F8450038BD0220FCE790F845307C
:103C7000012B00F08E8070B505460C46012380F8BC
:103C80004530022380F84430002971D0026813685F
:103C900041491940236860680343A0680343E06812
:103CA0000343A86803432069034360690343E8684A
:103CB0000343A0690343E0690343206A0343606A46
:103CC0000343A06A03430B4313602B681E68012063
:103CD00000F070FF2B681E60E36A226B1343626B77
:103CE0001343A26B1343E26B1343226C1343626CC6
:103CF0001343A16C2A680B4353602B685E68012054
:103D000000F058FF2B685E602B68E26C9A602B68AD
:103D1000226DDA6029688A6922F0BE021204120C50
:103D2000606DA36D43EA0043E06D0343206E0343DF
:103D3000606E0343A06E034313438B612B689E693F
:103D4000012000F037FF2B689E61E36E216F2A6827
:103D50000B43D3612B68DC69012000F02BFF2B683B
:103D6000DC61012385F84430002085F8450070BDF2
:103D700001680A6822F490428368C06803431343D1
:103D80000B602B681C68012000F014FF2B681C607E
:103D9000E7E70220704700BF0F8120FF002800F0F6
:103DA000DF8170B582B00446036813F0010F3BD089
:103DB000A64B9B6803F00C03042B2CD0A34B9B68F1
:103DC00003F00C03082B21D06368B3F5803F4FD07C
:103DD000B3F5A02F52D09D4B1A6822F480321A609E
:103DE0001A6822F480221A606368002B50D000F019
:103DF000DBFE0546954B1B6813F4003F14D100F021
:103E0000D3FE401B6428F5D90320B0E18F4B5B68DB
:103E100013F4800FD8D08D4B1B6813F4003F03D0F0
:103E20006368002B00F09E81236813F0020F54D0CA
:103E3000864B9B6813F00C0F3ED0844B9B6803F0BD
:103E40000C03082B33D0E368002B67D0804B012292
:103E50001A6000F0A9FE05467C4B1B6813F0020FA8
:103E600053D100F0A1FE401B0228F5D903207EE1CA
:103E7000764A136843F480331360B5E7734B1A68CE
:103E800042F480221A601A6842F480321A60ABE76A
:103E900000F08AFE05466D4B1B6813F4003FC3D04B
:103EA00000F082FE401B6428F5D903205FE1674BD8
:103EB0005B6813F4800FC6D1644B1B6813F0020FCC
:103EC00003D0E368012B40F04F81604A136823F070
:103ED000F803216943EAC1031360236813F0080F54
:103EE00040D0636963B35B4B01221A6000F05CFE53
:103EF0000546564B5B6F13F0020F33D100F054FEB2
:103F0000401B0228F5D9032031E1504A136823F001
:103F1000F803216943EAC1031360DEE74C4B00223A
:103F20001A6000F041FE0546484B1B6813F0020F73
:103F3000D3D000F039FE401B0228F5D9032016E14A
:103F4000444B00221A6000F02FFE05463F4B5B6F8A
:103F500013F0020F06D000F027FE401B0228F5D90F
:103F6000032004E1236813F0040F78D0374B1B6C57
:103F700013F0805F0DD100230193344B1A6C42F093
:103F800080521A641B6C03F080530193019B01253E
:103F900000E00025304B1B6813F4807F21D0A3681C
:103FA000012B32D0052B36D0284B1A6F22F001029C
:103FB0001A671A6F22F004021A67A368002B34D024
:103FC00000F0F2FD0646214B1B6F13F0020F45D1A6
:103FD00000F0EAFD801B41F288339842F3D90320B8
:103FE000C5E01D4A136843F48073136000F0DCFDE4
:103FF0000646194B1B6813F4807FD0D100F0D4FD26
:10400000801B0228F5D90320B1E0104A136F43F05A
:1040100001031367D1E70D4B1A6F42F004021A67D0
:104020001A6F42F001021A67C7E700F0BDFD0646AD
:10403000064B1B6F13F0020F10D000F0B5FD801B74
:1040400041F288339842F3D9032090E000380240CF
:1040500000004742800E474200700040EDB9A3695E
:10406000002B00F08380494A926802F00C02082A73
:1040700051D0022B17D0464B00221A6000F094FD5D
:104080000446424B1B6813F0007F42D000F08CFDC9
:10409000001B0228F5D9032069E03C4A136C23F089
:1040A00080531364DBE73A4B00221A6000F07CFD7A
:1040B0000546364B1B6813F0007F06D000F074FDF8
:1040C000401B0228F5D9032051E0E369226A13431B
:1040D000626A43EA8213A26A5208013A43EA02433F
:1040E000E26A43EA0263294A5360294B01221A60BB
:1040F00000F05AFD0446254B1B6813F0007F06D1E3
:1041000000F052FD001B0228F5D903202FE000200B
:104110002DE000202BE0012B2BD01C4B5B6803F41F
:104120008001E269914226D103F03F02216A8A426E
:1041300023D1616A47F6C0721A40B2EB811F1ED1CB
:1041400003F44031A26A5208013AB1EB024F18D190
:1041500003F07063E26AB3EB026F14D1002006E053
:1041600001207047012002E0012000E0002002B0A1
:1041700070BD0120FBE70120F9E70120F7E70120EE
:10418000F5E70120F3E70120F1E700BF0038024026
:1041900060004742F8B52F4B9B6803F00C03042BDB
:1041A00053D0082B53D12B4B5A6802F03F025B6867
:1041B00013F4800F28D0274B5B68C3F38813580192
:1041C0000021C01A61F100018E0146EA9066870164
:1041D0003C1A66EB0105E90041EA5471E000C018A1
:1041E00041F100014B0243EAD053440220461946F4
:1041F0000023FCF74BFB174B5B68C3F30143013310
:104200005B00B0FBF3F023E0124B5B68C3F3881351
:104210005C010025E41A65F10005AE0146EA9466EA
:10422000A701381B66EB0501CC0044EA5074C500B9
:10423000E81844F100018B0243EA905384022046BF
:1042400019460023FCF722FBD5E7034800E00348AA
:10425000F8BD00BF0038024000127A000024F400CC
:10426000002800F09B8070B50D4604464F4B1B683C
:1042700003F007038B4208D2CBB24C4A1370136889
:1042800003F007038B4240F08B80236813F0020F8A
:1042900017D013F0040F04D0454A936843F4E05359
:1042A0009360236813F0080F04D0414A936843F4E5
:1042B000604393603E4A936823F0F003A1680B4388
:1042C0009360236813F0010F32D06368012B21D073
:1042D0009A1E012A25D9364A126812F0020F61D0BF
:1042E00033498A6822F0030213438B6000F05CFCC0
:1042F00006462F4B9B6803F00C036268B3EB820FFA
:1043000016D000F051FC801B41F288339842F0D95E
:10431000032042E0264A126812F4003FE0D1012057
:104320003BE0234A126812F0007FD9D1012034E02B
:104330001E4B1B6803F00703AB4207D9EAB21B4BC5
:104340001A701B6803F00703AB422DD1236813F0EA
:10435000040F06D0164A936823F4E053E1680B4338
:104360009360236813F0080F07D0114A936823F471
:104370006043216943EAC1039360FFF70BFF0C4BD5
:104380009B68C3F303130B4AD35CD8400A4B1860F5
:104390000A4B1868FEF76AFF002070BD01207047C5
:1043A0000120FAE70120F8E70120F6E7003C02408F
:1043B000003802409C410308EC020020E802002083
:1043C000014B1868704700BFEC02002008B5FFF7EA
:1043D000F7FF044B9B68C3F38223034AD35CD840A6
:1043E00008BD00BF00380240AC41030808B5FFF724
:1043F000E7FF044B9B68C3F34233034AD35CD840C6
:1044000008BD00BF00380240AC4103080F23036021
:104410000B4B9A6802F0030242609A6802F0F002C5
:1044200082609A6802F4E052C2609B68DB0803F481
:10443000E0530361034B1B6803F007030B607047F5
:1044400000380240003C024000230F2B00F2DD80C8
:10445000F0B482B05DE086685F000324BC4026EAC9
:104460000406CC68BC4034438460466826EA0206F1
:104470004C68C4F300129A403243426057E0DC08B3
:10448000083450F8247003F0070296000F22B2405F
:1044900027EA02070A69B2403A4340F824205AE06A
:1044A000072200E00022B2403A430234574E46F859
:1044B0002420574A1468EA4324EA05064F6817F493
:1044C000803F01D045EA0406514C2660646802EA48
:1044D00004064F6817F4003F01D045EA04064C4C2F
:1044E0006660A46802EA04064F6817F4801F01D0D2
:1044F00045EA0406464CA660E46822404E6816F47D
:10450000001F01D045EA0402414CE26001330F2B49
:1045100078D801229A400C6804EA020532EA0404C1
:10452000F4D14C6804F00304013C012C93D94A688F
:1045300002F00302032A09D0C4685E000322B240DD
:1045400024EA02048A68B2402243C2604A6802F048
:104550000302022A93D004685E000322B24024EAD8
:1045600002044A6802F00302B240224302604A6831
:1045700012F4403FCAD000220192264A546C44F4FF
:1045800080445464526C02F480420192019A9C0867
:10459000A61C1E4A52F8267003F0030296000F2252
:1045A000B24027EA02071C4A90423FF47BAF02F573
:1045B000806290421AD002F58062904218D002F5D3
:1045C0008062904216D002F58062904214D002F5CB
:1045D0008062904212D002F58062904210D002F5C3
:1045E000806290423FF45CAF08225CE701225AE708
:1045F000022258E7032256E7042254E7052252E735
:10460000062250E702B0F0BC704770470038014006
:10461000003C014000380240000002400AB18161C4
:104620007047090481617047436901EA030221EA86
:10463000030141EA024181617047704708B5054BAB
:104640005B69034200D108BD024B5861FFF7F5FFDB
:10465000F9E700BF003C014010B40368D9B210393B
:104660000C4AA2FB014212090B4CA25CC2655F29F5
:1046700009D923F47F7323F0030304338365806D2A
:104680005DF8044B704723F47F7323F003038365C5
:10469000F5E700BFABAAAAAA94410308836A82691E
:1046A00092B9012B0AD0022B02D00BB10020704727
:1046B000C36A13F0807F28D100207047C36AB3F12A
:1046C000C07F24D000207047B2F5005F09D0022BD4
:1046D00025D9032B25D1C36A13F0807F23D1002075
:1046E0007047032B03D8DFE803F01404140A0020FA
:1046F0007047C36A13F0807F0DD100207047C36AF2
:10470000B3F1C07F09D0002070470120704701201D
:104710007047012070470120704701207047012039
:1047200070470020704701207047000070B50446B4
:1047300000F03AFA002C5BD00546022384F83530AD
:10474000002384F834302268136823F001031360D7
:1047500023681A6812F0010F0AD000F025FA431BF3
:10476000052BF5D920236365032084F8350070BD3F
:104770001A68204810406168A2680A43E1680A4349
:1047800021690A4361690A43A1690A43E1690A434D
:10479000216A0A430243616A04291ED01A6026680E
:1047A000756925F00705636A1D43042B07D1A36AC9
:1047B0001D43E36A1BB12046FFF770FF90B9756196
:1047C0002046FFF749FFE26D3F23934083600020BE
:1047D0006065012384F83530C9E7E16A206B014345
:1047E0000A43DBE740236365012084F83500BEE718
:1047F0000120BCE73F8010F070B50446866D00F0E4
:10480000D3F994F83530DBB2022B06D080236365F0
:10481000002384F83430012070BD054622681368F7
:1048200023F0160313602268536923F08003536159
:10483000236CE3B12268136823F008031360226835
:10484000136823F00103136023681B6813F0010F42
:1048500011D000F0A9F9431B052BF5D9202363657E
:10486000032084F83500002384F83430D4E7A36CA7
:10487000002BDFD1E3E7E26D3F239340B3600123D8
:1048800084F83530002084F83400C5E790F83530DE
:10489000DBB2022B03D08023436501207047052340
:1048A00080F835300268136823F00103136000209C
:1048B00070470000F0B583B0044600230193724BAB
:1048C0001D68724BA3FB0535AD0A876D3E68C26D4E
:1048D00008239340334210D003681A6812F0040F83
:1048E0000BD01A6822F004021A60C26D08239340AC
:1048F000BB60436D43F001034365E26D01239340C8
:10490000334209D02268526912F0800F04D0BB6094
:10491000636D43F002036365E26D04239340334209
:1049200009D02268126812F0020F04D0BB60636DD8
:1049300043F004036365E26D10239340334224D0B7
:104940002268126812F0080F1FD0BB6023681A6833
:1049500012F4802F0DD01B6813F4002F04D1236CA8
:104960009BB12046984710E0A36C73B1204698474E
:104970000BE01A6812F4807F03D11A6822F0080253
:104980001A60236C0BB120469847E26D20239340B8
:10499000334255D02268126812F0100F50D0BB601D
:1049A00094F83530DBB2052B0ED023681A6812F468
:1049B000802F33D01B6813F4002F2AD1636C002B97
:1049C0003ED0204698473BE02268136823F0160348
:1049D00013602268536923F080035361236CA3B1F1
:1049E0002268136823F008031360E26D3F239340AD
:1049F000BB60012384F83530002384F83430236D04
:104A0000002B3FD0204698473CE0A36C002BE7D119
:104A1000EBE7E36BA3B12046984711E01A6812F464
:104A2000807F09D11A6822F010021A60012384F8ED
:104A30003530002384F83430E36B0BB120469847BF
:104A4000636DFBB1636D13F0010F17D0052384F87C
:104A500035302268136823F001031360019B013392
:104A60000193AB4204D823681B6813F0010FF5D102
:104A7000012384F83530002384F83430E36C0BB123
:104A80002046984703B0F0BDEC020020B5814E1BD4
:104A9000074AD36823F4E0631B041B0C000200F4F4
:104AA000E060034343F0BF6343F40033D3607047D7
:104AB00000ED00E030B4174BDB68C3F30223C3F111
:104AC0000704042C28BF04241D1D062D18D9033B00
:104AD0004FF0FF3505FA04F421EA0401994005FA84
:104AE00003F322EA0303194300280BDB0901C9B2CF
:104AF00000F1604000F5614080F8001330BC704761
:104B00000023E5E700F00F000901C9B2024B195478
:104B1000F4E700BF00ED00E014ED00E0002807DB43
:104B200000F01F02400901239340024A42F820305E
:104B3000704700BF00E100E0BFF34F8F0549CA682E
:104B400002F4E062044B1343CB60BFF34F8F00BF0E
:104B5000FDE700BF00ED00E00400FA0508B50B4BCF
:104B60001A6842F400721A601A6842F480621A608D
:104B70001A6842F480721A600320FFF789FF002050
:104B8000FEF774FBFEF750FB002008BD003C02401E
:104B9000034A1168034B1B780B441360704700BF36
:104BA000DCC40020E4020020014B1868704700BFFD
:104BB000DCC4002038B50446FFF7F6FF0546B4F123
:104BC000FF3F02D0044B1B781C44FFF7EDFF401B56
:104BD000A042FAD338BD00BFE402002003685A693E
:104BE00012F4806F01D1002070476FF480625A6127
:104BF00000230363202280F83D2080F83E30026CC1
:104C000042F00402026480F83C30012070472DE934
:104C1000F04107460D4690461E4622E0FFF7C4FFCE
:104C2000069BC01AB04200D8DEB900233B632022A5
:104C300087F83D2087F83E303A6C42F020023A6413
:104C400087F83C3001201AE03B689C6925EA04049F
:104C5000A4B2B4FA84F46409A0450FD1B6F1FF3FC1
:104C6000DCD1C5F30743012BEED13B685C6925EA33
:104C70000404A4B2B4FA84F46409EDE70020BDE8AA
:104C8000F0812DE9F04105460E46174698463DE075
:104C90001A6842F400721A602B686FF480625A61DD
:104CA00000232B63202285F83D2085F83E302A6CB6
:104CB00042F004022A6485F83C30012034E0FFF71A
:104CC00073FFA0EB0800B84200D8FFB900232B63A4
:104CD000202285F83D2085F83E302A6C42F02002E3
:104CE0002A6485F83C3001201EE02B689C6926EA86
:104CF0000404A4B2003C18BF0124A4B12B685A6973
:104D000012F4806FC4D1B7F1FF3FD8D1C6F3074387
:104D1000012BEAD12B685C6926EA0404A4B2003CAA
:104D200018BF0124E9E70020BDE8F08170B5044612
:104D30000D46164623685B6913F0800F1CD1204690
:104D4000FFF74CFFD0B9B5F1FF3FF3D0FFF72CFFD1
:104D5000801BA84201D8002DECD100232363202220
:104D600084F83D2084F83E30226C42F02002226418
:104D700084F83C30012000E0002070BD0120FCE7F9
:104D80002DE9F04385B004460D4691461F46DDF8F7
:104D900030800D9E0368196841F480711960009697
:104DA000434600224FF00111FFF731FF60B923683D
:104DB00005F0FE051D613346424626492046FFF7B1
:104DC00060FF68B1012008E023681B6813F4807F4E
:104DD00002D04FF400732364032005B0BDE8F083D4
:104DE0000023039323685A6903929B690393039BEF
:104DF000324641462046FFF799FF30B9012F0FD1C7
:104E000023685FFA89F61E61E7E7236C042B01D063
:104E10000120E2E72268136843F400731360F7E7A8
:104E200023684FEA19221A61324641462046FFF7AD
:104E30007DFF20B923685FFA89F61E61CDE7236CF8
:104E4000042B01D00120C8E72268136843F40073E3
:104E50001360F7E7020001002DE9F04784B0044633
:104E60000D46164699460C9FDDF83480026813689B
:104E700043F4806313600368196841F4807119601A
:104E8000CDF800803B4600224FF00111FFF7BFFE36
:104E900070B95FFA85FA236805F0FE051D61434687
:104EA0003A4641492046FFF7ECFE68B1012008E090
:104EB00023681B6813F4807F02D04FF400732364CF
:104EC000032004B0BDE8F0870023039323685A69E8
:104ED00003929B690393039B424639462046FFF7A2
:104EE00025FF80B9B9F1010F18D12368F6B21E6110
:104EF000424639462046FFF719FF68B3236C042B5E
:104F000024D00120DDE7236C042B01D00120D8E759
:104F10002268136843F400731360F7E72368320ACA
:104F20001A61424639462046FFF700FF18B9236848
:104F3000F6B21E61DCE7236C042B01D00120C0E730
:104F40002268136843F400731360F7E7226813685C
:104F500043F400731360D4E72268136843F480734A
:104F60001360CDF800803B4600224FF0011120462F
:104F7000FFF74DFE68B922684AF00103136143460A
:104F80003A4609492046FFF77CFE002899D00120C7
:104F900097E723681B6813F4807F02D04FF40073F7
:104FA000236403208DE700BF0200010070B50446B2
:104FB0000D46164623685B6913F0040F1CD120468A
:104FC000FFF70CFED0B9B5F1FF3FF3D0FFF7ECFDD2
:104FD000801BA84201D8002DECD10023236320229E
:104FE00084F83D2084F83E30226C42F02002226496
:104FF00084F83C30012000E0002070BD0120FCE777
:1050000070B505460C4616462B68596911F0400FDD
:1050100029D1596911F0100F15D1FFF7C5FD801B7B
:10502000A04201D8002CEFD100232B63202285F869
:105030003D2085F83E302A6C42F020022A6485F833
:105040003C30012070BD6FF010025A6100232B63C9
:10505000202285F83D2085F83E302A6C2A6485F8A8
:105060003C300120EEE70020ECE70000002800F0D3
:10507000CC80F8B5044690F83D30002B77D024233F
:1050800084F83D302268136823F00103136022681E
:10509000136843F4004313602268136823F4004349
:1050A0001360FFF793F962685A4B9A4264D85A4BDF
:1050B00098428CBF00230123002B40F0A880574D5D
:1050C000A5FB0035AF0C2668716821F03F0141EA6D
:1050D0009541716021680B6A23F03F0365684D4A72
:1050E00095424FD87A1C13430B622568E96921F475
:1050F0004F4121F0FF016368464A93424CD8013882
:105100005B00B0FBF3F0013040F6FC73184278D03E
:10511000C0F30B030B43EB6121680B6823F0C00362
:10512000E269206A024313430B6021688B6823F411
:10513000034323F0FF032269E068024313438B60BB
:105140002168CB6823F0FF036269A069024313431F
:10515000CB602268136843F00103136000202064D1
:10516000202384F83D30206384F83E00F8BD80F8A9
:105170003C30FDF77BF882E7294B98428CBF002337
:10518000012399E74FF4967202FB07F2254DA5FB28
:10519000025292090132A6E7A268BAB9461E03EB91
:1051A0004307B6FBF7F60136C6F30B06B6FA86F6EA
:1051B000760946BBC2B9421E03EB4303B2FBF3F2CE
:1051C0000132C2F30B0242F40043A3E7461E03EB95
:1051D000830707EB8707B6FBF7F60136C6F30B0626
:1051E000B6FA86F67609E4E7421E03EB830303EB87
:1051F0008303B2FBF3F20132C2F30B0242F44043E9
:1052000088E7042386E7012384E701207047012013
:10521000ACE700BFA08601007F841E0083DE1B4335
:10522000FF083D00D34D62102DE9F04383B00446E2
:105230000F46904699460C9EFFF7B6FC054694F83B
:105240003D00C0B2202803D0022003B0BDE8F083A7
:105250000095192301224B492046FFF7D8FC00286E
:1052600040F0898094F83C30012B00F086800123C7
:1052700084F83C3023681A6812F0010F03D11A68D1
:1052800042F001021A602268136823F4006313607D
:10529000212384F83D30402384F83E3000232364EA
:1052A0000A9B6362BDF82C306385638D2385364B82
:1052B000E362019500964B46424639462046FFF789
:1052C0005FFD00285BD1238D002B35D02A46314667
:1052D0002046FFF72BFD20BB626A236812781A6113
:1052E000616A4B1C6362228D013A92B22285638D02
:1052F0009BB2013B9BB263852368586910F0040F91
:10530000E1D0002ADFD04A781A61636A0133636210
:10531000238D013B2385638D9BB2013B9BB263854B
:10532000D1E7236C042B01D001208EE7226813689B
:1053300043F400731360F7E72A4631462046FFF72F
:1053400035FE50B1236C042B01D001207DE722688B
:10535000136843F400731360F7E72268136843F49B
:1053600000731360202384F83D30002384F83E301E
:1053700084F83C3069E7022067E7022065E70120F6
:1053800063E700BF020010000000FFFF2DE9F043BB
:1053900087B004460F4690469946109EFFF704FCDE
:1053A000054694F83D00C0B2202804D002273846B4
:1053B00007B0BDE8F0830095192301229D492046DE
:1053C000FFF725FC002840F0448194F83C30012B85
:1053D00000F04181012384F83C3023681A6812F000
:1053E000010F03D11A6842F001021A6022681368A3
:1053F00023F400631360222384F83D30402384F8B3
:105400003E30002323640E9B6362BDF83C3063850D
:10541000638D2385884BE362019500964B46424697
:1054200039462046FFF718FD0746002840F0158151
:10543000238D5BB9029323685A6902929A6902929A
:10544000029A1A6842F400721A6098E0012B0AD09E
:10545000022B1AD00023059323685A6905929B6991
:105460000593059B8BE02268136823F48063136027
:105470000023039323685A6903929A690392039A5B
:105480001A6842F400721A6079E02268136823F403
:10549000806313602268136843F400631360002381
:1054A000049323685A6904929B690493049B66E001
:1054B0002A4631462046FFF7A3FD002840F0CF8062
:1054C00023681A69636A1A70636A01336362238D01
:1054D000013B2385638D9BB2013B9BB263854EE00C
:1054E00000953346002255492046FFF790FB0028DF
:1054F00040F0B7802268136843F400731360236898
:105500001A69636A1A70626A531C6362238D013BD5
:105510002385638D9BB2013B9BB2638523681B6926
:105520005370636A01336362238D013B2385638D6E
:105530009BB2013B9BB2638521E02268136843F470
:105540000073136023681A69636A1A70626A531CD5
:105550006362238D013B2385638D9BB2013B9BB22C
:10556000638523681B695370636A01336362238D0B
:10557000013B2385638D9BB2013B9BB26385238DE9
:10558000002B5DD0032B2BD8012B91D0022BA7D061
:1055900000953346002229492046FFF738FB0028B2
:1055A00061D12268136823F48063136023681A6949
:1055B000636A1A70636A01336362238D013B23853A
:1055C000638D9BB2013B9BB26385009533460022FD
:1055D0001A492046FFF71BFB0028AED00127E6E65C
:1055E0002A4631462046FFF70BFD00283DD12368AF
:1055F0001A69636A1A70626A531C6362238D013BE5
:105600002385638D9BB2013B9BB2638523685969F7
:1056100011F0040FB3D01B695370636A01336362E6
:10562000238D013B2385638D9BB2013B9BB2638538
:10563000A5E700BF020010000000FFFF040001000A
:10564000202384F83D30002384F83E3084F83C3039
:10565000ADE60227ABE60227A9E60127A7E6012768
:10566000A5E60127A3E60127A1E601279FE600BFE3
:1056700040B338B5044603684CF6CC421A60036860
:1056800045F255521A60036842685A60036882689E
:105690009A60FFF789FA05462368DA6812F0030F6B
:1056A0000BD0FFF781FA401B3128F5D92368DB685E
:1056B00013F0030FF0D0032003E04AF6AA221A6089
:1056C000002038BD0120704703684AF6AA221A60FC
:1056D0000020704730B4036A056A25F001050562B1
:1056E000846924F0F00444EA021423F00A030B4313
:1056F0008461036230BC704730B4056A25F0100540
:1057000005628469036A24F4704444EA023423F095
:10571000A00343EA01138461036230BC70478368CD
:1057200023F070030B4343F00703836070470000CE
:1057300090F83D30DBB2012B37D1022380F83D30A9
:105740000268D36843F00103D3600368194A9342A7
:1057500020D0B3F1804F1DD0A2F57C42934219D0E6
:1057600002F58062934215D002F58062934211D017
:1057700002F5784293420DD002F57052934209D05F
:10578000A2F59432934205D01A6842F001021A60E1
:10579000002070479A6802F00702062A07D01A68AC
:1057A00042F001021A60002070470120704700207B
:1057B000704700BF00000140704770477047704756
:1057C00010B5044603681A6912F0020F11D0DA68A6
:1057D00012F0020F0DD06FF002021A61012303775D
:1057E00003689B6913F0030F70D0FFF7E6FF0023F7
:1057F000237723681A6912F0040F12D0DA6812F0C6
:10580000040F0ED06FF004021A610223237723687D
:105810009B6913F4407F5FD02046FFF7CEFF002343
:10582000237723681A6912F0080F12D0DA6812F091
:10583000080F0ED06FF008021A6104232377236843
:10584000DB6913F0030F4ED02046FFF7B6FF0023AD
:10585000237723681A6912F0100F12D0DA6812F059
:10586000100F0ED06FF010021A61082323772368FF
:10587000DB6913F4407F3DD02046FFF79EFF0023F5
:10588000237723681A6912F0010F03D0DA6812F047
:10589000010F36D123681A6912F0800F03D0DA683D
:1058A00012F0800F34D123681A6912F0400F03D030
:1058B000DA6812F0400F32D123681A6912F0200F13
:1058C00003D0DA6812F0200F30D110BDFFF774FF5B
:1058D0002046FFF773FF8AE72046FFF76DFF20465B
:1058E000FFF76CFF9BE72046FFF766FF2046FFF7B8
:1058F00065FFACE72046FFF75FFF2046FFF75EFF3E
:10590000BDE76FF001021A612046FCF797FAC1E784
:105910006FF080021A61204600F071F9C3E76FF062
:1059200040021A612046FFF74AFFC5E76FF02002E8
:105930001A61204600F062F9C7E700000368304AA8
:10594000904212D0B0F1804F0FD0A2F57C4290422D
:105950000BD002F58062904207D002F5806290423F
:1059600003D002F57842904203D123F070034A68D5
:105970001343234A90422AD0B0F1804F27D0A2F59A
:105980007C42904223D002F5806290421FD002F503
:10599000806290421BD002F57842904217D002F507
:1059A0007052904213D002F5806290420FD002F5FF
:1059B000806290420BD0A2F59832904207D002F557
:1059C0008062904203D002F58062904203D123F4BA
:1059D0004073CA68134323F080034A69134303608A
:1059E0008B68C3620B688362054B984203D003F552
:1059F0008063984201D10B690363012343617047BF
:105A00000000014040B310B5044690F83D30F3B1BA
:105A1000022384F83D30214651F8040BFFF78EFF36
:105A2000012384F8463084F83E3084F83F3084F80F
:105A3000403084F8413084F8423084F8433084F8B0
:105A4000443084F8453084F83D30002010BD80F8A3
:105A50003C30FDF779F9DBE70120704710B484682A
:105A600024F47F4442EA03220A43224382605DF821
:105A7000044B704790F83C30012B78D010B50446A9
:105A8000012380F83C30022380F83D30026893689F
:105A900023F47F4323F0770393600B68602B4CD093
:105AA00029D8402B54D00CD9502B22D1CA68496830
:105AB0000068FFF70FFE50212068FFF730FE00203E
:105AC00005E0202B0DD009D9302B0AD0012001236D
:105AD00084F83D30002384F83C3010BD0BB1102B0E
