:020000040800F2
:1000000000000220BD580108216200082362000898
:10001000256200082762000829620008000000002D
:1000200000000000000000000000000031C10008D6
:100030002B62000800000000D1C10008A1B6000832
:100040000D5901080D5901080D5901080D590108F4
:100050000D5901080D5901080D5901080D590108E4
:100060000D5901080D5901080D5901082D620008AC
:100070000D5901080D5901080D5901080D590108C4
:100080003D6200080D5901080D5901080D5901087C
:100090000D5901080D5901080D5901084D6200085C
:1000A0000D590108596200080D5901080D59010840
:1000B0006962000879620008896200080D59010828
:1000C0000D5901080D5901080D5901080D59010874
:1000D0000D590108996200080D5901080D590108D0
:1000E0000D5901080D5901080D5901080D59010854
:1000F0000D5901080D590108AD6200080D5901089C
:100100000D5901080D590108BD6200080D5901087B
:100110000D5901080D590108CD620008DD62000883
:100120000D590108ED620008FD6200080D59010833
:100130000D5901080D6300080D5901080D590108FA
:100140000D5901080D5901080D5901080D590108F3
:100150000D5901081D6300082D6300083D63000868
:100160000D5901080D5901080D5901080D590108D3
:100170000D5901080D5901080D5901080000000032
:080180000D5901080D59010899
:1001C0000348044B834202D0034B03B118477047E6
:1001D0006403002064030020000000000548064975
:1001E0000B1AD90F01EBA301491002D0034B03B145
:1001F00018477047640300206403002000000000DB
:1002000010B5064C237843B9FFF7DAFF044B13B15E
:100210000448AFF300800123237010BD6403002065
:10022000000000001059010808B5044B1BB1044937
:100230000448AFF30080BDE80840CFE700000000AD
:1002400068030020105901080CB400B583B004AB5A
:1002500053F8042B019300F045FB03B05DF804EB69
:1002600002B070470EB410B583B005AB064C53F81E
:10027000042B01930146206800F034FB03B0BDE875
:10028000104003B0704700BF0000002070B50D4E55
:100290000D4D761BB61006D00024013455F8043BF2
:1002A0009847A642F9D1094E094D761B15F030FB4F
:1002B000B61006D00024013455F8043B9847A642F6
:1002C000F9D170BD88920108889201088C920108CA
:1002D0008892010870B50C46B1F90E10002996B04D
:1002E00016461D4613DB6A4601F082FD00280EDB30
:1002F000019A02F47042A2F50052B2FA82F2520957
:100300004FF4806300202A60336016B070BDA3896B
:1003100000221B062A6004D540230020336016B05B
:1003200070BD4FF480630020336016B070BD00BF15
:100330008A8992070B4606D501F1470201211A600E
:10034000C3E90421704770B582B001AB6A460C4620
:100350000646FFF7BFFF00990546304600F01AFA3F
:10036000B4F90C3070B11649B162019A009920605D
:1003700043F08003A381C4E904018AB92B43A3811C
:1003800002B070BD9A05FBD423F0030304F14702C9
:1003900043F002030121A3812260C4E90421EFE7B5
:1003A0003046B4F90E1001F00BFF10B9B4F90C305F
:1003B000E4E7A38923F0030343F001031BB2DDE765
:1003C000E51B0008024B0146186800F0E3B900BFC6
:1003D00000000020024B0146186800F085B900BFFC
:1003E00000000020032A70B412D940EA0105AD07CD
:1003F00004460B4620D11946204653F8045B54F8B6
:10040000046BAE4218D1043A032A20461946F2D8AA
:10041000541E72B103780A789A4208BF241806D095
:100420000CE010F8013F11F8012F934206D1A042D1
:10043000F7D1002070BC7047541EEBE7981A70BCCF
:10044000704700BF844641EA000313F003036DD1F7
:10045000403A41D351F8043B40F8043B51F8043B87
:1004600040F8043B51F8043B40F8043B51F8043B8E
:1004700040F8043B51F8043B40F8043B51F8043B7E
:1004800040F8043B51F8043B40F8043B51F8043B6E
:1004900040F8043B51F8043B40F8043B51F8043B5E
:1004A00040F8043B51F8043B40F8043B51F8043B4E
:1004B00040F8043B51F8043B40F8043B51F8043B3E
:1004C00040F8043B51F8043B40F8043B51F8043B2E
:1004D00040F8043B403ABDD2303211D351F8043BCE
:1004E00040F8043B51F8043B40F8043B51F8043B0E
:1004F00040F8043B51F8043B40F8043B103AEDD27D
:100500000C3205D351F8043B40F8043B043AF9D2CD
:10051000043208D0D2071CBF11F8013B00F8013BA0
:1005200001D30B8803806046704700BF082A13D3AD
:100530008B078DD010F003038AD0C3F10403D21AC5
:10054000DB071CBF11F8013B00F8013B80D331F8F9
:10055000023B20F8023B7BE7043AD9D3013A11F879
:10056000013B00F8013BF9D20B7803704B784370E4
:100570008B788370604670478842F0B40DD98B1831
:1005800083420AD9841832B1224613F8014D02F889
:10059000014D9942F9D1F0BC70470F2A0ED803469D
:1005A000541E002AF7D001340C44013B11F8012BF2
:1005B00003F8012FA142F9D1F0BC704740EA0103D2
:1005C0009B073BD1A2F110073F0901F1200606EB82
:1005D000071601F1100300F1100453F8105C44F801
:1005E000105C53F80C5C44F80C5C53F8085C44F85D
:1005F000085C53F8045C44F8045C1033B34204F123
:100600001004EAD17B1C1B0112F00C0F194402F0FC
:100610000F05034415D0043DAD0803EB850C1C1FEA
:100620000E4656F8047B44F8047F6445F9D1013541
:10063000AD002B44294402F00302B1E7541E0346E7
:10064000B1E72A46ACE700BFF0B4860746D0541E97
:10065000002A3CD0CAB2034602E014F1FF3436D37C
:1006600003F8012B9D07F8D1032C29D9CDB245EA17
:1006700005250F2C45EA054533D9A4F110063609A6
:1006800003F1200707EB061703F1100242E90455B6
:1006900042E902551032BA42F8D1721C14F00C0F24
:1006A00003EB021204F00F0613D0331F23F00303F1
:1006B0000433134442F8045B9342FBD106F0030475
:1006C0002CB1C9B21C4403F8011B9C42FBD1F0BC05
:1006D000704734461346002CF3D1F8E7144603461E
:1006E000C2E71A462646E0E700293CD038B551F863
:1006F000043C0C1F002BB8BFE418054601F0D8FDE0
:10070000234B1A682AB1A2420DD92168601882428F
:1007100023D0626028461C60BDE8384001F0CABDA5
:10072000A34203D81A465368002BF9D11168501818
:10073000A04219D024D821686018834206D0636093
:1007400054602846BDE8384001F0B4BDD3E9000349
:100750000144636021605460F3E7D2E90002014480
:1007600062602160D6E770472068014450188342D8
:100770001160E6D1D3E90003014453601160E0E762
:100780000C232B602846BDE8384001F093BD00BF24
:1007900080030020F8B5CD1C25F0030508350C2D8D
:1007A00038BF0C25002D064633DBA94231D82A4F2D
:1007B00001F07EFD3A6852B113685B1B04D43FE040
:1007C00023685B1B29D522465468002CF8D1796830
:1007D00000293BD02946304600F082FC431C28D03B
:1007E000C41C24F00304A04205D0211A304600F0B6
:1007F00077FC01301DD02560304601F05BFD04F12F
:100800000B0020F00700231DC21A01D01B1AA350B1
:10081000F8BD0C2232600020F8BD0B2B05D8A24297
:10082000636811D05360E7E7144623601C442560D9
:10083000E2E70C233046336001F03CFD0020F8BDB8
:100840000B2BF1D8536814463B60D5E7304600F0D7
:1008500047FC7860BEE700BF800300209368013B3F
:10086000002B936011DA10B49469A34209DB0A29C2
:1008700007D01368581C1060197008465DF8044BC7
:1008800070475DF8044B00F0A7BF1368581C106058
:1008900019700846704700BF9BB1F8B513440F4666
:1008A00006465D1E541E01E0AC4208D03A4614F8DC
:1008B000011F3046FFF7D2FF431CF5D1F8BD0020E1
:1008C000F8BD0020704700BF936810B5144613B9F7
:1008D0005360184610BD01F09FFA0023C4E90133AC
:1008E00010BD00BF2DE9F04F9FB08B4690461C46CF
:1008F000039018B18369002B00F0B780A24B9B4591
:1009000000F0B980A14B9B4500F0C780A04B9B45F0
:1009100004BF039BD3F80CB0BBF80C30180740F1B0
:10092000B280DBF81030002B00F0AD8030238DF862
:10093000323098F800300594002120220B918DF878
:100940003120944E0127002B00F08780252B00F0EA
:100950001581454603E0252B00F0A38025466B78E2
:100960006C1C002BF7D1B4EB080A76D042465346F4
:1009700059460398FFF790FF01306ED00B9B6A78C1
:1009800053440B93002A68D000234FF0FF32013408
:100990000693CDE908338DF85B301C93079205E090
:1009A000069A07FA03F313432C46069325460522BD
:1009B00015F8011B304601F02BFCAA46831B0028CA
:1009C000EED1069BD90644BF20228DF85B2021780A
:1009D0001A0744BF2B228DF85B202A2966D1059A7D
:1009E0001168043200290592C0F29D800991617856
:1009F000A51C2E2973D0684C0322204601F008FC68
:100A0000002800F08680001B069B402404FA00F0BA
:100A10000343069305F10108297860488DF83010EA
:100A2000062201F0F5FB002800F083805C4B002BD0
:100A300072D005AB00935A465A4B039806A9AFF300
:100A400000808146B9F1FF3F07D00B9B4B440B93CD
:100A500098F80030002B7FF479AFBBF80C305B06C0
:100A600018D40B981FB0BDE8F08F01F0A1F9464BE8
:100A70009B457FF447AF039BD3F804B0BBF80C3021
:100A800018073FF54EAF5946039800F01BFF0028AA
:100A90003FF44CAF4FF0FF30E4E7039BD3F808B0CE
:100AA0003AE7B4EB080A3FF46FAF5FE7A1F1300219
:100AB000092A88BFA2469CD8099B01E02C46013533
:100AC000297803EB830302EB4303A1F13002092AE7
:100AD000AA46F3D92E2904F1020509938BD19AF87D
:100AE00001102A292FD1059B9AF802101A68079243
:100AF0000433002A05930AF103050AF1020338DBE7
:100B0000254C032220469A4601F082FB00287FF400
:100B10007AAFA84655467FE7059B073323F00703C6
:100B20000833059391E7494243F002030991069384
:100B30005DE705AB00935A461A4B039806A900F0EF
:100B4000D5F881467EE7A1F130020023092A0793F8
:100B500001D915E05546697803EB830302EB4303A3
:100B6000A1F13002092A05F1010AF3D902350793F0
:100B700041E74FF0FF329A4607923CE7444603E7CD
:100B8000AA46013537E700BF7459010854590108D6
:100B900034590108B8910108C0910108C4910108B5
:100BA000000000009908000810B4044C13460A46DF
:100BB000014620685DF8044BFFF794BE000000205A
:100BC0002DE9F0470C4691460A698968DDF82080D6
:100BD0008A42B8BF0A46C9F8002094F84310064676
:100BE0001F4611B10132C9F80020236899065CD56F
:100BF000D9F800200232C9F80020236813F0060F4C
:100C000019461DD1E1688A1A002AD8BF194617DD96
:100C100004F1190A002505E0E368D9F800209B1AC1
:100C2000AB420CDD0123524639463046C047013005
:100C300005F10105F0D14FF0FF30BDE8F0872168E4
:100C400094F84330003318BF01238A060AD5E1180F
:100C50005A1C302081F84300224494F8451082F851
:100C60004310023304F1430239463046C047013095
:100C7000E1D02368A268216903F00603042B1DD08C
:100C80008A4226DD4FF00009521A91441A34002599
:100C900001E04D451DDA0123224639463046C04762
:100CA000013005F10105F4D1C5E713F0060F13D0AB
:100CB00094F84330003318BF0123D3E7D9F800007C
:100CC000E3688A42A3EB000323EAE379DCDC002B30
:100CD000DCDC0020BDE8F087E168D9F800208A1A42
:100CE000002AD8BF194693DCAAE700BF2DE9F043DC
:100CF0000C46097E85B06E29064617460C98984624
:100D000004F1430E6DD039D9732900F0F68044D92F
:100D1000752900F00481782940F011817823226838
:100D2000DFF858C284F845300168150651F8043BD5
:100D3000016040F1A180D10744BF42F0200222604F
:100D4000002B00F093801022002184F8431060688B
:100D5000A0600028C0F2C880216821F00401216051
:100D6000002B40F0A380002840F0C0807546082A80
:100D700000F0AC80AEEB0503236141E0632900F095
:100D8000E5801AD8002938D0582940F0D88084F856
:100D900045102268DFF8E8C1C6E76F2900F0BF8080
:100DA000702940F0CC802268DFF8D0C142F02002E8
:100DB0007823226084F84530B6E7642902D0692997
:100DC00040F0BD8022680368110603F1040557D581
:100DD000196805600B46002959DBDFF8A4C10A2217
:100DE000B5E70368226861691D1D056015061B686B
:100DF00002D4500600F1BD801960002375462361BE
:100E0000CDF800803B4603AA21463046FFF7D8FEC6
:100E1000013020D02A46236939463046C047013088
:100E200019D022680398E368920719D51A1A002A84
:100E300016DD04F11909002504E0E36803981A1A85
:100E4000AA420DDD01234A4639463046C0470130EB
:100E500005F10105F1D14FF0FF3005B0BDE8F08399
:100E60009842B8BF184605B0BDE8F083226822F06A
:100E700020022260102267E7500648BF9BB25AE763
:100E80005106A5D5B3F9003005601946A3E761689E
:100E9000A1602D200029C3F1000384F8430002DB88
:100EA00022F004022260DFF8D8C00A22754600E072
:100EB0000B46B3FBF2F102FB113093421CF8000029
:100EC00005F8010DF4D2082A7FF454AF2368DB073C
:100ED0007FF550AF626823699A423FF74BAF3023EA
:100EE00005F8013C013D45E7002BDFD19CF80030BF
:100EF00084F8423004F1420539E703686268191D3D
:100F000001601D680021284601F082F9002832D0D6
:100F1000401B60602061002384F8433070E7226842
:100F2000036812F0800F03F104051AD01B680560F6
:100F30006F290CBF08220A22DFF844C004E701230E
:100F400084F84210236104F14205E4E703681A685B
:100F5000191D0123016004F1420584F84220236138
:100F6000D9E712F0400F0DBF1B6805601B880560B4
:100F7000DEE7198041E76068CCE700BFE091010837
:100F8000CC9101080EB410B5044683B008B1836952
:100F900063B106A803460190059AA1682046FFF7B1
:100FA000A1FC03B0BDE8104003B0704700F000FFA3
:100FB000EFE700BF0FB410B50B4B1C6882B00CB14B
:100FC000A36963B105A803460190049AA16820466D
:100FD000FFF788FC02B0BDE8104004B0704720461F
:100FE00000F0E6FEEEE700BF0000002038B5124B2F
:100FF0001C68A26B05461AB10023C2E9045338BD30
:101000001820FFF7DFF90246A06378B10120002124
:101010000A4B1360C2E904010B2309480949938173
:101020000023C2E90101C2E9045338BD064B074859
:10103000422100F0C7FC00BF000000200E33CDAB02
:1010400034126DE6ECDE0500F49101080C92010803
:1010500038B51A4B1C68A26B92B1146918495369D0
:10106000184801FB04F100FB0313A4FB0045611CBD
:101070001D4445F1000323F00040C2E9041338BDCC
:101080001820FFF79FF90246A06388B101200021D4
:10109000C2E904010A480C4C0C4B0D490D4D14607B
:1010A00053600B24034695609481C2E9041338BD54
:1010B000094B0A484E2100F085FC00BF00000020CB
:1010C0002DF451582D7F954C0E33CDAB34126DE677
:1010D0002E7F954CECDE0500F49101080C9201087E
:1010E00038B5074C002305460846236001F0C2FCD2
:1010F000431C00D038BD2368002BFBD02B6038BDCB
:10110000442701200CB470B59CB020AC0B4E54F8B1
:10111000042B0291234606916FF0004502A9019429
:101120000795CDE9045601F0C9F9029B00221A7017
:101130001CB0BDE8704002B0704700BF0802FFFF5E
:101140000EB430B59CB01FAB0C4C0D4D53F8042BB6
:101150000193014602910691206802A96FF00044B4
:101160000794CDE9044501F0A9F9029B00221A7009
:101170001CB0BDE8304003B0704700BF0000002045
:101180000802FFFF10B50C46B1F90E1001F0D0FABD
:10119000002803DB636D0344636510BDA38923F45A
:1011A0008053A38110BD00BF002070472DE9F0419E
:1011B0001646B1F90C201F46D3050C460546B1F979
:1011C0000E1009D422F48052A2813B4632462846B2
:1011D000BDE8F04100F060BB0022022301F002F8FC
:1011E000B4F90C20B4F90E10ECE700BF10B50C46B2
:1011F000B1F90E1000F0F6FFA389421C0EBF23F4D4
:10120000805343F480536065A38110BDB1F90E1083
:1012100000F0FCBB9AB1012A19D070B40B46054608
:1012200001E0E04217D013F8016B05F8016BEC43C5
:101230001444002EF5D1581A013870BC70470B4683
:1012400013F8012B002AFBD1581A013870470022ED
:101250000B460270F4E700222A7013F8012B002AD3
:10126000FBD1581A013870BC704700BF0000000065
:10127000000000000000000000000000000000006E
:1012800090F800F06DE9024520F007016FF0000CC6
:1012900010F0070491F820F040F049804FF000046E
:1012A0006FF00700D1E9002391F840F000F1080049
:1012B00082FA4CF2A4FA8CF283FA4CF3A2FA8CF381
:1012C0004BBBD1E9022382FA4CF200F10800A4FAE8
:1012D0008CF283FA4CF3A2FA8CF3E3B9D1E904233C
:1012E00082FA4CF200F10800A4FA8CF283FA4CF373
:1012F000A2FA8CF37BB9D1E9062301F1200182FA2D
:101300004CF200F10800A4FA8CF283FA4CF3A2FA32
:101310008CF3002BC6D0002A04BF04301A4612BA40
:10132000B2FA82F2FDE8024500EBD2007047D1E943
:10133000002304F00305C4F100004FEAC50514F0D2
:10134000040F91F840F00CFA05F562EA05021CBFA3
:1013500063EA050362464FF00004A9E771B138B5AE
:1013600003460C46002501E0431C0546184621466D
:1013700001F0F4F90028F7D1284638BD01F0EEB9A4
:101380002DE9F04F0124254688461646AE462A46EA
:10139000ADF21C4D07461C4600214FF0FF35531897
:1013A0009C4206EB05000ED9805C16F803C084450C
:1013B00080F0CC8019460122A3EB050E53189C4205
:1013C00006EB0500F0D8CDF80CE04FF0010E7246A8
:1013D00000214FF0FF3053189C4206EB000C0FD950
:1013E0001CF802C016F80390E14540F2B680194699
:1013F0000122A3EB000E53189C4206EB000CEFD821
:101400006B1C01309842029328BFCDE9020E05AB58
:101410000DF2144243F8044F9342FBD1631E009334
:10142000002C00F01681009B06AD721E98190195E4
:1014300012F8011FD34323443344824245F821303C
:10144000F6D1DDE902233046F118FEF7CBFF002884
:1014500040F09680029B013B0593F318824681463B
:10146000049307EB090E009B019A1EF8033052F813
:101470002330EBB1BAF1000F03D0039A934238BF87
:10148000A31A99444FF0000AA8EB04034B45E8D295
:1014900007EB080044F4006101F0C4F98044A8EBB4
:1014A00004034B45DDD200200DF21C4DBDE8F08F4A
:1014B000029B534538BF53461D46009B9D4218D2A0
:1014C00005EB0902715DB85C88423A4406EB0503FE
:1014D00034D1A4F1020CB444C6F1010B05E013F8B9
:1014E000010F12F8011F884228D19C450BEB030520
:1014F000F5D1029B9A4580F0A980059B049A4B4444
:101500001178FA5C91423B4440F0A0800AEB090557
:101510003D44049A05E012F8010D13F8011D8842BC
:1015200003D1AB42A3EB0E0CF5D10AF1010AE2455F
:101530007DD8039B9944A4EB030AA5E7029BC3F162
:1015400001039944A9444FF0000A9DE70CD04FF0E5
:10155000010E0D467246714421E70BD04FF0010E8B
:1015600008467246714436E7724512BF0132194689
:10157000012214E7724512BF0132194601222AE7FF
:10158000029AA31A934238BF1346511E01330593A2
:10159000731804910393002506EB020B07EB050E6D
:1015A000009A01991EF8023051F8233083B11D448E
:1015B000A8EB04039D42F1D907EB080044F4006155
:1015C00001F030F98044A8EB04039D42E6D96AE7B4
:1015D000029B934217D2EA189BF80030B95C9942FB
:1015E0003A4429D1A4F1020CB4445B46C6F1010986
:1015F00005E013F8010F12F8011F88421ED1634560
:1016000009EB030AF5D1049B5A1C10D0EA18039B7E
:10161000B95C1B7899423A4416D1039B05E013F854
:10162000010D12F8011D88420ED1B342F7D1704668
:101630000DF21C4DBDE8F08FDDF808A0029BC3F150
:1016400001031D445544B3E7059BB0E7DDF808C02E
:101650006BE706AB0193F4E62DE9F0410E460978FD
:1016600090B00446002958D07278002A00F08D808E
:10167000B078002855D0F378002B00F08D803379B6
:10168000002B5FD03046FFF7FBFD804640F4007131
:10169000204601F0C7F8804572D8B8F1FE0F00F27D
:1016A0009280A0EB0807402208F101016846274418
:1016B000FEF7CAFFB8F1000F10D0731E03EB080548
:1016C0005FFA88F013F8012F10A902F03F020A44D4
:1016D000F11A0144AB4202F8401CF3D1013C10AABC
:1016E00014F8083003F03F03134413F8403C1C4443
:1016F000A74203D238E02C44A74235D314F808504F
:1017000010AB05F03F051D4442463146204615F812
:10171000405CFEF767FE0028EDD1204610B0BDE822
:10172000F081237842EA014253B3601C617800E003
:10173000204641EA0343441C11B39A424178F7D151
:10174000441EEAE72278DAB1306800BA02E0834248
:1017500008D00C4642EA03236278611C002AF6D1C5
:1017600083420DD1033CD8E717F8083007EB080097
:1017700033B14FF4006101F055F80744A742ADD2F0
:101780000024204610B0BDE8F08100F0E7FF0446D9
:10179000204610B0BDE8F0811204237842EA0162CD
:1017A00042EA0022002BEBD01B02601C617800E0B3
:1017B00020460B431B02441C0029E1D09A42417889
:1017C000F6D1841EA9E70146434620463246FFF77C
:1017D000D7FD0446A1E700BFF8B50D4614460646FE
:1017E00008B1836943B3254B9C422AD0244B9C42C9
:1017F00029D0244B9C4208BFF468A389A269A26047
:101800001A0722D5236903B322686169D31AEDB29E
:1018100099422F4629DD0133A168501C0139A1608E
:101820002060157062699A4216D0A389DB0701D542
:101830000A2D11D03846F8BD00F0BAFA0F4B9C4281
:10184000D4D17468D9E7B468D7E72146304600F0B0
:1018500039F838B92369D7E72146304600F07EF9D8
:101860000028E7D04FF0FF37E4E72146304600F08C
:1018700075F90028F6D122680123CDE774590108D3
:101880005459010834590108024B0A4601461868A8
:10189000FFF7A2BF0000002070B50D46084C1146AE
:1018A00006461A4628460023236001F0F1F8431C3F
:1018B00000D070BD2368002BFBD0336070BD00BF2B
:1018C000442701203B4B70B51D6806460C460DB100
:1018D000AB69DBB1384B9C421ED0384B9C424AD09E
:1018E000374B9C4208BFEC68B4F90C2093B219073F
:1018F00018D5206908B313F001022CD063690022C7
:101900005B42A361A26060B3002070BD284600F076
:101910004FFA294B9C42E0D16C68B4F90C2093B289
:101920001907E6D4DD063CD5580726D4206942F0D5
:101930000803A3819BB20028DDD103F42072B2F525
:10194000007FD8D030462146FEF7F2FCA3892069FB
:1019500013F00102D2D1990758BF6269A260002832
:10196000D2D1B4F90C301A06CFD543F04003A3818D
:101970004FF0FF3070BDAC68B6E7616B51B104F158
:101980004403994204D03046FEF7AEFEB4F90C2071
:101990000023636300232069636022F02402206037
:1019A000C5E742F04002092333604FF0FF30A281C7
:1019B00070BD00BF0000002074590108545901088F
:1019C0003459010800B50A4C2668054685B01C4606
:1019D000F06852B1074B0091CDE9013206492B4620
:1019E0002246FEF73FFC00F03FFF044B1A46F2E7A9
:1019F0000000002040920108509201086C5B010831
:101A000008B513460022FFF7DDFF00BF38B5074CCD
:101A1000002305460846236000F0F4FF431C00D075
:101A200038BD2368002BFBD02B6038BD4427012034
:101A30008B891A072DE9F0410C46804641D44A684B
:101A4000002A59DDE66A002E53D00022D8F8005053
:101A5000216AC8F8002013F4805251D10123404676
:101A6000B047431C5FD0A389E66A216A5F0705D5AA
:101A70006268636B801A0BB1236CC01A02460023A4
:101A80004046B047461C45D1D8F80030B4F90C2088
:101A9000002B55D01D2B01D0162B5AD123690022C3
:101AA000C4E90032616BC8F8005011B304F144037B
:101AB000994202D04046FEF717FE00206063BDE861
:101AC000F0810E69AEB10D680E6099070CBF6369B5
:101AD0000023AD1BA3600AE02B463246A76A216AA9
:101AE0004046B8470028A5EB000506440ADD002D56
:101AF000F2DC0020BDE8F0810A6C002AA2DCF8E7E5
:101B0000606DB3E7A38943F04003A3814FF0FF303A
:101B1000BDE8F0812269A389226000226260DA04B4
:101B2000C0D56065BEE7D8F80030002B9BD01D2BD8
:101B30000CD0162B0AD0A38943F04003A381D9E728
:101B40002169C4E90013D304ACD5EAE7C8F8005012
:101B5000CFE742F04002A281CCE700BF0B6923B37C
:101B600010B5044682B008B18369BBB1104B9942ED
:101B700012D0104B994216D00F4B994208BFE16822
:101B8000B1F90C302BB1204602B0BDE81040FFF790
:101B90004FBF002002B010BD6168F1E7019100F075
:101BA00007F90199E2E7A168EAE70020704700BF62
:101BB00074590108545901083459010820B1054BE2
:101BC00001461868FFF7CABF034B0449186800F0C4
:101BD000CDBA00BF00000020305901085D1B00088D
:101BE00000207047014900F0C1BA00BF5D1B00082A
:101BF0000020704770B54A1E682505FB02F50E46A9
:101C000005F17401FEF7C6FD044640B100210C3019
:101C1000666005F168022160A060FEF715FD2046B0
:101C200070BD00BF1E4B70B51D68AB69064643B35F
:101C30004835D5E90134013B05D51EE0013B5A1C6E
:101C400004F1680419D0B4F90C20002AF6D100255B
:101C5000144B6566C4E90055A560C4E90455A56147
:101C60002946E360082204F15C00FEF7EDFCC4E9BC
:101C70000D55C4E91255204670BD2C682CB125467F
:101C8000D7E7284600F010F8D2E704213046FFF7E6
:101C9000B1FF044628600028F1D10C233360EAE745
:101CA000305901080100FFFF2DE9F84F334B34494B
:101CB0001A68816290424FF00003C0E91233036555
:101CC00004BF012383610546FFF7ACFF6860284627
:101CD000FFF7A8FFA8602846FFF7A4FF6E68E8603A
:101CE00000240423F3607466C6E90044B460C6E9C6
:101CF0000444B461214606F15C000822FEF7A4FC0E
:101D0000DFF888B0AF68DFF888A0DFF88890DFF8E8
:101D100088801C4BC6F83080C6E9086BC6E90AA962
:101D20002146FB6008227C66C7E90044BC60C7E925
:101D30000444BC6107F15C00FEF786FCEE68124BC0
:101D4000C7F83080C7E9087BC7E90AA92146F360D4
:101D50007466C6E90044B460C6E90444B46106F19F
:101D60005C000822FEF770FC0123C6E9086BC6E997
:101D70000AA9C6F83080AB61BDE8F88F3059010878
:101D8000E51B00080900010012000200851100088F
:101D9000AD110008ED1100080D120008024B0349B7
:101DA000186800F0E3B900BF305901085D1B000856
:101DB000836903B978E77047704700BF704700BF79
:101DC000704700BF704700BF024B0349186800F01E
:101DD000A7B900BF00000020E11B0008024B034927
:101DE000186800F09DB900BF00000020F11B00083A
:101DF00038B50B46074C05461146184600232360AC
:101E000000F008FE431C00D038BD2368002BFBD037
:101E10002B6038BD442701209368002B00F002811D
:101E20002DE9F04FB1F90C309BB20C46190783B085
:101E30008246904635D522699AB313F00202D8F84B
:101E400000603DD00027D4F828B0D4F820C0DFF8D7
:101E5000CC923D464D452B463A4628BF4B466146FF
:101E60005046D5B1D847002840F3D280D8F8083082
:101E70001B1A07442D1AC8F80830002B00F0B78051
:101E8000D4F820C0D4F828B04D452B463A4628BF98
:101E90004B4661465046002DE4D1D6E90075083620
:101EA000D8E721465046FFF70DFD002840F030816D
:101EB000B4F90C30D8F800609BB213F00202C1D123
:101EC00013F0010940F0B080A76820684D46002D4E
:101ED00054D09A0540F1BC80AF42BB4600F2E78087
:101EE00013F4906F2FD0D4E9041707EB4707A0EB4A
:101EF000010B07EBD777681C7F105844B8423A466D
:101F000084BF07463A465B0540F1E98011465046DA
:101F1000FEF740FC002800F0F5805A462169019048
:101F2000FEF790FAA289019B22F4906242F08002AF
:101F3000A281A7EB0B0203EB0B006761236120601A
:101F4000A2602F46AB465A464946FEF715FBA268EB
:101F50002368D21B5B442F46A26023600025D8F87B
:101F60000830DB1BB944C8F80830002B3FD0B4F967
:101F70000C30A76820689BB2002DAAD1D6E9009545
:101F80000836A4E70BF1080353E902679B460833C0
:101F9000002FF9D03A460A21304600F039F90028DE
:101FA00053D00130A0EB06094B46D4E90412206857
:101FB000BB4228BF3B46884203D9A5681544AB42C3
:101FC00019DC9A427DDC1346A56A216A32465046E6
:101FD000A847051E1CDDB9EB05096BD00120D8F818
:101FE00008305B1B2E447F1BC8F8083013BB002051
:101FF00003B0BDE8F08F31462A46FEF7BDFA2368EC
:102000002B44236021465046FFF7A8FD0028E2D06C
:10201000B4F90C3043F040034FF0FF30A38103B01C
:10202000BDE8F08F002070473346914610461746B2
:102030004E469B46002FA5D00028B5D13A460A212E
:10204000304600F0E5F80028ABD17B1C9946ACE7A0
:102050002369834215D36169A94212D82E4BA76A1E
:102060009D4294BF2B466FF000434A4693FBF1F329
:10207000504601FB03F3216AB847071EC8DDED1B7C
:102080006DE7AF4228BF2F463A464946FEF774FA3D
:10209000A3682268DB1B3A44A3602260002BEED1C8
:1020A00021465046FFF75AFD0028E8D0B0E72F46FA
:1020B000AB4648E721465046FFF750FD00288ED03A
:1020C000A6E71A4631460193FEF756FA019BA1682E
:1020D0002268C91A1A44A16022601D467BE7504657
:1020E00000F0EAF8034600287FF423AF2169504648
:1020F000FEF7FAFAB4F90C300C2223F08003CAF888
:10210000002087E70C23CAF80030B4F90C3081E7CF
:102110004FF0FF306CE700BFFEFFFF7F00FCFF7F4A
:102120002DE9F04110F148071BD088460026D7E979
:102130000154013D0FD4A389012B05F1FF3506D9C8
:10214000B4F90E300133204601D0C04706436B1C62
:1021500004F16804EFD13F68002FE8D13046BDE8B4
:10216000F0813E463046BDE8F08100BF2DE9F843DE
:1021700010F148071FD0884606464FF00009D7E9FE
:102180000154013D11D4A389012B05F1FF3508D974
:10219000B4F90E3001332146304602D0C04749EA37
:1021A00000096B1C04F16804EDD13F68002FE6D1F3
:1021B0004846BDE8F883B9464846BDE8F88300BF05
:1021C00038B5074C002305460846236000F032FC72
:1021D000431C00D038BD2368002BFBD02B6038BDDA
:1021E0004427012070B50D46084C114606461A4694
:1021F00028460023236000F02DFC431C00D070BD56
:102200002368002BFBD0336070BD00BF4427012042
:1022100001F0FF01102A2BDB10F0070F08D010F897
:10222000013B013A8B422DD010F0070F42B3F6D19B
:10223000F0B441EA012141EA014122F007047FF0B4
:1022400000070023F0E80256083C85EA010586EA0B
:10225000010685FA47F5A3FA87F586FA47F6A5FA47
:1022600087F68EB9EED1F0BC01F0FF0102F0070253
:1022700032B110F8013B013A83EA010313B1F8D1FE
:102280000020704701387047002D06BF35460338DF
:10229000073815F0010F07D1013015F4807F02BF18
:1022A000013015F4C03F0130F0BC0138704700BF69
:1022B000704700BF704700BF09B3F8B51446CAB1F4
:1022C00006460D4600F0D8FAA04202D32F46384603
:1022D000F8BD21463046FEF75DFA07460028F6D0E5
:1022E00022462946FEF7AEF830462946FEF7FCF9AD
:1022F0003846F8BD2746FEF7F7F93846F8BD1146CF
:10230000FEF748BA2DE9F0478E681D46AE420C46EE
:102310000B68174636D88046888910F4906F0ED126
:10232000354618462A463946FEF726F9A26823683C
:10233000961B2B44A66023600020BDE8F087D1E9FE
:10234000041606EB4606A3EB010906EBD6766B1CDA
:1023500076104B44B342324684BF1E463246430594
:1023600012D511464046FEF715FA824600B34A469A
:102370002169FEF767F8A38923F4906343F0800393
:10238000A38106E02E46CCE74046FFF795FF824644
:1023900050B1A6EB09020AEB09036661C4F810A06C
:1023A0002360A2602E46BCE721694046FEF79CF9F7
:1023B0000C23C8F80030A38943F04003A3814FF0F9
:1023C000FF30BAE72DE9F04F936883B09046002BB9
:1023D0006DD017688D6882460C460868083743E060
:1023E000A38913F4906F2ED0D4E9041505EB4505AD
:1023F000A0EB010B05EBD5750BEB06006D10013062
:10240000A8422A4684BF05462A465B0536D51146B2
:102410005046FEF7BFF900283AD05A46216901908C
:10242000FEF710F8A289019B22F4906242F080022C
:10243000A281A5EB0B0203EB0B0065612361206019
:10244000A2603546B3465A464946FEF795F8D8F895
:102450000830A2682068551B58449E1BA560206068
:10246000C8F808601EB3083757E90296AB46002E3D
:10247000F9D0AE42B4D23546B346E4E75046FFF752
:102480001BFF03460028D4D121695046FEF72CF9E2
:102490000C23CAF80030A389002243F040034FF018
:1024A000FF30A381C8E9012203B0BDE8F08F00200E
:1024B000C8F8040003B0BDE8F08F00BF2DE9F04F6D
:1024C00090468A899FB014068B46029003D50A690C
:1024D000002A00F00B81059330238DF8323098F8F4
:1024E00000308E4E002120220B918DF831200127E3
:1024F000002B00F08480252B00F0F680454603E099
:10250000252B00F0868025466B786C1C002BF7D1BC
:10251000B4EB080A73D04246534659460298FFF777
:10252000F1FE01306BD00B9B6A7853440B93002A69
:1025300065D000234FF0FF3201340693CDE9083314
:102540008DF85B301C93079205E0069A07FA03F3B7
:1025500013432C4606932546052215F8011B3046E9
:10256000FFF756FEAA46831B0028EED1069BD9062C
:1025700044BF20228DF85B2021781A0744BF2B220C
:102580008DF85B202A2948D1059A11680432002968
:1025900005927EDB09916178A51C2E2956D0604CEE
:1025A00003222046FFF734FE002868D0001B069B5C
:1025B000402404FA00F00343069305F1010829784A
:1025C00058488DF830100622FFF722FE002866D00A
:1025D000554B002B56D005AB00935A46534B0298EF
:1025E00006A9AFF300808146B9F1FF3F07D00B9BEE
:1025F0004B440B9398F80030002B7FF47CAFBBF872
:102600000C305B0654BF0B984FF0FF301FB0BDE895
:10261000F08FB4EB080A8CD07DE7A1F13002092AD3
:1026200088BFA246B9D8099B01E02C46013529781C
:1026300003EB830302EB4303A1F13002092AAA460C
:10264000F3D92E2904F102050993A8D19AF80110B3
:102650002A292ED1059B9AF802101A680792043392
:10266000002A05930AF103050AF1020337DB2C4C1B
:10267000032220469A46FFF7CBFD002896D1A846B4
:1026800055469CE7059B073323F007030833059362
:10269000ADE7494243F00203099106937BE705AB9E
:1026A00000935A46214B029806A9FEF71FFB81466C
:1026B0009AE7A1F130020023092A079301D923E008
:1026C0005546697803EB830302EB4303A1F1300223
:1026D000092A05F1010AF3D9023507935FE74FF0A4
:1026E000FF329A4607925AE7444622E74021039375
:1026F000FEF750F8039BCBF80000CBF8100030B188
:102700004022CBF81420E6E6AA46013547E7029AB4
:102710000C2313604FF0FF3078E700BFB891010839
:10272000C0910108C49101080000000005230008C1
:1027300070B50D46084C114606461A462846002339
:10274000236000F08FF9431C00D070BD2368002B7C
:10275000FBD0336070BD00BF44270120C9B200F038
:102760000303002935D07BB10378002B57D0994261
:1027700052D0431C05E013F8012B002A4DD08A42A9
:102780004AD09A071846F6D170B441EA0126046887
:1027900046EA064601E050F8044F86EA0405A5F132
:1027A0000132A4F1013322EA050223EA04031343B0
:1027B00013F0803FEFD0037843B1994202D106E095
:1027C0008B4204D010F8013F002BF9D1184670BCA1
:1027D00070474BB10378FBB1431C02E00278013330
:1027E000D2B199071846F9D10268A2F1013323EA60
:1027F000020313F0803F08D150F8042FA2F10133F7
:1028000023EA020313F0803FF6D0037823B110F8D7
:10281000013F002BFBD170477047104670471846A8
:10282000704700BFC9B10278CAB1431C0144994244
:102830001A4616D010B41478013334B199421A46AE
:1028400007D014780133002CF8D1101A5DF8044B2E
:102850007047081A5DF8044B7047084670471046E9
:102860007047081A704700BF08B5062000F092F8BC
:10287000012000F015F900BF51F8043C181F002B8F
:10288000BCBF0B58C018704710B580210446FDF737
:1028900081FF606440B1031F00227C3043F8042FA5
:1028A0008342FBD1002010BD4FF0FF3010BD00BFB0
:1028B000436C0BB100207047E6E700BF1F2970B5DD
:1028C000054608D8436C16460C464BB153F8240015
:1028D00043F8246070BD162202604FF0FF3070BDD7
:1028E000FFF7D2FF08B96B6CF0E74FF0FF3070BD17
:1028F0001F2938B521D8426C05460C466AB152F8FA
:10290000213053B1012B16D0591C10D00025204680
:1029100042F824509847284638BD284600F070F801
:10292000224601462846BDE8384000F055B8162337
:102930000360012038BD002038BD162303604FF02E
:10294000FF3038BD1F2921D838B5436C05460C46E9
:1029500083B153F8242003EB84034AB1511C10D0F7
:10296000012A0CD0002520461D609047284638BD1E
:10297000012038BDFFF788FF28B96B6CE9E7032019
:1029800038BD022038BD4FF0FF3038BD4FF0FF306A
:10299000704700BF024B01461868FFF7A9BF00BF90
:1029A00000000020024B0A4601461868FFF786BF68
:1029B00000000020034B1868436C0BB100207047E7
:1029C00062E700BF00000020024B01461868FFF7D5
:1029D000B9BF00BF0000002038B50B46074C0546C4
:1029E000114618460023236000F02CF8431C00D049
:1029F00038BD2368002BFBD02B6038BD4427012055
:102A000000F010B8024B58221A604FF0FF307047A8
:102A100044270120024B58221A604FF0FF307047C4
:102A200044270120024B58221A604FF0FF307047B4
:102A300044270120024B58221A600020704700BF33
:102A400044270120024B58221A604FF0FF30704794
:102A500044270120024B58221A604FF0FF30704784
:102A600044270120024B58221A604FF0FF30704774
:102A700044270120044A05491368002B08BF0B4670
:102A80001844106018467047880300206828012009
:102A9000024B58221A604FF0FF3070474427012044
:102AA000FEE700BF70B54FF0FF0C4CF4E06C1CEA81
:102AB00011541DBF1CEA135594EA0C0F95EA0C0F34
:102AC00000F0DEF82C4481EA030621EA4C5123EAA7
:102AD0004C5350EA013518BF52EA033541F48011D6
:102AE00043F4801338D0A0FB02CE4FF00005E1FB89
:102AF00002E506F00042E0FB03E54FF00006E1FBD3
:102B000003569CF0000F18BF4EF0010EA4F1FF0415
:102B1000B6F5007F64F5407404D25FEA4E0E6D4155
:102B200046EB060642EAC62141EA55514FEAC52066
:102B300040EA5E504FEACE2EB4F1FD0C88BFBCF5E2
:102B4000E06F1ED8BEF1004F08BF5FEA500E50F193
:102B5000000041EB045170BD06F0004646EA010159
:102B600040EA020081EA0301B4EB5C04C2BFD4EB8B
:102B70000C0541EA045170BD41F480114FF0000E84
:102B8000013C00F3AB8014F1360FDEBF002001F0F2
:102B9000004170BDC4F10004203C35DA0C341BDC6C
:102BA00004F11404C4F1200500FA05F320FA04F03E
:102BB00001FA05F240EA020001F0004221F0004172
:102BC00010EBD37021FA04F642EB06015EEA430EE5
:102BD00008BF20EAD37070BDC4F10C04C4F1200515
:102BE00000FA04F320FA05F001FA04F240EA0200C8
:102BF00001F0004110EBD37041F100015EEA430E99
:102C000008BF20EAD37070BDC4F1200500FA05F2B8
:102C10004EEA020E20FA04F301FA05F243EA020337
:102C200021FA04F001F0004121FA04F220EA020046
:102C300000EBD3705EEA430E08BF20EAD37070BD8C
:102C400094F0000F0FD101F00046400041EB01016C
:102C500011F4801F08BF013CF7D041EA060195F04E
:102C6000000F18BF704703F00046520043EB030308
:102C700013F4801F08BF013DF7D043EA06037047F5
:102C800094EA0C0F0CEA135518BF95EA0C0F0CD000
:102C900050EA410618BF52EA4306D1D181EA030146
:102CA00001F000414FF0000070BD50EA410606BF40
:102CB0001046194652EA430619D094EA0C0F02D185
:102CC00050EA013613D195EA0C0F05D152EA0336CA
:102CD0001CBF104619460AD181EA030101F00041E8
:102CE00041F0FE4141F470014FF0000070BD41F031
:102CF000FE4141F4780170BD81F0004102E000BF67
:102D000083F0004330B54FEA41044FEA430594EAAB
:102D1000050F08BF90EA020F1FBF54EA000C55EAE6
:102D2000020C7FEA645C7FEA655C00F0E2804FEAB7
:102D30005454D4EB5555B8BF6D420CDD2C4480EA99
:102D4000020281EA030382EA000083EA010180EAC9
:102D5000020281EA0303362D88BF30BD11F0004F17
:102D60004FEA01314FF4801C4CEA113102D040424D
:102D700061EB410113F0004F4FEA03334CEA133388
:102D800002D0524263EB430394EA050F00F0A780A0
:102D9000A4F10104D5F1200E0DDB02FA0EFC22FA9B
:102DA00005F2801841F1000103FA0EF2801843FA8F
:102DB00005F359410EE0A5F120050EF1200E012A80
:102DC00003FA0EFC28BF4CF0020C43FA05F3C018BE
:102DD00051EBE37101F0004507D54FF0000EDCF137
:102DE000000C7EEB00006EEB0101B1F5801F1BD3E0
:102DF000B1F5001F0CD349085FEA30004FEA3C0CE4
:102E000004F101044FEA445212F5800F80F09A80D9
:102E1000BCF1004F08BF5FEA500C50F1000041EBDD
:102E2000045141EA050130BD5FEA4C0C404141EBE1
:102E30000101013C28BFB1F5801FE9D291F0000FDC
:102E400004BF01460020B1FA81F308BF2033A3F18B
:102E50000B03B3F120020CDA0C3208DD02F1140C82
:102E6000C2F10C0201FA0CF021FA02F10CE002F1BD
:102E70001402D8BFC2F1200C01FA02F120FA0CFCB6
:102E8000DCBF41EA0C019040E41AA2BF01EB0451FF
:102E9000294330BD6FEA04041F3C1CDA0C340EDCFD
:102EA00004F11404C4F1200220FA04F001FA02F340
:102EB00040EA030021FA04F345EA030130BDC4F1FE
:102EC0000C04C4F1200220FA02F001FA04F340EAF3
:102ED0000300294630BD21FA04F0294630BD94F0A4
:102EE000000F83F4801306BF81F480110134013D8B
:102EF0004EE77FEA645C18BF7FEA655C29D094EAFC
:102F0000050F08BF90EA020F05D054EA000C04BF79
:102F10001946104630BD91EA030F1EBF0021002064
:102F200030BD5FEA545C05D14000494128BF41F003
:102F3000004130BD14F580043CBF01F5801130BD67
:102F400001F0004545F0FE4141F470014FF00000F2
:102F500030BD7FEA645C1ABF194610467FEA655CA3
:102F60001CBF0B46024650EA013406BF52EA033545
:102F700091EA030F41F4002130BD00BF90F0000F33
:102F800004BF0021704730B54FF4806404F132046F
:102F90004FF000054FF0000150E700BF90F0000F28
:102FA00004BF0021704730B54FF4806404F132044F
:102FB00010F0004548BF40424FF000013EE700BF1F
:102FC00042004FEAE2014FEA31014FEA02701FBFAF
:102FD00012F07F4393F07F4F81F06051704732F0E1
:102FE0007F4208BF704793F07F4F04BF41F4002138
:102FF000704730B54FF4607401F0004521F0004196
:103000001CE700BF50EA010208BF704730B54FF01F
:1030100000050AE050EA010208BF704730B511F020
:10302000004502D5404261EB41014FF4806404F158
:1030300032045FEA915C3FF4D8AE4FF003025FEADE
:10304000DC0C18BF03325FEADC0C18BF033202EB62
:10305000DC02C2F1200300FA03FC20FA02F001FABC
:1030600003FE40EA0E0021FA02F11444BDE600BF5F
:103070004A0011D212F5001211D20DD56FF47873F7
:10308000B3EB62520ED44FEAC12343F0004343EA4C
:10309000505323FA02F070474FF00000704750EA97
:1030A000013002D14FF0FF3070474FF00000704701
:1030B00053B94AB9002908BF00281CBF4FF0FF319F
:1030C0004FF0FF3000F06EB9ADF1080C6DE904CEA1
:1030D00000F006F8DDF804E0DDE9022304B07047F3
:1030E0002DE9F047089D04468C46002B40F0838074
:1030F0008A42174647D9B2FA82F242B1C2F12000A1
:1031000024FA00F09140974040EA010C94404FEAC5
:103110001748230CBCFBF8F61FFA87FE08FB16C104
:1031200043EA014306FB0EF1994209D9FB1806F167
:10313000FF3080F01981994240F21681023E3B44F3
:103140005B1AA4B2B3FBF8F008FB103344EA034463
:1031500000FB0EFEA64509D93C1900F1FF3380F0B3
:103160000581A64540F2028102383C4440EA06400F
:10317000A4EB0E0400261DB1D4400023C5E9004392
:103180003146BDE8F08702B9FFDEB2FA82F2002ACA
:1031900050D1CB1B4FEA174E1FFA87F80126B3FB1D
:1031A000FEFC210C0EFB1C3341EA034108FB0CF32F
:1031B0008B4207D979180CF1FF3002D28B4200F212
:1031C000E9808446C91AA3B2B1FBFEF00EFB1011D0
:1031D00043EA014408FB00F8A04507D93C1900F177
:1031E000FF3302D2A04500F2D9801846A4EB0804B0
:1031F00040EA0C40BFE78B4209D9002D00F0B180B6
:103200000026C5E9000130463146BDE8F087B3FA33
:1032100083F6002E4AD18B4202D3824200F2B8805C
:10322000841A61EB030101208C46002DA8D0C5E96A
:10323000004CA5E7C2F1200320FA03F6974001FAFB
:1032400002F04FEA174ED9403043030CB1FBFEF6B3
:103250001FFA87F80EFB161143EA014306FB08F13B
:10326000994204FA02F409D9FB1806F1FF3C80F0F8
:103270008D80994240F28A80023E3B445B1A81B2C3
:10328000B3FBFEF00EFB103341EA034100FB08F3F1
:103290008B4207D9791800F1FF3C73D28B4271D968
:1032A00002383944CB1A40EA064678E7C6F1200CCA
:1032B00003FA06F422FA0CF31C4320FA0CF701FA85
:1032C00006F34FEA144E21FA0CF11F433B0CB1FBFD
:1032D000FEF91FFA84F80EFB191143EA014109FBBC
:1032E00008FA8A4502FA06F200FA06F308D96118CC
:1032F00009F1FF3048D28A4546D9A9F10209214493
:10330000A1EB0A01BFB2B1FBFEF00EFB101147EAC0
:10331000014700FB08F8B84507D9E71900F1FF316C
:103320002ED2B8452CD90238274440EA0940A7EBF1
:103330000807A0FB02894F45C64649461AD317D055
:103340005DB1B3EB0E0267EB010707FA0CFCF2402C
:103350004CEA0202F740C5E9002700263146BDE8E5
:10336000F0872E4628460BE70646E9E61846FDE6B6
:103370004345E5D2B8EB020E69EB04010138DFE703
:103380000846D2E760468DE78146B9E7664675E7AD
:1033900030464AE7ACF1020C394413E702383C44AA
:1033A00024E700BF704700BF014B1878704700BF8B
:1033B0008C040020014B9878704700BF8C040020DB
:1033C00070B50C460546D8B1FCB1237813BB2B462B
:1033D000214620351E685C689868DA680E604C608B
:1033E0008860CA6010331031AB42F3D118685A6854
:1033F00008604A601A899B7A0A818B72002070BD2E
:10340000A821064800F04EFFDEE7A921034800F09E
:1034100049FFDAE74FF0FF30F1E700BF94590108A8
:1034200038B50C46154670B194B1B5B14FF6FF7181
:10343000204601F0BFFB012814D1294604F1080001
:10344000FFF7BEFF38BDC321084800F02BFFEBE7B4
:10345000C421064800F026FFE7E7C521034800F035
:1034600021FFE3E74FF0FF30ECE700BF945901087C
:10347000F8B50C460546C0B1E4B12378A67846EA13
:1034800003264FF6FF71284601F094FB012816D160
:103490006988284600F082FF07463146284601F039
:1034A0009AFB01280ED03846F8BDE221124800F000
:1034B000F9FEE1E7E321104800F0F4FEDDE74FF00C
:1034C000FF37EAE705F10803214628351E685C68E6
:1034D0009868DA680E604C608860CA6010331031FA
:1034E000AB42F3D118685A6808604A601A899B7A1F
:1034F0000A818B72D7E700BF9459010870B594B068
:103500000C461546064650B174B195B1244B1B7854
:10351000A3B1012B3AD00024204614B070BD7D2108
:10352000204800F0BFFEEFE77E211E4800F0BAFE03
:10353000EBE77F211B4800F0B5FEE7E72A4621466E
:103540003046FFF76DFF044630BB174B186808F094
:1035500031FB502200216846FDF776F8882340F2BF
:10356000322212496846FDF7EBFD6846FDF788FEFA
:10357000337872780E496844FDF7E2FD684600F042
:103580006DFE074A137801331370C5E729462046BC
:10359000FFF76EFF0024BFE74FF0FF34BCE700BF2A
:1035A0008A04002094590108B8920020DC590108CF
:1035B000F0590108F0B595B0074628B35022002114
:1035C0006846FDF741F86B2340F232221149684604
:1035D000FDF7B6FD6846FDF753FE06460DEB000508
:1035E0000D4C0FCC4DF806006960AA60EB6007CC6B
:1035F00028616961AA61684600F030FE7988384622
:1036000000F016FF15B0F0BD6621044800F04AFE38
:10361000D4E700BFDC590108085A01089459010891
:103620002DE9F04707460E461D4691460AB3FFF7BF
:10363000BBFE8246FFF7BEFE114C44F227432380B7
:1036400005F10A08A4F8028040EA0A20A080E78079
:1036500026722A46494604F10900FCF7F3FE05F1FB
:103660000901204601F0C8FA254468722046BDE8E9
:10367000F08740F24311034800F014FED7E700BF83
:103680008C0300209459010810B582B0044630B173
:10369000054A214601A8FFF731FF02B010BD2621DF
:1036A000024800F0FFFDF3E78C0400209459010864
:1036B00010B5044628B1074B1B783BB94FF0FF30DB
:1036C00010BD3821044800F0EDFDF4E72046FFF777
:1036D00071FFF3E78C0400209459010870B5164C73
:1036E0000025257065700126A670284600F00AFEA8
:1036F000C4F80300304600F005FEC4F807000220BD
:1037000000F000FEC4F80B004FF0FF33E3732374A6
:103710006374A374E37423756375A375E3752376EB
:103720006376A376C4F81B50C4F81F50C4F8235026
:10373000C4F8275070BD00BF8C04002070B594B051
:10374000502200216846FCF77FFF40F2111340F23F
:10375000322218496846FDF7F3FC6846FDF790FDF4
:1037600006460DEB0005144C0FCC4DF806006960C1
:10377000AA60EB6003CC28616961684600F06EFDC9
:103780000E4B1B785BB92B230C4A01214FF6FF70BF
:10379000FFF746FF418800F04BFE14B070BD2B23AD
:1037A000064A01210420FFF73BFF418800F040FE5C
:1037B000F3E700BFDC590108245A01088C040020FB
:1037C00038B50C46054660B1F52C10D8E3B22A4650
:1037D00002214FF60170FFF723FF418800F028FE19
:1037E00038BD4FF49471034800F05CFDECE74FF0F6
:1037F000FF30F5E79459010808B5094B1B78012BF8
:103800000BD001221146074803F09CFF01F04AFE4D
:10381000034B01221A70FD2008BDFE20FCE700BF0B
:10382000B80400200008024008B5074B00225A7077
:1038300004F09AFAB0F5FA6F01D8FD2008BD034BE9
:10384000186807F0E0FFF8E7B8040020A492002011
:103850004FF47A7070470000F0B595B0FFF7F8FFAD
:10386000744B5B78012B00F0E2800546724B93F8B5
:10387000313013F0040F02D1FE2015B0F0BD6E48B8
:1038800010F014F800221146202009F0D7FF6B4BEE
:103890001860002800F0A680502200216846FCF73E
:1038A000D3FE4E2340F2222265496846FDF748FCCC
:1038B0006846FDF7E5FC07460DEB0006614C0FCCB2
:1038C0004DF807007160B260F36003CC3061716144
:1038D00023883383684600F0C1FC584CAAB25A4989
:1038E00020680AF029F823680A221A62002852D1B7
:1038F000502200216846FCF7A7FE522340F2222204
:103900004F496846FDF71CFC6846FDF7B9FC0646C2
:103910000DEB00054D4C0FCC4DF806006960AA6018
:10392000EB6020682861684600F098FC414B01225A
:103930005A70474A117853781B0443EA016391781F
:1039400043EA0123D1780B431A0202F47F0242EAD0
:103950000162190A01F47F410A4342EA13633D4AB6
:1039600013603D4A117853781B0443EA0163917850
:1039700043EA0123D1780B431A0202F47F0242EAA0
:103980000162190A01F47F410A4342EA1363334A90
:103990001360FD2071E7502200216846FCF754FEB9
:1039A000582340F2222226496846FDF7C9FB6846A3
:1039B000FDF766FC06460DEB0005294C0FCC4DF8D3
:1039C00006006960AA60EB6003CC28616961237816
:1039D0002B76684600F042FC184B186809F09CFFF3
:1039E000FE204AE7502200216846FCF72DFE5D23A9
:1039F00040F2222212496846FDF7A2FB6846FDF715
:103A00003FFC06460DEB0005164C0FCC4DF80600AA
:103A10006960AA60EB6003CC286169612288A378A1
:103A20002A83AB76684600F019FCFE2025E7FD20CE
:103A300023E700BFB8040020D0930020008B0020B3
:103A4000DC5901083C5A01082C8D0108585A01081C
:103A500064000020F88A002068000020FC8A002012
:103A60006C5A0108885A010841F2A630704741F2A9
:103A70009C30704741F292307047000008B5094B06
:103A80009B78012B01D1FD2008BD074B186807F07A
:103A9000BAFE064B186807F0B6FE024B01229A7078
:103AA000F1E700BFB8040020C4920020A4920020D7
:103AB0002A4B5B78012B4FD12DE9F04FA9B00021A3
:103AC0000F91602210A8FCF7BFFD254B1B681BB9A6
:103AD000FD2029B0BDE8F08F224B1C785D789E78E0
:103AE000DF78FFF7C4FF0B90FFF7BEFF0C90FFF7E6
:103AF000C1FF0D901C4B93F8008093F8019093F850
:103B000002A093F803B0FFF7A3FE0990CDF820B010
:103B1000CDF81CA0CDF81890CDF814800D9A049221
:103B20000C9A03920B9B0293019700962B46224618
:103B30000E490FA8FDF704FB0FA8FDF7A1FB0146F6
:103B4000BDF82C300A4A0FA800F06EFF044A136833
:103B5000013B1360FD20BCE7FE207047B804002045
:103B60006C0000206400002010940020A45A01087A
:103B7000FC8A002070B5D6B000241694FC222146A1
:103B800017A8FCF761FD502221466846FCF75CFD52
:103B9000C32340F221225E496846FDF7D1FA684608
:103BA000FDF76EFB06460DEB00055A4C0FCC4DF8A9
:103BB00006006960AA60EB6003CC28616961238814
:103BC0002B83684600F04AFB5348FDF759FB3B281E
:103BD00031D8502200216846FCF736FDC42340F25C
:103BE00021224B496846FDF7ABFA6846FDF748FBD2
:103BF00049496844FDF7A4FA684600F02FFB47489E
:103C0000FDF73EFB3B281AD8502200216846FCF7FE
:103C10001BFDC52340F221223D496846FDF790FA7D
:103C20006846FDF72DFB3D496844FDF789FA684673
:103C300000F014FB28E03A4800F010FBDFE73848BA
:103C400000F00CFB20E0502200216846FCF7FCFC51
:103C5000D22340F221222E496846FDF771FA6846C8
:103C6000FDF70EFB06460DEB00052E4C0FCC4DF874
:103C700006006960AA60EB6023882B82684600F02A
:103C8000EDFA012007F0CEFD2749284B186809F00E
:103C9000A5FF0028F5D14FF48072002116A8FCF78B
:103CA000D3FC0DF1520215A91F4B186809F040FD15
:103CB0000028C8D1BDF852208DF8582015990DF173
:103CC0005900FCF7BFFB502200216846FCF7BCFC02
:103CD000CE2340F221220E496846FDF731FA6846AC
:103CE000FDF7CEFABDF8522011496844FDF728FAD5
:103CF000684600F0B3FA0123002216A90D480068B7
:103D000007F0E4FF084B186809F0D3FCB9E700BFDF
:103D1000DC590108FC5A01088800002070000020CE
:103D2000185B01083C5B0108BC040020008B0020EC
:103D3000285B0108BC92002030B5ADF5617D01AC77
:103D4000324D0FCD0FC495E8030044F8040B2170E9
:103D50001EE000230F2B0BD860AA32F813100A0ABA
:103D600002EB012207A921F813200133DBB2F1E7AE
:103D7000202107A800F000FE13E060A8FDF780FAFC
:103D8000014660A800F024FE14E0012007F04AFD7F
:103D900000231A4660A91E48006807F0D9FF0028D2
:103DA000D7D000231A4660A91A48006807F0D0FF50
:103DB0000028E2D000231A4660A91748006807F0DF
:103DC000C7FF0028E1D1154960A8FDF745FC002890
:103DD000DBD0FF22002120A8FCF736FC01A8FDF76C
:103DE0004FFA024601A920A8FDF714FA20A8FDF712
:103DF00047FA014641F29233094A20A800F014FE26
:103E0000642007F00FFD03F077FFBEE7585B010861
:103E1000CC920020AC920020BC920020505B0108A4
:103E2000F88A002008B500F03BFFFF2803D0034BC1
:103E300033F8100008BD014B1888FBE758620108F1
:103E400010B5084800F025FF38B9064C214600F0AF
:103E500018FF2046FFF7E6FF10BD0248FFF7E2FF1C
:103E6000FAE700BFCC04002008B501210F4B186809
:103E700007F03AFD00F0A8F903E04FF49D7007F059
:103E8000D1FC0B4804F012FD4FF48041094803F0C7
:103E90005FFC0821084803F05BFC00F019FB074BAE
:103EA0001B688342E9D0054B1860E6E7A892002022
:103EB000949300200010024000000240C40400203F
:103EC00008B5054B054A0649064800F0CFFEFFF746
:103ED000B7FF07F0A7FCFAE7DC5B0108D45B010839
:103EE000DC040020CC040020F0B59BB00023199323
:103EF0006F4C204600F01CFB04F10C030FCB8DE847
:103F00000F0094E80E006B4800F0CAFC051E46DB6B
:103F100005AE502200213046FCF796FB912340F677
:103F2000FF7265493046FDF70BF93046FDF7A8F9F9
:103F300084463718614C0FCC46F80C007960BA60A3
:103F4000FB6023783B74304600F088F978E050221B
:103F5000002105A8FCF778FB8B2340F6FF72564939
:103F600005A8FDF7EDF805A8FDF78AF92A4654499A
:103F700005AB1844FDF7E4F805A800F06FF94FF41D
:103F80007A7007F04FFC4A4C04F10C030FCB8DE81C
:103F90000F0094E80E00474800F082FC0546002D13
:103FA000D5DB05AE502200213046FCF74DFB8F23B8
:103FB00040F6FF7240493046FDF7C2F83046FDF743
:103FC0005FF9844637183D4C0FCC46F80C007960F9
:103FD000BA60FB6023783B74304600F03FF92FE075
:103FE00000BF0134E4B20F2C19D819A9314B18685D
:103FF00000F012FC0546199800F00F0610F0F00FC3
:10400000EED1000AFEF7BAFF27A3D3E90023FEF79B
:1040100049FDFFF72DF82B4B23F81600E0E72A4B5C
:104020001B68AB420ED10021284B186807F08EFDAB
:1040300018BB20212348FFF7C3FB022007F0F2FB47
:104040000024D0E7204B1D605022002105A8FCF77A
:10405000FBFAAB2340F6FF72174905A8FDF770F88D
:1040600005A8FDF70DF92A46194905AB1844FDF7D7
:1040700067F805A800F0F2F8D5E7164B93F9003081
:10408000032B03DC0133134A1370D6E7012300220C
:104090000C491148006807F019FE0E4B00221A70F7
:1040A000CBE700BFAFF3008028B858518369583F71
:1040B000088B0020048B0020DC5901088C5B010870
:1040C000705B010800050020C8040020B8920020A1
:1040D000A05B0108FC040020CC92002000B5D5B004
:1040E00000211491FC2215A8FCF7AEFAFFF7F6FAAE
:1040F0002C480268D36843F01003D3602A4C22682E
:10410000D36843F01003D3604FF48072274905F061
:1041100003FB4FF480722649204605F0FDFA22E0A9
:10412000502200216846FCF78FFAD12340F2322258
:1041300020496846FDF704F86846FDF7A1F89DF8A8
:1041400052201D496844FCF7FBFF684600F086F8E2
:1041500014A8FFF799FA0FE014A8FFF7A9FA14E0E2
:10416000022007F05FFB00231A4614A913480068D9
:1041700007F0EEFD0028D3D000231A4614A91048FA
:10418000006807F0E5FD0028E6D00E4A1388591CA8
:104190001180B3F5FA7FE3D3FFF7D0FA094B002281
:1041A0001A80DDE77CC80020C0C80020248B0020D6
:1041B000248C0020DC590108BC5B0108D49200204B
:1041C000D8920020C004002070B582B0154C164E65
:1041D00040F27E452A4631462046FCF733F94FF43B
:1041E0007A7300932B4622460021A02000F046FC63
:1041F0002A4631462046FCF7F5F858B94FF47A7351
:10420000009340F27E43074A0021A02000F036FCD4
:1042100002B070BD4FF47A722946204600F0BEFC11
:10422000ECE700BF248E00209C5C01080020704752
:104230000020704708B507F0E3FE002008BD00002D
:10424000024A136801331360704700BF2005002045
:10425000014B1868704700BF2005002010B59EB0C4
:104260000446782200216846FCF7EEF9FFF7F0FFDC
:1042700002460A496846FCF763FF6846FDF700F806
:10428000002221466844FCF75BFF0A2300226946AE
:104290000348006807F01AFD1EB010BD145C010849
:1042A000AC92002070B5A8B006460D465022002101
:1042B0000DEB0200FCF7C8F92F213046FDF74EF850
:1042C0000446502200216846FCF7BEF9952340F2CF
:1042D000FF220A496846FCF733FF6846FCF7D0FF27
:1042E0002B46621C06496844FCF72AFF6846FFF724
:1042F000B5FF4FF47A7007F095FADDE7DC59010855
:104300001C5C010808B520B1012805D0022806D0A0
:1043100008BD03F043FDFBE703F046FDF8E703F0BB
:1043200049FDF5E708B501464FF48072034805F0F2
:10433000F3F900B908BD4FF0FF30FBE77CC800205F
:10434000124B1B681B6813F0100F00D1704730B57B
:1043500083B00E4D284604F0BFFE0D4B1B685B6812
:104360000C4C00231A4621460B48006807F0AEFCAF
:10437000002301932A681168019152680192019A01
:1043800023602046FFF7CEFF03B030BD7CC800207D
:104390001CC80020248B0020D892002008B58AB2C7
:1043A0000146044804F04AFE00B908BD4FF0FF3052
:1043B000FBE700BF7CC8002008B501464FF48072BF
:1043C000034805F0A9F900B908BD4FF0FF30FBE73D
:1043D000C0C80020124B1B681B6813F0100F00D1DF
:1043E000704730B583B00E4D284604F075FE0D4B76
:1043F0001B685B680C4C00231A4621460B4800687A
:1044000007F064FC002301932A6811680191526847
:104410000192019A23602046FFF7CEFF03B030BD22
:10442000C0C80020FCC60020248C0020D4920020AC
:1044300008B58AB20146044804F000FE00B908BD80
:104440004FF0FF30FBE700BFC0C8002000B583B0CD
:10445000009393B20A460146044811F012F910B9CC
:1044600003B05DF804FB4FF0FF30F9E74C27012063
:1044700030B583B00C4615460022009201924FF4ED
:104480000041124803F05EF90A232A466946204695
:10449000FFF7DCFF68B92A4669462046FBF7D2FFE2
:1044A00001224FF40041094803F04CF9002003B009
:1044B00030BD012007F0B6F901224FF40041034856
:1044C00003F040F94FF0FF30F1E700BF0000024079
:1044D00010B586B0002203920492CDF81320402339
:1044E0008DF80C3002238DF817300F4C4FF400413B
:1044F000204603F027F90A2300939DF817300DF1A9
:104500000F0203A9094811F0BCF801224FF4004141
:10451000204603F017F99DF90F30002B02DB002035
:1045200006B010BD0120FBE7000002404C2701202F
:1045300070B5064658B13446074D0FCD0FC42B68F1
:104540002360064B736140233376002070BDB52194
:104550000348FFF7A7FEEEE77C5C0108A4000020FB
:10456000345C010830B4054688B144688CB100233E
:104570002A7A9A420AD903EB430204EB820054F8E8
:1045800022208A4203D00133DBB2F1E7002030BCA5
:1045900070472046FBE7000000B583B00346094A98
:1045A00092E8030002AA02E903003BB1082269462F
:1045B000186800F0DCF903B05DF804FB4FF0FF3041
:1045C000F9E700BF905C010870B505460221FFF7CE
:1045D000C9FF064604212846FFF7C4FF0446B388F6
:1045E0000322826013F0010F01D00222826013F0D7
:1045F000400F02D0A3680133A36007212846FFF7CC
:10460000B1FF436823F00F031B041B0C44F6D07268
:10461000934201D0002070BDA3680133A360F9E785
:1046200010B40446002013E04000C0B280F0070040
:104630005B0853B122781A4214BF01220022B2EB68
:10464000D01FF1D14000C0B2F2E701340139C9B244
:1046500009B18023EDE75DF8044B704770B582B077
:1046600002460B46204903C902AC04E90300002AB4
:1046700034D0154619461046FFF774FF014680B343
:10468000036803F03F038DF80030426800238C6814
:10469000A34208DAE41A02A8044404F8082C12120F
:1046A0000133DBB2F3E76E7A4EB9286896B1A2B255
:1046B000023292B2694600F05AF902B070BD611C34
:1046C000C9B26846FFF7ACFF631C02AA134403F8A3
:1046D000080CEAE7A2B2013292B2EBE74FF0FF30EA
:1046E000EBE74FF0FF30E8E72859010803460020C8
:1046F00029B113F8012B50400139C9B2F8E77047CE
:1047000070B584B004460A46424B93E8030004ADFA
:1047100005E903006D4685E80300002C70D02646AD
:1047200011462046FFF71EFF044600286BD00368A1
:1047300003F03F0343F040038DF808303068737A8C
:104740009BB12289023292B202A900F010F9051E33
:1047500053DB767A012E0CD00020022E24D00028C4
:1047600054D100236360012244E02289013292B2D5
:10477000EAE7236803F03F0343F040038DF800307D
:10478000334607E004AA1A4412F8081C02F8101C69
:104790000133DBB2A1684A1C9A42F3DA0231C9B292
:1047A0006846FFF73DFFD8E7236803F03F0343F077
:1047B00040038DF80030012307E004AA1A4412F8E0
:1047C000081C02F8101C0133DBB2A1684A1C9A4293
:1047D000F3DA0231C9B26846FFF788FFBFE76368C2
:1047E0001B02636004A9114411F8081C0B446360A8
:1047F0000132D2B2A3689342F1DA284604B070BD08
:104800004FF0FF35F9E74FF0FF35F6E76FF00105A0
:10481000F3E700BF28590108A8B1F8B50E460546D0
:1048200043689BB10421FFF79DFE074688B12846E7
:10483000FFF7CAFE044604212846FFF761FF204324
:104840007B683360F8BD4FF0FF3070474FF0FF30AA
:10485000F8E74FF0FF30F5E7C8B110B504464368FC
:10486000C3B10221FFF77EFEB8B1436813F0080020
:1048700003D001236372002010BD13F0040302D0A3
:1048800002236372F8E7002262721846F4E74FF0E1
:10489000FF3070474FF0FF30EEE74FF0FF30EBE7AF
:1048A00084B038B5054605AC84E80E000C2007F04E
:1048B00029FB0446142007F025FB002C42D00A9B5C
:1048C00063609DF82C30237220602C6005A920467F
:1048D00000F03BF8002831DB2046FFF75DFE0028A2
:1048E0002CDB01212046FFF7B9FE002826DB022140
:1048F0002046FFF7B3FE002820DB2046FFF7ACFF81
:1049000000281BDB06212046FFF72CFE054618B9C0
:104910004FF0FF3012E00C3565B12968302909D01D
:104920000729F8D0C9B22046FFF798FE002801DB1E
:104930000C35F1E707212046FFF7E2FEBDE83840DD
:1049400004B070474FF0FF30F8E751B138B5044676
:104950000D46CB681B68984730B92368EA68DA606F
:1049600038BD4FF0FF3070474FF0FF30F8E708B523
:10497000C3685B68984708BD114B5B78012B1BD15E
:1049800070B506460C4608F087FE0E4D2860A1B2B1
:1049900008F0A0FE2C6823685E600B4B1E68FFF7D2
:1049A00063F883B2094A2146304609F009F82868BD
:1049B00008F07FFE002070BD4FF0FF30704700BF51
:1049C000B804002024050020008B0020F88A002075
:1049D000114B5B78012B1BD170B506460C4608F0D5
:1049E0005BFE0E4D2860A1B208F074FE2C682368AF
:1049F0005E600B4B1E68FFF73AF883B2094A214606
:104A0000304608F0DDFF286808F053FE002070BD36
:104A10004FF0FF30704700BFB80400202805002089
:104A2000008B0020F88A00202DE9F0411446104A3E
:104A30005278012A19D1074688461E4608F02CFEF6
:104A40000C4D28601FFA88F108F044FE29680B68B5
:104A50005F60334622460848006808F0B1FF2868C6
:104A600008F027FE0020BDE8F0814FF0FF30FAE7A4
:104A7000B80400202C050020008B00202DE9F04F09
:104A800087B082460F4691469846DDF840B0002335
:104A90001E4605931A464FF48071194802F052FEE3
:104AA0003D4603E00136F6B2022E1FD807EB08039D
:104AB0009D421BD205F03F02EB1BA8EB030411192A
:104AC000402901D9C2F14004A4B2CDF808B0019444
:104AD0004B44009310232A4651460A4803F048FDF0
:104AE00005900028DED12544ADB2DDE701224FF468
:104AF0008071034802F026FE059807B0BDE8F08FEC
:104B000000080240EC9200202DE9F04F87B0824669
:104B10000F4691469846DDF840B000231E460593A7
:104B20001A464FF480711B4802F00CFE3D4611E01E
:104B3000A4B2CDF808B001944B44009310232A4648
:104B40005146154803F062FC059090B10136F6B26B
:104B5000022E14D807EB08039D4210D205F03F0245
:104B6000EB1BA8EB030411194029E1D9C2F1400461
:104B7000DEE7062006F056FE2544ADB2E8E7012246
:104B80004FF48071034802F0DDFD059807B0BDE8E1
:104B9000F08F00BF00080240EC92002000B583B007
:104BA0000B46009202460021A020FFF7ADFF03B0A4
:104BB0005DF804FB38B504460D46418800F036F830
:104BC00020B9E3882B4203D0207A02E000B201E052
:104BD000002000B238BD38B504460D46418800F0CB
:104BE00025F820B9A3882B4203D0207A02E000B236
:104BF00001E0002000B238BD38B50D46044658B17A
:104C00000020691E6DB1234613F8012B4240054870
:104C1000805C0D461C46F4E7C9210348FFF742FBC0
:104C2000EEE738BD586101081C61010838B50D4632
:104C3000044658B10021681E6DB1234613F8012BBC
:104C40004A400849895C05461C46F4E7DC210648D1
:104C5000FFF728FBEEE709B9002038BD4FF0FF3021
:104C6000FBE700BF586101081C61010830B404462D
:104C700000202070FF2565706160A260E36030BC99
:104C8000704701230B7000224A704B6818809A709D
:104C900070474378FF2B01D00120704700207047F8
:104CA0002DE9F8430546002707704078FF2870D0AB
:104CB0006C6804EB80044FF00108FF2023E06B7860
:104CC00001336B70C7F30E0324F8043F0023A37075
:104CD000012E10D1AB68228853F82220A37803EB71
:104CE000430302EB430932F8137032F91330002BFF
:104CF000E5DB0026ECE7EB6853F827309847FF2800
:104D000006D1FE20B046B8F1010F42D14646DFE79A
:104D1000FD2805D099F8041099F80500C44625E04F
:104D200099F8021099F80300F8E76B7823B9FF228D
:104D30006A709C46984619E0013B6B70AB6834F88A
:104D4000041D53F82110A37803EB430301EB43093F
:104D50007F2A04D099F8041099F8050006E099F824
:104D6000021099F8030001E0C446B046B8F1010F03
:104D70000DD101F07F02A2F17E03DBB2012BD4D969
:104D8000A27011F0800FEFD1B446B046EEE7664650
:104D9000B8E7BDE8F883000030B595B030220021B7
:104DA00008A8FBF751FC002403940494059406948E
:104DB000079401941C4B1A6C42F080521A641B6CCD
:104DC00003F080530193019B0294184B1A6842F43C
:104DD00080421A601B6803F480430293029B0923FC
:104DE00008934FF48033099301230D9302250E9508
:104DF0004FF480030F9304231093A822119212956D
:104E0000139308A802F05EF80F230393049505940A
:104E10004FF4A05306934FF480530793052103A842
:104E200002F0B2FA15B030BD003802400070004008
:104E300008B502F073FFFFF7AFFF00F031F800F0A4
:104E40001BF900F01BFB00F07DFF00F059FA00F0A9
:104E5000A1FF00F0CFFE00F097FE00F03BFF00F056
:104E600001FF00F0BFFF00F069FA10F075FA01F0E1
:104E7000A9F801F0C3F806F021FC00F051F906F0A2
:104E80002FFCFEE708B50268034B9A4200D008BD2C
:104E900002F05EFFFBE700BF00000140704700002A
:104EA0002DE9F04F8DB000240794089409940A94DA
:104EB0000B9401946A4B1A6B42F010021A631A6B3E
:104EC00002F010020192019A02941A6B42F004025D
:104ED0001A631A6B02F004020292029A03941A6B8C
:104EE00042F080021A631A6B02F080020392039A66
:104EF00004941A6B42F001021A631A6B02F0010269
:104F00000492049A05941A6B42F002021A631A6B17
:104F100002F002020592059A06941A6B42F008020A
:104F20001A631B6B03F008030693069BDFF838B186
:104F3000224640F20111584602F004FCDFF82CA191
:104F4000224648F20801504602F0FCFB454F22463B
:104F50002221384602F0F6FBDFF8149122464FF486
:104F60008041484602F0EEFBDFF8088122468021AE
:104F7000404602F0E7FB4BF6FF73079303250895C5
:104F8000099407A9484602F0F3FA4EF20C0307937E
:104F90000895099407A9584602F0EAFA40F201136D
:104FA00007930126089609940A9507A9584602F026
:104FB000DFFA41F6710307930895099407A9504653
:104FC00002F0D6FA48F208030793089609940A9566
:104FD00007A9504602F0CCFA4CF21D6307930895DE
:104FE000099407A9384602F0C3FA222307930896CA
:104FF00009940A9407A9384602F0BAFA4FF480439C
:105000000793089609940A9407A9484602F0B0FA53
:105010004FF67F7307930895099407A9404602F05D
:10502000A7FA80230793089609940A9407A9404693
:1050300002F09EFA4FF4807307934FF444130893E1
:10504000099407A9384602F093FA22460521172051
:1050500002F010FE172002F041FE0DB0BDE8F08F07
:1050600000380240000402400008024000000240F4
:1050700000100240000C024010B582B000240094E1
:10508000224B1A6B42F480021A631A6B02F48002FC
:105090000092009A01941A6B42F400121A631B6B7F
:1050A00003F400130193019B224605210B2002F01B
:1050B000E1FD0B2002F012FE22460521102002F035
:1050C000D9FD102002F00AFE22460521392002F007
:1050D000D1FD392002F002FE224605213A2002F0DD
:1050E000C9FD3A2002F0FAFD22460521452002F0D2
:1050F000C1FD452002F0F2FD22460521462002F0C6
:10510000B9FD462002F0EAFD02B010BD00380240B1
:1051100008B5012006F086FBFBE7704700207047CA
:1051200038B54B4806F01CFC4A4D28604A4806F04A
:1051300017FC4A4C20604FF0FF31286806F05AFCFB
:105140004FF0FF31206806F055FC454A0121084622
:1051500006F0A2FC434D2860434A0221084606F0AF
:105160009BFC424C20604FF0FF31286806F0EEFCBB
:105170004FF0FF31206806F0E9FC3D4B0022012191
:105180003C4806F05DFB3C4B18603C4A4FF4807194
:10519000012006F050FD3A4B18603A4A4FF48071F6
:1051A000012006F048FD384B1860384A20210120C4
:1051B00006F041FD364B1860364A50210A2006F0B1
:1051C0003AFD354B1860354A4FF48071022006F0E5
:1051D00032FD334B1860334A0021334806F0A6FAFB
:1051E000324B1860324A0021324806F09FFA324BA7
:1051F0001860324A0021324806F098FA314C20609B
:10520000314A0021314806F091FA314D2860314A87
:105210000021314806F08AFA304B1860304A0021EC
:10522000304806F083FA304B1860304A002130488D
:1052300006F07CFA2F4B1860286806F0D5FA206833
:1052400006F0D2FA2C4806F069FB2C4B186038BDEA
:10525000A8640108B8920020B8640108D092002028
:1052600040650108DC92002050650108C8920020CA
:105270006065010841420008A8920020E06401082E
:10528000D492002028650108D8920020C864010843
:10529000CC920020F8640108AC920020106501084F
:1052A000BC92002084640108693E0008E892002056
:1052B00050640108C13E0008B49200202C6401082B
:1052C000E93E0008A492002094650108753B00089F
:1052D000C4920020B8650108393D0008B092002052
:1052E0007065010811510008C0920020086401088F
:1052F000DD400008E092002074640108E492002080
:1053000008B50B480B4B03600B4B436000238360D5
:10531000C3604FF48042026143618361C3610362F1
:1053200002F096FF00B908BDFFF7B8FDFBE700BF2C
:105330004093002000540040A086010008B50B48AF
:105340000B4B03600B4B436000238360C3604FF43F
:105350008042026143618361C361036202F078FFAE
:1053600000B908BDFFF79AFDFBE700BFEC920020F3
:10537000005C0040A08601002DE9F0418AB00023C6
:10538000059306930793089309930368354A93425C
:1053900005D0354A934227D00AB0BDE8F0810025F8
:1053A0000095324C236B43F002032363236B03F01D
:1053B00002030093009BC02305931223069301234D
:1053C0000793032308930423099305A9284802F0AF
:1053D000CFF80195236C43F400132364236C03F48A
:1053E00000130193019BD7E7002502951F4C236B07
:1053F00043F004032363236B03F004030293029B33
:105400000395236B43F001032363236B03F0010334
:105410000393039B4FF4007305934FF01208CDF8EC
:1054200018800795032708970426099605A91148AF
:1054300002F09EF84FF480730593CDF8188007951D
:105440000897099605A90C4802F092F80495236C78
:1054500043F400032364236C03F400030493049BCC
:105460009AE700BF00540040005C00400038024052
:1054700000040240000802400000024008B507484E
:10548000074B03600623436040F2E243836003F06E
:10549000E1F900B908BDFFF701FDFBE79493002097
:1054A00000300040F0B585B04D4FC0203870A821C5
:1054B00079708522BA706723FB704A4EFF233370E0
:1054C0007370B3700024F470474D28706970AA702F
:1054D0000123EB702146204607F042F93A787B78A9
:1054E0001B0443EA0263BA7843EA0223F9780B43C8
:1054F0001A0202F47F0242EA0162190A01F47F41B2
:105500000A4342EA136339490B60327873781B040B
:1055100043EA0263B27843EA0223F07803431A02B3
:1055200002F47F0242EA0062180A00F47F4002435C
:1055300042EA13632E4A136028786B781B0443EA0F
:105540000063A87843EA0023ED782B43180200F4A7
:105550007F0040EA05601D0A05F47F45284340EAC4
:105560001360244B1860244D244802902448019075
:10557000009428460EF002F928460EF091F995F8AD
:10558000313013F0040F26D028460EF08FF91A4D53
:105590001C4928460EF014FA00220121084606F0A4
:1055A0007BFA194B1860194C25606060184D202259
:1055B00000212846FBF748F82A1F164B45F8043C03
:1055C0004FF480635361102393612146124806F023
:1055D000ADF805B0F0BD08480EF08AF9D7E700BF76
:1055E000109400200C940020A89300200894002020
:1055F0001494002018940020D0930020BDC6000809
:10560000215A0008C15A000830050020A09300204C
:10561000B0930020DC650108715A00082DE9F047BD
:10562000334801F03DF900285ED1314B998FD3F812
:10563000408079B94FF0000A2D4B1B6B00212C4A9A
:10564000926B8A423BD91A6842F000421A60DB68CA
:105650000131F4E74FF4C1720DF064FD8246002879
:10566000EAD0234B1F6B8146002421E0D9F80400C7
:10567000C4F5BE62043208EB04013044FAF7E2FEDE
:10568000FF68D7F80880A5F2F452361B06F2F456EC
:105690000024A51840F2F4539D42E7D8D9F804003D
:1056A00008EB04013044FAF7CDFED9F800902C46FF
:1056B000B9F1000FC0D0B9F80A200026E9E70C4B79
:1056C00000229A631B6841F214029A5812F0800F6C
:1056D00007D041F214028021995041F208020021C2
:1056E00099505046BDE8F0874FF0000AF9E700BF37
:1056F000ECAC002038B505464FF0FF310E4B186872
:1057000006F024FA0028F7D107E020460DF0A2FCAD
:105710000A480FF0F2FD002CEED008480FF0E6FD2D
:105720002846FFF77BFF04460028F1D02B69294665
:1057300098470028ECD0E8E73405002090C9002005
:105740002DE9F84F8B462C4BDE6AD6F808A00024D2
:105750002746BBF1000F32D03368002B35DBBBF896
:105760000A90002504EB090840F2F453984519D932
:10577000DBF80410C4F5BE62043229440AEB0400CD
:10578000FAF760FEF6683368002B21DBD6F808A034
:10579000A8F2F4592D1B05F2F4553F1B07F2F457FC
:1057A0000024DFE7DBF804104A4629440AEB040032
:1057B000FAF748FE4F44DBF800B04446C9E73946E3
:1057C0000D4800F0DDFF002004E06FF0070001E06D
:1057D0006FF00700084B1B6841F214029A5812F050
:1057E000200F07D041F214022021995041F2040207
:1057F00000219950BDE8F88FECAC002030B58DB099
:1058000004463A483A4B0360012242604FF4804319
:1058100083604FF40063C360002303828DF804307B
:1058200080218DF80510E1218DF806108DF80730E4
:105830008DF808308DF8093001A941618261C3619A
:105840004FF40003036201F035F928B994F83130C0
:1058500043F0040384F83130244D0423254A2649BB
:10586000284600F01BFF0423244A2549284600F05F
:105870004FFF062384F830306B691A7884F82A20A9
:105880005A7884F82B209A7884F82C20DA7884F8D7
:105890002D201A7984F82E205B7984F82F3040F27D
:1058A000DC53238594F8313043F00A0384F8313017
:1058B00000220121084606F0EFF8124B1860202262
:1058C000002104A8FAF7C0FE0F4B03934FF4AF7307
:1058D00008933023099303AA21460C4805F026FFBC
:1058E000284601F013FA0DB030BD00BFECAC00202B
:1058F0000080024034AD00201C9400209C940020C5
:105900006CAC002034050020E4650108F556000861
:10591000F0B58DB000230793089309930A930B9376
:105920000268374B9A4201D00DB0F0BD00240194BB
:10593000A3F590431A6B42F000721A631A6B02F0DF
:1059400000720192019A02941A6B42F080621A630B
:105950001A6B02F080620292029A03941A6B42F070
:1059600000621A631A6B02F000620392039A0494B5
:105970001A6B42F004021A631A6B02F004020492DA
:10598000049A05941A6B42F001021A631A6B02F032
:1059900001020592059A06941A6B42F002021A63FC
:1059A0001B6B03F002030693069B32230793022727
:1059B0000897099403260A960B250B9507A9114809
:1059C00001F0D6FD86230793089709940A960B9554
:1059D00007A90D4801F0CCFD4FF4605307930897D9
:1059E00009940A960B9507A9084801F0C1FD2246C3
:1059F00005213D2002F03EF93D2002F06FF993E7CA
:105A00000080024000080240000002400004024002
:105A100008B5024B186806F0CDF808BD3405002023
:105A200010B5044670B1732384F83230742384F8BF
:105A30003330084B6361084BA3612046FFF7DEFE5D
:105A4000002010BD054B40F2252205490548FBF713
:105A5000B1FAE8E79545010841570008EC650108EF
:105A6000006601081066010808B502F07DF908BD5E
:105A700010B582B004460023019306E012F0040F33
:105A800000D0B3B1C82005F0CDFE01AA01210A481B
:105A900000F09AFF019B03F004030193206890F843
:105AA000312012F0040FE9D1002BE7D00DF046FFB2
:105AB000E8E70DF067FFE5E7ECAC00207047000079
:105AC00030B583B0044600230193009390F8313041
:105AD00013F0040F51D02B4B5B68002B35D04FF4E3
:105AE00080520021274800F0ABFF02F03DF9019001
:105AF0006A460121234800F067FF02F035F9019B57
:105B0000C31AB3F57A7F20D8009B13F0200FEFD093
