:020000040800F2
:1000000000000220D9BB01083B9500083D9500087F
:100010003F95000841950008439500080000000046
:10002000000000000000000000000000F1140108C2
:100030004595000800000000911501081D0A0108FF
:1000400029BC010829BC010829BC010829BC0108F8
:1000500029BC010829BC010829BC010829BC0108E8
:1000600029BC010829BC010829BC010849950008E0
:100070005995000869950008799500088995000848
:1000800029BC01089995000829BC010829BC010870
:1000900029BC010829BC010829BC010829BC0108A8
:1000A00029BC0108A995000829BC010829BC010840
:1000B000B9950008C9950008D995000829BC010820
:1000C00029BC010829BC010829BC010829BC010878
:1000D00029BC0108E995000829BC0108F995000828
:1000E00029BC010829BC010829BC010829BC010858
:1000F0000996000829BC010829BC010829BC01088F
:1001000029BC010829BC01081996000829BC01086E
:1001100029BC010829BC0108299600083996000865
:1001200029BC0108499600085996000829BC010815
:1001300029BC01086996000829BC010829BC0108EE
:1001400029BC010829BC010829BC010829BC0108F7
:1001500029BC01087996000889960008999600083C
:1001600029BC010829BC010829BC010829BC0108D7
:1001700029BC010829BC010829BC010800000000B5
:0801800029BC010829BC01089B
:1001C0000348044B834202D0034B03B118477047E6
:1001D000F4020020F4020020000000000548064957
:1001E0000B1AD90F01EBA301491002D0034B03B145
:1001F00018477047F4020020F402002000000000BD
:1002000010B5064C237843B9FFF7DAFF044B13B15E
:100210000448AFF300800123237010BD3003002099
:10022000000000002CBC010808B5044B1BB10449B8
:100230000448AFF30080BDE80840CFE700000000AD
:10024000340300202CBC01080A22002101F040BF29
:100250000A23002201F02EBF0CB400B583B004AB1A
:1002600053F8042B019300F045FB03B05DF804EB59
:1002700002B070470EB410B583B005AB064C53F80E
:10028000042B01930146206800F034FB03B0BDE865
:10029000104003B0704700BF0000002070B50D4E45
:1002A0000D4D761BB61006D00024013455F8043BE2
:1002B0009847A642F9D1094E094D761B1BF0B6FCB2
:1002C000B61006D00024013455F8043B9847A642E6
:1002D000F9D170BDE4A30308E4A30308E8A303086D
:1002E000E4A3030870B50C46B1F90E10002996B0CE
:1002F00016461D4613DB6A4602F04CFA00280EDB58
:10030000019A02F47042A2F50052B2FA82F2520946
:100310004FF4806300202A60336016B070BDA3895B
:1003200000221B062A6004D540230020336016B04B
:1003300070BD4FF480630020336016B070BD00BF05
:100340008A8992070B4606D501F1470201211A60FE
:10035000C3E90421704770B582B001AB6A460C4610
:100360000646FFF7BFFF00990546304600F01AFA2F
:10037000B4F90C3070B11649B162019A009920604D
:1003800043F08003A381C4E904018AB92B43A3810C
:1003900002B070BD9A05FBD423F0030304F14702B9
:1003A00043F002030121A3812260C4E90421EFE7A5
:1003B0003046B4F90E1002F0D5FB10B9B4F90C3088
:1003C000E4E7A38923F0030343F001031BB2DDE755
:1003D00089250008024B0146186800F0E3B900BF08
:1003E00000000020024B0146186800F085B900BFEC
:1003F00000000020032A70B412D940EA0105AD07BD
:1004000004460B4620D11946204653F8045B54F8A5
:10041000046BAE4218D1043A032A20461946F2D89A
:10042000541E72B103780A789A4208BF241806D085
:100430000CE010F8013F11F8012F934206D1A042C1
:10044000F7D1002070BC7047541EEBE7981A70BCBF
:10045000704700BF844641EA000313F003036DD1E7
:10046000403A41D351F8043B40F8043B51F8043B77
:1004700040F8043B51F8043B40F8043B51F8043B7E
:1004800040F8043B51F8043B40F8043B51F8043B6E
:1004900040F8043B51F8043B40F8043B51F8043B5E
:1004A00040F8043B51F8043B40F8043B51F8043B4E
:1004B00040F8043B51F8043B40F8043B51F8043B3E
:1004C00040F8043B51F8043B40F8043B51F8043B2E
:1004D00040F8043B51F8043B40F8043B51F8043B1E
:1004E00040F8043B403ABDD2303211D351F8043BBE
:1004F00040F8043B51F8043B40F8043B51F8043BFE
:1005000040F8043B51F8043B40F8043B103AEDD26C
:100510000C3205D351F8043B40F8043B043AF9D2BD
:10052000043208D0D2071CBF11F8013B00F8013B90
:1005300001D30B8803806046704700BF082A13D39D
:100540008B078DD010F003038AD0C3F10403D21AB5
:10055000DB071CBF11F8013B00F8013B80D331F8E9
:10056000023B20F8023B7BE7043AD9D3013A11F869
:10057000013B00F8013BF9D20B7803704B784370D4
:100580008B788370604670478842F0B40DD98B1821
:1005900083420AD9841832B1224613F8014D02F879
:1005A000014D9942F9D1F0BC70470F2A0ED803468D
:1005B000541E002AF7D001340C44013B11F8012BE2
:1005C00003F8012FA142F9D1F0BC704740EA0103C2
:1005D0009B073BD1A2F110073F0901F1200606EB72
:1005E000071601F1100300F1100453F8105C44F8F1
:1005F000105C53F80C5C44F80C5C53F8085C44F84D
:10060000085C53F8045C44F8045C1033B34204F112
:100610001004EAD17B1C1B0112F00C0F194402F0EC
:100620000F05034415D0043DAD0803EB850C1C1FDA
:100630000E4656F8047B44F8047F6445F9D1013531
:10064000AD002B44294402F00302B1E7541E0346D7
:10065000B1E72A46ACE700BFF0B4860746D0541E87
:10066000002A3CD0CAB2034602E014F1FF3436D36C
:1006700003F8012B9D07F8D1032C29D9CDB245EA07
:1006800005250F2C45EA054533D9A4F11006360996
:1006900003F1200707EB061703F1100242E90455A6
:1006A00042E902551032BA42F8D1721C14F00C0F14
:1006B00003EB021204F00F0613D0331F23F00303E1
:1006C0000433134442F8045B9342FBD106F0030465
:1006D0002CB1C9B21C4403F8011B9C42FBD1F0BCF5
:1006E000704734461346002CF3D1F8E7144603460E
:1006F000C2E71A462646E0E700293CD038B551F853
:10070000043C0C1F002BB8BFE418054602F0A8FA01
:10071000234B1A682AB1A2420DD92168601882427F
:1007200023D0626028461C60BDE8384002F09ABAC7
:10073000A34203D81A465368002BF9D11168501808
:10074000A04219D024D821686018834206D0636083
:1007500054602846BDE8384002F084BAD3E900036B
:100760000144636021605460F3E7D2E90002014470
:1007700062602160D6E770472068014450188342C8
:100780001160E6D1D3E90003014453601160E0E752
:100790000C232B602846BDE8384002F063BA00BF46
:1007A0004C030020F8B5CD1C25F0030508350C2DB1
:1007B00038BF0C25002D064633DBA94231D82A4F1D
:1007C00002F04EFA3A6852B113685B1B04D43FE062
:1007D00023685B1B29D522465468002CF8D1796820
:1007E00000293BD02946304600F082FC431C28D02B
:1007F000C41C24F00304A04205D0211A304600F0A6
:1008000077FC01301DD02560304602F02BFA04F150
:100810000B0020F00700231DC21A01D01B1AA350A1
:10082000F8BD0C2232600020F8BD0B2B05D8A24287
:10083000636811D05360E7E7144623601C442560C9
:10084000E2E70C233046336002F00CFA0020F8BDDA
:100850000B2BF1D8536814463B60D5E7304600F0C7
:1008600047FC7860BEE700BF4C0300209368013B63
:10087000002B936011DA10B49469A34209DB0A29B2
:1008800007D01368581C1060197008465DF8044BB7
:1008900070475DF8044B01F06BBC1368581C106086
:1008A00019700846704700BF9BB1F8B513440F4656
:1008B00006465D1E541E01E0AC4208D03A4614F8CC
:1008C000011F3046FFF7D2FF431CF5D1F8BD0020D1
:1008D000F8BD0020704700BF936810B5144613B9E7
:1008E0005360184610BD01F069FF0023C4E90133CD
:1008F00010BD00BF2DE9F04F9FB08B4690461C46BF
:10090000039018B18369002B00F0B780A24B9B4580
:1009100000F0B980A14B9B4500F0C780A04B9B45E0
:1009200004BF039BD3F80CB0BBF80C30180740F1A0
:10093000B280DBF81030002B00F0AD8030238DF852
:10094000323098F800300594002120220B918DF868
:100950003120944E0127002B00F08780252B00F0DA
:100960001581454603E0252B00F0A38025466B78D2
:100970006C1C002BF7D1B4EB080A76D042465346E4
:1009800059460398FFF790FF01306ED00B9B6A78B1
:1009900053440B93002A68D000234FF0FF320134F8
:1009A0000693CDE908338DF85B301C93079205E080
:1009B000069A07FA03F313432C46069325460522AD
:1009C00015F8011B304602F0FBF8AA46831B0028ED
:1009D000EED1069BD90644BF20228DF85B202178FA
:1009E0001A0744BF2B228DF85B202A2966D1059A6D
:1009F0001168043200290592C0F29D800991617846
:100A0000A51C2E2973D0684C0322204602F0D8F88A
:100A1000002800F08680001B069B402404FA00F0AA
:100A20000343069305F10108297860488DF83010DA
:100A3000062202F0C5F8002800F083805C4B002BF2
:100A400072D005AB00935A465A4B039806A9AFF3F0
:100A500000808146B9F1FF3F07D00B9B4B440B93BD
:100A600098F80030002B7FF479AFBBF80C305B06B0
:100A700018D40B981FB0BDE8F08F01F06BFE464B09
:100A80009B457FF447AF039BD3F804B0BBF80C3011
:100A900018073FF54EAF5946039801F0DFFB0028D9
:100AA0003FF44CAF4FF0FF30E4E7039BD3F808B0BE
:100AB0003AE7B4EB080A3FF46FAF5FE7A1F1300209
:100AC000092A88BFA2469CD8099B01E02C46013523
:100AD000297803EB830302EB4303A1F13002092AD7
:100AE000AA46F3D92E2904F1020509938BD19AF86D
:100AF00001102A292FD1059B9AF802101A68079233
:100B00000433002A05930AF103050AF1020338DBD6
:100B1000254C032220469A4602F052F800287FF422
:100B20007AAFA84655467FE7059B073323F00703B6
:100B30000833059391E7494243F002030991069374
:100B40005DE705AB00935A461A4B039806A900F0DF
:100B5000D5F881467EE7A1F130020023092A0793E8
:100B600001D915E05546697803EB830302EB430393
:100B7000A1F13002092A05F1010AF3D902350793E0
:100B800041E74FF0FF329A4607923CE7444603E7BD
:100B9000AA46013537E700BF90BD010870BD0108C6
:100BA00050BD010814A303081CA3030820A30308D5
:100BB00000000000A908000810B4044C13460A46BF
:100BC000014620685DF8044BFFF794BE000000204A
:100BD0002DE9F0470C4691460A698968DDF82080C6
:100BE0008A42B8BF0A46C9F8002094F84310064666
:100BF0001F4611B10132C9F80020236899065CD55F
:100C0000D9F800200232C9F80020236813F0060F3B
:100C100019461DD1E1688A1A002AD8BF194617DD86
:100C200004F1190A002505E0E368D9F800209B1AB1
:100C3000AB420CDD0123524639463046C0470130F5
:100C400005F10105F0D14FF0FF30BDE8F0872168D4
:100C500094F84330003318BF01238A060AD5E118FF
:100C60005A1C302081F84300224494F8451082F841
:100C70004310023304F1430239463046C047013085
:100C8000E1D02368A268216903F00603042B1DD07C
:100C90008A4226DD4FF00009521A91441A34002589
:100CA00001E04D451DDA0123224639463046C04752
:100CB000013005F10105F4D1C5E713F0060F13D09B
:100CC00094F84330003318BF0123D3E7D9F800006C
:100CD000E3688A42A3EB000323EAE379DCDC002B20
:100CE000DCDC0020BDE8F087E168D9F800208A1A32
:100CF000002AD8BF194693DCAAE700BF2DE9F043CC
:100D00000C46097E85B06E29064617460C98984613
:100D100004F1430E6DD039D9732900F0F68044D91F
:100D2000752900F00481782940F011817823226828
:100D3000DFF858C284F845300168150651F8043BC5
:100D4000016040F1A180D10744BF42F0200222603F
:100D5000002B00F093801022002184F8431060687B
:100D6000A0600028C0F2C880216821F00401216041
:100D7000002B40F0A380002840F0C0807546082A70
:100D800000F0AC80AEEB0503236141E0632900F085
:100D9000E5801AD8002938D0582940F0D88084F846
:100DA00045102268DFF8E8C1C6E76F2900F0BF8070
:100DB000702940F0CC802268DFF8D0C142F02002D8
:100DC0007823226084F84530B6E7642902D0692987
:100DD00040F0BD8022680368110603F1040557D571
:100DE000196805600B46002959DBDFF8A4C10A2207
:100DF000B5E70368226861691D1D056015061B685B
:100E000002D4500600F1BD801960002375462361AD
:100E1000CDF800803B4603AA21463046FFF7D8FEB6
:100E2000013020D02A46236939463046C047013078
:100E300019D022680398E368920719D51A1A002A74
:100E400016DD04F11909002504E0E36803981A1A75
:100E5000AA420DDD01234A4639463046C0470130DB
:100E600005F10105F1D14FF0FF3005B0BDE8F08389
:100E70009842B8BF184605B0BDE8F083226822F05A
:100E800020022260102267E7500648BF9BB25AE753
:100E90005106A5D5B3F9003005601946A3E761688E
:100EA000A1602D200029C3F1000384F8430002DB78
:100EB00022F004022260DFF8D8C00A22754600E062
:100EC0000B46B3FBF2F102FB113093421CF8000019
:100ED00005F8010DF4D2082A7FF454AF2368DB072C
:100EE0007FF550AF626823699A423FF74BAF3023DA
:100EF00005F8013C013D45E7002BDFD19CF80030AF
:100F000084F8423004F1420539E703686268191D2C
:100F100001601D680021284601F052FE002832D0F1
:100F2000401B60602061002384F8433070E7226832
:100F3000036812F0800F03F104051AD01B680560E6
:100F40006F290CBF08220A22DFF844C004E70123FE
:100F500084F84210236104F14205E4E703681A684B
:100F6000191D0123016004F1420584F84220236128
:100F7000D9E712F0400F0DBF1B6805601B880560A4
:100F8000DEE7198041E76068CCE700BF3CA30308B7
:100F900028A303080EB410B5044683B008B18369D2
:100FA00063B106A803460190059AA1682046FFF7A1
:100FB000A1FC03B0BDE8104003B0704701F0CAFBCC
:100FC000EFE700BF0FB410B50B4B1C6882B00CB13B
:100FD000A36963B105A803460190049AA16820465D
:100FE000FFF788FC02B0BDE8104004B0704720460F
:100FF00001F0B0FBEEE700BF0000002038B5124B57
:101000001C68A26B05461AB10023C2E9045338BD1F
:101010001820FFF7DFF90246A06378B10120002114
:101020000A4B1360C2E904010B2309480949938163
:101030000023C2E90101C2E9045338BD064B074849
:10104000422101F08BF900BF000000200E33CDAB30
:1010500034126DE6ECDE050050A3030868A3030814
:1010600038B51A4B1C68A26B92B1146918495369C0
:10107000184801FB04F100FB0313A4FB0045611CAD
:101080001D4445F1000323F00040C2E9041338BDBC
:101090001820FFF79FF90246A06388B101200021C4
:1010A000C2E904010A480C4C0C4B0D490D4D14606B
:1010B00053600B24034695609481C2E9041338BD44
:1010C000094B0A484E2101F049F900BF00000020F9
:1010D0002DF451582D7F954C0E33CDAB34126DE667
:1010E0002E7F954CECDE050050A3030868A303088F
:1010F00038B5074C002305460846236003F052F933
:10110000431C00D038BD2368002BFBD02B6038BDBA
:101110005081012008B430B5002A9CB0044635DB6C
:101120004FF4027302910691ADF8143020A918D043
:10113000013A0B460492079201911F9A4FF6FF75F0
:1011400002A9ADF8165001F091FE421C01DA8B2382
:101150002360029B00221A701CB0BDE8304001B031
:1011600070470B460492079201914FF6FF751F9A44
:10117000ADF8165002A901F079FE431C01DA8B2369
:1011800023601CB0BDE8304001B070478B22026084
:101190004FF0FF30F5E700BF0CB430B5204B00290D
:1011A0009DB01C6837DB4FF4027302900690ADF8D7
:1011B000143021A819D001390346209A04910791CF
:1011C00001904FF6FF7502A92046ADF8165001F0C8
:1011D0004DFE421C01DA8B232360029B00221A7011
:1011E0001DB0BDE8304002B070470346049107913E
:1011F00001904FF6FF75209AADF8165002A92046CF
:1012000001F034FE431C01DA8B2323601DB0BDE8DE
:10121000304002B070478B2323604FF0FF30F5E77A
:10122000000000200CB470B59CB020AC0B4E54F8FC
:10123000042B0291234606916FF0004502A9019408
:101240000795CDE9045601F011FE029B00221A70A9
:101250001CB0BDE8704002B0704700BF0802FFFF3D
:101260000EB430B59CB01FAB0C4C0D4D53F8042B95
:101270000193014602910691206802A96FF0004493
:101280000794CDE9044501F0F1FD029B00221A709C
:101290001CB0BDE8304003B0704700BF0000002024
:1012A0000802FFFF10B50C46B1F90E1001F018FF4F
:1012B000002803DB636D0344636510BDA38923F439
:1012C0008053A38110BD00BF002070472DE9F0417D
:1012D0001646B1F90C201F46D3050C460546B1F958
:1012E0000E1009D422F48052A2813B463246284691
:1012F000BDE8F04100F09CBF0022022301F044FC55
:10130000B4F90C20B4F90E10ECE700BF10B50C4690
:10131000B1F90E1001F038FCA389421C0EBF23F472
:10132000805343F480536065A38110BDB1F90E1062
:1013300001F038B830B4104D10F8012BAB5C03F05D
:101340000303012B11F8013BEC5C04F0030408BF1C
:101350002032012C06D0D21A0AD1002BECD118462B
:1013600030BC70472033D31AE6D0184630BC7047E3
:101370001346184630BC704749BC0108C9B200F09A
:101380000303002935D07BB10378002B57D0994255
:1013900052D0431C05E013F8012B002A4DD08A429D
:1013A0004AD09A071846F6D170B441EA012604687B
:1013B00046EA064601E050F8044F86EA0405A5F126
:1013C0000132A4F1013322EA050223EA04031343A4
:1013D00013F0803FEFD0037843B1994202D106E089
:1013E0008B4204D010F8013F002BF9D1184670BC95
:1013F00070474BB10378FBB1431C02E00278013324
:10140000D2B199071846F9D10268A2F1013323EA53
:10141000020313F0803F08D150F8042FA2F10133EA
:1014200023EA020313F0803FF6D0037823B110F8CB
:10143000013F002BFBD1704770471046704718469C
:10144000704700BF00000000000000000000000026
:10145000000000000000000000000000000000008C
:10146000A2EB0300704700BF02780B78012A28BF67
:101470009A42F5D16DE9044540EA0104CDE90267DD
:101480006FF0000C4FEA447212B380EA010414F0CA
:10149000070F6AD100F0070420F0070004F00305ED
:1014A00021F007014FEAC505F0E8042314F0040F0A
:1014B000F1E804670CFA05F462EA040266EA04063D
:1014C0000AD063EA0403624667EA0407664603E05B
:1014D000F0E80423F1E8046782FA4CF582EA060496
:1014E000A4FA8CF46CBB83FA4CF583EA0705A5FAE1
:1014F0008CF595B950E9022351E9026782FA4CF55F
:1015000082EA0604A4FA8CF483FA4CF583EA070510
:10151000A5FA8CF52543DBD09CB92DBAB5FA85F434
:1015200024F0070427FA04F1DDE9026723FA04F343
:1015300003F0FF0001F0FF01FDE80445A0EB01000E
:10154000704724BAB4FA84F424F0070426FA04F1AC
:10155000DDE9026722FA04F202F0FF0001F0FF0168
:10156000FDE80445A0EB0100704714F0030F3CD1E7
:1015700010F0030428D150F8082B51F8083B82FAE8
:101580004CF582EA0305A5FA8CF55DB950F8042CF8
:1015900051F8043C82FA4CF582EA0305A5FA8CF571
:1015A000002DE8D02DBAB5FA85F424F0070423FA0B
:1015B00004F122FA04F202F0FF0001F0FF01FDE85D
:1015C0000445A0EB010070474FEAC40420F003007B
:1015D00050F8082B21F0030151F8083B0CFA04F4F1
:1015E00062EA040263EA0403C9E710F003041AD0B4
:1015F000A1EB040120F00300E40750F8042B06D00F
:101600000FD28B785FFAA2F4E41A06D12BB1CB7813
:101610005FFAB2F4E41A00D11BB920465DF8104B12
:10162000704701F1040150F8042BCC0721F00301AD
:1016300051F8043B48D824D222F07F4482FA4CF57A
:1016400094EA1325A5FA8CF50AD165B951F8043B43
:1016500084EA0204B4EB036F0ED150F8042BEBE7DD
:101660004FEA132355E035F07F454DD10878FDE86A
:101670000445C0F1000070474FEA126203F0FF0317
:1016800047E002EA1C4482FA4CF594EA1345A5FAB5
:101690008CF50AD165B951F8043B84EA0204B4EB35
:1016A000034F0CD150F8042BEBE74FEA134330E023
:1016B00015EA1C4528D10B884FEA124229E04FEA6F
:1016C000124203EA1C4324E002F0FF0482FA4CF5C4
:1016D00094EA1365A5FA8CF50AD165B951F8043B73
:1016E00084EA0204B4EB032F09D150F8042BEBE792
:1016F0004FEA13630DE015F0FF0F05D10B684FEAB9
:10170000122223F07F4304E04FF00000FDE804457F
:10171000704712BA1BBA82FA4CF482EA0304A4FAA4
:101720008CF5B5FA85F402FA04F203FA04F34FEAF1
:101730001260FDE80445A0EB13607047F8B50AB3EA
:10174000077837B3431C871802E01D78013315B1C1
:101750009F421C46F9D1271AD21B14D00D780E4691
:1017600065B1012A234603D003F8015B013A1C4608
:1017700016F8015F002DF4D1761A37440023237048
:101780003846F8BD1746084600F03AF80744384690
:10179000F8BD0446E2E700BF9AB1012A19D070B43F
:1017A0000B46054601E0E04217D013F8016B05F83F
:1017B000016BEC431444002EF5D1581A013870BC6B
:1017C00070470B4613F8012B002AFBD1581A013839
:1017D000704700220B460270F4E700222A7013F8CB
:1017E000012B002AFBD1581A013870BC704700BF8A
:1017F00000000000000000000000000000000000E9
:1018000090F800F06DE9024520F007016FF0000C40
:1018100010F0070491F820F040F049804FF00004E8
:101820006FF00700D1E9002391F840F000F10800C3
:1018300082FA4CF2A4FA8CF283FA4CF3A2FA8CF3FB
:101840004BBBD1E9022382FA4CF200F10800A4FA62
:101850008CF283FA4CF3A2FA8CF3E3B9D1E90423B6
:1018600082FA4CF200F10800A4FA8CF283FA4CF3ED
:10187000A2FA8CF37BB9D1E9062301F1200182FAA7
:101880004CF200F10800A4FA8CF283FA4CF3A2FAAD
:101890008CF3002BC6D0002A04BF04301A4612BABB
:1018A000B2FA82F2FDE8024500EBD2007047D1E9BE
:1018B000002304F00305C4F100004FEAC50514F04D
:1018C000040F91F840F00CFA05F562EA05021CBF1E
:1018D00063EA050362464FF00004A9E7830730B4CA
:1018E00027D10468A4F1013323EA040313F0803FF5
:1018F000034608D153F8045FA5F1013424EA050436
:1019000014F0803FF6D01C781CB113F8014F002C66
:10191000FBD101399D189D4202F1FF3207D011F829
:10192000014F03F8014B14B1002AF4D11A7030BCF6
:1019300070470346E7E700BF002A46D040EA0103AC
:1019400013F00303F0B425D1032A23D904680D68EA
:10195000AC423CD1043A35D0A4F1013525EA040467
:1019600014F0803F2ED1071D0D1D0DE057F8043BEC
:101970000E68A3F10134B34224EA030427D1043AE8
:1019800020D014F0803F1DD1032A2946384605F1A6
:101990000405EBD803780D789D4202F1FF360ED195
:1019A00086B17BB1044602E082180BD053B114F823
:1019B000013F11F8015FAB42A6EB0402F4D0581BC3
:1019C000F0BC70470020F0BC7047104670470378A9
:1019D0000D789D4202F1FF36E3D0F0E770B440EAA3
:1019E0000104A30727D1032A25D90B460646194629
:1019F00053F8045BA5F1013424EA050414F0803F98
:101A000006D1043A032A46F8045B1946EFD882B19E
:101A100033460C7803F8014B551E74B132442E4402
:101A200005E011F8014FF51A03F8014B2CB19A4269
:101A3000F7D170BC70470646E9E7002DF9D01D4488
:101A4000002203F8012BAB42FBD170BC704700BFF2
:101A5000C9B10278CAB1431C014499421A4616D052
:101A600010B41478013334B199421A4607D014786F
:101A70000133002CF8D1101A5DF8044B7047081A96
:101A80005DF8044B70470846704710467047081AC7
:101A9000704700BF71B138B503460C46002501E020
:101AA000431C054618462146FFF768FC0028F7D17D
:101AB000284638BDFFF762BC2DE9F04F01242546CA
:101AC00088461646AE462A46ADF21C4D07461C46D1
:101AD00000214FF0FF3553189C4206EB05000ED94C
:101AE000805C16F803C0844580F0CC801946012242
:101AF000A3EB050E53189C4206EB0500F0D8CDF879
:101B00000CE04FF0010E724600214FF0FF305318E9
:101B10009C4206EB000C0FD91CF802C016F803908B
:101B2000E14540F2B68019460122A3EB000E53189E
:101B30009C4206EB000CEFD86B1C013098420293DC
:101B400028BFCDE9020E05AB0DF2144243F8044F55
:101B50009342FBD1631E0093002C00F01681009B82
:101B600006AD721E9819019512F8011FD343234444
:101B70003344824245F82130F6D1DDE90223304674
:101B8000F118FEF737FC002840F09680029B013BDD
:101B90000593F31882468146049307EB090E009BD8
:101BA000019A1EF8033052F82330EBB1BAF1000F5E
:101BB00003D0039A934238BFA31A99444FF0000A06
:101BC000A8EB04034B45E8D207EB080044F400619E
:101BD000FFF73EFF8044A8EB04034B45DDD2002015
:101BE0000DF21C4DBDE8F08F029B534538BF5346A4
:101BF0001D46009B9D4218D205EB0902715DB85C41
:101C000088423A4406EB050334D1A4F1020CB444F3
:101C1000C6F1010B05E013F8010F12F8011F88420D
:101C200028D19C450BEB0305F5D1029B9A4580F02A
:101C3000A980059B049A4B441178FA5C91423B447D
:101C400040F0A0800AEB09053D44049A05E012F833
:101C5000010D13F8011D884203D1AB42A3EB0E0C1A
:101C6000F5D10AF1010AE2457DD8039B9944A4EB22
:101C7000030AA5E7029BC3F101039944A9444FF06D
:101C8000000A9DE70CD04FF0010E0D4672467144DC
:101C900021E70BD04FF0010E08467246714436E73B
:101CA000724512BF01321946012214E7724512BF74
:101CB0000132194601222AE7029AA31A934238BF39
:101CC0001346511E013305937318049103930025A5
:101CD00006EB020B07EB050E009A01991EF8023085
:101CE00051F8233083B11D44A8EB04039D42F1D980
:101CF00007EB080044F40061FFF7AAFE8044A8EB5C
:101D000004039D42E6D96AE7029B934217D2EA1880
:101D10009BF80030B95C99423A4429D1A4F1020CF5
:101D2000B4445B46C6F1010905E013F8010F12F84F
:101D3000011F88421ED1634509EB030AF5D1049BBC
:101D40005A1C10D0EA18039BB95C1B7899423A449C
:101D500016D1039B05E013F8010D12F8011D88420E
:101D60000ED1B342F7D170460DF21C4DBDE8F08F95
:101D7000DDF808A0029BC3F101031D445544B3E7FD
:101D8000059BB0E7DDF808C06BE706AB0193F4E60E
:101D90002DE9F0410E46097890B00446002958D04C
:101DA0007278002A00F08D80B078002855D0F37842
:101DB000002B00F08D803379002B5FD03046FFF789
:101DC0001FFD804640F400712046FFF741FE80452C
:101DD00072D8B8F1FE0F00F29280A0EB0807402203
:101DE00008F1010168462744FEF736FCB8F1000F00
:101DF00010D0731E03EB08055FFA88F013F8012F6B
:101E000010A902F03F020A44F11A0144AB4202F861
:101E1000401CF3D1013C10AA14F8083003F03F0332
:101E2000134413F8403C1C44A74203D238E02C442E
:101E3000A74235D314F8085010AB05F03F051D44F8
:101E400042463146204615F8405CFEF7D3FA00289A
:101E5000EDD1204610B0BDE8F081237842EA01427E
:101E600053B3601C617800E0204641EA0343441C00
:101E700011B39A424178F7D1441EEAE72278DAB1E9
:101E8000306800BA02E0834208D00C4642EA0323DD
:101E90006278611C002AF6D183420DD1033CD8E759
:101EA00017F8083007EB080033B14FF40061FFF773
:101EB000CFFD0744A742ADD20024204610B0BDE8B4
:101EC000F081FFF75BFA0446204610B0BDE8F081D0
:101ED0001204237842EA016242EA0022002BEBD08E
:101EE0001B02601C617800E020460B431B02441C6F
:101EF0000029E1D09A424178F6D1841EA9E7014633
:101F0000434620463246FFF7D7FD0446A1E700BF0F
:101F1000F0B418B307460D4617F8016B01E0A6426E
:101F200017D015F8014B002CF9D1E6B117F8015B79
:101F30000C4601E0002BF9D014F8013B9D42F9D189
:101F400055B1002307F8013C176006463046F0BC47
:101F5000704763B13846DDE72F46F5E71068002883
:101F6000D8D10646F2E730461660F0BC70471760DD
:101F700006460370EAE700BF0123FFF7C9BF00BFB1
:101F8000012B2DE9F84F41D0242B98463ED80F461F
:101F9000DFF81CC100E02F463D4615F8014B1CF848
:101FA000046016F00806F6D12D2C6CD02B2C0ABF3D
:101FB00095F800B0A346BD1C002B46D0102B57D07F
:101FC000002E14BF4FF000496FF000490027B9FB05
:101FD000F8FEBC4608FB1E9A07E0E64513D32FD057
:101FE0000CFB084C012715F801BBABF13004092CA0
:101FF00005D9ABF14104192C0FD8ABF13704A3423A
:1020000013DD002FE9DA4FF0FF37ECE700F0DCF9E1
:10201000162303600020BDE8F88FABF16104192C92
:1020200003D8ABF15704A342EBDC002F25DB0EB144
:10203000CCF1000C0AB177BB11606046BDE8F88FA7
:10204000A245CDDA4FF0FF37CDE7BBF1300F03D01B
:102050004FF00A084346B3E72B7803F0DF03582B11
:102060001BD14FF0100895F801B043460235A7E7A1
:10207000BBF1300F15D09846A2E7222303603AB196
:10208000691ECC46D8E795F800B00126BD1C93E741
:10209000CC466046D2E7E146F2E74FF008084346F7
:1020A0008EE72C7804F0DF04582CDAD0984687E7C6
:1020B00049BC010864E700BF10B4044C13460A464B
:1020C000014620685DF8044B5AE700BF000000207D
:1020D00010B4044C13460A46014620685DF8044BD0
:1020E0004EE700BF0000002070B5141E9AB00546F0
:1020F0002BDB1A464FF4027300910491ADF80C30BB
:1021000013D0013C4FF6FF761E9B0294694605945E
:10211000ADF80E6000F0AAFE421C01DA8B232B60A2
:10212000009B00221A701AB070BD1E9B02944FF6DD
:10213000FF7669460594ADF80E6000F097FE431CEB
:1021400001DA8B232B601AB070BD8B2303604FF034
:10215000FF30F8E710B5054C82B0009313460A46ED
:1021600001462068FFF7C0FF02B010BD000000204C
:10217000F8B50D461446064608B1836943B3254BAE
:102180009C422AD0244B9C4229D0244B9C4208BF1D
:10219000F468A389A269A2601A0722D5236903B350
:1021A00022686169D31AEDB299422F4629DD0133C5
:1021B000A168501C0139A1602060157062699A42C3
:1021C00016D0A389DB0701D50A2D11D03846F8BDFA
:1021D00000F0C0FA0F4B9C42D4D17468D9E7B468C0
:1021E000D7E72146304600F039F838B92369D7E7F8
:1021F0002146304600F084F90028E7D04FF0FF3741
:10220000E4E72146304600F07BF90028F6D1226849
:102210000123CDE790BD010870BD010850BD010844
:10222000024B0A4601461868FFF7A2BF00000020D3
:1022300070B50D46084C114606461A46284600233E
:10224000236002F0BDF8431C00D070BD2368002B52
:10225000FBD0336070BD00BF508101203B4B70B597
:102260001D6806460C460DB1AB69DBB1384B9C428C
:102270001ED0384B9C424AD0374B9C4208BFEC687A
:10228000B4F90C2093B2190718D5206908B313F0DC
:1022900001022CD0636900225B42A361A26060B39B
:1022A000002070BD284600F055FA294B9C42E0D131
:1022B0006C68B4F90C2093B21907E6D4DD063CD55E
:1022C000580726D4206942F00803A3819BB2002856
:1022D000DDD103F42072B2F5007FD8D0304621461C
:1022E000FEF72EF8A389206913F00102D2D19907D5
:1022F00058BF6269A2600028D2D1B4F90C301A0626
:10230000CFD543F04003A3814FF0FF3070BDAC68E0
:10231000B6E7616B51B104F14403994204D03046F1
:10232000FEF7EAF9B4F90C20002363630023206967
:10233000636022F024022060C5E742F040020923D6
:1023400033604FF0FF30A28170BD00BF000000205D
:1023500090BD010870BD010850BD010800B50A4CD0
:102360002668054685B01C46F06852B1074B0091BF
:10237000CDE9013206492B462246FDF77BFF00F0EE
:10238000C5FE044B1A46F2E7000000209CA3030898
:10239000ACA30308BC09020808B513460022FFF7E6
:1023A000DDFF00BF38B5074C002305460846236013
:1023B00001F0C0FF431C00D038BD2368002BFBD0C8
:1023C0002B6038BD50810120014B1868704700BF59
:1023D000000000208B891A072DE9F0410C46804649
:1023E00041D44A68002A59DDE66A002E53D0002203
:1023F000D8F80050216AC8F8002013F4805251D157
:1024000001234046B047431C5FD0A389E66A216A96
:102410005F0705D56268636B801A0BB1236CC01A25
:10242000024600234046B047461C45D1D8F800304C
:10243000B4F90C20002B55D01D2B01D0162B5AD1EE
:1024400023690022C4E90032616BC8F8005011B35F
:1024500004F14403994202D04046FEF74DF90020B2
:102460006063BDE8F0810E69AEB10D680E6099073A
:102470000CBF63690023AD1BA3600AE02B46324604
:10248000A76A216A4046B8470028A5EB0005064424
:102490000ADD002DF2DC0020BDE8F0810A6C002A84
:1024A000A2DCF8E7606DB3E7A38943F04003A381A2
:1024B0004FF0FF30BDE8F0812269A389226000223D
:1024C0006260DA04C0D56065BEE7D8F80030002B42
:1024D0009BD01D2B0CD0162B0AD0A38943F04003B0
:1024E000A381D9E72169C4E90013D304ACD5EAE795
:1024F000C8F80050CFE742F04002A281CCE700BF0D
:102500000B6923B310B5044682B008B18369BBB12F
:10251000104B994212D0104B994216D00F4B994252
:1025200008BFE168B1F90C302BB1204602B0BDE81C
:102530001040FFF74FBF002002B010BD6168F1E707
:10254000019100F007F90199E2E7A168EAE70020AC
:10255000704700BF90BD010870BD010850BD010863
:1025600020B1054B01461868FFF7CABF034B044969
:10257000186800F0CDBA00BF000000204CBD010873
:102580000125000800207047014900F0C1BA00BFD2
:10259000012500080020704770B54A1E682505FB1C
:1025A00002F50E4605F17401FEF7FCF8044640B151
:1025B00000210C30666005F168022160A060FEF722
:1025C0004BF8204670BD00BF1E4B70B51D68AB694F
:1025D000064643B34835D5E90134013B05D51EE035
:1025E000013B5A1C04F1680419D0B4F90C20002AEC
:1025F000F6D10025144B6566C4E90055A560C4E911
:102600000455A5612946E360082204F15C00FEF749
:1026100023F8C4E90D55C4E91255204670BD2C6855
:102620002CB12546D7E7284600F010F8D2E7042160
:102630003046FFF7B1FF044628600028F1D10C2393
:102640003360EAE74CBD01080100FFFF2DE9F84FB8
:10265000334B34491A68816290424FF00003C0E95D
:102660001233036504BF012383610546FFF7ACFF06
:1026700068602846FFF7A8FFA8602846FFF7A4FF78
:102680006E68E86000240423F3607466C6E90044C1
:10269000B460C6E90444B461214606F15C00082236
:1026A000FDF7DAFFDFF888B0AF68DFF888A0DFF861
:1026B0008890DFF888801C4BC6F83080C6E9086B2C
:1026C000C6E90AA92146FB6008227C66C7E90044E6
:1026D000BC60C7E90444BC6107F15C00FDF7BCFFC6
:1026E000EE68124BC7F83080C7E9087BC7E90AA932
:1026F0002146F3607466C6E90044B460C6E9044448
:10270000B46106F15C000822FDF7A6FF0123C6E9CB
:10271000086BC6E90AA9C6F83080AB61BDE8F88F3E
:102720004CBD0108892500080900010012000200C3
:10273000A5120008CD1200080D1300082D13000883
:10274000024B0349186800F0E3B900BF4CBD010813
:1027500001250008836903B978E77047704700BF17
:10276000704700BF704700BF704700BF024B03496E
:10277000186800F0A7B900BF0000002085250008F8
:10278000024B0349186800F09DB900BF000000200B
:102790009525000838B50B46074C054611461846E6
:1027A0000023236001F0CEFD431C00D038BD236818
:1027B000002BFBD02B6038BD508101209368002B8B
:1027C00000F002812DE9F04FB1F90C309BB20C46BC
:1027D000190783B08246904635D522699AB313F023
:1027E0000202D8F800603DD00027D4F828B0D4F811
:1027F00020C0DFF8CC923D464D452B463A4628BFD7
:102800004B4661465046D5B1D847002840F3D280A8
:10281000D8F808301B1A07442D1AC8F80830002BC6
:1028200000F0B780D4F820C0D4F828B04D452B462E
:102830003A4628BF4B4661465046002DE4D1D6E9C2
:1028400000750836D8E721465046FFF707FD0028F7
:1028500040F03081B4F90C30D8F800609BB213F02E
:102860000202C1D113F0010940F0B080A7682068CE
:102870004D46002D54D09A0540F1BC80AF42BB4676
:1028800000F2E78013F4906F2FD0D4E9041707EB20
:102890004707A0EB010B07EBD777681C7F10584464
:1028A000B8423A4684BF07463A465B0540F1E980A4
:1028B00011465046FDF776FF002800F0F5805A4695
:1028C00021690190FDF7C6FDA289019B22F4906267
:1028D00042F08002A281A7EB0B0203EB0B006761C1
:1028E00023612060A2602F46AB465A464946FDF759
:1028F0004BFEA2682368D21B5B442F46A260236074
:102900000025D8F80830DB1BB944C8F80830002B84
:102910003FD0B4F90C30A76820689BB2002DAAD133
:10292000D6E900950836A4E70BF1080353E90267DE
:102930009B460833002FF9D03A460A21304600F072
:102940003FF9002853D00130A0EB06094B46D4E9EB
:1029500004122068BB4228BF3B46884203D9A568C1
:102960001544AB4219DC9A427DDC1346A56A216A04
:1029700032465046A847051E1CDDB9EB05096BD051
:102980000120D8F808305B1B2E447F1BC8F80830A4
:1029900013BB002003B0BDE8F08F31462A46FDF797
:1029A000F3FD23682B44236021465046FFF7A8FD22
:1029B0000028E2D0B4F90C3043F040034FF0FF3070
:1029C000A38103B0BDE8F08F0020704733469146E5
:1029D000104617464E469B46002FA5D00028B5D17D
:1029E0003A460A21304600F0EBF80028ABD17B1CB8
:1029F0009946ACE72369834215D36169A94212D88D
:102A00002E4BA76A9D4294BF2B466FF000434A4667
:102A100093FBF1F3504601FB03F3216AB847071E0D
:102A2000C8DDED1B6DE7AF4228BF2F463A46494649
:102A3000FDF7AAFDA3682268DB1B3A44A36022606D
:102A4000002BEED121465046FFF75AFD0028E8D072
:102A5000B0E72F46AB4648E721465046FFF750FD0A
:102A600000288ED0A6E71A4631460193FDF78CFD6B
:102A7000019BA1682268C91A1A44A16022601D4600
:102A80007BE7504600F0F0F8034600287FF423AFC0
:102A900021695046FDF730FEB4F90C300C2223F0CA
:102AA0008003CAF8002087E70C23CAF80030B4F985
:102AB0000C3081E74FF0FF306CE700BFFEFFFF7F77
:102AC00000FCFF7F2DE9F04110F148071BD088463C
:102AD0000026D7E90154013D0FD4A389012B05F14C
:102AE000FF3506D9B4F90E300133204601D0C04776
:102AF00006436B1C04F16804EFD13F68002FE8D156
:102B00003046BDE8F0813E463046BDE8F08100BF6A
:102B10002DE9F84310F148071FD0884606464FF0CC
:102B20000009D7E90154013D11D4A389012B05F116
:102B3000FF3508D9B4F90E3001332146304602D0B2
:102B4000C04749EA00096B1C04F16804EDD13F68F5
:102B5000002FE6D14846BDE8F883B9464846BDE8AF
:102B6000F88300BF38B5074C0023054608462360AC
:102B700001F0F8FB431C00D038BD2368002BFBD0CC
:102B80002B6038BD5081012070B50D46084C1146B0
:102B900006461A4628460023236001F0F3FB431C37
:102BA00000D070BD2368002BFBD0336070BD00BF28
:102BB0005081012000000000000000000000000023
:102BC00001F0FF01102A2BDB10F0070F08D010F8DE
:102BD000013B013A8B422DD010F0070F42B3F6D1E2
:102BE000F0B441EA012141EA014122F007047FF0FB
:102BF00000070023F0E80256083C85EA010586EA52
:102C0000010685FA47F5A3FA87F586FA47F6A5FA8D
:102C100087F68EB9EED1F0BC01F0FF0102F0070299
:102C200032B110F8013B013A83EA010313B1F8D144
:102C30000020704701387047002D06BF3546033825
:102C4000073815F0010F07D1013015F4807F02BF5E
:102C5000013015F4C03F0130F0BC0138704700BFAF
:102C6000704700BF704700BF09B3F8B51446CAB13A
:102C700006460D4600F052FAA04202D32F463846CF
:102C8000F8BD21463046FDF78DFD07460028F6D0F9
:102C900022462946FDF7DEFB30462946FDF72CFD8E
:102CA0003846F8BD2746FDF727FD3846F8BD1146E2
:102CB000FDF778BD2DE9F0478E681D46AE420C4603
:102CC0000B68174636D88046888910F4906F0ED16D
:102CD000354618462A463946FDF756FCA268236851
:102CE000961B2B44A66023600020BDE8F087D1E945
:102CF000041606EB4606A3EB010906EBD6766B1C21
:102D000076104B44B342324684BF1E4632464305DA
:102D100012D511464046FDF745FD824600B34A46AE
:102D20002169FDF797FBA38923F4906343F08003A7
:102D3000A38106E02E46CCE74046FFF795FF82468A
:102D400050B1A6EB09020AEB09036661C4F810A0B2
:102D50002360A2602E46BCE721694046FDF7CCFC0B
:102D60000C23C8F80030A38943F04003A3814FF03F
:102D7000FF30BAE72DE9F04F936883B09046002BFF
:102D80006DD017688D6882460C460868083743E0A6
:102D9000A38913F4906F2ED0D4E9041505EB4505F3
:102DA000A0EB010B05EBD5750BEB06006D100130A8
:102DB000A8422A4684BF05462A465B0536D51146F9
:102DC0005046FDF7EFFC00283AD05A4621690190A1
:102DD000FDF740FBA289019B22F4906242F0800241
:102DE000A281A5EB0B0203EB0B0065612361206060
:102DF000A2603546B3465A464946FDF7C5FBD8F8AA
:102E00000830A2682068551B58449E1BA5602060AE
:102E1000C8F808601EB3083757E90296AB46002E83
:102E2000F9D0AE42B4D23546B346E4E75046FFF798
:102E30001BFF03460028D4D121695046FDF75CFCF6
:102E40000C23CAF80030A389002243F040034FF05E
:102E5000FF30A381C8E9012203B0BDE8F08F002054
:102E6000C8F8040003B0BDE8F08F00BF2DE9F04FB3
:102E700090468A899FB014068B46029003D50A6952
:102E8000002A00F00B81059330238DF8323098F83A
:102E900000308E4E002120220B918DF83120012729
:102EA000002B00F08480252B00F0F680454603E0DF
:102EB000252B00F0868025466B786C1C002BF7D103
:102EC000B4EB080A73D04246534659460298FFF7BE
:102ED000F1FE01306BD00B9B6A7853440B93002AB0
:102EE00065D000234FF0FF3201340693CDE908335B
:102EF0008DF85B301C93079205E0069A07FA03F3FE
:102F000013432C4606932546052215F8011B30462F
:102F1000FFF756FEAA46831B0028EED1069BD90672
:102F200044BF20228DF85B2021781A0744BF2B2252
:102F30008DF85B202A2948D1059A116804320029AE
:102F400005927EDB09916178A51C2E2956D0604C34
:102F500003222046FFF734FE002868D0001B069BA2
:102F6000402404FA00F00343069305F10108297890
:102F700058488DF830100622FFF722FE002866D050
:102F8000554B002B56D005AB00935A46534B029835
:102F900006A9AFF300808146B9F1FF3F07D00B9B34
:102FA0004B440B9398F80030002B7FF47CAFBBF8B8
:102FB0000C305B0654BF0B984FF0FF301FB0BDE8DC
:102FC000F08FB4EB080A8CD07DE7A1F13002092A1A
:102FD00088BFA246B9D8099B01E02C460135297863
:102FE00003EB830302EB4303A1F13002092AAA4653
:102FF000F3D92E2904F102050993A8D19AF80110FA
:103000002A292ED1059B9AF802101A6807920433D8
:10301000002A05930AF103050AF1020337DB2C4C61
:10302000032220469A46FFF7CBFD002896D1A846FA
:1030300055469CE7059B073323F0070308330593A8
:10304000ADE7494243F00203099106937BE705ABE4
:1030500000935A46214B029806A9FDF74FFE814680
:103060009AE7A1F130020023092A079301D923E04E
:103070005546697803EB830302EB4303A1F1300269
:10308000092A05F1010AF3D9023507935FE74FF0EA
:10309000FF329A4607925AE7444622E740210393BB
:1030A000FDF780FB039BCBF80000CBF8100030B19C
:1030B0004022CBF81420E6E6AA46013547E7029AFB
:1030C0000C2313604FF0FF3078E700BF14A3030810
:1030D0001CA3030820A3030800000000B52C00086F
:1030E00070B50D46084C114606461A462846002380
:1030F000236001F04FF9431C00D070BD2368002B02
:10310000FBD0336070BD00BF5081012008B50620A0
:1031100000F092F8012001F05BF900BF51F8043C87
:10312000181F002BBCBF0B58C018704710B580216A
:103130000446FDF737FB606440B1031F00227C307A
:1031400043F8042F8342FBD1002010BD4FF0FF3025
:1031500010BD00BF436C0BB100207047E6E700BF15
:103160001F2970B5054608D8436C16460C464BB16E
:1031700053F8240043F8246070BD162202604FF01B
:10318000FF3070BDFFF7D2FF08B96B6CF0E74FF06E
:10319000FF3070BD1F2938B521D8426C05460C465A
:1031A0006AB152F8213053B1012B16D0591C10D0FE
:1031B0000025204642F824509847284638BD284626
:1031C00000F070F8224601462846BDE8384000F07D
:1031D00055B816230360012038BD002038BD1623E2
:1031E00003604FF0FF3038BD1F2921D838B5436C3C
:1031F00005460C4683B153F8242003EB84034AB1FF
:10320000511C10D0012A0CD0002520461D6090478B
:10321000284638BD012038BDFFF788FF28B96B6C00
:10322000E9E7032038BD022038BD4FF0FF3038BD3C
:103230004FF0FF30704700BF024B01461868FFF7A0
:10324000A9BF00BF00000020024B0A4601461868D3
:10325000FFF786BF00000020034B1868436C0BB1DA
:103260000020704762E700BF00000020024B0146CB
:103270001868FFF7B9BF00BF0000002038B50B4643
:10328000074C0546114618460023236001F072F8EA
:10329000431C00D038BD2368002BFBD02B6038BD09
:1032A0005081012001F056B8F8B52DED028B57EC96
:1032B000106B55EC114B00F0C7F8614BB0EE408A33
:1032C000F0EE608A93F9003001332AD022462B4673
:1032D0002046294601F0D4FC18BB32463B46304616
:1032E000394601F0CDFC002844D1002200233046AD
:1032F000394601F093FCD8B100220023204629462C
:1033000001F08CFC00283DD145EC104B00F0DEFEB6
:1033100038B1204629460022002301F089FC00280C
:103320005BD1B0EE480AF0EE680ABDEC028BF8BD46
:10333000B0EE480AF0EE680A00F0C8FE58B300226A
:10334000002351EC180B01F069FC0028E9D047EC90
:10335000106B00F0BBFE0028E3D045EC104B00F0F2
:10336000B5FE0028DDD0FFF72FF8222303609FED84
:103370002C8BD6E7204629460022002301F04EFC84
:103380000028CED09FED288BB0EE480AF0EE680AF8
:10339000BDEC028BF8BD47EC106B00F097FE0028E7
:1033A000CDD045EC104B00F091FE0028C7D053EC77
:1033B000182B18EE100A194601F062FC18BBFFF733
:1033C00003F822230360002200233046394601F02F
:1033D0002FFC48B99FED168BA3E7FEF7F5FF2123DD
:1033E00003609FED158B9CE745EC104B00F080FED1
:1033F00022462B4651EC100B01F010FC0028E9D1BD
:103400009FED0D8B8DE7FEF7DFFF002200232121CA
:1034100001601046194601F0C3FA41EC180B80E731
:103420000000000000000000000000000000F03F6D
:10343000000000000000F07F000000000000F0FF2E
:1034400064000020000000002DE9F04F51EC110B4A
:1034500021F0004555EA000393B03DD059EC108BA4
:10346000694B29F000449C424E4610EE10AA2CDC19
:103470000F4611EE10CA36D09D4226DC624B9D42AB
:1034800020D0002ECDE9000138DB4FF0000BBCF15D
:10349000000F4ED15C4B9D4200F094805B4B9D42EF
:1034A00000F0A180B7F1804F00F09E84584B9F42FE
:1034B0003FD1002E3DDB49EC108B13B0BDE8F04F3F
:1034C00000F02EBDBCF1000FDBD004F1404404F548
:1034D000801454EA0A030BD14C49002041EC100B34
:1034E00013B0BDE8F08FB8F1000F01D1A542C5DDE2
:1034F000484813B0BDE8F04F00F0F2BD464B9D4286
:1035000077DCA3F154739D420EDD2B15A3F2FF333C
:10351000142B40F37184C3F134032CFA03F202FA42
:1035200003F3634500F0B7844FF0000BBCF1000FCC
:10353000B4D049EC108B00F0BFFD51EC100BBAF188
:10354000000F22D124B1314B26F040429A421CD1C7
:10355000002F05DA02460B4600202C4901F020FA24
:10356000002EBBDA04F1404404F5801454EA0B0346
:1035700040F0648402460B461046194600F02EFFC8
:1035800002460B4601F00CFAA8E7F30F03F1FF3AED
:103590005BEA0A0330D0214B9D4243DD03F1047303
:1035A0009D4240F3AF831E4B9C4240F33B83002F70
:1035B00040F33B8312A3D3E900231046194601F0E0
:1035C000C5F88BE704F1404303F5801353EA0A037F
:1035D00082D0134B9C4240F35383002FC0F22583CB
:1035E000DDE900017AE7002FC0F2F6834046494644
:1035F00074E74FF0020B4AE742464B46BCE700BF78
:103600009C7500883CE4377E0000F07F0000F03FAE
:103610000000E03FBC090208FFFF3F430000E0411B
:10362000FFFFEF3FD24B3340002B40F0D38300220B
:10363000D04B01F08BF86FF034060C462315CE4AC0
:10364000C4F31304A3F2FF3344F07F559E19944250
:103650000D9645F4401540F3B083C84B9C4240F3AF
:10366000F6839FEDAD7B8DED087B8DED107B9FED9F
:10367000AC7B8DED067B01360D96A5F580154FF0E0
:103680000008DDE906232946064600F0A7FEDDE92D
:103690000623CDE90A013046294600F0A1FE024684
:1036A0000B460020B64901F07BF903460C46CDE9F4
:1036B0000E3402460B46DDE90A0101F047F86B10B3
:1036C00043F0005303F500230A462F46014603EB5F
:1036D00008050023CDE902120293DDE902890024E6
:1036E000CDE904122B4622464046494601F02EF809
:1036F00002460B46DDE90A0100F070FEDDE9062313
:10370000CDE90A012046294600F068FE02460B4634
:103710003046394600F062FE42464B4601F016F84C
:1037200002460B46DDE90A0100F058FEDDE90E23F2
:1037300001F00CF8DDE90445CDE9060122462B46EF
:103740002046294601F002F877A3D3E90023044676
:103750000D4600F0FBFF76A3D3E9002300F040FE06
:1037600022462B4600F0F2FF73A3D3E9002300F0BA
:1037700037FE22462B4600F0E9FF71A3D3E9002370
:1037800000F02EFE22462B4600F0E0FF6EA3D3E9A8
:10379000002300F025FE22462B4600F0D7FF6CA345
:1037A000D3E9002300F01CFE224606460F462B46B6
:1037B0002046294600F0CAFF02460B4630463946ED
:1037C00000F0C4FF424604460D464B46DDE90401C5
:1037D00000F006FEDDE9062300F0B8FF22462B4686
:1037E00000F0FEFD424606460F464B46404649461F
:1037F00000F0ACFF0022634BCDE90A0100F0F0FDC0
:1038000032463B4600F0ECFD02980D460446224647
:103810002B464046494600F099FF002280468946E3
:10382000584B2046294600F0D9FDDDE90A2300F077
:10383000D5FD02460B463046394600F0CFFDDDE9A6
:10384000042300F083FF224606460F462B46DDE99F
:10385000060100F07BFF02460B463046394600F079
:10386000BFFD06460F4602460B464046494600F05D
:10387000B7FD029838A3D3E9002304460D4600F0B3
:1038800065FF4246CDE904014B462046294600F03B
:10389000A5FD02460B463046394600F09FFD30A399
:1038A000D3E9002300F052FF2FA3D3E900230646FB
:1038B0000F462046294600F049FF02460B46304697
:1038C000394600F08DFDDDE9102300F089FD044646
:1038D0000D980D4600F0D0FE224606460F462B46B8
:1038E000DDE9040100F07CFDDDE9082300F078FD4E
:1038F00032463B4600F074FD029832463B46804615
:10390000894600F06BFDDDE9082300F067FDDDE985
:10391000042339E0AFF30080000000000000000045
:10392000000000000000F03FEF4E454A287ECA3FED
:1039300065DBC9934A86CD3F01411DA96074D13F23
:103940004D268F515555D53FFFAB6FDBB66DDB3F35
:10395000033333333333E33F000000E009C7EE3F66
:10396000FD033ADC09C7EE3FF5015B14E02F3EBED4
:103970000000F07F000040438E98030079B60B00F2
:103980000000F03F0000084000F028FD0B46024612
:103990002946204600F022FD0BF1FF3353EA0A03CB
:1039A000CDE9020140F067819FEDB97B8DED047B8D
:1039B000DDE9002300261046194632461F4600F076
:1039C0000DFD42464B4600F0C1FEDDE90023824674
:1039D0008B46DDE9020100F0B9FE02460B46504677
:1039E000594600F0FDFC32468B4682463B46404637
:1039F0004946CDE900AB00F0A9FE0B4602468046E1
:103A000089465046594600F0EBFCB94B99420446B2
:103A10000D468B4640F30C8101F13F4303F5E00373
:103A2000034340F0FD819CA3D3E90023DDE90001BD
:103A300000F0D6FC424606460F464B462046294635
:103A400000F0CCFC02460B463046394601F00EF938
:103A5000002840F0E581CBF30A534FF48012A3F223
:103A6000FE3342FA03F35B44C3F30A52A14DA2F2C0
:103A7000FF321541C3F3130423EA05010020C2F10C
:103A8000140A44F48014BBF1000F02460B4644FABA
:103A90000AFA40464946B8BFCAF1000A00F09EFC47
:103AA000804689464246DDE900014B4600F098FC1D
:103AB0004FEA0A5B0D46002479A3D3E90023204690
:103AC000294600F043FE424606460F464B46204636
:103AD000294600F083FC02460B46DDE9000100F0B8
:103AE0007DFC71A3D3E9002300F030FE70A3D3E97D
:103AF0000023804689462046294600F027FE0246DC
:103B00000B464046494600F06BFC8046894602461B
:103B10000B463046394600F063FC32463B460446CD
:103B20000D4600F05BFC02460B464046494600F05D
:103B300055FC2246804689462B462046294600F001
:103B400005FE5DA3D3E9002306460F4600F0FEFD07
:103B50005BA3D3E9002300F041FC32463B4600F072
:103B6000F5FD59A3D3E9002300F03AFC32463B4669
:103B700000F0ECFD56A3D3E9002300F02FFC324601
:103B80003B4600F0E3FD54A3D3E9002300F028FCFA
:103B900032463B4600F0DAFD02460B4620462946F7
:103BA00000F01CFC06460F4602460B4620462946FE
:103BB00000F0CCFD0022CDE900014FF080433046FB
:103BC000394600F00BFC02460B46DDE9000100F02F
:103BD000E7FE424606460F464B462046294600F081
:103BE000B5FD42464B4600F0FBFB02460B46304615
:103BF000394600F0F3FB22462B4600F0EFFB02466D
:103C00000B4600203C4900F0E9FB8B44BBF5801FCC
:103C100002460B46C0F237815946DDE9042300F025
:103C200095FD5BE4002FFFF6C5AC0020002155E4B4
:103C3000DFF8CCC021F00043634540F3EB802F4B0D
:103C40000B4403430AD142464B4600F0C7FBDDE973
:103C5000002301F001F800283FF4FDAEDDE9040186
:103C60001FA3D3E9002300F071FD1DA3D3E90023B6
:103C700000F06CFD32E49FED1C7B8DED047B97E63C
:103C8000002FD2DADDE90034184604F1004125E4C2
:103C9000000000000000F0BFFE822B654715973C36
:103CA00000000000432EE63FEF39FAFE422EE63FC9
:103CB000396CA80C615C20BED0A4BE726937663E28
:103CC000F16BD2C541BDBB3E2CDE25AF6A56113F1C
:103CD00093BDBE166CC1663F3E5555555555C53F03
:103CE00059F3F8C21F6EA501000000000000F03F6C
:103CF000FFFF8F40FFFF0F000000F03F00346F3FD9
:103D0000FFCB9040824B9C428CDD824B9C423FF724
:103D10004EAC00227F4B00F061FB69A3D3E9002386
:103D200004460D4600F012FD67A3D3E900230646C2
:103D30000F462046294600F009FD002280468946AC
:103D4000754B2046294600F001FD02460B4660A156
:103D5000D1E9000100F042FB22462B4600F0F6FCC0
:103D600002460B4600206D4900F038FB2246CDE9A3
:103D700002012B462046294600F0E8FC02460B468D
:103D8000DDE9020100F0E2FC53A3D3E9002300F0D7
:103D9000DDFC02460B464046494600F01FFB02464A
:103DA0000B4604460D463046394600F019FB00200C
:103DB0008046894632463B46E6E59FED497B8DEDE0
:103DC000087B8DED107B9FED487B4FF000088DED5B
:103DD000067B56E4002631E442464B4600204D491E
:103DE00000F0DEFDFFF77ABB42464B4640464946AF
:103DF00000F0ACFCFFF772BBBCF1000F36D1C3F191
:103E0000140345FA03F202FA03F3AB424DD0E34642
:103E1000FFF744BB414A93424DDCB346B2464AE603
:103E2000DDE9040132A3D3E9002300F08FFC30A3C5
:103E3000D3E9002300F08AFCFFF750BBBBF1010F70
:103E40007FF44CAB01F100431946FFF747BB9FEDF0
:103E50002A7B8DED087B9FED2A7B8DED107B9FEDFE
:103E60002A7B4FF480288DED067B0AE449EC108B09
:103E700000F022F951EC100BBAF1000F7FF4BCAB4B
:103E8000D346FFF75FBB504643EC102B00F0C0F960
:103E900051EC100BC1E602F00102C2F1020BBCF1C1
:103EA000000F3FF4FBAAFFF744BB02F00102C2F18E
:103EB000020BFFF7F3BA1B15CFE500BFAFF300808D
:103EC000000000604715F73F44DF5DF80BAE543E3D
:103ED000555555555555D53FFE822B654715F73F2E
:103EE0000000000000000000000000000000F03FA3
:103EF0009C7500883CE4377E0000004003B8E23F38
:103F000006D0CF43EBFD4C3E000000000000F83F20
:103F1000FEFFEF3F0000F03F0000D03F0000E03F19
:103F20002DE9F041634955EC104BA94300F09F8007
:103F3000002D2B4610EE102A52DD5FEA255E00F0C0
:103F4000B180C3F31303AEF2FF3E43F48013D10FED
:103F50001EF0010F01EB43034FEA420403D0E40FCC
:103F600004EB430394004FF0000C4FEA6E0E6646DC
:103F700016254FF40012B118994202DC5B1A8E1814
:103F800094445B00013D03EBD4734FEA52024FEAC5
:103F90004404F0D12F4620204FF0004209E041D0E8
:103FA000E10F01384FEA520201EB43034FEA4404A8
:103FB00041D0B34202EB0501F1DD002901EB02051E
:103FC00009DBB0469B1BA14288BF03F1FF33641A93
:103FD00017444646E4E7002DF3DB06F10108F1E75C
:103FE00025F00041214339D0002D50D1D40A153B92
:103FF00052052146002CF9D0E50256D4002000E0FD
:1040000028464900CC0200F10105F9D50C461146BD
:10401000AA40C5F1200521FA05F5A3EB000E45EAFB
:1040200004038EE7A142BBD8002901EB0205D2DBD5
:1040300098460023CBE7234312D178084FEA6C015E
:1040400001F17F511CF0010F01F5001118BF40F084
:10405000004001EB0E53024643EC102BBDE8F0810B
:104060007B1C16BF781C0CF1010C4008E6E710EE33
:10407000102A2B4610EE100A294600F067FB224654
:104080002B4600F0ADF941EC100BBDE8F081204665
:10409000294600F0A3F902460B4600F081FC41ECF2
:1040A000100BDBE729467346A8E7114620254FF0A1
:1040B000FF30B0E70000F07F51EC100B10EE102A3B
:1040C00021F0004343EC102B704700BF10EE903AF4
:1040D00043F0004000F58010C00F70470000000062
:1040E0009FED010B704700BF000000000000F87F4B
:1040F000F0B553EC102BC3F30A56A6F2FF30132889
:1041000083B019464FEAD37410EE105A37DC0028FA
:104110002DDB3D4E064103EA060717432BD07608F8
:1041200033401D430CD04FF48023132821EA0606A8
:1041300043FA00F141EA06010CBF4FF000450025AB
:10414000324800EBC4042A46D4E900450B46204619
:10415000294600F045F9CDE9000122462B46DDE96C
:10416000000100F03BF941EC100B03B0F0BD23F06F
:104170000040104322D143EC102B03B0F0BD332894
:1041800009DDB0F5806FF6D110EE100A00F028F9C5
:1041900041EC100BF1E7A6F213464FF0FF30F04070
:1041A0000242E8D040080242CAD04FF0804325EADC
:1041B000000043FA06F640EA0605C1E7C3F3130020
:1041C000104345420543114800EBC400D0E90067A5
:1041D000590C2D0B490405F4002545EA010330462E
:1041E000394600F0FDF8CDE900013B463246DDE9F5
:1041F000000100F0F3F821F0004343EAC47141EC00
:10420000100B03B0F0BD00BFFFFF0F00B0BD0108F1
:1042100038B553EC102BC3F30A511C46054681BB3D
:1042200010EE101A23F00044214329D01946002231
:104230003D4B3E4C10EE100A00F088FAA5420246B3
:104240000B4616DB0C46C1F30A513639294440F2BD
:10425000FE70814221DC002947DC11F1350F34DA90
:104260004CF250318D4218DC002B27A1D1E900011E
:1042700044DB25A3D3E9002300F068FA41EC100BDE
:1042800038BD40F2FF708142E0D110EE100A1946AD
:1042900000F0A6F841EC100B38BD002B1CA1D1E9B1
:1042A000000107DB1AA3D3E9002300F04FFA41EC29
:1042B000100B38BD18A1D1E9000115A3D3E90023E3
:1042C00000F044FA41EC100BF3E724F0FF4424F42F
:1042D000E004363144EA0153104619460022144BDB
:1042E00000F034FA41EC100B38BD24F0FF4424F404
:1042F000E00444EA015343EC102B38BD08A1D1E996
:104300000001B6E7AFF3008059F3F8C21F6EA501B4
:104310009C7500883CE4377E9C7500883CE437FE41
:1043200059F3F8C21F6EA58100005043B03CFFFF57
:104330000000903C024B58221A604FF0FF3070474B
:1043400050810120024B58221A604FF0FF30704715
:1043500050810120024B58221A604FF0FF30704705
:1043600050810120024B58221A600020704700BF84
:1043700050810120024B58221A604FF0FF307047E5
:1043800050810120024B58221A604FF0FF307047D5
:1043900050810120024B58221A604FF0FF307047C5
:1043A00050810120044A05491368002B08BF0B46C1
:1043B00018441060184670475403002058810120AB
:1043C000024B58221A604FF0FF3070475081012095
:1043D000FEE700BF81F0004102E000BF83F0004330
:1043E00030B54FEA41044FEA430594EA050F08BF90
:1043F00090EA020F1FBF54EA000C55EA020C7FEA54
:10440000645C7FEA655C00F0E2804FEA5454D4EBD0
:104410005555B8BF6D420CDD2C4480EA020281EA9A
:10442000030382EA000083EA010180EA020281EAD2
:104430000303362D88BF30BD11F0004F4FEA013124
:104440004FF4801C4CEA113102D0404261EB410133
:1044500013F0004F4FEA03334CEA133302D05242B9
:1044600063EB430394EA050F00F0A780A4F1010475
:10447000D5F1200E0DDB02FA0EFC22FA05F28018AF
:1044800041F1000103FA0EF2801843FA05F3594195
:104490000EE0A5F120050EF1200E012A03FA0EFC14
:1044A00028BF4CF0020C43FA05F3C01851EBE3713E
:1044B00001F0004507D54FF0000EDCF1000C7EEB5B
:1044C00000006EEB0101B1F5801F1BD3B1F5001F99
:1044D0000CD349085FEA30004FEA3C0C04F10104B8
:1044E0004FEA445212F5800F80F09A80BCF1004FE1
:1044F00008BF5FEA500C50F1000041EB045141EA63
:10450000050130BD5FEA4C0C404141EB0101013C2B
:1045100028BFB1F5801FE9D291F0000F04BF01461A
:104520000020B1FA81F308BF2033A3F10B03B3F1EC
:1045300020020CDA0C3208DD02F1140CC2F10C027C
:1045400001FA0CF021FA02F10CE002F11402D8BFDA
:10455000C2F1200C01FA02F120FA0CFCDCBF41EAA6
:104560000C019040E41AA2BF01EB0451294330BD75
:104570006FEA04041F3C1CDA0C340EDC04F1140452
:10458000C4F1200220FA04F001FA02F340EA030029
:1045900021FA04F345EA030130BDC4F10C04C4F16F
:1045A000200220FA02F001FA04F340EA030029464F
:1045B00030BD21FA04F0294630BD94F0000F83F499
:1045C000801306BF81F480110134013D4EE77FEA7C
:1045D000645C18BF7FEA655C29D094EA050F08BFC8
:1045E00090EA020F05D054EA000C04BF19461046A9
:1045F00030BD91EA030F1EBF0021002030BD5FEAED
:10460000545C05D14000494128BF41F0004130BD14
:1046100014F580043CBF01F5801130BD01F0004568
:1046200045F0FE4141F470014FF0000030BD7FEADB
:10463000645C1ABF194610467FEA655C1CBF0B46D6
:10464000024650EA013406BF52EA033591EA030FED
:1046500041F4002130BD00BF90F0000F04BF0021E5
:10466000704730B54FF4806404F132044FF0000518
:104670004FF0000150E700BF90F0000F04BF002191
:10468000704730B54FF4806404F1320410F00045F7
:1046900048BF40424FF000013EE700BF42004FEAF2
:1046A000E2014FEA31014FEA02701FBF12F07F436F
:1046B00093F07F4F81F06051704732F07F4208BF26
:1046C000704793F07F4F04BF41F40021704730B52D
:1046D0004FF4607401F0004521F000411CE700BF79
:1046E00050EA010208BF704730B54FF000050AE0FC
:1046F00050EA010208BF704730B511F0004502D5FD
:10470000404261EB41014FF4806404F132045FEAFE
:10471000915C3FF4D8AE4FF003025FEADC0C18BFA7
:1047200003325FEADC0C18BF033202EBDC02C2F199
:10473000200300FA03FC20FA02F001FA03FE40EA2B
:104740000E0021FA02F11444BDE600BF70B54FF02F
:10475000FF0C4CF4E06C1CEA11541DBF1CEA13550D
:1047600094EA0C0F95EA0C0F00F0DEF82C4481EA75
:10477000030621EA4C5123EA4C5350EA013518BF95
:1047800052EA033541F4801143F4801338D0A0FB82
:1047900002CE4FF00005E1FB02E506F00042E0FB2F
:1047A00003E54FF00006E1FB03569CF0000F18BF35
:1047B0004EF0010EA4F1FF04B6F5007F64F54074DD
:1047C00004D25FEA4E0E6D4146EB060642EAC62170
:1047D00041EA55514FEAC52040EA5E504FEACE2EDD
:1047E000B4F1FD0C88BFBCF5E06F1ED8BEF1004FE0
:1047F00008BF5FEA500E50F1000041EB045170BD5C
:1048000006F0004646EA010140EA020081EA03019F
:10481000B4EB5C04C2BFD4EB0C0541EA045170BD9B
:1048200041F480114FF0000E013C00F3AB8014F115
:10483000360FDEBF002001F0004170BDC4F100045E
:10484000203C35DA0C341BDC04F11404C4F12005DF
:1048500000FA05F320FA04F001FA05F240EA02003A
:1048600001F0004221F0004110EBD37021FA04F670
:1048700042EB06015EEA430E08BF20EAD37070BD2A
:10488000C4F10C04C4F1200500FA04F320FA05F089
:1048900001FA04F240EA020001F0004110EBD3708B
:1048A00041F100015EEA430E08BF20EAD37070BDFB
:1048B000C4F1200500FA05F24EEA020E20FA04F3D4
:1048C00001FA05F243EA020321FA04F001F0004183
:1048D00021FA04F220EA020000EBD3705EEA430EF4
:1048E00008BF20EAD37070BD94F0000F0FD101F023
:1048F0000046400041EB010111F4801F08BF013C5C
:10490000F7D041EA060195F0000F18BF704703F099
:104910000046520043EB030313F4801F08BF013D20
:10492000F7D043EA0603704794EA0C0F0CEA1355DC
:1049300018BF95EA0C0F0CD050EA410618BF52EA96
:104940004306D1D181EA030101F000414FF000009C
:1049500070BD50EA410606BF1046194652EA4306AA
:1049600019D094EA0C0F02D150EA013613D195EA1E
:104970000C0F05D152EA03361CBF104619460AD166
:1049800081EA030101F0004141F0FE4141F4700170
:104990004FF0000070BD41F0FE4141F4780170BD60
:1049A00070B54FF0FF0C4CF4E06C1CEA11541DBFC5
:1049B0001CEA135594EA0C0F95EA0C0F00F0A7F8C7
:1049C000A4EB050481EA030E52EA03354FEA0131F4
:1049D00000F088804FEA03334FF0805545EA131307
:1049E00043EA12634FEA022245EA111545EA1065CF
:1049F0004FEA00260EF000419D4208BF964244F166
:104A0000FD0404F5407402D25B084FEA3202B61A84
:104A100065EB03055B084FEA32024FF480104FF458
:104A2000002CB6EB020E75EB030E22BFB61A7546CC
:104A300040EA0C005B084FEA3202B6EB020E75EB5F
:104A4000030E22BFB61A754640EA5C005B084FEAC7
:104A50003202B6EB020E75EB030E22BFB61A754694
:104A600040EA9C005B084FEA3202B6EB020E75EB9F
:104A7000030E22BFB61A754640EADC0055EA060E60
:104A800018D04FEA051545EA16754FEA06164FEAA3
:104A9000C30343EA52734FEAC2025FEA1C1CC0D14F
:104AA00011F4801F0BD141EA00014FF000004FF0DC
:104AB000004CB6E711F4801F04BF01430020B4F19D
:104AC000FD0C88BFBCF5E06F3FF6AFAEB5EB030C55
:104AD00004BFB6EB020C5FEA500C50F1000041EB52
:104AE000045170BD0EF0004E4EEA113114EB5C041F
:104AF000C2BFD4EB0C0541EA045170BD41F48011F2
:104B00004FF0000E013C90E645EA060E8DE60CEAF9
:104B1000135594EA0C0F08BF95EA0C0F3FF43BAF16
:104B200094EA0C0F0AD150EA01347FF434AF95EACD
:104B30000C0F7FF425AF104619462CE795EA0C0FB1
:104B400006D152EA03353FF4FDAE1046194622E77E
:104B500050EA410618BF52EA43067FF4C5AE50EA58
:104B600041047FF40DAF52EA43057FF4EBAE12E748
:104B70004FF0FF3C06E000BF4FF0010C02E000BF29
:104B80004FF0010C4DF804CD4FEA410C7FEA6C5C0C
:104B90004FEA430C18BF7FEA6C5C1BD001B050EAAF
:104BA000410C0CBF52EA430C91EA030F02BF90EA9A
:104BB000020F0020704710F1000F91EA030F58BF59
:104BC000994208BF90422CBFD8176FEAE37040F0BB
:104BD000010070474FEA410C7FEA6C5C02D150EA59
:104BE000013C07D14FEA430C7FEA6C5CD6D152EA14
:104BF000033CD3D05DF8040B704700BF84461046D9
:104C000062468C461946634600E000BF01B5FFF7D7
:104C1000B7FF002848BF10F1000F01BD4DF808EDA7
:104C2000FFF7F4FF0CBF012000205DF808FB00BF78
:104C30004DF808EDFFF7EAFF34BF012000205DF8D2
:104C400008FB00BF4DF808EDFFF7E0FF94BF01201F
:104C500000205DF808FB00BF4DF808EDFFF7CEFF20
:104C600094BF012000205DF808FB00BF4DF808ED5F
:104C7000FFF7C4FF34BF012000205DF808FB00BF30
:104C80004FEA410C7FEA6C5C02D150EA013C0AD148
:104C90004FEA430C7FEA6C5C02D152EA033C02D13A
:104CA0004FF0000070474FF0010070474A0011D2EA
:104CB00012F5001211D20DD56FF47873B3EB625276
:104CC0000ED44FEAC12343F0004343EA505323FA82
:104CD00002F070474FF00000704750EA013002D1F7
:104CE0004FF0FF3070474FF00000704753B94AB99A
:104CF000002908BF00281CBF4FF0FF314FF0FF30E4
:104D000000F06EB9ADF1080C6DE904CE00F006F8C4
:104D1000DDF804E0DDE9022304B070472DE9F04737
:104D2000089D04468C46002B40F083808A4217463B
:104D300047D9B2FA82F242B1C2F1200024FA00F05F
:104D40009140974040EA010C94404FEA1748230CE9
:104D5000BCFBF8F61FFA87FE08FB16C143EA0143C5
:104D600006FB0EF1994209D9FB1806F1FF3080F0DD
:104D70001981994240F21681023E3B445B1AA4B26B
:104D8000B3FBF8F008FB103344EA034400FB0EFECB
:104D9000A64509D93C1900F1FF3380F00581A645ED
:104DA00040F2028102383C4440EA0640A4EB0E0483
:104DB00000261DB1D4400023C5E900433146BDE8BB
:104DC000F08702B9FFDEB2FA82F2002A50D1CB1B83
:104DD0004FEA174E1FFA87F80126B3FBFEFC210CA1
:104DE0000EFB1C3341EA034108FB0CF38B4207D94D
:104DF00079180CF1FF3002D28B4200F2E980844630
:104E0000C91AA3B2B1FBFEF00EFB101143EA014434
:104E100008FB00F8A04507D93C1900F1FF3302D286
:104E2000A04500F2D9801846A4EB080440EA0C40E3
:104E3000BFE78B4209D9002D00F0B1800026C5E9FB
:104E4000000130463146BDE8F087B3FA83F6002E04
:104E50004AD18B4202D3824200F2B880841A61EBBD
:104E6000030101208C46002DA8D0C5E9004CA5E720
:104E7000C2F1200320FA03F6974001FA02F04FEA4C
:104E8000174ED9403043030CB1FBFEF61FFA87F8EA
:104E90000EFB161143EA014306FB08F1994204FA9E
:104EA00002F409D9FB1806F1FF3C80F08D8099428D
:104EB00040F28A80023E3B445B1A81B2B3FBFEF0B3
:104EC0000EFB103341EA034100FB08F38B4207D984
:104ED000791800F1FF3C73D28B4271D90238394402
:104EE000CB1A40EA064678E7C6F1200C03FA06F42E
:104EF00022FA0CF31C4320FA0CF701FA06F34FEAEE
:104F0000144E21FA0CF11F433B0CB1FBFEF91FFAC2
:104F100084F80EFB191143EA014109FB08FA8A459E
:104F200002FA06F200FA06F308D9611809F1FF3017
:104F300048D28A4546D9A9F102092144A1EB0A01C8
:104F4000BFB2B1FBFEF00EFB101147EA014700FBB8
:104F500008F8B84507D9E71900F1FF312ED2B84556
:104F60002CD90238274440EA0940A7EB0807A0FBE8
:104F700002894F45C64649461AD317D05DB1B3EBF7
:104F80000E0267EB010707FA0CFCF2404CEA020242
:104F9000F740C5E9002700263146BDE8F0872E46D8
:104FA00028460BE70646E9E61846FDE64345E5D206
:104FB000B8EB020E69EB04010138DFE70846D2E7DF
:104FC00060468DE78146B9E7664675E730464AE7B1
:104FD000ACF1020C394413E702383C4424E700BF2B
:104FE000704700BF30B593B00A230093402302AA54
:104FF0002021A02001F070FFF8B99DF80830FF2BA8
:105000001BD09DF80920FF2A17D09DF80A10FF2910
:1050100013D09DF80B00FF280FD073B16AB161B1B6
:1050200058B1074C02AD0FCD0FC40FCD0FC40FCD3B
:105030000FC495E80F0084E80F0013B030BD00BF27
:105040006800002000B583B002460A230093402385
:105050002021A02001F084FF10B103B05DF804FB13
:105060004FF47A700BF0A1FD05F090FDF5E700001C
:10507000154B164A1268C3F80220154A1268C3F885
:105080000620144A1268DA60134A12681A61134A39
:105090001268C3F81620124A1268C3F81A20114A7F
:1050A00012681A62104A12685A62104A1268C3F8EB
:1050B0002A200F4A1268C3F82E200E4A12689A64FA
:1050C0000D4A1268DA647047600200204410012023
:1050D000541001201C100120641001202810012010
:1050E000101001206C100120381001205C100120EC
:1050F00068100120301001205810012010B582B036
:105100000C46013805280ED8DFE800F0030F1A25F9
:10511000303B0846FCF774FB009023460022114602
:10512000022002F077FB02B010BD0846FCF768FBD6
:105130000090234600221146022002F06BFBF2E7AA
:105140000846FCF75DFB0090234600221146022032
:1051500002F060FBE7E70846FCF752FB00902346AD
:1051600000221146022002F055FBDCE70846FCF75E
:1051700047FB0090234600221146022002F04AFB22
:10518000D1E70846FCF73CFB00902346002211467D
:10519000022002F03FFBC6E72DE9F041ADF5087DA6
:1051A0001E460B78212B2DD00D46174600248294E5
:1051B00083948494859486944FF480784246214663
:1051C00042A8FBF749FA4246214602A8FBF744FAF7
:1051D0001EB18E9B0BB18F9BC3B94FF4807200211F
:1051E00042A8FBF739FA42AC414D0FCD0FC495E808
:1051F000070003C424F8022B120C227042A90320DA
:10520000FFF77CFF0DF5087DBDE8F08114212846ED
:10521000FCF71EFC0246294682A8FCF7DFFB42464B
:10522000214642A8FBF718FA8E9B009382AB314AC5
:10523000FF2142A8FBF7B0FF072F42DC909B002B19
:105240003FD04246214602A8FBF706FA42AC204670
:10525000FCF7D6FA91AB8793C0F1FF05909A2946E7
:1052600002A8FCF777FF804602A8FCF7C9FA0646B9
:10527000024602A92046FCF731FB2046FCF7C0FAA3
:105280001D4B1B88235221463846FFF737FF454503
:1052900001D3002EB6DC4FF48072002142A8FBF748
:1052A000DBF942AC154D0FCD0FC495E8070003C4E0
:1052B00024F8022B120C227042A90520FFF71EFFD2
:1052C000A0E74FF48072002142A8FBF7C5F942AC79
:1052D0000B4D0FCD0FC40FCD0FC495E8030044F85C
:1052E000040B218042A90320FFF708FF8AE700BFD3
:1052F00010BE0108C0BD0108D4CB0108CCBD010817
:10530000E8BD010830B59BB005460C46502200218F
:1053100006A8FBF7A1F92F212846FCF7BBFB049454
:1053200001300390084B02934FF493730193074BA2
:105330000093074B042207490020FFF72DFF4FF48D
:105340007A700BF032FCE6E774BE01088CBE0108EF
:105350002CBE0108BC090208024A1368013313601D
:10536000704700BF5803002008B528B1012806D0B7
:10537000022807D0002008BD05F05AFCFBE705F025
:105380005DFCF8E705F060FCF5E7000090B3F8B5C8
:10539000044600202070012565700423A370FFF7E8
:1053A000E3FFC4F803002846FFF7DEFFC4F8070058
:1053B0000220FFF7D9FFC4F80B004FF0FF33E3736F
:1053C00023746374A374E37423756375A375E37521
:1053D00023766376A376084E1B3406F140073546E4
:1053E0000FCD20606160A260E3602E461034BD42A4
:1053F000F5D1F8BD704700BF68000020014B9888C8
:10540000704700BF68000020014B5889704700BFFB
:1054100068000020014B9889704700BF6800002099
:10542000014BD889704700BF680000200A2900D8C6
:10543000704770B58EB004462822002104A8FBF7FF
:105440000BF92C212046FBF799FF461C2E21204604
:10545000FBF794FF0546821BD2B2314601A803F048
:10546000BFFD01352E212846FBF788FF0446421B6D
:10547000D2B229460DF1050003F0B2FD01342E2110
:105480002046FBF77BFF0546021BD2B221460DF1F9
:10549000060003F0A5FD0022691C0DF1070003F0D2
:1054A0009FFD0EB070BD00B585B000238DF80F30A4
:1054B000072902D005B05DF804FB2C21FBF75EFF45
:1054C0000222411C0DF10F0003F03CFD9DF80F007E
:1054D00000020022019200921346032140F0FF00D7
:1054E00002F0A2FC0028E5D0418802F071FBE1E760
:1054F00010B584B000238DF80B300A2901D004B018
:1055000010BD8DF80C302C21FBF738FF441C022213
:1055100021460DF10B0003F015FD2C212046FBF771
:105520002DFF0222411C03A803F00CFD9DF80B4047
:10553000C4B1200240F0FF00002301930093012337
:1055400003AA042180B202F06FFC0028D7D0418862
:1055500002F03EFBD3E7601C0021C0B200F004FA69
:105560000134E4B2032CCAD89DF80C30234113F067
:10557000010FF0D0601C0121C0B200F0F5F9EFE797
:1055800000B585B003F0D8FC8DF80C0048B90022B6
:10559000009213460321072002F03CF905B05DF8A4
:1055A00004FB002301930093012303AA02214FF679
:1055B000FF7002F0DDFB0028F0D0418802F008FB0C
:1055C000ECE7000010B586B000238DF813302C21D5
:1055D000FBF7D4FE0222411C0DF1130003F0B2FCD4
:1055E00001240CB906B010BD013C03F0A5FC8DF8F8
:1055F00014009DF813308DF81530002301930093AB
:10560000022305AA19464FF6FF7002F0B1FB78B1EC
:10561000418802F0DDFA0390074B0293C523019302
:10562000064B0093064B042206490020FFF7B4FD09
:105630000A200BF0BAFAD4E7E4BE0108F4BE010870
:1056400098BE0108E0BE010870B582B002F062FCAD
:10565000044603F06DFC05465B2632462146FAF708
:10566000F9FE03F061FC114B18605D60104B186887
:105670000BF064FC00230193009333462246012182
:105680004FF6FF7002F0D0FB10B1418802F0A0FA93
:105690004FF47A700BF089FA00220092134607212A
:1056A000084602F0B7F802B070BD00BF5C030020EE
:1056B0000C10012000B585B01F4D204C204B0293EB
:1056C000212301931F4E00962B46042221460020E1
:1056D000FFF762FD1C4B02932223019300962B4699
:1056E000042221460020FFF757FD184B0293232385
:1056F000019300962B46042221460020FFF74CFD23
:10570000134B02932423019300962B460422214637
:105710000020FFF741FD0F4808F00CFB08210E4860
:1057200004F071FF08210D4804F06DFF4FF49D70E7
:105730000BF03BFAEFE700BF0CBF0108BC09020801
:1057400054BF0108A4BF01086CBF0108C0000020BD
:10575000A8000020EC120120000C024000000240D2
:1057600030B589B03B4B02933B2301933A4B0093F6
:105770003A4B04223A490020FFF70EFD394803F066
:1057800071FB40F6B831384B18680BF071FA0824F9
:1057900009E010F1020F1FD109B030BD0A21334BCF
:1057A00018680BF065FA4FF0FF3205A9072002F0E8
:1057B00072F80028EDD1DDF81A405CB12C4DBDF82F
:1057C000182021462846FAF745FE20460BF0F4FD46
:1057D000CDF81A509DF81640072CE4D801A353F8D1
:1057E00024F000BF9D570008055800081358000812
:1057F0001B58000827580008315800083D58000879
:1058000049580008BDF81810DDF81A00FFF7DAFE55
:10581000C9E70020FFF718FFC5E70A21134B1868F6
:105820000BF026FABFE7114B18680BF03BFABAE70A
:10583000BDF818100E48FFF75BFEB4E7BDF818106E
:105840000B48FFF730FEAEE7BDF818100848FFF729
:10585000EDFDA8E78CBF0108B4BF01080CBF01082B
:10586000BC090208295900083C10012050100120F1
:105870006403002008B54FF0FF31074B18680BF0A8
:1058800029FB4FF47A7240F27E41044801F0B0FBEC
:1058900001F03AF90BF084F90C100120740B01208F
:1058A00008B500F005F80A200BF07FF9F9E70000D1
:1058B00038B502F051FA044602F054FA2402A4B2B8
:1058C0000444164B1C8000245C809C8010E0144B28
:1058D00003EBC405A98853F8340004F087FEA871CF
:1058E00004F108020D4B03EB4203D8800134E4B20B
:1058F000072CECD900240EE00A4B03EBC405A98861
:1059000053F8340004F072FEA871044B03EB440317
:10591000D8800134E4B2032CEED938BD78030020DE
:10592000DC0000201C010020F8B5044690B10C4DAD
:1059300005F120072E460FCE20606160A260E36073
:1059400035461034BE42F5D130682060B388A3805C
:105950000020F8BD63210348FFF7D4FCE7E700BF50
:1059600078030020C4BF0108042800D9704710B58F
:105970000138054B03EBC0040A46A18853F83000F8
:1059800004F03BFE10BD00BF1C0100202DE9F043D8
:10599000ADF5037D0E46174699464FF481742246B5
:1059A000002141A8FAF758FE224600216846FAF77E
:1059B00053FE002408E04FF4807259F824100DF5CE
:1059C0008370FBF7E9FE0134B44218DA4FEA840829
:1059D00057F8245022492846FBF7ACFC0028EAD0AF
:1059E00020492846FBF7A6FC0028ECD14FF4807232
:1059F00059F808100DF10200FBF7CEFEE3E70DF5B4
:105A00008370FBF7FDFE84B2ADF804410DF1020096
:105A1000FBF7F6FE85B2ADF8005013490DF5837023
:105A2000FBF788FC90B911490DF10200FBF71CFD52
:105A300088B994B10DB90E4809E00E4C0123E37604
:105A400005F0DCF8C4F831000B4800E008480DF51B
:105A5000037DBDE8F0830648F9E70548F7E700BF96
:105A60002CC0010838C001089A0D0120AE0D01209C
:105A700018C00108F402002008C001082DE9F04315
:105A800085B098468A4BDB7E1BB98A4805B0BDE8D5
:105A9000F0830E461746864BD3F8310001F010FA1A
:105AA000854B984204D9824B0022DA768148EDE793
:105AB00005F0A4F87E4BC3F831004FF48174224600
:105AC00000217E48FAF7C8FD224600217C48FAF7FB
:105AD000C3FD224600217B48FAF7BEFD2246002185
:105AE0007948FAF7B9FD224600217848FAF7B4FD63
:105AF000002407E04FF4807258F824107448FBF734
:105B00004BFE0134B4423EDA4FEA840957F8245080
